{
  "contracts/agric-tech.sol": {
    "FarmToStoreTraceability": {
      "abi": [
        {
          "inputs": [],
          "stateMutability": "nonpayable",
          "type": "constructor"
        },
        {
          "inputs": [
            {
              "internalType": "uint256",
              "name": "",
              "type": "uint256"
            }
          ],
          "name": "all_users",
          "outputs": [
            {
              "internalType": "address",
              "name": "",
              "type": "address"
            }
          ],
          "stateMutability": "view",
          "type": "function"
        },
        {
          "inputs": [
            {
              "internalType": "uint256",
              "name": "id",
              "type": "uint256"
            }
          ],
          "name": "approve_role",
          "outputs": [],
          "stateMutability": "nonpayable",
          "type": "function"
        },
        {
          "inputs": [
            {
              "internalType": "address",
              "name": "_address",
              "type": "address"
            }
          ],
          "name": "check_application_result",
          "outputs": [
            {
              "internalType": "bool",
              "name": "",
              "type": "bool"
            }
          ],
          "stateMutability": "view",
          "type": "function"
        },
        {
          "inputs": [
            {
              "internalType": "uint256",
              "name": "cropId",
              "type": "uint256"
            },
            {
              "internalType": "uint256",
              "name": "arrival_date",
              "type": "uint256"
            }
          ],
          "name": "confirmArrival",
          "outputs": [],
          "stateMutability": "nonpayable",
          "type": "function"
        },
        {
          "inputs": [],
          "name": "cropCount",
          "outputs": [
            {
              "internalType": "uint256",
              "name": "",
              "type": "uint256"
            }
          ],
          "stateMutability": "view",
          "type": "function"
        },
        {
          "inputs": [],
          "name": "crop_count",
          "outputs": [
            {
              "internalType": "uint256",
              "name": "",
              "type": "uint256"
            }
          ],
          "stateMutability": "view",
          "type": "function"
        },
        {
          "inputs": [
            {
              "internalType": "uint256",
              "name": "",
              "type": "uint256"
            }
          ],
          "name": "crops",
          "outputs": [
            {
              "internalType": "uint256",
              "name": "id",
              "type": "uint256"
            },
            {
              "internalType": "string",
              "name": "crop_id",
              "type": "string"
            },
            {
              "internalType": "string",
              "name": "name",
              "type": "string"
            },
            {
              "internalType": "uint256",
              "name": "quantity",
              "type": "uint256"
            },
            {
              "internalType": "uint256",
              "name": "price_per_unit",
              "type": "uint256"
            },
            {
              "internalType": "uint256",
              "name": "harvestDate",
              "type": "uint256"
            },
            {
              "internalType": "address",
              "name": "farmer",
              "type": "address"
            },
            {
              "internalType": "enum FarmToStoreTraceability.Crop_Status",
              "name": "status",
              "type": "uint8"
            }
          ],
          "stateMutability": "view",
          "type": "function"
        },
        {
          "inputs": [],
          "name": "deliveryCount",
          "outputs": [
            {
              "internalType": "uint256",
              "name": "",
              "type": "uint256"
            }
          ],
          "stateMutability": "view",
          "type": "function"
        },
        {
          "inputs": [
            {
              "internalType": "address",
              "name": "",
              "type": "address"
            },
            {
              "internalType": "uint256",
              "name": "",
              "type": "uint256"
            }
          ],
          "name": "farmer_history",
          "outputs": [
            {
              "internalType": "uint256",
              "name": "id",
              "type": "uint256"
            },
            {
              "internalType": "address",
              "name": "farmer",
              "type": "address"
            },
            {
              "internalType": "string",
              "name": "product_name",
              "type": "string"
            },
            {
              "internalType": "string",
              "name": "sent_to",
              "type": "string"
            },
            {
              "internalType": "address",
              "name": "store",
              "type": "address"
            },
            {
              "internalType": "string",
              "name": "through",
              "type": "string"
            },
            {
              "internalType": "address",
              "name": "transporter",
              "type": "address"
            },
            {
              "internalType": "uint256",
              "name": "date",
              "type": "uint256"
            }
          ],
          "stateMutability": "view",
          "type": "function"
        },
        {
          "inputs": [
            {
              "internalType": "uint256",
              "name": "",
              "type": "uint256"
            }
          ],
          "name": "farmers",
          "outputs": [
            {
              "internalType": "address",
              "name": "",
              "type": "address"
            }
          ],
          "stateMutability": "view",
          "type": "function"
        },
        {
          "inputs": [],
          "name": "get_all_users_count",
          "outputs": [
            {
              "internalType": "uint256",
              "name": "",
              "type": "uint256"
            }
          ],
          "stateMutability": "view",
          "type": "function"
        },
        {
          "inputs": [
            {
              "internalType": "uint256",
              "name": "cropId",
              "type": "uint256"
            }
          ],
          "name": "get_crop_byIndex",
          "outputs": [
            {
              "internalType": "uint256",
              "name": "id",
              "type": "uint256"
            },
            {
              "internalType": "string",
              "name": "crop_id",
              "type": "string"
            },
            {
              "internalType": "string",
              "name": "name",
              "type": "string"
            },
            {
              "internalType": "uint256",
              "name": "quantity",
              "type": "uint256"
            },
            {
              "internalType": "uint256",
              "name": "harvestDate",
              "type": "uint256"
            },
            {
              "internalType": "uint256",
              "name": "price_per_unit",
              "type": "uint256"
            },
            {
              "internalType": "address",
              "name": "farmer",
              "type": "address"
            },
            {
              "internalType": "enum FarmToStoreTraceability.Crop_Status",
              "name": "status",
              "type": "uint8"
            }
          ],
          "stateMutability": "view",
          "type": "function"
        },
        {
          "inputs": [
            {
              "internalType": "uint256",
              "name": "crop_id",
              "type": "uint256"
            }
          ],
          "name": "get_delivery_byIndex",
          "outputs": [
            {
              "internalType": "uint256",
              "name": "id",
              "type": "uint256"
            },
            {
              "internalType": "string",
              "name": "cropId",
              "type": "string"
            },
            {
              "internalType": "string",
              "name": "name",
              "type": "string"
            },
            {
              "internalType": "address",
              "name": "farmer",
              "type": "address"
            },
            {
              "internalType": "address",
              "name": "transporter",
              "type": "address"
            },
            {
              "internalType": "address",
              "name": "store",
              "type": "address"
            },
            {
              "internalType": "string",
              "name": "pick_up_location",
              "type": "string"
            },
            {
              "internalType": "string",
              "name": "destination",
              "type": "string"
            },
            {
              "internalType": "uint256",
              "name": "quantity",
              "type": "uint256"
            },
            {
              "internalType": "enum FarmToStoreTraceability.Crop_Status",
              "name": "status",
              "type": "uint8"
            }
          ],
          "stateMutability": "view",
          "type": "function"
        },
        {
          "inputs": [],
          "name": "get_delivery_count",
          "outputs": [
            {
              "internalType": "uint256",
              "name": "",
              "type": "uint256"
            }
          ],
          "stateMutability": "view",
          "type": "function"
        },
        {
          "inputs": [
            {
              "internalType": "address",
              "name": "_farmer",
              "type": "address"
            },
            {
              "internalType": "uint256",
              "name": "index",
              "type": "uint256"
            }
          ],
          "name": "get_farmer_history_byIndex",
          "outputs": [
            {
              "internalType": "uint256",
              "name": "id",
              "type": "uint256"
            },
            {
              "internalType": "address",
              "name": "farmer",
              "type": "address"
            },
            {
              "internalType": "string",
              "name": "product_name",
              "type": "string"
            },
            {
              "internalType": "string",
              "name": "sent_to",
              "type": "string"
            },
            {
              "internalType": "address",
              "name": "store",
              "type": "address"
            },
            {
              "internalType": "string",
              "name": "through",
              "type": "string"
            },
            {
              "internalType": "address",
              "name": "transporter",
              "type": "address"
            },
            {
              "internalType": "uint256",
              "name": "date",
              "type": "uint256"
            }
          ],
          "stateMutability": "view",
          "type": "function"
        },
        {
          "inputs": [
            {
              "internalType": "address",
              "name": "_farmer",
              "type": "address"
            }
          ],
          "name": "get_farmer_history_count",
          "outputs": [
            {
              "internalType": "uint256",
              "name": "",
              "type": "uint256"
            }
          ],
          "stateMutability": "view",
          "type": "function"
        },
        {
          "inputs": [
            {
              "internalType": "uint256",
              "name": "id",
              "type": "uint256"
            }
          ],
          "name": "get_pending_request_byIndex",
          "outputs": [
            {
              "internalType": "address",
              "name": "pending_address",
              "type": "address"
            },
            {
              "internalType": "string",
              "name": "name",
              "type": "string"
            },
            {
              "internalType": "string",
              "name": "location",
              "type": "string"
            },
            {
              "internalType": "enum FarmToStoreTraceability.Role",
              "name": "requestedRole",
              "type": "uint8"
            },
            {
              "internalType": "bool",
              "name": "isApproved",
              "type": "bool"
            },
            {
              "internalType": "bool",
              "name": "exists",
              "type": "bool"
            }
          ],
          "stateMutability": "view",
          "type": "function"
        },
        {
          "inputs": [],
          "name": "get_pending_request_count",
          "outputs": [
            {
              "internalType": "uint256",
              "name": "",
              "type": "uint256"
            }
          ],
          "stateMutability": "view",
          "type": "function"
        },
        {
          "inputs": [
            {
              "internalType": "uint256",
              "name": "product_id",
              "type": "uint256"
            }
          ],
          "name": "get_product_byIndex",
          "outputs": [
            {
              "internalType": "string",
              "name": "crop_id",
              "type": "string"
            },
            {
              "internalType": "string",
              "name": "name",
              "type": "string"
            },
            {
              "internalType": "address",
              "name": "owner_address",
              "type": "address"
            },
            {
              "internalType": "address",
              "name": "transporter_address",
              "type": "address"
            },
            {
              "internalType": "address",
              "name": "store_address",
              "type": "address"
            },
            {
              "internalType": "uint256",
              "name": "harvestDate",
              "type": "uint256"
            },
            {
              "internalType": "uint256",
              "name": "quantity",
              "type": "uint256"
            },
            {
              "internalType": "uint256",
              "name": "price_per_unit",
              "type": "uint256"
            },
            {
              "internalType": "uint256",
              "name": "arrival_date",
              "type": "uint256"
            }
          ],
          "stateMutability": "view",
          "type": "function"
        },
        {
          "inputs": [
            {
              "internalType": "address",
              "name": "_store",
              "type": "address"
            },
            {
              "internalType": "uint256",
              "name": "index",
              "type": "uint256"
            }
          ],
          "name": "get_store_history_byIndex",
          "outputs": [
            {
              "internalType": "uint256",
              "name": "id",
              "type": "uint256"
            },
            {
              "internalType": "address",
              "name": "farmer",
              "type": "address"
            },
            {
              "internalType": "address",
              "name": "transporter",
              "type": "address"
            },
            {
              "internalType": "string",
              "name": "farmer_name",
              "type": "string"
            },
            {
              "internalType": "string",
              "name": "transporter_name",
              "type": "string"
            },
            {
              "internalType": "uint256",
              "name": "date",
              "type": "uint256"
            },
            {
              "internalType": "string",
              "name": "product_name",
              "type": "string"
            },
            {
              "internalType": "uint256",
              "name": "quantity",
              "type": "uint256"
            }
          ],
          "stateMutability": "view",
          "type": "function"
        },
        {
          "inputs": [
            {
              "internalType": "address",
              "name": "_store",
              "type": "address"
            }
          ],
          "name": "get_store_history_count",
          "outputs": [
            {
              "internalType": "uint256",
              "name": "",
              "type": "uint256"
            }
          ],
          "stateMutability": "view",
          "type": "function"
        },
        {
          "inputs": [],
          "name": "get_store_product_count",
          "outputs": [
            {
              "internalType": "uint256",
              "name": "",
              "type": "uint256"
            }
          ],
          "stateMutability": "view",
          "type": "function"
        },
        {
          "inputs": [
            {
              "internalType": "address",
              "name": "_transporter",
              "type": "address"
            },
            {
              "internalType": "uint256",
              "name": "index",
              "type": "uint256"
            }
          ],
          "name": "get_transporter_history_byIndex",
          "outputs": [
            {
              "internalType": "uint256",
              "name": "id",
              "type": "uint256"
            },
            {
              "internalType": "address",
              "name": "farmer",
              "type": "address"
            },
            {
              "internalType": "address",
              "name": "store",
              "type": "address"
            },
            {
              "internalType": "string",
              "name": "farmer_name",
              "type": "string"
            },
            {
              "internalType": "string",
              "name": "store_name",
              "type": "string"
            },
            {
              "internalType": "string",
              "name": "crop_name",
              "type": "string"
            },
            {
              "internalType": "string",
              "name": "from",
              "type": "string"
            },
            {
              "internalType": "string",
              "name": "to",
              "type": "string"
            },
            {
              "internalType": "uint256",
              "name": "date",
              "type": "uint256"
            }
          ],
          "stateMutability": "view",
          "type": "function"
        },
        {
          "inputs": [
            {
              "internalType": "address",
              "name": "_transporter",
              "type": "address"
            }
          ],
          "name": "get_transporter_history_count",
          "outputs": [
            {
              "internalType": "uint256",
              "name": "",
              "type": "uint256"
            }
          ],
          "stateMutability": "view",
          "type": "function"
        },
        {
          "inputs": [
            {
              "internalType": "address",
              "name": "_address",
              "type": "address"
            }
          ],
          "name": "get_user_byAddress",
          "outputs": [
            {
              "internalType": "address",
              "name": "user_address",
              "type": "address"
            },
            {
              "internalType": "string",
              "name": "name",
              "type": "string"
            },
            {
              "internalType": "string",
              "name": "location",
              "type": "string"
            },
            {
              "internalType": "uint256",
              "name": "successful_delivery",
              "type": "uint256"
            },
            {
              "internalType": "enum FarmToStoreTraceability.Role",
              "name": "role",
              "type": "uint8"
            }
          ],
          "stateMutability": "view",
          "type": "function"
        },
        {
          "inputs": [
            {
              "internalType": "uint256",
              "name": "index",
              "type": "uint256"
            }
          ],
          "name": "get_user_byIndex",
          "outputs": [
            {
              "internalType": "address",
              "name": "user_address",
              "type": "address"
            },
            {
              "internalType": "string",
              "name": "name",
              "type": "string"
            },
            {
              "internalType": "string",
              "name": "location",
              "type": "string"
            },
            {
              "internalType": "uint256",
              "name": "successful_delivery",
              "type": "uint256"
            },
            {
              "internalType": "enum FarmToStoreTraceability.Role",
              "name": "role",
              "type": "uint8"
            }
          ],
          "stateMutability": "view",
          "type": "function"
        },
        {
          "inputs": [],
          "name": "get_user_count",
          "outputs": [
            {
              "internalType": "uint256",
              "name": "",
              "type": "uint256"
            }
          ],
          "stateMutability": "view",
          "type": "function"
        },
        {
          "inputs": [
            {
              "internalType": "address",
              "name": "_address",
              "type": "address"
            }
          ],
          "name": "get_user_details",
          "outputs": [
            {
              "internalType": "address",
              "name": "user_address",
              "type": "address"
            },
            {
              "internalType": "string",
              "name": "name",
              "type": "string"
            },
            {
              "internalType": "string",
              "name": "location",
              "type": "string"
            },
            {
              "internalType": "enum FarmToStoreTraceability.Role",
              "name": "role",
              "type": "uint8"
            }
          ],
          "stateMutability": "view",
          "type": "function"
        },
        {
          "inputs": [
            {
              "internalType": "address",
              "name": "_address",
              "type": "address"
            }
          ],
          "name": "get_user_name",
          "outputs": [
            {
              "internalType": "string",
              "name": "",
              "type": "string"
            }
          ],
          "stateMutability": "view",
          "type": "function"
        },
        {
          "inputs": [
            {
              "internalType": "enum FarmToStoreTraceability.Role",
              "name": "role",
              "type": "uint8"
            }
          ],
          "name": "list_user_address",
          "outputs": [
            {
              "internalType": "address[]",
              "name": "",
              "type": "address[]"
            }
          ],
          "stateMutability": "view",
          "type": "function"
        },
        {
          "inputs": [],
          "name": "owner",
          "outputs": [
            {
              "internalType": "address",
              "name": "",
              "type": "address"
            }
          ],
          "stateMutability": "view",
          "type": "function"
        },
        {
          "inputs": [
            {
              "internalType": "uint256",
              "name": "",
              "type": "uint256"
            }
          ],
          "name": "pendingDeliveries",
          "outputs": [
            {
              "internalType": "uint256",
              "name": "id",
              "type": "uint256"
            },
            {
              "internalType": "string",
              "name": "cropId",
              "type": "string"
            },
            {
              "internalType": "string",
              "name": "name",
              "type": "string"
            },
            {
              "internalType": "address",
              "name": "farmer",
              "type": "address"
            },
            {
              "internalType": "address",
              "name": "transporter",
              "type": "address"
            },
            {
              "internalType": "address",
              "name": "store",
              "type": "address"
            },
            {
              "internalType": "string",
              "name": "pick_up_location",
              "type": "string"
            },
            {
              "internalType": "string",
              "name": "destination",
              "type": "string"
            },
            {
              "internalType": "uint256",
              "name": "quantity",
              "type": "uint256"
            },
            {
              "internalType": "enum FarmToStoreTraceability.Crop_Status",
              "name": "status",
              "type": "uint8"
            }
          ],
          "stateMutability": "view",
          "type": "function"
        },
        {
          "inputs": [
            {
              "internalType": "uint256",
              "name": "",
              "type": "uint256"
            }
          ],
          "name": "pendingUsers",
          "outputs": [
            {
              "internalType": "address",
              "name": "pending_address",
              "type": "address"
            },
            {
              "internalType": "string",
              "name": "name",
              "type": "string"
            },
            {
              "internalType": "string",
              "name": "location",
              "type": "string"
            },
            {
              "internalType": "enum FarmToStoreTraceability.Role",
              "name": "requestedRole",
              "type": "uint8"
            },
            {
              "internalType": "bool",
              "name": "isApproved",
              "type": "bool"
            },
            {
              "internalType": "bool",
              "name": "exists",
              "type": "bool"
            }
          ],
          "stateMutability": "view",
          "type": "function"
        },
        {
          "inputs": [],
          "name": "pending_users_count",
          "outputs": [
            {
              "internalType": "uint256",
              "name": "",
              "type": "uint256"
            }
          ],
          "stateMutability": "view",
          "type": "function"
        },
        {
          "inputs": [
            {
              "internalType": "uint256",
              "name": "",
              "type": "uint256"
            }
          ],
          "name": "product_inStore",
          "outputs": [
            {
              "internalType": "string",
              "name": "crop_id",
              "type": "string"
            },
            {
              "internalType": "string",
              "name": "name",
              "type": "string"
            },
            {
              "internalType": "address",
              "name": "owner_address",
              "type": "address"
            },
            {
              "internalType": "address",
              "name": "transporter_address",
              "type": "address"
            },
            {
              "internalType": "address",
              "name": "store_address",
              "type": "address"
            },
            {
              "internalType": "uint256",
              "name": "harvestDate",
              "type": "uint256"
            },
            {
              "internalType": "uint256",
              "name": "quantity",
              "type": "uint256"
            },
            {
              "internalType": "uint256",
              "name": "price_per_unit",
              "type": "uint256"
            },
            {
              "internalType": "uint256",
              "name": "arrival_date",
              "type": "uint256"
            }
          ],
          "stateMutability": "view",
          "type": "function"
        },
        {
          "inputs": [
            {
              "internalType": "uint256",
              "name": "id",
              "type": "uint256"
            }
          ],
          "name": "product_inTransit",
          "outputs": [],
          "stateMutability": "nonpayable",
          "type": "function"
        },
        {
          "inputs": [
            {
              "internalType": "string",
              "name": "name",
              "type": "string"
            },
            {
              "internalType": "string",
              "name": "product_id",
              "type": "string"
            },
            {
              "internalType": "uint256",
              "name": "quantity",
              "type": "uint256"
            },
            {
              "internalType": "uint256",
              "name": "_price",
              "type": "uint256"
            },
            {
              "internalType": "uint256",
              "name": "harvestDate",
              "type": "uint256"
            }
          ],
          "name": "registerCrop",
          "outputs": [],
          "stateMutability": "nonpayable",
          "type": "function"
        },
        {
          "inputs": [
            {
              "internalType": "uint256",
              "name": "id",
              "type": "uint256"
            }
          ],
          "name": "reject_role",
          "outputs": [],
          "stateMutability": "nonpayable",
          "type": "function"
        },
        {
          "inputs": [
            {
              "internalType": "uint256",
              "name": "",
              "type": "uint256"
            }
          ],
          "name": "rejected_roles",
          "outputs": [
            {
              "internalType": "address",
              "name": "",
              "type": "address"
            }
          ],
          "stateMutability": "view",
          "type": "function"
        },
        {
          "inputs": [
            {
              "internalType": "string",
              "name": "name",
              "type": "string"
            },
            {
              "internalType": "enum FarmToStoreTraceability.Role",
              "name": "role",
              "type": "uint8"
            },
            {
              "internalType": "string",
              "name": "_location",
              "type": "string"
            }
          ],
          "name": "request_for_role",
          "outputs": [],
          "stateMutability": "nonpayable",
          "type": "function"
        },
        {
          "inputs": [
            {
              "internalType": "address",
              "name": "_address",
              "type": "address"
            }
          ],
          "name": "resign_user",
          "outputs": [],
          "stateMutability": "nonpayable",
          "type": "function"
        },
        {
          "inputs": [
            {
              "internalType": "address",
              "name": "",
              "type": "address"
            }
          ],
          "name": "roles",
          "outputs": [
            {
              "internalType": "enum FarmToStoreTraceability.Role",
              "name": "",
              "type": "uint8"
            }
          ],
          "stateMutability": "view",
          "type": "function"
        },
        {
          "inputs": [
            {
              "internalType": "uint256",
              "name": "id",
              "type": "uint256"
            },
            {
              "internalType": "uint256",
              "name": "_quantity",
              "type": "uint256"
            },
            {
              "internalType": "address",
              "name": "_store",
              "type": "address"
            },
            {
              "internalType": "address",
              "name": "transporter",
              "type": "address"
            },
            {
              "internalType": "string",
              "name": "_pick_up_location",
              "type": "string"
            },
            {
              "internalType": "string",
              "name": "_destination",
              "type": "string"
            }
          ],
          "name": "send_to_transporter",
          "outputs": [],
          "stateMutability": "nonpayable",
          "type": "function"
        },
        {
          "inputs": [
            {
              "internalType": "address",
              "name": "",
              "type": "address"
            },
            {
              "internalType": "uint256",
              "name": "",
              "type": "uint256"
            }
          ],
          "name": "store_history",
          "outputs": [
            {
              "internalType": "uint256",
              "name": "id",
              "type": "uint256"
            },
            {
              "internalType": "address",
              "name": "farmer",
              "type": "address"
            },
            {
              "internalType": "address",
              "name": "transporter",
              "type": "address"
            },
            {
              "internalType": "string",
              "name": "farmer_name",
              "type": "string"
            },
            {
              "internalType": "string",
              "name": "transporter_name",
              "type": "string"
            },
            {
              "internalType": "uint256",
              "name": "date",
              "type": "uint256"
            },
            {
              "internalType": "string",
              "name": "product_name",
              "type": "string"
            },
            {
              "internalType": "uint256",
              "name": "quantity",
              "type": "uint256"
            }
          ],
          "stateMutability": "view",
          "type": "function"
        },
        {
          "inputs": [
            {
              "internalType": "uint256",
              "name": "",
              "type": "uint256"
            }
          ],
          "name": "store_managers",
          "outputs": [
            {
              "internalType": "address",
              "name": "",
              "type": "address"
            }
          ],
          "stateMutability": "view",
          "type": "function"
        },
        {
          "inputs": [],
          "name": "store_product_count",
          "outputs": [
            {
              "internalType": "uint256",
              "name": "",
              "type": "uint256"
            }
          ],
          "stateMutability": "view",
          "type": "function"
        },
        {
          "inputs": [
            {
              "internalType": "address",
              "name": "",
              "type": "address"
            },
            {
              "internalType": "uint256",
              "name": "",
              "type": "uint256"
            }
          ],
          "name": "transporter_history",
          "outputs": [
            {
              "internalType": "uint256",
              "name": "id",
              "type": "uint256"
            },
            {
              "internalType": "address",
              "name": "farmer",
              "type": "address"
            },
            {
              "internalType": "address",
              "name": "store",
              "type": "address"
            },
            {
              "internalType": "string",
              "name": "farmer_name",
              "type": "string"
            },
            {
              "internalType": "string",
              "name": "store_name",
              "type": "string"
            },
            {
              "internalType": "string",
              "name": "crop_name",
              "type": "string"
            },
            {
              "internalType": "string",
              "name": "from",
              "type": "string"
            },
            {
              "internalType": "string",
              "name": "to",
              "type": "string"
            },
            {
              "internalType": "uint256",
              "name": "date",
              "type": "uint256"
            }
          ],
          "stateMutability": "view",
          "type": "function"
        },
        {
          "inputs": [
            {
              "internalType": "uint256",
              "name": "",
              "type": "uint256"
            }
          ],
          "name": "transporters",
          "outputs": [
            {
              "internalType": "address",
              "name": "",
              "type": "address"
            }
          ],
          "stateMutability": "view",
          "type": "function"
        },
        {
          "inputs": [],
          "name": "user_count",
          "outputs": [
            {
              "internalType": "uint256",
              "name": "",
              "type": "uint256"
            }
          ],
          "stateMutability": "view",
          "type": "function"
        },
        {
          "inputs": [
            {
              "internalType": "address",
              "name": "",
              "type": "address"
            }
          ],
          "name": "users",
          "outputs": [
            {
              "internalType": "address",
              "name": "user_address",
              "type": "address"
            },
            {
              "internalType": "string",
              "name": "name",
              "type": "string"
            },
            {
              "internalType": "string",
              "name": "location",
              "type": "string"
            },
            {
              "internalType": "uint256",
              "name": "successful_delivery",
              "type": "uint256"
            },
            {
              "internalType": "enum FarmToStoreTraceability.Role",
              "name": "role",
              "type": "uint8"
            }
          ],
          "stateMutability": "view",
          "type": "function"
        },
        {
          "inputs": [
            {
              "internalType": "address",
              "name": "connected_address",
              "type": "address"
            }
          ],
          "name": "wallet_identity",
          "outputs": [
            {
              "internalType": "string",
              "name": "",
              "type": "string"
            }
          ],
          "stateMutability": "view",
          "type": "function"
        }
      ],
      "evm": {
        "bytecode": {
          "linkReferences": {},
          "object": "6080604052348015600f57600080fd5b50600d80546001600160a01b03191633179055615b7e806100316000396000f3fe608060405234801561001057600080fd5b50600436106102f15760003560e01c806387e720e11161019d578063a87430ba116100e9578063cf464f57116100a2578063e36b4f641161007c578063e36b4f6414610773578063ec7bf72b14610786578063f82042fe14610799578063fd33482d146107ac57600080fd5b8063cf464f5714610734578063d2965f0414610747578063dfd55a2c1461076a57600080fd5b8063a87430ba146106a5578063aa1c568e146106c9578063b08aeaec146106dc578063bb805f69146106ef578063bd5d0808146106f8578063beeba5d61461070b57600080fd5b8063911dacdc11610156578063993746421161013057806399374642146106315780639bcb1739146106615780639c1f9004146106745780639f96835a1461069d57600080fd5b8063911dacdc146105f857806392ab20f11461060b57806392bd337c1461061e57600080fd5b806387e720e11461054d57806389d219f8146105745780638afdd669146105975780638b74b6c6146105aa5780638d165248146105bd5780638da5cb5b146105e557600080fd5b80634847bd561161025c5780635c832800116102155780636811a96e116101ef5780636811a96e146104f6578063693469421461050957806370c9f1a51461053257806377e0e7ea1461054557600080fd5b80635c832800146104b45780636004d2e3146104bc57806367dac2a0146104e357600080fd5b80634847bd56146104415780634a9b41751461045457806353bdb1b01461046757806356e80b981461047a578063598fa80c146104a35780635b77b6a6146104ab57600080fd5b80632a42d705116102ae5780632a42d705146103bf5780632b9575aa146103e65780632f3d819b1461040657806336461c111461041d57806345ecc2a71461043057806348445e4d1461043957600080fd5b8063034da8ba146102f657806306f067681461030b578063129b9dc31461033c5780631ac0bce81461035c5780631d93f21e1461038757806329c2a877146103ac575b600080fd5b6103096103043660046150fc565b6107b4565b005b61031e6103193660046150fc565b61083f565b6040516103339998979695949392919061515b565b60405180910390f35b61034f61034a3660046151d9565b6109a6565b60405161033391906151fb565b61036f61036a3660046150fc565b610b1d565b6040516001600160a01b039091168152602001610333565b61039a6103953660046150fc565b610b47565b6040516103339695949392919061527b565b61036f6103ba3660046150fc565b610d8c565b6103d26103cd3660046152f3565b610d9c565b60405161033398979695949392919061531d565b6103f96103f436600461539e565b6110ba565b60405161033391906153b9565b61040f600a5481565b604051908152602001610333565b61030961042b36600461539e565b61115f565b61040f600b5481565b600a5461040f565b61030961044f366004615471565b611316565b61036f6104623660046150fc565b611634565b61039a6104753660046150fc565b611644565b61040f61048836600461539e565b6001600160a01b031660009081526002602052604090205490565b600b5461040f565b61040f60095481565b600f5461040f565b6104cf6104ca3660046150fc565b61179d565b60405161033398979695949392919061550d565b61036f6104f13660046150fc565b6119a5565b610309610504366004615579565b6119b5565b61051c6105173660046150fc565b611acf565b6040516103339a999897969594939291906155f2565b6104cf6105403660046150fc565b611d54565b60085461040f565b61056061055b3660046152f3565b611eb5565b60405161033398979695949392919061568f565b61058761058236600461539e565b6120bb565b6040519015158152602001610333565b61036f6105a53660046150fc565b612115565b6105606105b83660046152f3565b612125565b6105d06105cb3660046152f3565b6123c9565b60405161033399989796959493929190615704565b600d5461036f906001600160a01b031681565b6103f961060636600461539e565b6126e5565b61030961061936600461579d565b61288f565b6103d261062c3660046152f3565b6129f9565b61065461063f36600461539e565b60066020526000908152604090205460ff1681565b6040516103339190615821565b61031e61066f3660046150fc565b612c16565b61040f61068236600461539e565b6001600160a01b031660009081526001602052604090205490565b60095461040f565b6106b86106b336600461539e565b612e6d565b604051610333959493929190615834565b6106b86106d73660046150fc565b612fba565b61051c6106ea3660046150fc565b6131e7565b61040f600c5481565b6103096107063660046150fc565b61352f565b61040f61071936600461539e565b6001600160a01b031660009081526020819052604090205490565b6106b861074236600461539e565b613a2f565b61075a61075536600461539e565b613bf7565b604051610333949392919061588c565b61040f60085481565b6103096107813660046150fc565b613db6565b6103096107943660046158dd565b613ea2565b6105d06107a73660046152f3565b614cdf565b600c5461040f565b6001803360009081526006602052604090205460ff1660028111156107db576107db615247565b146108015760405162461bcd60e51b81526004016107f8906158ff565b60405180910390fd5b5060009081526003602090815260408083206004909252909120600601805460ff60a01b1916600160a01b179055600901805460ff19166001179055565b60076020526000908152604090208054819061085a90615936565b80601f016020809104026020016040519081016040528092919081815260200182805461088690615936565b80156108d35780601f106108a8576101008083540402835291602001916108d3565b820191906000526020600020905b8154815290600101906020018083116108b657829003601f168201915b5050505050908060010180546108e890615936565b80601f016020809104026020016040519081016040528092919081815260200182805461091490615936565b80156109615780601f1061093657610100808354040283529160200191610961565b820191906000526020600020905b81548152906001019060200180831161094457829003601f168201915b50505060028401546003850154600486015460058701546006880154600789015460089099015497986001600160a01b03958616989486169750929094169450929189565b606060008260028111156109bc576109bc615247565b03610a23576011805480602002602001604051908101604052809291908181526020018280548015610a1757602002820191906000526020600020905b81546001600160a01b031681526001909101906020018083116109f9575b50505050509050919050565b6001826002811115610a3757610a37615247565b03610a9c576012805480602002602001604051908101604052809291908181526020018280548015610a17576020028201919060005260206000209081546001600160a01b031681526001909101906020018083116109f95750505050509050919050565b6002826002811115610ab057610ab0615247565b03610b15576013805480602002602001604051908101604052809291908181526020018280548015610a17576020028201919060005260206000209081546001600160a01b031681526001909101906020018083116109f95750505050509050919050565b506060919050565b60138181548110610b2d57600080fd5b6000918252602090912001546001600160a01b0316905081565b600060608060008060008087118015610b625750600b548711155b610bae5760405162461bcd60e51b815260206004820152601a60248201527f496e76616c69642070656e64696e67207265717565737420494400000000000060448201526064016107f8565b6000878152600560209081526040808320815160c0810190925280546001600160a01b031682526001810180549293919291840191610bec90615936565b80601f0160208091040260200160405190810160405280929190818152602001828054610c1890615936565b8015610c655780601f10610c3a57610100808354040283529160200191610c65565b820191906000526020600020905b815481529060010190602001808311610c4857829003601f168201915b50505050508152602001600282018054610c7e90615936565b80601f0160208091040260200160405190810160405280929190818152602001828054610caa90615936565b8015610cf75780601f10610ccc57610100808354040283529160200191610cf7565b820191906000526020600020905b815481529060010190602001808311610cda57829003601f168201915b5050509183525050600382015460209091019060ff166002811115610d1e57610d1e615247565b6002811115610d2f57610d2f615247565b81526003919091015460ff61010082048116151560208085019190915262010000909204161515604092830152825190830151918301516060840151608085015160a090950151929d939c50909a50985091965090945092505050565b60128181548110610b2d57600080fd5b6001600160a01b0382166000908152602081905260408120548190606090819083908290829081908910610e085760405162461bcd60e51b8152602060048201526013602482015272496e646578206f7574206f6620626f756e647360681b60448201526064016107f8565b6001600160a01b038a16600090815260208190526040812080548b908110610e3257610e32615970565b906000526020600020906008020160405180610100016040529081600082015481526020016001820160009054906101000a90046001600160a01b03166001600160a01b03166001600160a01b03168152602001600282018054610e9590615936565b80601f0160208091040260200160405190810160405280929190818152602001828054610ec190615936565b8015610f0e5780601f10610ee357610100808354040283529160200191610f0e565b820191906000526020600020905b815481529060010190602001808311610ef157829003601f168201915b50505050508152602001600382018054610f2790615936565b80601f0160208091040260200160405190810160405280929190818152602001828054610f5390615936565b8015610fa05780601f10610f7557610100808354040283529160200191610fa0565b820191906000526020600020905b815481529060010190602001808311610f8357829003601f168201915b505050918352505060048201546001600160a01b03166020820152600582018054604090920191610fd090615936565b80601f0160208091040260200160405190810160405280929190818152602001828054610ffc90615936565b80156110495780601f1061101e57610100808354040283529160200191611049565b820191906000526020600020905b81548152906001019060200180831161102c57829003601f168201915b505050918352505060068201546001600160a01b0316602080830191909152600790920154604091820152825191830151908301516060840151608085015160a086015160c087015160e090970151959f50939d50919b509950975095509093509150509295985092959890939650565b6001600160a01b0381166000908152600e602052604090206001018054606091906110e490615936565b80601f016020809104026020016040519081016040528092919081815260200182805461111090615936565b8015610a175780601f1061113257610100808354040283529160200191610a17565b820191906000526020600020905b8154815290600101906020018083116111405750939695505050505050565b600d546001600160a01b031633146111895760405162461bcd60e51b81526004016107f890615986565b6001600160a01b0381166000908152600e6020526040812080546001600160a01b0319168155906111bd60018301826150a6565b6111cb6002830160006150a6565b506000600382018190556004909101805460ff199081169091556001600160a01b0383168252600660205260408220805490911690555b600f548110156112fd57816001600160a01b0316600f828154811061122957611229615970565b6000918252602090912001546001600160a01b0316036112f557600f8054611253906001906159c8565b8154811061126357611263615970565b600091825260209091200154600f80546001600160a01b03909216918390811061128f5761128f615970565b9060005260206000200160006101000a8154816001600160a01b0302191690836001600160a01b03160217905550600f8054806112ce576112ce6159e1565b600082815260209020810160001990810180546001600160a01b03191690550190556112fd565b600101611202565b50600c805490600061130e836159f7565b919050555050565b6000803360009081526006602052604090205460ff16600281111561133d5761133d615247565b1461135a5760405162461bcd60e51b81526004016107f8906158ff565b600087815260046020526040902060068101546001600160a01b031633146113b45760405162461bcd60e51b815260206004820152600d60248201526c04e6f7420796f75722063726f7609c1b60448201526064016107f8565b600980549060006113c483615a0e565b919050555060405180610140016040528060095481526020018260010180546113ec90615936565b80601f016020809104026020016040519081016040528092919081815260200182805461141890615936565b80156114655780601f1061143a57610100808354040283529160200191611465565b820191906000526020600020905b81548152906001019060200180831161144857829003601f168201915b5050505050815260200182600201805461147e90615936565b80601f01602080910402602001604051908101604052809291908181526020018280546114aa90615936565b80156114f75780601f106114cc576101008083540402835291602001916114f7565b820191906000526020600020905b8154815290600101906020018083116114da57829003601f168201915b50505091835250503360208201526001600160a01b038781166040830152881660608201526080810186905260a0810185905260c0810189905260e001600190526009546000908152600360209081526040909120825181559082015160018201906115639082615a76565b50604082015160028201906115789082615a76565b5060608201516003820180546001600160a01b039283166001600160a01b031991821617909155608084015160048401805491841691831691909117905560a084015160058401805491909316911617905560c082015160068201906115de9082615a76565b5060e082015160078201906115f39082615a76565b50610100820151600882015561012082015160098201805460ff1916600183600281111561162357611623615247565b021790555050505050505050505050565b60108181548110610b2d57600080fd5b600560205260009081526040902080546001820180546001600160a01b03909216929161167090615936565b80601f016020809104026020016040519081016040528092919081815260200182805461169c90615936565b80156116e95780601f106116be576101008083540402835291602001916116e9565b820191906000526020600020905b8154815290600101906020018083116116cc57829003601f168201915b5050505050908060020180546116fe90615936565b80601f016020809104026020016040519081016040528092919081815260200182805461172a90615936565b80156117775780601f1061174c57610100808354040283529160200191611777565b820191906000526020600020905b81548152906001019060200180831161175a57829003601f168201915b5050506003909301549192505060ff808216916101008104821691620100009091041686565b6000606080600080600080600080600460008b815260200190815260200160002060405180610100016040529081600082015481526020016001820180546117e490615936565b80601f016020809104026020016040519081016040528092919081815260200182805461181090615936565b801561185d5780601f106118325761010080835404028352916020019161185d565b820191906000526020600020905b81548152906001019060200180831161184057829003601f168201915b5050505050815260200160028201805461187690615936565b80601f01602080910402602001604051908101604052809291908181526020018280546118a290615936565b80156118ef5780601f106118c4576101008083540402835291602001916118ef565b820191906000526020600020905b8154815290600101906020018083116118d257829003601f168201915b505050918352505060038201546020820152600482015460408201526005820154606082015260068201546001600160a01b038116608083015260a090910190600160a01b900460ff16600281111561194a5761194a615247565b600281111561195b5761195b615247565b81525050905080600001518160200151826040015183606001518460a0015185608001518660c001518760e001519850985098509850985098509850985050919395975091939597565b600f8181548110610b2d57600080fd5b600b80549060006119c583615a0e565b91905055506040518060c00160405280336001600160a01b03168152602001848152602001828152602001836002811115611a0257611a02615247565b81526000602080830182905260016040938401819052600b5483526005825292909120835181546001600160a01b0319166001600160a01b03909116178155908301519091820190611a549082615a76565b5060408201516002820190611a699082615a76565b50606082015160038201805460ff19166001836002811115611a8d57611a8d615247565b021790555060808201516003909101805460a0909301511515620100000262ff000019921515610100029290921662ffff001990931692909217179055505050565b60036020526000908152604090208054600182018054919291611af190615936565b80601f0160208091040260200160405190810160405280929190818152602001828054611b1d90615936565b8015611b6a5780601f10611b3f57610100808354040283529160200191611b6a565b820191906000526020600020905b815481529060010190602001808311611b4d57829003601f168201915b505050505090806002018054611b7f90615936565b80601f0160208091040260200160405190810160405280929190818152602001828054611bab90615936565b8015611bf85780601f10611bcd57610100808354040283529160200191611bf8565b820191906000526020600020905b815481529060010190602001808311611bdb57829003601f168201915b5050505060038301546004840154600585015460068601805495966001600160a01b03948516969385169550939091169291611c3390615936565b80601f0160208091040260200160405190810160405280929190818152602001828054611c5f90615936565b8015611cac5780601f10611c8157610100808354040283529160200191611cac565b820191906000526020600020905b815481529060010190602001808311611c8f57829003601f168201915b505050505090806007018054611cc190615936565b80601f0160208091040260200160405190810160405280929190818152602001828054611ced90615936565b8015611d3a5780601f10611d0f57610100808354040283529160200191611d3a565b820191906000526020600020905b815481529060010190602001808311611d1d57829003601f168201915b50505050600883015460099093015491929160ff1690508a565b60046020526000908152604090208054600182018054919291611d7690615936565b80601f0160208091040260200160405190810160405280929190818152602001828054611da290615936565b8015611def5780601f10611dc457610100808354040283529160200191611def565b820191906000526020600020905b815481529060010190602001808311611dd257829003601f168201915b505050505090806002018054611e0490615936565b80601f0160208091040260200160405190810160405280929190818152602001828054611e3090615936565b8015611e7d5780601f10611e5257610100808354040283529160200191611e7d565b820191906000526020600020905b815481529060010190602001808311611e6057829003601f168201915b50505050600383015460048401546005850154600690950154939491939092506001600160a01b03811690600160a01b900460ff1688565b60026020528160005260406000208181548110611ed157600080fd5b600091825260209091206008909102018054600182015460028301546003840180549396506001600160a01b03928316955091169291611f1090615936565b80601f0160208091040260200160405190810160405280929190818152602001828054611f3c90615936565b8015611f895780601f10611f5e57610100808354040283529160200191611f89565b820191906000526020600020905b815481529060010190602001808311611f6c57829003601f168201915b505050505090806004018054611f9e90615936565b80601f0160208091040260200160405190810160405280929190818152602001828054611fca90615936565b80156120175780601f10611fec57610100808354040283529160200191612017565b820191906000526020600020905b815481529060010190602001808311611ffa57829003601f168201915b50505050509080600501549080600601805461203290615936565b80601f016020809104026020016040519081016040528092919081815260200182805461205e90615936565b80156120ab5780601f10612080576101008083540402835291602001916120ab565b820191906000526020600020905b81548152906001019060200180831161208e57829003601f168201915b5050505050908060070154905088565b6000805b60105481101561210c57601081815481106120dc576120dc615970565b6000918252602090912001546001600160a01b03908116908416036121045750600092915050565b6001016120bf565b50600192915050565b60118181548110610b2d57600080fd5b600080600060608060006060600080600260008c6001600160a01b03166001600160a01b031681526020019081526020016000208a8154811061216a5761216a615970565b6000918252602091829020604080516101008101825260089093029091018054835260018101546001600160a01b03908116948401949094526002810154909316908201526003820180549192916060840191906121c790615936565b80601f01602080910402602001604051908101604052809291908181526020018280546121f390615936565b80156122405780601f1061221557610100808354040283529160200191612240565b820191906000526020600020905b81548152906001019060200180831161222357829003601f168201915b5050505050815260200160048201805461225990615936565b80601f016020809104026020016040519081016040528092919081815260200182805461228590615936565b80156122d25780601f106122a7576101008083540402835291602001916122d2565b820191906000526020600020905b8154815290600101906020018083116122b557829003601f168201915b50505050508152602001600582015481526020016006820180546122f590615936565b80601f016020809104026020016040519081016040528092919081815260200182805461232190615936565b801561236e5780601f106123435761010080835404028352916020019161236e565b820191906000526020600020905b81548152906001019060200180831161235157829003601f168201915b505050505081526020016007820154815250509050806000015181602001518260400151836060015184608001518560a001518660c001518760e0015198509850985098509850985098509850509295985092959890939650565b600160205281600052604060002081815481106123e557600080fd5b600091825260209091206009909102018054600182015460028301546003840180549396506001600160a01b0392831695509116929161242490615936565b80601f016020809104026020016040519081016040528092919081815260200182805461245090615936565b801561249d5780601f106124725761010080835404028352916020019161249d565b820191906000526020600020905b81548152906001019060200180831161248057829003601f168201915b5050505050908060040180546124b290615936565b80601f01602080910402602001604051908101604052809291908181526020018280546124de90615936565b801561252b5780601f106125005761010080835404028352916020019161252b565b820191906000526020600020905b81548152906001019060200180831161250e57829003601f168201915b50505050509080600501805461254090615936565b80601f016020809104026020016040519081016040528092919081815260200182805461256c90615936565b80156125b95780601f1061258e576101008083540402835291602001916125b9565b820191906000526020600020905b81548152906001019060200180831161259c57829003601f168201915b5050505050908060060180546125ce90615936565b80601f01602080910402602001604051908101604052809291908181526020018280546125fa90615936565b80156126475780601f1061261c57610100808354040283529160200191612647565b820191906000526020600020905b81548152906001019060200180831161262a57829003601f168201915b50505050509080600701805461265c90615936565b80601f016020809104026020016040519081016040528092919081815260200182805461268890615936565b80156126d55780601f106126aa576101008083540402835291602001916126d5565b820191906000526020600020905b8154815290600101906020018083116126b857829003601f168201915b5050505050908060080154905089565b600d546060906001600160a01b039081169083160361271f57505060408051808201909152600581526430b236b4b760d91b602082015290565b60005b60115481101561278a576011818154811061273f5761273f615970565b6000918252602090912001546001600160a01b03908116908416036127825750506040805180820190915260068152653330b936b2b960d11b6020820152919050565b600101612722565b5060005b6012548110156127fb57601281815481106127ab576127ab615970565b6000918252602090912001546001600160a01b03908116908416036127f357505060408051808201909152600b81526a3a3930b739b837b93a32b960a91b6020820152919050565b60010161278e565b5060005b60135481101561286d576013818154811061281c5761281c615970565b6000918252602090912001546001600160a01b039081169084160361286557505060408051808201909152600c81526b39ba37b932a6b0b730b3b2b960a11b6020820152919050565b6001016127ff565b50506040805180820190915260048152636e6f6e6560e01b6020820152919050565b6000803360009081526006602052604090205460ff1660028111156128b6576128b6615247565b146128d35760405162461bcd60e51b81526004016107f8906158ff565b600880549060006128e383615a0e565b91905055506040518061010001604052806008548152602001868152602001878152602001858152602001848152602001838152602001336001600160a01b031681526020016000600281111561293c5761293c615247565b90526008546000908152600460209081526040909120825181559082015160018201906129699082615a76565b506040820151600282019061297e9082615a76565b50606082015160038201556080820151600482015560a0820151600582015560c08201516006820180546001600160a01b039092166001600160a01b031983168117825560e0850151926001600160a81b03191617600160a01b8360028111156129ea576129ea615247565b02179055505050505050505050565b60006020528160005260406000208181548110612a1557600080fd5b60009182526020909120600890910201805460018201546002830180549295506001600160a01b03909116935090612a4c90615936565b80601f0160208091040260200160405190810160405280929190818152602001828054612a7890615936565b8015612ac55780601f10612a9a57610100808354040283529160200191612ac5565b820191906000526020600020905b815481529060010190602001808311612aa857829003601f168201915b505050505090806003018054612ada90615936565b80601f0160208091040260200160405190810160405280929190818152602001828054612b0690615936565b8015612b535780601f10612b2857610100808354040283529160200191612b53565b820191906000526020600020905b815481529060010190602001808311612b3657829003601f168201915b505050600484015460058501805494956001600160a01b03909216949193509150612b7d90615936565b80601f0160208091040260200160405190810160405280929190818152602001828054612ba990615936565b8015612bf65780601f10612bcb57610100808354040283529160200191612bf6565b820191906000526020600020905b815481529060010190602001808311612bd957829003601f168201915b50505050600683015460079093015491926001600160a01b031691905088565b606080600080600080600080600080600760008c815260200190815260200160002060405180610120016040529081600082018054612c5490615936565b80601f0160208091040260200160405190810160405280929190818152602001828054612c8090615936565b8015612ccd5780601f10612ca257610100808354040283529160200191612ccd565b820191906000526020600020905b815481529060010190602001808311612cb057829003601f168201915b50505050508152602001600182018054612ce690615936565b80601f0160208091040260200160405190810160405280929190818152602001828054612d1290615936565b8015612d5f5780601f10612d3457610100808354040283529160200191612d5f565b820191906000526020600020905b815481529060010190602001808311612d4257829003601f168201915b505050505081526020016002820160009054906101000a90046001600160a01b03166001600160a01b03166001600160a01b031681526020016003820160009054906101000a90046001600160a01b03166001600160a01b03166001600160a01b031681526020016004820160009054906101000a90046001600160a01b03166001600160a01b03166001600160a01b031681526020016005820154815260200160068201548152602001600782015481526020016008820154815250509050806000015181602001518260400151836060015184608001518560a001518660c001518760e00151886101000151995099509950995099509950995099509950509193959799909294969850565b600e60205260009081526040902080546001820180546001600160a01b039092169291612e9990615936565b80601f0160208091040260200160405190810160405280929190818152602001828054612ec590615936565b8015612f125780601f10612ee757610100808354040283529160200191612f12565b820191906000526020600020905b815481529060010190602001808311612ef557829003601f168201915b505050505090806002018054612f2790615936565b80601f0160208091040260200160405190810160405280929190818152602001828054612f5390615936565b8015612fa05780601f10612f7557610100808354040283529160200191612fa0565b820191906000526020600020905b815481529060010190602001808311612f8357829003601f168201915b50505050600383015460049093015491929160ff16905085565b6000606080600080600f80549050861061300c5760405162461bcd60e51b8152602060048201526013602482015272496e646578206f7574206f6620626f756e647360681b60448201526064016107f8565b6000600f878154811061302157613021615970565b60009182526020808320909101546001600160a01b03908116808452600e83526040808520815160a0810190925280549093168152600183018054929650909384019161306d90615936565b80601f016020809104026020016040519081016040528092919081815260200182805461309990615936565b80156130e65780601f106130bb576101008083540402835291602001916130e6565b820191906000526020600020905b8154815290600101906020018083116130c957829003601f168201915b505050505081526020016002820180546130ff90615936565b80601f016020809104026020016040519081016040528092919081815260200182805461312b90615936565b80156131785780601f1061314d57610100808354040283529160200191613178565b820191906000526020600020905b81548152906001019060200180831161315b57829003601f168201915b505050918352505060038201546020820152600482015460409091019060ff1660028111156131a9576131a9615247565b60028111156131ba576131ba615247565b9052508051602082015160408301516060840151608090940151929c919b50995091975095509350505050565b600060608060008060006060806000806000600360008d8152602001908152602001600020604051806101400160405290816000820154815260200160018201805461323290615936565b80601f016020809104026020016040519081016040528092919081815260200182805461325e90615936565b80156132ab5780601f10613280576101008083540402835291602001916132ab565b820191906000526020600020905b81548152906001019060200180831161328e57829003601f168201915b505050505081526020016002820180546132c490615936565b80601f01602080910402602001604051908101604052809291908181526020018280546132f090615936565b801561333d5780601f106133125761010080835404028352916020019161333d565b820191906000526020600020905b81548152906001019060200180831161332057829003601f168201915b505050918352505060038201546001600160a01b039081166020830152600483015481166040830152600583015416606082015260068201805460809092019161338690615936565b80601f01602080910402602001604051908101604052809291908181526020018280546133b290615936565b80156133ff5780601f106133d4576101008083540402835291602001916133ff565b820191906000526020600020905b8154815290600101906020018083116133e257829003601f168201915b5050505050815260200160078201805461341890615936565b80601f016020809104026020016040519081016040528092919081815260200182805461344490615936565b80156134915780601f1061346657610100808354040283529160200191613491565b820191906000526020600020905b81548152906001019060200180831161347457829003601f168201915b505050918352505060088201546020820152600982015460409091019060ff1660028111156134c2576134c2615247565b60028111156134d3576134d3615247565b815250509050806000015181602001518260400151836060015184608001518560a001518660c001518760e001518861010001518961012001519a509a509a509a509a509a509a509a509a509a50509193959799509193959799565b600d546001600160a01b031633146135595760405162461bcd60e51b81526004016107f890615986565b60008181526005602052604090206003015462010000900460ff166135af5760405162461bcd60e51b815260206004820152600c60248201526b37379039bab1b4103ab9b2b960a11b60448201526064016107f8565b600081815260056020526040902060030154610100900460ff16156136165760405162461bcd60e51b815260206004820152601860248201527f7265717565737420616c726561647920617070726f766564000000000000000060448201526064016107f8565b600081815260056020908152604091829020825160a0810190935280546001600160a01b0316835260018101805491939283019161365390615936565b80601f016020809104026020016040519081016040528092919081815260200182805461367f90615936565b80156136cc5780601f106136a1576101008083540402835291602001916136cc565b820191906000526020600020905b8154815290600101906020018083116136af57829003601f168201915b505050505081526020018260020180546136e590615936565b80601f016020809104026020016040519081016040528092919081815260200182805461371190615936565b801561375e5780601f106137335761010080835404028352916020019161375e565b820191906000526020600020905b81548152906001019060200180831161374157829003601f168201915b505050918352505060006020820152600383015460409091019060ff16600281111561378c5761378c615247565b905281546001600160a01b039081166000908152600e60209081526040909120835181546001600160a01b031916931692909217825582015160018201906137d49082615a76565b50604082015160028201906137e99082615a76565b5060608201516003820155608082015160048201805460ff1916600183600281111561381757613817615247565b02179055505050600381015481546001600160a01b03166000908152600660205260409020805460ff9092169160ff1916600183600281111561385c5761385c615247565b02179055506000600382015460ff16600281111561387c5761387c615247565b036138d3578054601180546001810182556000919091527f31ecc21a745e3968a04e9570e4425bc18fa8019c68028196b546d1669c200c680180546001600160a01b0319166001600160a01b039092169190911790555b6001600382015460ff1660028111156138ee576138ee615247565b03613945578054601280546001810182556000919091527fbb8a6a4669ba250d26cd7a459eca9d215f8307e33aebe50379bc5a3617ec34440180546001600160a01b0319166001600160a01b039092169190911790555b6002600382015460ff16600281111561396057613960615247565b036139b7578054601380546001810182556000919091527f66de8ffda797e3de9c05e8fc57b3bf0ec28a930d40b0d285d93c06501cf6a0900180546001600160a01b0319166001600160a01b039092169190911790555b8054600f805460018101825560009182527f8d1108e10bcb7c27dddfc02ed9d693a074039d026cf4ea4240b40f7d581ac8020180546001600160a01b0319166001600160a01b0390931692909217909155600c805491613a1683615a0e565b9091555050600301805462ffff00191661010017905550565b6001600160a01b038082166000908152600e60209081526040808320815160a08101909252805490941681526001840180549394606094859487948594859491939192840191613a7e90615936565b80601f0160208091040260200160405190810160405280929190818152602001828054613aaa90615936565b8015613af75780601f10613acc57610100808354040283529160200191613af7565b820191906000526020600020905b815481529060010190602001808311613ada57829003601f168201915b50505050508152602001600282018054613b1090615936565b80601f0160208091040260200160405190810160405280929190818152602001828054613b3c90615936565b8015613b895780601f10613b5e57610100808354040283529160200191613b89565b820191906000526020600020905b815481529060010190602001808311613b6c57829003601f168201915b505050918352505060038201546020820152600482015460409091019060ff166002811115613bba57613bba615247565b6002811115613bcb57613bcb615247565b9052508051602082015160408301516060840151608090940151929b919a509850919650945092505050565b6001600160a01b038082166000908152600e60209081526040808320815160a0810190925280549094168152600184018054939460609485948794859490939291840191613c4490615936565b80601f0160208091040260200160405190810160405280929190818152602001828054613c7090615936565b8015613cbd5780601f10613c9257610100808354040283529160200191613cbd565b820191906000526020600020905b815481529060010190602001808311613ca057829003601f168201915b50505050508152602001600282018054613cd690615936565b80601f0160208091040260200160405190810160405280929190818152602001828054613d0290615936565b8015613d4f5780601f10613d2457610100808354040283529160200191613d4f565b820191906000526020600020905b815481529060010190602001808311613d3257829003601f168201915b505050918352505060038201546020820152600482015460409091019060ff166002811115613d8057613d80615247565b6002811115613d9157613d91615247565b9052508051602082015160408301516080909301519199909850919650945092505050565b600d546001600160a01b03163314613de05760405162461bcd60e51b81526004016107f890615986565b60008181526005602052604090206003015462010000900460ff16613e365760405162461bcd60e51b815260206004820152600c60248201526b37379039bab1b4103ab9b2b960a11b60448201526064016107f8565b600090815260056020526040812060038101805462ffff0019169055546010805460018101825592527f1b6847dc741a1b0cd08d278845f9d819d87b734759afb55fe2de5cb82a9ae67290910180546001600160a01b0319166001600160a01b03909216919091179055565b6002803360009081526006602052604090205460ff166002811115613ec957613ec9615247565b14613ee65760405162461bcd60e51b81526004016107f8906158ff565b600083118015613ef857506009548311155b613f365760405162461bcd60e51b815260206004820152600f60248201526e125b9d985b1a590818dc9bdc081251608a1b60448201526064016107f8565b600a8054906000613f4683615a0e565b9091555050600083815260036020818152604080842060048352818520600681018054600160a11b60ff60a01b1990911617905560098201805460ff19166002179055338652600e90935290842090920180549293919260019290613fac908490615b35565b909155505060048201546001600160a01b03166000908152600e60205260408120600301805460019290613fe1908490615b35565b90915550506003808301546001600160a01b03166000908152600e60205260408120909101805460019290614017908490615b35565b9250508190555060405180610120016040528083600101805461403990615936565b80601f016020809104026020016040519081016040528092919081815260200182805461406590615936565b80156140b25780601f10614087576101008083540402835291602001916140b2565b820191906000526020600020905b81548152906001019060200180831161409557829003601f168201915b505050505081526020018360020180546140cb90615936565b80601f01602080910402602001604051908101604052809291908181526020018280546140f790615936565b80156141445780601f1061411957610100808354040283529160200191614144565b820191906000526020600020905b81548152906001019060200180831161412757829003601f168201915b505050918352505060038401546001600160a01b0390811660208084019190915260048087015490921660408085019190915233606085015260058601546080850152600887015460a08501529185015460c084015260e0909201879052600a54600090815260079092529020815181906141bf9082615a76565b50602082015160018201906141d49082615a76565b506040828101516002830180546001600160a01b03199081166001600160a01b039384161790915560608501516003808601805484169285169290921790915560808601516004860180549093169084161790915560a0850151600585015560c0850151600685015560e08501516007850155610100948501516008909401939093559185015490911660009081526020819052819020815192830190915280549091908190614285906001615b35565b815260038501546001600160a01b031660208201526002850180546040909201916142af90615936565b80601f01602080910402602001604051908101604052809291908181526020018280546142db90615936565b80156143285780601f106142fd57610100808354040283529160200191614328565b820191906000526020600020905b81548152906001019060200180831161430b57829003601f168201915b505050918352505060038501546001600160a01b03166000908152600e60209081526040909120600101805491909201919061436390615936565b80601f016020809104026020016040519081016040528092919081815260200182805461438f90615936565b80156143dc5780601f106143b1576101008083540402835291602001916143dc565b820191906000526020600020905b8154815290600101906020018083116143bf57829003601f168201915b505050918352505060058501546001600160a01b0390811660208084019190915260048701549091166000908152600e909152604090819020600101805491909201919061442990615936565b80601f016020809104026020016040519081016040528092919081815260200182805461445590615936565b80156144a25780601f10614477576101008083540402835291602001916144a2565b820191906000526020600020905b81548152906001019060200180831161448557829003601f168201915b505050918352505060048501546001600160a01b03908116602080840191909152604092830189905284546001808201875560009687529582902085516008909202019081559084015194810180546001600160a01b03191695909216949094179055810151909190600282019061451a9082615a76565b506060820151600382019061452f9082615a76565b5060808201516004820180546001600160a01b0319166001600160a01b0390921691909117905560a0820151600582019061456a9082615a76565b5060c08201516006820180546001600160a01b0319166001600160a01b0392831617905560e09092015160079091015560048301541660009081526001602081905260409182902082516101208101909352805490929182916145cc91615b35565b815260038501546001600160a01b03908116602080840182905260058801549092166040808501919091526000918252600e90925220600101805460609092019161461690615936565b80601f016020809104026020016040519081016040528092919081815260200182805461464290615936565b801561468f5780601f106146645761010080835404028352916020019161468f565b820191906000526020600020905b81548152906001019060200180831161467257829003601f168201915b505050918352505060058501546001600160a01b03166000908152600e6020908152604090912060010180549190920191906146ca90615936565b80601f01602080910402602001604051908101604052809291908181526020018280546146f690615936565b80156147435780601f1061471857610100808354040283529160200191614743565b820191906000526020600020905b81548152906001019060200180831161472657829003601f168201915b5050505050815260200184600201805461475c90615936565b80601f016020809104026020016040519081016040528092919081815260200182805461478890615936565b80156147d55780601f106147aa576101008083540402835291602001916147d5565b820191906000526020600020905b8154815290600101906020018083116147b857829003601f168201915b505050505081526020018460060180546147ee90615936565b80601f016020809104026020016040519081016040528092919081815260200182805461481a90615936565b80156148675780601f1061483c57610100808354040283529160200191614867565b820191906000526020600020905b81548152906001019060200180831161484a57829003601f168201915b5050505050815260200184600701805461488090615936565b80601f01602080910402602001604051908101604052809291908181526020018280546148ac90615936565b80156148f95780601f106148ce576101008083540402835291602001916148f9565b820191906000526020600020905b8154815290600101906020018083116148dc57829003601f168201915b5050509183525050602090810187905282546001818101855560009485529382902083516009909202019081559082015192810180546001600160a01b039485166001600160a01b031991821617909155604083015160028301805491909516911617909255606081015190919060038201906149769082615a76565b506080820151600482019061498b9082615a76565b5060a082015160058201906149a09082615a76565b5060c082015160068201906149b59082615a76565b5060e082015160078201906149ca9082615a76565b50610100918201516008909101553360009081526002602052604090819020815192830190915280549091908190614a03906001615b35565b815260038501546001600160a01b039081166020808401919091526004870154909116604080840191909152336000908152600e90925290206001018054606090920191614a5090615936565b80601f0160208091040260200160405190810160405280929190818152602001828054614a7c90615936565b8015614ac95780601f10614a9e57610100808354040283529160200191614ac9565b820191906000526020600020905b815481529060010190602001808311614aac57829003601f168201915b505050918352505060048501546001600160a01b03166000908152600e602090815260409091206001018054919092019190614b0490615936565b80601f0160208091040260200160405190810160405280929190818152602001828054614b3090615936565b8015614b7d5780601f10614b5257610100808354040283529160200191614b7d565b820191906000526020600020905b815481529060010190602001808311614b6057829003601f168201915b50505050508152602001868152602001846002018054614b9c90615936565b80601f0160208091040260200160405190810160405280929190818152602001828054614bc890615936565b8015614c155780601f10614bea57610100808354040283529160200191614c15565b820191906000526020600020905b815481529060010190602001808311614bf857829003601f168201915b50505091835250506008808601546020928301528354600181810186556000958652948390208451919092029091019081559082015192810180546001600160a01b039485166001600160a01b03199182161790915560408301516002830180549190951691161790925560608101519091906003820190614c979082615a76565b5060808201516004820190614cac9082615a76565b5060a0820151600582015560c08201516006820190614ccb9082615a76565b5060e0820151816007015550505050505050565b60008060006060806060806060600080600160008d6001600160a01b03166001600160a01b031681526020019081526020016000208b81548110614d2557614d25615970565b6000918252602091829020604080516101208101825260099093029091018054835260018101546001600160a01b0390811694840194909452600281015490931690820152600382018054919291606084019190614d8290615936565b80601f0160208091040260200160405190810160405280929190818152602001828054614dae90615936565b8015614dfb5780601f10614dd057610100808354040283529160200191614dfb565b820191906000526020600020905b815481529060010190602001808311614dde57829003601f168201915b50505050508152602001600482018054614e1490615936565b80601f0160208091040260200160405190810160405280929190818152602001828054614e4090615936565b8015614e8d5780601f10614e6257610100808354040283529160200191614e8d565b820191906000526020600020905b815481529060010190602001808311614e7057829003601f168201915b50505050508152602001600582018054614ea690615936565b80601f0160208091040260200160405190810160405280929190818152602001828054614ed290615936565b8015614f1f5780601f10614ef457610100808354040283529160200191614f1f565b820191906000526020600020905b815481529060010190602001808311614f0257829003601f168201915b50505050508152602001600682018054614f3890615936565b80601f0160208091040260200160405190810160405280929190818152602001828054614f6490615936565b8015614fb15780601f10614f8657610100808354040283529160200191614fb1565b820191906000526020600020905b815481529060010190602001808311614f9457829003601f168201915b50505050508152602001600782018054614fca90615936565b80601f0160208091040260200160405190810160405280929190818152602001828054614ff690615936565b80156150435780601f1061501857610100808354040283529160200191615043565b820191906000526020600020905b81548152906001019060200180831161502657829003601f168201915b505050505081526020016008820154815250509050806000015181602001518260400151836060015184608001518560a001518660c001518760e00151886101000151995099509950995099509950995099509950509295985092959850929598565b5080546150b290615936565b6000825580601f106150c2575050565b601f0160209004906000526020600020908101906150e091906150e3565b50565b5b808211156150f857600081556001016150e4565b5090565b60006020828403121561510e57600080fd5b5035919050565b6000815180845260005b8181101561513b5760208185018101518683018201520161511f565b506000602082860101526020601f19601f83011685010191505092915050565b6101208152600061517061012083018c615115565b8281036020840152615182818c615115565b6001600160a01b039a8b166040850152988a166060840152505094909616608085015260a084019290925260c083015260e0820152610100019190915292915050565b8035600381106151d457600080fd5b919050565b6000602082840312156151eb57600080fd5b6151f4826151c5565b9392505050565b602080825282518282018190526000918401906040840190835b8181101561523c5783516001600160a01b0316835260209384019390920191600101615215565b509095945050505050565b634e487b7160e01b600052602160045260246000fd5b600381106150e057634e487b7160e01b600052602160045260246000fd5b6001600160a01b038716815260c06020820181905260009061529f90830188615115565b82810360408401526152b18188615115565b9150506152bd8561525d565b60608201949094529115156080830152151560a0909101529392505050565b80356001600160a01b03811681146151d457600080fd5b6000806040838503121561530657600080fd5b61530f836152dc565b946020939093013593505050565b8881526001600160a01b03881660208201526101006040820181905260009061534890830189615115565b828103606084015261535a8189615115565b6001600160a01b038816608085015283810360a0850152905061537d8187615115565b6001600160a01b039590951660c0840152505060e001529695505050505050565b6000602082840312156153b057600080fd5b6151f4826152dc565b6020815260006151f46020830184615115565b634e487b7160e01b600052604160045260246000fd5b600082601f8301126153f357600080fd5b813567ffffffffffffffff81111561540d5761540d6153cc565b604051601f8201601f19908116603f0116810167ffffffffffffffff8111828210171561543c5761543c6153cc565b60405281815283820160200185101561545457600080fd5b816020850160208301376000918101602001919091529392505050565b60008060008060008060c0878903121561548a57600080fd5b86359550602087013594506154a1604088016152dc565b93506154af606088016152dc565b9250608087013567ffffffffffffffff8111156154cb57600080fd5b6154d789828a016153e2565b92505060a087013567ffffffffffffffff8111156154f457600080fd5b61550089828a016153e2565b9150509295509295509295565b8881526101006020820152600061552861010083018a615115565b828103604084015261553a818a615115565b9150508660608301528560808301528460a083015260018060a01b03841660c08301526155668361525d565b8260e08301529998505050505050505050565b60008060006060848603121561558e57600080fd5b833567ffffffffffffffff8111156155a557600080fd5b6155b1868287016153e2565b9350506155c0602085016151c5565b9150604084013567ffffffffffffffff8111156155dc57600080fd5b6155e8868287016153e2565b9150509250925092565b8a81526101406020820152600061560d61014083018c615115565b828103604084015261561f818c615115565b6001600160a01b038b811660608601528a81166080860152891660a085015283810360c085015290506156528188615115565b905082810360e08401526156668187615115565b915050836101008301526156798361525d565b826101208301529b9a5050505050505050505050565b8881526001600160a01b03888116602083015287166040820152610100606082018190526000906156c290830188615115565b82810360808401526156d48188615115565b90508560a084015282810360c08401526156ee8186615115565b9150508260e08301529998505050505050505050565b8981526001600160a01b038981166020830152881660408201526101206060820181905260009061573790830189615115565b82810360808401526157498189615115565b905082810360a084015261575d8188615115565b905082810360c08401526157718187615115565b905082810360e08401526157858186615115565b915050826101008301529a9950505050505050505050565b600080600080600060a086880312156157b557600080fd5b853567ffffffffffffffff8111156157cc57600080fd5b6157d8888289016153e2565b955050602086013567ffffffffffffffff8111156157f557600080fd5b615801888289016153e2565b959895975050505060408401359360608101359360809091013592509050565b6020810161582e8361525d565b91905290565b6001600160a01b038616815260a06020820181905260009061585890830187615115565b828103604084015261586a8187615115565b91505083606083015261587c8361525d565b8260808301529695505050505050565b6001600160a01b03851681526080602082018190526000906158b090830186615115565b82810360408401526158c28186615115565b9150506158ce8361525d565b82606083015295945050505050565b600080604083850312156158f057600080fd5b50508035926020909101359150565b60208082526019908201527f4163636573732064656e6965643a2077726f6e6720726f6c6500000000000000604082015260600190565b600181811c9082168061594a57607f821691505b60208210810361596a57634e487b7160e01b600052602260045260246000fd5b50919050565b634e487b7160e01b600052603260045260246000fd5b6020808252601290820152712737ba1031b7b73a3930b1ba1037bbb732b960711b604082015260600190565b634e487b7160e01b600052601160045260246000fd5b818103818111156159db576159db6159b2565b92915050565b634e487b7160e01b600052603160045260246000fd5b600081615a0657615a066159b2565b506000190190565b600060018201615a2057615a206159b2565b5060010190565b601f821115615a7157806000526020600020601f840160051c81016020851015615a4e5750805b601f840160051c820191505b81811015615a6e5760008155600101615a5a565b50505b505050565b815167ffffffffffffffff811115615a9057615a906153cc565b615aa481615a9e8454615936565b84615a27565b6020601f821160018114615ad85760008315615ac05750848201515b600019600385901b1c1916600184901b178455615a6e565b600084815260208120601f198516915b82811015615b085787850151825560209485019460019092019101615ae8565b5084821015615b265786840151600019600387901b60f8161c191681555b50505050600190811b01905550565b808201808211156159db576159db6159b256fea264697066735822122084081b81b709bf42ba03b8c6ea03090ae549ef70b0233df9353de080b5b8711064736f6c634300081c0033",
          "opcodes": "PUSH1 0x80 PUSH1 0x40 MSTORE CALLVALUE DUP1 ISZERO PUSH1 0xF JUMPI PUSH1 0x0 DUP1 REVERT JUMPDEST POP PUSH1 0xD DUP1 SLOAD PUSH1 0x1 PUSH1 0x1 PUSH1 0xA0 SHL SUB NOT AND CALLER OR SWAP1 SSTORE PUSH2 0x5B7E DUP1 PUSH2 0x31 PUSH1 0x0 CODECOPY PUSH1 0x0 RETURN INVALID PUSH1 0x80 PUSH1 0x40 MSTORE CALLVALUE DUP1 ISZERO PUSH2 0x10 JUMPI PUSH1 0x0 DUP1 REVERT JUMPDEST POP PUSH1 0x4 CALLDATASIZE LT PUSH2 0x2F1 JUMPI PUSH1 0x0 CALLDATALOAD PUSH1 0xE0 SHR DUP1 PUSH4 0x87E720E1 GT PUSH2 0x19D JUMPI DUP1 PUSH4 0xA87430BA GT PUSH2 0xE9 JUMPI DUP1 PUSH4 0xCF464F57 GT PUSH2 0xA2 JUMPI DUP1 PUSH4 0xE36B4F64 GT PUSH2 0x7C JUMPI DUP1 PUSH4 0xE36B4F64 EQ PUSH2 0x773 JUMPI DUP1 PUSH4 0xEC7BF72B EQ PUSH2 0x786 JUMPI DUP1 PUSH4 0xF82042FE EQ PUSH2 0x799 JUMPI DUP1 PUSH4 0xFD33482D EQ PUSH2 0x7AC JUMPI PUSH1 0x0 DUP1 REVERT JUMPDEST DUP1 PUSH4 0xCF464F57 EQ PUSH2 0x734 JUMPI DUP1 PUSH4 0xD2965F04 EQ PUSH2 0x747 JUMPI DUP1 PUSH4 0xDFD55A2C EQ PUSH2 0x76A JUMPI PUSH1 0x0 DUP1 REVERT JUMPDEST DUP1 PUSH4 0xA87430BA EQ PUSH2 0x6A5 JUMPI DUP1 PUSH4 0xAA1C568E EQ PUSH2 0x6C9 JUMPI DUP1 PUSH4 0xB08AEAEC EQ PUSH2 0x6DC JUMPI DUP1 PUSH4 0xBB805F69 EQ PUSH2 0x6EF JUMPI DUP1 PUSH4 0xBD5D0808 EQ PUSH2 0x6F8 JUMPI DUP1 PUSH4 0xBEEBA5D6 EQ PUSH2 0x70B JUMPI PUSH1 0x0 DUP1 REVERT JUMPDEST DUP1 PUSH4 0x911DACDC GT PUSH2 0x156 JUMPI DUP1 PUSH4 0x99374642 GT PUSH2 0x130 JUMPI DUP1 PUSH4 0x99374642 EQ PUSH2 0x631 JUMPI DUP1 PUSH4 0x9BCB1739 EQ PUSH2 0x661 JUMPI DUP1 PUSH4 0x9C1F9004 EQ PUSH2 0x674 JUMPI DUP1 PUSH4 0x9F96835A EQ PUSH2 0x69D JUMPI PUSH1 0x0 DUP1 REVERT JUMPDEST DUP1 PUSH4 0x911DACDC EQ PUSH2 0x5F8 JUMPI DUP1 PUSH4 0x92AB20F1 EQ PUSH2 0x60B JUMPI DUP1 PUSH4 0x92BD337C EQ PUSH2 0x61E JUMPI PUSH1 0x0 DUP1 REVERT JUMPDEST DUP1 PUSH4 0x87E720E1 EQ PUSH2 0x54D JUMPI DUP1 PUSH4 0x89D219F8 EQ PUSH2 0x574 JUMPI DUP1 PUSH4 0x8AFDD669 EQ PUSH2 0x597 JUMPI DUP1 PUSH4 0x8B74B6C6 EQ PUSH2 0x5AA JUMPI DUP1 PUSH4 0x8D165248 EQ PUSH2 0x5BD JUMPI DUP1 PUSH4 0x8DA5CB5B EQ PUSH2 0x5E5 JUMPI PUSH1 0x0 DUP1 REVERT JUMPDEST DUP1 PUSH4 0x4847BD56 GT PUSH2 0x25C JUMPI DUP1 PUSH4 0x5C832800 GT PUSH2 0x215 JUMPI DUP1 PUSH4 0x6811A96E GT PUSH2 0x1EF JUMPI DUP1 PUSH4 0x6811A96E EQ PUSH2 0x4F6 JUMPI DUP1 PUSH4 0x69346942 EQ PUSH2 0x509 JUMPI DUP1 PUSH4 0x70C9F1A5 EQ PUSH2 0x532 JUMPI DUP1 PUSH4 0x77E0E7EA EQ PUSH2 0x545 JUMPI PUSH1 0x0 DUP1 REVERT JUMPDEST DUP1 PUSH4 0x5C832800 EQ PUSH2 0x4B4 JUMPI DUP1 PUSH4 0x6004D2E3 EQ PUSH2 0x4BC JUMPI DUP1 PUSH4 0x67DAC2A0 EQ PUSH2 0x4E3 JUMPI PUSH1 0x0 DUP1 REVERT JUMPDEST DUP1 PUSH4 0x4847BD56 EQ PUSH2 0x441 JUMPI DUP1 PUSH4 0x4A9B4175 EQ PUSH2 0x454 JUMPI DUP1 PUSH4 0x53BDB1B0 EQ PUSH2 0x467 JUMPI DUP1 PUSH4 0x56E80B98 EQ PUSH2 0x47A JUMPI DUP1 PUSH4 0x598FA80C EQ PUSH2 0x4A3 JUMPI DUP1 PUSH4 0x5B77B6A6 EQ PUSH2 0x4AB JUMPI PUSH1 0x0 DUP1 REVERT JUMPDEST DUP1 PUSH4 0x2A42D705 GT PUSH2 0x2AE JUMPI DUP1 PUSH4 0x2A42D705 EQ PUSH2 0x3BF JUMPI DUP1 PUSH4 0x2B9575AA EQ PUSH2 0x3E6 JUMPI DUP1 PUSH4 0x2F3D819B EQ PUSH2 0x406 JUMPI DUP1 PUSH4 0x36461C11 EQ PUSH2 0x41D JUMPI DUP1 PUSH4 0x45ECC2A7 EQ PUSH2 0x430 JUMPI DUP1 PUSH4 0x48445E4D EQ PUSH2 0x439 JUMPI PUSH1 0x0 DUP1 REVERT JUMPDEST DUP1 PUSH4 0x34DA8BA EQ PUSH2 0x2F6 JUMPI DUP1 PUSH4 0x6F06768 EQ PUSH2 0x30B JUMPI DUP1 PUSH4 0x129B9DC3 EQ PUSH2 0x33C JUMPI DUP1 PUSH4 0x1AC0BCE8 EQ PUSH2 0x35C JUMPI DUP1 PUSH4 0x1D93F21E EQ PUSH2 0x387 JUMPI DUP1 PUSH4 0x29C2A877 EQ PUSH2 0x3AC JUMPI JUMPDEST PUSH1 0x0 DUP1 REVERT JUMPDEST PUSH2 0x309 PUSH2 0x304 CALLDATASIZE PUSH1 0x4 PUSH2 0x50FC JUMP JUMPDEST PUSH2 0x7B4 JUMP JUMPDEST STOP JUMPDEST PUSH2 0x31E PUSH2 0x319 CALLDATASIZE PUSH1 0x4 PUSH2 0x50FC JUMP JUMPDEST PUSH2 0x83F JUMP JUMPDEST PUSH1 0x40 MLOAD PUSH2 0x333 SWAP10 SWAP9 SWAP8 SWAP7 SWAP6 SWAP5 SWAP4 SWAP3 SWAP2 SWAP1 PUSH2 0x515B JUMP JUMPDEST PUSH1 0x40 MLOAD DUP1 SWAP2 SUB SWAP1 RETURN JUMPDEST PUSH2 0x34F PUSH2 0x34A CALLDATASIZE PUSH1 0x4 PUSH2 0x51D9 JUMP JUMPDEST PUSH2 0x9A6 JUMP JUMPDEST PUSH1 0x40 MLOAD PUSH2 0x333 SWAP2 SWAP1 PUSH2 0x51FB JUMP JUMPDEST PUSH2 0x36F PUSH2 0x36A CALLDATASIZE PUSH1 0x4 PUSH2 0x50FC JUMP JUMPDEST PUSH2 0xB1D JUMP JUMPDEST PUSH1 0x40 MLOAD PUSH1 0x1 PUSH1 0x1 PUSH1 0xA0 SHL SUB SWAP1 SWAP2 AND DUP2 MSTORE PUSH1 0x20 ADD PUSH2 0x333 JUMP JUMPDEST PUSH2 0x39A PUSH2 0x395 CALLDATASIZE PUSH1 0x4 PUSH2 0x50FC JUMP JUMPDEST PUSH2 0xB47 JUMP JUMPDEST PUSH1 0x40 MLOAD PUSH2 0x333 SWAP7 SWAP6 SWAP5 SWAP4 SWAP3 SWAP2 SWAP1 PUSH2 0x527B JUMP JUMPDEST PUSH2 0x36F PUSH2 0x3BA CALLDATASIZE PUSH1 0x4 PUSH2 0x50FC JUMP JUMPDEST PUSH2 0xD8C JUMP JUMPDEST PUSH2 0x3D2 PUSH2 0x3CD CALLDATASIZE PUSH1 0x4 PUSH2 0x52F3 JUMP JUMPDEST PUSH2 0xD9C JUMP JUMPDEST PUSH1 0x40 MLOAD PUSH2 0x333 SWAP9 SWAP8 SWAP7 SWAP6 SWAP5 SWAP4 SWAP3 SWAP2 SWAP1 PUSH2 0x531D JUMP JUMPDEST PUSH2 0x3F9 PUSH2 0x3F4 CALLDATASIZE PUSH1 0x4 PUSH2 0x539E JUMP JUMPDEST PUSH2 0x10BA JUMP JUMPDEST PUSH1 0x40 MLOAD PUSH2 0x333 SWAP2 SWAP1 PUSH2 0x53B9 JUMP JUMPDEST PUSH2 0x40F PUSH1 0xA SLOAD DUP2 JUMP JUMPDEST PUSH1 0x40 MLOAD SWAP1 DUP2 MSTORE PUSH1 0x20 ADD PUSH2 0x333 JUMP JUMPDEST PUSH2 0x309 PUSH2 0x42B CALLDATASIZE PUSH1 0x4 PUSH2 0x539E JUMP JUMPDEST PUSH2 0x115F JUMP JUMPDEST PUSH2 0x40F PUSH1 0xB SLOAD DUP2 JUMP JUMPDEST PUSH1 0xA SLOAD PUSH2 0x40F JUMP JUMPDEST PUSH2 0x309 PUSH2 0x44F CALLDATASIZE PUSH1 0x4 PUSH2 0x5471 JUMP JUMPDEST PUSH2 0x1316 JUMP JUMPDEST PUSH2 0x36F PUSH2 0x462 CALLDATASIZE PUSH1 0x4 PUSH2 0x50FC JUMP JUMPDEST PUSH2 0x1634 JUMP JUMPDEST PUSH2 0x39A PUSH2 0x475 CALLDATASIZE PUSH1 0x4 PUSH2 0x50FC JUMP JUMPDEST PUSH2 0x1644 JUMP JUMPDEST PUSH2 0x40F PUSH2 0x488 CALLDATASIZE PUSH1 0x4 PUSH2 0x539E JUMP JUMPDEST PUSH1 0x1 PUSH1 0x1 PUSH1 0xA0 SHL SUB AND PUSH1 0x0 SWAP1 DUP2 MSTORE PUSH1 0x2 PUSH1 0x20 MSTORE PUSH1 0x40 SWAP1 KECCAK256 SLOAD SWAP1 JUMP JUMPDEST PUSH1 0xB SLOAD PUSH2 0x40F JUMP JUMPDEST PUSH2 0x40F PUSH1 0x9 SLOAD DUP2 JUMP JUMPDEST PUSH1 0xF SLOAD PUSH2 0x40F JUMP JUMPDEST PUSH2 0x4CF PUSH2 0x4CA CALLDATASIZE PUSH1 0x4 PUSH2 0x50FC JUMP JUMPDEST PUSH2 0x179D JUMP JUMPDEST PUSH1 0x40 MLOAD PUSH2 0x333 SWAP9 SWAP8 SWAP7 SWAP6 SWAP5 SWAP4 SWAP3 SWAP2 SWAP1 PUSH2 0x550D JUMP JUMPDEST PUSH2 0x36F PUSH2 0x4F1 CALLDATASIZE PUSH1 0x4 PUSH2 0x50FC JUMP JUMPDEST PUSH2 0x19A5 JUMP JUMPDEST PUSH2 0x309 PUSH2 0x504 CALLDATASIZE PUSH1 0x4 PUSH2 0x5579 JUMP JUMPDEST PUSH2 0x19B5 JUMP JUMPDEST PUSH2 0x51C PUSH2 0x517 CALLDATASIZE PUSH1 0x4 PUSH2 0x50FC JUMP JUMPDEST PUSH2 0x1ACF JUMP JUMPDEST PUSH1 0x40 MLOAD PUSH2 0x333 SWAP11 SWAP10 SWAP9 SWAP8 SWAP7 SWAP6 SWAP5 SWAP4 SWAP3 SWAP2 SWAP1 PUSH2 0x55F2 JUMP JUMPDEST PUSH2 0x4CF PUSH2 0x540 CALLDATASIZE PUSH1 0x4 PUSH2 0x50FC JUMP JUMPDEST PUSH2 0x1D54 JUMP JUMPDEST PUSH1 0x8 SLOAD PUSH2 0x40F JUMP JUMPDEST PUSH2 0x560 PUSH2 0x55B CALLDATASIZE PUSH1 0x4 PUSH2 0x52F3 JUMP JUMPDEST PUSH2 0x1EB5 JUMP JUMPDEST PUSH1 0x40 MLOAD PUSH2 0x333 SWAP9 SWAP8 SWAP7 SWAP6 SWAP5 SWAP4 SWAP3 SWAP2 SWAP1 PUSH2 0x568F JUMP JUMPDEST PUSH2 0x587 PUSH2 0x582 CALLDATASIZE PUSH1 0x4 PUSH2 0x539E JUMP JUMPDEST PUSH2 0x20BB JUMP JUMPDEST PUSH1 0x40 MLOAD SWAP1 ISZERO ISZERO DUP2 MSTORE PUSH1 0x20 ADD PUSH2 0x333 JUMP JUMPDEST PUSH2 0x36F PUSH2 0x5A5 CALLDATASIZE PUSH1 0x4 PUSH2 0x50FC JUMP JUMPDEST PUSH2 0x2115 JUMP JUMPDEST PUSH2 0x560 PUSH2 0x5B8 CALLDATASIZE PUSH1 0x4 PUSH2 0x52F3 JUMP JUMPDEST PUSH2 0x2125 JUMP JUMPDEST PUSH2 0x5D0 PUSH2 0x5CB CALLDATASIZE PUSH1 0x4 PUSH2 0x52F3 JUMP JUMPDEST PUSH2 0x23C9 JUMP JUMPDEST PUSH1 0x40 MLOAD PUSH2 0x333 SWAP10 SWAP9 SWAP8 SWAP7 SWAP6 SWAP5 SWAP4 SWAP3 SWAP2 SWAP1 PUSH2 0x5704 JUMP JUMPDEST PUSH1 0xD SLOAD PUSH2 0x36F SWAP1 PUSH1 0x1 PUSH1 0x1 PUSH1 0xA0 SHL SUB AND DUP2 JUMP JUMPDEST PUSH2 0x3F9 PUSH2 0x606 CALLDATASIZE PUSH1 0x4 PUSH2 0x539E JUMP JUMPDEST PUSH2 0x26E5 JUMP JUMPDEST PUSH2 0x309 PUSH2 0x619 CALLDATASIZE PUSH1 0x4 PUSH2 0x579D JUMP JUMPDEST PUSH2 0x288F JUMP JUMPDEST PUSH2 0x3D2 PUSH2 0x62C CALLDATASIZE PUSH1 0x4 PUSH2 0x52F3 JUMP JUMPDEST PUSH2 0x29F9 JUMP JUMPDEST PUSH2 0x654 PUSH2 0x63F CALLDATASIZE PUSH1 0x4 PUSH2 0x539E JUMP JUMPDEST PUSH1 0x6 PUSH1 0x20 MSTORE PUSH1 0x0 SWAP1 DUP2 MSTORE PUSH1 0x40 SWAP1 KECCAK256 SLOAD PUSH1 0xFF AND DUP2 JUMP JUMPDEST PUSH1 0x40 MLOAD PUSH2 0x333 SWAP2 SWAP1 PUSH2 0x5821 JUMP JUMPDEST PUSH2 0x31E PUSH2 0x66F CALLDATASIZE PUSH1 0x4 PUSH2 0x50FC JUMP JUMPDEST PUSH2 0x2C16 JUMP JUMPDEST PUSH2 0x40F PUSH2 0x682 CALLDATASIZE PUSH1 0x4 PUSH2 0x539E JUMP JUMPDEST PUSH1 0x1 PUSH1 0x1 PUSH1 0xA0 SHL SUB AND PUSH1 0x0 SWAP1 DUP2 MSTORE PUSH1 0x1 PUSH1 0x20 MSTORE PUSH1 0x40 SWAP1 KECCAK256 SLOAD SWAP1 JUMP JUMPDEST PUSH1 0x9 SLOAD PUSH2 0x40F JUMP JUMPDEST PUSH2 0x6B8 PUSH2 0x6B3 CALLDATASIZE PUSH1 0x4 PUSH2 0x539E JUMP JUMPDEST PUSH2 0x2E6D JUMP JUMPDEST PUSH1 0x40 MLOAD PUSH2 0x333 SWAP6 SWAP5 SWAP4 SWAP3 SWAP2 SWAP1 PUSH2 0x5834 JUMP JUMPDEST PUSH2 0x6B8 PUSH2 0x6D7 CALLDATASIZE PUSH1 0x4 PUSH2 0x50FC JUMP JUMPDEST PUSH2 0x2FBA JUMP JUMPDEST PUSH2 0x51C PUSH2 0x6EA CALLDATASIZE PUSH1 0x4 PUSH2 0x50FC JUMP JUMPDEST PUSH2 0x31E7 JUMP JUMPDEST PUSH2 0x40F PUSH1 0xC SLOAD DUP2 JUMP JUMPDEST PUSH2 0x309 PUSH2 0x706 CALLDATASIZE PUSH1 0x4 PUSH2 0x50FC JUMP JUMPDEST PUSH2 0x352F JUMP JUMPDEST PUSH2 0x40F PUSH2 0x719 CALLDATASIZE PUSH1 0x4 PUSH2 0x539E JUMP JUMPDEST PUSH1 0x1 PUSH1 0x1 PUSH1 0xA0 SHL SUB AND PUSH1 0x0 SWAP1 DUP2 MSTORE PUSH1 0x20 DUP2 SWAP1 MSTORE PUSH1 0x40 SWAP1 KECCAK256 SLOAD SWAP1 JUMP JUMPDEST PUSH2 0x6B8 PUSH2 0x742 CALLDATASIZE PUSH1 0x4 PUSH2 0x539E JUMP JUMPDEST PUSH2 0x3A2F JUMP JUMPDEST PUSH2 0x75A PUSH2 0x755 CALLDATASIZE PUSH1 0x4 PUSH2 0x539E JUMP JUMPDEST PUSH2 0x3BF7 JUMP JUMPDEST PUSH1 0x40 MLOAD PUSH2 0x333 SWAP5 SWAP4 SWAP3 SWAP2 SWAP1 PUSH2 0x588C JUMP JUMPDEST PUSH2 0x40F PUSH1 0x8 SLOAD DUP2 JUMP JUMPDEST PUSH2 0x309 PUSH2 0x781 CALLDATASIZE PUSH1 0x4 PUSH2 0x50FC JUMP JUMPDEST PUSH2 0x3DB6 JUMP JUMPDEST PUSH2 0x309 PUSH2 0x794 CALLDATASIZE PUSH1 0x4 PUSH2 0x58DD JUMP JUMPDEST PUSH2 0x3EA2 JUMP JUMPDEST PUSH2 0x5D0 PUSH2 0x7A7 CALLDATASIZE PUSH1 0x4 PUSH2 0x52F3 JUMP JUMPDEST PUSH2 0x4CDF JUMP JUMPDEST PUSH1 0xC SLOAD PUSH2 0x40F JUMP JUMPDEST PUSH1 0x1 DUP1 CALLER PUSH1 0x0 SWAP1 DUP2 MSTORE PUSH1 0x6 PUSH1 0x20 MSTORE PUSH1 0x40 SWAP1 KECCAK256 SLOAD PUSH1 0xFF AND PUSH1 0x2 DUP2 GT ISZERO PUSH2 0x7DB JUMPI PUSH2 0x7DB PUSH2 0x5247 JUMP JUMPDEST EQ PUSH2 0x801 JUMPI PUSH1 0x40 MLOAD PUSH3 0x461BCD PUSH1 0xE5 SHL DUP2 MSTORE PUSH1 0x4 ADD PUSH2 0x7F8 SWAP1 PUSH2 0x58FF JUMP JUMPDEST PUSH1 0x40 MLOAD DUP1 SWAP2 SUB SWAP1 REVERT JUMPDEST POP PUSH1 0x0 SWAP1 DUP2 MSTORE PUSH1 0x3 PUSH1 0x20 SWAP1 DUP2 MSTORE PUSH1 0x40 DUP1 DUP4 KECCAK256 PUSH1 0x4 SWAP1 SWAP3 MSTORE SWAP1 SWAP2 KECCAK256 PUSH1 0x6 ADD DUP1 SLOAD PUSH1 0xFF PUSH1 0xA0 SHL NOT AND PUSH1 0x1 PUSH1 0xA0 SHL OR SWAP1 SSTORE PUSH1 0x9 ADD DUP1 SLOAD PUSH1 0xFF NOT AND PUSH1 0x1 OR SWAP1 SSTORE JUMP JUMPDEST PUSH1 0x7 PUSH1 0x20 MSTORE PUSH1 0x0 SWAP1 DUP2 MSTORE PUSH1 0x40 SWAP1 KECCAK256 DUP1 SLOAD DUP2 SWAP1 PUSH2 0x85A SWAP1 PUSH2 0x5936 JUMP JUMPDEST DUP1 PUSH1 0x1F ADD PUSH1 0x20 DUP1 SWAP2 DIV MUL PUSH1 0x20 ADD PUSH1 0x40 MLOAD SWAP1 DUP2 ADD PUSH1 0x40 MSTORE DUP1 SWAP3 SWAP2 SWAP1 DUP2 DUP2 MSTORE PUSH1 0x20 ADD DUP3 DUP1 SLOAD PUSH2 0x886 SWAP1 PUSH2 0x5936 JUMP JUMPDEST DUP1 ISZERO PUSH2 0x8D3 JUMPI DUP1 PUSH1 0x1F LT PUSH2 0x8A8 JUMPI PUSH2 0x100 DUP1 DUP4 SLOAD DIV MUL DUP4 MSTORE SWAP2 PUSH1 0x20 ADD SWAP2 PUSH2 0x8D3 JUMP JUMPDEST DUP3 ADD SWAP2 SWAP1 PUSH1 0x0 MSTORE PUSH1 0x20 PUSH1 0x0 KECCAK256 SWAP1 JUMPDEST DUP2 SLOAD DUP2 MSTORE SWAP1 PUSH1 0x1 ADD SWAP1 PUSH1 0x20 ADD DUP1 DUP4 GT PUSH2 0x8B6 JUMPI DUP3 SWAP1 SUB PUSH1 0x1F AND DUP3 ADD SWAP2 JUMPDEST POP POP POP POP POP SWAP1 DUP1 PUSH1 0x1 ADD DUP1 SLOAD PUSH2 0x8E8 SWAP1 PUSH2 0x5936 JUMP JUMPDEST DUP1 PUSH1 0x1F ADD PUSH1 0x20 DUP1 SWAP2 DIV MUL PUSH1 0x20 ADD PUSH1 0x40 MLOAD SWAP1 DUP2 ADD PUSH1 0x40 MSTORE DUP1 SWAP3 SWAP2 SWAP1 DUP2 DUP2 MSTORE PUSH1 0x20 ADD DUP3 DUP1 SLOAD PUSH2 0x914 SWAP1 PUSH2 0x5936 JUMP JUMPDEST DUP1 ISZERO PUSH2 0x961 JUMPI DUP1 PUSH1 0x1F LT PUSH2 0x936 JUMPI PUSH2 0x100 DUP1 DUP4 SLOAD DIV MUL DUP4 MSTORE SWAP2 PUSH1 0x20 ADD SWAP2 PUSH2 0x961 JUMP JUMPDEST DUP3 ADD SWAP2 SWAP1 PUSH1 0x0 MSTORE PUSH1 0x20 PUSH1 0x0 KECCAK256 SWAP1 JUMPDEST DUP2 SLOAD DUP2 MSTORE SWAP1 PUSH1 0x1 ADD SWAP1 PUSH1 0x20 ADD DUP1 DUP4 GT PUSH2 0x944 JUMPI DUP3 SWAP1 SUB PUSH1 0x1F AND DUP3 ADD SWAP2 JUMPDEST POP POP POP PUSH1 0x2 DUP5 ADD SLOAD PUSH1 0x3 DUP6 ADD SLOAD PUSH1 0x4 DUP7 ADD SLOAD PUSH1 0x5 DUP8 ADD SLOAD PUSH1 0x6 DUP9 ADD SLOAD PUSH1 0x7 DUP10 ADD SLOAD PUSH1 0x8 SWAP1 SWAP10 ADD SLOAD SWAP8 SWAP9 PUSH1 0x1 PUSH1 0x1 PUSH1 0xA0 SHL SUB SWAP6 DUP7 AND SWAP9 SWAP5 DUP7 AND SWAP8 POP SWAP3 SWAP1 SWAP5 AND SWAP5 POP SWAP3 SWAP2 DUP10 JUMP JUMPDEST PUSH1 0x60 PUSH1 0x0 DUP3 PUSH1 0x2 DUP2 GT ISZERO PUSH2 0x9BC JUMPI PUSH2 0x9BC PUSH2 0x5247 JUMP JUMPDEST SUB PUSH2 0xA23 JUMPI PUSH1 0x11 DUP1 SLOAD DUP1 PUSH1 0x20 MUL PUSH1 0x20 ADD PUSH1 0x40 MLOAD SWAP1 DUP2 ADD PUSH1 0x40 MSTORE DUP1 SWAP3 SWAP2 SWAP1 DUP2 DUP2 MSTORE PUSH1 0x20 ADD DUP3 DUP1 SLOAD DUP1 ISZERO PUSH2 0xA17 JUMPI PUSH1 0x20 MUL DUP3 ADD SWAP2 SWAP1 PUSH1 0x0 MSTORE PUSH1 0x20 PUSH1 0x0 KECCAK256 SWAP1 JUMPDEST DUP2 SLOAD PUSH1 0x1 PUSH1 0x1 PUSH1 0xA0 SHL SUB AND DUP2 MSTORE PUSH1 0x1 SWAP1 SWAP2 ADD SWAP1 PUSH1 0x20 ADD DUP1 DUP4 GT PUSH2 0x9F9 JUMPI JUMPDEST POP POP POP POP POP SWAP1 POP SWAP2 SWAP1 POP JUMP JUMPDEST PUSH1 0x1 DUP3 PUSH1 0x2 DUP2 GT ISZERO PUSH2 0xA37 JUMPI PUSH2 0xA37 PUSH2 0x5247 JUMP JUMPDEST SUB PUSH2 0xA9C JUMPI PUSH1 0x12 DUP1 SLOAD DUP1 PUSH1 0x20 MUL PUSH1 0x20 ADD PUSH1 0x40 MLOAD SWAP1 DUP2 ADD PUSH1 0x40 MSTORE DUP1 SWAP3 SWAP2 SWAP1 DUP2 DUP2 MSTORE PUSH1 0x20 ADD DUP3 DUP1 SLOAD DUP1 ISZERO PUSH2 0xA17 JUMPI PUSH1 0x20 MUL DUP3 ADD SWAP2 SWAP1 PUSH1 0x0 MSTORE PUSH1 0x20 PUSH1 0x0 KECCAK256 SWAP1 DUP2 SLOAD PUSH1 0x1 PUSH1 0x1 PUSH1 0xA0 SHL SUB AND DUP2 MSTORE PUSH1 0x1 SWAP1 SWAP2 ADD SWAP1 PUSH1 0x20 ADD DUP1 DUP4 GT PUSH2 0x9F9 JUMPI POP POP POP POP POP SWAP1 POP SWAP2 SWAP1 POP JUMP JUMPDEST PUSH1 0x2 DUP3 PUSH1 0x2 DUP2 GT ISZERO PUSH2 0xAB0 JUMPI PUSH2 0xAB0 PUSH2 0x5247 JUMP JUMPDEST SUB PUSH2 0xB15 JUMPI PUSH1 0x13 DUP1 SLOAD DUP1 PUSH1 0x20 MUL PUSH1 0x20 ADD PUSH1 0x40 MLOAD SWAP1 DUP2 ADD PUSH1 0x40 MSTORE DUP1 SWAP3 SWAP2 SWAP1 DUP2 DUP2 MSTORE PUSH1 0x20 ADD DUP3 DUP1 SLOAD DUP1 ISZERO PUSH2 0xA17 JUMPI PUSH1 0x20 MUL DUP3 ADD SWAP2 SWAP1 PUSH1 0x0 MSTORE PUSH1 0x20 PUSH1 0x0 KECCAK256 SWAP1 DUP2 SLOAD PUSH1 0x1 PUSH1 0x1 PUSH1 0xA0 SHL SUB AND DUP2 MSTORE PUSH1 0x1 SWAP1 SWAP2 ADD SWAP1 PUSH1 0x20 ADD DUP1 DUP4 GT PUSH2 0x9F9 JUMPI POP POP POP POP POP SWAP1 POP SWAP2 SWAP1 POP JUMP JUMPDEST POP PUSH1 0x60 SWAP2 SWAP1 POP JUMP JUMPDEST PUSH1 0x13 DUP2 DUP2 SLOAD DUP2 LT PUSH2 0xB2D JUMPI PUSH1 0x0 DUP1 REVERT JUMPDEST PUSH1 0x0 SWAP2 DUP3 MSTORE PUSH1 0x20 SWAP1 SWAP2 KECCAK256 ADD SLOAD PUSH1 0x1 PUSH1 0x1 PUSH1 0xA0 SHL SUB AND SWAP1 POP DUP2 JUMP JUMPDEST PUSH1 0x0 PUSH1 0x60 DUP1 PUSH1 0x0 DUP1 PUSH1 0x0 DUP1 DUP8 GT DUP1 ISZERO PUSH2 0xB62 JUMPI POP PUSH1 0xB SLOAD DUP8 GT ISZERO JUMPDEST PUSH2 0xBAE JUMPI PUSH1 0x40 MLOAD PUSH3 0x461BCD PUSH1 0xE5 SHL DUP2 MSTORE PUSH1 0x20 PUSH1 0x4 DUP3 ADD MSTORE PUSH1 0x1A PUSH1 0x24 DUP3 ADD MSTORE PUSH32 0x496E76616C69642070656E64696E672072657175657374204944000000000000 PUSH1 0x44 DUP3 ADD MSTORE PUSH1 0x64 ADD PUSH2 0x7F8 JUMP JUMPDEST PUSH1 0x0 DUP8 DUP2 MSTORE PUSH1 0x5 PUSH1 0x20 SWAP1 DUP2 MSTORE PUSH1 0x40 DUP1 DUP4 KECCAK256 DUP2 MLOAD PUSH1 0xC0 DUP2 ADD SWAP1 SWAP3 MSTORE DUP1 SLOAD PUSH1 0x1 PUSH1 0x1 PUSH1 0xA0 SHL SUB AND DUP3 MSTORE PUSH1 0x1 DUP2 ADD DUP1 SLOAD SWAP3 SWAP4 SWAP2 SWAP3 SWAP2 DUP5 ADD SWAP2 PUSH2 0xBEC SWAP1 PUSH2 0x5936 JUMP JUMPDEST DUP1 PUSH1 0x1F ADD PUSH1 0x20 DUP1 SWAP2 DIV MUL PUSH1 0x20 ADD PUSH1 0x40 MLOAD SWAP1 DUP2 ADD PUSH1 0x40 MSTORE DUP1 SWAP3 SWAP2 SWAP1 DUP2 DUP2 MSTORE PUSH1 0x20 ADD DUP3 DUP1 SLOAD PUSH2 0xC18 SWAP1 PUSH2 0x5936 JUMP JUMPDEST DUP1 ISZERO PUSH2 0xC65 JUMPI DUP1 PUSH1 0x1F LT PUSH2 0xC3A JUMPI PUSH2 0x100 DUP1 DUP4 SLOAD DIV MUL DUP4 MSTORE SWAP2 PUSH1 0x20 ADD SWAP2 PUSH2 0xC65 JUMP JUMPDEST DUP3 ADD SWAP2 SWAP1 PUSH1 0x0 MSTORE PUSH1 0x20 PUSH1 0x0 KECCAK256 SWAP1 JUMPDEST DUP2 SLOAD DUP2 MSTORE SWAP1 PUSH1 0x1 ADD SWAP1 PUSH1 0x20 ADD DUP1 DUP4 GT PUSH2 0xC48 JUMPI DUP3 SWAP1 SUB PUSH1 0x1F AND DUP3 ADD SWAP2 JUMPDEST POP POP POP POP POP DUP2 MSTORE PUSH1 0x20 ADD PUSH1 0x2 DUP3 ADD DUP1 SLOAD PUSH2 0xC7E SWAP1 PUSH2 0x5936 JUMP JUMPDEST DUP1 PUSH1 0x1F ADD PUSH1 0x20 DUP1 SWAP2 DIV MUL PUSH1 0x20 ADD PUSH1 0x40 MLOAD SWAP1 DUP2 ADD PUSH1 0x40 MSTORE DUP1 SWAP3 SWAP2 SWAP1 DUP2 DUP2 MSTORE PUSH1 0x20 ADD DUP3 DUP1 SLOAD PUSH2 0xCAA SWAP1 PUSH2 0x5936 JUMP JUMPDEST DUP1 ISZERO PUSH2 0xCF7 JUMPI DUP1 PUSH1 0x1F LT PUSH2 0xCCC JUMPI PUSH2 0x100 DUP1 DUP4 SLOAD DIV MUL DUP4 MSTORE SWAP2 PUSH1 0x20 ADD SWAP2 PUSH2 0xCF7 JUMP JUMPDEST DUP3 ADD SWAP2 SWAP1 PUSH1 0x0 MSTORE PUSH1 0x20 PUSH1 0x0 KECCAK256 SWAP1 JUMPDEST DUP2 SLOAD DUP2 MSTORE SWAP1 PUSH1 0x1 ADD SWAP1 PUSH1 0x20 ADD DUP1 DUP4 GT PUSH2 0xCDA JUMPI DUP3 SWAP1 SUB PUSH1 0x1F AND DUP3 ADD SWAP2 JUMPDEST POP POP POP SWAP2 DUP4 MSTORE POP POP PUSH1 0x3 DUP3 ADD SLOAD PUSH1 0x20 SWAP1 SWAP2 ADD SWAP1 PUSH1 0xFF AND PUSH1 0x2 DUP2 GT ISZERO PUSH2 0xD1E JUMPI PUSH2 0xD1E PUSH2 0x5247 JUMP JUMPDEST PUSH1 0x2 DUP2 GT ISZERO PUSH2 0xD2F JUMPI PUSH2 0xD2F PUSH2 0x5247 JUMP JUMPDEST DUP2 MSTORE PUSH1 0x3 SWAP2 SWAP1 SWAP2 ADD SLOAD PUSH1 0xFF PUSH2 0x100 DUP3 DIV DUP2 AND ISZERO ISZERO PUSH1 0x20 DUP1 DUP6 ADD SWAP2 SWAP1 SWAP2 MSTORE PUSH3 0x10000 SWAP1 SWAP3 DIV AND ISZERO ISZERO PUSH1 0x40 SWAP3 DUP4 ADD MSTORE DUP3 MLOAD SWAP1 DUP4 ADD MLOAD SWAP2 DUP4 ADD MLOAD PUSH1 0x60 DUP5 ADD MLOAD PUSH1 0x80 DUP6 ADD MLOAD PUSH1 0xA0 SWAP1 SWAP6 ADD MLOAD SWAP3 SWAP14 SWAP4 SWAP13 POP SWAP1 SWAP11 POP SWAP9 POP SWAP2 SWAP7 POP SWAP1 SWAP5 POP SWAP3 POP POP POP JUMP JUMPDEST PUSH1 0x12 DUP2 DUP2 SLOAD DUP2 LT PUSH2 0xB2D JUMPI PUSH1 0x0 DUP1 REVERT JUMPDEST PUSH1 0x1 PUSH1 0x1 PUSH1 0xA0 SHL SUB DUP3 AND PUSH1 0x0 SWAP1 DUP2 MSTORE PUSH1 0x20 DUP2 SWAP1 MSTORE PUSH1 0x40 DUP2 KECCAK256 SLOAD DUP2 SWAP1 PUSH1 0x60 SWAP1 DUP2 SWAP1 DUP4 SWAP1 DUP3 SWAP1 DUP3 SWAP1 DUP2 SWAP1 DUP10 LT PUSH2 0xE08 JUMPI PUSH1 0x40 MLOAD PUSH3 0x461BCD PUSH1 0xE5 SHL DUP2 MSTORE PUSH1 0x20 PUSH1 0x4 DUP3 ADD MSTORE PUSH1 0x13 PUSH1 0x24 DUP3 ADD MSTORE PUSH19 0x496E646578206F7574206F6620626F756E6473 PUSH1 0x68 SHL PUSH1 0x44 DUP3 ADD MSTORE PUSH1 0x64 ADD PUSH2 0x7F8 JUMP JUMPDEST PUSH1 0x1 PUSH1 0x1 PUSH1 0xA0 SHL SUB DUP11 AND PUSH1 0x0 SWAP1 DUP2 MSTORE PUSH1 0x20 DUP2 SWAP1 MSTORE PUSH1 0x40 DUP2 KECCAK256 DUP1 SLOAD DUP12 SWAP1 DUP2 LT PUSH2 0xE32 JUMPI PUSH2 0xE32 PUSH2 0x5970 JUMP JUMPDEST SWAP1 PUSH1 0x0 MSTORE PUSH1 0x20 PUSH1 0x0 KECCAK256 SWAP1 PUSH1 0x8 MUL ADD PUSH1 0x40 MLOAD DUP1 PUSH2 0x100 ADD PUSH1 0x40 MSTORE SWAP1 DUP2 PUSH1 0x0 DUP3 ADD SLOAD DUP2 MSTORE PUSH1 0x20 ADD PUSH1 0x1 DUP3 ADD PUSH1 0x0 SWAP1 SLOAD SWAP1 PUSH2 0x100 EXP SWAP1 DIV PUSH1 0x1 PUSH1 0x1 PUSH1 0xA0 SHL SUB AND PUSH1 0x1 PUSH1 0x1 PUSH1 0xA0 SHL SUB AND PUSH1 0x1 PUSH1 0x1 PUSH1 0xA0 SHL SUB AND DUP2 MSTORE PUSH1 0x20 ADD PUSH1 0x2 DUP3 ADD DUP1 SLOAD PUSH2 0xE95 SWAP1 PUSH2 0x5936 JUMP JUMPDEST DUP1 PUSH1 0x1F ADD PUSH1 0x20 DUP1 SWAP2 DIV MUL PUSH1 0x20 ADD PUSH1 0x40 MLOAD SWAP1 DUP2 ADD PUSH1 0x40 MSTORE DUP1 SWAP3 SWAP2 SWAP1 DUP2 DUP2 MSTORE PUSH1 0x20 ADD DUP3 DUP1 SLOAD PUSH2 0xEC1 SWAP1 PUSH2 0x5936 JUMP JUMPDEST DUP1 ISZERO PUSH2 0xF0E JUMPI DUP1 PUSH1 0x1F LT PUSH2 0xEE3 JUMPI PUSH2 0x100 DUP1 DUP4 SLOAD DIV MUL DUP4 MSTORE SWAP2 PUSH1 0x20 ADD SWAP2 PUSH2 0xF0E JUMP JUMPDEST DUP3 ADD SWAP2 SWAP1 PUSH1 0x0 MSTORE PUSH1 0x20 PUSH1 0x0 KECCAK256 SWAP1 JUMPDEST DUP2 SLOAD DUP2 MSTORE SWAP1 PUSH1 0x1 ADD SWAP1 PUSH1 0x20 ADD DUP1 DUP4 GT PUSH2 0xEF1 JUMPI DUP3 SWAP1 SUB PUSH1 0x1F AND DUP3 ADD SWAP2 JUMPDEST POP POP POP POP POP DUP2 MSTORE PUSH1 0x20 ADD PUSH1 0x3 DUP3 ADD DUP1 SLOAD PUSH2 0xF27 SWAP1 PUSH2 0x5936 JUMP JUMPDEST DUP1 PUSH1 0x1F ADD PUSH1 0x20 DUP1 SWAP2 DIV MUL PUSH1 0x20 ADD PUSH1 0x40 MLOAD SWAP1 DUP2 ADD PUSH1 0x40 MSTORE DUP1 SWAP3 SWAP2 SWAP1 DUP2 DUP2 MSTORE PUSH1 0x20 ADD DUP3 DUP1 SLOAD PUSH2 0xF53 SWAP1 PUSH2 0x5936 JUMP JUMPDEST DUP1 ISZERO PUSH2 0xFA0 JUMPI DUP1 PUSH1 0x1F LT PUSH2 0xF75 JUMPI PUSH2 0x100 DUP1 DUP4 SLOAD DIV MUL DUP4 MSTORE SWAP2 PUSH1 0x20 ADD SWAP2 PUSH2 0xFA0 JUMP JUMPDEST DUP3 ADD SWAP2 SWAP1 PUSH1 0x0 MSTORE PUSH1 0x20 PUSH1 0x0 KECCAK256 SWAP1 JUMPDEST DUP2 SLOAD DUP2 MSTORE SWAP1 PUSH1 0x1 ADD SWAP1 PUSH1 0x20 ADD DUP1 DUP4 GT PUSH2 0xF83 JUMPI DUP3 SWAP1 SUB PUSH1 0x1F AND DUP3 ADD SWAP2 JUMPDEST POP POP POP SWAP2 DUP4 MSTORE POP POP PUSH1 0x4 DUP3 ADD SLOAD PUSH1 0x1 PUSH1 0x1 PUSH1 0xA0 SHL SUB AND PUSH1 0x20 DUP3 ADD MSTORE PUSH1 0x5 DUP3 ADD DUP1 SLOAD PUSH1 0x40 SWAP1 SWAP3 ADD SWAP2 PUSH2 0xFD0 SWAP1 PUSH2 0x5936 JUMP JUMPDEST DUP1 PUSH1 0x1F ADD PUSH1 0x20 DUP1 SWAP2 DIV MUL PUSH1 0x20 ADD PUSH1 0x40 MLOAD SWAP1 DUP2 ADD PUSH1 0x40 MSTORE DUP1 SWAP3 SWAP2 SWAP1 DUP2 DUP2 MSTORE PUSH1 0x20 ADD DUP3 DUP1 SLOAD PUSH2 0xFFC SWAP1 PUSH2 0x5936 JUMP JUMPDEST DUP1 ISZERO PUSH2 0x1049 JUMPI DUP1 PUSH1 0x1F LT PUSH2 0x101E JUMPI PUSH2 0x100 DUP1 DUP4 SLOAD DIV MUL DUP4 MSTORE SWAP2 PUSH1 0x20 ADD SWAP2 PUSH2 0x1049 JUMP JUMPDEST DUP3 ADD SWAP2 SWAP1 PUSH1 0x0 MSTORE PUSH1 0x20 PUSH1 0x0 KECCAK256 SWAP1 JUMPDEST DUP2 SLOAD DUP2 MSTORE SWAP1 PUSH1 0x1 ADD SWAP1 PUSH1 0x20 ADD DUP1 DUP4 GT PUSH2 0x102C JUMPI DUP3 SWAP1 SUB PUSH1 0x1F AND DUP3 ADD SWAP2 JUMPDEST POP POP POP SWAP2 DUP4 MSTORE POP POP PUSH1 0x6 DUP3 ADD SLOAD PUSH1 0x1 PUSH1 0x1 PUSH1 0xA0 SHL SUB AND PUSH1 0x20 DUP1 DUP4 ADD SWAP2 SWAP1 SWAP2 MSTORE PUSH1 0x7 SWAP1 SWAP3 ADD SLOAD PUSH1 0x40 SWAP2 DUP3 ADD MSTORE DUP3 MLOAD SWAP2 DUP4 ADD MLOAD SWAP1 DUP4 ADD MLOAD PUSH1 0x60 DUP5 ADD MLOAD PUSH1 0x80 DUP6 ADD MLOAD PUSH1 0xA0 DUP7 ADD MLOAD PUSH1 0xC0 DUP8 ADD MLOAD PUSH1 0xE0 SWAP1 SWAP8 ADD MLOAD SWAP6 SWAP16 POP SWAP4 SWAP14 POP SWAP2 SWAP12 POP SWAP10 POP SWAP8 POP SWAP6 POP SWAP1 SWAP4 POP SWAP2 POP POP SWAP3 SWAP6 SWAP9 POP SWAP3 SWAP6 SWAP9 SWAP1 SWAP4 SWAP7 POP JUMP JUMPDEST PUSH1 0x1 PUSH1 0x1 PUSH1 0xA0 SHL SUB DUP2 AND PUSH1 0x0 SWAP1 DUP2 MSTORE PUSH1 0xE PUSH1 0x20 MSTORE PUSH1 0x40 SWAP1 KECCAK256 PUSH1 0x1 ADD DUP1 SLOAD PUSH1 0x60 SWAP2 SWAP1 PUSH2 0x10E4 SWAP1 PUSH2 0x5936 JUMP JUMPDEST DUP1 PUSH1 0x1F ADD PUSH1 0x20 DUP1 SWAP2 DIV MUL PUSH1 0x20 ADD PUSH1 0x40 MLOAD SWAP1 DUP2 ADD PUSH1 0x40 MSTORE DUP1 SWAP3 SWAP2 SWAP1 DUP2 DUP2 MSTORE PUSH1 0x20 ADD DUP3 DUP1 SLOAD PUSH2 0x1110 SWAP1 PUSH2 0x5936 JUMP JUMPDEST DUP1 ISZERO PUSH2 0xA17 JUMPI DUP1 PUSH1 0x1F LT PUSH2 0x1132 JUMPI PUSH2 0x100 DUP1 DUP4 SLOAD DIV MUL DUP4 MSTORE SWAP2 PUSH1 0x20 ADD SWAP2 PUSH2 0xA17 JUMP JUMPDEST DUP3 ADD SWAP2 SWAP1 PUSH1 0x0 MSTORE PUSH1 0x20 PUSH1 0x0 KECCAK256 SWAP1 JUMPDEST DUP2 SLOAD DUP2 MSTORE SWAP1 PUSH1 0x1 ADD SWAP1 PUSH1 0x20 ADD DUP1 DUP4 GT PUSH2 0x1140 JUMPI POP SWAP4 SWAP7 SWAP6 POP POP POP POP POP POP JUMP JUMPDEST PUSH1 0xD SLOAD PUSH1 0x1 PUSH1 0x1 PUSH1 0xA0 SHL SUB AND CALLER EQ PUSH2 0x1189 JUMPI PUSH1 0x40 MLOAD PUSH3 0x461BCD PUSH1 0xE5 SHL DUP2 MSTORE PUSH1 0x4 ADD PUSH2 0x7F8 SWAP1 PUSH2 0x5986 JUMP JUMPDEST PUSH1 0x1 PUSH1 0x1 PUSH1 0xA0 SHL SUB DUP2 AND PUSH1 0x0 SWAP1 DUP2 MSTORE PUSH1 0xE PUSH1 0x20 MSTORE PUSH1 0x40 DUP2 KECCAK256 DUP1 SLOAD PUSH1 0x1 PUSH1 0x1 PUSH1 0xA0 SHL SUB NOT AND DUP2 SSTORE SWAP1 PUSH2 0x11BD PUSH1 0x1 DUP4 ADD DUP3 PUSH2 0x50A6 JUMP JUMPDEST PUSH2 0x11CB PUSH1 0x2 DUP4 ADD PUSH1 0x0 PUSH2 0x50A6 JUMP JUMPDEST POP PUSH1 0x0 PUSH1 0x3 DUP3 ADD DUP2 SWAP1 SSTORE PUSH1 0x4 SWAP1 SWAP2 ADD DUP1 SLOAD PUSH1 0xFF NOT SWAP1 DUP2 AND SWAP1 SWAP2 SSTORE PUSH1 0x1 PUSH1 0x1 PUSH1 0xA0 SHL SUB DUP4 AND DUP3 MSTORE PUSH1 0x6 PUSH1 0x20 MSTORE PUSH1 0x40 DUP3 KECCAK256 DUP1 SLOAD SWAP1 SWAP2 AND SWAP1 SSTORE JUMPDEST PUSH1 0xF SLOAD DUP2 LT ISZERO PUSH2 0x12FD JUMPI DUP2 PUSH1 0x1 PUSH1 0x1 PUSH1 0xA0 SHL SUB AND PUSH1 0xF DUP3 DUP2 SLOAD DUP2 LT PUSH2 0x1229 JUMPI PUSH2 0x1229 PUSH2 0x5970 JUMP JUMPDEST PUSH1 0x0 SWAP2 DUP3 MSTORE PUSH1 0x20 SWAP1 SWAP2 KECCAK256 ADD SLOAD PUSH1 0x1 PUSH1 0x1 PUSH1 0xA0 SHL SUB AND SUB PUSH2 0x12F5 JUMPI PUSH1 0xF DUP1 SLOAD PUSH2 0x1253 SWAP1 PUSH1 0x1 SWAP1 PUSH2 0x59C8 JUMP JUMPDEST DUP2 SLOAD DUP2 LT PUSH2 0x1263 JUMPI PUSH2 0x1263 PUSH2 0x5970 JUMP JUMPDEST PUSH1 0x0 SWAP2 DUP3 MSTORE PUSH1 0x20 SWAP1 SWAP2 KECCAK256 ADD SLOAD PUSH1 0xF DUP1 SLOAD PUSH1 0x1 PUSH1 0x1 PUSH1 0xA0 SHL SUB SWAP1 SWAP3 AND SWAP2 DUP4 SWAP1 DUP2 LT PUSH2 0x128F JUMPI PUSH2 0x128F PUSH2 0x5970 JUMP JUMPDEST SWAP1 PUSH1 0x0 MSTORE PUSH1 0x20 PUSH1 0x0 KECCAK256 ADD PUSH1 0x0 PUSH2 0x100 EXP DUP2 SLOAD DUP2 PUSH1 0x1 PUSH1 0x1 PUSH1 0xA0 SHL SUB MUL NOT AND SWAP1 DUP4 PUSH1 0x1 PUSH1 0x1 PUSH1 0xA0 SHL SUB AND MUL OR SWAP1 SSTORE POP PUSH1 0xF DUP1 SLOAD DUP1 PUSH2 0x12CE JUMPI PUSH2 0x12CE PUSH2 0x59E1 JUMP JUMPDEST PUSH1 0x0 DUP3 DUP2 MSTORE PUSH1 0x20 SWAP1 KECCAK256 DUP2 ADD PUSH1 0x0 NOT SWAP1 DUP2 ADD DUP1 SLOAD PUSH1 0x1 PUSH1 0x1 PUSH1 0xA0 SHL SUB NOT AND SWAP1 SSTORE ADD SWAP1 SSTORE PUSH2 0x12FD JUMP JUMPDEST PUSH1 0x1 ADD PUSH2 0x1202 JUMP JUMPDEST POP PUSH1 0xC DUP1 SLOAD SWAP1 PUSH1 0x0 PUSH2 0x130E DUP4 PUSH2 0x59F7 JUMP JUMPDEST SWAP2 SWAP1 POP SSTORE POP POP JUMP JUMPDEST PUSH1 0x0 DUP1 CALLER PUSH1 0x0 SWAP1 DUP2 MSTORE PUSH1 0x6 PUSH1 0x20 MSTORE PUSH1 0x40 SWAP1 KECCAK256 SLOAD PUSH1 0xFF AND PUSH1 0x2 DUP2 GT ISZERO PUSH2 0x133D JUMPI PUSH2 0x133D PUSH2 0x5247 JUMP JUMPDEST EQ PUSH2 0x135A JUMPI PUSH1 0x40 MLOAD PUSH3 0x461BCD PUSH1 0xE5 SHL DUP2 MSTORE PUSH1 0x4 ADD PUSH2 0x7F8 SWAP1 PUSH2 0x58FF JUMP JUMPDEST PUSH1 0x0 DUP8 DUP2 MSTORE PUSH1 0x4 PUSH1 0x20 MSTORE PUSH1 0x40 SWAP1 KECCAK256 PUSH1 0x6 DUP2 ADD SLOAD PUSH1 0x1 PUSH1 0x1 PUSH1 0xA0 SHL SUB AND CALLER EQ PUSH2 0x13B4 JUMPI PUSH1 0x40 MLOAD PUSH3 0x461BCD PUSH1 0xE5 SHL DUP2 MSTORE PUSH1 0x20 PUSH1 0x4 DUP3 ADD MSTORE PUSH1 0xD PUSH1 0x24 DUP3 ADD MSTORE PUSH13 0x4E6F7420796F75722063726F7 PUSH1 0x9C SHL PUSH1 0x44 DUP3 ADD MSTORE PUSH1 0x64 ADD PUSH2 0x7F8 JUMP JUMPDEST PUSH1 0x9 DUP1 SLOAD SWAP1 PUSH1 0x0 PUSH2 0x13C4 DUP4 PUSH2 0x5A0E JUMP JUMPDEST SWAP2 SWAP1 POP SSTORE POP PUSH1 0x40 MLOAD DUP1 PUSH2 0x140 ADD PUSH1 0x40 MSTORE DUP1 PUSH1 0x9 SLOAD DUP2 MSTORE PUSH1 0x20 ADD DUP3 PUSH1 0x1 ADD DUP1 SLOAD PUSH2 0x13EC SWAP1 PUSH2 0x5936 JUMP JUMPDEST DUP1 PUSH1 0x1F ADD PUSH1 0x20 DUP1 SWAP2 DIV MUL PUSH1 0x20 ADD PUSH1 0x40 MLOAD SWAP1 DUP2 ADD PUSH1 0x40 MSTORE DUP1 SWAP3 SWAP2 SWAP1 DUP2 DUP2 MSTORE PUSH1 0x20 ADD DUP3 DUP1 SLOAD PUSH2 0x1418 SWAP1 PUSH2 0x5936 JUMP JUMPDEST DUP1 ISZERO PUSH2 0x1465 JUMPI DUP1 PUSH1 0x1F LT PUSH2 0x143A JUMPI PUSH2 0x100 DUP1 DUP4 SLOAD DIV MUL DUP4 MSTORE SWAP2 PUSH1 0x20 ADD SWAP2 PUSH2 0x1465 JUMP JUMPDEST DUP3 ADD SWAP2 SWAP1 PUSH1 0x0 MSTORE PUSH1 0x20 PUSH1 0x0 KECCAK256 SWAP1 JUMPDEST DUP2 SLOAD DUP2 MSTORE SWAP1 PUSH1 0x1 ADD SWAP1 PUSH1 0x20 ADD DUP1 DUP4 GT PUSH2 0x1448 JUMPI DUP3 SWAP1 SUB PUSH1 0x1F AND DUP3 ADD SWAP2 JUMPDEST POP POP POP POP POP DUP2 MSTORE PUSH1 0x20 ADD DUP3 PUSH1 0x2 ADD DUP1 SLOAD PUSH2 0x147E SWAP1 PUSH2 0x5936 JUMP JUMPDEST DUP1 PUSH1 0x1F ADD PUSH1 0x20 DUP1 SWAP2 DIV MUL PUSH1 0x20 ADD PUSH1 0x40 MLOAD SWAP1 DUP2 ADD PUSH1 0x40 MSTORE DUP1 SWAP3 SWAP2 SWAP1 DUP2 DUP2 MSTORE PUSH1 0x20 ADD DUP3 DUP1 SLOAD PUSH2 0x14AA SWAP1 PUSH2 0x5936 JUMP JUMPDEST DUP1 ISZERO PUSH2 0x14F7 JUMPI DUP1 PUSH1 0x1F LT PUSH2 0x14CC JUMPI PUSH2 0x100 DUP1 DUP4 SLOAD DIV MUL DUP4 MSTORE SWAP2 PUSH1 0x20 ADD SWAP2 PUSH2 0x14F7 JUMP JUMPDEST DUP3 ADD SWAP2 SWAP1 PUSH1 0x0 MSTORE PUSH1 0x20 PUSH1 0x0 KECCAK256 SWAP1 JUMPDEST DUP2 SLOAD DUP2 MSTORE SWAP1 PUSH1 0x1 ADD SWAP1 PUSH1 0x20 ADD DUP1 DUP4 GT PUSH2 0x14DA JUMPI DUP3 SWAP1 SUB PUSH1 0x1F AND DUP3 ADD SWAP2 JUMPDEST POP POP POP SWAP2 DUP4 MSTORE POP POP CALLER PUSH1 0x20 DUP3 ADD MSTORE PUSH1 0x1 PUSH1 0x1 PUSH1 0xA0 SHL SUB DUP8 DUP2 AND PUSH1 0x40 DUP4 ADD MSTORE DUP9 AND PUSH1 0x60 DUP3 ADD MSTORE PUSH1 0x80 DUP2 ADD DUP7 SWAP1 MSTORE PUSH1 0xA0 DUP2 ADD DUP6 SWAP1 MSTORE PUSH1 0xC0 DUP2 ADD DUP10 SWAP1 MSTORE PUSH1 0xE0 ADD PUSH1 0x1 SWAP1 MSTORE PUSH1 0x9 SLOAD PUSH1 0x0 SWAP1 DUP2 MSTORE PUSH1 0x3 PUSH1 0x20 SWAP1 DUP2 MSTORE PUSH1 0x40 SWAP1 SWAP2 KECCAK256 DUP3 MLOAD DUP2 SSTORE SWAP1 DUP3 ADD MLOAD PUSH1 0x1 DUP3 ADD SWAP1 PUSH2 0x1563 SWAP1 DUP3 PUSH2 0x5A76 JUMP JUMPDEST POP PUSH1 0x40 DUP3 ADD MLOAD PUSH1 0x2 DUP3 ADD SWAP1 PUSH2 0x1578 SWAP1 DUP3 PUSH2 0x5A76 JUMP JUMPDEST POP PUSH1 0x60 DUP3 ADD MLOAD PUSH1 0x3 DUP3 ADD DUP1 SLOAD PUSH1 0x1 PUSH1 0x1 PUSH1 0xA0 SHL SUB SWAP3 DUP4 AND PUSH1 0x1 PUSH1 0x1 PUSH1 0xA0 SHL SUB NOT SWAP2 DUP3 AND OR SWAP1 SWAP2 SSTORE PUSH1 0x80 DUP5 ADD MLOAD PUSH1 0x4 DUP5 ADD DUP1 SLOAD SWAP2 DUP5 AND SWAP2 DUP4 AND SWAP2 SWAP1 SWAP2 OR SWAP1 SSTORE PUSH1 0xA0 DUP5 ADD MLOAD PUSH1 0x5 DUP5 ADD DUP1 SLOAD SWAP2 SWAP1 SWAP4 AND SWAP2 AND OR SWAP1 SSTORE PUSH1 0xC0 DUP3 ADD MLOAD PUSH1 0x6 DUP3 ADD SWAP1 PUSH2 0x15DE SWAP1 DUP3 PUSH2 0x5A76 JUMP JUMPDEST POP PUSH1 0xE0 DUP3 ADD MLOAD PUSH1 0x7 DUP3 ADD SWAP1 PUSH2 0x15F3 SWAP1 DUP3 PUSH2 0x5A76 JUMP JUMPDEST POP PUSH2 0x100 DUP3 ADD MLOAD PUSH1 0x8 DUP3 ADD SSTORE PUSH2 0x120 DUP3 ADD MLOAD PUSH1 0x9 DUP3 ADD DUP1 SLOAD PUSH1 0xFF NOT AND PUSH1 0x1 DUP4 PUSH1 0x2 DUP2 GT ISZERO PUSH2 0x1623 JUMPI PUSH2 0x1623 PUSH2 0x5247 JUMP JUMPDEST MUL OR SWAP1 SSTORE POP POP POP POP POP POP POP POP POP POP POP JUMP JUMPDEST PUSH1 0x10 DUP2 DUP2 SLOAD DUP2 LT PUSH2 0xB2D JUMPI PUSH1 0x0 DUP1 REVERT JUMPDEST PUSH1 0x5 PUSH1 0x20 MSTORE PUSH1 0x0 SWAP1 DUP2 MSTORE PUSH1 0x40 SWAP1 KECCAK256 DUP1 SLOAD PUSH1 0x1 DUP3 ADD DUP1 SLOAD PUSH1 0x1 PUSH1 0x1 PUSH1 0xA0 SHL SUB SWAP1 SWAP3 AND SWAP3 SWAP2 PUSH2 0x1670 SWAP1 PUSH2 0x5936 JUMP JUMPDEST DUP1 PUSH1 0x1F ADD PUSH1 0x20 DUP1 SWAP2 DIV MUL PUSH1 0x20 ADD PUSH1 0x40 MLOAD SWAP1 DUP2 ADD PUSH1 0x40 MSTORE DUP1 SWAP3 SWAP2 SWAP1 DUP2 DUP2 MSTORE PUSH1 0x20 ADD DUP3 DUP1 SLOAD PUSH2 0x169C SWAP1 PUSH2 0x5936 JUMP JUMPDEST DUP1 ISZERO PUSH2 0x16E9 JUMPI DUP1 PUSH1 0x1F LT PUSH2 0x16BE JUMPI PUSH2 0x100 DUP1 DUP4 SLOAD DIV MUL DUP4 MSTORE SWAP2 PUSH1 0x20 ADD SWAP2 PUSH2 0x16E9 JUMP JUMPDEST DUP3 ADD SWAP2 SWAP1 PUSH1 0x0 MSTORE PUSH1 0x20 PUSH1 0x0 KECCAK256 SWAP1 JUMPDEST DUP2 SLOAD DUP2 MSTORE SWAP1 PUSH1 0x1 ADD SWAP1 PUSH1 0x20 ADD DUP1 DUP4 GT PUSH2 0x16CC JUMPI DUP3 SWAP1 SUB PUSH1 0x1F AND DUP3 ADD SWAP2 JUMPDEST POP POP POP POP POP SWAP1 DUP1 PUSH1 0x2 ADD DUP1 SLOAD PUSH2 0x16FE SWAP1 PUSH2 0x5936 JUMP JUMPDEST DUP1 PUSH1 0x1F ADD PUSH1 0x20 DUP1 SWAP2 DIV MUL PUSH1 0x20 ADD PUSH1 0x40 MLOAD SWAP1 DUP2 ADD PUSH1 0x40 MSTORE DUP1 SWAP3 SWAP2 SWAP1 DUP2 DUP2 MSTORE PUSH1 0x20 ADD DUP3 DUP1 SLOAD PUSH2 0x172A SWAP1 PUSH2 0x5936 JUMP JUMPDEST DUP1 ISZERO PUSH2 0x1777 JUMPI DUP1 PUSH1 0x1F LT PUSH2 0x174C JUMPI PUSH2 0x100 DUP1 DUP4 SLOAD DIV MUL DUP4 MSTORE SWAP2 PUSH1 0x20 ADD SWAP2 PUSH2 0x1777 JUMP JUMPDEST DUP3 ADD SWAP2 SWAP1 PUSH1 0x0 MSTORE PUSH1 0x20 PUSH1 0x0 KECCAK256 SWAP1 JUMPDEST DUP2 SLOAD DUP2 MSTORE SWAP1 PUSH1 0x1 ADD SWAP1 PUSH1 0x20 ADD DUP1 DUP4 GT PUSH2 0x175A JUMPI DUP3 SWAP1 SUB PUSH1 0x1F AND DUP3 ADD SWAP2 JUMPDEST POP POP POP PUSH1 0x3 SWAP1 SWAP4 ADD SLOAD SWAP2 SWAP3 POP POP PUSH1 0xFF DUP1 DUP3 AND SWAP2 PUSH2 0x100 DUP2 DIV DUP3 AND SWAP2 PUSH3 0x10000 SWAP1 SWAP2 DIV AND DUP7 JUMP JUMPDEST PUSH1 0x0 PUSH1 0x60 DUP1 PUSH1 0x0 DUP1 PUSH1 0x0 DUP1 PUSH1 0x0 DUP1 PUSH1 0x4 PUSH1 0x0 DUP12 DUP2 MSTORE PUSH1 0x20 ADD SWAP1 DUP2 MSTORE PUSH1 0x20 ADD PUSH1 0x0 KECCAK256 PUSH1 0x40 MLOAD DUP1 PUSH2 0x100 ADD PUSH1 0x40 MSTORE SWAP1 DUP2 PUSH1 0x0 DUP3 ADD SLOAD DUP2 MSTORE PUSH1 0x20 ADD PUSH1 0x1 DUP3 ADD DUP1 SLOAD PUSH2 0x17E4 SWAP1 PUSH2 0x5936 JUMP JUMPDEST DUP1 PUSH1 0x1F ADD PUSH1 0x20 DUP1 SWAP2 DIV MUL PUSH1 0x20 ADD PUSH1 0x40 MLOAD SWAP1 DUP2 ADD PUSH1 0x40 MSTORE DUP1 SWAP3 SWAP2 SWAP1 DUP2 DUP2 MSTORE PUSH1 0x20 ADD DUP3 DUP1 SLOAD PUSH2 0x1810 SWAP1 PUSH2 0x5936 JUMP JUMPDEST DUP1 ISZERO PUSH2 0x185D JUMPI DUP1 PUSH1 0x1F LT PUSH2 0x1832 JUMPI PUSH2 0x100 DUP1 DUP4 SLOAD DIV MUL DUP4 MSTORE SWAP2 PUSH1 0x20 ADD SWAP2 PUSH2 0x185D JUMP JUMPDEST DUP3 ADD SWAP2 SWAP1 PUSH1 0x0 MSTORE PUSH1 0x20 PUSH1 0x0 KECCAK256 SWAP1 JUMPDEST DUP2 SLOAD DUP2 MSTORE SWAP1 PUSH1 0x1 ADD SWAP1 PUSH1 0x20 ADD DUP1 DUP4 GT PUSH2 0x1840 JUMPI DUP3 SWAP1 SUB PUSH1 0x1F AND DUP3 ADD SWAP2 JUMPDEST POP POP POP POP POP DUP2 MSTORE PUSH1 0x20 ADD PUSH1 0x2 DUP3 ADD DUP1 SLOAD PUSH2 0x1876 SWAP1 PUSH2 0x5936 JUMP JUMPDEST DUP1 PUSH1 0x1F ADD PUSH1 0x20 DUP1 SWAP2 DIV MUL PUSH1 0x20 ADD PUSH1 0x40 MLOAD SWAP1 DUP2 ADD PUSH1 0x40 MSTORE DUP1 SWAP3 SWAP2 SWAP1 DUP2 DUP2 MSTORE PUSH1 0x20 ADD DUP3 DUP1 SLOAD PUSH2 0x18A2 SWAP1 PUSH2 0x5936 JUMP JUMPDEST DUP1 ISZERO PUSH2 0x18EF JUMPI DUP1 PUSH1 0x1F LT PUSH2 0x18C4 JUMPI PUSH2 0x100 DUP1 DUP4 SLOAD DIV MUL DUP4 MSTORE SWAP2 PUSH1 0x20 ADD SWAP2 PUSH2 0x18EF JUMP JUMPDEST DUP3 ADD SWAP2 SWAP1 PUSH1 0x0 MSTORE PUSH1 0x20 PUSH1 0x0 KECCAK256 SWAP1 JUMPDEST DUP2 SLOAD DUP2 MSTORE SWAP1 PUSH1 0x1 ADD SWAP1 PUSH1 0x20 ADD DUP1 DUP4 GT PUSH2 0x18D2 JUMPI DUP3 SWAP1 SUB PUSH1 0x1F AND DUP3 ADD SWAP2 JUMPDEST POP POP POP SWAP2 DUP4 MSTORE POP POP PUSH1 0x3 DUP3 ADD SLOAD PUSH1 0x20 DUP3 ADD MSTORE PUSH1 0x4 DUP3 ADD SLOAD PUSH1 0x40 DUP3 ADD MSTORE PUSH1 0x5 DUP3 ADD SLOAD PUSH1 0x60 DUP3 ADD MSTORE PUSH1 0x6 DUP3 ADD SLOAD PUSH1 0x1 PUSH1 0x1 PUSH1 0xA0 SHL SUB DUP2 AND PUSH1 0x80 DUP4 ADD MSTORE PUSH1 0xA0 SWAP1 SWAP2 ADD SWAP1 PUSH1 0x1 PUSH1 0xA0 SHL SWAP1 DIV PUSH1 0xFF AND PUSH1 0x2 DUP2 GT ISZERO PUSH2 0x194A JUMPI PUSH2 0x194A PUSH2 0x5247 JUMP JUMPDEST PUSH1 0x2 DUP2 GT ISZERO PUSH2 0x195B JUMPI PUSH2 0x195B PUSH2 0x5247 JUMP JUMPDEST DUP2 MSTORE POP POP SWAP1 POP DUP1 PUSH1 0x0 ADD MLOAD DUP2 PUSH1 0x20 ADD MLOAD DUP3 PUSH1 0x40 ADD MLOAD DUP4 PUSH1 0x60 ADD MLOAD DUP5 PUSH1 0xA0 ADD MLOAD DUP6 PUSH1 0x80 ADD MLOAD DUP7 PUSH1 0xC0 ADD MLOAD DUP8 PUSH1 0xE0 ADD MLOAD SWAP9 POP SWAP9 POP SWAP9 POP SWAP9 POP SWAP9 POP SWAP9 POP SWAP9 POP SWAP9 POP POP SWAP2 SWAP4 SWAP6 SWAP8 POP SWAP2 SWAP4 SWAP6 SWAP8 JUMP JUMPDEST PUSH1 0xF DUP2 DUP2 SLOAD DUP2 LT PUSH2 0xB2D JUMPI PUSH1 0x0 DUP1 REVERT JUMPDEST PUSH1 0xB DUP1 SLOAD SWAP1 PUSH1 0x0 PUSH2 0x19C5 DUP4 PUSH2 0x5A0E JUMP JUMPDEST SWAP2 SWAP1 POP SSTORE POP PUSH1 0x40 MLOAD DUP1 PUSH1 0xC0 ADD PUSH1 0x40 MSTORE DUP1 CALLER PUSH1 0x1 PUSH1 0x1 PUSH1 0xA0 SHL SUB AND DUP2 MSTORE PUSH1 0x20 ADD DUP5 DUP2 MSTORE PUSH1 0x20 ADD DUP3 DUP2 MSTORE PUSH1 0x20 ADD DUP4 PUSH1 0x2 DUP2 GT ISZERO PUSH2 0x1A02 JUMPI PUSH2 0x1A02 PUSH2 0x5247 JUMP JUMPDEST DUP2 MSTORE PUSH1 0x0 PUSH1 0x20 DUP1 DUP4 ADD DUP3 SWAP1 MSTORE PUSH1 0x1 PUSH1 0x40 SWAP4 DUP5 ADD DUP2 SWAP1 MSTORE PUSH1 0xB SLOAD DUP4 MSTORE PUSH1 0x5 DUP3 MSTORE SWAP3 SWAP1 SWAP2 KECCAK256 DUP4 MLOAD DUP2 SLOAD PUSH1 0x1 PUSH1 0x1 PUSH1 0xA0 SHL SUB NOT AND PUSH1 0x1 PUSH1 0x1 PUSH1 0xA0 SHL SUB SWAP1 SWAP2 AND OR DUP2 SSTORE SWAP1 DUP4 ADD MLOAD SWAP1 SWAP2 DUP3 ADD SWAP1 PUSH2 0x1A54 SWAP1 DUP3 PUSH2 0x5A76 JUMP JUMPDEST POP PUSH1 0x40 DUP3 ADD MLOAD PUSH1 0x2 DUP3 ADD SWAP1 PUSH2 0x1A69 SWAP1 DUP3 PUSH2 0x5A76 JUMP JUMPDEST POP PUSH1 0x60 DUP3 ADD MLOAD PUSH1 0x3 DUP3 ADD DUP1 SLOAD PUSH1 0xFF NOT AND PUSH1 0x1 DUP4 PUSH1 0x2 DUP2 GT ISZERO PUSH2 0x1A8D JUMPI PUSH2 0x1A8D PUSH2 0x5247 JUMP JUMPDEST MUL OR SWAP1 SSTORE POP PUSH1 0x80 DUP3 ADD MLOAD PUSH1 0x3 SWAP1 SWAP2 ADD DUP1 SLOAD PUSH1 0xA0 SWAP1 SWAP4 ADD MLOAD ISZERO ISZERO PUSH3 0x10000 MUL PUSH3 0xFF0000 NOT SWAP3 ISZERO ISZERO PUSH2 0x100 MUL SWAP3 SWAP1 SWAP3 AND PUSH3 0xFFFF00 NOT SWAP1 SWAP4 AND SWAP3 SWAP1 SWAP3 OR OR SWAP1 SSTORE POP POP POP JUMP JUMPDEST PUSH1 0x3 PUSH1 0x20 MSTORE PUSH1 0x0 SWAP1 DUP2 MSTORE PUSH1 0x40 SWAP1 KECCAK256 DUP1 SLOAD PUSH1 0x1 DUP3 ADD DUP1 SLOAD SWAP2 SWAP3 SWAP2 PUSH2 0x1AF1 SWAP1 PUSH2 0x5936 JUMP JUMPDEST DUP1 PUSH1 0x1F ADD PUSH1 0x20 DUP1 SWAP2 DIV MUL PUSH1 0x20 ADD PUSH1 0x40 MLOAD SWAP1 DUP2 ADD PUSH1 0x40 MSTORE DUP1 SWAP3 SWAP2 SWAP1 DUP2 DUP2 MSTORE PUSH1 0x20 ADD DUP3 DUP1 SLOAD PUSH2 0x1B1D SWAP1 PUSH2 0x5936 JUMP JUMPDEST DUP1 ISZERO PUSH2 0x1B6A JUMPI DUP1 PUSH1 0x1F LT PUSH2 0x1B3F JUMPI PUSH2 0x100 DUP1 DUP4 SLOAD DIV MUL DUP4 MSTORE SWAP2 PUSH1 0x20 ADD SWAP2 PUSH2 0x1B6A JUMP JUMPDEST DUP3 ADD SWAP2 SWAP1 PUSH1 0x0 MSTORE PUSH1 0x20 PUSH1 0x0 KECCAK256 SWAP1 JUMPDEST DUP2 SLOAD DUP2 MSTORE SWAP1 PUSH1 0x1 ADD SWAP1 PUSH1 0x20 ADD DUP1 DUP4 GT PUSH2 0x1B4D JUMPI DUP3 SWAP1 SUB PUSH1 0x1F AND DUP3 ADD SWAP2 JUMPDEST POP POP POP POP POP SWAP1 DUP1 PUSH1 0x2 ADD DUP1 SLOAD PUSH2 0x1B7F SWAP1 PUSH2 0x5936 JUMP JUMPDEST DUP1 PUSH1 0x1F ADD PUSH1 0x20 DUP1 SWAP2 DIV MUL PUSH1 0x20 ADD PUSH1 0x40 MLOAD SWAP1 DUP2 ADD PUSH1 0x40 MSTORE DUP1 SWAP3 SWAP2 SWAP1 DUP2 DUP2 MSTORE PUSH1 0x20 ADD DUP3 DUP1 SLOAD PUSH2 0x1BAB SWAP1 PUSH2 0x5936 JUMP JUMPDEST DUP1 ISZERO PUSH2 0x1BF8 JUMPI DUP1 PUSH1 0x1F LT PUSH2 0x1BCD JUMPI PUSH2 0x100 DUP1 DUP4 SLOAD DIV MUL DUP4 MSTORE SWAP2 PUSH1 0x20 ADD SWAP2 PUSH2 0x1BF8 JUMP JUMPDEST DUP3 ADD SWAP2 SWAP1 PUSH1 0x0 MSTORE PUSH1 0x20 PUSH1 0x0 KECCAK256 SWAP1 JUMPDEST DUP2 SLOAD DUP2 MSTORE SWAP1 PUSH1 0x1 ADD SWAP1 PUSH1 0x20 ADD DUP1 DUP4 GT PUSH2 0x1BDB JUMPI DUP3 SWAP1 SUB PUSH1 0x1F AND DUP3 ADD SWAP2 JUMPDEST POP POP POP POP PUSH1 0x3 DUP4 ADD SLOAD PUSH1 0x4 DUP5 ADD SLOAD PUSH1 0x5 DUP6 ADD SLOAD PUSH1 0x6 DUP7 ADD DUP1 SLOAD SWAP6 SWAP7 PUSH1 0x1 PUSH1 0x1 PUSH1 0xA0 SHL SUB SWAP5 DUP6 AND SWAP7 SWAP4 DUP6 AND SWAP6 POP SWAP4 SWAP1 SWAP2 AND SWAP3 SWAP2 PUSH2 0x1C33 SWAP1 PUSH2 0x5936 JUMP JUMPDEST DUP1 PUSH1 0x1F ADD PUSH1 0x20 DUP1 SWAP2 DIV MUL PUSH1 0x20 ADD PUSH1 0x40 MLOAD SWAP1 DUP2 ADD PUSH1 0x40 MSTORE DUP1 SWAP3 SWAP2 SWAP1 DUP2 DUP2 MSTORE PUSH1 0x20 ADD DUP3 DUP1 SLOAD PUSH2 0x1C5F SWAP1 PUSH2 0x5936 JUMP JUMPDEST DUP1 ISZERO PUSH2 0x1CAC JUMPI DUP1 PUSH1 0x1F LT PUSH2 0x1C81 JUMPI PUSH2 0x100 DUP1 DUP4 SLOAD DIV MUL DUP4 MSTORE SWAP2 PUSH1 0x20 ADD SWAP2 PUSH2 0x1CAC JUMP JUMPDEST DUP3 ADD SWAP2 SWAP1 PUSH1 0x0 MSTORE PUSH1 0x20 PUSH1 0x0 KECCAK256 SWAP1 JUMPDEST DUP2 SLOAD DUP2 MSTORE SWAP1 PUSH1 0x1 ADD SWAP1 PUSH1 0x20 ADD DUP1 DUP4 GT PUSH2 0x1C8F JUMPI DUP3 SWAP1 SUB PUSH1 0x1F AND DUP3 ADD SWAP2 JUMPDEST POP POP POP POP POP SWAP1 DUP1 PUSH1 0x7 ADD DUP1 SLOAD PUSH2 0x1CC1 SWAP1 PUSH2 0x5936 JUMP JUMPDEST DUP1 PUSH1 0x1F ADD PUSH1 0x20 DUP1 SWAP2 DIV MUL PUSH1 0x20 ADD PUSH1 0x40 MLOAD SWAP1 DUP2 ADD PUSH1 0x40 MSTORE DUP1 SWAP3 SWAP2 SWAP1 DUP2 DUP2 MSTORE PUSH1 0x20 ADD DUP3 DUP1 SLOAD PUSH2 0x1CED SWAP1 PUSH2 0x5936 JUMP JUMPDEST DUP1 ISZERO PUSH2 0x1D3A JUMPI DUP1 PUSH1 0x1F LT PUSH2 0x1D0F JUMPI PUSH2 0x100 DUP1 DUP4 SLOAD DIV MUL DUP4 MSTORE SWAP2 PUSH1 0x20 ADD SWAP2 PUSH2 0x1D3A JUMP JUMPDEST DUP3 ADD SWAP2 SWAP1 PUSH1 0x0 MSTORE PUSH1 0x20 PUSH1 0x0 KECCAK256 SWAP1 JUMPDEST DUP2 SLOAD DUP2 MSTORE SWAP1 PUSH1 0x1 ADD SWAP1 PUSH1 0x20 ADD DUP1 DUP4 GT PUSH2 0x1D1D JUMPI DUP3 SWAP1 SUB PUSH1 0x1F AND DUP3 ADD SWAP2 JUMPDEST POP POP POP POP PUSH1 0x8 DUP4 ADD SLOAD PUSH1 0x9 SWAP1 SWAP4 ADD SLOAD SWAP2 SWAP3 SWAP2 PUSH1 0xFF AND SWAP1 POP DUP11 JUMP JUMPDEST PUSH1 0x4 PUSH1 0x20 MSTORE PUSH1 0x0 SWAP1 DUP2 MSTORE PUSH1 0x40 SWAP1 KECCAK256 DUP1 SLOAD PUSH1 0x1 DUP3 ADD DUP1 SLOAD SWAP2 SWAP3 SWAP2 PUSH2 0x1D76 SWAP1 PUSH2 0x5936 JUMP JUMPDEST DUP1 PUSH1 0x1F ADD PUSH1 0x20 DUP1 SWAP2 DIV MUL PUSH1 0x20 ADD PUSH1 0x40 MLOAD SWAP1 DUP2 ADD PUSH1 0x40 MSTORE DUP1 SWAP3 SWAP2 SWAP1 DUP2 DUP2 MSTORE PUSH1 0x20 ADD DUP3 DUP1 SLOAD PUSH2 0x1DA2 SWAP1 PUSH2 0x5936 JUMP JUMPDEST DUP1 ISZERO PUSH2 0x1DEF JUMPI DUP1 PUSH1 0x1F LT PUSH2 0x1DC4 JUMPI PUSH2 0x100 DUP1 DUP4 SLOAD DIV MUL DUP4 MSTORE SWAP2 PUSH1 0x20 ADD SWAP2 PUSH2 0x1DEF JUMP JUMPDEST DUP3 ADD SWAP2 SWAP1 PUSH1 0x0 MSTORE PUSH1 0x20 PUSH1 0x0 KECCAK256 SWAP1 JUMPDEST DUP2 SLOAD DUP2 MSTORE SWAP1 PUSH1 0x1 ADD SWAP1 PUSH1 0x20 ADD DUP1 DUP4 GT PUSH2 0x1DD2 JUMPI DUP3 SWAP1 SUB PUSH1 0x1F AND DUP3 ADD SWAP2 JUMPDEST POP POP POP POP POP SWAP1 DUP1 PUSH1 0x2 ADD DUP1 SLOAD PUSH2 0x1E04 SWAP1 PUSH2 0x5936 JUMP JUMPDEST DUP1 PUSH1 0x1F ADD PUSH1 0x20 DUP1 SWAP2 DIV MUL PUSH1 0x20 ADD PUSH1 0x40 MLOAD SWAP1 DUP2 ADD PUSH1 0x40 MSTORE DUP1 SWAP3 SWAP2 SWAP1 DUP2 DUP2 MSTORE PUSH1 0x20 ADD DUP3 DUP1 SLOAD PUSH2 0x1E30 SWAP1 PUSH2 0x5936 JUMP JUMPDEST DUP1 ISZERO PUSH2 0x1E7D JUMPI DUP1 PUSH1 0x1F LT PUSH2 0x1E52 JUMPI PUSH2 0x100 DUP1 DUP4 SLOAD DIV MUL DUP4 MSTORE SWAP2 PUSH1 0x20 ADD SWAP2 PUSH2 0x1E7D JUMP JUMPDEST DUP3 ADD SWAP2 SWAP1 PUSH1 0x0 MSTORE PUSH1 0x20 PUSH1 0x0 KECCAK256 SWAP1 JUMPDEST DUP2 SLOAD DUP2 MSTORE SWAP1 PUSH1 0x1 ADD SWAP1 PUSH1 0x20 ADD DUP1 DUP4 GT PUSH2 0x1E60 JUMPI DUP3 SWAP1 SUB PUSH1 0x1F AND DUP3 ADD SWAP2 JUMPDEST POP POP POP POP PUSH1 0x3 DUP4 ADD SLOAD PUSH1 0x4 DUP5 ADD SLOAD PUSH1 0x5 DUP6 ADD SLOAD PUSH1 0x6 SWAP1 SWAP6 ADD SLOAD SWAP4 SWAP5 SWAP2 SWAP4 SWAP1 SWAP3 POP PUSH1 0x1 PUSH1 0x1 PUSH1 0xA0 SHL SUB DUP2 AND SWAP1 PUSH1 0x1 PUSH1 0xA0 SHL SWAP1 DIV PUSH1 0xFF AND DUP9 JUMP JUMPDEST PUSH1 0x2 PUSH1 0x20 MSTORE DUP2 PUSH1 0x0 MSTORE PUSH1 0x40 PUSH1 0x0 KECCAK256 DUP2 DUP2 SLOAD DUP2 LT PUSH2 0x1ED1 JUMPI PUSH1 0x0 DUP1 REVERT JUMPDEST PUSH1 0x0 SWAP2 DUP3 MSTORE PUSH1 0x20 SWAP1 SWAP2 KECCAK256 PUSH1 0x8 SWAP1 SWAP2 MUL ADD DUP1 SLOAD PUSH1 0x1 DUP3 ADD SLOAD PUSH1 0x2 DUP4 ADD SLOAD PUSH1 0x3 DUP5 ADD DUP1 SLOAD SWAP4 SWAP7 POP PUSH1 0x1 PUSH1 0x1 PUSH1 0xA0 SHL SUB SWAP3 DUP4 AND SWAP6 POP SWAP2 AND SWAP3 SWAP2 PUSH2 0x1F10 SWAP1 PUSH2 0x5936 JUMP JUMPDEST DUP1 PUSH1 0x1F ADD PUSH1 0x20 DUP1 SWAP2 DIV MUL PUSH1 0x20 ADD PUSH1 0x40 MLOAD SWAP1 DUP2 ADD PUSH1 0x40 MSTORE DUP1 SWAP3 SWAP2 SWAP1 DUP2 DUP2 MSTORE PUSH1 0x20 ADD DUP3 DUP1 SLOAD PUSH2 0x1F3C SWAP1 PUSH2 0x5936 JUMP JUMPDEST DUP1 ISZERO PUSH2 0x1F89 JUMPI DUP1 PUSH1 0x1F LT PUSH2 0x1F5E JUMPI PUSH2 0x100 DUP1 DUP4 SLOAD DIV MUL DUP4 MSTORE SWAP2 PUSH1 0x20 ADD SWAP2 PUSH2 0x1F89 JUMP JUMPDEST DUP3 ADD SWAP2 SWAP1 PUSH1 0x0 MSTORE PUSH1 0x20 PUSH1 0x0 KECCAK256 SWAP1 JUMPDEST DUP2 SLOAD DUP2 MSTORE SWAP1 PUSH1 0x1 ADD SWAP1 PUSH1 0x20 ADD DUP1 DUP4 GT PUSH2 0x1F6C JUMPI DUP3 SWAP1 SUB PUSH1 0x1F AND DUP3 ADD SWAP2 JUMPDEST POP POP POP POP POP SWAP1 DUP1 PUSH1 0x4 ADD DUP1 SLOAD PUSH2 0x1F9E SWAP1 PUSH2 0x5936 JUMP JUMPDEST DUP1 PUSH1 0x1F ADD PUSH1 0x20 DUP1 SWAP2 DIV MUL PUSH1 0x20 ADD PUSH1 0x40 MLOAD SWAP1 DUP2 ADD PUSH1 0x40 MSTORE DUP1 SWAP3 SWAP2 SWAP1 DUP2 DUP2 MSTORE PUSH1 0x20 ADD DUP3 DUP1 SLOAD PUSH2 0x1FCA SWAP1 PUSH2 0x5936 JUMP JUMPDEST DUP1 ISZERO PUSH2 0x2017 JUMPI DUP1 PUSH1 0x1F LT PUSH2 0x1FEC JUMPI PUSH2 0x100 DUP1 DUP4 SLOAD DIV MUL DUP4 MSTORE SWAP2 PUSH1 0x20 ADD SWAP2 PUSH2 0x2017 JUMP JUMPDEST DUP3 ADD SWAP2 SWAP1 PUSH1 0x0 MSTORE PUSH1 0x20 PUSH1 0x0 KECCAK256 SWAP1 JUMPDEST DUP2 SLOAD DUP2 MSTORE SWAP1 PUSH1 0x1 ADD SWAP1 PUSH1 0x20 ADD DUP1 DUP4 GT PUSH2 0x1FFA JUMPI DUP3 SWAP1 SUB PUSH1 0x1F AND DUP3 ADD SWAP2 JUMPDEST POP POP POP POP POP SWAP1 DUP1 PUSH1 0x5 ADD SLOAD SWAP1 DUP1 PUSH1 0x6 ADD DUP1 SLOAD PUSH2 0x2032 SWAP1 PUSH2 0x5936 JUMP JUMPDEST DUP1 PUSH1 0x1F ADD PUSH1 0x20 DUP1 SWAP2 DIV MUL PUSH1 0x20 ADD PUSH1 0x40 MLOAD SWAP1 DUP2 ADD PUSH1 0x40 MSTORE DUP1 SWAP3 SWAP2 SWAP1 DUP2 DUP2 MSTORE PUSH1 0x20 ADD DUP3 DUP1 SLOAD PUSH2 0x205E SWAP1 PUSH2 0x5936 JUMP JUMPDEST DUP1 ISZERO PUSH2 0x20AB JUMPI DUP1 PUSH1 0x1F LT PUSH2 0x2080 JUMPI PUSH2 0x100 DUP1 DUP4 SLOAD DIV MUL DUP4 MSTORE SWAP2 PUSH1 0x20 ADD SWAP2 PUSH2 0x20AB JUMP JUMPDEST DUP3 ADD SWAP2 SWAP1 PUSH1 0x0 MSTORE PUSH1 0x20 PUSH1 0x0 KECCAK256 SWAP1 JUMPDEST DUP2 SLOAD DUP2 MSTORE SWAP1 PUSH1 0x1 ADD SWAP1 PUSH1 0x20 ADD DUP1 DUP4 GT PUSH2 0x208E JUMPI DUP3 SWAP1 SUB PUSH1 0x1F AND DUP3 ADD SWAP2 JUMPDEST POP POP POP POP POP SWAP1 DUP1 PUSH1 0x7 ADD SLOAD SWAP1 POP DUP9 JUMP JUMPDEST PUSH1 0x0 DUP1 JUMPDEST PUSH1 0x10 SLOAD DUP2 LT ISZERO PUSH2 0x210C JUMPI PUSH1 0x10 DUP2 DUP2 SLOAD DUP2 LT PUSH2 0x20DC JUMPI PUSH2 0x20DC PUSH2 0x5970 JUMP JUMPDEST PUSH1 0x0 SWAP2 DUP3 MSTORE PUSH1 0x20 SWAP1 SWAP2 KECCAK256 ADD SLOAD PUSH1 0x1 PUSH1 0x1 PUSH1 0xA0 SHL SUB SWAP1 DUP2 AND SWAP1 DUP5 AND SUB PUSH2 0x2104 JUMPI POP PUSH1 0x0 SWAP3 SWAP2 POP POP JUMP JUMPDEST PUSH1 0x1 ADD PUSH2 0x20BF JUMP JUMPDEST POP PUSH1 0x1 SWAP3 SWAP2 POP POP JUMP JUMPDEST PUSH1 0x11 DUP2 DUP2 SLOAD DUP2 LT PUSH2 0xB2D JUMPI PUSH1 0x0 DUP1 REVERT JUMPDEST PUSH1 0x0 DUP1 PUSH1 0x0 PUSH1 0x60 DUP1 PUSH1 0x0 PUSH1 0x60 PUSH1 0x0 DUP1 PUSH1 0x2 PUSH1 0x0 DUP13 PUSH1 0x1 PUSH1 0x1 PUSH1 0xA0 SHL SUB AND PUSH1 0x1 PUSH1 0x1 PUSH1 0xA0 SHL SUB AND DUP2 MSTORE PUSH1 0x20 ADD SWAP1 DUP2 MSTORE PUSH1 0x20 ADD PUSH1 0x0 KECCAK256 DUP11 DUP2 SLOAD DUP2 LT PUSH2 0x216A JUMPI PUSH2 0x216A PUSH2 0x5970 JUMP JUMPDEST PUSH1 0x0 SWAP2 DUP3 MSTORE PUSH1 0x20 SWAP2 DUP3 SWAP1 KECCAK256 PUSH1 0x40 DUP1 MLOAD PUSH2 0x100 DUP2 ADD DUP3 MSTORE PUSH1 0x8 SWAP1 SWAP4 MUL SWAP1 SWAP2 ADD DUP1 SLOAD DUP4 MSTORE PUSH1 0x1 DUP2 ADD SLOAD PUSH1 0x1 PUSH1 0x1 PUSH1 0xA0 SHL SUB SWAP1 DUP2 AND SWAP5 DUP5 ADD SWAP5 SWAP1 SWAP5 MSTORE PUSH1 0x2 DUP2 ADD SLOAD SWAP1 SWAP4 AND SWAP1 DUP3 ADD MSTORE PUSH1 0x3 DUP3 ADD DUP1 SLOAD SWAP2 SWAP3 SWAP2 PUSH1 0x60 DUP5 ADD SWAP2 SWAP1 PUSH2 0x21C7 SWAP1 PUSH2 0x5936 JUMP JUMPDEST DUP1 PUSH1 0x1F ADD PUSH1 0x20 DUP1 SWAP2 DIV MUL PUSH1 0x20 ADD PUSH1 0x40 MLOAD SWAP1 DUP2 ADD PUSH1 0x40 MSTORE DUP1 SWAP3 SWAP2 SWAP1 DUP2 DUP2 MSTORE PUSH1 0x20 ADD DUP3 DUP1 SLOAD PUSH2 0x21F3 SWAP1 PUSH2 0x5936 JUMP JUMPDEST DUP1 ISZERO PUSH2 0x2240 JUMPI DUP1 PUSH1 0x1F LT PUSH2 0x2215 JUMPI PUSH2 0x100 DUP1 DUP4 SLOAD DIV MUL DUP4 MSTORE SWAP2 PUSH1 0x20 ADD SWAP2 PUSH2 0x2240 JUMP JUMPDEST DUP3 ADD SWAP2 SWAP1 PUSH1 0x0 MSTORE PUSH1 0x20 PUSH1 0x0 KECCAK256 SWAP1 JUMPDEST DUP2 SLOAD DUP2 MSTORE SWAP1 PUSH1 0x1 ADD SWAP1 PUSH1 0x20 ADD DUP1 DUP4 GT PUSH2 0x2223 JUMPI DUP3 SWAP1 SUB PUSH1 0x1F AND DUP3 ADD SWAP2 JUMPDEST POP POP POP POP POP DUP2 MSTORE PUSH1 0x20 ADD PUSH1 0x4 DUP3 ADD DUP1 SLOAD PUSH2 0x2259 SWAP1 PUSH2 0x5936 JUMP JUMPDEST DUP1 PUSH1 0x1F ADD PUSH1 0x20 DUP1 SWAP2 DIV MUL PUSH1 0x20 ADD PUSH1 0x40 MLOAD SWAP1 DUP2 ADD PUSH1 0x40 MSTORE DUP1 SWAP3 SWAP2 SWAP1 DUP2 DUP2 MSTORE PUSH1 0x20 ADD DUP3 DUP1 SLOAD PUSH2 0x2285 SWAP1 PUSH2 0x5936 JUMP JUMPDEST DUP1 ISZERO PUSH2 0x22D2 JUMPI DUP1 PUSH1 0x1F LT PUSH2 0x22A7 JUMPI PUSH2 0x100 DUP1 DUP4 SLOAD DIV MUL DUP4 MSTORE SWAP2 PUSH1 0x20 ADD SWAP2 PUSH2 0x22D2 JUMP JUMPDEST DUP3 ADD SWAP2 SWAP1 PUSH1 0x0 MSTORE PUSH1 0x20 PUSH1 0x0 KECCAK256 SWAP1 JUMPDEST DUP2 SLOAD DUP2 MSTORE SWAP1 PUSH1 0x1 ADD SWAP1 PUSH1 0x20 ADD DUP1 DUP4 GT PUSH2 0x22B5 JUMPI DUP3 SWAP1 SUB PUSH1 0x1F AND DUP3 ADD SWAP2 JUMPDEST POP POP POP POP POP DUP2 MSTORE PUSH1 0x20 ADD PUSH1 0x5 DUP3 ADD SLOAD DUP2 MSTORE PUSH1 0x20 ADD PUSH1 0x6 DUP3 ADD DUP1 SLOAD PUSH2 0x22F5 SWAP1 PUSH2 0x5936 JUMP JUMPDEST DUP1 PUSH1 0x1F ADD PUSH1 0x20 DUP1 SWAP2 DIV MUL PUSH1 0x20 ADD PUSH1 0x40 MLOAD SWAP1 DUP2 ADD PUSH1 0x40 MSTORE DUP1 SWAP3 SWAP2 SWAP1 DUP2 DUP2 MSTORE PUSH1 0x20 ADD DUP3 DUP1 SLOAD PUSH2 0x2321 SWAP1 PUSH2 0x5936 JUMP JUMPDEST DUP1 ISZERO PUSH2 0x236E JUMPI DUP1 PUSH1 0x1F LT PUSH2 0x2343 JUMPI PUSH2 0x100 DUP1 DUP4 SLOAD DIV MUL DUP4 MSTORE SWAP2 PUSH1 0x20 ADD SWAP2 PUSH2 0x236E JUMP JUMPDEST DUP3 ADD SWAP2 SWAP1 PUSH1 0x0 MSTORE PUSH1 0x20 PUSH1 0x0 KECCAK256 SWAP1 JUMPDEST DUP2 SLOAD DUP2 MSTORE SWAP1 PUSH1 0x1 ADD SWAP1 PUSH1 0x20 ADD DUP1 DUP4 GT PUSH2 0x2351 JUMPI DUP3 SWAP1 SUB PUSH1 0x1F AND DUP3 ADD SWAP2 JUMPDEST POP POP POP POP POP DUP2 MSTORE PUSH1 0x20 ADD PUSH1 0x7 DUP3 ADD SLOAD DUP2 MSTORE POP POP SWAP1 POP DUP1 PUSH1 0x0 ADD MLOAD DUP2 PUSH1 0x20 ADD MLOAD DUP3 PUSH1 0x40 ADD MLOAD DUP4 PUSH1 0x60 ADD MLOAD DUP5 PUSH1 0x80 ADD MLOAD DUP6 PUSH1 0xA0 ADD MLOAD DUP7 PUSH1 0xC0 ADD MLOAD DUP8 PUSH1 0xE0 ADD MLOAD SWAP9 POP SWAP9 POP SWAP9 POP SWAP9 POP SWAP9 POP SWAP9 POP SWAP9 POP SWAP9 POP POP SWAP3 SWAP6 SWAP9 POP SWAP3 SWAP6 SWAP9 SWAP1 SWAP4 SWAP7 POP JUMP JUMPDEST PUSH1 0x1 PUSH1 0x20 MSTORE DUP2 PUSH1 0x0 MSTORE PUSH1 0x40 PUSH1 0x0 KECCAK256 DUP2 DUP2 SLOAD DUP2 LT PUSH2 0x23E5 JUMPI PUSH1 0x0 DUP1 REVERT JUMPDEST PUSH1 0x0 SWAP2 DUP3 MSTORE PUSH1 0x20 SWAP1 SWAP2 KECCAK256 PUSH1 0x9 SWAP1 SWAP2 MUL ADD DUP1 SLOAD PUSH1 0x1 DUP3 ADD SLOAD PUSH1 0x2 DUP4 ADD SLOAD PUSH1 0x3 DUP5 ADD DUP1 SLOAD SWAP4 SWAP7 POP PUSH1 0x1 PUSH1 0x1 PUSH1 0xA0 SHL SUB SWAP3 DUP4 AND SWAP6 POP SWAP2 AND SWAP3 SWAP2 PUSH2 0x2424 SWAP1 PUSH2 0x5936 JUMP JUMPDEST DUP1 PUSH1 0x1F ADD PUSH1 0x20 DUP1 SWAP2 DIV MUL PUSH1 0x20 ADD PUSH1 0x40 MLOAD SWAP1 DUP2 ADD PUSH1 0x40 MSTORE DUP1 SWAP3 SWAP2 SWAP1 DUP2 DUP2 MSTORE PUSH1 0x20 ADD DUP3 DUP1 SLOAD PUSH2 0x2450 SWAP1 PUSH2 0x5936 JUMP JUMPDEST DUP1 ISZERO PUSH2 0x249D JUMPI DUP1 PUSH1 0x1F LT PUSH2 0x2472 JUMPI PUSH2 0x100 DUP1 DUP4 SLOAD DIV MUL DUP4 MSTORE SWAP2 PUSH1 0x20 ADD SWAP2 PUSH2 0x249D JUMP JUMPDEST DUP3 ADD SWAP2 SWAP1 PUSH1 0x0 MSTORE PUSH1 0x20 PUSH1 0x0 KECCAK256 SWAP1 JUMPDEST DUP2 SLOAD DUP2 MSTORE SWAP1 PUSH1 0x1 ADD SWAP1 PUSH1 0x20 ADD DUP1 DUP4 GT PUSH2 0x2480 JUMPI DUP3 SWAP1 SUB PUSH1 0x1F AND DUP3 ADD SWAP2 JUMPDEST POP POP POP POP POP SWAP1 DUP1 PUSH1 0x4 ADD DUP1 SLOAD PUSH2 0x24B2 SWAP1 PUSH2 0x5936 JUMP JUMPDEST DUP1 PUSH1 0x1F ADD PUSH1 0x20 DUP1 SWAP2 DIV MUL PUSH1 0x20 ADD PUSH1 0x40 MLOAD SWAP1 DUP2 ADD PUSH1 0x40 MSTORE DUP1 SWAP3 SWAP2 SWAP1 DUP2 DUP2 MSTORE PUSH1 0x20 ADD DUP3 DUP1 SLOAD PUSH2 0x24DE SWAP1 PUSH2 0x5936 JUMP JUMPDEST DUP1 ISZERO PUSH2 0x252B JUMPI DUP1 PUSH1 0x1F LT PUSH2 0x2500 JUMPI PUSH2 0x100 DUP1 DUP4 SLOAD DIV MUL DUP4 MSTORE SWAP2 PUSH1 0x20 ADD SWAP2 PUSH2 0x252B JUMP JUMPDEST DUP3 ADD SWAP2 SWAP1 PUSH1 0x0 MSTORE PUSH1 0x20 PUSH1 0x0 KECCAK256 SWAP1 JUMPDEST DUP2 SLOAD DUP2 MSTORE SWAP1 PUSH1 0x1 ADD SWAP1 PUSH1 0x20 ADD DUP1 DUP4 GT PUSH2 0x250E JUMPI DUP3 SWAP1 SUB PUSH1 0x1F AND DUP3 ADD SWAP2 JUMPDEST POP POP POP POP POP SWAP1 DUP1 PUSH1 0x5 ADD DUP1 SLOAD PUSH2 0x2540 SWAP1 PUSH2 0x5936 JUMP JUMPDEST DUP1 PUSH1 0x1F ADD PUSH1 0x20 DUP1 SWAP2 DIV MUL PUSH1 0x20 ADD PUSH1 0x40 MLOAD SWAP1 DUP2 ADD PUSH1 0x40 MSTORE DUP1 SWAP3 SWAP2 SWAP1 DUP2 DUP2 MSTORE PUSH1 0x20 ADD DUP3 DUP1 SLOAD PUSH2 0x256C SWAP1 PUSH2 0x5936 JUMP JUMPDEST DUP1 ISZERO PUSH2 0x25B9 JUMPI DUP1 PUSH1 0x1F LT PUSH2 0x258E JUMPI PUSH2 0x100 DUP1 DUP4 SLOAD DIV MUL DUP4 MSTORE SWAP2 PUSH1 0x20 ADD SWAP2 PUSH2 0x25B9 JUMP JUMPDEST DUP3 ADD SWAP2 SWAP1 PUSH1 0x0 MSTORE PUSH1 0x20 PUSH1 0x0 KECCAK256 SWAP1 JUMPDEST DUP2 SLOAD DUP2 MSTORE SWAP1 PUSH1 0x1 ADD SWAP1 PUSH1 0x20 ADD DUP1 DUP4 GT PUSH2 0x259C JUMPI DUP3 SWAP1 SUB PUSH1 0x1F AND DUP3 ADD SWAP2 JUMPDEST POP POP POP POP POP SWAP1 DUP1 PUSH1 0x6 ADD DUP1 SLOAD PUSH2 0x25CE SWAP1 PUSH2 0x5936 JUMP JUMPDEST DUP1 PUSH1 0x1F ADD PUSH1 0x20 DUP1 SWAP2 DIV MUL PUSH1 0x20 ADD PUSH1 0x40 MLOAD SWAP1 DUP2 ADD PUSH1 0x40 MSTORE DUP1 SWAP3 SWAP2 SWAP1 DUP2 DUP2 MSTORE PUSH1 0x20 ADD DUP3 DUP1 SLOAD PUSH2 0x25FA SWAP1 PUSH2 0x5936 JUMP JUMPDEST DUP1 ISZERO PUSH2 0x2647 JUMPI DUP1 PUSH1 0x1F LT PUSH2 0x261C JUMPI PUSH2 0x100 DUP1 DUP4 SLOAD DIV MUL DUP4 MSTORE SWAP2 PUSH1 0x20 ADD SWAP2 PUSH2 0x2647 JUMP JUMPDEST DUP3 ADD SWAP2 SWAP1 PUSH1 0x0 MSTORE PUSH1 0x20 PUSH1 0x0 KECCAK256 SWAP1 JUMPDEST DUP2 SLOAD DUP2 MSTORE SWAP1 PUSH1 0x1 ADD SWAP1 PUSH1 0x20 ADD DUP1 DUP4 GT PUSH2 0x262A JUMPI DUP3 SWAP1 SUB PUSH1 0x1F AND DUP3 ADD SWAP2 JUMPDEST POP POP POP POP POP SWAP1 DUP1 PUSH1 0x7 ADD DUP1 SLOAD PUSH2 0x265C SWAP1 PUSH2 0x5936 JUMP JUMPDEST DUP1 PUSH1 0x1F ADD PUSH1 0x20 DUP1 SWAP2 DIV MUL PUSH1 0x20 ADD PUSH1 0x40 MLOAD SWAP1 DUP2 ADD PUSH1 0x40 MSTORE DUP1 SWAP3 SWAP2 SWAP1 DUP2 DUP2 MSTORE PUSH1 0x20 ADD DUP3 DUP1 SLOAD PUSH2 0x2688 SWAP1 PUSH2 0x5936 JUMP JUMPDEST DUP1 ISZERO PUSH2 0x26D5 JUMPI DUP1 PUSH1 0x1F LT PUSH2 0x26AA JUMPI PUSH2 0x100 DUP1 DUP4 SLOAD DIV MUL DUP4 MSTORE SWAP2 PUSH1 0x20 ADD SWAP2 PUSH2 0x26D5 JUMP JUMPDEST DUP3 ADD SWAP2 SWAP1 PUSH1 0x0 MSTORE PUSH1 0x20 PUSH1 0x0 KECCAK256 SWAP1 JUMPDEST DUP2 SLOAD DUP2 MSTORE SWAP1 PUSH1 0x1 ADD SWAP1 PUSH1 0x20 ADD DUP1 DUP4 GT PUSH2 0x26B8 JUMPI DUP3 SWAP1 SUB PUSH1 0x1F AND DUP3 ADD SWAP2 JUMPDEST POP POP POP POP POP SWAP1 DUP1 PUSH1 0x8 ADD SLOAD SWAP1 POP DUP10 JUMP JUMPDEST PUSH1 0xD SLOAD PUSH1 0x60 SWAP1 PUSH1 0x1 PUSH1 0x1 PUSH1 0xA0 SHL SUB SWAP1 DUP2 AND SWAP1 DUP4 AND SUB PUSH2 0x271F JUMPI POP POP PUSH1 0x40 DUP1 MLOAD DUP1 DUP3 ADD SWAP1 SWAP2 MSTORE PUSH1 0x5 DUP2 MSTORE PUSH5 0x30B236B4B7 PUSH1 0xD9 SHL PUSH1 0x20 DUP3 ADD MSTORE SWAP1 JUMP JUMPDEST PUSH1 0x0 JUMPDEST PUSH1 0x11 SLOAD DUP2 LT ISZERO PUSH2 0x278A JUMPI PUSH1 0x11 DUP2 DUP2 SLOAD DUP2 LT PUSH2 0x273F JUMPI PUSH2 0x273F PUSH2 0x5970 JUMP JUMPDEST PUSH1 0x0 SWAP2 DUP3 MSTORE PUSH1 0x20 SWAP1 SWAP2 KECCAK256 ADD SLOAD PUSH1 0x1 PUSH1 0x1 PUSH1 0xA0 SHL SUB SWAP1 DUP2 AND SWAP1 DUP5 AND SUB PUSH2 0x2782 JUMPI POP POP PUSH1 0x40 DUP1 MLOAD DUP1 DUP3 ADD SWAP1 SWAP2 MSTORE PUSH1 0x6 DUP2 MSTORE PUSH6 0x3330B936B2B9 PUSH1 0xD1 SHL PUSH1 0x20 DUP3 ADD MSTORE SWAP2 SWAP1 POP JUMP JUMPDEST PUSH1 0x1 ADD PUSH2 0x2722 JUMP JUMPDEST POP PUSH1 0x0 JUMPDEST PUSH1 0x12 SLOAD DUP2 LT ISZERO PUSH2 0x27FB JUMPI PUSH1 0x12 DUP2 DUP2 SLOAD DUP2 LT PUSH2 0x27AB JUMPI PUSH2 0x27AB PUSH2 0x5970 JUMP JUMPDEST PUSH1 0x0 SWAP2 DUP3 MSTORE PUSH1 0x20 SWAP1 SWAP2 KECCAK256 ADD SLOAD PUSH1 0x1 PUSH1 0x1 PUSH1 0xA0 SHL SUB SWAP1 DUP2 AND SWAP1 DUP5 AND SUB PUSH2 0x27F3 JUMPI POP POP PUSH1 0x40 DUP1 MLOAD DUP1 DUP3 ADD SWAP1 SWAP2 MSTORE PUSH1 0xB DUP2 MSTORE PUSH11 0x3A3930B739B837B93A32B9 PUSH1 0xA9 SHL PUSH1 0x20 DUP3 ADD MSTORE SWAP2 SWAP1 POP JUMP JUMPDEST PUSH1 0x1 ADD PUSH2 0x278E JUMP JUMPDEST POP PUSH1 0x0 JUMPDEST PUSH1 0x13 SLOAD DUP2 LT ISZERO PUSH2 0x286D JUMPI PUSH1 0x13 DUP2 DUP2 SLOAD DUP2 LT PUSH2 0x281C JUMPI PUSH2 0x281C PUSH2 0x5970 JUMP JUMPDEST PUSH1 0x0 SWAP2 DUP3 MSTORE PUSH1 0x20 SWAP1 SWAP2 KECCAK256 ADD SLOAD PUSH1 0x1 PUSH1 0x1 PUSH1 0xA0 SHL SUB SWAP1 DUP2 AND SWAP1 DUP5 AND SUB PUSH2 0x2865 JUMPI POP POP PUSH1 0x40 DUP1 MLOAD DUP1 DUP3 ADD SWAP1 SWAP2 MSTORE PUSH1 0xC DUP2 MSTORE PUSH12 0x39BA37B932A6B0B730B3B2B9 PUSH1 0xA1 SHL PUSH1 0x20 DUP3 ADD MSTORE SWAP2 SWAP1 POP JUMP JUMPDEST PUSH1 0x1 ADD PUSH2 0x27FF JUMP JUMPDEST POP POP PUSH1 0x40 DUP1 MLOAD DUP1 DUP3 ADD SWAP1 SWAP2 MSTORE PUSH1 0x4 DUP2 MSTORE PUSH4 0x6E6F6E65 PUSH1 0xE0 SHL PUSH1 0x20 DUP3 ADD MSTORE SWAP2 SWAP1 POP JUMP JUMPDEST PUSH1 0x0 DUP1 CALLER PUSH1 0x0 SWAP1 DUP2 MSTORE PUSH1 0x6 PUSH1 0x20 MSTORE PUSH1 0x40 SWAP1 KECCAK256 SLOAD PUSH1 0xFF AND PUSH1 0x2 DUP2 GT ISZERO PUSH2 0x28B6 JUMPI PUSH2 0x28B6 PUSH2 0x5247 JUMP JUMPDEST EQ PUSH2 0x28D3 JUMPI PUSH1 0x40 MLOAD PUSH3 0x461BCD PUSH1 0xE5 SHL DUP2 MSTORE PUSH1 0x4 ADD PUSH2 0x7F8 SWAP1 PUSH2 0x58FF JUMP JUMPDEST PUSH1 0x8 DUP1 SLOAD SWAP1 PUSH1 0x0 PUSH2 0x28E3 DUP4 PUSH2 0x5A0E JUMP JUMPDEST SWAP2 SWAP1 POP SSTORE POP PUSH1 0x40 MLOAD DUP1 PUSH2 0x100 ADD PUSH1 0x40 MSTORE DUP1 PUSH1 0x8 SLOAD DUP2 MSTORE PUSH1 0x20 ADD DUP7 DUP2 MSTORE PUSH1 0x20 ADD DUP8 DUP2 MSTORE PUSH1 0x20 ADD DUP6 DUP2 MSTORE PUSH1 0x20 ADD DUP5 DUP2 MSTORE PUSH1 0x20 ADD DUP4 DUP2 MSTORE PUSH1 0x20 ADD CALLER PUSH1 0x1 PUSH1 0x1 PUSH1 0xA0 SHL SUB AND DUP2 MSTORE PUSH1 0x20 ADD PUSH1 0x0 PUSH1 0x2 DUP2 GT ISZERO PUSH2 0x293C JUMPI PUSH2 0x293C PUSH2 0x5247 JUMP JUMPDEST SWAP1 MSTORE PUSH1 0x8 SLOAD PUSH1 0x0 SWAP1 DUP2 MSTORE PUSH1 0x4 PUSH1 0x20 SWAP1 DUP2 MSTORE PUSH1 0x40 SWAP1 SWAP2 KECCAK256 DUP3 MLOAD DUP2 SSTORE SWAP1 DUP3 ADD MLOAD PUSH1 0x1 DUP3 ADD SWAP1 PUSH2 0x2969 SWAP1 DUP3 PUSH2 0x5A76 JUMP JUMPDEST POP PUSH1 0x40 DUP3 ADD MLOAD PUSH1 0x2 DUP3 ADD SWAP1 PUSH2 0x297E SWAP1 DUP3 PUSH2 0x5A76 JUMP JUMPDEST POP PUSH1 0x60 DUP3 ADD MLOAD PUSH1 0x3 DUP3 ADD SSTORE PUSH1 0x80 DUP3 ADD MLOAD PUSH1 0x4 DUP3 ADD SSTORE PUSH1 0xA0 DUP3 ADD MLOAD PUSH1 0x5 DUP3 ADD SSTORE PUSH1 0xC0 DUP3 ADD MLOAD PUSH1 0x6 DUP3 ADD DUP1 SLOAD PUSH1 0x1 PUSH1 0x1 PUSH1 0xA0 SHL SUB SWAP1 SWAP3 AND PUSH1 0x1 PUSH1 0x1 PUSH1 0xA0 SHL SUB NOT DUP4 AND DUP2 OR DUP3 SSTORE PUSH1 0xE0 DUP6 ADD MLOAD SWAP3 PUSH1 0x1 PUSH1 0x1 PUSH1 0xA8 SHL SUB NOT AND OR PUSH1 0x1 PUSH1 0xA0 SHL DUP4 PUSH1 0x2 DUP2 GT ISZERO PUSH2 0x29EA JUMPI PUSH2 0x29EA PUSH2 0x5247 JUMP JUMPDEST MUL OR SWAP1 SSTORE POP POP POP POP POP POP POP POP POP JUMP JUMPDEST PUSH1 0x0 PUSH1 0x20 MSTORE DUP2 PUSH1 0x0 MSTORE PUSH1 0x40 PUSH1 0x0 KECCAK256 DUP2 DUP2 SLOAD DUP2 LT PUSH2 0x2A15 JUMPI PUSH1 0x0 DUP1 REVERT JUMPDEST PUSH1 0x0 SWAP2 DUP3 MSTORE PUSH1 0x20 SWAP1 SWAP2 KECCAK256 PUSH1 0x8 SWAP1 SWAP2 MUL ADD DUP1 SLOAD PUSH1 0x1 DUP3 ADD SLOAD PUSH1 0x2 DUP4 ADD DUP1 SLOAD SWAP3 SWAP6 POP PUSH1 0x1 PUSH1 0x1 PUSH1 0xA0 SHL SUB SWAP1 SWAP2 AND SWAP4 POP SWAP1 PUSH2 0x2A4C SWAP1 PUSH2 0x5936 JUMP JUMPDEST DUP1 PUSH1 0x1F ADD PUSH1 0x20 DUP1 SWAP2 DIV MUL PUSH1 0x20 ADD PUSH1 0x40 MLOAD SWAP1 DUP2 ADD PUSH1 0x40 MSTORE DUP1 SWAP3 SWAP2 SWAP1 DUP2 DUP2 MSTORE PUSH1 0x20 ADD DUP3 DUP1 SLOAD PUSH2 0x2A78 SWAP1 PUSH2 0x5936 JUMP JUMPDEST DUP1 ISZERO PUSH2 0x2AC5 JUMPI DUP1 PUSH1 0x1F LT PUSH2 0x2A9A JUMPI PUSH2 0x100 DUP1 DUP4 SLOAD DIV MUL DUP4 MSTORE SWAP2 PUSH1 0x20 ADD SWAP2 PUSH2 0x2AC5 JUMP JUMPDEST DUP3 ADD SWAP2 SWAP1 PUSH1 0x0 MSTORE PUSH1 0x20 PUSH1 0x0 KECCAK256 SWAP1 JUMPDEST DUP2 SLOAD DUP2 MSTORE SWAP1 PUSH1 0x1 ADD SWAP1 PUSH1 0x20 ADD DUP1 DUP4 GT PUSH2 0x2AA8 JUMPI DUP3 SWAP1 SUB PUSH1 0x1F AND DUP3 ADD SWAP2 JUMPDEST POP POP POP POP POP SWAP1 DUP1 PUSH1 0x3 ADD DUP1 SLOAD PUSH2 0x2ADA SWAP1 PUSH2 0x5936 JUMP JUMPDEST DUP1 PUSH1 0x1F ADD PUSH1 0x20 DUP1 SWAP2 DIV MUL PUSH1 0x20 ADD PUSH1 0x40 MLOAD SWAP1 DUP2 ADD PUSH1 0x40 MSTORE DUP1 SWAP3 SWAP2 SWAP1 DUP2 DUP2 MSTORE PUSH1 0x20 ADD DUP3 DUP1 SLOAD PUSH2 0x2B06 SWAP1 PUSH2 0x5936 JUMP JUMPDEST DUP1 ISZERO PUSH2 0x2B53 JUMPI DUP1 PUSH1 0x1F LT PUSH2 0x2B28 JUMPI PUSH2 0x100 DUP1 DUP4 SLOAD DIV MUL DUP4 MSTORE SWAP2 PUSH1 0x20 ADD SWAP2 PUSH2 0x2B53 JUMP JUMPDEST DUP3 ADD SWAP2 SWAP1 PUSH1 0x0 MSTORE PUSH1 0x20 PUSH1 0x0 KECCAK256 SWAP1 JUMPDEST DUP2 SLOAD DUP2 MSTORE SWAP1 PUSH1 0x1 ADD SWAP1 PUSH1 0x20 ADD DUP1 DUP4 GT PUSH2 0x2B36 JUMPI DUP3 SWAP1 SUB PUSH1 0x1F AND DUP3 ADD SWAP2 JUMPDEST POP POP POP PUSH1 0x4 DUP5 ADD SLOAD PUSH1 0x5 DUP6 ADD DUP1 SLOAD SWAP5 SWAP6 PUSH1 0x1 PUSH1 0x1 PUSH1 0xA0 SHL SUB SWAP1 SWAP3 AND SWAP5 SWAP2 SWAP4 POP SWAP2 POP PUSH2 0x2B7D SWAP1 PUSH2 0x5936 JUMP JUMPDEST DUP1 PUSH1 0x1F ADD PUSH1 0x20 DUP1 SWAP2 DIV MUL PUSH1 0x20 ADD PUSH1 0x40 MLOAD SWAP1 DUP2 ADD PUSH1 0x40 MSTORE DUP1 SWAP3 SWAP2 SWAP1 DUP2 DUP2 MSTORE PUSH1 0x20 ADD DUP3 DUP1 SLOAD PUSH2 0x2BA9 SWAP1 PUSH2 0x5936 JUMP JUMPDEST DUP1 ISZERO PUSH2 0x2BF6 JUMPI DUP1 PUSH1 0x1F LT PUSH2 0x2BCB JUMPI PUSH2 0x100 DUP1 DUP4 SLOAD DIV MUL DUP4 MSTORE SWAP2 PUSH1 0x20 ADD SWAP2 PUSH2 0x2BF6 JUMP JUMPDEST DUP3 ADD SWAP2 SWAP1 PUSH1 0x0 MSTORE PUSH1 0x20 PUSH1 0x0 KECCAK256 SWAP1 JUMPDEST DUP2 SLOAD DUP2 MSTORE SWAP1 PUSH1 0x1 ADD SWAP1 PUSH1 0x20 ADD DUP1 DUP4 GT PUSH2 0x2BD9 JUMPI DUP3 SWAP1 SUB PUSH1 0x1F AND DUP3 ADD SWAP2 JUMPDEST POP POP POP POP PUSH1 0x6 DUP4 ADD SLOAD PUSH1 0x7 SWAP1 SWAP4 ADD SLOAD SWAP2 SWAP3 PUSH1 0x1 PUSH1 0x1 PUSH1 0xA0 SHL SUB AND SWAP2 SWAP1 POP DUP9 JUMP JUMPDEST PUSH1 0x60 DUP1 PUSH1 0x0 DUP1 PUSH1 0x0 DUP1 PUSH1 0x0 DUP1 PUSH1 0x0 DUP1 PUSH1 0x7 PUSH1 0x0 DUP13 DUP2 MSTORE PUSH1 0x20 ADD SWAP1 DUP2 MSTORE PUSH1 0x20 ADD PUSH1 0x0 KECCAK256 PUSH1 0x40 MLOAD DUP1 PUSH2 0x120 ADD PUSH1 0x40 MSTORE SWAP1 DUP2 PUSH1 0x0 DUP3 ADD DUP1 SLOAD PUSH2 0x2C54 SWAP1 PUSH2 0x5936 JUMP JUMPDEST DUP1 PUSH1 0x1F ADD PUSH1 0x20 DUP1 SWAP2 DIV MUL PUSH1 0x20 ADD PUSH1 0x40 MLOAD SWAP1 DUP2 ADD PUSH1 0x40 MSTORE DUP1 SWAP3 SWAP2 SWAP1 DUP2 DUP2 MSTORE PUSH1 0x20 ADD DUP3 DUP1 SLOAD PUSH2 0x2C80 SWAP1 PUSH2 0x5936 JUMP JUMPDEST DUP1 ISZERO PUSH2 0x2CCD JUMPI DUP1 PUSH1 0x1F LT PUSH2 0x2CA2 JUMPI PUSH2 0x100 DUP1 DUP4 SLOAD DIV MUL DUP4 MSTORE SWAP2 PUSH1 0x20 ADD SWAP2 PUSH2 0x2CCD JUMP JUMPDEST DUP3 ADD SWAP2 SWAP1 PUSH1 0x0 MSTORE PUSH1 0x20 PUSH1 0x0 KECCAK256 SWAP1 JUMPDEST DUP2 SLOAD DUP2 MSTORE SWAP1 PUSH1 0x1 ADD SWAP1 PUSH1 0x20 ADD DUP1 DUP4 GT PUSH2 0x2CB0 JUMPI DUP3 SWAP1 SUB PUSH1 0x1F AND DUP3 ADD SWAP2 JUMPDEST POP POP POP POP POP DUP2 MSTORE PUSH1 0x20 ADD PUSH1 0x1 DUP3 ADD DUP1 SLOAD PUSH2 0x2CE6 SWAP1 PUSH2 0x5936 JUMP JUMPDEST DUP1 PUSH1 0x1F ADD PUSH1 0x20 DUP1 SWAP2 DIV MUL PUSH1 0x20 ADD PUSH1 0x40 MLOAD SWAP1 DUP2 ADD PUSH1 0x40 MSTORE DUP1 SWAP3 SWAP2 SWAP1 DUP2 DUP2 MSTORE PUSH1 0x20 ADD DUP3 DUP1 SLOAD PUSH2 0x2D12 SWAP1 PUSH2 0x5936 JUMP JUMPDEST DUP1 ISZERO PUSH2 0x2D5F JUMPI DUP1 PUSH1 0x1F LT PUSH2 0x2D34 JUMPI PUSH2 0x100 DUP1 DUP4 SLOAD DIV MUL DUP4 MSTORE SWAP2 PUSH1 0x20 ADD SWAP2 PUSH2 0x2D5F JUMP JUMPDEST DUP3 ADD SWAP2 SWAP1 PUSH1 0x0 MSTORE PUSH1 0x20 PUSH1 0x0 KECCAK256 SWAP1 JUMPDEST DUP2 SLOAD DUP2 MSTORE SWAP1 PUSH1 0x1 ADD SWAP1 PUSH1 0x20 ADD DUP1 DUP4 GT PUSH2 0x2D42 JUMPI DUP3 SWAP1 SUB PUSH1 0x1F AND DUP3 ADD SWAP2 JUMPDEST POP POP POP POP POP DUP2 MSTORE PUSH1 0x20 ADD PUSH1 0x2 DUP3 ADD PUSH1 0x0 SWAP1 SLOAD SWAP1 PUSH2 0x100 EXP SWAP1 DIV PUSH1 0x1 PUSH1 0x1 PUSH1 0xA0 SHL SUB AND PUSH1 0x1 PUSH1 0x1 PUSH1 0xA0 SHL SUB AND PUSH1 0x1 PUSH1 0x1 PUSH1 0xA0 SHL SUB AND DUP2 MSTORE PUSH1 0x20 ADD PUSH1 0x3 DUP3 ADD PUSH1 0x0 SWAP1 SLOAD SWAP1 PUSH2 0x100 EXP SWAP1 DIV PUSH1 0x1 PUSH1 0x1 PUSH1 0xA0 SHL SUB AND PUSH1 0x1 PUSH1 0x1 PUSH1 0xA0 SHL SUB AND PUSH1 0x1 PUSH1 0x1 PUSH1 0xA0 SHL SUB AND DUP2 MSTORE PUSH1 0x20 ADD PUSH1 0x4 DUP3 ADD PUSH1 0x0 SWAP1 SLOAD SWAP1 PUSH2 0x100 EXP SWAP1 DIV PUSH1 0x1 PUSH1 0x1 PUSH1 0xA0 SHL SUB AND PUSH1 0x1 PUSH1 0x1 PUSH1 0xA0 SHL SUB AND PUSH1 0x1 PUSH1 0x1 PUSH1 0xA0 SHL SUB AND DUP2 MSTORE PUSH1 0x20 ADD PUSH1 0x5 DUP3 ADD SLOAD DUP2 MSTORE PUSH1 0x20 ADD PUSH1 0x6 DUP3 ADD SLOAD DUP2 MSTORE PUSH1 0x20 ADD PUSH1 0x7 DUP3 ADD SLOAD DUP2 MSTORE PUSH1 0x20 ADD PUSH1 0x8 DUP3 ADD SLOAD DUP2 MSTORE POP POP SWAP1 POP DUP1 PUSH1 0x0 ADD MLOAD DUP2 PUSH1 0x20 ADD MLOAD DUP3 PUSH1 0x40 ADD MLOAD DUP4 PUSH1 0x60 ADD MLOAD DUP5 PUSH1 0x80 ADD MLOAD DUP6 PUSH1 0xA0 ADD MLOAD DUP7 PUSH1 0xC0 ADD MLOAD DUP8 PUSH1 0xE0 ADD MLOAD DUP9 PUSH2 0x100 ADD MLOAD SWAP10 POP SWAP10 POP SWAP10 POP SWAP10 POP SWAP10 POP SWAP10 POP SWAP10 POP SWAP10 POP SWAP10 POP POP SWAP2 SWAP4 SWAP6 SWAP8 SWAP10 SWAP1 SWAP3 SWAP5 SWAP7 SWAP9 POP JUMP JUMPDEST PUSH1 0xE PUSH1 0x20 MSTORE PUSH1 0x0 SWAP1 DUP2 MSTORE PUSH1 0x40 SWAP1 KECCAK256 DUP1 SLOAD PUSH1 0x1 DUP3 ADD DUP1 SLOAD PUSH1 0x1 PUSH1 0x1 PUSH1 0xA0 SHL SUB SWAP1 SWAP3 AND SWAP3 SWAP2 PUSH2 0x2E99 SWAP1 PUSH2 0x5936 JUMP JUMPDEST DUP1 PUSH1 0x1F ADD PUSH1 0x20 DUP1 SWAP2 DIV MUL PUSH1 0x20 ADD PUSH1 0x40 MLOAD SWAP1 DUP2 ADD PUSH1 0x40 MSTORE DUP1 SWAP3 SWAP2 SWAP1 DUP2 DUP2 MSTORE PUSH1 0x20 ADD DUP3 DUP1 SLOAD PUSH2 0x2EC5 SWAP1 PUSH2 0x5936 JUMP JUMPDEST DUP1 ISZERO PUSH2 0x2F12 JUMPI DUP1 PUSH1 0x1F LT PUSH2 0x2EE7 JUMPI PUSH2 0x100 DUP1 DUP4 SLOAD DIV MUL DUP4 MSTORE SWAP2 PUSH1 0x20 ADD SWAP2 PUSH2 0x2F12 JUMP JUMPDEST DUP3 ADD SWAP2 SWAP1 PUSH1 0x0 MSTORE PUSH1 0x20 PUSH1 0x0 KECCAK256 SWAP1 JUMPDEST DUP2 SLOAD DUP2 MSTORE SWAP1 PUSH1 0x1 ADD SWAP1 PUSH1 0x20 ADD DUP1 DUP4 GT PUSH2 0x2EF5 JUMPI DUP3 SWAP1 SUB PUSH1 0x1F AND DUP3 ADD SWAP2 JUMPDEST POP POP POP POP POP SWAP1 DUP1 PUSH1 0x2 ADD DUP1 SLOAD PUSH2 0x2F27 SWAP1 PUSH2 0x5936 JUMP JUMPDEST DUP1 PUSH1 0x1F ADD PUSH1 0x20 DUP1 SWAP2 DIV MUL PUSH1 0x20 ADD PUSH1 0x40 MLOAD SWAP1 DUP2 ADD PUSH1 0x40 MSTORE DUP1 SWAP3 SWAP2 SWAP1 DUP2 DUP2 MSTORE PUSH1 0x20 ADD DUP3 DUP1 SLOAD PUSH2 0x2F53 SWAP1 PUSH2 0x5936 JUMP JUMPDEST DUP1 ISZERO PUSH2 0x2FA0 JUMPI DUP1 PUSH1 0x1F LT PUSH2 0x2F75 JUMPI PUSH2 0x100 DUP1 DUP4 SLOAD DIV MUL DUP4 MSTORE SWAP2 PUSH1 0x20 ADD SWAP2 PUSH2 0x2FA0 JUMP JUMPDEST DUP3 ADD SWAP2 SWAP1 PUSH1 0x0 MSTORE PUSH1 0x20 PUSH1 0x0 KECCAK256 SWAP1 JUMPDEST DUP2 SLOAD DUP2 MSTORE SWAP1 PUSH1 0x1 ADD SWAP1 PUSH1 0x20 ADD DUP1 DUP4 GT PUSH2 0x2F83 JUMPI DUP3 SWAP1 SUB PUSH1 0x1F AND DUP3 ADD SWAP2 JUMPDEST POP POP POP POP PUSH1 0x3 DUP4 ADD SLOAD PUSH1 0x4 SWAP1 SWAP4 ADD SLOAD SWAP2 SWAP3 SWAP2 PUSH1 0xFF AND SWAP1 POP DUP6 JUMP JUMPDEST PUSH1 0x0 PUSH1 0x60 DUP1 PUSH1 0x0 DUP1 PUSH1 0xF DUP1 SLOAD SWAP1 POP DUP7 LT PUSH2 0x300C JUMPI PUSH1 0x40 MLOAD PUSH3 0x461BCD PUSH1 0xE5 SHL DUP2 MSTORE PUSH1 0x20 PUSH1 0x4 DUP3 ADD MSTORE PUSH1 0x13 PUSH1 0x24 DUP3 ADD MSTORE PUSH19 0x496E646578206F7574206F6620626F756E6473 PUSH1 0x68 SHL PUSH1 0x44 DUP3 ADD MSTORE PUSH1 0x64 ADD PUSH2 0x7F8 JUMP JUMPDEST PUSH1 0x0 PUSH1 0xF DUP8 DUP2 SLOAD DUP2 LT PUSH2 0x3021 JUMPI PUSH2 0x3021 PUSH2 0x5970 JUMP JUMPDEST PUSH1 0x0 SWAP2 DUP3 MSTORE PUSH1 0x20 DUP1 DUP4 KECCAK256 SWAP1 SWAP2 ADD SLOAD PUSH1 0x1 PUSH1 0x1 PUSH1 0xA0 SHL SUB SWAP1 DUP2 AND DUP1 DUP5 MSTORE PUSH1 0xE DUP4 MSTORE PUSH1 0x40 DUP1 DUP6 KECCAK256 DUP2 MLOAD PUSH1 0xA0 DUP2 ADD SWAP1 SWAP3 MSTORE DUP1 SLOAD SWAP1 SWAP4 AND DUP2 MSTORE PUSH1 0x1 DUP4 ADD DUP1 SLOAD SWAP3 SWAP7 POP SWAP1 SWAP4 DUP5 ADD SWAP2 PUSH2 0x306D SWAP1 PUSH2 0x5936 JUMP JUMPDEST DUP1 PUSH1 0x1F ADD PUSH1 0x20 DUP1 SWAP2 DIV MUL PUSH1 0x20 ADD PUSH1 0x40 MLOAD SWAP1 DUP2 ADD PUSH1 0x40 MSTORE DUP1 SWAP3 SWAP2 SWAP1 DUP2 DUP2 MSTORE PUSH1 0x20 ADD DUP3 DUP1 SLOAD PUSH2 0x3099 SWAP1 PUSH2 0x5936 JUMP JUMPDEST DUP1 ISZERO PUSH2 0x30E6 JUMPI DUP1 PUSH1 0x1F LT PUSH2 0x30BB JUMPI PUSH2 0x100 DUP1 DUP4 SLOAD DIV MUL DUP4 MSTORE SWAP2 PUSH1 0x20 ADD SWAP2 PUSH2 0x30E6 JUMP JUMPDEST DUP3 ADD SWAP2 SWAP1 PUSH1 0x0 MSTORE PUSH1 0x20 PUSH1 0x0 KECCAK256 SWAP1 JUMPDEST DUP2 SLOAD DUP2 MSTORE SWAP1 PUSH1 0x1 ADD SWAP1 PUSH1 0x20 ADD DUP1 DUP4 GT PUSH2 0x30C9 JUMPI DUP3 SWAP1 SUB PUSH1 0x1F AND DUP3 ADD SWAP2 JUMPDEST POP POP POP POP POP DUP2 MSTORE PUSH1 0x20 ADD PUSH1 0x2 DUP3 ADD DUP1 SLOAD PUSH2 0x30FF SWAP1 PUSH2 0x5936 JUMP JUMPDEST DUP1 PUSH1 0x1F ADD PUSH1 0x20 DUP1 SWAP2 DIV MUL PUSH1 0x20 ADD PUSH1 0x40 MLOAD SWAP1 DUP2 ADD PUSH1 0x40 MSTORE DUP1 SWAP3 SWAP2 SWAP1 DUP2 DUP2 MSTORE PUSH1 0x20 ADD DUP3 DUP1 SLOAD PUSH2 0x312B SWAP1 PUSH2 0x5936 JUMP JUMPDEST DUP1 ISZERO PUSH2 0x3178 JUMPI DUP1 PUSH1 0x1F LT PUSH2 0x314D JUMPI PUSH2 0x100 DUP1 DUP4 SLOAD DIV MUL DUP4 MSTORE SWAP2 PUSH1 0x20 ADD SWAP2 PUSH2 0x3178 JUMP JUMPDEST DUP3 ADD SWAP2 SWAP1 PUSH1 0x0 MSTORE PUSH1 0x20 PUSH1 0x0 KECCAK256 SWAP1 JUMPDEST DUP2 SLOAD DUP2 MSTORE SWAP1 PUSH1 0x1 ADD SWAP1 PUSH1 0x20 ADD DUP1 DUP4 GT PUSH2 0x315B JUMPI DUP3 SWAP1 SUB PUSH1 0x1F AND DUP3 ADD SWAP2 JUMPDEST POP POP POP SWAP2 DUP4 MSTORE POP POP PUSH1 0x3 DUP3 ADD SLOAD PUSH1 0x20 DUP3 ADD MSTORE PUSH1 0x4 DUP3 ADD SLOAD PUSH1 0x40 SWAP1 SWAP2 ADD SWAP1 PUSH1 0xFF AND PUSH1 0x2 DUP2 GT ISZERO PUSH2 0x31A9 JUMPI PUSH2 0x31A9 PUSH2 0x5247 JUMP JUMPDEST PUSH1 0x2 DUP2 GT ISZERO PUSH2 0x31BA JUMPI PUSH2 0x31BA PUSH2 0x5247 JUMP JUMPDEST SWAP1 MSTORE POP DUP1 MLOAD PUSH1 0x20 DUP3 ADD MLOAD PUSH1 0x40 DUP4 ADD MLOAD PUSH1 0x60 DUP5 ADD MLOAD PUSH1 0x80 SWAP1 SWAP5 ADD MLOAD SWAP3 SWAP13 SWAP2 SWAP12 POP SWAP10 POP SWAP2 SWAP8 POP SWAP6 POP SWAP4 POP POP POP POP JUMP JUMPDEST PUSH1 0x0 PUSH1 0x60 DUP1 PUSH1 0x0 DUP1 PUSH1 0x0 PUSH1 0x60 DUP1 PUSH1 0x0 DUP1 PUSH1 0x0 PUSH1 0x3 PUSH1 0x0 DUP14 DUP2 MSTORE PUSH1 0x20 ADD SWAP1 DUP2 MSTORE PUSH1 0x20 ADD PUSH1 0x0 KECCAK256 PUSH1 0x40 MLOAD DUP1 PUSH2 0x140 ADD PUSH1 0x40 MSTORE SWAP1 DUP2 PUSH1 0x0 DUP3 ADD SLOAD DUP2 MSTORE PUSH1 0x20 ADD PUSH1 0x1 DUP3 ADD DUP1 SLOAD PUSH2 0x3232 SWAP1 PUSH2 0x5936 JUMP JUMPDEST DUP1 PUSH1 0x1F ADD PUSH1 0x20 DUP1 SWAP2 DIV MUL PUSH1 0x20 ADD PUSH1 0x40 MLOAD SWAP1 DUP2 ADD PUSH1 0x40 MSTORE DUP1 SWAP3 SWAP2 SWAP1 DUP2 DUP2 MSTORE PUSH1 0x20 ADD DUP3 DUP1 SLOAD PUSH2 0x325E SWAP1 PUSH2 0x5936 JUMP JUMPDEST DUP1 ISZERO PUSH2 0x32AB JUMPI DUP1 PUSH1 0x1F LT PUSH2 0x3280 JUMPI PUSH2 0x100 DUP1 DUP4 SLOAD DIV MUL DUP4 MSTORE SWAP2 PUSH1 0x20 ADD SWAP2 PUSH2 0x32AB JUMP JUMPDEST DUP3 ADD SWAP2 SWAP1 PUSH1 0x0 MSTORE PUSH1 0x20 PUSH1 0x0 KECCAK256 SWAP1 JUMPDEST DUP2 SLOAD DUP2 MSTORE SWAP1 PUSH1 0x1 ADD SWAP1 PUSH1 0x20 ADD DUP1 DUP4 GT PUSH2 0x328E JUMPI DUP3 SWAP1 SUB PUSH1 0x1F AND DUP3 ADD SWAP2 JUMPDEST POP POP POP POP POP DUP2 MSTORE PUSH1 0x20 ADD PUSH1 0x2 DUP3 ADD DUP1 SLOAD PUSH2 0x32C4 SWAP1 PUSH2 0x5936 JUMP JUMPDEST DUP1 PUSH1 0x1F ADD PUSH1 0x20 DUP1 SWAP2 DIV MUL PUSH1 0x20 ADD PUSH1 0x40 MLOAD SWAP1 DUP2 ADD PUSH1 0x40 MSTORE DUP1 SWAP3 SWAP2 SWAP1 DUP2 DUP2 MSTORE PUSH1 0x20 ADD DUP3 DUP1 SLOAD PUSH2 0x32F0 SWAP1 PUSH2 0x5936 JUMP JUMPDEST DUP1 ISZERO PUSH2 0x333D JUMPI DUP1 PUSH1 0x1F LT PUSH2 0x3312 JUMPI PUSH2 0x100 DUP1 DUP4 SLOAD DIV MUL DUP4 MSTORE SWAP2 PUSH1 0x20 ADD SWAP2 PUSH2 0x333D JUMP JUMPDEST DUP3 ADD SWAP2 SWAP1 PUSH1 0x0 MSTORE PUSH1 0x20 PUSH1 0x0 KECCAK256 SWAP1 JUMPDEST DUP2 SLOAD DUP2 MSTORE SWAP1 PUSH1 0x1 ADD SWAP1 PUSH1 0x20 ADD DUP1 DUP4 GT PUSH2 0x3320 JUMPI DUP3 SWAP1 SUB PUSH1 0x1F AND DUP3 ADD SWAP2 JUMPDEST POP POP POP SWAP2 DUP4 MSTORE POP POP PUSH1 0x3 DUP3 ADD SLOAD PUSH1 0x1 PUSH1 0x1 PUSH1 0xA0 SHL SUB SWAP1 DUP2 AND PUSH1 0x20 DUP4 ADD MSTORE PUSH1 0x4 DUP4 ADD SLOAD DUP2 AND PUSH1 0x40 DUP4 ADD MSTORE PUSH1 0x5 DUP4 ADD SLOAD AND PUSH1 0x60 DUP3 ADD MSTORE PUSH1 0x6 DUP3 ADD DUP1 SLOAD PUSH1 0x80 SWAP1 SWAP3 ADD SWAP2 PUSH2 0x3386 SWAP1 PUSH2 0x5936 JUMP JUMPDEST DUP1 PUSH1 0x1F ADD PUSH1 0x20 DUP1 SWAP2 DIV MUL PUSH1 0x20 ADD PUSH1 0x40 MLOAD SWAP1 DUP2 ADD PUSH1 0x40 MSTORE DUP1 SWAP3 SWAP2 SWAP1 DUP2 DUP2 MSTORE PUSH1 0x20 ADD DUP3 DUP1 SLOAD PUSH2 0x33B2 SWAP1 PUSH2 0x5936 JUMP JUMPDEST DUP1 ISZERO PUSH2 0x33FF JUMPI DUP1 PUSH1 0x1F LT PUSH2 0x33D4 JUMPI PUSH2 0x100 DUP1 DUP4 SLOAD DIV MUL DUP4 MSTORE SWAP2 PUSH1 0x20 ADD SWAP2 PUSH2 0x33FF JUMP JUMPDEST DUP3 ADD SWAP2 SWAP1 PUSH1 0x0 MSTORE PUSH1 0x20 PUSH1 0x0 KECCAK256 SWAP1 JUMPDEST DUP2 SLOAD DUP2 MSTORE SWAP1 PUSH1 0x1 ADD SWAP1 PUSH1 0x20 ADD DUP1 DUP4 GT PUSH2 0x33E2 JUMPI DUP3 SWAP1 SUB PUSH1 0x1F AND DUP3 ADD SWAP2 JUMPDEST POP POP POP POP POP DUP2 MSTORE PUSH1 0x20 ADD PUSH1 0x7 DUP3 ADD DUP1 SLOAD PUSH2 0x3418 SWAP1 PUSH2 0x5936 JUMP JUMPDEST DUP1 PUSH1 0x1F ADD PUSH1 0x20 DUP1 SWAP2 DIV MUL PUSH1 0x20 ADD PUSH1 0x40 MLOAD SWAP1 DUP2 ADD PUSH1 0x40 MSTORE DUP1 SWAP3 SWAP2 SWAP1 DUP2 DUP2 MSTORE PUSH1 0x20 ADD DUP3 DUP1 SLOAD PUSH2 0x3444 SWAP1 PUSH2 0x5936 JUMP JUMPDEST DUP1 ISZERO PUSH2 0x3491 JUMPI DUP1 PUSH1 0x1F LT PUSH2 0x3466 JUMPI PUSH2 0x100 DUP1 DUP4 SLOAD DIV MUL DUP4 MSTORE SWAP2 PUSH1 0x20 ADD SWAP2 PUSH2 0x3491 JUMP JUMPDEST DUP3 ADD SWAP2 SWAP1 PUSH1 0x0 MSTORE PUSH1 0x20 PUSH1 0x0 KECCAK256 SWAP1 JUMPDEST DUP2 SLOAD DUP2 MSTORE SWAP1 PUSH1 0x1 ADD SWAP1 PUSH1 0x20 ADD DUP1 DUP4 GT PUSH2 0x3474 JUMPI DUP3 SWAP1 SUB PUSH1 0x1F AND DUP3 ADD SWAP2 JUMPDEST POP POP POP SWAP2 DUP4 MSTORE POP POP PUSH1 0x8 DUP3 ADD SLOAD PUSH1 0x20 DUP3 ADD MSTORE PUSH1 0x9 DUP3 ADD SLOAD PUSH1 0x40 SWAP1 SWAP2 ADD SWAP1 PUSH1 0xFF AND PUSH1 0x2 DUP2 GT ISZERO PUSH2 0x34C2 JUMPI PUSH2 0x34C2 PUSH2 0x5247 JUMP JUMPDEST PUSH1 0x2 DUP2 GT ISZERO PUSH2 0x34D3 JUMPI PUSH2 0x34D3 PUSH2 0x5247 JUMP JUMPDEST DUP2 MSTORE POP POP SWAP1 POP DUP1 PUSH1 0x0 ADD MLOAD DUP2 PUSH1 0x20 ADD MLOAD DUP3 PUSH1 0x40 ADD MLOAD DUP4 PUSH1 0x60 ADD MLOAD DUP5 PUSH1 0x80 ADD MLOAD DUP6 PUSH1 0xA0 ADD MLOAD DUP7 PUSH1 0xC0 ADD MLOAD DUP8 PUSH1 0xE0 ADD MLOAD DUP9 PUSH2 0x100 ADD MLOAD DUP10 PUSH2 0x120 ADD MLOAD SWAP11 POP SWAP11 POP SWAP11 POP SWAP11 POP SWAP11 POP SWAP11 POP SWAP11 POP SWAP11 POP SWAP11 POP SWAP11 POP POP SWAP2 SWAP4 SWAP6 SWAP8 SWAP10 POP SWAP2 SWAP4 SWAP6 SWAP8 SWAP10 JUMP JUMPDEST PUSH1 0xD SLOAD PUSH1 0x1 PUSH1 0x1 PUSH1 0xA0 SHL SUB AND CALLER EQ PUSH2 0x3559 JUMPI PUSH1 0x40 MLOAD PUSH3 0x461BCD PUSH1 0xE5 SHL DUP2 MSTORE PUSH1 0x4 ADD PUSH2 0x7F8 SWAP1 PUSH2 0x5986 JUMP JUMPDEST PUSH1 0x0 DUP2 DUP2 MSTORE PUSH1 0x5 PUSH1 0x20 MSTORE PUSH1 0x40 SWAP1 KECCAK256 PUSH1 0x3 ADD SLOAD PUSH3 0x10000 SWAP1 DIV PUSH1 0xFF AND PUSH2 0x35AF JUMPI PUSH1 0x40 MLOAD PUSH3 0x461BCD PUSH1 0xE5 SHL DUP2 MSTORE PUSH1 0x20 PUSH1 0x4 DUP3 ADD MSTORE PUSH1 0xC PUSH1 0x24 DUP3 ADD MSTORE PUSH12 0x37379039BAB1B4103AB9B2B9 PUSH1 0xA1 SHL PUSH1 0x44 DUP3 ADD MSTORE PUSH1 0x64 ADD PUSH2 0x7F8 JUMP JUMPDEST PUSH1 0x0 DUP2 DUP2 MSTORE PUSH1 0x5 PUSH1 0x20 MSTORE PUSH1 0x40 SWAP1 KECCAK256 PUSH1 0x3 ADD SLOAD PUSH2 0x100 SWAP1 DIV PUSH1 0xFF AND ISZERO PUSH2 0x3616 JUMPI PUSH1 0x40 MLOAD PUSH3 0x461BCD PUSH1 0xE5 SHL DUP2 MSTORE PUSH1 0x20 PUSH1 0x4 DUP3 ADD MSTORE PUSH1 0x18 PUSH1 0x24 DUP3 ADD MSTORE PUSH32 0x7265717565737420616C726561647920617070726F7665640000000000000000 PUSH1 0x44 DUP3 ADD MSTORE PUSH1 0x64 ADD PUSH2 0x7F8 JUMP JUMPDEST PUSH1 0x0 DUP2 DUP2 MSTORE PUSH1 0x5 PUSH1 0x20 SWAP1 DUP2 MSTORE PUSH1 0x40 SWAP2 DUP3 SWAP1 KECCAK256 DUP3 MLOAD PUSH1 0xA0 DUP2 ADD SWAP1 SWAP4 MSTORE DUP1 SLOAD PUSH1 0x1 PUSH1 0x1 PUSH1 0xA0 SHL SUB AND DUP4 MSTORE PUSH1 0x1 DUP2 ADD DUP1 SLOAD SWAP2 SWAP4 SWAP3 DUP4 ADD SWAP2 PUSH2 0x3653 SWAP1 PUSH2 0x5936 JUMP JUMPDEST DUP1 PUSH1 0x1F ADD PUSH1 0x20 DUP1 SWAP2 DIV MUL PUSH1 0x20 ADD PUSH1 0x40 MLOAD SWAP1 DUP2 ADD PUSH1 0x40 MSTORE DUP1 SWAP3 SWAP2 SWAP1 DUP2 DUP2 MSTORE PUSH1 0x20 ADD DUP3 DUP1 SLOAD PUSH2 0x367F SWAP1 PUSH2 0x5936 JUMP JUMPDEST DUP1 ISZERO PUSH2 0x36CC JUMPI DUP1 PUSH1 0x1F LT PUSH2 0x36A1 JUMPI PUSH2 0x100 DUP1 DUP4 SLOAD DIV MUL DUP4 MSTORE SWAP2 PUSH1 0x20 ADD SWAP2 PUSH2 0x36CC JUMP JUMPDEST DUP3 ADD SWAP2 SWAP1 PUSH1 0x0 MSTORE PUSH1 0x20 PUSH1 0x0 KECCAK256 SWAP1 JUMPDEST DUP2 SLOAD DUP2 MSTORE SWAP1 PUSH1 0x1 ADD SWAP1 PUSH1 0x20 ADD DUP1 DUP4 GT PUSH2 0x36AF JUMPI DUP3 SWAP1 SUB PUSH1 0x1F AND DUP3 ADD SWAP2 JUMPDEST POP POP POP POP POP DUP2 MSTORE PUSH1 0x20 ADD DUP3 PUSH1 0x2 ADD DUP1 SLOAD PUSH2 0x36E5 SWAP1 PUSH2 0x5936 JUMP JUMPDEST DUP1 PUSH1 0x1F ADD PUSH1 0x20 DUP1 SWAP2 DIV MUL PUSH1 0x20 ADD PUSH1 0x40 MLOAD SWAP1 DUP2 ADD PUSH1 0x40 MSTORE DUP1 SWAP3 SWAP2 SWAP1 DUP2 DUP2 MSTORE PUSH1 0x20 ADD DUP3 DUP1 SLOAD PUSH2 0x3711 SWAP1 PUSH2 0x5936 JUMP JUMPDEST DUP1 ISZERO PUSH2 0x375E JUMPI DUP1 PUSH1 0x1F LT PUSH2 0x3733 JUMPI PUSH2 0x100 DUP1 DUP4 SLOAD DIV MUL DUP4 MSTORE SWAP2 PUSH1 0x20 ADD SWAP2 PUSH2 0x375E JUMP JUMPDEST DUP3 ADD SWAP2 SWAP1 PUSH1 0x0 MSTORE PUSH1 0x20 PUSH1 0x0 KECCAK256 SWAP1 JUMPDEST DUP2 SLOAD DUP2 MSTORE SWAP1 PUSH1 0x1 ADD SWAP1 PUSH1 0x20 ADD DUP1 DUP4 GT PUSH2 0x3741 JUMPI DUP3 SWAP1 SUB PUSH1 0x1F AND DUP3 ADD SWAP2 JUMPDEST POP POP POP SWAP2 DUP4 MSTORE POP POP PUSH1 0x0 PUSH1 0x20 DUP3 ADD MSTORE PUSH1 0x3 DUP4 ADD SLOAD PUSH1 0x40 SWAP1 SWAP2 ADD SWAP1 PUSH1 0xFF AND PUSH1 0x2 DUP2 GT ISZERO PUSH2 0x378C JUMPI PUSH2 0x378C PUSH2 0x5247 JUMP JUMPDEST SWAP1 MSTORE DUP2 SLOAD PUSH1 0x1 PUSH1 0x1 PUSH1 0xA0 SHL SUB SWAP1 DUP2 AND PUSH1 0x0 SWAP1 DUP2 MSTORE PUSH1 0xE PUSH1 0x20 SWAP1 DUP2 MSTORE PUSH1 0x40 SWAP1 SWAP2 KECCAK256 DUP4 MLOAD DUP2 SLOAD PUSH1 0x1 PUSH1 0x1 PUSH1 0xA0 SHL SUB NOT AND SWAP4 AND SWAP3 SWAP1 SWAP3 OR DUP3 SSTORE DUP3 ADD MLOAD PUSH1 0x1 DUP3 ADD SWAP1 PUSH2 0x37D4 SWAP1 DUP3 PUSH2 0x5A76 JUMP JUMPDEST POP PUSH1 0x40 DUP3 ADD MLOAD PUSH1 0x2 DUP3 ADD SWAP1 PUSH2 0x37E9 SWAP1 DUP3 PUSH2 0x5A76 JUMP JUMPDEST POP PUSH1 0x60 DUP3 ADD MLOAD PUSH1 0x3 DUP3 ADD SSTORE PUSH1 0x80 DUP3 ADD MLOAD PUSH1 0x4 DUP3 ADD DUP1 SLOAD PUSH1 0xFF NOT AND PUSH1 0x1 DUP4 PUSH1 0x2 DUP2 GT ISZERO PUSH2 0x3817 JUMPI PUSH2 0x3817 PUSH2 0x5247 JUMP JUMPDEST MUL OR SWAP1 SSTORE POP POP POP PUSH1 0x3 DUP2 ADD SLOAD DUP2 SLOAD PUSH1 0x1 PUSH1 0x1 PUSH1 0xA0 SHL SUB AND PUSH1 0x0 SWAP1 DUP2 MSTORE PUSH1 0x6 PUSH1 0x20 MSTORE PUSH1 0x40 SWAP1 KECCAK256 DUP1 SLOAD PUSH1 0xFF SWAP1 SWAP3 AND SWAP2 PUSH1 0xFF NOT AND PUSH1 0x1 DUP4 PUSH1 0x2 DUP2 GT ISZERO PUSH2 0x385C JUMPI PUSH2 0x385C PUSH2 0x5247 JUMP JUMPDEST MUL OR SWAP1 SSTORE POP PUSH1 0x0 PUSH1 0x3 DUP3 ADD SLOAD PUSH1 0xFF AND PUSH1 0x2 DUP2 GT ISZERO PUSH2 0x387C JUMPI PUSH2 0x387C PUSH2 0x5247 JUMP JUMPDEST SUB PUSH2 0x38D3 JUMPI DUP1 SLOAD PUSH1 0x11 DUP1 SLOAD PUSH1 0x1 DUP2 ADD DUP3 SSTORE PUSH1 0x0 SWAP2 SWAP1 SWAP2 MSTORE PUSH32 0x31ECC21A745E3968A04E9570E4425BC18FA8019C68028196B546D1669C200C68 ADD DUP1 SLOAD PUSH1 0x1 PUSH1 0x1 PUSH1 0xA0 SHL SUB NOT AND PUSH1 0x1 PUSH1 0x1 PUSH1 0xA0 SHL SUB SWAP1 SWAP3 AND SWAP2 SWAP1 SWAP2 OR SWAP1 SSTORE JUMPDEST PUSH1 0x1 PUSH1 0x3 DUP3 ADD SLOAD PUSH1 0xFF AND PUSH1 0x2 DUP2 GT ISZERO PUSH2 0x38EE JUMPI PUSH2 0x38EE PUSH2 0x5247 JUMP JUMPDEST SUB PUSH2 0x3945 JUMPI DUP1 SLOAD PUSH1 0x12 DUP1 SLOAD PUSH1 0x1 DUP2 ADD DUP3 SSTORE PUSH1 0x0 SWAP2 SWAP1 SWAP2 MSTORE PUSH32 0xBB8A6A4669BA250D26CD7A459ECA9D215F8307E33AEBE50379BC5A3617EC3444 ADD DUP1 SLOAD PUSH1 0x1 PUSH1 0x1 PUSH1 0xA0 SHL SUB NOT AND PUSH1 0x1 PUSH1 0x1 PUSH1 0xA0 SHL SUB SWAP1 SWAP3 AND SWAP2 SWAP1 SWAP2 OR SWAP1 SSTORE JUMPDEST PUSH1 0x2 PUSH1 0x3 DUP3 ADD SLOAD PUSH1 0xFF AND PUSH1 0x2 DUP2 GT ISZERO PUSH2 0x3960 JUMPI PUSH2 0x3960 PUSH2 0x5247 JUMP JUMPDEST SUB PUSH2 0x39B7 JUMPI DUP1 SLOAD PUSH1 0x13 DUP1 SLOAD PUSH1 0x1 DUP2 ADD DUP3 SSTORE PUSH1 0x0 SWAP2 SWAP1 SWAP2 MSTORE PUSH32 0x66DE8FFDA797E3DE9C05E8FC57B3BF0EC28A930D40B0D285D93C06501CF6A090 ADD DUP1 SLOAD PUSH1 0x1 PUSH1 0x1 PUSH1 0xA0 SHL SUB NOT AND PUSH1 0x1 PUSH1 0x1 PUSH1 0xA0 SHL SUB SWAP1 SWAP3 AND SWAP2 SWAP1 SWAP2 OR SWAP1 SSTORE JUMPDEST DUP1 SLOAD PUSH1 0xF DUP1 SLOAD PUSH1 0x1 DUP2 ADD DUP3 SSTORE PUSH1 0x0 SWAP2 DUP3 MSTORE PUSH32 0x8D1108E10BCB7C27DDDFC02ED9D693A074039D026CF4EA4240B40F7D581AC802 ADD DUP1 SLOAD PUSH1 0x1 PUSH1 0x1 PUSH1 0xA0 SHL SUB NOT AND PUSH1 0x1 PUSH1 0x1 PUSH1 0xA0 SHL SUB SWAP1 SWAP4 AND SWAP3 SWAP1 SWAP3 OR SWAP1 SWAP2 SSTORE PUSH1 0xC DUP1 SLOAD SWAP2 PUSH2 0x3A16 DUP4 PUSH2 0x5A0E JUMP JUMPDEST SWAP1 SWAP2 SSTORE POP POP PUSH1 0x3 ADD DUP1 SLOAD PUSH3 0xFFFF00 NOT AND PUSH2 0x100 OR SWAP1 SSTORE POP JUMP JUMPDEST PUSH1 0x1 PUSH1 0x1 PUSH1 0xA0 SHL SUB DUP1 DUP3 AND PUSH1 0x0 SWAP1 DUP2 MSTORE PUSH1 0xE PUSH1 0x20 SWAP1 DUP2 MSTORE PUSH1 0x40 DUP1 DUP4 KECCAK256 DUP2 MLOAD PUSH1 0xA0 DUP2 ADD SWAP1 SWAP3 MSTORE DUP1 SLOAD SWAP1 SWAP5 AND DUP2 MSTORE PUSH1 0x1 DUP5 ADD DUP1 SLOAD SWAP4 SWAP5 PUSH1 0x60 SWAP5 DUP6 SWAP5 DUP8 SWAP5 DUP6 SWAP5 DUP6 SWAP5 SWAP2 SWAP4 SWAP2 SWAP3 DUP5 ADD SWAP2 PUSH2 0x3A7E SWAP1 PUSH2 0x5936 JUMP JUMPDEST DUP1 PUSH1 0x1F ADD PUSH1 0x20 DUP1 SWAP2 DIV MUL PUSH1 0x20 ADD PUSH1 0x40 MLOAD SWAP1 DUP2 ADD PUSH1 0x40 MSTORE DUP1 SWAP3 SWAP2 SWAP1 DUP2 DUP2 MSTORE PUSH1 0x20 ADD DUP3 DUP1 SLOAD PUSH2 0x3AAA SWAP1 PUSH2 0x5936 JUMP JUMPDEST DUP1 ISZERO PUSH2 0x3AF7 JUMPI DUP1 PUSH1 0x1F LT PUSH2 0x3ACC JUMPI PUSH2 0x100 DUP1 DUP4 SLOAD DIV MUL DUP4 MSTORE SWAP2 PUSH1 0x20 ADD SWAP2 PUSH2 0x3AF7 JUMP JUMPDEST DUP3 ADD SWAP2 SWAP1 PUSH1 0x0 MSTORE PUSH1 0x20 PUSH1 0x0 KECCAK256 SWAP1 JUMPDEST DUP2 SLOAD DUP2 MSTORE SWAP1 PUSH1 0x1 ADD SWAP1 PUSH1 0x20 ADD DUP1 DUP4 GT PUSH2 0x3ADA JUMPI DUP3 SWAP1 SUB PUSH1 0x1F AND DUP3 ADD SWAP2 JUMPDEST POP POP POP POP POP DUP2 MSTORE PUSH1 0x20 ADD PUSH1 0x2 DUP3 ADD DUP1 SLOAD PUSH2 0x3B10 SWAP1 PUSH2 0x5936 JUMP JUMPDEST DUP1 PUSH1 0x1F ADD PUSH1 0x20 DUP1 SWAP2 DIV MUL PUSH1 0x20 ADD PUSH1 0x40 MLOAD SWAP1 DUP2 ADD PUSH1 0x40 MSTORE DUP1 SWAP3 SWAP2 SWAP1 DUP2 DUP2 MSTORE PUSH1 0x20 ADD DUP3 DUP1 SLOAD PUSH2 0x3B3C SWAP1 PUSH2 0x5936 JUMP JUMPDEST DUP1 ISZERO PUSH2 0x3B89 JUMPI DUP1 PUSH1 0x1F LT PUSH2 0x3B5E JUMPI PUSH2 0x100 DUP1 DUP4 SLOAD DIV MUL DUP4 MSTORE SWAP2 PUSH1 0x20 ADD SWAP2 PUSH2 0x3B89 JUMP JUMPDEST DUP3 ADD SWAP2 SWAP1 PUSH1 0x0 MSTORE PUSH1 0x20 PUSH1 0x0 KECCAK256 SWAP1 JUMPDEST DUP2 SLOAD DUP2 MSTORE SWAP1 PUSH1 0x1 ADD SWAP1 PUSH1 0x20 ADD DUP1 DUP4 GT PUSH2 0x3B6C JUMPI DUP3 SWAP1 SUB PUSH1 0x1F AND DUP3 ADD SWAP2 JUMPDEST POP POP POP SWAP2 DUP4 MSTORE POP POP PUSH1 0x3 DUP3 ADD SLOAD PUSH1 0x20 DUP3 ADD MSTORE PUSH1 0x4 DUP3 ADD SLOAD PUSH1 0x40 SWAP1 SWAP2 ADD SWAP1 PUSH1 0xFF AND PUSH1 0x2 DUP2 GT ISZERO PUSH2 0x3BBA JUMPI PUSH2 0x3BBA PUSH2 0x5247 JUMP JUMPDEST PUSH1 0x2 DUP2 GT ISZERO PUSH2 0x3BCB JUMPI PUSH2 0x3BCB PUSH2 0x5247 JUMP JUMPDEST SWAP1 MSTORE POP DUP1 MLOAD PUSH1 0x20 DUP3 ADD MLOAD PUSH1 0x40 DUP4 ADD MLOAD PUSH1 0x60 DUP5 ADD MLOAD PUSH1 0x80 SWAP1 SWAP5 ADD MLOAD SWAP3 SWAP12 SWAP2 SWAP11 POP SWAP9 POP SWAP2 SWAP7 POP SWAP5 POP SWAP3 POP POP POP JUMP JUMPDEST PUSH1 0x1 PUSH1 0x1 PUSH1 0xA0 SHL SUB DUP1 DUP3 AND PUSH1 0x0 SWAP1 DUP2 MSTORE PUSH1 0xE PUSH1 0x20 SWAP1 DUP2 MSTORE PUSH1 0x40 DUP1 DUP4 KECCAK256 DUP2 MLOAD PUSH1 0xA0 DUP2 ADD SWAP1 SWAP3 MSTORE DUP1 SLOAD SWAP1 SWAP5 AND DUP2 MSTORE PUSH1 0x1 DUP5 ADD DUP1 SLOAD SWAP4 SWAP5 PUSH1 0x60 SWAP5 DUP6 SWAP5 DUP8 SWAP5 DUP6 SWAP5 SWAP1 SWAP4 SWAP3 SWAP2 DUP5 ADD SWAP2 PUSH2 0x3C44 SWAP1 PUSH2 0x5936 JUMP JUMPDEST DUP1 PUSH1 0x1F ADD PUSH1 0x20 DUP1 SWAP2 DIV MUL PUSH1 0x20 ADD PUSH1 0x40 MLOAD SWAP1 DUP2 ADD PUSH1 0x40 MSTORE DUP1 SWAP3 SWAP2 SWAP1 DUP2 DUP2 MSTORE PUSH1 0x20 ADD DUP3 DUP1 SLOAD PUSH2 0x3C70 SWAP1 PUSH2 0x5936 JUMP JUMPDEST DUP1 ISZERO PUSH2 0x3CBD JUMPI DUP1 PUSH1 0x1F LT PUSH2 0x3C92 JUMPI PUSH2 0x100 DUP1 DUP4 SLOAD DIV MUL DUP4 MSTORE SWAP2 PUSH1 0x20 ADD SWAP2 PUSH2 0x3CBD JUMP JUMPDEST DUP3 ADD SWAP2 SWAP1 PUSH1 0x0 MSTORE PUSH1 0x20 PUSH1 0x0 KECCAK256 SWAP1 JUMPDEST DUP2 SLOAD DUP2 MSTORE SWAP1 PUSH1 0x1 ADD SWAP1 PUSH1 0x20 ADD DUP1 DUP4 GT PUSH2 0x3CA0 JUMPI DUP3 SWAP1 SUB PUSH1 0x1F AND DUP3 ADD SWAP2 JUMPDEST POP POP POP POP POP DUP2 MSTORE PUSH1 0x20 ADD PUSH1 0x2 DUP3 ADD DUP1 SLOAD PUSH2 0x3CD6 SWAP1 PUSH2 0x5936 JUMP JUMPDEST DUP1 PUSH1 0x1F ADD PUSH1 0x20 DUP1 SWAP2 DIV MUL PUSH1 0x20 ADD PUSH1 0x40 MLOAD SWAP1 DUP2 ADD PUSH1 0x40 MSTORE DUP1 SWAP3 SWAP2 SWAP1 DUP2 DUP2 MSTORE PUSH1 0x20 ADD DUP3 DUP1 SLOAD PUSH2 0x3D02 SWAP1 PUSH2 0x5936 JUMP JUMPDEST DUP1 ISZERO PUSH2 0x3D4F JUMPI DUP1 PUSH1 0x1F LT PUSH2 0x3D24 JUMPI PUSH2 0x100 DUP1 DUP4 SLOAD DIV MUL DUP4 MSTORE SWAP2 PUSH1 0x20 ADD SWAP2 PUSH2 0x3D4F JUMP JUMPDEST DUP3 ADD SWAP2 SWAP1 PUSH1 0x0 MSTORE PUSH1 0x20 PUSH1 0x0 KECCAK256 SWAP1 JUMPDEST DUP2 SLOAD DUP2 MSTORE SWAP1 PUSH1 0x1 ADD SWAP1 PUSH1 0x20 ADD DUP1 DUP4 GT PUSH2 0x3D32 JUMPI DUP3 SWAP1 SUB PUSH1 0x1F AND DUP3 ADD SWAP2 JUMPDEST POP POP POP SWAP2 DUP4 MSTORE POP POP PUSH1 0x3 DUP3 ADD SLOAD PUSH1 0x20 DUP3 ADD MSTORE PUSH1 0x4 DUP3 ADD SLOAD PUSH1 0x40 SWAP1 SWAP2 ADD SWAP1 PUSH1 0xFF AND PUSH1 0x2 DUP2 GT ISZERO PUSH2 0x3D80 JUMPI PUSH2 0x3D80 PUSH2 0x5247 JUMP JUMPDEST PUSH1 0x2 DUP2 GT ISZERO PUSH2 0x3D91 JUMPI PUSH2 0x3D91 PUSH2 0x5247 JUMP JUMPDEST SWAP1 MSTORE POP DUP1 MLOAD PUSH1 0x20 DUP3 ADD MLOAD PUSH1 0x40 DUP4 ADD MLOAD PUSH1 0x80 SWAP1 SWAP4 ADD MLOAD SWAP2 SWAP10 SWAP1 SWAP9 POP SWAP2 SWAP7 POP SWAP5 POP SWAP3 POP POP POP JUMP JUMPDEST PUSH1 0xD SLOAD PUSH1 0x1 PUSH1 0x1 PUSH1 0xA0 SHL SUB AND CALLER EQ PUSH2 0x3DE0 JUMPI PUSH1 0x40 MLOAD PUSH3 0x461BCD PUSH1 0xE5 SHL DUP2 MSTORE PUSH1 0x4 ADD PUSH2 0x7F8 SWAP1 PUSH2 0x5986 JUMP JUMPDEST PUSH1 0x0 DUP2 DUP2 MSTORE PUSH1 0x5 PUSH1 0x20 MSTORE PUSH1 0x40 SWAP1 KECCAK256 PUSH1 0x3 ADD SLOAD PUSH3 0x10000 SWAP1 DIV PUSH1 0xFF AND PUSH2 0x3E36 JUMPI PUSH1 0x40 MLOAD PUSH3 0x461BCD PUSH1 0xE5 SHL DUP2 MSTORE PUSH1 0x20 PUSH1 0x4 DUP3 ADD MSTORE PUSH1 0xC PUSH1 0x24 DUP3 ADD MSTORE PUSH12 0x37379039BAB1B4103AB9B2B9 PUSH1 0xA1 SHL PUSH1 0x44 DUP3 ADD MSTORE PUSH1 0x64 ADD PUSH2 0x7F8 JUMP JUMPDEST PUSH1 0x0 SWAP1 DUP2 MSTORE PUSH1 0x5 PUSH1 0x20 MSTORE PUSH1 0x40 DUP2 KECCAK256 PUSH1 0x3 DUP2 ADD DUP1 SLOAD PUSH3 0xFFFF00 NOT AND SWAP1 SSTORE SLOAD PUSH1 0x10 DUP1 SLOAD PUSH1 0x1 DUP2 ADD DUP3 SSTORE SWAP3 MSTORE PUSH32 0x1B6847DC741A1B0CD08D278845F9D819D87B734759AFB55FE2DE5CB82A9AE672 SWAP1 SWAP2 ADD DUP1 SLOAD PUSH1 0x1 PUSH1 0x1 PUSH1 0xA0 SHL SUB NOT AND PUSH1 0x1 PUSH1 0x1 PUSH1 0xA0 SHL SUB SWAP1 SWAP3 AND SWAP2 SWAP1 SWAP2 OR SWAP1 SSTORE JUMP JUMPDEST PUSH1 0x2 DUP1 CALLER PUSH1 0x0 SWAP1 DUP2 MSTORE PUSH1 0x6 PUSH1 0x20 MSTORE PUSH1 0x40 SWAP1 KECCAK256 SLOAD PUSH1 0xFF AND PUSH1 0x2 DUP2 GT ISZERO PUSH2 0x3EC9 JUMPI PUSH2 0x3EC9 PUSH2 0x5247 JUMP JUMPDEST EQ PUSH2 0x3EE6 JUMPI PUSH1 0x40 MLOAD PUSH3 0x461BCD PUSH1 0xE5 SHL DUP2 MSTORE PUSH1 0x4 ADD PUSH2 0x7F8 SWAP1 PUSH2 0x58FF JUMP JUMPDEST PUSH1 0x0 DUP4 GT DUP1 ISZERO PUSH2 0x3EF8 JUMPI POP PUSH1 0x9 SLOAD DUP4 GT ISZERO JUMPDEST PUSH2 0x3F36 JUMPI PUSH1 0x40 MLOAD PUSH3 0x461BCD PUSH1 0xE5 SHL DUP2 MSTORE PUSH1 0x20 PUSH1 0x4 DUP3 ADD MSTORE PUSH1 0xF PUSH1 0x24 DUP3 ADD MSTORE PUSH15 0x125B9D985B1A590818DC9BDC081251 PUSH1 0x8A SHL PUSH1 0x44 DUP3 ADD MSTORE PUSH1 0x64 ADD PUSH2 0x7F8 JUMP JUMPDEST PUSH1 0xA DUP1 SLOAD SWAP1 PUSH1 0x0 PUSH2 0x3F46 DUP4 PUSH2 0x5A0E JUMP JUMPDEST SWAP1 SWAP2 SSTORE POP POP PUSH1 0x0 DUP4 DUP2 MSTORE PUSH1 0x3 PUSH1 0x20 DUP2 DUP2 MSTORE PUSH1 0x40 DUP1 DUP5 KECCAK256 PUSH1 0x4 DUP4 MSTORE DUP2 DUP6 KECCAK256 PUSH1 0x6 DUP2 ADD DUP1 SLOAD PUSH1 0x1 PUSH1 0xA1 SHL PUSH1 0xFF PUSH1 0xA0 SHL NOT SWAP1 SWAP2 AND OR SWAP1 SSTORE PUSH1 0x9 DUP3 ADD DUP1 SLOAD PUSH1 0xFF NOT AND PUSH1 0x2 OR SWAP1 SSTORE CALLER DUP7 MSTORE PUSH1 0xE SWAP1 SWAP4 MSTORE SWAP1 DUP5 KECCAK256 SWAP1 SWAP3 ADD DUP1 SLOAD SWAP3 SWAP4 SWAP2 SWAP3 PUSH1 0x1 SWAP3 SWAP1 PUSH2 0x3FAC SWAP1 DUP5 SWAP1 PUSH2 0x5B35 JUMP JUMPDEST SWAP1 SWAP2 SSTORE POP POP PUSH1 0x4 DUP3 ADD SLOAD PUSH1 0x1 PUSH1 0x1 PUSH1 0xA0 SHL SUB AND PUSH1 0x0 SWAP1 DUP2 MSTORE PUSH1 0xE PUSH1 0x20 MSTORE PUSH1 0x40 DUP2 KECCAK256 PUSH1 0x3 ADD DUP1 SLOAD PUSH1 0x1 SWAP3 SWAP1 PUSH2 0x3FE1 SWAP1 DUP5 SWAP1 PUSH2 0x5B35 JUMP JUMPDEST SWAP1 SWAP2 SSTORE POP POP PUSH1 0x3 DUP1 DUP4 ADD SLOAD PUSH1 0x1 PUSH1 0x1 PUSH1 0xA0 SHL SUB AND PUSH1 0x0 SWAP1 DUP2 MSTORE PUSH1 0xE PUSH1 0x20 MSTORE PUSH1 0x40 DUP2 KECCAK256 SWAP1 SWAP2 ADD DUP1 SLOAD PUSH1 0x1 SWAP3 SWAP1 PUSH2 0x4017 SWAP1 DUP5 SWAP1 PUSH2 0x5B35 JUMP JUMPDEST SWAP3 POP POP DUP2 SWAP1 SSTORE POP PUSH1 0x40 MLOAD DUP1 PUSH2 0x120 ADD PUSH1 0x40 MSTORE DUP1 DUP4 PUSH1 0x1 ADD DUP1 SLOAD PUSH2 0x4039 SWAP1 PUSH2 0x5936 JUMP JUMPDEST DUP1 PUSH1 0x1F ADD PUSH1 0x20 DUP1 SWAP2 DIV MUL PUSH1 0x20 ADD PUSH1 0x40 MLOAD SWAP1 DUP2 ADD PUSH1 0x40 MSTORE DUP1 SWAP3 SWAP2 SWAP1 DUP2 DUP2 MSTORE PUSH1 0x20 ADD DUP3 DUP1 SLOAD PUSH2 0x4065 SWAP1 PUSH2 0x5936 JUMP JUMPDEST DUP1 ISZERO PUSH2 0x40B2 JUMPI DUP1 PUSH1 0x1F LT PUSH2 0x4087 JUMPI PUSH2 0x100 DUP1 DUP4 SLOAD DIV MUL DUP4 MSTORE SWAP2 PUSH1 0x20 ADD SWAP2 PUSH2 0x40B2 JUMP JUMPDEST DUP3 ADD SWAP2 SWAP1 PUSH1 0x0 MSTORE PUSH1 0x20 PUSH1 0x0 KECCAK256 SWAP1 JUMPDEST DUP2 SLOAD DUP2 MSTORE SWAP1 PUSH1 0x1 ADD SWAP1 PUSH1 0x20 ADD DUP1 DUP4 GT PUSH2 0x4095 JUMPI DUP3 SWAP1 SUB PUSH1 0x1F AND DUP3 ADD SWAP2 JUMPDEST POP POP POP POP POP DUP2 MSTORE PUSH1 0x20 ADD DUP4 PUSH1 0x2 ADD DUP1 SLOAD PUSH2 0x40CB SWAP1 PUSH2 0x5936 JUMP JUMPDEST DUP1 PUSH1 0x1F ADD PUSH1 0x20 DUP1 SWAP2 DIV MUL PUSH1 0x20 ADD PUSH1 0x40 MLOAD SWAP1 DUP2 ADD PUSH1 0x40 MSTORE DUP1 SWAP3 SWAP2 SWAP1 DUP2 DUP2 MSTORE PUSH1 0x20 ADD DUP3 DUP1 SLOAD PUSH2 0x40F7 SWAP1 PUSH2 0x5936 JUMP JUMPDEST DUP1 ISZERO PUSH2 0x4144 JUMPI DUP1 PUSH1 0x1F LT PUSH2 0x4119 JUMPI PUSH2 0x100 DUP1 DUP4 SLOAD DIV MUL DUP4 MSTORE SWAP2 PUSH1 0x20 ADD SWAP2 PUSH2 0x4144 JUMP JUMPDEST DUP3 ADD SWAP2 SWAP1 PUSH1 0x0 MSTORE PUSH1 0x20 PUSH1 0x0 KECCAK256 SWAP1 JUMPDEST DUP2 SLOAD DUP2 MSTORE SWAP1 PUSH1 0x1 ADD SWAP1 PUSH1 0x20 ADD DUP1 DUP4 GT PUSH2 0x4127 JUMPI DUP3 SWAP1 SUB PUSH1 0x1F AND DUP3 ADD SWAP2 JUMPDEST POP POP POP SWAP2 DUP4 MSTORE POP POP PUSH1 0x3 DUP5 ADD SLOAD PUSH1 0x1 PUSH1 0x1 PUSH1 0xA0 SHL SUB SWAP1 DUP2 AND PUSH1 0x20 DUP1 DUP5 ADD SWAP2 SWAP1 SWAP2 MSTORE PUSH1 0x4 DUP1 DUP8 ADD SLOAD SWAP1 SWAP3 AND PUSH1 0x40 DUP1 DUP6 ADD SWAP2 SWAP1 SWAP2 MSTORE CALLER PUSH1 0x60 DUP6 ADD MSTORE PUSH1 0x5 DUP7 ADD SLOAD PUSH1 0x80 DUP6 ADD MSTORE PUSH1 0x8 DUP8 ADD SLOAD PUSH1 0xA0 DUP6 ADD MSTORE SWAP2 DUP6 ADD SLOAD PUSH1 0xC0 DUP5 ADD MSTORE PUSH1 0xE0 SWAP1 SWAP3 ADD DUP8 SWAP1 MSTORE PUSH1 0xA SLOAD PUSH1 0x0 SWAP1 DUP2 MSTORE PUSH1 0x7 SWAP1 SWAP3 MSTORE SWAP1 KECCAK256 DUP2 MLOAD DUP2 SWAP1 PUSH2 0x41BF SWAP1 DUP3 PUSH2 0x5A76 JUMP JUMPDEST POP PUSH1 0x20 DUP3 ADD MLOAD PUSH1 0x1 DUP3 ADD SWAP1 PUSH2 0x41D4 SWAP1 DUP3 PUSH2 0x5A76 JUMP JUMPDEST POP PUSH1 0x40 DUP3 DUP2 ADD MLOAD PUSH1 0x2 DUP4 ADD DUP1 SLOAD PUSH1 0x1 PUSH1 0x1 PUSH1 0xA0 SHL SUB NOT SWAP1 DUP2 AND PUSH1 0x1 PUSH1 0x1 PUSH1 0xA0 SHL SUB SWAP4 DUP5 AND OR SWAP1 SWAP2 SSTORE PUSH1 0x60 DUP6 ADD MLOAD PUSH1 0x3 DUP1 DUP7 ADD DUP1 SLOAD DUP5 AND SWAP3 DUP6 AND SWAP3 SWAP1 SWAP3 OR SWAP1 SWAP2 SSTORE PUSH1 0x80 DUP7 ADD MLOAD PUSH1 0x4 DUP7 ADD DUP1 SLOAD SWAP1 SWAP4 AND SWAP1 DUP5 AND OR SWAP1 SWAP2 SSTORE PUSH1 0xA0 DUP6 ADD MLOAD PUSH1 0x5 DUP6 ADD SSTORE PUSH1 0xC0 DUP6 ADD MLOAD PUSH1 0x6 DUP6 ADD SSTORE PUSH1 0xE0 DUP6 ADD MLOAD PUSH1 0x7 DUP6 ADD SSTORE PUSH2 0x100 SWAP5 DUP6 ADD MLOAD PUSH1 0x8 SWAP1 SWAP5 ADD SWAP4 SWAP1 SWAP4 SSTORE SWAP2 DUP6 ADD SLOAD SWAP1 SWAP2 AND PUSH1 0x0 SWAP1 DUP2 MSTORE PUSH1 0x20 DUP2 SWAP1 MSTORE DUP2 SWAP1 KECCAK256 DUP2 MLOAD SWAP3 DUP4 ADD SWAP1 SWAP2 MSTORE DUP1 SLOAD SWAP1 SWAP2 SWAP1 DUP2 SWAP1 PUSH2 0x4285 SWAP1 PUSH1 0x1 PUSH2 0x5B35 JUMP JUMPDEST DUP2 MSTORE PUSH1 0x3 DUP6 ADD SLOAD PUSH1 0x1 PUSH1 0x1 PUSH1 0xA0 SHL SUB AND PUSH1 0x20 DUP3 ADD MSTORE PUSH1 0x2 DUP6 ADD DUP1 SLOAD PUSH1 0x40 SWAP1 SWAP3 ADD SWAP2 PUSH2 0x42AF SWAP1 PUSH2 0x5936 JUMP JUMPDEST DUP1 PUSH1 0x1F ADD PUSH1 0x20 DUP1 SWAP2 DIV MUL PUSH1 0x20 ADD PUSH1 0x40 MLOAD SWAP1 DUP2 ADD PUSH1 0x40 MSTORE DUP1 SWAP3 SWAP2 SWAP1 DUP2 DUP2 MSTORE PUSH1 0x20 ADD DUP3 DUP1 SLOAD PUSH2 0x42DB SWAP1 PUSH2 0x5936 JUMP JUMPDEST DUP1 ISZERO PUSH2 0x4328 JUMPI DUP1 PUSH1 0x1F LT PUSH2 0x42FD JUMPI PUSH2 0x100 DUP1 DUP4 SLOAD DIV MUL DUP4 MSTORE SWAP2 PUSH1 0x20 ADD SWAP2 PUSH2 0x4328 JUMP JUMPDEST DUP3 ADD SWAP2 SWAP1 PUSH1 0x0 MSTORE PUSH1 0x20 PUSH1 0x0 KECCAK256 SWAP1 JUMPDEST DUP2 SLOAD DUP2 MSTORE SWAP1 PUSH1 0x1 ADD SWAP1 PUSH1 0x20 ADD DUP1 DUP4 GT PUSH2 0x430B JUMPI DUP3 SWAP1 SUB PUSH1 0x1F AND DUP3 ADD SWAP2 JUMPDEST POP POP POP SWAP2 DUP4 MSTORE POP POP PUSH1 0x3 DUP6 ADD SLOAD PUSH1 0x1 PUSH1 0x1 PUSH1 0xA0 SHL SUB AND PUSH1 0x0 SWAP1 DUP2 MSTORE PUSH1 0xE PUSH1 0x20 SWAP1 DUP2 MSTORE PUSH1 0x40 SWAP1 SWAP2 KECCAK256 PUSH1 0x1 ADD DUP1 SLOAD SWAP2 SWAP1 SWAP3 ADD SWAP2 SWAP1 PUSH2 0x4363 SWAP1 PUSH2 0x5936 JUMP JUMPDEST DUP1 PUSH1 0x1F ADD PUSH1 0x20 DUP1 SWAP2 DIV MUL PUSH1 0x20 ADD PUSH1 0x40 MLOAD SWAP1 DUP2 ADD PUSH1 0x40 MSTORE DUP1 SWAP3 SWAP2 SWAP1 DUP2 DUP2 MSTORE PUSH1 0x20 ADD DUP3 DUP1 SLOAD PUSH2 0x438F SWAP1 PUSH2 0x5936 JUMP JUMPDEST DUP1 ISZERO PUSH2 0x43DC JUMPI DUP1 PUSH1 0x1F LT PUSH2 0x43B1 JUMPI PUSH2 0x100 DUP1 DUP4 SLOAD DIV MUL DUP4 MSTORE SWAP2 PUSH1 0x20 ADD SWAP2 PUSH2 0x43DC JUMP JUMPDEST DUP3 ADD SWAP2 SWAP1 PUSH1 0x0 MSTORE PUSH1 0x20 PUSH1 0x0 KECCAK256 SWAP1 JUMPDEST DUP2 SLOAD DUP2 MSTORE SWAP1 PUSH1 0x1 ADD SWAP1 PUSH1 0x20 ADD DUP1 DUP4 GT PUSH2 0x43BF JUMPI DUP3 SWAP1 SUB PUSH1 0x1F AND DUP3 ADD SWAP2 JUMPDEST POP POP POP SWAP2 DUP4 MSTORE POP POP PUSH1 0x5 DUP6 ADD SLOAD PUSH1 0x1 PUSH1 0x1 PUSH1 0xA0 SHL SUB SWAP1 DUP2 AND PUSH1 0x20 DUP1 DUP5 ADD SWAP2 SWAP1 SWAP2 MSTORE PUSH1 0x4 DUP8 ADD SLOAD SWAP1 SWAP2 AND PUSH1 0x0 SWAP1 DUP2 MSTORE PUSH1 0xE SWAP1 SWAP2 MSTORE PUSH1 0x40 SWAP1 DUP2 SWAP1 KECCAK256 PUSH1 0x1 ADD DUP1 SLOAD SWAP2 SWAP1 SWAP3 ADD SWAP2 SWAP1 PUSH2 0x4429 SWAP1 PUSH2 0x5936 JUMP JUMPDEST DUP1 PUSH1 0x1F ADD PUSH1 0x20 DUP1 SWAP2 DIV MUL PUSH1 0x20 ADD PUSH1 0x40 MLOAD SWAP1 DUP2 ADD PUSH1 0x40 MSTORE DUP1 SWAP3 SWAP2 SWAP1 DUP2 DUP2 MSTORE PUSH1 0x20 ADD DUP3 DUP1 SLOAD PUSH2 0x4455 SWAP1 PUSH2 0x5936 JUMP JUMPDEST DUP1 ISZERO PUSH2 0x44A2 JUMPI DUP1 PUSH1 0x1F LT PUSH2 0x4477 JUMPI PUSH2 0x100 DUP1 DUP4 SLOAD DIV MUL DUP4 MSTORE SWAP2 PUSH1 0x20 ADD SWAP2 PUSH2 0x44A2 JUMP JUMPDEST DUP3 ADD SWAP2 SWAP1 PUSH1 0x0 MSTORE PUSH1 0x20 PUSH1 0x0 KECCAK256 SWAP1 JUMPDEST DUP2 SLOAD DUP2 MSTORE SWAP1 PUSH1 0x1 ADD SWAP1 PUSH1 0x20 ADD DUP1 DUP4 GT PUSH2 0x4485 JUMPI DUP3 SWAP1 SUB PUSH1 0x1F AND DUP3 ADD SWAP2 JUMPDEST POP POP POP SWAP2 DUP4 MSTORE POP POP PUSH1 0x4 DUP6 ADD SLOAD PUSH1 0x1 PUSH1 0x1 PUSH1 0xA0 SHL SUB SWAP1 DUP2 AND PUSH1 0x20 DUP1 DUP5 ADD SWAP2 SWAP1 SWAP2 MSTORE PUSH1 0x40 SWAP3 DUP4 ADD DUP10 SWAP1 MSTORE DUP5 SLOAD PUSH1 0x1 DUP1 DUP3 ADD DUP8 SSTORE PUSH1 0x0 SWAP7 DUP8 MSTORE SWAP6 DUP3 SWAP1 KECCAK256 DUP6 MLOAD PUSH1 0x8 SWAP1 SWAP3 MUL ADD SWAP1 DUP2 SSTORE SWAP1 DUP5 ADD MLOAD SWAP5 DUP2 ADD DUP1 SLOAD PUSH1 0x1 PUSH1 0x1 PUSH1 0xA0 SHL SUB NOT AND SWAP6 SWAP1 SWAP3 AND SWAP5 SWAP1 SWAP5 OR SWAP1 SSTORE DUP2 ADD MLOAD SWAP1 SWAP2 SWAP1 PUSH1 0x2 DUP3 ADD SWAP1 PUSH2 0x451A SWAP1 DUP3 PUSH2 0x5A76 JUMP JUMPDEST POP PUSH1 0x60 DUP3 ADD MLOAD PUSH1 0x3 DUP3 ADD SWAP1 PUSH2 0x452F SWAP1 DUP3 PUSH2 0x5A76 JUMP JUMPDEST POP PUSH1 0x80 DUP3 ADD MLOAD PUSH1 0x4 DUP3 ADD DUP1 SLOAD PUSH1 0x1 PUSH1 0x1 PUSH1 0xA0 SHL SUB NOT AND PUSH1 0x1 PUSH1 0x1 PUSH1 0xA0 SHL SUB SWAP1 SWAP3 AND SWAP2 SWAP1 SWAP2 OR SWAP1 SSTORE PUSH1 0xA0 DUP3 ADD MLOAD PUSH1 0x5 DUP3 ADD SWAP1 PUSH2 0x456A SWAP1 DUP3 PUSH2 0x5A76 JUMP JUMPDEST POP PUSH1 0xC0 DUP3 ADD MLOAD PUSH1 0x6 DUP3 ADD DUP1 SLOAD PUSH1 0x1 PUSH1 0x1 PUSH1 0xA0 SHL SUB NOT AND PUSH1 0x1 PUSH1 0x1 PUSH1 0xA0 SHL SUB SWAP3 DUP4 AND OR SWAP1 SSTORE PUSH1 0xE0 SWAP1 SWAP3 ADD MLOAD PUSH1 0x7 SWAP1 SWAP2 ADD SSTORE PUSH1 0x4 DUP4 ADD SLOAD AND PUSH1 0x0 SWAP1 DUP2 MSTORE PUSH1 0x1 PUSH1 0x20 DUP2 SWAP1 MSTORE PUSH1 0x40 SWAP2 DUP3 SWAP1 KECCAK256 DUP3 MLOAD PUSH2 0x120 DUP2 ADD SWAP1 SWAP4 MSTORE DUP1 SLOAD SWAP1 SWAP3 SWAP2 DUP3 SWAP2 PUSH2 0x45CC SWAP2 PUSH2 0x5B35 JUMP JUMPDEST DUP2 MSTORE PUSH1 0x3 DUP6 ADD SLOAD PUSH1 0x1 PUSH1 0x1 PUSH1 0xA0 SHL SUB SWAP1 DUP2 AND PUSH1 0x20 DUP1 DUP5 ADD DUP3 SWAP1 MSTORE PUSH1 0x5 DUP9 ADD SLOAD SWAP1 SWAP3 AND PUSH1 0x40 DUP1 DUP6 ADD SWAP2 SWAP1 SWAP2 MSTORE PUSH1 0x0 SWAP2 DUP3 MSTORE PUSH1 0xE SWAP1 SWAP3 MSTORE KECCAK256 PUSH1 0x1 ADD DUP1 SLOAD PUSH1 0x60 SWAP1 SWAP3 ADD SWAP2 PUSH2 0x4616 SWAP1 PUSH2 0x5936 JUMP JUMPDEST DUP1 PUSH1 0x1F ADD PUSH1 0x20 DUP1 SWAP2 DIV MUL PUSH1 0x20 ADD PUSH1 0x40 MLOAD SWAP1 DUP2 ADD PUSH1 0x40 MSTORE DUP1 SWAP3 SWAP2 SWAP1 DUP2 DUP2 MSTORE PUSH1 0x20 ADD DUP3 DUP1 SLOAD PUSH2 0x4642 SWAP1 PUSH2 0x5936 JUMP JUMPDEST DUP1 ISZERO PUSH2 0x468F JUMPI DUP1 PUSH1 0x1F LT PUSH2 0x4664 JUMPI PUSH2 0x100 DUP1 DUP4 SLOAD DIV MUL DUP4 MSTORE SWAP2 PUSH1 0x20 ADD SWAP2 PUSH2 0x468F JUMP JUMPDEST DUP3 ADD SWAP2 SWAP1 PUSH1 0x0 MSTORE PUSH1 0x20 PUSH1 0x0 KECCAK256 SWAP1 JUMPDEST DUP2 SLOAD DUP2 MSTORE SWAP1 PUSH1 0x1 ADD SWAP1 PUSH1 0x20 ADD DUP1 DUP4 GT PUSH2 0x4672 JUMPI DUP3 SWAP1 SUB PUSH1 0x1F AND DUP3 ADD SWAP2 JUMPDEST POP POP POP SWAP2 DUP4 MSTORE POP POP PUSH1 0x5 DUP6 ADD SLOAD PUSH1 0x1 PUSH1 0x1 PUSH1 0xA0 SHL SUB AND PUSH1 0x0 SWAP1 DUP2 MSTORE PUSH1 0xE PUSH1 0x20 SWAP1 DUP2 MSTORE PUSH1 0x40 SWAP1 SWAP2 KECCAK256 PUSH1 0x1 ADD DUP1 SLOAD SWAP2 SWAP1 SWAP3 ADD SWAP2 SWAP1 PUSH2 0x46CA SWAP1 PUSH2 0x5936 JUMP JUMPDEST DUP1 PUSH1 0x1F ADD PUSH1 0x20 DUP1 SWAP2 DIV MUL PUSH1 0x20 ADD PUSH1 0x40 MLOAD SWAP1 DUP2 ADD PUSH1 0x40 MSTORE DUP1 SWAP3 SWAP2 SWAP1 DUP2 DUP2 MSTORE PUSH1 0x20 ADD DUP3 DUP1 SLOAD PUSH2 0x46F6 SWAP1 PUSH2 0x5936 JUMP JUMPDEST DUP1 ISZERO PUSH2 0x4743 JUMPI DUP1 PUSH1 0x1F LT PUSH2 0x4718 JUMPI PUSH2 0x100 DUP1 DUP4 SLOAD DIV MUL DUP4 MSTORE SWAP2 PUSH1 0x20 ADD SWAP2 PUSH2 0x4743 JUMP JUMPDEST DUP3 ADD SWAP2 SWAP1 PUSH1 0x0 MSTORE PUSH1 0x20 PUSH1 0x0 KECCAK256 SWAP1 JUMPDEST DUP2 SLOAD DUP2 MSTORE SWAP1 PUSH1 0x1 ADD SWAP1 PUSH1 0x20 ADD DUP1 DUP4 GT PUSH2 0x4726 JUMPI DUP3 SWAP1 SUB PUSH1 0x1F AND DUP3 ADD SWAP2 JUMPDEST POP POP POP POP POP DUP2 MSTORE PUSH1 0x20 ADD DUP5 PUSH1 0x2 ADD DUP1 SLOAD PUSH2 0x475C SWAP1 PUSH2 0x5936 JUMP JUMPDEST DUP1 PUSH1 0x1F ADD PUSH1 0x20 DUP1 SWAP2 DIV MUL PUSH1 0x20 ADD PUSH1 0x40 MLOAD SWAP1 DUP2 ADD PUSH1 0x40 MSTORE DUP1 SWAP3 SWAP2 SWAP1 DUP2 DUP2 MSTORE PUSH1 0x20 ADD DUP3 DUP1 SLOAD PUSH2 0x4788 SWAP1 PUSH2 0x5936 JUMP JUMPDEST DUP1 ISZERO PUSH2 0x47D5 JUMPI DUP1 PUSH1 0x1F LT PUSH2 0x47AA JUMPI PUSH2 0x100 DUP1 DUP4 SLOAD DIV MUL DUP4 MSTORE SWAP2 PUSH1 0x20 ADD SWAP2 PUSH2 0x47D5 JUMP JUMPDEST DUP3 ADD SWAP2 SWAP1 PUSH1 0x0 MSTORE PUSH1 0x20 PUSH1 0x0 KECCAK256 SWAP1 JUMPDEST DUP2 SLOAD DUP2 MSTORE SWAP1 PUSH1 0x1 ADD SWAP1 PUSH1 0x20 ADD DUP1 DUP4 GT PUSH2 0x47B8 JUMPI DUP3 SWAP1 SUB PUSH1 0x1F AND DUP3 ADD SWAP2 JUMPDEST POP POP POP POP POP DUP2 MSTORE PUSH1 0x20 ADD DUP5 PUSH1 0x6 ADD DUP1 SLOAD PUSH2 0x47EE SWAP1 PUSH2 0x5936 JUMP JUMPDEST DUP1 PUSH1 0x1F ADD PUSH1 0x20 DUP1 SWAP2 DIV MUL PUSH1 0x20 ADD PUSH1 0x40 MLOAD SWAP1 DUP2 ADD PUSH1 0x40 MSTORE DUP1 SWAP3 SWAP2 SWAP1 DUP2 DUP2 MSTORE PUSH1 0x20 ADD DUP3 DUP1 SLOAD PUSH2 0x481A SWAP1 PUSH2 0x5936 JUMP JUMPDEST DUP1 ISZERO PUSH2 0x4867 JUMPI DUP1 PUSH1 0x1F LT PUSH2 0x483C JUMPI PUSH2 0x100 DUP1 DUP4 SLOAD DIV MUL DUP4 MSTORE SWAP2 PUSH1 0x20 ADD SWAP2 PUSH2 0x4867 JUMP JUMPDEST DUP3 ADD SWAP2 SWAP1 PUSH1 0x0 MSTORE PUSH1 0x20 PUSH1 0x0 KECCAK256 SWAP1 JUMPDEST DUP2 SLOAD DUP2 MSTORE SWAP1 PUSH1 0x1 ADD SWAP1 PUSH1 0x20 ADD DUP1 DUP4 GT PUSH2 0x484A JUMPI DUP3 SWAP1 SUB PUSH1 0x1F AND DUP3 ADD SWAP2 JUMPDEST POP POP POP POP POP DUP2 MSTORE PUSH1 0x20 ADD DUP5 PUSH1 0x7 ADD DUP1 SLOAD PUSH2 0x4880 SWAP1 PUSH2 0x5936 JUMP JUMPDEST DUP1 PUSH1 0x1F ADD PUSH1 0x20 DUP1 SWAP2 DIV MUL PUSH1 0x20 ADD PUSH1 0x40 MLOAD SWAP1 DUP2 ADD PUSH1 0x40 MSTORE DUP1 SWAP3 SWAP2 SWAP1 DUP2 DUP2 MSTORE PUSH1 0x20 ADD DUP3 DUP1 SLOAD PUSH2 0x48AC SWAP1 PUSH2 0x5936 JUMP JUMPDEST DUP1 ISZERO PUSH2 0x48F9 JUMPI DUP1 PUSH1 0x1F LT PUSH2 0x48CE JUMPI PUSH2 0x100 DUP1 DUP4 SLOAD DIV MUL DUP4 MSTORE SWAP2 PUSH1 0x20 ADD SWAP2 PUSH2 0x48F9 JUMP JUMPDEST DUP3 ADD SWAP2 SWAP1 PUSH1 0x0 MSTORE PUSH1 0x20 PUSH1 0x0 KECCAK256 SWAP1 JUMPDEST DUP2 SLOAD DUP2 MSTORE SWAP1 PUSH1 0x1 ADD SWAP1 PUSH1 0x20 ADD DUP1 DUP4 GT PUSH2 0x48DC JUMPI DUP3 SWAP1 SUB PUSH1 0x1F AND DUP3 ADD SWAP2 JUMPDEST POP POP POP SWAP2 DUP4 MSTORE POP POP PUSH1 0x20 SWAP1 DUP2 ADD DUP8 SWAP1 MSTORE DUP3 SLOAD PUSH1 0x1 DUP2 DUP2 ADD DUP6 SSTORE PUSH1 0x0 SWAP5 DUP6 MSTORE SWAP4 DUP3 SWAP1 KECCAK256 DUP4 MLOAD PUSH1 0x9 SWAP1 SWAP3 MUL ADD SWAP1 DUP2 SSTORE SWAP1 DUP3 ADD MLOAD SWAP3 DUP2 ADD DUP1 SLOAD PUSH1 0x1 PUSH1 0x1 PUSH1 0xA0 SHL SUB SWAP5 DUP6 AND PUSH1 0x1 PUSH1 0x1 PUSH1 0xA0 SHL SUB NOT SWAP2 DUP3 AND OR SWAP1 SWAP2 SSTORE PUSH1 0x40 DUP4 ADD MLOAD PUSH1 0x2 DUP4 ADD DUP1 SLOAD SWAP2 SWAP1 SWAP6 AND SWAP2 AND OR SWAP1 SWAP3 SSTORE PUSH1 0x60 DUP2 ADD MLOAD SWAP1 SWAP2 SWAP1 PUSH1 0x3 DUP3 ADD SWAP1 PUSH2 0x4976 SWAP1 DUP3 PUSH2 0x5A76 JUMP JUMPDEST POP PUSH1 0x80 DUP3 ADD MLOAD PUSH1 0x4 DUP3 ADD SWAP1 PUSH2 0x498B SWAP1 DUP3 PUSH2 0x5A76 JUMP JUMPDEST POP PUSH1 0xA0 DUP3 ADD MLOAD PUSH1 0x5 DUP3 ADD SWAP1 PUSH2 0x49A0 SWAP1 DUP3 PUSH2 0x5A76 JUMP JUMPDEST POP PUSH1 0xC0 DUP3 ADD MLOAD PUSH1 0x6 DUP3 ADD SWAP1 PUSH2 0x49B5 SWAP1 DUP3 PUSH2 0x5A76 JUMP JUMPDEST POP PUSH1 0xE0 DUP3 ADD MLOAD PUSH1 0x7 DUP3 ADD SWAP1 PUSH2 0x49CA SWAP1 DUP3 PUSH2 0x5A76 JUMP JUMPDEST POP PUSH2 0x100 SWAP2 DUP3 ADD MLOAD PUSH1 0x8 SWAP1 SWAP2 ADD SSTORE CALLER PUSH1 0x0 SWAP1 DUP2 MSTORE PUSH1 0x2 PUSH1 0x20 MSTORE PUSH1 0x40 SWAP1 DUP2 SWAP1 KECCAK256 DUP2 MLOAD SWAP3 DUP4 ADD SWAP1 SWAP2 MSTORE DUP1 SLOAD SWAP1 SWAP2 SWAP1 DUP2 SWAP1 PUSH2 0x4A03 SWAP1 PUSH1 0x1 PUSH2 0x5B35 JUMP JUMPDEST DUP2 MSTORE PUSH1 0x3 DUP6 ADD SLOAD PUSH1 0x1 PUSH1 0x1 PUSH1 0xA0 SHL SUB SWAP1 DUP2 AND PUSH1 0x20 DUP1 DUP5 ADD SWAP2 SWAP1 SWAP2 MSTORE PUSH1 0x4 DUP8 ADD SLOAD SWAP1 SWAP2 AND PUSH1 0x40 DUP1 DUP5 ADD SWAP2 SWAP1 SWAP2 MSTORE CALLER PUSH1 0x0 SWAP1 DUP2 MSTORE PUSH1 0xE SWAP1 SWAP3 MSTORE SWAP1 KECCAK256 PUSH1 0x1 ADD DUP1 SLOAD PUSH1 0x60 SWAP1 SWAP3 ADD SWAP2 PUSH2 0x4A50 SWAP1 PUSH2 0x5936 JUMP JUMPDEST DUP1 PUSH1 0x1F ADD PUSH1 0x20 DUP1 SWAP2 DIV MUL PUSH1 0x20 ADD PUSH1 0x40 MLOAD SWAP1 DUP2 ADD PUSH1 0x40 MSTORE DUP1 SWAP3 SWAP2 SWAP1 DUP2 DUP2 MSTORE PUSH1 0x20 ADD DUP3 DUP1 SLOAD PUSH2 0x4A7C SWAP1 PUSH2 0x5936 JUMP JUMPDEST DUP1 ISZERO PUSH2 0x4AC9 JUMPI DUP1 PUSH1 0x1F LT PUSH2 0x4A9E JUMPI PUSH2 0x100 DUP1 DUP4 SLOAD DIV MUL DUP4 MSTORE SWAP2 PUSH1 0x20 ADD SWAP2 PUSH2 0x4AC9 JUMP JUMPDEST DUP3 ADD SWAP2 SWAP1 PUSH1 0x0 MSTORE PUSH1 0x20 PUSH1 0x0 KECCAK256 SWAP1 JUMPDEST DUP2 SLOAD DUP2 MSTORE SWAP1 PUSH1 0x1 ADD SWAP1 PUSH1 0x20 ADD DUP1 DUP4 GT PUSH2 0x4AAC JUMPI DUP3 SWAP1 SUB PUSH1 0x1F AND DUP3 ADD SWAP2 JUMPDEST POP POP POP SWAP2 DUP4 MSTORE POP POP PUSH1 0x4 DUP6 ADD SLOAD PUSH1 0x1 PUSH1 0x1 PUSH1 0xA0 SHL SUB AND PUSH1 0x0 SWAP1 DUP2 MSTORE PUSH1 0xE PUSH1 0x20 SWAP1 DUP2 MSTORE PUSH1 0x40 SWAP1 SWAP2 KECCAK256 PUSH1 0x1 ADD DUP1 SLOAD SWAP2 SWAP1 SWAP3 ADD SWAP2 SWAP1 PUSH2 0x4B04 SWAP1 PUSH2 0x5936 JUMP JUMPDEST DUP1 PUSH1 0x1F ADD PUSH1 0x20 DUP1 SWAP2 DIV MUL PUSH1 0x20 ADD PUSH1 0x40 MLOAD SWAP1 DUP2 ADD PUSH1 0x40 MSTORE DUP1 SWAP3 SWAP2 SWAP1 DUP2 DUP2 MSTORE PUSH1 0x20 ADD DUP3 DUP1 SLOAD PUSH2 0x4B30 SWAP1 PUSH2 0x5936 JUMP JUMPDEST DUP1 ISZERO PUSH2 0x4B7D JUMPI DUP1 PUSH1 0x1F LT PUSH2 0x4B52 JUMPI PUSH2 0x100 DUP1 DUP4 SLOAD DIV MUL DUP4 MSTORE SWAP2 PUSH1 0x20 ADD SWAP2 PUSH2 0x4B7D JUMP JUMPDEST DUP3 ADD SWAP2 SWAP1 PUSH1 0x0 MSTORE PUSH1 0x20 PUSH1 0x0 KECCAK256 SWAP1 JUMPDEST DUP2 SLOAD DUP2 MSTORE SWAP1 PUSH1 0x1 ADD SWAP1 PUSH1 0x20 ADD DUP1 DUP4 GT PUSH2 0x4B60 JUMPI DUP3 SWAP1 SUB PUSH1 0x1F AND DUP3 ADD SWAP2 JUMPDEST POP POP POP POP POP DUP2 MSTORE PUSH1 0x20 ADD DUP7 DUP2 MSTORE PUSH1 0x20 ADD DUP5 PUSH1 0x2 ADD DUP1 SLOAD PUSH2 0x4B9C SWAP1 PUSH2 0x5936 JUMP JUMPDEST DUP1 PUSH1 0x1F ADD PUSH1 0x20 DUP1 SWAP2 DIV MUL PUSH1 0x20 ADD PUSH1 0x40 MLOAD SWAP1 DUP2 ADD PUSH1 0x40 MSTORE DUP1 SWAP3 SWAP2 SWAP1 DUP2 DUP2 MSTORE PUSH1 0x20 ADD DUP3 DUP1 SLOAD PUSH2 0x4BC8 SWAP1 PUSH2 0x5936 JUMP JUMPDEST DUP1 ISZERO PUSH2 0x4C15 JUMPI DUP1 PUSH1 0x1F LT PUSH2 0x4BEA JUMPI PUSH2 0x100 DUP1 DUP4 SLOAD DIV MUL DUP4 MSTORE SWAP2 PUSH1 0x20 ADD SWAP2 PUSH2 0x4C15 JUMP JUMPDEST DUP3 ADD SWAP2 SWAP1 PUSH1 0x0 MSTORE PUSH1 0x20 PUSH1 0x0 KECCAK256 SWAP1 JUMPDEST DUP2 SLOAD DUP2 MSTORE SWAP1 PUSH1 0x1 ADD SWAP1 PUSH1 0x20 ADD DUP1 DUP4 GT PUSH2 0x4BF8 JUMPI DUP3 SWAP1 SUB PUSH1 0x1F AND DUP3 ADD SWAP2 JUMPDEST POP POP POP SWAP2 DUP4 MSTORE POP POP PUSH1 0x8 DUP1 DUP7 ADD SLOAD PUSH1 0x20 SWAP3 DUP4 ADD MSTORE DUP4 SLOAD PUSH1 0x1 DUP2 DUP2 ADD DUP7 SSTORE PUSH1 0x0 SWAP6 DUP7 MSTORE SWAP5 DUP4 SWAP1 KECCAK256 DUP5 MLOAD SWAP2 SWAP1 SWAP3 MUL SWAP1 SWAP2 ADD SWAP1 DUP2 SSTORE SWAP1 DUP3 ADD MLOAD SWAP3 DUP2 ADD DUP1 SLOAD PUSH1 0x1 PUSH1 0x1 PUSH1 0xA0 SHL SUB SWAP5 DUP6 AND PUSH1 0x1 PUSH1 0x1 PUSH1 0xA0 SHL SUB NOT SWAP2 DUP3 AND OR SWAP1 SWAP2 SSTORE PUSH1 0x40 DUP4 ADD MLOAD PUSH1 0x2 DUP4 ADD DUP1 SLOAD SWAP2 SWAP1 SWAP6 AND SWAP2 AND OR SWAP1 SWAP3 SSTORE PUSH1 0x60 DUP2 ADD MLOAD SWAP1 SWAP2 SWAP1 PUSH1 0x3 DUP3 ADD SWAP1 PUSH2 0x4C97 SWAP1 DUP3 PUSH2 0x5A76 JUMP JUMPDEST POP PUSH1 0x80 DUP3 ADD MLOAD PUSH1 0x4 DUP3 ADD SWAP1 PUSH2 0x4CAC SWAP1 DUP3 PUSH2 0x5A76 JUMP JUMPDEST POP PUSH1 0xA0 DUP3 ADD MLOAD PUSH1 0x5 DUP3 ADD SSTORE PUSH1 0xC0 DUP3 ADD MLOAD PUSH1 0x6 DUP3 ADD SWAP1 PUSH2 0x4CCB SWAP1 DUP3 PUSH2 0x5A76 JUMP JUMPDEST POP PUSH1 0xE0 DUP3 ADD MLOAD DUP2 PUSH1 0x7 ADD SSTORE POP POP POP POP POP POP POP JUMP JUMPDEST PUSH1 0x0 DUP1 PUSH1 0x0 PUSH1 0x60 DUP1 PUSH1 0x60 DUP1 PUSH1 0x60 PUSH1 0x0 DUP1 PUSH1 0x1 PUSH1 0x0 DUP14 PUSH1 0x1 PUSH1 0x1 PUSH1 0xA0 SHL SUB AND PUSH1 0x1 PUSH1 0x1 PUSH1 0xA0 SHL SUB AND DUP2 MSTORE PUSH1 0x20 ADD SWAP1 DUP2 MSTORE PUSH1 0x20 ADD PUSH1 0x0 KECCAK256 DUP12 DUP2 SLOAD DUP2 LT PUSH2 0x4D25 JUMPI PUSH2 0x4D25 PUSH2 0x5970 JUMP JUMPDEST PUSH1 0x0 SWAP2 DUP3 MSTORE PUSH1 0x20 SWAP2 DUP3 SWAP1 KECCAK256 PUSH1 0x40 DUP1 MLOAD PUSH2 0x120 DUP2 ADD DUP3 MSTORE PUSH1 0x9 SWAP1 SWAP4 MUL SWAP1 SWAP2 ADD DUP1 SLOAD DUP4 MSTORE PUSH1 0x1 DUP2 ADD SLOAD PUSH1 0x1 PUSH1 0x1 PUSH1 0xA0 SHL SUB SWAP1 DUP2 AND SWAP5 DUP5 ADD SWAP5 SWAP1 SWAP5 MSTORE PUSH1 0x2 DUP2 ADD SLOAD SWAP1 SWAP4 AND SWAP1 DUP3 ADD MSTORE PUSH1 0x3 DUP3 ADD DUP1 SLOAD SWAP2 SWAP3 SWAP2 PUSH1 0x60 DUP5 ADD SWAP2 SWAP1 PUSH2 0x4D82 SWAP1 PUSH2 0x5936 JUMP JUMPDEST DUP1 PUSH1 0x1F ADD PUSH1 0x20 DUP1 SWAP2 DIV MUL PUSH1 0x20 ADD PUSH1 0x40 MLOAD SWAP1 DUP2 ADD PUSH1 0x40 MSTORE DUP1 SWAP3 SWAP2 SWAP1 DUP2 DUP2 MSTORE PUSH1 0x20 ADD DUP3 DUP1 SLOAD PUSH2 0x4DAE SWAP1 PUSH2 0x5936 JUMP JUMPDEST DUP1 ISZERO PUSH2 0x4DFB JUMPI DUP1 PUSH1 0x1F LT PUSH2 0x4DD0 JUMPI PUSH2 0x100 DUP1 DUP4 SLOAD DIV MUL DUP4 MSTORE SWAP2 PUSH1 0x20 ADD SWAP2 PUSH2 0x4DFB JUMP JUMPDEST DUP3 ADD SWAP2 SWAP1 PUSH1 0x0 MSTORE PUSH1 0x20 PUSH1 0x0 KECCAK256 SWAP1 JUMPDEST DUP2 SLOAD DUP2 MSTORE SWAP1 PUSH1 0x1 ADD SWAP1 PUSH1 0x20 ADD DUP1 DUP4 GT PUSH2 0x4DDE JUMPI DUP3 SWAP1 SUB PUSH1 0x1F AND DUP3 ADD SWAP2 JUMPDEST POP POP POP POP POP DUP2 MSTORE PUSH1 0x20 ADD PUSH1 0x4 DUP3 ADD DUP1 SLOAD PUSH2 0x4E14 SWAP1 PUSH2 0x5936 JUMP JUMPDEST DUP1 PUSH1 0x1F ADD PUSH1 0x20 DUP1 SWAP2 DIV MUL PUSH1 0x20 ADD PUSH1 0x40 MLOAD SWAP1 DUP2 ADD PUSH1 0x40 MSTORE DUP1 SWAP3 SWAP2 SWAP1 DUP2 DUP2 MSTORE PUSH1 0x20 ADD DUP3 DUP1 SLOAD PUSH2 0x4E40 SWAP1 PUSH2 0x5936 JUMP JUMPDEST DUP1 ISZERO PUSH2 0x4E8D JUMPI DUP1 PUSH1 0x1F LT PUSH2 0x4E62 JUMPI PUSH2 0x100 DUP1 DUP4 SLOAD DIV MUL DUP4 MSTORE SWAP2 PUSH1 0x20 ADD SWAP2 PUSH2 0x4E8D JUMP JUMPDEST DUP3 ADD SWAP2 SWAP1 PUSH1 0x0 MSTORE PUSH1 0x20 PUSH1 0x0 KECCAK256 SWAP1 JUMPDEST DUP2 SLOAD DUP2 MSTORE SWAP1 PUSH1 0x1 ADD SWAP1 PUSH1 0x20 ADD DUP1 DUP4 GT PUSH2 0x4E70 JUMPI DUP3 SWAP1 SUB PUSH1 0x1F AND DUP3 ADD SWAP2 JUMPDEST POP POP POP POP POP DUP2 MSTORE PUSH1 0x20 ADD PUSH1 0x5 DUP3 ADD DUP1 SLOAD PUSH2 0x4EA6 SWAP1 PUSH2 0x5936 JUMP JUMPDEST DUP1 PUSH1 0x1F ADD PUSH1 0x20 DUP1 SWAP2 DIV MUL PUSH1 0x20 ADD PUSH1 0x40 MLOAD SWAP1 DUP2 ADD PUSH1 0x40 MSTORE DUP1 SWAP3 SWAP2 SWAP1 DUP2 DUP2 MSTORE PUSH1 0x20 ADD DUP3 DUP1 SLOAD PUSH2 0x4ED2 SWAP1 PUSH2 0x5936 JUMP JUMPDEST DUP1 ISZERO PUSH2 0x4F1F JUMPI DUP1 PUSH1 0x1F LT PUSH2 0x4EF4 JUMPI PUSH2 0x100 DUP1 DUP4 SLOAD DIV MUL DUP4 MSTORE SWAP2 PUSH1 0x20 ADD SWAP2 PUSH2 0x4F1F JUMP JUMPDEST DUP3 ADD SWAP2 SWAP1 PUSH1 0x0 MSTORE PUSH1 0x20 PUSH1 0x0 KECCAK256 SWAP1 JUMPDEST DUP2 SLOAD DUP2 MSTORE SWAP1 PUSH1 0x1 ADD SWAP1 PUSH1 0x20 ADD DUP1 DUP4 GT PUSH2 0x4F02 JUMPI DUP3 SWAP1 SUB PUSH1 0x1F AND DUP3 ADD SWAP2 JUMPDEST POP POP POP POP POP DUP2 MSTORE PUSH1 0x20 ADD PUSH1 0x6 DUP3 ADD DUP1 SLOAD PUSH2 0x4F38 SWAP1 PUSH2 0x5936 JUMP JUMPDEST DUP1 PUSH1 0x1F ADD PUSH1 0x20 DUP1 SWAP2 DIV MUL PUSH1 0x20 ADD PUSH1 0x40 MLOAD SWAP1 DUP2 ADD PUSH1 0x40 MSTORE DUP1 SWAP3 SWAP2 SWAP1 DUP2 DUP2 MSTORE PUSH1 0x20 ADD DUP3 DUP1 SLOAD PUSH2 0x4F64 SWAP1 PUSH2 0x5936 JUMP JUMPDEST DUP1 ISZERO PUSH2 0x4FB1 JUMPI DUP1 PUSH1 0x1F LT PUSH2 0x4F86 JUMPI PUSH2 0x100 DUP1 DUP4 SLOAD DIV MUL DUP4 MSTORE SWAP2 PUSH1 0x20 ADD SWAP2 PUSH2 0x4FB1 JUMP JUMPDEST DUP3 ADD SWAP2 SWAP1 PUSH1 0x0 MSTORE PUSH1 0x20 PUSH1 0x0 KECCAK256 SWAP1 JUMPDEST DUP2 SLOAD DUP2 MSTORE SWAP1 PUSH1 0x1 ADD SWAP1 PUSH1 0x20 ADD DUP1 DUP4 GT PUSH2 0x4F94 JUMPI DUP3 SWAP1 SUB PUSH1 0x1F AND DUP3 ADD SWAP2 JUMPDEST POP POP POP POP POP DUP2 MSTORE PUSH1 0x20 ADD PUSH1 0x7 DUP3 ADD DUP1 SLOAD PUSH2 0x4FCA SWAP1 PUSH2 0x5936 JUMP JUMPDEST DUP1 PUSH1 0x1F ADD PUSH1 0x20 DUP1 SWAP2 DIV MUL PUSH1 0x20 ADD PUSH1 0x40 MLOAD SWAP1 DUP2 ADD PUSH1 0x40 MSTORE DUP1 SWAP3 SWAP2 SWAP1 DUP2 DUP2 MSTORE PUSH1 0x20 ADD DUP3 DUP1 SLOAD PUSH2 0x4FF6 SWAP1 PUSH2 0x5936 JUMP JUMPDEST DUP1 ISZERO PUSH2 0x5043 JUMPI DUP1 PUSH1 0x1F LT PUSH2 0x5018 JUMPI PUSH2 0x100 DUP1 DUP4 SLOAD DIV MUL DUP4 MSTORE SWAP2 PUSH1 0x20 ADD SWAP2 PUSH2 0x5043 JUMP JUMPDEST DUP3 ADD SWAP2 SWAP1 PUSH1 0x0 MSTORE PUSH1 0x20 PUSH1 0x0 KECCAK256 SWAP1 JUMPDEST DUP2 SLOAD DUP2 MSTORE SWAP1 PUSH1 0x1 ADD SWAP1 PUSH1 0x20 ADD DUP1 DUP4 GT PUSH2 0x5026 JUMPI DUP3 SWAP1 SUB PUSH1 0x1F AND DUP3 ADD SWAP2 JUMPDEST POP POP POP POP POP DUP2 MSTORE PUSH1 0x20 ADD PUSH1 0x8 DUP3 ADD SLOAD DUP2 MSTORE POP POP SWAP1 POP DUP1 PUSH1 0x0 ADD MLOAD DUP2 PUSH1 0x20 ADD MLOAD DUP3 PUSH1 0x40 ADD MLOAD DUP4 PUSH1 0x60 ADD MLOAD DUP5 PUSH1 0x80 ADD MLOAD DUP6 PUSH1 0xA0 ADD MLOAD DUP7 PUSH1 0xC0 ADD MLOAD DUP8 PUSH1 0xE0 ADD MLOAD DUP9 PUSH2 0x100 ADD MLOAD SWAP10 POP SWAP10 POP SWAP10 POP SWAP10 POP SWAP10 POP SWAP10 POP SWAP10 POP SWAP10 POP SWAP10 POP POP SWAP3 SWAP6 SWAP9 POP SWAP3 SWAP6 SWAP9 POP SWAP3 SWAP6 SWAP9 JUMP JUMPDEST POP DUP1 SLOAD PUSH2 0x50B2 SWAP1 PUSH2 0x5936 JUMP JUMPDEST PUSH1 0x0 DUP3 SSTORE DUP1 PUSH1 0x1F LT PUSH2 0x50C2 JUMPI POP POP JUMP JUMPDEST PUSH1 0x1F ADD PUSH1 0x20 SWAP1 DIV SWAP1 PUSH1 0x0 MSTORE PUSH1 0x20 PUSH1 0x0 KECCAK256 SWAP1 DUP2 ADD SWAP1 PUSH2 0x50E0 SWAP2 SWAP1 PUSH2 0x50E3 JUMP JUMPDEST POP JUMP JUMPDEST JUMPDEST DUP1 DUP3 GT ISZERO PUSH2 0x50F8 JUMPI PUSH1 0x0 DUP2 SSTORE PUSH1 0x1 ADD PUSH2 0x50E4 JUMP JUMPDEST POP SWAP1 JUMP JUMPDEST PUSH1 0x0 PUSH1 0x20 DUP3 DUP5 SUB SLT ISZERO PUSH2 0x510E JUMPI PUSH1 0x0 DUP1 REVERT JUMPDEST POP CALLDATALOAD SWAP2 SWAP1 POP JUMP JUMPDEST PUSH1 0x0 DUP2 MLOAD DUP1 DUP5 MSTORE PUSH1 0x0 JUMPDEST DUP2 DUP2 LT ISZERO PUSH2 0x513B JUMPI PUSH1 0x20 DUP2 DUP6 ADD DUP2 ADD MLOAD DUP7 DUP4 ADD DUP3 ADD MSTORE ADD PUSH2 0x511F JUMP JUMPDEST POP PUSH1 0x0 PUSH1 0x20 DUP3 DUP7 ADD ADD MSTORE PUSH1 0x20 PUSH1 0x1F NOT PUSH1 0x1F DUP4 ADD AND DUP6 ADD ADD SWAP2 POP POP SWAP3 SWAP2 POP POP JUMP JUMPDEST PUSH2 0x120 DUP2 MSTORE PUSH1 0x0 PUSH2 0x5170 PUSH2 0x120 DUP4 ADD DUP13 PUSH2 0x5115 JUMP JUMPDEST DUP3 DUP2 SUB PUSH1 0x20 DUP5 ADD MSTORE PUSH2 0x5182 DUP2 DUP13 PUSH2 0x5115 JUMP JUMPDEST PUSH1 0x1 PUSH1 0x1 PUSH1 0xA0 SHL SUB SWAP11 DUP12 AND PUSH1 0x40 DUP6 ADD MSTORE SWAP9 DUP11 AND PUSH1 0x60 DUP5 ADD MSTORE POP POP SWAP5 SWAP1 SWAP7 AND PUSH1 0x80 DUP6 ADD MSTORE PUSH1 0xA0 DUP5 ADD SWAP3 SWAP1 SWAP3 MSTORE PUSH1 0xC0 DUP4 ADD MSTORE PUSH1 0xE0 DUP3 ADD MSTORE PUSH2 0x100 ADD SWAP2 SWAP1 SWAP2 MSTORE SWAP3 SWAP2 POP POP JUMP JUMPDEST DUP1 CALLDATALOAD PUSH1 0x3 DUP2 LT PUSH2 0x51D4 JUMPI PUSH1 0x0 DUP1 REVERT JUMPDEST SWAP2 SWAP1 POP JUMP JUMPDEST PUSH1 0x0 PUSH1 0x20 DUP3 DUP5 SUB SLT ISZERO PUSH2 0x51EB JUMPI PUSH1 0x0 DUP1 REVERT JUMPDEST PUSH2 0x51F4 DUP3 PUSH2 0x51C5 JUMP JUMPDEST SWAP4 SWAP3 POP POP POP JUMP JUMPDEST PUSH1 0x20 DUP1 DUP3 MSTORE DUP3 MLOAD DUP3 DUP3 ADD DUP2 SWAP1 MSTORE PUSH1 0x0 SWAP2 DUP5 ADD SWAP1 PUSH1 0x40 DUP5 ADD SWAP1 DUP4 JUMPDEST DUP2 DUP2 LT ISZERO PUSH2 0x523C JUMPI DUP4 MLOAD PUSH1 0x1 PUSH1 0x1 PUSH1 0xA0 SHL SUB AND DUP4 MSTORE PUSH1 0x20 SWAP4 DUP5 ADD SWAP4 SWAP1 SWAP3 ADD SWAP2 PUSH1 0x1 ADD PUSH2 0x5215 JUMP JUMPDEST POP SWAP1 SWAP6 SWAP5 POP POP POP POP POP JUMP JUMPDEST PUSH4 0x4E487B71 PUSH1 0xE0 SHL PUSH1 0x0 MSTORE PUSH1 0x21 PUSH1 0x4 MSTORE PUSH1 0x24 PUSH1 0x0 REVERT JUMPDEST PUSH1 0x3 DUP2 LT PUSH2 0x50E0 JUMPI PUSH4 0x4E487B71 PUSH1 0xE0 SHL PUSH1 0x0 MSTORE PUSH1 0x21 PUSH1 0x4 MSTORE PUSH1 0x24 PUSH1 0x0 REVERT JUMPDEST PUSH1 0x1 PUSH1 0x1 PUSH1 0xA0 SHL SUB DUP8 AND DUP2 MSTORE PUSH1 0xC0 PUSH1 0x20 DUP3 ADD DUP2 SWAP1 MSTORE PUSH1 0x0 SWAP1 PUSH2 0x529F SWAP1 DUP4 ADD DUP9 PUSH2 0x5115 JUMP JUMPDEST DUP3 DUP2 SUB PUSH1 0x40 DUP5 ADD MSTORE PUSH2 0x52B1 DUP2 DUP9 PUSH2 0x5115 JUMP JUMPDEST SWAP2 POP POP PUSH2 0x52BD DUP6 PUSH2 0x525D JUMP JUMPDEST PUSH1 0x60 DUP3 ADD SWAP5 SWAP1 SWAP5 MSTORE SWAP2 ISZERO ISZERO PUSH1 0x80 DUP4 ADD MSTORE ISZERO ISZERO PUSH1 0xA0 SWAP1 SWAP2 ADD MSTORE SWAP4 SWAP3 POP POP POP JUMP JUMPDEST DUP1 CALLDATALOAD PUSH1 0x1 PUSH1 0x1 PUSH1 0xA0 SHL SUB DUP2 AND DUP2 EQ PUSH2 0x51D4 JUMPI PUSH1 0x0 DUP1 REVERT JUMPDEST PUSH1 0x0 DUP1 PUSH1 0x40 DUP4 DUP6 SUB SLT ISZERO PUSH2 0x5306 JUMPI PUSH1 0x0 DUP1 REVERT JUMPDEST PUSH2 0x530F DUP4 PUSH2 0x52DC JUMP JUMPDEST SWAP5 PUSH1 0x20 SWAP4 SWAP1 SWAP4 ADD CALLDATALOAD SWAP4 POP POP POP JUMP JUMPDEST DUP9 DUP2 MSTORE PUSH1 0x1 PUSH1 0x1 PUSH1 0xA0 SHL SUB DUP9 AND PUSH1 0x20 DUP3 ADD MSTORE PUSH2 0x100 PUSH1 0x40 DUP3 ADD DUP2 SWAP1 MSTORE PUSH1 0x0 SWAP1 PUSH2 0x5348 SWAP1 DUP4 ADD DUP10 PUSH2 0x5115 JUMP JUMPDEST DUP3 DUP2 SUB PUSH1 0x60 DUP5 ADD MSTORE PUSH2 0x535A DUP2 DUP10 PUSH2 0x5115 JUMP JUMPDEST PUSH1 0x1 PUSH1 0x1 PUSH1 0xA0 SHL SUB DUP9 AND PUSH1 0x80 DUP6 ADD MSTORE DUP4 DUP2 SUB PUSH1 0xA0 DUP6 ADD MSTORE SWAP1 POP PUSH2 0x537D DUP2 DUP8 PUSH2 0x5115 JUMP JUMPDEST PUSH1 0x1 PUSH1 0x1 PUSH1 0xA0 SHL SUB SWAP6 SWAP1 SWAP6 AND PUSH1 0xC0 DUP5 ADD MSTORE POP POP PUSH1 0xE0 ADD MSTORE SWAP7 SWAP6 POP POP POP POP POP POP JUMP JUMPDEST PUSH1 0x0 PUSH1 0x20 DUP3 DUP5 SUB SLT ISZERO PUSH2 0x53B0 JUMPI PUSH1 0x0 DUP1 REVERT JUMPDEST PUSH2 0x51F4 DUP3 PUSH2 0x52DC JUMP JUMPDEST PUSH1 0x20 DUP2 MSTORE PUSH1 0x0 PUSH2 0x51F4 PUSH1 0x20 DUP4 ADD DUP5 PUSH2 0x5115 JUMP JUMPDEST PUSH4 0x4E487B71 PUSH1 0xE0 SHL PUSH1 0x0 MSTORE PUSH1 0x41 PUSH1 0x4 MSTORE PUSH1 0x24 PUSH1 0x0 REVERT JUMPDEST PUSH1 0x0 DUP3 PUSH1 0x1F DUP4 ADD SLT PUSH2 0x53F3 JUMPI PUSH1 0x0 DUP1 REVERT JUMPDEST DUP2 CALLDATALOAD PUSH8 0xFFFFFFFFFFFFFFFF DUP2 GT ISZERO PUSH2 0x540D JUMPI PUSH2 0x540D PUSH2 0x53CC JUMP JUMPDEST PUSH1 0x40 MLOAD PUSH1 0x1F DUP3 ADD PUSH1 0x1F NOT SWAP1 DUP2 AND PUSH1 0x3F ADD AND DUP2 ADD PUSH8 0xFFFFFFFFFFFFFFFF DUP2 GT DUP3 DUP3 LT OR ISZERO PUSH2 0x543C JUMPI PUSH2 0x543C PUSH2 0x53CC JUMP JUMPDEST PUSH1 0x40 MSTORE DUP2 DUP2 MSTORE DUP4 DUP3 ADD PUSH1 0x20 ADD DUP6 LT ISZERO PUSH2 0x5454 JUMPI PUSH1 0x0 DUP1 REVERT JUMPDEST DUP2 PUSH1 0x20 DUP6 ADD PUSH1 0x20 DUP4 ADD CALLDATACOPY PUSH1 0x0 SWAP2 DUP2 ADD PUSH1 0x20 ADD SWAP2 SWAP1 SWAP2 MSTORE SWAP4 SWAP3 POP POP POP JUMP JUMPDEST PUSH1 0x0 DUP1 PUSH1 0x0 DUP1 PUSH1 0x0 DUP1 PUSH1 0xC0 DUP8 DUP10 SUB SLT ISZERO PUSH2 0x548A JUMPI PUSH1 0x0 DUP1 REVERT JUMPDEST DUP7 CALLDATALOAD SWAP6 POP PUSH1 0x20 DUP8 ADD CALLDATALOAD SWAP5 POP PUSH2 0x54A1 PUSH1 0x40 DUP9 ADD PUSH2 0x52DC JUMP JUMPDEST SWAP4 POP PUSH2 0x54AF PUSH1 0x60 DUP9 ADD PUSH2 0x52DC JUMP JUMPDEST SWAP3 POP PUSH1 0x80 DUP8 ADD CALLDATALOAD PUSH8 0xFFFFFFFFFFFFFFFF DUP2 GT ISZERO PUSH2 0x54CB JUMPI PUSH1 0x0 DUP1 REVERT JUMPDEST PUSH2 0x54D7 DUP10 DUP3 DUP11 ADD PUSH2 0x53E2 JUMP JUMPDEST SWAP3 POP POP PUSH1 0xA0 DUP8 ADD CALLDATALOAD PUSH8 0xFFFFFFFFFFFFFFFF DUP2 GT ISZERO PUSH2 0x54F4 JUMPI PUSH1 0x0 DUP1 REVERT JUMPDEST PUSH2 0x5500 DUP10 DUP3 DUP11 ADD PUSH2 0x53E2 JUMP JUMPDEST SWAP2 POP POP SWAP3 SWAP6 POP SWAP3 SWAP6 POP SWAP3 SWAP6 JUMP JUMPDEST DUP9 DUP2 MSTORE PUSH2 0x100 PUSH1 0x20 DUP3 ADD MSTORE PUSH1 0x0 PUSH2 0x5528 PUSH2 0x100 DUP4 ADD DUP11 PUSH2 0x5115 JUMP JUMPDEST DUP3 DUP2 SUB PUSH1 0x40 DUP5 ADD MSTORE PUSH2 0x553A DUP2 DUP11 PUSH2 0x5115 JUMP JUMPDEST SWAP2 POP POP DUP7 PUSH1 0x60 DUP4 ADD MSTORE DUP6 PUSH1 0x80 DUP4 ADD MSTORE DUP5 PUSH1 0xA0 DUP4 ADD MSTORE PUSH1 0x1 DUP1 PUSH1 0xA0 SHL SUB DUP5 AND PUSH1 0xC0 DUP4 ADD MSTORE PUSH2 0x5566 DUP4 PUSH2 0x525D JUMP JUMPDEST DUP3 PUSH1 0xE0 DUP4 ADD MSTORE SWAP10 SWAP9 POP POP POP POP POP POP POP POP POP JUMP JUMPDEST PUSH1 0x0 DUP1 PUSH1 0x0 PUSH1 0x60 DUP5 DUP7 SUB SLT ISZERO PUSH2 0x558E JUMPI PUSH1 0x0 DUP1 REVERT JUMPDEST DUP4 CALLDATALOAD PUSH8 0xFFFFFFFFFFFFFFFF DUP2 GT ISZERO PUSH2 0x55A5 JUMPI PUSH1 0x0 DUP1 REVERT JUMPDEST PUSH2 0x55B1 DUP7 DUP3 DUP8 ADD PUSH2 0x53E2 JUMP JUMPDEST SWAP4 POP POP PUSH2 0x55C0 PUSH1 0x20 DUP6 ADD PUSH2 0x51C5 JUMP JUMPDEST SWAP2 POP PUSH1 0x40 DUP5 ADD CALLDATALOAD PUSH8 0xFFFFFFFFFFFFFFFF DUP2 GT ISZERO PUSH2 0x55DC JUMPI PUSH1 0x0 DUP1 REVERT JUMPDEST PUSH2 0x55E8 DUP7 DUP3 DUP8 ADD PUSH2 0x53E2 JUMP JUMPDEST SWAP2 POP POP SWAP3 POP SWAP3 POP SWAP3 JUMP JUMPDEST DUP11 DUP2 MSTORE PUSH2 0x140 PUSH1 0x20 DUP3 ADD MSTORE PUSH1 0x0 PUSH2 0x560D PUSH2 0x140 DUP4 ADD DUP13 PUSH2 0x5115 JUMP JUMPDEST DUP3 DUP2 SUB PUSH1 0x40 DUP5 ADD MSTORE PUSH2 0x561F DUP2 DUP13 PUSH2 0x5115 JUMP JUMPDEST PUSH1 0x1 PUSH1 0x1 PUSH1 0xA0 SHL SUB DUP12 DUP2 AND PUSH1 0x60 DUP7 ADD MSTORE DUP11 DUP2 AND PUSH1 0x80 DUP7 ADD MSTORE DUP10 AND PUSH1 0xA0 DUP6 ADD MSTORE DUP4 DUP2 SUB PUSH1 0xC0 DUP6 ADD MSTORE SWAP1 POP PUSH2 0x5652 DUP2 DUP9 PUSH2 0x5115 JUMP JUMPDEST SWAP1 POP DUP3 DUP2 SUB PUSH1 0xE0 DUP5 ADD MSTORE PUSH2 0x5666 DUP2 DUP8 PUSH2 0x5115 JUMP JUMPDEST SWAP2 POP POP DUP4 PUSH2 0x100 DUP4 ADD MSTORE PUSH2 0x5679 DUP4 PUSH2 0x525D JUMP JUMPDEST DUP3 PUSH2 0x120 DUP4 ADD MSTORE SWAP12 SWAP11 POP POP POP POP POP POP POP POP POP POP POP JUMP JUMPDEST DUP9 DUP2 MSTORE PUSH1 0x1 PUSH1 0x1 PUSH1 0xA0 SHL SUB DUP9 DUP2 AND PUSH1 0x20 DUP4 ADD MSTORE DUP8 AND PUSH1 0x40 DUP3 ADD MSTORE PUSH2 0x100 PUSH1 0x60 DUP3 ADD DUP2 SWAP1 MSTORE PUSH1 0x0 SWAP1 PUSH2 0x56C2 SWAP1 DUP4 ADD DUP9 PUSH2 0x5115 JUMP JUMPDEST DUP3 DUP2 SUB PUSH1 0x80 DUP5 ADD MSTORE PUSH2 0x56D4 DUP2 DUP9 PUSH2 0x5115 JUMP JUMPDEST SWAP1 POP DUP6 PUSH1 0xA0 DUP5 ADD MSTORE DUP3 DUP2 SUB PUSH1 0xC0 DUP5 ADD MSTORE PUSH2 0x56EE DUP2 DUP7 PUSH2 0x5115 JUMP JUMPDEST SWAP2 POP POP DUP3 PUSH1 0xE0 DUP4 ADD MSTORE SWAP10 SWAP9 POP POP POP POP POP POP POP POP POP JUMP JUMPDEST DUP10 DUP2 MSTORE PUSH1 0x1 PUSH1 0x1 PUSH1 0xA0 SHL SUB DUP10 DUP2 AND PUSH1 0x20 DUP4 ADD MSTORE DUP9 AND PUSH1 0x40 DUP3 ADD MSTORE PUSH2 0x120 PUSH1 0x60 DUP3 ADD DUP2 SWAP1 MSTORE PUSH1 0x0 SWAP1 PUSH2 0x5737 SWAP1 DUP4 ADD DUP10 PUSH2 0x5115 JUMP JUMPDEST DUP3 DUP2 SUB PUSH1 0x80 DUP5 ADD MSTORE PUSH2 0x5749 DUP2 DUP10 PUSH2 0x5115 JUMP JUMPDEST SWAP1 POP DUP3 DUP2 SUB PUSH1 0xA0 DUP5 ADD MSTORE PUSH2 0x575D DUP2 DUP9 PUSH2 0x5115 JUMP JUMPDEST SWAP1 POP DUP3 DUP2 SUB PUSH1 0xC0 DUP5 ADD MSTORE PUSH2 0x5771 DUP2 DUP8 PUSH2 0x5115 JUMP JUMPDEST SWAP1 POP DUP3 DUP2 SUB PUSH1 0xE0 DUP5 ADD MSTORE PUSH2 0x5785 DUP2 DUP7 PUSH2 0x5115 JUMP JUMPDEST SWAP2 POP POP DUP3 PUSH2 0x100 DUP4 ADD MSTORE SWAP11 SWAP10 POP POP POP POP POP POP POP POP POP POP JUMP JUMPDEST PUSH1 0x0 DUP1 PUSH1 0x0 DUP1 PUSH1 0x0 PUSH1 0xA0 DUP7 DUP9 SUB SLT ISZERO PUSH2 0x57B5 JUMPI PUSH1 0x0 DUP1 REVERT JUMPDEST DUP6 CALLDATALOAD PUSH8 0xFFFFFFFFFFFFFFFF DUP2 GT ISZERO PUSH2 0x57CC JUMPI PUSH1 0x0 DUP1 REVERT JUMPDEST PUSH2 0x57D8 DUP9 DUP3 DUP10 ADD PUSH2 0x53E2 JUMP JUMPDEST SWAP6 POP POP PUSH1 0x20 DUP7 ADD CALLDATALOAD PUSH8 0xFFFFFFFFFFFFFFFF DUP2 GT ISZERO PUSH2 0x57F5 JUMPI PUSH1 0x0 DUP1 REVERT JUMPDEST PUSH2 0x5801 DUP9 DUP3 DUP10 ADD PUSH2 0x53E2 JUMP JUMPDEST SWAP6 SWAP9 SWAP6 SWAP8 POP POP POP POP PUSH1 0x40 DUP5 ADD CALLDATALOAD SWAP4 PUSH1 0x60 DUP2 ADD CALLDATALOAD SWAP4 PUSH1 0x80 SWAP1 SWAP2 ADD CALLDATALOAD SWAP3 POP SWAP1 POP JUMP JUMPDEST PUSH1 0x20 DUP2 ADD PUSH2 0x582E DUP4 PUSH2 0x525D JUMP JUMPDEST SWAP2 SWAP1 MSTORE SWAP1 JUMP JUMPDEST PUSH1 0x1 PUSH1 0x1 PUSH1 0xA0 SHL SUB DUP7 AND DUP2 MSTORE PUSH1 0xA0 PUSH1 0x20 DUP3 ADD DUP2 SWAP1 MSTORE PUSH1 0x0 SWAP1 PUSH2 0x5858 SWAP1 DUP4 ADD DUP8 PUSH2 0x5115 JUMP JUMPDEST DUP3 DUP2 SUB PUSH1 0x40 DUP5 ADD MSTORE PUSH2 0x586A DUP2 DUP8 PUSH2 0x5115 JUMP JUMPDEST SWAP2 POP POP DUP4 PUSH1 0x60 DUP4 ADD MSTORE PUSH2 0x587C DUP4 PUSH2 0x525D JUMP JUMPDEST DUP3 PUSH1 0x80 DUP4 ADD MSTORE SWAP7 SWAP6 POP POP POP POP POP POP JUMP JUMPDEST PUSH1 0x1 PUSH1 0x1 PUSH1 0xA0 SHL SUB DUP6 AND DUP2 MSTORE PUSH1 0x80 PUSH1 0x20 DUP3 ADD DUP2 SWAP1 MSTORE PUSH1 0x0 SWAP1 PUSH2 0x58B0 SWAP1 DUP4 ADD DUP7 PUSH2 0x5115 JUMP JUMPDEST DUP3 DUP2 SUB PUSH1 0x40 DUP5 ADD MSTORE PUSH2 0x58C2 DUP2 DUP7 PUSH2 0x5115 JUMP JUMPDEST SWAP2 POP POP PUSH2 0x58CE DUP4 PUSH2 0x525D JUMP JUMPDEST DUP3 PUSH1 0x60 DUP4 ADD MSTORE SWAP6 SWAP5 POP POP POP POP POP JUMP JUMPDEST PUSH1 0x0 DUP1 PUSH1 0x40 DUP4 DUP6 SUB SLT ISZERO PUSH2 0x58F0 JUMPI PUSH1 0x0 DUP1 REVERT JUMPDEST POP POP DUP1 CALLDATALOAD SWAP3 PUSH1 0x20 SWAP1 SWAP2 ADD CALLDATALOAD SWAP2 POP JUMP JUMPDEST PUSH1 0x20 DUP1 DUP3 MSTORE PUSH1 0x19 SWAP1 DUP3 ADD MSTORE PUSH32 0x4163636573732064656E6965643A2077726F6E6720726F6C6500000000000000 PUSH1 0x40 DUP3 ADD MSTORE PUSH1 0x60 ADD SWAP1 JUMP JUMPDEST PUSH1 0x1 DUP2 DUP2 SHR SWAP1 DUP3 AND DUP1 PUSH2 0x594A JUMPI PUSH1 0x7F DUP3 AND SWAP2 POP JUMPDEST PUSH1 0x20 DUP3 LT DUP2 SUB PUSH2 0x596A JUMPI PUSH4 0x4E487B71 PUSH1 0xE0 SHL PUSH1 0x0 MSTORE PUSH1 0x22 PUSH1 0x4 MSTORE PUSH1 0x24 PUSH1 0x0 REVERT JUMPDEST POP SWAP2 SWAP1 POP JUMP JUMPDEST PUSH4 0x4E487B71 PUSH1 0xE0 SHL PUSH1 0x0 MSTORE PUSH1 0x32 PUSH1 0x4 MSTORE PUSH1 0x24 PUSH1 0x0 REVERT JUMPDEST PUSH1 0x20 DUP1 DUP3 MSTORE PUSH1 0x12 SWAP1 DUP3 ADD MSTORE PUSH18 0x2737BA1031B7B73A3930B1BA1037BBB732B9 PUSH1 0x71 SHL PUSH1 0x40 DUP3 ADD MSTORE PUSH1 0x60 ADD SWAP1 JUMP JUMPDEST PUSH4 0x4E487B71 PUSH1 0xE0 SHL PUSH1 0x0 MSTORE PUSH1 0x11 PUSH1 0x4 MSTORE PUSH1 0x24 PUSH1 0x0 REVERT JUMPDEST DUP2 DUP2 SUB DUP2 DUP2 GT ISZERO PUSH2 0x59DB JUMPI PUSH2 0x59DB PUSH2 0x59B2 JUMP JUMPDEST SWAP3 SWAP2 POP POP JUMP JUMPDEST PUSH4 0x4E487B71 PUSH1 0xE0 SHL PUSH1 0x0 MSTORE PUSH1 0x31 PUSH1 0x4 MSTORE PUSH1 0x24 PUSH1 0x0 REVERT JUMPDEST PUSH1 0x0 DUP2 PUSH2 0x5A06 JUMPI PUSH2 0x5A06 PUSH2 0x59B2 JUMP JUMPDEST POP PUSH1 0x0 NOT ADD SWAP1 JUMP JUMPDEST PUSH1 0x0 PUSH1 0x1 DUP3 ADD PUSH2 0x5A20 JUMPI PUSH2 0x5A20 PUSH2 0x59B2 JUMP JUMPDEST POP PUSH1 0x1 ADD SWAP1 JUMP JUMPDEST PUSH1 0x1F DUP3 GT ISZERO PUSH2 0x5A71 JUMPI DUP1 PUSH1 0x0 MSTORE PUSH1 0x20 PUSH1 0x0 KECCAK256 PUSH1 0x1F DUP5 ADD PUSH1 0x5 SHR DUP2 ADD PUSH1 0x20 DUP6 LT ISZERO PUSH2 0x5A4E JUMPI POP DUP1 JUMPDEST PUSH1 0x1F DUP5 ADD PUSH1 0x5 SHR DUP3 ADD SWAP2 POP JUMPDEST DUP2 DUP2 LT ISZERO PUSH2 0x5A6E JUMPI PUSH1 0x0 DUP2 SSTORE PUSH1 0x1 ADD PUSH2 0x5A5A JUMP JUMPDEST POP POP JUMPDEST POP POP POP JUMP JUMPDEST DUP2 MLOAD PUSH8 0xFFFFFFFFFFFFFFFF DUP2 GT ISZERO PUSH2 0x5A90 JUMPI PUSH2 0x5A90 PUSH2 0x53CC JUMP JUMPDEST PUSH2 0x5AA4 DUP2 PUSH2 0x5A9E DUP5 SLOAD PUSH2 0x5936 JUMP JUMPDEST DUP5 PUSH2 0x5A27 JUMP JUMPDEST PUSH1 0x20 PUSH1 0x1F DUP3 GT PUSH1 0x1 DUP2 EQ PUSH2 0x5AD8 JUMPI PUSH1 0x0 DUP4 ISZERO PUSH2 0x5AC0 JUMPI POP DUP5 DUP3 ADD MLOAD JUMPDEST PUSH1 0x0 NOT PUSH1 0x3 DUP6 SWAP1 SHL SHR NOT AND PUSH1 0x1 DUP5 SWAP1 SHL OR DUP5 SSTORE PUSH2 0x5A6E JUMP JUMPDEST PUSH1 0x0 DUP5 DUP2 MSTORE PUSH1 0x20 DUP2 KECCAK256 PUSH1 0x1F NOT DUP6 AND SWAP2 JUMPDEST DUP3 DUP2 LT ISZERO PUSH2 0x5B08 JUMPI DUP8 DUP6 ADD MLOAD DUP3 SSTORE PUSH1 0x20 SWAP5 DUP6 ADD SWAP5 PUSH1 0x1 SWAP1 SWAP3 ADD SWAP2 ADD PUSH2 0x5AE8 JUMP JUMPDEST POP DUP5 DUP3 LT ISZERO PUSH2 0x5B26 JUMPI DUP7 DUP5 ADD MLOAD PUSH1 0x0 NOT PUSH1 0x3 DUP8 SWAP1 SHL PUSH1 0xF8 AND SHR NOT AND DUP2 SSTORE JUMPDEST POP POP POP POP PUSH1 0x1 SWAP1 DUP2 SHL ADD SWAP1 SSTORE POP JUMP JUMPDEST DUP1 DUP3 ADD DUP1 DUP3 GT ISZERO PUSH2 0x59DB JUMPI PUSH2 0x59DB PUSH2 0x59B2 JUMP INVALID LOG2 PUSH5 0x6970667358 0x22 SLT KECCAK256 DUP5 ADDMOD SHL DUP2 0xB7 MULMOD 0xBF TIMESTAMP 0xBA SUB 0xB8 0xC6 0xEA SUB MULMOD EXP 0xE5 BLOBHASH 0xEF PUSH17 0xB0233DF9353DE080B5B8711064736F6C63 NUMBER STOP ADDMOD SHR STOP CALLER "
        },
        "methodIdentifiers": {
          "all_users(uint256)": "67dac2a0",
          "approve_role(uint256)": "bd5d0808",
          "check_application_result(address)": "89d219f8",
          "confirmArrival(uint256,uint256)": "ec7bf72b",
          "cropCount()": "dfd55a2c",
          "crop_count()": "77e0e7ea",
          "crops(uint256)": "70c9f1a5",
          "deliveryCount()": "5b77b6a6",
          "farmer_history(address,uint256)": "92bd337c",
          "farmers(uint256)": "8afdd669",
          "get_all_users_count()": "5c832800",
          "get_crop_byIndex(uint256)": "6004d2e3",
          "get_delivery_byIndex(uint256)": "b08aeaec",
          "get_delivery_count()": "9f96835a",
          "get_farmer_history_byIndex(address,uint256)": "2a42d705",
          "get_farmer_history_count(address)": "beeba5d6",
          "get_pending_request_byIndex(uint256)": "1d93f21e",
          "get_pending_request_count()": "598fa80c",
          "get_product_byIndex(uint256)": "9bcb1739",
          "get_store_history_byIndex(address,uint256)": "8b74b6c6",
          "get_store_history_count(address)": "56e80b98",
          "get_store_product_count()": "48445e4d",
          "get_transporter_history_byIndex(address,uint256)": "f82042fe",
          "get_transporter_history_count(address)": "9c1f9004",
          "get_user_byAddress(address)": "cf464f57",
          "get_user_byIndex(uint256)": "aa1c568e",
          "get_user_count()": "fd33482d",
          "get_user_details(address)": "d2965f04",
          "get_user_name(address)": "2b9575aa",
          "list_user_address(uint8)": "129b9dc3",
          "owner()": "8da5cb5b",
          "pendingDeliveries(uint256)": "69346942",
          "pendingUsers(uint256)": "53bdb1b0",
          "pending_users_count()": "45ecc2a7",
          "product_inStore(uint256)": "06f06768",
          "product_inTransit(uint256)": "034da8ba",
          "registerCrop(string,string,uint256,uint256,uint256)": "92ab20f1",
          "reject_role(uint256)": "e36b4f64",
          "rejected_roles(uint256)": "4a9b4175",
          "request_for_role(string,uint8,string)": "6811a96e",
          "resign_user(address)": "36461c11",
          "roles(address)": "99374642",
          "send_to_transporter(uint256,uint256,address,address,string,string)": "4847bd56",
          "store_history(address,uint256)": "87e720e1",
          "store_managers(uint256)": "1ac0bce8",
          "store_product_count()": "2f3d819b",
          "transporter_history(address,uint256)": "8d165248",
          "transporters(uint256)": "29c2a877",
          "user_count()": "bb805f69",
          "users(address)": "a87430ba",
          "wallet_identity(address)": "911dacdc"
        }
      }
    }
  }
}