{
  "contracts/agric-tech.sol": {
    "FarmToStoreTraceability": {
      "abi": [
        {
          "inputs": [],
          "stateMutability": "nonpayable",
          "type": "constructor"
        },
        {
          "inputs": [
            {
              "internalType": "uint256",
              "name": "",
              "type": "uint256"
            }
          ],
          "name": "all_users",
          "outputs": [
            {
              "internalType": "address",
              "name": "",
              "type": "address"
            }
          ],
          "stateMutability": "view",
          "type": "function"
        },
        {
          "inputs": [
            {
              "internalType": "uint256",
              "name": "id",
              "type": "uint256"
            }
          ],
          "name": "approve_role",
          "outputs": [],
          "stateMutability": "nonpayable",
          "type": "function"
        },
        {
          "inputs": [
            {
              "internalType": "address",
              "name": "_address",
              "type": "address"
            }
          ],
          "name": "check_application_result",
          "outputs": [
            {
              "internalType": "bool",
              "name": "",
              "type": "bool"
            }
          ],
          "stateMutability": "view",
          "type": "function"
        },
        {
          "inputs": [
            {
              "internalType": "uint256",
              "name": "cropId",
              "type": "uint256"
            },
            {
              "internalType": "uint256",
              "name": "arrival_date",
              "type": "uint256"
            }
          ],
          "name": "confirmArrival",
          "outputs": [],
          "stateMutability": "nonpayable",
          "type": "function"
        },
        {
          "inputs": [],
          "name": "cropCount",
          "outputs": [
            {
              "internalType": "uint256",
              "name": "",
              "type": "uint256"
            }
          ],
          "stateMutability": "view",
          "type": "function"
        },
        {
          "inputs": [],
          "name": "crop_count",
          "outputs": [
            {
              "internalType": "uint256",
              "name": "",
              "type": "uint256"
            }
          ],
          "stateMutability": "view",
          "type": "function"
        },
        {
          "inputs": [
            {
              "internalType": "uint256",
              "name": "",
              "type": "uint256"
            }
          ],
          "name": "crops",
          "outputs": [
            {
              "internalType": "uint256",
              "name": "id",
              "type": "uint256"
            },
            {
              "internalType": "string",
              "name": "crop_id",
              "type": "string"
            },
            {
              "internalType": "string",
              "name": "name",
              "type": "string"
            },
            {
              "internalType": "uint256",
              "name": "quantity",
              "type": "uint256"
            },
            {
              "internalType": "uint256",
              "name": "price_per_unit",
              "type": "uint256"
            },
            {
              "internalType": "uint256",
              "name": "harvestDate",
              "type": "uint256"
            },
            {
              "internalType": "address",
              "name": "farmer",
              "type": "address"
            },
            {
              "internalType": "enum FarmToStoreTraceability.Crop_Status",
              "name": "status",
              "type": "uint8"
            }
          ],
          "stateMutability": "view",
          "type": "function"
        },
        {
          "inputs": [],
          "name": "deliveryCount",
          "outputs": [
            {
              "internalType": "uint256",
              "name": "",
              "type": "uint256"
            }
          ],
          "stateMutability": "view",
          "type": "function"
        },
        {
          "inputs": [
            {
              "internalType": "address",
              "name": "",
              "type": "address"
            },
            {
              "internalType": "uint256",
              "name": "",
              "type": "uint256"
            }
          ],
          "name": "farmer_history",
          "outputs": [
            {
              "internalType": "uint256",
              "name": "id",
              "type": "uint256"
            },
            {
              "internalType": "address",
              "name": "farmer",
              "type": "address"
            },
            {
              "internalType": "string",
              "name": "product_name",
              "type": "string"
            },
            {
              "internalType": "string",
              "name": "sent_to",
              "type": "string"
            },
            {
              "internalType": "address",
              "name": "store",
              "type": "address"
            },
            {
              "internalType": "string",
              "name": "through",
              "type": "string"
            },
            {
              "internalType": "address",
              "name": "transporter",
              "type": "address"
            },
            {
              "internalType": "uint256",
              "name": "date",
              "type": "uint256"
            }
          ],
          "stateMutability": "view",
          "type": "function"
        },
        {
          "inputs": [
            {
              "internalType": "uint256",
              "name": "",
              "type": "uint256"
            }
          ],
          "name": "farmers",
          "outputs": [
            {
              "internalType": "address",
              "name": "",
              "type": "address"
            }
          ],
          "stateMutability": "view",
          "type": "function"
        },
        {
          "inputs": [],
          "name": "get_all_users_count",
          "outputs": [
            {
              "internalType": "uint256",
              "name": "",
              "type": "uint256"
            }
          ],
          "stateMutability": "view",
          "type": "function"
        },
        {
          "inputs": [
            {
              "internalType": "uint256",
              "name": "cropId",
              "type": "uint256"
            }
          ],
          "name": "get_crop_byIndex",
          "outputs": [
            {
              "internalType": "uint256",
              "name": "id",
              "type": "uint256"
            },
            {
              "internalType": "string",
              "name": "crop_id",
              "type": "string"
            },
            {
              "internalType": "string",
              "name": "name",
              "type": "string"
            },
            {
              "internalType": "uint256",
              "name": "quantity",
              "type": "uint256"
            },
            {
              "internalType": "uint256",
              "name": "harvestDate",
              "type": "uint256"
            },
            {
              "internalType": "uint256",
              "name": "price_per_unit",
              "type": "uint256"
            },
            {
              "internalType": "address",
              "name": "farmer",
              "type": "address"
            },
            {
              "internalType": "enum FarmToStoreTraceability.Crop_Status",
              "name": "status",
              "type": "uint8"
            }
          ],
          "stateMutability": "view",
          "type": "function"
        },
        {
          "inputs": [
            {
              "internalType": "uint256",
              "name": "crop_id",
              "type": "uint256"
            }
          ],
          "name": "get_delivery_byIndex",
          "outputs": [
            {
              "internalType": "uint256",
              "name": "id",
              "type": "uint256"
            },
            {
              "internalType": "string",
              "name": "cropId",
              "type": "string"
            },
            {
              "internalType": "string",
              "name": "name",
              "type": "string"
            },
            {
              "internalType": "address",
              "name": "farmer",
              "type": "address"
            },
            {
              "internalType": "address",
              "name": "transporter",
              "type": "address"
            },
            {
              "internalType": "address",
              "name": "store",
              "type": "address"
            },
            {
              "internalType": "string",
              "name": "pick_up_location",
              "type": "string"
            },
            {
              "internalType": "string",
              "name": "destination",
              "type": "string"
            },
            {
              "internalType": "uint256",
              "name": "quantity",
              "type": "uint256"
            },
            {
              "internalType": "enum FarmToStoreTraceability.Crop_Status",
              "name": "status",
              "type": "uint8"
            }
          ],
          "stateMutability": "view",
          "type": "function"
        },
        {
          "inputs": [],
          "name": "get_delivery_count",
          "outputs": [
            {
              "internalType": "uint256",
              "name": "",
              "type": "uint256"
            }
          ],
          "stateMutability": "view",
          "type": "function"
        },
        {
          "inputs": [
            {
              "internalType": "address",
              "name": "_farmer",
              "type": "address"
            },
            {
              "internalType": "uint256",
              "name": "index",
              "type": "uint256"
            }
          ],
          "name": "get_farmer_history_byIndex",
          "outputs": [
            {
              "internalType": "uint256",
              "name": "id",
              "type": "uint256"
            },
            {
              "internalType": "address",
              "name": "farmer",
              "type": "address"
            },
            {
              "internalType": "string",
              "name": "product_name",
              "type": "string"
            },
            {
              "internalType": "string",
              "name": "sent_to",
              "type": "string"
            },
            {
              "internalType": "address",
              "name": "store",
              "type": "address"
            },
            {
              "internalType": "string",
              "name": "through",
              "type": "string"
            },
            {
              "internalType": "address",
              "name": "transporter",
              "type": "address"
            },
            {
              "internalType": "uint256",
              "name": "date",
              "type": "uint256"
            }
          ],
          "stateMutability": "view",
          "type": "function"
        },
        {
          "inputs": [
            {
              "internalType": "address",
              "name": "_user",
              "type": "address"
            },
            {
              "internalType": "enum FarmToStoreTraceability.Role",
              "name": "_role",
              "type": "uint8"
            }
          ],
          "name": "get_history_count",
          "outputs": [
            {
              "internalType": "uint256",
              "name": "",
              "type": "uint256"
            }
          ],
          "stateMutability": "view",
          "type": "function"
        },
        {
          "inputs": [
            {
              "internalType": "uint256",
              "name": "id",
              "type": "uint256"
            }
          ],
          "name": "get_pending_request_byIndex",
          "outputs": [
            {
              "internalType": "address",
              "name": "pending_address",
              "type": "address"
            },
            {
              "internalType": "string",
              "name": "name",
              "type": "string"
            },
            {
              "internalType": "string",
              "name": "location",
              "type": "string"
            },
            {
              "internalType": "enum FarmToStoreTraceability.Role",
              "name": "requestedRole",
              "type": "uint8"
            },
            {
              "internalType": "bool",
              "name": "isApproved",
              "type": "bool"
            },
            {
              "internalType": "bool",
              "name": "exists",
              "type": "bool"
            }
          ],
          "stateMutability": "view",
          "type": "function"
        },
        {
          "inputs": [],
          "name": "get_pending_request_count",
          "outputs": [
            {
              "internalType": "uint256",
              "name": "",
              "type": "uint256"
            }
          ],
          "stateMutability": "view",
          "type": "function"
        },
        {
          "inputs": [
            {
              "internalType": "string",
              "name": "_crop_id",
              "type": "string"
            }
          ],
          "name": "get_product_byCropId",
          "outputs": [
            {
              "internalType": "string",
              "name": "crop_id",
              "type": "string"
            },
            {
              "internalType": "string",
              "name": "name",
              "type": "string"
            },
            {
              "internalType": "address",
              "name": "owner_address",
              "type": "address"
            },
            {
              "internalType": "address",
              "name": "transporter_address",
              "type": "address"
            },
            {
              "internalType": "address",
              "name": "store_address",
              "type": "address"
            },
            {
              "internalType": "uint256",
              "name": "harvestDate",
              "type": "uint256"
            },
            {
              "internalType": "uint256",
              "name": "quantity",
              "type": "uint256"
            },
            {
              "internalType": "uint256",
              "name": "price_per_unit",
              "type": "uint256"
            },
            {
              "internalType": "uint256",
              "name": "arrival_date",
              "type": "uint256"
            }
          ],
          "stateMutability": "view",
          "type": "function"
        },
        {
          "inputs": [
            {
              "internalType": "uint256",
              "name": "product_id",
              "type": "uint256"
            }
          ],
          "name": "get_product_byIndex",
          "outputs": [
            {
              "internalType": "string",
              "name": "crop_id",
              "type": "string"
            },
            {
              "internalType": "string",
              "name": "name",
              "type": "string"
            },
            {
              "internalType": "address",
              "name": "owner_address",
              "type": "address"
            },
            {
              "internalType": "address",
              "name": "transporter_address",
              "type": "address"
            },
            {
              "internalType": "address",
              "name": "store_address",
              "type": "address"
            },
            {
              "internalType": "uint256",
              "name": "harvestDate",
              "type": "uint256"
            },
            {
              "internalType": "uint256",
              "name": "quantity",
              "type": "uint256"
            },
            {
              "internalType": "uint256",
              "name": "price_per_unit",
              "type": "uint256"
            },
            {
              "internalType": "uint256",
              "name": "arrival_date",
              "type": "uint256"
            }
          ],
          "stateMutability": "view",
          "type": "function"
        },
        {
          "inputs": [
            {
              "internalType": "address",
              "name": "_store",
              "type": "address"
            },
            {
              "internalType": "uint256",
              "name": "index",
              "type": "uint256"
            }
          ],
          "name": "get_store_history_byIndex",
          "outputs": [
            {
              "internalType": "uint256",
              "name": "id",
              "type": "uint256"
            },
            {
              "internalType": "address",
              "name": "farmer",
              "type": "address"
            },
            {
              "internalType": "address",
              "name": "transporter",
              "type": "address"
            },
            {
              "internalType": "string",
              "name": "farmer_name",
              "type": "string"
            },
            {
              "internalType": "string",
              "name": "transporter_name",
              "type": "string"
            },
            {
              "internalType": "uint256",
              "name": "date",
              "type": "uint256"
            },
            {
              "internalType": "string",
              "name": "product_name",
              "type": "string"
            },
            {
              "internalType": "uint256",
              "name": "quantity",
              "type": "uint256"
            }
          ],
          "stateMutability": "view",
          "type": "function"
        },
        {
          "inputs": [],
          "name": "get_store_product_count",
          "outputs": [
            {
              "internalType": "uint256",
              "name": "",
              "type": "uint256"
            }
          ],
          "stateMutability": "view",
          "type": "function"
        },
        {
          "inputs": [
            {
              "internalType": "address",
              "name": "_transporter",
              "type": "address"
            },
            {
              "internalType": "uint256",
              "name": "index",
              "type": "uint256"
            }
          ],
          "name": "get_transporter_history_byIndex",
          "outputs": [
            {
              "internalType": "uint256",
              "name": "id",
              "type": "uint256"
            },
            {
              "internalType": "address",
              "name": "farmer",
              "type": "address"
            },
            {
              "internalType": "address",
              "name": "store",
              "type": "address"
            },
            {
              "internalType": "string",
              "name": "farmer_name",
              "type": "string"
            },
            {
              "internalType": "string",
              "name": "store_name",
              "type": "string"
            },
            {
              "internalType": "string",
              "name": "crop_name",
              "type": "string"
            },
            {
              "internalType": "string",
              "name": "from",
              "type": "string"
            },
            {
              "internalType": "string",
              "name": "to",
              "type": "string"
            },
            {
              "internalType": "uint256",
              "name": "date",
              "type": "uint256"
            }
          ],
          "stateMutability": "view",
          "type": "function"
        },
        {
          "inputs": [
            {
              "internalType": "address",
              "name": "_address",
              "type": "address"
            }
          ],
          "name": "get_user_byAddress",
          "outputs": [
            {
              "internalType": "address",
              "name": "user_address",
              "type": "address"
            },
            {
              "internalType": "string",
              "name": "name",
              "type": "string"
            },
            {
              "internalType": "string",
              "name": "location",
              "type": "string"
            },
            {
              "internalType": "uint256",
              "name": "successful_delivery",
              "type": "uint256"
            },
            {
              "internalType": "enum FarmToStoreTraceability.Role",
              "name": "role",
              "type": "uint8"
            }
          ],
          "stateMutability": "view",
          "type": "function"
        },
        {
          "inputs": [
            {
              "internalType": "uint256",
              "name": "index",
              "type": "uint256"
            }
          ],
          "name": "get_user_byIndex",
          "outputs": [
            {
              "internalType": "address",
              "name": "user_address",
              "type": "address"
            },
            {
              "internalType": "string",
              "name": "name",
              "type": "string"
            },
            {
              "internalType": "string",
              "name": "location",
              "type": "string"
            },
            {
              "internalType": "uint256",
              "name": "successful_delivery",
              "type": "uint256"
            },
            {
              "internalType": "enum FarmToStoreTraceability.Role",
              "name": "role",
              "type": "uint8"
            }
          ],
          "stateMutability": "view",
          "type": "function"
        },
        {
          "inputs": [],
          "name": "get_user_count",
          "outputs": [
            {
              "internalType": "uint256",
              "name": "",
              "type": "uint256"
            }
          ],
          "stateMutability": "view",
          "type": "function"
        },
        {
          "inputs": [
            {
              "internalType": "address",
              "name": "_address",
              "type": "address"
            }
          ],
          "name": "get_user_name",
          "outputs": [
            {
              "internalType": "string",
              "name": "",
              "type": "string"
            }
          ],
          "stateMutability": "view",
          "type": "function"
        },
        {
          "inputs": [
            {
              "internalType": "enum FarmToStoreTraceability.Role",
              "name": "role",
              "type": "uint8"
            }
          ],
          "name": "list_user_address",
          "outputs": [
            {
              "internalType": "address[]",
              "name": "",
              "type": "address[]"
            }
          ],
          "stateMutability": "view",
          "type": "function"
        },
        {
          "inputs": [],
          "name": "owner",
          "outputs": [
            {
              "internalType": "address",
              "name": "",
              "type": "address"
            }
          ],
          "stateMutability": "view",
          "type": "function"
        },
        {
          "inputs": [
            {
              "internalType": "uint256",
              "name": "",
              "type": "uint256"
            }
          ],
          "name": "pendingDeliveries",
          "outputs": [
            {
              "internalType": "uint256",
              "name": "id",
              "type": "uint256"
            },
            {
              "internalType": "string",
              "name": "cropId",
              "type": "string"
            },
            {
              "internalType": "string",
              "name": "name",
              "type": "string"
            },
            {
              "internalType": "address",
              "name": "farmer",
              "type": "address"
            },
            {
              "internalType": "address",
              "name": "transporter",
              "type": "address"
            },
            {
              "internalType": "address",
              "name": "store",
              "type": "address"
            },
            {
              "internalType": "string",
              "name": "pick_up_location",
              "type": "string"
            },
            {
              "internalType": "string",
              "name": "destination",
              "type": "string"
            },
            {
              "internalType": "uint256",
              "name": "quantity",
              "type": "uint256"
            },
            {
              "internalType": "enum FarmToStoreTraceability.Crop_Status",
              "name": "status",
              "type": "uint8"
            }
          ],
          "stateMutability": "view",
          "type": "function"
        },
        {
          "inputs": [
            {
              "internalType": "uint256",
              "name": "",
              "type": "uint256"
            }
          ],
          "name": "pendingUsers",
          "outputs": [
            {
              "internalType": "address",
              "name": "pending_address",
              "type": "address"
            },
            {
              "internalType": "string",
              "name": "name",
              "type": "string"
            },
            {
              "internalType": "string",
              "name": "location",
              "type": "string"
            },
            {
              "internalType": "enum FarmToStoreTraceability.Role",
              "name": "requestedRole",
              "type": "uint8"
            },
            {
              "internalType": "bool",
              "name": "isApproved",
              "type": "bool"
            },
            {
              "internalType": "bool",
              "name": "exists",
              "type": "bool"
            }
          ],
          "stateMutability": "view",
          "type": "function"
        },
        {
          "inputs": [],
          "name": "pending_users_count",
          "outputs": [
            {
              "internalType": "uint256",
              "name": "",
              "type": "uint256"
            }
          ],
          "stateMutability": "view",
          "type": "function"
        },
        {
          "inputs": [
            {
              "internalType": "uint256",
              "name": "",
              "type": "uint256"
            }
          ],
          "name": "product_inStore",
          "outputs": [
            {
              "internalType": "string",
              "name": "crop_id",
              "type": "string"
            },
            {
              "internalType": "string",
              "name": "name",
              "type": "string"
            },
            {
              "internalType": "address",
              "name": "owner_address",
              "type": "address"
            },
            {
              "internalType": "address",
              "name": "transporter_address",
              "type": "address"
            },
            {
              "internalType": "address",
              "name": "store_address",
              "type": "address"
            },
            {
              "internalType": "uint256",
              "name": "harvestDate",
              "type": "uint256"
            },
            {
              "internalType": "uint256",
              "name": "quantity",
              "type": "uint256"
            },
            {
              "internalType": "uint256",
              "name": "price_per_unit",
              "type": "uint256"
            },
            {
              "internalType": "uint256",
              "name": "arrival_date",
              "type": "uint256"
            }
          ],
          "stateMutability": "view",
          "type": "function"
        },
        {
          "inputs": [
            {
              "internalType": "uint256",
              "name": "id",
              "type": "uint256"
            }
          ],
          "name": "product_inTransit",
          "outputs": [],
          "stateMutability": "nonpayable",
          "type": "function"
        },
        {
          "inputs": [
            {
              "internalType": "string",
              "name": "name",
              "type": "string"
            },
            {
              "internalType": "string",
              "name": "product_id",
              "type": "string"
            },
            {
              "internalType": "uint256",
              "name": "quantity",
              "type": "uint256"
            },
            {
              "internalType": "uint256",
              "name": "_price",
              "type": "uint256"
            },
            {
              "internalType": "uint256",
              "name": "harvestDate",
              "type": "uint256"
            }
          ],
          "name": "registerCrop",
          "outputs": [],
          "stateMutability": "nonpayable",
          "type": "function"
        },
        {
          "inputs": [
            {
              "internalType": "uint256",
              "name": "id",
              "type": "uint256"
            }
          ],
          "name": "reject_role",
          "outputs": [],
          "stateMutability": "nonpayable",
          "type": "function"
        },
        {
          "inputs": [
            {
              "internalType": "uint256",
              "name": "",
              "type": "uint256"
            }
          ],
          "name": "rejected_roles",
          "outputs": [
            {
              "internalType": "address",
              "name": "",
              "type": "address"
            }
          ],
          "stateMutability": "view",
          "type": "function"
        },
        {
          "inputs": [
            {
              "internalType": "string",
              "name": "name",
              "type": "string"
            },
            {
              "internalType": "enum FarmToStoreTraceability.Role",
              "name": "role",
              "type": "uint8"
            },
            {
              "internalType": "string",
              "name": "_location",
              "type": "string"
            }
          ],
          "name": "request_for_role",
          "outputs": [],
          "stateMutability": "nonpayable",
          "type": "function"
        },
        {
          "inputs": [
            {
              "internalType": "address",
              "name": "_address",
              "type": "address"
            }
          ],
          "name": "resign_user",
          "outputs": [],
          "stateMutability": "nonpayable",
          "type": "function"
        },
        {
          "inputs": [
            {
              "internalType": "address",
              "name": "",
              "type": "address"
            }
          ],
          "name": "roles",
          "outputs": [
            {
              "internalType": "enum FarmToStoreTraceability.Role",
              "name": "",
              "type": "uint8"
            }
          ],
          "stateMutability": "view",
          "type": "function"
        },
        {
          "inputs": [
            {
              "internalType": "uint256",
              "name": "id",
              "type": "uint256"
            },
            {
              "internalType": "uint256",
              "name": "_quantity",
              "type": "uint256"
            },
            {
              "internalType": "address",
              "name": "_store",
              "type": "address"
            },
            {
              "internalType": "address",
              "name": "transporter",
              "type": "address"
            }
          ],
          "name": "send_to_transporter",
          "outputs": [],
          "stateMutability": "nonpayable",
          "type": "function"
        },
        {
          "inputs": [
            {
              "internalType": "address",
              "name": "",
              "type": "address"
            },
            {
              "internalType": "uint256",
              "name": "",
              "type": "uint256"
            }
          ],
          "name": "store_history",
          "outputs": [
            {
              "internalType": "uint256",
              "name": "id",
              "type": "uint256"
            },
            {
              "internalType": "address",
              "name": "farmer",
              "type": "address"
            },
            {
              "internalType": "address",
              "name": "transporter",
              "type": "address"
            },
            {
              "internalType": "string",
              "name": "farmer_name",
              "type": "string"
            },
            {
              "internalType": "string",
              "name": "transporter_name",
              "type": "string"
            },
            {
              "internalType": "uint256",
              "name": "date",
              "type": "uint256"
            },
            {
              "internalType": "string",
              "name": "product_name",
              "type": "string"
            },
            {
              "internalType": "uint256",
              "name": "quantity",
              "type": "uint256"
            }
          ],
          "stateMutability": "view",
          "type": "function"
        },
        {
          "inputs": [
            {
              "internalType": "uint256",
              "name": "",
              "type": "uint256"
            }
          ],
          "name": "store_managers",
          "outputs": [
            {
              "internalType": "address",
              "name": "",
              "type": "address"
            }
          ],
          "stateMutability": "view",
          "type": "function"
        },
        {
          "inputs": [],
          "name": "store_product_count",
          "outputs": [
            {
              "internalType": "uint256",
              "name": "",
              "type": "uint256"
            }
          ],
          "stateMutability": "view",
          "type": "function"
        },
        {
          "inputs": [
            {
              "internalType": "address",
              "name": "",
              "type": "address"
            },
            {
              "internalType": "uint256",
              "name": "",
              "type": "uint256"
            }
          ],
          "name": "transporter_history",
          "outputs": [
            {
              "internalType": "uint256",
              "name": "id",
              "type": "uint256"
            },
            {
              "internalType": "address",
              "name": "farmer",
              "type": "address"
            },
            {
              "internalType": "address",
              "name": "store",
              "type": "address"
            },
            {
              "internalType": "string",
              "name": "farmer_name",
              "type": "string"
            },
            {
              "internalType": "string",
              "name": "store_name",
              "type": "string"
            },
            {
              "internalType": "string",
              "name": "crop_name",
              "type": "string"
            },
            {
              "internalType": "string",
              "name": "from",
              "type": "string"
            },
            {
              "internalType": "string",
              "name": "to",
              "type": "string"
            },
            {
              "internalType": "uint256",
              "name": "date",
              "type": "uint256"
            }
          ],
          "stateMutability": "view",
          "type": "function"
        },
        {
          "inputs": [
            {
              "internalType": "uint256",
              "name": "",
              "type": "uint256"
            }
          ],
          "name": "transporters",
          "outputs": [
            {
              "internalType": "address",
              "name": "",
              "type": "address"
            }
          ],
          "stateMutability": "view",
          "type": "function"
        },
        {
          "inputs": [],
          "name": "user_count",
          "outputs": [
            {
              "internalType": "uint256",
              "name": "",
              "type": "uint256"
            }
          ],
          "stateMutability": "view",
          "type": "function"
        },
        {
          "inputs": [
            {
              "internalType": "address",
              "name": "",
              "type": "address"
            }
          ],
          "name": "users",
          "outputs": [
            {
              "internalType": "address",
              "name": "user_address",
              "type": "address"
            },
            {
              "internalType": "string",
              "name": "name",
              "type": "string"
            },
            {
              "internalType": "string",
              "name": "location",
              "type": "string"
            },
            {
              "internalType": "uint256",
              "name": "successful_delivery",
              "type": "uint256"
            },
            {
              "internalType": "enum FarmToStoreTraceability.Role",
              "name": "role",
              "type": "uint8"
            }
          ],
          "stateMutability": "view",
          "type": "function"
        },
        {
          "inputs": [
            {
              "internalType": "address",
              "name": "connected_address",
              "type": "address"
            }
          ],
          "name": "wallet_identity",
          "outputs": [
            {
              "internalType": "string",
              "name": "",
              "type": "string"
            }
          ],
          "stateMutability": "view",
          "type": "function"
        }
      ],
      "evm": {
        "bytecode": {
          "linkReferences": {},
          "object": "6080604052348015600f57600080fd5b50600d80546001600160a01b03191633179055615e23806100316000396000f3fe608060405234801561001057600080fd5b50600436106102bb5760003560e01c80638175df6f116101825780639bcb1739116100e9578063bd5d0808116100a2578063e36b4f641161007c578063e36b4f64146106c5578063ec7bf72b146106d8578063f82042fe146106eb578063fd33482d146106fe57600080fd5b8063bd5d080814610696578063cf464f57146106a9578063dfd55a2c146106bc57600080fd5b80639bcb1739146106285780639f96835a1461063b578063a87430ba14610643578063aa1c568e14610667578063b08aeaec1461067a578063bb805f691461068d57600080fd5b80638da5cb5b1161013b5780638da5cb5b14610599578063911dacdc146105ac57806392ab20f1146105bf57806392bd337c146105d257806395111f5c146105e557806399374642146105f857600080fd5b80638175df6f146104ee57806387e720e11461050157806389d219f8146105285780638afdd6691461054b5780638b74b6c61461055e5780638d1652481461057157600080fd5b806348445e4d116102265780636004d2e3116101df5780636004d2e31461045d57806367dac2a0146104845780636811a96e1461049757806369346942146104aa57806370c9f1a5146104d357806377e0e7ea146104e657600080fd5b806348445e4d146104165780634a9b41751461041e57806353bdb1b014610431578063598fa80c146104445780635b77b6a61461044c5780635c8328001461045557600080fd5b80632a42d705116102785780632a42d705146103895780632b9575aa146103b05780632f3d819b146103d057806336461c11146103e7578063387d3ecc146103fa57806345ecc2a71461040d57600080fd5b8063034da8ba146102c057806306f06768146102d5578063129b9dc3146103065780631ac0bce8146103265780631d93f21e1461035157806329c2a87714610376575b600080fd5b6102d36102ce366004615380565b610706565b005b6102e86102e3366004615380565b610791565b6040516102fd999897969594939291906153df565b60405180910390f35b61031961031436600461545d565b6108f8565b6040516102fd919061547f565b610339610334366004615380565b610a6f565b6040516001600160a01b0390911681526020016102fd565b61036461035f366004615380565b610a99565b6040516102fd969594939291906154f5565b610339610384366004615380565b610cde565b61039c61039736600461556b565b610cee565b6040516102fd989796959493929190615595565b6103c36103be366004615616565b61100c565b6040516102fd9190615631565b6103d9600a5481565b6040519081526020016102fd565b6102d36103f5366004615616565b6110b1565b6102e86104083660046156e9565b611268565b6103d9600b5481565b600a546103d9565b61033961042c366004615380565b61154d565b61036461043f366004615380565b61155d565b600b546103d9565b6103d960095481565b600f546103d9565b61047061046b366004615380565b6116b6565b6040516102fd989796959493929190615736565b610339610492366004615380565b6118be565b6102d36104a53660046157a0565b6118ce565b6104bd6104b8366004615380565b6119e8565b6040516102fd9a99989796959493929190615819565b6104706104e1366004615380565b611c6d565b6008546103d9565b6103d96104fc3660046158b4565b611dce565b61051461050f36600461556b565b611e81565b6040516102fd9897969594939291906158e7565b61053b610536366004615616565b612087565b60405190151581526020016102fd565b610339610559366004615380565b6120e1565b61051461056c36600461556b565b6120f1565b61058461057f36600461556b565b612395565b6040516102fd9998979695949392919061595c565b600d54610339906001600160a01b031681565b6103c36105ba366004615616565b6126b1565b6102d36105cd3660046159f5565b61285b565b61039c6105e036600461556b565b6129cb565b6102d36105f3366004615a79565b612be8565b61061b610606366004615616565b60066020526000908152604090205460ff1681565b6040516102fd9190615abf565b6102e8610636366004615380565b613072565b6009546103d9565b610656610651366004615616565b6132c9565b6040516102fd959493929190615acd565b610656610675366004615380565b613416565b6104bd610688366004615380565b61363b565b6103d9600c5481565b6102d36106a4366004615380565b613983565b6106566106b7366004615616565b613e71565b6103d960085481565b6102d36106d3366004615380565b614039565b6102d36106e6366004615b23565b614125565b6105846106f936600461556b565b614f63565b600c546103d9565b6001803360009081526006602052604090205460ff16600281111561072d5761072d6154cb565b146107535760405162461bcd60e51b815260040161074a90615b45565b60405180910390fd5b5060009081526003602090815260408083206004909252909120600601805460ff60a01b1916600160a01b179055600901805460ff19166001179055565b6007602052600090815260409020805481906107ac90615b6c565b80601f01602080910402602001604051908101604052809291908181526020018280546107d890615b6c565b80156108255780601f106107fa57610100808354040283529160200191610825565b820191906000526020600020905b81548152906001019060200180831161080857829003601f168201915b50505050509080600101805461083a90615b6c565b80601f016020809104026020016040519081016040528092919081815260200182805461086690615b6c565b80156108b35780601f10610888576101008083540402835291602001916108b3565b820191906000526020600020905b81548152906001019060200180831161089657829003601f168201915b50505060028401546003850154600486015460058701546006880154600789015460089099015497986001600160a01b03958616989486169750929094169450929189565b6060600082600281111561090e5761090e6154cb565b0361097557601180548060200260200160405190810160405280929190818152602001828054801561096957602002820191906000526020600020905b81546001600160a01b0316815260019091019060200180831161094b575b50505050509050919050565b6001826002811115610989576109896154cb565b036109ee576012805480602002602001604051908101604052809291908181526020018280548015610969576020028201919060005260206000209081546001600160a01b0316815260019091019060200180831161094b5750505050509050919050565b6002826002811115610a0257610a026154cb565b03610a67576013805480602002602001604051908101604052809291908181526020018280548015610969576020028201919060005260206000209081546001600160a01b0316815260019091019060200180831161094b5750505050509050919050565b506060919050565b60138181548110610a7f57600080fd5b6000918252602090912001546001600160a01b0316905081565b600060608060008060008087118015610ab45750600b548711155b610b005760405162461bcd60e51b815260206004820152601a60248201527f496e76616c69642070656e64696e672072657175657374204944000000000000604482015260640161074a565b6000878152600560209081526040808320815160c0810190925280546001600160a01b031682526001810180549293919291840191610b3e90615b6c565b80601f0160208091040260200160405190810160405280929190818152602001828054610b6a90615b6c565b8015610bb75780601f10610b8c57610100808354040283529160200191610bb7565b820191906000526020600020905b815481529060010190602001808311610b9a57829003601f168201915b50505050508152602001600282018054610bd090615b6c565b80601f0160208091040260200160405190810160405280929190818152602001828054610bfc90615b6c565b8015610c495780601f10610c1e57610100808354040283529160200191610c49565b820191906000526020600020905b815481529060010190602001808311610c2c57829003601f168201915b5050509183525050600382015460209091019060ff166002811115610c7057610c706154cb565b6002811115610c8157610c816154cb565b81526003919091015460ff61010082048116151560208085019190915262010000909204161515604092830152825190830151918301516060840151608085015160a090950151929d939c50909a50985091965090945092505050565b60128181548110610a7f57600080fd5b6001600160a01b0382166000908152602081905260408120548190606090819083908290829081908910610d5a5760405162461bcd60e51b8152602060048201526013602482015272496e646578206f7574206f6620626f756e647360681b604482015260640161074a565b6001600160a01b038a16600090815260208190526040812080548b908110610d8457610d84615ba6565b906000526020600020906008020160405180610100016040529081600082015481526020016001820160009054906101000a90046001600160a01b03166001600160a01b03166001600160a01b03168152602001600282018054610de790615b6c565b80601f0160208091040260200160405190810160405280929190818152602001828054610e1390615b6c565b8015610e605780601f10610e3557610100808354040283529160200191610e60565b820191906000526020600020905b815481529060010190602001808311610e4357829003601f168201915b50505050508152602001600382018054610e7990615b6c565b80601f0160208091040260200160405190810160405280929190818152602001828054610ea590615b6c565b8015610ef25780601f10610ec757610100808354040283529160200191610ef2565b820191906000526020600020905b815481529060010190602001808311610ed557829003601f168201915b505050918352505060048201546001600160a01b03166020820152600582018054604090920191610f2290615b6c565b80601f0160208091040260200160405190810160405280929190818152602001828054610f4e90615b6c565b8015610f9b5780601f10610f7057610100808354040283529160200191610f9b565b820191906000526020600020905b815481529060010190602001808311610f7e57829003601f168201915b505050918352505060068201546001600160a01b0316602080830191909152600790920154604091820152825191830151908301516060840151608085015160a086015160c087015160e090970151959f50939d50919b509950975095509093509150509295985092959890939650565b6001600160a01b0381166000908152600e6020526040902060010180546060919061103690615b6c565b80601f016020809104026020016040519081016040528092919081815260200182805461106290615b6c565b80156109695780601f1061108457610100808354040283529160200191610969565b820191906000526020600020905b8154815290600101906020018083116110925750939695505050505050565b600d546001600160a01b031633146110db5760405162461bcd60e51b815260040161074a90615bbc565b6001600160a01b0381166000908152600e6020526040812080546001600160a01b03191681559061110f600183018261532a565b61111d60028301600061532a565b506000600382018190556004909101805460ff199081169091556001600160a01b0383168252600660205260408220805490911690555b600f5481101561124f57816001600160a01b0316600f828154811061117b5761117b615ba6565b6000918252602090912001546001600160a01b03160361124757600f80546111a590600190615bfe565b815481106111b5576111b5615ba6565b600091825260209091200154600f80546001600160a01b0390921691839081106111e1576111e1615ba6565b9060005260206000200160006101000a8154816001600160a01b0302191690836001600160a01b03160217905550600f80548061122057611220615c11565b600082815260209020810160001990810180546001600160a01b031916905501905561124f565b600101611154565b50600c805490600061126083615c27565b919050555050565b606080600080808080808060015b600a548111611503578a80519060200120600760008381526020019081526020016000206000016040516112aa9190615c3e565b6040518091039020036114f157600081815260076020526040808220815161012081019092528054829082906112df90615b6c565b80601f016020809104026020016040519081016040528092919081815260200182805461130b90615b6c565b80156113585780601f1061132d57610100808354040283529160200191611358565b820191906000526020600020905b81548152906001019060200180831161133b57829003601f168201915b5050505050815260200160018201805461137190615b6c565b80601f016020809104026020016040519081016040528092919081815260200182805461139d90615b6c565b80156113ea5780601f106113bf576101008083540402835291602001916113ea565b820191906000526020600020905b8154815290600101906020018083116113cd57829003601f168201915b505050505081526020016002820160009054906101000a90046001600160a01b03166001600160a01b03166001600160a01b031681526020016003820160009054906101000a90046001600160a01b03166001600160a01b03166001600160a01b031681526020016004820160009054906101000a90046001600160a01b03166001600160a01b03166001600160a01b031681526020016005820154815260200160068201548152602001600782015481526020016008820154815250509050806000015181602001518260400151836060015184608001518560a001518660c001518760e001518861010001519a509a509a509a509a509a509a509a509a505050611540565b806114fb81615cb3565b915050611276565b5060405162461bcd60e51b8152602060048201526011602482015270141c9bd91d58dd081b9bdd08199bdd5b99607a1b604482015260640161074a565b9193959799909294969850565b60108181548110610a7f57600080fd5b600560205260009081526040902080546001820180546001600160a01b03909216929161158990615b6c565b80601f01602080910402602001604051908101604052809291908181526020018280546115b590615b6c565b80156116025780601f106115d757610100808354040283529160200191611602565b820191906000526020600020905b8154815290600101906020018083116115e557829003601f168201915b50505050509080600201805461161790615b6c565b80601f016020809104026020016040519081016040528092919081815260200182805461164390615b6c565b80156116905780601f1061166557610100808354040283529160200191611690565b820191906000526020600020905b81548152906001019060200180831161167357829003601f168201915b5050506003909301549192505060ff808216916101008104821691620100009091041686565b6000606080600080600080600080600460008b815260200190815260200160002060405180610100016040529081600082015481526020016001820180546116fd90615b6c565b80601f016020809104026020016040519081016040528092919081815260200182805461172990615b6c565b80156117765780601f1061174b57610100808354040283529160200191611776565b820191906000526020600020905b81548152906001019060200180831161175957829003601f168201915b5050505050815260200160028201805461178f90615b6c565b80601f01602080910402602001604051908101604052809291908181526020018280546117bb90615b6c565b80156118085780601f106117dd57610100808354040283529160200191611808565b820191906000526020600020905b8154815290600101906020018083116117eb57829003601f168201915b50505091835250506003828101546020830152600483015460408301526005830154606083015260068301546001600160a01b038116608084015260a090920191600160a01b900460ff1690811115611863576118636154cb565b6003811115611874576118746154cb565b81525050905080600001518160200151826040015183606001518460a0015185608001518660c001518760e001519850985098509850985098509850985050919395975091939597565b600f8181548110610a7f57600080fd5b600b80549060006118de83615cb3565b91905055506040518060c00160405280336001600160a01b0316815260200184815260200182815260200183600281111561191b5761191b6154cb565b81526000602080830182905260016040938401819052600b5483526005825292909120835181546001600160a01b0319166001600160a01b0390911617815590830151909182019061196d9082615d1b565b50604082015160028201906119829082615d1b565b50606082015160038201805460ff191660018360028111156119a6576119a66154cb565b021790555060808201516003909101805460a0909301511515620100000262ff000019921515610100029290921662ffff001990931692909217179055505050565b60036020526000908152604090208054600182018054919291611a0a90615b6c565b80601f0160208091040260200160405190810160405280929190818152602001828054611a3690615b6c565b8015611a835780601f10611a5857610100808354040283529160200191611a83565b820191906000526020600020905b815481529060010190602001808311611a6657829003601f168201915b505050505090806002018054611a9890615b6c565b80601f0160208091040260200160405190810160405280929190818152602001828054611ac490615b6c565b8015611b115780601f10611ae657610100808354040283529160200191611b11565b820191906000526020600020905b815481529060010190602001808311611af457829003601f168201915b5050505060038301546004840154600585015460068601805495966001600160a01b03948516969385169550939091169291611b4c90615b6c565b80601f0160208091040260200160405190810160405280929190818152602001828054611b7890615b6c565b8015611bc55780601f10611b9a57610100808354040283529160200191611bc5565b820191906000526020600020905b815481529060010190602001808311611ba857829003601f168201915b505050505090806007018054611bda90615b6c565b80601f0160208091040260200160405190810160405280929190818152602001828054611c0690615b6c565b8015611c535780601f10611c2857610100808354040283529160200191611c53565b820191906000526020600020905b815481529060010190602001808311611c3657829003601f168201915b50505050600883015460099093015491929160ff1690508a565b60046020526000908152604090208054600182018054919291611c8f90615b6c565b80601f0160208091040260200160405190810160405280929190818152602001828054611cbb90615b6c565b8015611d085780601f10611cdd57610100808354040283529160200191611d08565b820191906000526020600020905b815481529060010190602001808311611ceb57829003601f168201915b505050505090806002018054611d1d90615b6c565b80601f0160208091040260200160405190810160405280929190818152602001828054611d4990615b6c565b8015611d965780601f10611d6b57610100808354040283529160200191611d96565b820191906000526020600020905b815481529060010190602001808311611d7957829003601f168201915b50505050600383015460048401546005850154600690950154939491939092506001600160a01b03811690600160a01b900460ff1688565b600080826002811115611de357611de36154cb565b03611e0757506001600160a01b038216600090815260208190526040902054611e7b565b6001826002811115611e1b57611e1b6154cb565b03611e3f57506001600160a01b038216600090815260016020526040902054611e7b565b6002826002811115611e5357611e536154cb565b03611e7757506001600160a01b038216600090815260026020526040902054611e7b565b5060005b92915050565b60026020528160005260406000208181548110611e9d57600080fd5b600091825260209091206008909102018054600182015460028301546003840180549396506001600160a01b03928316955091169291611edc90615b6c565b80601f0160208091040260200160405190810160405280929190818152602001828054611f0890615b6c565b8015611f555780601f10611f2a57610100808354040283529160200191611f55565b820191906000526020600020905b815481529060010190602001808311611f3857829003601f168201915b505050505090806004018054611f6a90615b6c565b80601f0160208091040260200160405190810160405280929190818152602001828054611f9690615b6c565b8015611fe35780601f10611fb857610100808354040283529160200191611fe3565b820191906000526020600020905b815481529060010190602001808311611fc657829003601f168201915b505050505090806005015490806006018054611ffe90615b6c565b80601f016020809104026020016040519081016040528092919081815260200182805461202a90615b6c565b80156120775780601f1061204c57610100808354040283529160200191612077565b820191906000526020600020905b81548152906001019060200180831161205a57829003601f168201915b5050505050908060070154905088565b6000805b6010548110156120d857601081815481106120a8576120a8615ba6565b6000918252602090912001546001600160a01b03908116908416036120d05750600092915050565b60010161208b565b50600192915050565b60118181548110610a7f57600080fd5b600080600060608060006060600080600260008c6001600160a01b03166001600160a01b031681526020019081526020016000208a8154811061213657612136615ba6565b6000918252602091829020604080516101008101825260089093029091018054835260018101546001600160a01b039081169484019490945260028101549093169082015260038201805491929160608401919061219390615b6c565b80601f01602080910402602001604051908101604052809291908181526020018280546121bf90615b6c565b801561220c5780601f106121e15761010080835404028352916020019161220c565b820191906000526020600020905b8154815290600101906020018083116121ef57829003601f168201915b5050505050815260200160048201805461222590615b6c565b80601f016020809104026020016040519081016040528092919081815260200182805461225190615b6c565b801561229e5780601f106122735761010080835404028352916020019161229e565b820191906000526020600020905b81548152906001019060200180831161228157829003601f168201915b50505050508152602001600582015481526020016006820180546122c190615b6c565b80601f01602080910402602001604051908101604052809291908181526020018280546122ed90615b6c565b801561233a5780601f1061230f5761010080835404028352916020019161233a565b820191906000526020600020905b81548152906001019060200180831161231d57829003601f168201915b505050505081526020016007820154815250509050806000015181602001518260400151836060015184608001518560a001518660c001518760e0015198509850985098509850985098509850509295985092959890939650565b600160205281600052604060002081815481106123b157600080fd5b600091825260209091206009909102018054600182015460028301546003840180549396506001600160a01b039283169550911692916123f090615b6c565b80601f016020809104026020016040519081016040528092919081815260200182805461241c90615b6c565b80156124695780601f1061243e57610100808354040283529160200191612469565b820191906000526020600020905b81548152906001019060200180831161244c57829003601f168201915b50505050509080600401805461247e90615b6c565b80601f01602080910402602001604051908101604052809291908181526020018280546124aa90615b6c565b80156124f75780601f106124cc576101008083540402835291602001916124f7565b820191906000526020600020905b8154815290600101906020018083116124da57829003601f168201915b50505050509080600501805461250c90615b6c565b80601f016020809104026020016040519081016040528092919081815260200182805461253890615b6c565b80156125855780601f1061255a57610100808354040283529160200191612585565b820191906000526020600020905b81548152906001019060200180831161256857829003601f168201915b50505050509080600601805461259a90615b6c565b80601f01602080910402602001604051908101604052809291908181526020018280546125c690615b6c565b80156126135780601f106125e857610100808354040283529160200191612613565b820191906000526020600020905b8154815290600101906020018083116125f657829003601f168201915b50505050509080600701805461262890615b6c565b80601f016020809104026020016040519081016040528092919081815260200182805461265490615b6c565b80156126a15780601f10612676576101008083540402835291602001916126a1565b820191906000526020600020905b81548152906001019060200180831161268457829003601f168201915b5050505050908060080154905089565b600d546060906001600160a01b03908116908316036126eb57505060408051808201909152600581526430b236b4b760d91b602082015290565b60005b601154811015612756576011818154811061270b5761270b615ba6565b6000918252602090912001546001600160a01b039081169084160361274e5750506040805180820190915260068152653330b936b2b960d11b6020820152919050565b6001016126ee565b5060005b6012548110156127c7576012818154811061277757612777615ba6565b6000918252602090912001546001600160a01b03908116908416036127bf57505060408051808201909152600b81526a3a3930b739b837b93a32b960a91b6020820152919050565b60010161275a565b5060005b60135481101561283957601381815481106127e8576127e8615ba6565b6000918252602090912001546001600160a01b039081169084160361283157505060408051808201909152600c81526b39ba37b932a6b0b730b3b2b960a11b6020820152919050565b6001016127cb565b50506040805180820190915260048152636e6f6e6560e01b6020820152919050565b6000803360009081526006602052604090205460ff166002811115612882576128826154cb565b1461289f5760405162461bcd60e51b815260040161074a90615b45565b600880549060006128af83615cb3565b91905055506040518061010001604052806008548152602001868152602001878152602001858152602001848152602001838152602001336001600160a01b03168152602001600380811115612907576129076154cb565b90526008546000908152600460209081526040909120825181559082015160018201906129349082615d1b565b50604082015160028201906129499082615d1b565b5060608201516003808301919091556080830151600483015560a0830151600583015560c08301516006830180546001600160a01b039092166001600160a01b031983168117825560e08601519391926001600160a81b0319161790600160a01b9084908111156129bc576129bc6154cb565b02179055505050505050505050565b600060205281600052604060002081815481106129e757600080fd5b60009182526020909120600890910201805460018201546002830180549295506001600160a01b03909116935090612a1e90615b6c565b80601f0160208091040260200160405190810160405280929190818152602001828054612a4a90615b6c565b8015612a975780601f10612a6c57610100808354040283529160200191612a97565b820191906000526020600020905b815481529060010190602001808311612a7a57829003601f168201915b505050505090806003018054612aac90615b6c565b80601f0160208091040260200160405190810160405280929190818152602001828054612ad890615b6c565b8015612b255780601f10612afa57610100808354040283529160200191612b25565b820191906000526020600020905b815481529060010190602001808311612b0857829003601f168201915b505050600484015460058501805494956001600160a01b03909216949193509150612b4f90615b6c565b80601f0160208091040260200160405190810160405280929190818152602001828054612b7b90615b6c565b8015612bc85780601f10612b9d57610100808354040283529160200191612bc8565b820191906000526020600020905b815481529060010190602001808311612bab57829003601f168201915b50505050600683015460079093015491926001600160a01b031691905088565b6000803360009081526006602052604090205460ff166002811115612c0f57612c0f6154cb565b14612c2c5760405162461bcd60e51b815260040161074a90615b45565b600085815260046020526040902060068101546001600160a01b03163314612c865760405162461bcd60e51b815260206004820152600d60248201526c04e6f7420796f75722063726f7609c1b604482015260640161074a565b60068101805460ff60a01b1916905560098054906000612ca583615cb3565b91905055506040518061014001604052806009548152602001826001018054612ccd90615b6c565b80601f0160208091040260200160405190810160405280929190818152602001828054612cf990615b6c565b8015612d465780601f10612d1b57610100808354040283529160200191612d46565b820191906000526020600020905b815481529060010190602001808311612d2957829003601f168201915b50505050508152602001826002018054612d5f90615b6c565b80601f0160208091040260200160405190810160405280929190818152602001828054612d8b90615b6c565b8015612dd85780601f10612dad57610100808354040283529160200191612dd8565b820191906000526020600020905b815481529060010190602001808311612dbb57829003601f168201915b50505050508152602001336001600160a01b03168152602001846001600160a01b03168152602001856001600160a01b03168152602001600e6000336001600160a01b03166001600160a01b031681526020019081526020016000206002018054612e4290615b6c565b80601f0160208091040260200160405190810160405280929190818152602001828054612e6e90615b6c565b8015612ebb5780601f10612e9057610100808354040283529160200191612ebb565b820191906000526020600020905b815481529060010190602001808311612e9e57829003601f168201915b50505050508152602001600e6000876001600160a01b03166001600160a01b031681526020019081526020016000206002018054612ef890615b6c565b80601f0160208091040260200160405190810160405280929190818152602001828054612f2490615b6c565b8015612f715780601f10612f4657610100808354040283529160200191612f71565b820191906000526020600020905b815481529060010190602001808311612f5457829003601f168201915b50505091835250506020810187905260400160009052600954600090815260036020908152604090912082518155908201516001820190612fb29082615d1b565b5060408201516002820190612fc79082615d1b565b5060608201516003820180546001600160a01b039283166001600160a01b031991821617909155608084015160048401805491841691831691909117905560a084015160058401805491909316911617905560c0820151600682019061302d9082615d1b565b5060e082015160078201906130429082615d1b565b50610100820151600882015561012082015160098201805460ff191660018360038111156129bc576129bc6154cb565b606080600080600080600080600080600760008c8152602001908152602001600020604051806101200160405290816000820180546130b090615b6c565b80601f01602080910402602001604051908101604052809291908181526020018280546130dc90615b6c565b80156131295780601f106130fe57610100808354040283529160200191613129565b820191906000526020600020905b81548152906001019060200180831161310c57829003601f168201915b5050505050815260200160018201805461314290615b6c565b80601f016020809104026020016040519081016040528092919081815260200182805461316e90615b6c565b80156131bb5780601f10613190576101008083540402835291602001916131bb565b820191906000526020600020905b81548152906001019060200180831161319e57829003601f168201915b505050505081526020016002820160009054906101000a90046001600160a01b03166001600160a01b03166001600160a01b031681526020016003820160009054906101000a90046001600160a01b03166001600160a01b03166001600160a01b031681526020016004820160009054906101000a90046001600160a01b03166001600160a01b03166001600160a01b031681526020016005820154815260200160068201548152602001600782015481526020016008820154815250509050806000015181602001518260400151836060015184608001518560a001518660c001518760e00151886101000151995099509950995099509950995099509950509193959799909294969850565b600e60205260009081526040902080546001820180546001600160a01b0390921692916132f590615b6c565b80601f016020809104026020016040519081016040528092919081815260200182805461332190615b6c565b801561336e5780601f106133435761010080835404028352916020019161336e565b820191906000526020600020905b81548152906001019060200180831161335157829003601f168201915b50505050509080600201805461338390615b6c565b80601f01602080910402602001604051908101604052809291908181526020018280546133af90615b6c565b80156133fc5780601f106133d1576101008083540402835291602001916133fc565b820191906000526020600020905b8154815290600101906020018083116133df57829003601f168201915b50505050600383015460049093015491929160ff16905085565b6000606080600080600f8054905086106134605760405162461bcd60e51b815260206004820152600b60248201526a0eee4dedcce40d2dcc8caf60ab1b604482015260640161074a565b6000600f878154811061347557613475615ba6565b60009182526020808320909101546001600160a01b03908116808452600e83526040808520815160a081019092528054909316815260018301805492965090938401916134c190615b6c565b80601f01602080910402602001604051908101604052809291908181526020018280546134ed90615b6c565b801561353a5780601f1061350f5761010080835404028352916020019161353a565b820191906000526020600020905b81548152906001019060200180831161351d57829003601f168201915b5050505050815260200160028201805461355390615b6c565b80601f016020809104026020016040519081016040528092919081815260200182805461357f90615b6c565b80156135cc5780601f106135a1576101008083540402835291602001916135cc565b820191906000526020600020905b8154815290600101906020018083116135af57829003601f168201915b505050918352505060038201546020820152600482015460409091019060ff1660028111156135fd576135fd6154cb565b600281111561360e5761360e6154cb565b9052508051602082015160408301516060840151608090940151929c919b50995091975095509350505050565b600060608060008060006060806000806000600360008d8152602001908152602001600020604051806101400160405290816000820154815260200160018201805461368690615b6c565b80601f01602080910402602001604051908101604052809291908181526020018280546136b290615b6c565b80156136ff5780601f106136d4576101008083540402835291602001916136ff565b820191906000526020600020905b8154815290600101906020018083116136e257829003601f168201915b5050505050815260200160028201805461371890615b6c565b80601f016020809104026020016040519081016040528092919081815260200182805461374490615b6c565b80156137915780601f1061376657610100808354040283529160200191613791565b820191906000526020600020905b81548152906001019060200180831161377457829003601f168201915b505050918352505060038201546001600160a01b03908116602083015260048301548116604083015260058301541660608201526006820180546080909201916137da90615b6c565b80601f016020809104026020016040519081016040528092919081815260200182805461380690615b6c565b80156138535780601f1061382857610100808354040283529160200191613853565b820191906000526020600020905b81548152906001019060200180831161383657829003601f168201915b5050505050815260200160078201805461386c90615b6c565b80601f016020809104026020016040519081016040528092919081815260200182805461389890615b6c565b80156138e55780601f106138ba576101008083540402835291602001916138e5565b820191906000526020600020905b8154815290600101906020018083116138c857829003601f168201915b505050918352505060088201546020820152600982015460409091019060ff166003811115613916576139166154cb565b6003811115613927576139276154cb565b815250509050806000015181602001518260400151836060015184608001518560a001518660c001518760e001518861010001518961012001519a509a509a509a509a509a509a509a509a509a50509193959799509193959799565b600d546001600160a01b031633146139ad5760405162461bcd60e51b815260040161074a90615bbc565b60008181526005602052604090206003015462010000900460ff166139fe5760405162461bcd60e51b81526020600482015260076024820152663737903ab9b2b960c91b604482015260640161074a565b600081815260056020526040902060030154610100900460ff1615613a585760405162461bcd60e51b815260206004820152601060248201526f185b1c9958591e48185c1c1c9bdd995960821b604482015260640161074a565b600081815260056020908152604091829020825160a0810190935280546001600160a01b03168352600181018054919392830191613a9590615b6c565b80601f0160208091040260200160405190810160405280929190818152602001828054613ac190615b6c565b8015613b0e5780601f10613ae357610100808354040283529160200191613b0e565b820191906000526020600020905b815481529060010190602001808311613af157829003601f168201915b50505050508152602001826002018054613b2790615b6c565b80601f0160208091040260200160405190810160405280929190818152602001828054613b5390615b6c565b8015613ba05780601f10613b7557610100808354040283529160200191613ba0565b820191906000526020600020905b815481529060010190602001808311613b8357829003601f168201915b505050918352505060006020820152600383015460409091019060ff166002811115613bce57613bce6154cb565b905281546001600160a01b039081166000908152600e60209081526040909120835181546001600160a01b03191693169290921782558201516001820190613c169082615d1b565b5060408201516002820190613c2b9082615d1b565b5060608201516003820155608082015160048201805460ff19166001836002811115613c5957613c596154cb565b02179055505050600381015481546001600160a01b03166000908152600660205260409020805460ff9092169160ff19166001836002811115613c9e57613c9e6154cb565b02179055506000600382015460ff166002811115613cbe57613cbe6154cb565b03613d15578054601180546001810182556000919091527f31ecc21a745e3968a04e9570e4425bc18fa8019c68028196b546d1669c200c680180546001600160a01b0319166001600160a01b039092169190911790555b6001600382015460ff166002811115613d3057613d306154cb565b03613d87578054601280546001810182556000919091527fbb8a6a4669ba250d26cd7a459eca9d215f8307e33aebe50379bc5a3617ec34440180546001600160a01b0319166001600160a01b039092169190911790555b6002600382015460ff166002811115613da257613da26154cb565b03613df9578054601380546001810182556000919091527f66de8ffda797e3de9c05e8fc57b3bf0ec28a930d40b0d285d93c06501cf6a0900180546001600160a01b0319166001600160a01b039092169190911790555b8054600f805460018101825560009182527f8d1108e10bcb7c27dddfc02ed9d693a074039d026cf4ea4240b40f7d581ac8020180546001600160a01b0319166001600160a01b0390931692909217909155600c805491613e5883615cb3565b9091555050600301805462ffff00191661010017905550565b6001600160a01b038082166000908152600e60209081526040808320815160a08101909252805490941681526001840180549394606094859487948594859491939192840191613ec090615b6c565b80601f0160208091040260200160405190810160405280929190818152602001828054613eec90615b6c565b8015613f395780601f10613f0e57610100808354040283529160200191613f39565b820191906000526020600020905b815481529060010190602001808311613f1c57829003601f168201915b50505050508152602001600282018054613f5290615b6c565b80601f0160208091040260200160405190810160405280929190818152602001828054613f7e90615b6c565b8015613fcb5780601f10613fa057610100808354040283529160200191613fcb565b820191906000526020600020905b815481529060010190602001808311613fae57829003601f168201915b505050918352505060038201546020820152600482015460409091019060ff166002811115613ffc57613ffc6154cb565b600281111561400d5761400d6154cb565b9052508051602082015160408301516060840151608090940151929b919a509850919650945092505050565b600d546001600160a01b031633146140635760405162461bcd60e51b815260040161074a90615bbc565b60008181526005602052604090206003015462010000900460ff166140b95760405162461bcd60e51b815260206004820152600c60248201526b37379039bab1b4103ab9b2b960a11b604482015260640161074a565b600090815260056020526040812060038101805462ffff0019169055546010805460018101825592527f1b6847dc741a1b0cd08d278845f9d819d87b734759afb55fe2de5cb82a9ae67290910180546001600160a01b0319166001600160a01b03909216919091179055565b6002803360009081526006602052604090205460ff16600281111561414c5761414c6154cb565b146141695760405162461bcd60e51b815260040161074a90615b45565b60008311801561417b57506009548311155b6141b95760405162461bcd60e51b815260206004820152600f60248201526e125b9d985b1a590818dc9bdc081251608a1b604482015260640161074a565b600a80549060006141c983615cb3565b909155505060008381526003602081815260408084208054855260048352818520600681018054600160a11b60ff60a01b1990911617905560098201805460ff19166002179055338652600e90935290842090920180549293919260019290614233908490615dda565b909155505060048201546001600160a01b03166000908152600e60205260408120600301805460019290614268908490615dda565b90915550506003808301546001600160a01b03166000908152600e6020526040812090910180546001929061429e908490615dda565b925050819055506040518061012001604052808360010180546142c090615b6c565b80601f01602080910402602001604051908101604052809291908181526020018280546142ec90615b6c565b80156143395780601f1061430e57610100808354040283529160200191614339565b820191906000526020600020905b81548152906001019060200180831161431c57829003601f168201915b5050505050815260200183600201805461435290615b6c565b80601f016020809104026020016040519081016040528092919081815260200182805461437e90615b6c565b80156143cb5780601f106143a0576101008083540402835291602001916143cb565b820191906000526020600020905b8154815290600101906020018083116143ae57829003601f168201915b505050918352505060038401546001600160a01b0390811660208084019190915260048087015490921660408085019190915233606085015260058601546080850152600887015460a08501529185015460c084015260e0909201879052600a54600090815260079092529020815181906144469082615d1b565b506020820151600182019061445b9082615d1b565b506040828101516002830180546001600160a01b03199081166001600160a01b039384161790915560608501516003808601805484169285169290921790915560808601516004860180549093169084161790915560a0850151600585015560c0850151600685015560e0850151600785015561010094850151600890940193909355918501549091166000908152602081905281902081519283019091528054909190819061450c906001615dda565b815260038501546001600160a01b0316602082015260028501805460409092019161453690615b6c565b80601f016020809104026020016040519081016040528092919081815260200182805461456290615b6c565b80156145af5780601f10614584576101008083540402835291602001916145af565b820191906000526020600020905b81548152906001019060200180831161459257829003601f168201915b505050918352505060058501546001600160a01b03166000908152600e6020908152604090912060010180549190920191906145ea90615b6c565b80601f016020809104026020016040519081016040528092919081815260200182805461461690615b6c565b80156146635780601f1061463857610100808354040283529160200191614663565b820191906000526020600020905b81548152906001019060200180831161464657829003601f168201915b505050918352505060058501546001600160a01b0390811660208084019190915260048701549091166000908152600e90915260409081902060010180549190920191906146b090615b6c565b80601f01602080910402602001604051908101604052809291908181526020018280546146dc90615b6c565b80156147295780601f106146fe57610100808354040283529160200191614729565b820191906000526020600020905b81548152906001019060200180831161470c57829003601f168201915b505050918352505060048501546001600160a01b03908116602080840191909152604092830189905284546001808201875560009687529582902085516008909202019081559084015194810180546001600160a01b0319169590921694909417905581015190919060028201906147a19082615d1b565b50606082015160038201906147b69082615d1b565b5060808201516004820180546001600160a01b0319166001600160a01b0390921691909117905560a082015160058201906147f19082615d1b565b5060c08201516006820180546001600160a01b0319166001600160a01b0392831617905560e090920151600790910155600483015416600090815260016020819052604091829020825161012081019093528054909291829161485391615dda565b815260038501546001600160a01b03908116602080840182905260058801549092166040808501919091526000918252600e90925220600101805460609092019161489d90615b6c565b80601f01602080910402602001604051908101604052809291908181526020018280546148c990615b6c565b80156149165780601f106148eb57610100808354040283529160200191614916565b820191906000526020600020905b8154815290600101906020018083116148f957829003601f168201915b505050918352505060058501546001600160a01b03166000908152600e60209081526040909120600101805491909201919061495190615b6c565b80601f016020809104026020016040519081016040528092919081815260200182805461497d90615b6c565b80156149ca5780601f1061499f576101008083540402835291602001916149ca565b820191906000526020600020905b8154815290600101906020018083116149ad57829003601f168201915b505050505081526020018460020180546149e390615b6c565b80601f0160208091040260200160405190810160405280929190818152602001828054614a0f90615b6c565b8015614a5c5780601f10614a3157610100808354040283529160200191614a5c565b820191906000526020600020905b815481529060010190602001808311614a3f57829003601f168201915b50505050508152602001846006018054614a7590615b6c565b80601f0160208091040260200160405190810160405280929190818152602001828054614aa190615b6c565b8015614aee5780601f10614ac357610100808354040283529160200191614aee565b820191906000526020600020905b815481529060010190602001808311614ad157829003601f168201915b50505050508152602001846007018054614b0790615b6c565b80601f0160208091040260200160405190810160405280929190818152602001828054614b3390615b6c565b8015614b805780601f10614b5557610100808354040283529160200191614b80565b820191906000526020600020905b815481529060010190602001808311614b6357829003601f168201915b5050509183525050602090810187905282546001818101855560009485529382902083516009909202019081559082015192810180546001600160a01b039485166001600160a01b03199182161790915560408301516002830180549190951691161790925560608101519091906003820190614bfd9082615d1b565b5060808201516004820190614c129082615d1b565b5060a08201516005820190614c279082615d1b565b5060c08201516006820190614c3c9082615d1b565b5060e08201516007820190614c519082615d1b565b50610100918201516008909101553360009081526002602052604090819020815192830190915280549091908190614c8a906001615dda565b815260038501546001600160a01b03908116602080840182905260048801549092166040808501919091526000918252600e909252206001018054606090920191614cd490615b6c565b80601f0160208091040260200160405190810160405280929190818152602001828054614d0090615b6c565b8015614d4d5780601f10614d2257610100808354040283529160200191614d4d565b820191906000526020600020905b815481529060010190602001808311614d3057829003601f168201915b505050918352505060048501546001600160a01b03166000908152600e602090815260409091206001018054919092019190614d8890615b6c565b80601f0160208091040260200160405190810160405280929190818152602001828054614db490615b6c565b8015614e015780601f10614dd657610100808354040283529160200191614e01565b820191906000526020600020905b815481529060010190602001808311614de457829003601f168201915b50505050508152602001868152602001846002018054614e2090615b6c565b80601f0160208091040260200160405190810160405280929190818152602001828054614e4c90615b6c565b8015614e995780601f10614e6e57610100808354040283529160200191614e99565b820191906000526020600020905b815481529060010190602001808311614e7c57829003601f168201915b50505091835250506008808601546020928301528354600181810186556000958652948390208451919092029091019081559082015192810180546001600160a01b039485166001600160a01b03199182161790915560408301516002830180549190951691161790925560608101519091906003820190614f1b9082615d1b565b5060808201516004820190614f309082615d1b565b5060a0820151600582015560c08201516006820190614f4f9082615d1b565b5060e0820151816007015550505050505050565b60008060006060806060806060600080600160008d6001600160a01b03166001600160a01b031681526020019081526020016000208b81548110614fa957614fa9615ba6565b6000918252602091829020604080516101208101825260099093029091018054835260018101546001600160a01b039081169484019490945260028101549093169082015260038201805491929160608401919061500690615b6c565b80601f016020809104026020016040519081016040528092919081815260200182805461503290615b6c565b801561507f5780601f106150545761010080835404028352916020019161507f565b820191906000526020600020905b81548152906001019060200180831161506257829003601f168201915b5050505050815260200160048201805461509890615b6c565b80601f01602080910402602001604051908101604052809291908181526020018280546150c490615b6c565b80156151115780601f106150e657610100808354040283529160200191615111565b820191906000526020600020905b8154815290600101906020018083116150f457829003601f168201915b5050505050815260200160058201805461512a90615b6c565b80601f016020809104026020016040519081016040528092919081815260200182805461515690615b6c565b80156151a35780601f10615178576101008083540402835291602001916151a3565b820191906000526020600020905b81548152906001019060200180831161518657829003601f168201915b505050505081526020016006820180546151bc90615b6c565b80601f01602080910402602001604051908101604052809291908181526020018280546151e890615b6c565b80156152355780601f1061520a57610100808354040283529160200191615235565b820191906000526020600020905b81548152906001019060200180831161521857829003601f168201915b5050505050815260200160078201805461524e90615b6c565b80601f016020809104026020016040519081016040528092919081815260200182805461527a90615b6c565b80156152c75780601f1061529c576101008083540402835291602001916152c7565b820191906000526020600020905b8154815290600101906020018083116152aa57829003601f168201915b505050505081526020016008820154815250509050806000015181602001518260400151836060015184608001518560a001518660c001518760e00151886101000151995099509950995099509950995099509950509295985092959850929598565b50805461533690615b6c565b6000825580601f10615346575050565b601f0160209004906000526020600020908101906153649190615367565b50565b5b8082111561537c5760008155600101615368565b5090565b60006020828403121561539257600080fd5b5035919050565b6000815180845260005b818110156153bf576020818501810151868301820152016153a3565b506000602082860101526020601f19601f83011685010191505092915050565b610120815260006153f461012083018c615399565b8281036020840152615406818c615399565b6001600160a01b039a8b166040850152988a166060840152505094909616608085015260a084019290925260c083015260e0820152610100019190915292915050565b80356003811061545857600080fd5b919050565b60006020828403121561546f57600080fd5b61547882615449565b9392505050565b602080825282518282018190526000918401906040840190835b818110156154c05783516001600160a01b0316835260209384019390920191600101615499565b509095945050505050565b634e487b7160e01b600052602160045260246000fd5b600381106154f1576154f16154cb565b9052565b6001600160a01b038716815260c06020820181905260009061551990830188615399565b828103604084015261552b8188615399565b91505061553b60608301866154e1565b921515608082015290151560a090910152949350505050565b80356001600160a01b038116811461545857600080fd5b6000806040838503121561557e57600080fd5b61558783615554565b946020939093013593505050565b8881526001600160a01b0388166020820152610100604082018190526000906155c090830189615399565b82810360608401526155d28189615399565b6001600160a01b038816608085015283810360a085015290506155f58187615399565b6001600160a01b039590951660c0840152505060e001529695505050505050565b60006020828403121561562857600080fd5b61547882615554565b6020815260006154786020830184615399565b634e487b7160e01b600052604160045260246000fd5b600082601f83011261566b57600080fd5b813567ffffffffffffffff81111561568557615685615644565b604051601f8201601f19908116603f0116810167ffffffffffffffff811182821017156156b4576156b4615644565b6040528181528382016020018510156156cc57600080fd5b816020850160208301376000918101602001919091529392505050565b6000602082840312156156fb57600080fd5b813567ffffffffffffffff81111561571257600080fd5b61571e8482850161565a565b949350505050565b600481106154f1576154f16154cb565b8881526101006020820152600061575161010083018a615399565b8281036040840152615763818a615399565b9150508660608301528560808301528460a083015260018060a01b03841660c083015261579360e0830184615726565b9998505050505050505050565b6000806000606084860312156157b557600080fd5b833567ffffffffffffffff8111156157cc57600080fd5b6157d88682870161565a565b9350506157e760208501615449565b9150604084013567ffffffffffffffff81111561580357600080fd5b61580f8682870161565a565b9150509250925092565b8a81526101406020820152600061583461014083018c615399565b8281036040840152615846818c615399565b6001600160a01b038b811660608601528a81166080860152891660a085015283810360c085015290506158798188615399565b905082810360e084015261588d8187615399565b915050836101008301526158a5610120830184615726565b9b9a5050505050505050505050565b600080604083850312156158c757600080fd5b6158d083615554565b91506158de60208401615449565b90509250929050565b8881526001600160a01b038881166020830152871660408201526101006060820181905260009061591a90830188615399565b828103608084015261592c8188615399565b90508560a084015282810360c08401526159468186615399565b9150508260e08301529998505050505050505050565b8981526001600160a01b038981166020830152881660408201526101206060820181905260009061598f90830189615399565b82810360808401526159a18189615399565b905082810360a08401526159b58188615399565b905082810360c08401526159c98187615399565b905082810360e08401526159dd8186615399565b915050826101008301529a9950505050505050505050565b600080600080600060a08688031215615a0d57600080fd5b853567ffffffffffffffff811115615a2457600080fd5b615a308882890161565a565b955050602086013567ffffffffffffffff811115615a4d57600080fd5b615a598882890161565a565b959895975050505060408401359360608101359360809091013592509050565b60008060008060808587031215615a8f57600080fd5b8435935060208501359250615aa660408601615554565b9150615ab460608601615554565b905092959194509250565b60208101611e7b82846154e1565b6001600160a01b038616815260a060208201819052600090615af190830187615399565b8281036040840152615b038187615399565b915050836060830152615b1960808301846154e1565b9695505050505050565b60008060408385031215615b3657600080fd5b50508035926020909101359150565b6020808252600d908201526c1058d8d95cdcc819195b9a5959609a1b604082015260600190565b600181811c90821680615b8057607f821691505b602082108103615ba057634e487b7160e01b600052602260045260246000fd5b50919050565b634e487b7160e01b600052603260045260246000fd5b6020808252601290820152712737ba1031b7b73a3930b1ba1037bbb732b960711b604082015260600190565b634e487b7160e01b600052601160045260246000fd5b81810381811115611e7b57611e7b615be8565b634e487b7160e01b600052603160045260246000fd5b600081615c3657615c36615be8565b506000190190565b6000808354615c4c81615b6c565b600182168015615c635760018114615c7857615ca8565b60ff1983168652811515820286019350615ca8565b86600052602060002060005b83811015615ca057815488820152600190910190602001615c84565b505081860193505b509195945050505050565b600060018201615cc557615cc5615be8565b5060010190565b601f821115615d1657806000526020600020601f840160051c81016020851015615cf35750805b601f840160051c820191505b81811015615d135760008155600101615cff565b50505b505050565b815167ffffffffffffffff811115615d3557615d35615644565b615d4981615d438454615b6c565b84615ccc565b6020601f821160018114615d7d5760008315615d655750848201515b600019600385901b1c1916600184901b178455615d13565b600084815260208120601f198516915b82811015615dad5787850151825560209485019460019092019101615d8d565b5084821015615dcb5786840151600019600387901b60f8161c191681555b50505050600190811b01905550565b80820180821115611e7b57611e7b615be856fea26469706673582212200d5130999c87194ade5b0d3132b8735d699051ead0445e4ce6b52bd075d4b12c64736f6c634300081c0033",
          "opcodes": "PUSH1 0x80 PUSH1 0x40 MSTORE CALLVALUE DUP1 ISZERO PUSH1 0xF JUMPI PUSH1 0x0 DUP1 REVERT JUMPDEST POP PUSH1 0xD DUP1 SLOAD PUSH1 0x1 PUSH1 0x1 PUSH1 0xA0 SHL SUB NOT AND CALLER OR SWAP1 SSTORE PUSH2 0x5E23 DUP1 PUSH2 0x31 PUSH1 0x0 CODECOPY PUSH1 0x0 RETURN INVALID PUSH1 0x80 PUSH1 0x40 MSTORE CALLVALUE DUP1 ISZERO PUSH2 0x10 JUMPI PUSH1 0x0 DUP1 REVERT JUMPDEST POP PUSH1 0x4 CALLDATASIZE LT PUSH2 0x2BB JUMPI PUSH1 0x0 CALLDATALOAD PUSH1 0xE0 SHR DUP1 PUSH4 0x8175DF6F GT PUSH2 0x182 JUMPI DUP1 PUSH4 0x9BCB1739 GT PUSH2 0xE9 JUMPI DUP1 PUSH4 0xBD5D0808 GT PUSH2 0xA2 JUMPI DUP1 PUSH4 0xE36B4F64 GT PUSH2 0x7C JUMPI DUP1 PUSH4 0xE36B4F64 EQ PUSH2 0x6C5 JUMPI DUP1 PUSH4 0xEC7BF72B EQ PUSH2 0x6D8 JUMPI DUP1 PUSH4 0xF82042FE EQ PUSH2 0x6EB JUMPI DUP1 PUSH4 0xFD33482D EQ PUSH2 0x6FE JUMPI PUSH1 0x0 DUP1 REVERT JUMPDEST DUP1 PUSH4 0xBD5D0808 EQ PUSH2 0x696 JUMPI DUP1 PUSH4 0xCF464F57 EQ PUSH2 0x6A9 JUMPI DUP1 PUSH4 0xDFD55A2C EQ PUSH2 0x6BC JUMPI PUSH1 0x0 DUP1 REVERT JUMPDEST DUP1 PUSH4 0x9BCB1739 EQ PUSH2 0x628 JUMPI DUP1 PUSH4 0x9F96835A EQ PUSH2 0x63B JUMPI DUP1 PUSH4 0xA87430BA EQ PUSH2 0x643 JUMPI DUP1 PUSH4 0xAA1C568E EQ PUSH2 0x667 JUMPI DUP1 PUSH4 0xB08AEAEC EQ PUSH2 0x67A JUMPI DUP1 PUSH4 0xBB805F69 EQ PUSH2 0x68D JUMPI PUSH1 0x0 DUP1 REVERT JUMPDEST DUP1 PUSH4 0x8DA5CB5B GT PUSH2 0x13B JUMPI DUP1 PUSH4 0x8DA5CB5B EQ PUSH2 0x599 JUMPI DUP1 PUSH4 0x911DACDC EQ PUSH2 0x5AC JUMPI DUP1 PUSH4 0x92AB20F1 EQ PUSH2 0x5BF JUMPI DUP1 PUSH4 0x92BD337C EQ PUSH2 0x5D2 JUMPI DUP1 PUSH4 0x95111F5C EQ PUSH2 0x5E5 JUMPI DUP1 PUSH4 0x99374642 EQ PUSH2 0x5F8 JUMPI PUSH1 0x0 DUP1 REVERT JUMPDEST DUP1 PUSH4 0x8175DF6F EQ PUSH2 0x4EE JUMPI DUP1 PUSH4 0x87E720E1 EQ PUSH2 0x501 JUMPI DUP1 PUSH4 0x89D219F8 EQ PUSH2 0x528 JUMPI DUP1 PUSH4 0x8AFDD669 EQ PUSH2 0x54B JUMPI DUP1 PUSH4 0x8B74B6C6 EQ PUSH2 0x55E JUMPI DUP1 PUSH4 0x8D165248 EQ PUSH2 0x571 JUMPI PUSH1 0x0 DUP1 REVERT JUMPDEST DUP1 PUSH4 0x48445E4D GT PUSH2 0x226 JUMPI DUP1 PUSH4 0x6004D2E3 GT PUSH2 0x1DF JUMPI DUP1 PUSH4 0x6004D2E3 EQ PUSH2 0x45D JUMPI DUP1 PUSH4 0x67DAC2A0 EQ PUSH2 0x484 JUMPI DUP1 PUSH4 0x6811A96E EQ PUSH2 0x497 JUMPI DUP1 PUSH4 0x69346942 EQ PUSH2 0x4AA JUMPI DUP1 PUSH4 0x70C9F1A5 EQ PUSH2 0x4D3 JUMPI DUP1 PUSH4 0x77E0E7EA EQ PUSH2 0x4E6 JUMPI PUSH1 0x0 DUP1 REVERT JUMPDEST DUP1 PUSH4 0x48445E4D EQ PUSH2 0x416 JUMPI DUP1 PUSH4 0x4A9B4175 EQ PUSH2 0x41E JUMPI DUP1 PUSH4 0x53BDB1B0 EQ PUSH2 0x431 JUMPI DUP1 PUSH4 0x598FA80C EQ PUSH2 0x444 JUMPI DUP1 PUSH4 0x5B77B6A6 EQ PUSH2 0x44C JUMPI DUP1 PUSH4 0x5C832800 EQ PUSH2 0x455 JUMPI PUSH1 0x0 DUP1 REVERT JUMPDEST DUP1 PUSH4 0x2A42D705 GT PUSH2 0x278 JUMPI DUP1 PUSH4 0x2A42D705 EQ PUSH2 0x389 JUMPI DUP1 PUSH4 0x2B9575AA EQ PUSH2 0x3B0 JUMPI DUP1 PUSH4 0x2F3D819B EQ PUSH2 0x3D0 JUMPI DUP1 PUSH4 0x36461C11 EQ PUSH2 0x3E7 JUMPI DUP1 PUSH4 0x387D3ECC EQ PUSH2 0x3FA JUMPI DUP1 PUSH4 0x45ECC2A7 EQ PUSH2 0x40D JUMPI PUSH1 0x0 DUP1 REVERT JUMPDEST DUP1 PUSH4 0x34DA8BA EQ PUSH2 0x2C0 JUMPI DUP1 PUSH4 0x6F06768 EQ PUSH2 0x2D5 JUMPI DUP1 PUSH4 0x129B9DC3 EQ PUSH2 0x306 JUMPI DUP1 PUSH4 0x1AC0BCE8 EQ PUSH2 0x326 JUMPI DUP1 PUSH4 0x1D93F21E EQ PUSH2 0x351 JUMPI DUP1 PUSH4 0x29C2A877 EQ PUSH2 0x376 JUMPI JUMPDEST PUSH1 0x0 DUP1 REVERT JUMPDEST PUSH2 0x2D3 PUSH2 0x2CE CALLDATASIZE PUSH1 0x4 PUSH2 0x5380 JUMP JUMPDEST PUSH2 0x706 JUMP JUMPDEST STOP JUMPDEST PUSH2 0x2E8 PUSH2 0x2E3 CALLDATASIZE PUSH1 0x4 PUSH2 0x5380 JUMP JUMPDEST PUSH2 0x791 JUMP JUMPDEST PUSH1 0x40 MLOAD PUSH2 0x2FD SWAP10 SWAP9 SWAP8 SWAP7 SWAP6 SWAP5 SWAP4 SWAP3 SWAP2 SWAP1 PUSH2 0x53DF JUMP JUMPDEST PUSH1 0x40 MLOAD DUP1 SWAP2 SUB SWAP1 RETURN JUMPDEST PUSH2 0x319 PUSH2 0x314 CALLDATASIZE PUSH1 0x4 PUSH2 0x545D JUMP JUMPDEST PUSH2 0x8F8 JUMP JUMPDEST PUSH1 0x40 MLOAD PUSH2 0x2FD SWAP2 SWAP1 PUSH2 0x547F JUMP JUMPDEST PUSH2 0x339 PUSH2 0x334 CALLDATASIZE PUSH1 0x4 PUSH2 0x5380 JUMP JUMPDEST PUSH2 0xA6F JUMP JUMPDEST PUSH1 0x40 MLOAD PUSH1 0x1 PUSH1 0x1 PUSH1 0xA0 SHL SUB SWAP1 SWAP2 AND DUP2 MSTORE PUSH1 0x20 ADD PUSH2 0x2FD JUMP JUMPDEST PUSH2 0x364 PUSH2 0x35F CALLDATASIZE PUSH1 0x4 PUSH2 0x5380 JUMP JUMPDEST PUSH2 0xA99 JUMP JUMPDEST PUSH1 0x40 MLOAD PUSH2 0x2FD SWAP7 SWAP6 SWAP5 SWAP4 SWAP3 SWAP2 SWAP1 PUSH2 0x54F5 JUMP JUMPDEST PUSH2 0x339 PUSH2 0x384 CALLDATASIZE PUSH1 0x4 PUSH2 0x5380 JUMP JUMPDEST PUSH2 0xCDE JUMP JUMPDEST PUSH2 0x39C PUSH2 0x397 CALLDATASIZE PUSH1 0x4 PUSH2 0x556B JUMP JUMPDEST PUSH2 0xCEE JUMP JUMPDEST PUSH1 0x40 MLOAD PUSH2 0x2FD SWAP9 SWAP8 SWAP7 SWAP6 SWAP5 SWAP4 SWAP3 SWAP2 SWAP1 PUSH2 0x5595 JUMP JUMPDEST PUSH2 0x3C3 PUSH2 0x3BE CALLDATASIZE PUSH1 0x4 PUSH2 0x5616 JUMP JUMPDEST PUSH2 0x100C JUMP JUMPDEST PUSH1 0x40 MLOAD PUSH2 0x2FD SWAP2 SWAP1 PUSH2 0x5631 JUMP JUMPDEST PUSH2 0x3D9 PUSH1 0xA SLOAD DUP2 JUMP JUMPDEST PUSH1 0x40 MLOAD SWAP1 DUP2 MSTORE PUSH1 0x20 ADD PUSH2 0x2FD JUMP JUMPDEST PUSH2 0x2D3 PUSH2 0x3F5 CALLDATASIZE PUSH1 0x4 PUSH2 0x5616 JUMP JUMPDEST PUSH2 0x10B1 JUMP JUMPDEST PUSH2 0x2E8 PUSH2 0x408 CALLDATASIZE PUSH1 0x4 PUSH2 0x56E9 JUMP JUMPDEST PUSH2 0x1268 JUMP JUMPDEST PUSH2 0x3D9 PUSH1 0xB SLOAD DUP2 JUMP JUMPDEST PUSH1 0xA SLOAD PUSH2 0x3D9 JUMP JUMPDEST PUSH2 0x339 PUSH2 0x42C CALLDATASIZE PUSH1 0x4 PUSH2 0x5380 JUMP JUMPDEST PUSH2 0x154D JUMP JUMPDEST PUSH2 0x364 PUSH2 0x43F CALLDATASIZE PUSH1 0x4 PUSH2 0x5380 JUMP JUMPDEST PUSH2 0x155D JUMP JUMPDEST PUSH1 0xB SLOAD PUSH2 0x3D9 JUMP JUMPDEST PUSH2 0x3D9 PUSH1 0x9 SLOAD DUP2 JUMP JUMPDEST PUSH1 0xF SLOAD PUSH2 0x3D9 JUMP JUMPDEST PUSH2 0x470 PUSH2 0x46B CALLDATASIZE PUSH1 0x4 PUSH2 0x5380 JUMP JUMPDEST PUSH2 0x16B6 JUMP JUMPDEST PUSH1 0x40 MLOAD PUSH2 0x2FD SWAP9 SWAP8 SWAP7 SWAP6 SWAP5 SWAP4 SWAP3 SWAP2 SWAP1 PUSH2 0x5736 JUMP JUMPDEST PUSH2 0x339 PUSH2 0x492 CALLDATASIZE PUSH1 0x4 PUSH2 0x5380 JUMP JUMPDEST PUSH2 0x18BE JUMP JUMPDEST PUSH2 0x2D3 PUSH2 0x4A5 CALLDATASIZE PUSH1 0x4 PUSH2 0x57A0 JUMP JUMPDEST PUSH2 0x18CE JUMP JUMPDEST PUSH2 0x4BD PUSH2 0x4B8 CALLDATASIZE PUSH1 0x4 PUSH2 0x5380 JUMP JUMPDEST PUSH2 0x19E8 JUMP JUMPDEST PUSH1 0x40 MLOAD PUSH2 0x2FD SWAP11 SWAP10 SWAP9 SWAP8 SWAP7 SWAP6 SWAP5 SWAP4 SWAP3 SWAP2 SWAP1 PUSH2 0x5819 JUMP JUMPDEST PUSH2 0x470 PUSH2 0x4E1 CALLDATASIZE PUSH1 0x4 PUSH2 0x5380 JUMP JUMPDEST PUSH2 0x1C6D JUMP JUMPDEST PUSH1 0x8 SLOAD PUSH2 0x3D9 JUMP JUMPDEST PUSH2 0x3D9 PUSH2 0x4FC CALLDATASIZE PUSH1 0x4 PUSH2 0x58B4 JUMP JUMPDEST PUSH2 0x1DCE JUMP JUMPDEST PUSH2 0x514 PUSH2 0x50F CALLDATASIZE PUSH1 0x4 PUSH2 0x556B JUMP JUMPDEST PUSH2 0x1E81 JUMP JUMPDEST PUSH1 0x40 MLOAD PUSH2 0x2FD SWAP9 SWAP8 SWAP7 SWAP6 SWAP5 SWAP4 SWAP3 SWAP2 SWAP1 PUSH2 0x58E7 JUMP JUMPDEST PUSH2 0x53B PUSH2 0x536 CALLDATASIZE PUSH1 0x4 PUSH2 0x5616 JUMP JUMPDEST PUSH2 0x2087 JUMP JUMPDEST PUSH1 0x40 MLOAD SWAP1 ISZERO ISZERO DUP2 MSTORE PUSH1 0x20 ADD PUSH2 0x2FD JUMP JUMPDEST PUSH2 0x339 PUSH2 0x559 CALLDATASIZE PUSH1 0x4 PUSH2 0x5380 JUMP JUMPDEST PUSH2 0x20E1 JUMP JUMPDEST PUSH2 0x514 PUSH2 0x56C CALLDATASIZE PUSH1 0x4 PUSH2 0x556B JUMP JUMPDEST PUSH2 0x20F1 JUMP JUMPDEST PUSH2 0x584 PUSH2 0x57F CALLDATASIZE PUSH1 0x4 PUSH2 0x556B JUMP JUMPDEST PUSH2 0x2395 JUMP JUMPDEST PUSH1 0x40 MLOAD PUSH2 0x2FD SWAP10 SWAP9 SWAP8 SWAP7 SWAP6 SWAP5 SWAP4 SWAP3 SWAP2 SWAP1 PUSH2 0x595C JUMP JUMPDEST PUSH1 0xD SLOAD PUSH2 0x339 SWAP1 PUSH1 0x1 PUSH1 0x1 PUSH1 0xA0 SHL SUB AND DUP2 JUMP JUMPDEST PUSH2 0x3C3 PUSH2 0x5BA CALLDATASIZE PUSH1 0x4 PUSH2 0x5616 JUMP JUMPDEST PUSH2 0x26B1 JUMP JUMPDEST PUSH2 0x2D3 PUSH2 0x5CD CALLDATASIZE PUSH1 0x4 PUSH2 0x59F5 JUMP JUMPDEST PUSH2 0x285B JUMP JUMPDEST PUSH2 0x39C PUSH2 0x5E0 CALLDATASIZE PUSH1 0x4 PUSH2 0x556B JUMP JUMPDEST PUSH2 0x29CB JUMP JUMPDEST PUSH2 0x2D3 PUSH2 0x5F3 CALLDATASIZE PUSH1 0x4 PUSH2 0x5A79 JUMP JUMPDEST PUSH2 0x2BE8 JUMP JUMPDEST PUSH2 0x61B PUSH2 0x606 CALLDATASIZE PUSH1 0x4 PUSH2 0x5616 JUMP JUMPDEST PUSH1 0x6 PUSH1 0x20 MSTORE PUSH1 0x0 SWAP1 DUP2 MSTORE PUSH1 0x40 SWAP1 KECCAK256 SLOAD PUSH1 0xFF AND DUP2 JUMP JUMPDEST PUSH1 0x40 MLOAD PUSH2 0x2FD SWAP2 SWAP1 PUSH2 0x5ABF JUMP JUMPDEST PUSH2 0x2E8 PUSH2 0x636 CALLDATASIZE PUSH1 0x4 PUSH2 0x5380 JUMP JUMPDEST PUSH2 0x3072 JUMP JUMPDEST PUSH1 0x9 SLOAD PUSH2 0x3D9 JUMP JUMPDEST PUSH2 0x656 PUSH2 0x651 CALLDATASIZE PUSH1 0x4 PUSH2 0x5616 JUMP JUMPDEST PUSH2 0x32C9 JUMP JUMPDEST PUSH1 0x40 MLOAD PUSH2 0x2FD SWAP6 SWAP5 SWAP4 SWAP3 SWAP2 SWAP1 PUSH2 0x5ACD JUMP JUMPDEST PUSH2 0x656 PUSH2 0x675 CALLDATASIZE PUSH1 0x4 PUSH2 0x5380 JUMP JUMPDEST PUSH2 0x3416 JUMP JUMPDEST PUSH2 0x4BD PUSH2 0x688 CALLDATASIZE PUSH1 0x4 PUSH2 0x5380 JUMP JUMPDEST PUSH2 0x363B JUMP JUMPDEST PUSH2 0x3D9 PUSH1 0xC SLOAD DUP2 JUMP JUMPDEST PUSH2 0x2D3 PUSH2 0x6A4 CALLDATASIZE PUSH1 0x4 PUSH2 0x5380 JUMP JUMPDEST PUSH2 0x3983 JUMP JUMPDEST PUSH2 0x656 PUSH2 0x6B7 CALLDATASIZE PUSH1 0x4 PUSH2 0x5616 JUMP JUMPDEST PUSH2 0x3E71 JUMP JUMPDEST PUSH2 0x3D9 PUSH1 0x8 SLOAD DUP2 JUMP JUMPDEST PUSH2 0x2D3 PUSH2 0x6D3 CALLDATASIZE PUSH1 0x4 PUSH2 0x5380 JUMP JUMPDEST PUSH2 0x4039 JUMP JUMPDEST PUSH2 0x2D3 PUSH2 0x6E6 CALLDATASIZE PUSH1 0x4 PUSH2 0x5B23 JUMP JUMPDEST PUSH2 0x4125 JUMP JUMPDEST PUSH2 0x584 PUSH2 0x6F9 CALLDATASIZE PUSH1 0x4 PUSH2 0x556B JUMP JUMPDEST PUSH2 0x4F63 JUMP JUMPDEST PUSH1 0xC SLOAD PUSH2 0x3D9 JUMP JUMPDEST PUSH1 0x1 DUP1 CALLER PUSH1 0x0 SWAP1 DUP2 MSTORE PUSH1 0x6 PUSH1 0x20 MSTORE PUSH1 0x40 SWAP1 KECCAK256 SLOAD PUSH1 0xFF AND PUSH1 0x2 DUP2 GT ISZERO PUSH2 0x72D JUMPI PUSH2 0x72D PUSH2 0x54CB JUMP JUMPDEST EQ PUSH2 0x753 JUMPI PUSH1 0x40 MLOAD PUSH3 0x461BCD PUSH1 0xE5 SHL DUP2 MSTORE PUSH1 0x4 ADD PUSH2 0x74A SWAP1 PUSH2 0x5B45 JUMP JUMPDEST PUSH1 0x40 MLOAD DUP1 SWAP2 SUB SWAP1 REVERT JUMPDEST POP PUSH1 0x0 SWAP1 DUP2 MSTORE PUSH1 0x3 PUSH1 0x20 SWAP1 DUP2 MSTORE PUSH1 0x40 DUP1 DUP4 KECCAK256 PUSH1 0x4 SWAP1 SWAP3 MSTORE SWAP1 SWAP2 KECCAK256 PUSH1 0x6 ADD DUP1 SLOAD PUSH1 0xFF PUSH1 0xA0 SHL NOT AND PUSH1 0x1 PUSH1 0xA0 SHL OR SWAP1 SSTORE PUSH1 0x9 ADD DUP1 SLOAD PUSH1 0xFF NOT AND PUSH1 0x1 OR SWAP1 SSTORE JUMP JUMPDEST PUSH1 0x7 PUSH1 0x20 MSTORE PUSH1 0x0 SWAP1 DUP2 MSTORE PUSH1 0x40 SWAP1 KECCAK256 DUP1 SLOAD DUP2 SWAP1 PUSH2 0x7AC SWAP1 PUSH2 0x5B6C JUMP JUMPDEST DUP1 PUSH1 0x1F ADD PUSH1 0x20 DUP1 SWAP2 DIV MUL PUSH1 0x20 ADD PUSH1 0x40 MLOAD SWAP1 DUP2 ADD PUSH1 0x40 MSTORE DUP1 SWAP3 SWAP2 SWAP1 DUP2 DUP2 MSTORE PUSH1 0x20 ADD DUP3 DUP1 SLOAD PUSH2 0x7D8 SWAP1 PUSH2 0x5B6C JUMP JUMPDEST DUP1 ISZERO PUSH2 0x825 JUMPI DUP1 PUSH1 0x1F LT PUSH2 0x7FA JUMPI PUSH2 0x100 DUP1 DUP4 SLOAD DIV MUL DUP4 MSTORE SWAP2 PUSH1 0x20 ADD SWAP2 PUSH2 0x825 JUMP JUMPDEST DUP3 ADD SWAP2 SWAP1 PUSH1 0x0 MSTORE PUSH1 0x20 PUSH1 0x0 KECCAK256 SWAP1 JUMPDEST DUP2 SLOAD DUP2 MSTORE SWAP1 PUSH1 0x1 ADD SWAP1 PUSH1 0x20 ADD DUP1 DUP4 GT PUSH2 0x808 JUMPI DUP3 SWAP1 SUB PUSH1 0x1F AND DUP3 ADD SWAP2 JUMPDEST POP POP POP POP POP SWAP1 DUP1 PUSH1 0x1 ADD DUP1 SLOAD PUSH2 0x83A SWAP1 PUSH2 0x5B6C JUMP JUMPDEST DUP1 PUSH1 0x1F ADD PUSH1 0x20 DUP1 SWAP2 DIV MUL PUSH1 0x20 ADD PUSH1 0x40 MLOAD SWAP1 DUP2 ADD PUSH1 0x40 MSTORE DUP1 SWAP3 SWAP2 SWAP1 DUP2 DUP2 MSTORE PUSH1 0x20 ADD DUP3 DUP1 SLOAD PUSH2 0x866 SWAP1 PUSH2 0x5B6C JUMP JUMPDEST DUP1 ISZERO PUSH2 0x8B3 JUMPI DUP1 PUSH1 0x1F LT PUSH2 0x888 JUMPI PUSH2 0x100 DUP1 DUP4 SLOAD DIV MUL DUP4 MSTORE SWAP2 PUSH1 0x20 ADD SWAP2 PUSH2 0x8B3 JUMP JUMPDEST DUP3 ADD SWAP2 SWAP1 PUSH1 0x0 MSTORE PUSH1 0x20 PUSH1 0x0 KECCAK256 SWAP1 JUMPDEST DUP2 SLOAD DUP2 MSTORE SWAP1 PUSH1 0x1 ADD SWAP1 PUSH1 0x20 ADD DUP1 DUP4 GT PUSH2 0x896 JUMPI DUP3 SWAP1 SUB PUSH1 0x1F AND DUP3 ADD SWAP2 JUMPDEST POP POP POP PUSH1 0x2 DUP5 ADD SLOAD PUSH1 0x3 DUP6 ADD SLOAD PUSH1 0x4 DUP7 ADD SLOAD PUSH1 0x5 DUP8 ADD SLOAD PUSH1 0x6 DUP9 ADD SLOAD PUSH1 0x7 DUP10 ADD SLOAD PUSH1 0x8 SWAP1 SWAP10 ADD SLOAD SWAP8 SWAP9 PUSH1 0x1 PUSH1 0x1 PUSH1 0xA0 SHL SUB SWAP6 DUP7 AND SWAP9 SWAP5 DUP7 AND SWAP8 POP SWAP3 SWAP1 SWAP5 AND SWAP5 POP SWAP3 SWAP2 DUP10 JUMP JUMPDEST PUSH1 0x60 PUSH1 0x0 DUP3 PUSH1 0x2 DUP2 GT ISZERO PUSH2 0x90E JUMPI PUSH2 0x90E PUSH2 0x54CB JUMP JUMPDEST SUB PUSH2 0x975 JUMPI PUSH1 0x11 DUP1 SLOAD DUP1 PUSH1 0x20 MUL PUSH1 0x20 ADD PUSH1 0x40 MLOAD SWAP1 DUP2 ADD PUSH1 0x40 MSTORE DUP1 SWAP3 SWAP2 SWAP1 DUP2 DUP2 MSTORE PUSH1 0x20 ADD DUP3 DUP1 SLOAD DUP1 ISZERO PUSH2 0x969 JUMPI PUSH1 0x20 MUL DUP3 ADD SWAP2 SWAP1 PUSH1 0x0 MSTORE PUSH1 0x20 PUSH1 0x0 KECCAK256 SWAP1 JUMPDEST DUP2 SLOAD PUSH1 0x1 PUSH1 0x1 PUSH1 0xA0 SHL SUB AND DUP2 MSTORE PUSH1 0x1 SWAP1 SWAP2 ADD SWAP1 PUSH1 0x20 ADD DUP1 DUP4 GT PUSH2 0x94B JUMPI JUMPDEST POP POP POP POP POP SWAP1 POP SWAP2 SWAP1 POP JUMP JUMPDEST PUSH1 0x1 DUP3 PUSH1 0x2 DUP2 GT ISZERO PUSH2 0x989 JUMPI PUSH2 0x989 PUSH2 0x54CB JUMP JUMPDEST SUB PUSH2 0x9EE JUMPI PUSH1 0x12 DUP1 SLOAD DUP1 PUSH1 0x20 MUL PUSH1 0x20 ADD PUSH1 0x40 MLOAD SWAP1 DUP2 ADD PUSH1 0x40 MSTORE DUP1 SWAP3 SWAP2 SWAP1 DUP2 DUP2 MSTORE PUSH1 0x20 ADD DUP3 DUP1 SLOAD DUP1 ISZERO PUSH2 0x969 JUMPI PUSH1 0x20 MUL DUP3 ADD SWAP2 SWAP1 PUSH1 0x0 MSTORE PUSH1 0x20 PUSH1 0x0 KECCAK256 SWAP1 DUP2 SLOAD PUSH1 0x1 PUSH1 0x1 PUSH1 0xA0 SHL SUB AND DUP2 MSTORE PUSH1 0x1 SWAP1 SWAP2 ADD SWAP1 PUSH1 0x20 ADD DUP1 DUP4 GT PUSH2 0x94B JUMPI POP POP POP POP POP SWAP1 POP SWAP2 SWAP1 POP JUMP JUMPDEST PUSH1 0x2 DUP3 PUSH1 0x2 DUP2 GT ISZERO PUSH2 0xA02 JUMPI PUSH2 0xA02 PUSH2 0x54CB JUMP JUMPDEST SUB PUSH2 0xA67 JUMPI PUSH1 0x13 DUP1 SLOAD DUP1 PUSH1 0x20 MUL PUSH1 0x20 ADD PUSH1 0x40 MLOAD SWAP1 DUP2 ADD PUSH1 0x40 MSTORE DUP1 SWAP3 SWAP2 SWAP1 DUP2 DUP2 MSTORE PUSH1 0x20 ADD DUP3 DUP1 SLOAD DUP1 ISZERO PUSH2 0x969 JUMPI PUSH1 0x20 MUL DUP3 ADD SWAP2 SWAP1 PUSH1 0x0 MSTORE PUSH1 0x20 PUSH1 0x0 KECCAK256 SWAP1 DUP2 SLOAD PUSH1 0x1 PUSH1 0x1 PUSH1 0xA0 SHL SUB AND DUP2 MSTORE PUSH1 0x1 SWAP1 SWAP2 ADD SWAP1 PUSH1 0x20 ADD DUP1 DUP4 GT PUSH2 0x94B JUMPI POP POP POP POP POP SWAP1 POP SWAP2 SWAP1 POP JUMP JUMPDEST POP PUSH1 0x60 SWAP2 SWAP1 POP JUMP JUMPDEST PUSH1 0x13 DUP2 DUP2 SLOAD DUP2 LT PUSH2 0xA7F JUMPI PUSH1 0x0 DUP1 REVERT JUMPDEST PUSH1 0x0 SWAP2 DUP3 MSTORE PUSH1 0x20 SWAP1 SWAP2 KECCAK256 ADD SLOAD PUSH1 0x1 PUSH1 0x1 PUSH1 0xA0 SHL SUB AND SWAP1 POP DUP2 JUMP JUMPDEST PUSH1 0x0 PUSH1 0x60 DUP1 PUSH1 0x0 DUP1 PUSH1 0x0 DUP1 DUP8 GT DUP1 ISZERO PUSH2 0xAB4 JUMPI POP PUSH1 0xB SLOAD DUP8 GT ISZERO JUMPDEST PUSH2 0xB00 JUMPI PUSH1 0x40 MLOAD PUSH3 0x461BCD PUSH1 0xE5 SHL DUP2 MSTORE PUSH1 0x20 PUSH1 0x4 DUP3 ADD MSTORE PUSH1 0x1A PUSH1 0x24 DUP3 ADD MSTORE PUSH32 0x496E76616C69642070656E64696E672072657175657374204944000000000000 PUSH1 0x44 DUP3 ADD MSTORE PUSH1 0x64 ADD PUSH2 0x74A JUMP JUMPDEST PUSH1 0x0 DUP8 DUP2 MSTORE PUSH1 0x5 PUSH1 0x20 SWAP1 DUP2 MSTORE PUSH1 0x40 DUP1 DUP4 KECCAK256 DUP2 MLOAD PUSH1 0xC0 DUP2 ADD SWAP1 SWAP3 MSTORE DUP1 SLOAD PUSH1 0x1 PUSH1 0x1 PUSH1 0xA0 SHL SUB AND DUP3 MSTORE PUSH1 0x1 DUP2 ADD DUP1 SLOAD SWAP3 SWAP4 SWAP2 SWAP3 SWAP2 DUP5 ADD SWAP2 PUSH2 0xB3E SWAP1 PUSH2 0x5B6C JUMP JUMPDEST DUP1 PUSH1 0x1F ADD PUSH1 0x20 DUP1 SWAP2 DIV MUL PUSH1 0x20 ADD PUSH1 0x40 MLOAD SWAP1 DUP2 ADD PUSH1 0x40 MSTORE DUP1 SWAP3 SWAP2 SWAP1 DUP2 DUP2 MSTORE PUSH1 0x20 ADD DUP3 DUP1 SLOAD PUSH2 0xB6A SWAP1 PUSH2 0x5B6C JUMP JUMPDEST DUP1 ISZERO PUSH2 0xBB7 JUMPI DUP1 PUSH1 0x1F LT PUSH2 0xB8C JUMPI PUSH2 0x100 DUP1 DUP4 SLOAD DIV MUL DUP4 MSTORE SWAP2 PUSH1 0x20 ADD SWAP2 PUSH2 0xBB7 JUMP JUMPDEST DUP3 ADD SWAP2 SWAP1 PUSH1 0x0 MSTORE PUSH1 0x20 PUSH1 0x0 KECCAK256 SWAP1 JUMPDEST DUP2 SLOAD DUP2 MSTORE SWAP1 PUSH1 0x1 ADD SWAP1 PUSH1 0x20 ADD DUP1 DUP4 GT PUSH2 0xB9A JUMPI DUP3 SWAP1 SUB PUSH1 0x1F AND DUP3 ADD SWAP2 JUMPDEST POP POP POP POP POP DUP2 MSTORE PUSH1 0x20 ADD PUSH1 0x2 DUP3 ADD DUP1 SLOAD PUSH2 0xBD0 SWAP1 PUSH2 0x5B6C JUMP JUMPDEST DUP1 PUSH1 0x1F ADD PUSH1 0x20 DUP1 SWAP2 DIV MUL PUSH1 0x20 ADD PUSH1 0x40 MLOAD SWAP1 DUP2 ADD PUSH1 0x40 MSTORE DUP1 SWAP3 SWAP2 SWAP1 DUP2 DUP2 MSTORE PUSH1 0x20 ADD DUP3 DUP1 SLOAD PUSH2 0xBFC SWAP1 PUSH2 0x5B6C JUMP JUMPDEST DUP1 ISZERO PUSH2 0xC49 JUMPI DUP1 PUSH1 0x1F LT PUSH2 0xC1E JUMPI PUSH2 0x100 DUP1 DUP4 SLOAD DIV MUL DUP4 MSTORE SWAP2 PUSH1 0x20 ADD SWAP2 PUSH2 0xC49 JUMP JUMPDEST DUP3 ADD SWAP2 SWAP1 PUSH1 0x0 MSTORE PUSH1 0x20 PUSH1 0x0 KECCAK256 SWAP1 JUMPDEST DUP2 SLOAD DUP2 MSTORE SWAP1 PUSH1 0x1 ADD SWAP1 PUSH1 0x20 ADD DUP1 DUP4 GT PUSH2 0xC2C JUMPI DUP3 SWAP1 SUB PUSH1 0x1F AND DUP3 ADD SWAP2 JUMPDEST POP POP POP SWAP2 DUP4 MSTORE POP POP PUSH1 0x3 DUP3 ADD SLOAD PUSH1 0x20 SWAP1 SWAP2 ADD SWAP1 PUSH1 0xFF AND PUSH1 0x2 DUP2 GT ISZERO PUSH2 0xC70 JUMPI PUSH2 0xC70 PUSH2 0x54CB JUMP JUMPDEST PUSH1 0x2 DUP2 GT ISZERO PUSH2 0xC81 JUMPI PUSH2 0xC81 PUSH2 0x54CB JUMP JUMPDEST DUP2 MSTORE PUSH1 0x3 SWAP2 SWAP1 SWAP2 ADD SLOAD PUSH1 0xFF PUSH2 0x100 DUP3 DIV DUP2 AND ISZERO ISZERO PUSH1 0x20 DUP1 DUP6 ADD SWAP2 SWAP1 SWAP2 MSTORE PUSH3 0x10000 SWAP1 SWAP3 DIV AND ISZERO ISZERO PUSH1 0x40 SWAP3 DUP4 ADD MSTORE DUP3 MLOAD SWAP1 DUP4 ADD MLOAD SWAP2 DUP4 ADD MLOAD PUSH1 0x60 DUP5 ADD MLOAD PUSH1 0x80 DUP6 ADD MLOAD PUSH1 0xA0 SWAP1 SWAP6 ADD MLOAD SWAP3 SWAP14 SWAP4 SWAP13 POP SWAP1 SWAP11 POP SWAP9 POP SWAP2 SWAP7 POP SWAP1 SWAP5 POP SWAP3 POP POP POP JUMP JUMPDEST PUSH1 0x12 DUP2 DUP2 SLOAD DUP2 LT PUSH2 0xA7F JUMPI PUSH1 0x0 DUP1 REVERT JUMPDEST PUSH1 0x1 PUSH1 0x1 PUSH1 0xA0 SHL SUB DUP3 AND PUSH1 0x0 SWAP1 DUP2 MSTORE PUSH1 0x20 DUP2 SWAP1 MSTORE PUSH1 0x40 DUP2 KECCAK256 SLOAD DUP2 SWAP1 PUSH1 0x60 SWAP1 DUP2 SWAP1 DUP4 SWAP1 DUP3 SWAP1 DUP3 SWAP1 DUP2 SWAP1 DUP10 LT PUSH2 0xD5A JUMPI PUSH1 0x40 MLOAD PUSH3 0x461BCD PUSH1 0xE5 SHL DUP2 MSTORE PUSH1 0x20 PUSH1 0x4 DUP3 ADD MSTORE PUSH1 0x13 PUSH1 0x24 DUP3 ADD MSTORE PUSH19 0x496E646578206F7574206F6620626F756E6473 PUSH1 0x68 SHL PUSH1 0x44 DUP3 ADD MSTORE PUSH1 0x64 ADD PUSH2 0x74A JUMP JUMPDEST PUSH1 0x1 PUSH1 0x1 PUSH1 0xA0 SHL SUB DUP11 AND PUSH1 0x0 SWAP1 DUP2 MSTORE PUSH1 0x20 DUP2 SWAP1 MSTORE PUSH1 0x40 DUP2 KECCAK256 DUP1 SLOAD DUP12 SWAP1 DUP2 LT PUSH2 0xD84 JUMPI PUSH2 0xD84 PUSH2 0x5BA6 JUMP JUMPDEST SWAP1 PUSH1 0x0 MSTORE PUSH1 0x20 PUSH1 0x0 KECCAK256 SWAP1 PUSH1 0x8 MUL ADD PUSH1 0x40 MLOAD DUP1 PUSH2 0x100 ADD PUSH1 0x40 MSTORE SWAP1 DUP2 PUSH1 0x0 DUP3 ADD SLOAD DUP2 MSTORE PUSH1 0x20 ADD PUSH1 0x1 DUP3 ADD PUSH1 0x0 SWAP1 SLOAD SWAP1 PUSH2 0x100 EXP SWAP1 DIV PUSH1 0x1 PUSH1 0x1 PUSH1 0xA0 SHL SUB AND PUSH1 0x1 PUSH1 0x1 PUSH1 0xA0 SHL SUB AND PUSH1 0x1 PUSH1 0x1 PUSH1 0xA0 SHL SUB AND DUP2 MSTORE PUSH1 0x20 ADD PUSH1 0x2 DUP3 ADD DUP1 SLOAD PUSH2 0xDE7 SWAP1 PUSH2 0x5B6C JUMP JUMPDEST DUP1 PUSH1 0x1F ADD PUSH1 0x20 DUP1 SWAP2 DIV MUL PUSH1 0x20 ADD PUSH1 0x40 MLOAD SWAP1 DUP2 ADD PUSH1 0x40 MSTORE DUP1 SWAP3 SWAP2 SWAP1 DUP2 DUP2 MSTORE PUSH1 0x20 ADD DUP3 DUP1 SLOAD PUSH2 0xE13 SWAP1 PUSH2 0x5B6C JUMP JUMPDEST DUP1 ISZERO PUSH2 0xE60 JUMPI DUP1 PUSH1 0x1F LT PUSH2 0xE35 JUMPI PUSH2 0x100 DUP1 DUP4 SLOAD DIV MUL DUP4 MSTORE SWAP2 PUSH1 0x20 ADD SWAP2 PUSH2 0xE60 JUMP JUMPDEST DUP3 ADD SWAP2 SWAP1 PUSH1 0x0 MSTORE PUSH1 0x20 PUSH1 0x0 KECCAK256 SWAP1 JUMPDEST DUP2 SLOAD DUP2 MSTORE SWAP1 PUSH1 0x1 ADD SWAP1 PUSH1 0x20 ADD DUP1 DUP4 GT PUSH2 0xE43 JUMPI DUP3 SWAP1 SUB PUSH1 0x1F AND DUP3 ADD SWAP2 JUMPDEST POP POP POP POP POP DUP2 MSTORE PUSH1 0x20 ADD PUSH1 0x3 DUP3 ADD DUP1 SLOAD PUSH2 0xE79 SWAP1 PUSH2 0x5B6C JUMP JUMPDEST DUP1 PUSH1 0x1F ADD PUSH1 0x20 DUP1 SWAP2 DIV MUL PUSH1 0x20 ADD PUSH1 0x40 MLOAD SWAP1 DUP2 ADD PUSH1 0x40 MSTORE DUP1 SWAP3 SWAP2 SWAP1 DUP2 DUP2 MSTORE PUSH1 0x20 ADD DUP3 DUP1 SLOAD PUSH2 0xEA5 SWAP1 PUSH2 0x5B6C JUMP JUMPDEST DUP1 ISZERO PUSH2 0xEF2 JUMPI DUP1 PUSH1 0x1F LT PUSH2 0xEC7 JUMPI PUSH2 0x100 DUP1 DUP4 SLOAD DIV MUL DUP4 MSTORE SWAP2 PUSH1 0x20 ADD SWAP2 PUSH2 0xEF2 JUMP JUMPDEST DUP3 ADD SWAP2 SWAP1 PUSH1 0x0 MSTORE PUSH1 0x20 PUSH1 0x0 KECCAK256 SWAP1 JUMPDEST DUP2 SLOAD DUP2 MSTORE SWAP1 PUSH1 0x1 ADD SWAP1 PUSH1 0x20 ADD DUP1 DUP4 GT PUSH2 0xED5 JUMPI DUP3 SWAP1 SUB PUSH1 0x1F AND DUP3 ADD SWAP2 JUMPDEST POP POP POP SWAP2 DUP4 MSTORE POP POP PUSH1 0x4 DUP3 ADD SLOAD PUSH1 0x1 PUSH1 0x1 PUSH1 0xA0 SHL SUB AND PUSH1 0x20 DUP3 ADD MSTORE PUSH1 0x5 DUP3 ADD DUP1 SLOAD PUSH1 0x40 SWAP1 SWAP3 ADD SWAP2 PUSH2 0xF22 SWAP1 PUSH2 0x5B6C JUMP JUMPDEST DUP1 PUSH1 0x1F ADD PUSH1 0x20 DUP1 SWAP2 DIV MUL PUSH1 0x20 ADD PUSH1 0x40 MLOAD SWAP1 DUP2 ADD PUSH1 0x40 MSTORE DUP1 SWAP3 SWAP2 SWAP1 DUP2 DUP2 MSTORE PUSH1 0x20 ADD DUP3 DUP1 SLOAD PUSH2 0xF4E SWAP1 PUSH2 0x5B6C JUMP JUMPDEST DUP1 ISZERO PUSH2 0xF9B JUMPI DUP1 PUSH1 0x1F LT PUSH2 0xF70 JUMPI PUSH2 0x100 DUP1 DUP4 SLOAD DIV MUL DUP4 MSTORE SWAP2 PUSH1 0x20 ADD SWAP2 PUSH2 0xF9B JUMP JUMPDEST DUP3 ADD SWAP2 SWAP1 PUSH1 0x0 MSTORE PUSH1 0x20 PUSH1 0x0 KECCAK256 SWAP1 JUMPDEST DUP2 SLOAD DUP2 MSTORE SWAP1 PUSH1 0x1 ADD SWAP1 PUSH1 0x20 ADD DUP1 DUP4 GT PUSH2 0xF7E JUMPI DUP3 SWAP1 SUB PUSH1 0x1F AND DUP3 ADD SWAP2 JUMPDEST POP POP POP SWAP2 DUP4 MSTORE POP POP PUSH1 0x6 DUP3 ADD SLOAD PUSH1 0x1 PUSH1 0x1 PUSH1 0xA0 SHL SUB AND PUSH1 0x20 DUP1 DUP4 ADD SWAP2 SWAP1 SWAP2 MSTORE PUSH1 0x7 SWAP1 SWAP3 ADD SLOAD PUSH1 0x40 SWAP2 DUP3 ADD MSTORE DUP3 MLOAD SWAP2 DUP4 ADD MLOAD SWAP1 DUP4 ADD MLOAD PUSH1 0x60 DUP5 ADD MLOAD PUSH1 0x80 DUP6 ADD MLOAD PUSH1 0xA0 DUP7 ADD MLOAD PUSH1 0xC0 DUP8 ADD MLOAD PUSH1 0xE0 SWAP1 SWAP8 ADD MLOAD SWAP6 SWAP16 POP SWAP4 SWAP14 POP SWAP2 SWAP12 POP SWAP10 POP SWAP8 POP SWAP6 POP SWAP1 SWAP4 POP SWAP2 POP POP SWAP3 SWAP6 SWAP9 POP SWAP3 SWAP6 SWAP9 SWAP1 SWAP4 SWAP7 POP JUMP JUMPDEST PUSH1 0x1 PUSH1 0x1 PUSH1 0xA0 SHL SUB DUP2 AND PUSH1 0x0 SWAP1 DUP2 MSTORE PUSH1 0xE PUSH1 0x20 MSTORE PUSH1 0x40 SWAP1 KECCAK256 PUSH1 0x1 ADD DUP1 SLOAD PUSH1 0x60 SWAP2 SWAP1 PUSH2 0x1036 SWAP1 PUSH2 0x5B6C JUMP JUMPDEST DUP1 PUSH1 0x1F ADD PUSH1 0x20 DUP1 SWAP2 DIV MUL PUSH1 0x20 ADD PUSH1 0x40 MLOAD SWAP1 DUP2 ADD PUSH1 0x40 MSTORE DUP1 SWAP3 SWAP2 SWAP1 DUP2 DUP2 MSTORE PUSH1 0x20 ADD DUP3 DUP1 SLOAD PUSH2 0x1062 SWAP1 PUSH2 0x5B6C JUMP JUMPDEST DUP1 ISZERO PUSH2 0x969 JUMPI DUP1 PUSH1 0x1F LT PUSH2 0x1084 JUMPI PUSH2 0x100 DUP1 DUP4 SLOAD DIV MUL DUP4 MSTORE SWAP2 PUSH1 0x20 ADD SWAP2 PUSH2 0x969 JUMP JUMPDEST DUP3 ADD SWAP2 SWAP1 PUSH1 0x0 MSTORE PUSH1 0x20 PUSH1 0x0 KECCAK256 SWAP1 JUMPDEST DUP2 SLOAD DUP2 MSTORE SWAP1 PUSH1 0x1 ADD SWAP1 PUSH1 0x20 ADD DUP1 DUP4 GT PUSH2 0x1092 JUMPI POP SWAP4 SWAP7 SWAP6 POP POP POP POP POP POP JUMP JUMPDEST PUSH1 0xD SLOAD PUSH1 0x1 PUSH1 0x1 PUSH1 0xA0 SHL SUB AND CALLER EQ PUSH2 0x10DB JUMPI PUSH1 0x40 MLOAD PUSH3 0x461BCD PUSH1 0xE5 SHL DUP2 MSTORE PUSH1 0x4 ADD PUSH2 0x74A SWAP1 PUSH2 0x5BBC JUMP JUMPDEST PUSH1 0x1 PUSH1 0x1 PUSH1 0xA0 SHL SUB DUP2 AND PUSH1 0x0 SWAP1 DUP2 MSTORE PUSH1 0xE PUSH1 0x20 MSTORE PUSH1 0x40 DUP2 KECCAK256 DUP1 SLOAD PUSH1 0x1 PUSH1 0x1 PUSH1 0xA0 SHL SUB NOT AND DUP2 SSTORE SWAP1 PUSH2 0x110F PUSH1 0x1 DUP4 ADD DUP3 PUSH2 0x532A JUMP JUMPDEST PUSH2 0x111D PUSH1 0x2 DUP4 ADD PUSH1 0x0 PUSH2 0x532A JUMP JUMPDEST POP PUSH1 0x0 PUSH1 0x3 DUP3 ADD DUP2 SWAP1 SSTORE PUSH1 0x4 SWAP1 SWAP2 ADD DUP1 SLOAD PUSH1 0xFF NOT SWAP1 DUP2 AND SWAP1 SWAP2 SSTORE PUSH1 0x1 PUSH1 0x1 PUSH1 0xA0 SHL SUB DUP4 AND DUP3 MSTORE PUSH1 0x6 PUSH1 0x20 MSTORE PUSH1 0x40 DUP3 KECCAK256 DUP1 SLOAD SWAP1 SWAP2 AND SWAP1 SSTORE JUMPDEST PUSH1 0xF SLOAD DUP2 LT ISZERO PUSH2 0x124F JUMPI DUP2 PUSH1 0x1 PUSH1 0x1 PUSH1 0xA0 SHL SUB AND PUSH1 0xF DUP3 DUP2 SLOAD DUP2 LT PUSH2 0x117B JUMPI PUSH2 0x117B PUSH2 0x5BA6 JUMP JUMPDEST PUSH1 0x0 SWAP2 DUP3 MSTORE PUSH1 0x20 SWAP1 SWAP2 KECCAK256 ADD SLOAD PUSH1 0x1 PUSH1 0x1 PUSH1 0xA0 SHL SUB AND SUB PUSH2 0x1247 JUMPI PUSH1 0xF DUP1 SLOAD PUSH2 0x11A5 SWAP1 PUSH1 0x1 SWAP1 PUSH2 0x5BFE JUMP JUMPDEST DUP2 SLOAD DUP2 LT PUSH2 0x11B5 JUMPI PUSH2 0x11B5 PUSH2 0x5BA6 JUMP JUMPDEST PUSH1 0x0 SWAP2 DUP3 MSTORE PUSH1 0x20 SWAP1 SWAP2 KECCAK256 ADD SLOAD PUSH1 0xF DUP1 SLOAD PUSH1 0x1 PUSH1 0x1 PUSH1 0xA0 SHL SUB SWAP1 SWAP3 AND SWAP2 DUP4 SWAP1 DUP2 LT PUSH2 0x11E1 JUMPI PUSH2 0x11E1 PUSH2 0x5BA6 JUMP JUMPDEST SWAP1 PUSH1 0x0 MSTORE PUSH1 0x20 PUSH1 0x0 KECCAK256 ADD PUSH1 0x0 PUSH2 0x100 EXP DUP2 SLOAD DUP2 PUSH1 0x1 PUSH1 0x1 PUSH1 0xA0 SHL SUB MUL NOT AND SWAP1 DUP4 PUSH1 0x1 PUSH1 0x1 PUSH1 0xA0 SHL SUB AND MUL OR SWAP1 SSTORE POP PUSH1 0xF DUP1 SLOAD DUP1 PUSH2 0x1220 JUMPI PUSH2 0x1220 PUSH2 0x5C11 JUMP JUMPDEST PUSH1 0x0 DUP3 DUP2 MSTORE PUSH1 0x20 SWAP1 KECCAK256 DUP2 ADD PUSH1 0x0 NOT SWAP1 DUP2 ADD DUP1 SLOAD PUSH1 0x1 PUSH1 0x1 PUSH1 0xA0 SHL SUB NOT AND SWAP1 SSTORE ADD SWAP1 SSTORE PUSH2 0x124F JUMP JUMPDEST PUSH1 0x1 ADD PUSH2 0x1154 JUMP JUMPDEST POP PUSH1 0xC DUP1 SLOAD SWAP1 PUSH1 0x0 PUSH2 0x1260 DUP4 PUSH2 0x5C27 JUMP JUMPDEST SWAP2 SWAP1 POP SSTORE POP POP JUMP JUMPDEST PUSH1 0x60 DUP1 PUSH1 0x0 DUP1 DUP1 DUP1 DUP1 DUP1 DUP1 PUSH1 0x1 JUMPDEST PUSH1 0xA SLOAD DUP2 GT PUSH2 0x1503 JUMPI DUP11 DUP1 MLOAD SWAP1 PUSH1 0x20 ADD KECCAK256 PUSH1 0x7 PUSH1 0x0 DUP4 DUP2 MSTORE PUSH1 0x20 ADD SWAP1 DUP2 MSTORE PUSH1 0x20 ADD PUSH1 0x0 KECCAK256 PUSH1 0x0 ADD PUSH1 0x40 MLOAD PUSH2 0x12AA SWAP2 SWAP1 PUSH2 0x5C3E JUMP JUMPDEST PUSH1 0x40 MLOAD DUP1 SWAP2 SUB SWAP1 KECCAK256 SUB PUSH2 0x14F1 JUMPI PUSH1 0x0 DUP2 DUP2 MSTORE PUSH1 0x7 PUSH1 0x20 MSTORE PUSH1 0x40 DUP1 DUP3 KECCAK256 DUP2 MLOAD PUSH2 0x120 DUP2 ADD SWAP1 SWAP3 MSTORE DUP1 SLOAD DUP3 SWAP1 DUP3 SWAP1 PUSH2 0x12DF SWAP1 PUSH2 0x5B6C JUMP JUMPDEST DUP1 PUSH1 0x1F ADD PUSH1 0x20 DUP1 SWAP2 DIV MUL PUSH1 0x20 ADD PUSH1 0x40 MLOAD SWAP1 DUP2 ADD PUSH1 0x40 MSTORE DUP1 SWAP3 SWAP2 SWAP1 DUP2 DUP2 MSTORE PUSH1 0x20 ADD DUP3 DUP1 SLOAD PUSH2 0x130B SWAP1 PUSH2 0x5B6C JUMP JUMPDEST DUP1 ISZERO PUSH2 0x1358 JUMPI DUP1 PUSH1 0x1F LT PUSH2 0x132D JUMPI PUSH2 0x100 DUP1 DUP4 SLOAD DIV MUL DUP4 MSTORE SWAP2 PUSH1 0x20 ADD SWAP2 PUSH2 0x1358 JUMP JUMPDEST DUP3 ADD SWAP2 SWAP1 PUSH1 0x0 MSTORE PUSH1 0x20 PUSH1 0x0 KECCAK256 SWAP1 JUMPDEST DUP2 SLOAD DUP2 MSTORE SWAP1 PUSH1 0x1 ADD SWAP1 PUSH1 0x20 ADD DUP1 DUP4 GT PUSH2 0x133B JUMPI DUP3 SWAP1 SUB PUSH1 0x1F AND DUP3 ADD SWAP2 JUMPDEST POP POP POP POP POP DUP2 MSTORE PUSH1 0x20 ADD PUSH1 0x1 DUP3 ADD DUP1 SLOAD PUSH2 0x1371 SWAP1 PUSH2 0x5B6C JUMP JUMPDEST DUP1 PUSH1 0x1F ADD PUSH1 0x20 DUP1 SWAP2 DIV MUL PUSH1 0x20 ADD PUSH1 0x40 MLOAD SWAP1 DUP2 ADD PUSH1 0x40 MSTORE DUP1 SWAP3 SWAP2 SWAP1 DUP2 DUP2 MSTORE PUSH1 0x20 ADD DUP3 DUP1 SLOAD PUSH2 0x139D SWAP1 PUSH2 0x5B6C JUMP JUMPDEST DUP1 ISZERO PUSH2 0x13EA JUMPI DUP1 PUSH1 0x1F LT PUSH2 0x13BF JUMPI PUSH2 0x100 DUP1 DUP4 SLOAD DIV MUL DUP4 MSTORE SWAP2 PUSH1 0x20 ADD SWAP2 PUSH2 0x13EA JUMP JUMPDEST DUP3 ADD SWAP2 SWAP1 PUSH1 0x0 MSTORE PUSH1 0x20 PUSH1 0x0 KECCAK256 SWAP1 JUMPDEST DUP2 SLOAD DUP2 MSTORE SWAP1 PUSH1 0x1 ADD SWAP1 PUSH1 0x20 ADD DUP1 DUP4 GT PUSH2 0x13CD JUMPI DUP3 SWAP1 SUB PUSH1 0x1F AND DUP3 ADD SWAP2 JUMPDEST POP POP POP POP POP DUP2 MSTORE PUSH1 0x20 ADD PUSH1 0x2 DUP3 ADD PUSH1 0x0 SWAP1 SLOAD SWAP1 PUSH2 0x100 EXP SWAP1 DIV PUSH1 0x1 PUSH1 0x1 PUSH1 0xA0 SHL SUB AND PUSH1 0x1 PUSH1 0x1 PUSH1 0xA0 SHL SUB AND PUSH1 0x1 PUSH1 0x1 PUSH1 0xA0 SHL SUB AND DUP2 MSTORE PUSH1 0x20 ADD PUSH1 0x3 DUP3 ADD PUSH1 0x0 SWAP1 SLOAD SWAP1 PUSH2 0x100 EXP SWAP1 DIV PUSH1 0x1 PUSH1 0x1 PUSH1 0xA0 SHL SUB AND PUSH1 0x1 PUSH1 0x1 PUSH1 0xA0 SHL SUB AND PUSH1 0x1 PUSH1 0x1 PUSH1 0xA0 SHL SUB AND DUP2 MSTORE PUSH1 0x20 ADD PUSH1 0x4 DUP3 ADD PUSH1 0x0 SWAP1 SLOAD SWAP1 PUSH2 0x100 EXP SWAP1 DIV PUSH1 0x1 PUSH1 0x1 PUSH1 0xA0 SHL SUB AND PUSH1 0x1 PUSH1 0x1 PUSH1 0xA0 SHL SUB AND PUSH1 0x1 PUSH1 0x1 PUSH1 0xA0 SHL SUB AND DUP2 MSTORE PUSH1 0x20 ADD PUSH1 0x5 DUP3 ADD SLOAD DUP2 MSTORE PUSH1 0x20 ADD PUSH1 0x6 DUP3 ADD SLOAD DUP2 MSTORE PUSH1 0x20 ADD PUSH1 0x7 DUP3 ADD SLOAD DUP2 MSTORE PUSH1 0x20 ADD PUSH1 0x8 DUP3 ADD SLOAD DUP2 MSTORE POP POP SWAP1 POP DUP1 PUSH1 0x0 ADD MLOAD DUP2 PUSH1 0x20 ADD MLOAD DUP3 PUSH1 0x40 ADD MLOAD DUP4 PUSH1 0x60 ADD MLOAD DUP5 PUSH1 0x80 ADD MLOAD DUP6 PUSH1 0xA0 ADD MLOAD DUP7 PUSH1 0xC0 ADD MLOAD DUP8 PUSH1 0xE0 ADD MLOAD DUP9 PUSH2 0x100 ADD MLOAD SWAP11 POP SWAP11 POP SWAP11 POP SWAP11 POP SWAP11 POP SWAP11 POP SWAP11 POP SWAP11 POP SWAP11 POP POP POP PUSH2 0x1540 JUMP JUMPDEST DUP1 PUSH2 0x14FB DUP2 PUSH2 0x5CB3 JUMP JUMPDEST SWAP2 POP POP PUSH2 0x1276 JUMP JUMPDEST POP PUSH1 0x40 MLOAD PUSH3 0x461BCD PUSH1 0xE5 SHL DUP2 MSTORE PUSH1 0x20 PUSH1 0x4 DUP3 ADD MSTORE PUSH1 0x11 PUSH1 0x24 DUP3 ADD MSTORE PUSH17 0x141C9BD91D58DD081B9BDD08199BDD5B99 PUSH1 0x7A SHL PUSH1 0x44 DUP3 ADD MSTORE PUSH1 0x64 ADD PUSH2 0x74A JUMP JUMPDEST SWAP2 SWAP4 SWAP6 SWAP8 SWAP10 SWAP1 SWAP3 SWAP5 SWAP7 SWAP9 POP JUMP JUMPDEST PUSH1 0x10 DUP2 DUP2 SLOAD DUP2 LT PUSH2 0xA7F JUMPI PUSH1 0x0 DUP1 REVERT JUMPDEST PUSH1 0x5 PUSH1 0x20 MSTORE PUSH1 0x0 SWAP1 DUP2 MSTORE PUSH1 0x40 SWAP1 KECCAK256 DUP1 SLOAD PUSH1 0x1 DUP3 ADD DUP1 SLOAD PUSH1 0x1 PUSH1 0x1 PUSH1 0xA0 SHL SUB SWAP1 SWAP3 AND SWAP3 SWAP2 PUSH2 0x1589 SWAP1 PUSH2 0x5B6C JUMP JUMPDEST DUP1 PUSH1 0x1F ADD PUSH1 0x20 DUP1 SWAP2 DIV MUL PUSH1 0x20 ADD PUSH1 0x40 MLOAD SWAP1 DUP2 ADD PUSH1 0x40 MSTORE DUP1 SWAP3 SWAP2 SWAP1 DUP2 DUP2 MSTORE PUSH1 0x20 ADD DUP3 DUP1 SLOAD PUSH2 0x15B5 SWAP1 PUSH2 0x5B6C JUMP JUMPDEST DUP1 ISZERO PUSH2 0x1602 JUMPI DUP1 PUSH1 0x1F LT PUSH2 0x15D7 JUMPI PUSH2 0x100 DUP1 DUP4 SLOAD DIV MUL DUP4 MSTORE SWAP2 PUSH1 0x20 ADD SWAP2 PUSH2 0x1602 JUMP JUMPDEST DUP3 ADD SWAP2 SWAP1 PUSH1 0x0 MSTORE PUSH1 0x20 PUSH1 0x0 KECCAK256 SWAP1 JUMPDEST DUP2 SLOAD DUP2 MSTORE SWAP1 PUSH1 0x1 ADD SWAP1 PUSH1 0x20 ADD DUP1 DUP4 GT PUSH2 0x15E5 JUMPI DUP3 SWAP1 SUB PUSH1 0x1F AND DUP3 ADD SWAP2 JUMPDEST POP POP POP POP POP SWAP1 DUP1 PUSH1 0x2 ADD DUP1 SLOAD PUSH2 0x1617 SWAP1 PUSH2 0x5B6C JUMP JUMPDEST DUP1 PUSH1 0x1F ADD PUSH1 0x20 DUP1 SWAP2 DIV MUL PUSH1 0x20 ADD PUSH1 0x40 MLOAD SWAP1 DUP2 ADD PUSH1 0x40 MSTORE DUP1 SWAP3 SWAP2 SWAP1 DUP2 DUP2 MSTORE PUSH1 0x20 ADD DUP3 DUP1 SLOAD PUSH2 0x1643 SWAP1 PUSH2 0x5B6C JUMP JUMPDEST DUP1 ISZERO PUSH2 0x1690 JUMPI DUP1 PUSH1 0x1F LT PUSH2 0x1665 JUMPI PUSH2 0x100 DUP1 DUP4 SLOAD DIV MUL DUP4 MSTORE SWAP2 PUSH1 0x20 ADD SWAP2 PUSH2 0x1690 JUMP JUMPDEST DUP3 ADD SWAP2 SWAP1 PUSH1 0x0 MSTORE PUSH1 0x20 PUSH1 0x0 KECCAK256 SWAP1 JUMPDEST DUP2 SLOAD DUP2 MSTORE SWAP1 PUSH1 0x1 ADD SWAP1 PUSH1 0x20 ADD DUP1 DUP4 GT PUSH2 0x1673 JUMPI DUP3 SWAP1 SUB PUSH1 0x1F AND DUP3 ADD SWAP2 JUMPDEST POP POP POP PUSH1 0x3 SWAP1 SWAP4 ADD SLOAD SWAP2 SWAP3 POP POP PUSH1 0xFF DUP1 DUP3 AND SWAP2 PUSH2 0x100 DUP2 DIV DUP3 AND SWAP2 PUSH3 0x10000 SWAP1 SWAP2 DIV AND DUP7 JUMP JUMPDEST PUSH1 0x0 PUSH1 0x60 DUP1 PUSH1 0x0 DUP1 PUSH1 0x0 DUP1 PUSH1 0x0 DUP1 PUSH1 0x4 PUSH1 0x0 DUP12 DUP2 MSTORE PUSH1 0x20 ADD SWAP1 DUP2 MSTORE PUSH1 0x20 ADD PUSH1 0x0 KECCAK256 PUSH1 0x40 MLOAD DUP1 PUSH2 0x100 ADD PUSH1 0x40 MSTORE SWAP1 DUP2 PUSH1 0x0 DUP3 ADD SLOAD DUP2 MSTORE PUSH1 0x20 ADD PUSH1 0x1 DUP3 ADD DUP1 SLOAD PUSH2 0x16FD SWAP1 PUSH2 0x5B6C JUMP JUMPDEST DUP1 PUSH1 0x1F ADD PUSH1 0x20 DUP1 SWAP2 DIV MUL PUSH1 0x20 ADD PUSH1 0x40 MLOAD SWAP1 DUP2 ADD PUSH1 0x40 MSTORE DUP1 SWAP3 SWAP2 SWAP1 DUP2 DUP2 MSTORE PUSH1 0x20 ADD DUP3 DUP1 SLOAD PUSH2 0x1729 SWAP1 PUSH2 0x5B6C JUMP JUMPDEST DUP1 ISZERO PUSH2 0x1776 JUMPI DUP1 PUSH1 0x1F LT PUSH2 0x174B JUMPI PUSH2 0x100 DUP1 DUP4 SLOAD DIV MUL DUP4 MSTORE SWAP2 PUSH1 0x20 ADD SWAP2 PUSH2 0x1776 JUMP JUMPDEST DUP3 ADD SWAP2 SWAP1 PUSH1 0x0 MSTORE PUSH1 0x20 PUSH1 0x0 KECCAK256 SWAP1 JUMPDEST DUP2 SLOAD DUP2 MSTORE SWAP1 PUSH1 0x1 ADD SWAP1 PUSH1 0x20 ADD DUP1 DUP4 GT PUSH2 0x1759 JUMPI DUP3 SWAP1 SUB PUSH1 0x1F AND DUP3 ADD SWAP2 JUMPDEST POP POP POP POP POP DUP2 MSTORE PUSH1 0x20 ADD PUSH1 0x2 DUP3 ADD DUP1 SLOAD PUSH2 0x178F SWAP1 PUSH2 0x5B6C JUMP JUMPDEST DUP1 PUSH1 0x1F ADD PUSH1 0x20 DUP1 SWAP2 DIV MUL PUSH1 0x20 ADD PUSH1 0x40 MLOAD SWAP1 DUP2 ADD PUSH1 0x40 MSTORE DUP1 SWAP3 SWAP2 SWAP1 DUP2 DUP2 MSTORE PUSH1 0x20 ADD DUP3 DUP1 SLOAD PUSH2 0x17BB SWAP1 PUSH2 0x5B6C JUMP JUMPDEST DUP1 ISZERO PUSH2 0x1808 JUMPI DUP1 PUSH1 0x1F LT PUSH2 0x17DD JUMPI PUSH2 0x100 DUP1 DUP4 SLOAD DIV MUL DUP4 MSTORE SWAP2 PUSH1 0x20 ADD SWAP2 PUSH2 0x1808 JUMP JUMPDEST DUP3 ADD SWAP2 SWAP1 PUSH1 0x0 MSTORE PUSH1 0x20 PUSH1 0x0 KECCAK256 SWAP1 JUMPDEST DUP2 SLOAD DUP2 MSTORE SWAP1 PUSH1 0x1 ADD SWAP1 PUSH1 0x20 ADD DUP1 DUP4 GT PUSH2 0x17EB JUMPI DUP3 SWAP1 SUB PUSH1 0x1F AND DUP3 ADD SWAP2 JUMPDEST POP POP POP SWAP2 DUP4 MSTORE POP POP PUSH1 0x3 DUP3 DUP2 ADD SLOAD PUSH1 0x20 DUP4 ADD MSTORE PUSH1 0x4 DUP4 ADD SLOAD PUSH1 0x40 DUP4 ADD MSTORE PUSH1 0x5 DUP4 ADD SLOAD PUSH1 0x60 DUP4 ADD MSTORE PUSH1 0x6 DUP4 ADD SLOAD PUSH1 0x1 PUSH1 0x1 PUSH1 0xA0 SHL SUB DUP2 AND PUSH1 0x80 DUP5 ADD MSTORE PUSH1 0xA0 SWAP1 SWAP3 ADD SWAP2 PUSH1 0x1 PUSH1 0xA0 SHL SWAP1 DIV PUSH1 0xFF AND SWAP1 DUP2 GT ISZERO PUSH2 0x1863 JUMPI PUSH2 0x1863 PUSH2 0x54CB JUMP JUMPDEST PUSH1 0x3 DUP2 GT ISZERO PUSH2 0x1874 JUMPI PUSH2 0x1874 PUSH2 0x54CB JUMP JUMPDEST DUP2 MSTORE POP POP SWAP1 POP DUP1 PUSH1 0x0 ADD MLOAD DUP2 PUSH1 0x20 ADD MLOAD DUP3 PUSH1 0x40 ADD MLOAD DUP4 PUSH1 0x60 ADD MLOAD DUP5 PUSH1 0xA0 ADD MLOAD DUP6 PUSH1 0x80 ADD MLOAD DUP7 PUSH1 0xC0 ADD MLOAD DUP8 PUSH1 0xE0 ADD MLOAD SWAP9 POP SWAP9 POP SWAP9 POP SWAP9 POP SWAP9 POP SWAP9 POP SWAP9 POP SWAP9 POP POP SWAP2 SWAP4 SWAP6 SWAP8 POP SWAP2 SWAP4 SWAP6 SWAP8 JUMP JUMPDEST PUSH1 0xF DUP2 DUP2 SLOAD DUP2 LT PUSH2 0xA7F JUMPI PUSH1 0x0 DUP1 REVERT JUMPDEST PUSH1 0xB DUP1 SLOAD SWAP1 PUSH1 0x0 PUSH2 0x18DE DUP4 PUSH2 0x5CB3 JUMP JUMPDEST SWAP2 SWAP1 POP SSTORE POP PUSH1 0x40 MLOAD DUP1 PUSH1 0xC0 ADD PUSH1 0x40 MSTORE DUP1 CALLER PUSH1 0x1 PUSH1 0x1 PUSH1 0xA0 SHL SUB AND DUP2 MSTORE PUSH1 0x20 ADD DUP5 DUP2 MSTORE PUSH1 0x20 ADD DUP3 DUP2 MSTORE PUSH1 0x20 ADD DUP4 PUSH1 0x2 DUP2 GT ISZERO PUSH2 0x191B JUMPI PUSH2 0x191B PUSH2 0x54CB JUMP JUMPDEST DUP2 MSTORE PUSH1 0x0 PUSH1 0x20 DUP1 DUP4 ADD DUP3 SWAP1 MSTORE PUSH1 0x1 PUSH1 0x40 SWAP4 DUP5 ADD DUP2 SWAP1 MSTORE PUSH1 0xB SLOAD DUP4 MSTORE PUSH1 0x5 DUP3 MSTORE SWAP3 SWAP1 SWAP2 KECCAK256 DUP4 MLOAD DUP2 SLOAD PUSH1 0x1 PUSH1 0x1 PUSH1 0xA0 SHL SUB NOT AND PUSH1 0x1 PUSH1 0x1 PUSH1 0xA0 SHL SUB SWAP1 SWAP2 AND OR DUP2 SSTORE SWAP1 DUP4 ADD MLOAD SWAP1 SWAP2 DUP3 ADD SWAP1 PUSH2 0x196D SWAP1 DUP3 PUSH2 0x5D1B JUMP JUMPDEST POP PUSH1 0x40 DUP3 ADD MLOAD PUSH1 0x2 DUP3 ADD SWAP1 PUSH2 0x1982 SWAP1 DUP3 PUSH2 0x5D1B JUMP JUMPDEST POP PUSH1 0x60 DUP3 ADD MLOAD PUSH1 0x3 DUP3 ADD DUP1 SLOAD PUSH1 0xFF NOT AND PUSH1 0x1 DUP4 PUSH1 0x2 DUP2 GT ISZERO PUSH2 0x19A6 JUMPI PUSH2 0x19A6 PUSH2 0x54CB JUMP JUMPDEST MUL OR SWAP1 SSTORE POP PUSH1 0x80 DUP3 ADD MLOAD PUSH1 0x3 SWAP1 SWAP2 ADD DUP1 SLOAD PUSH1 0xA0 SWAP1 SWAP4 ADD MLOAD ISZERO ISZERO PUSH3 0x10000 MUL PUSH3 0xFF0000 NOT SWAP3 ISZERO ISZERO PUSH2 0x100 MUL SWAP3 SWAP1 SWAP3 AND PUSH3 0xFFFF00 NOT SWAP1 SWAP4 AND SWAP3 SWAP1 SWAP3 OR OR SWAP1 SSTORE POP POP POP JUMP JUMPDEST PUSH1 0x3 PUSH1 0x20 MSTORE PUSH1 0x0 SWAP1 DUP2 MSTORE PUSH1 0x40 SWAP1 KECCAK256 DUP1 SLOAD PUSH1 0x1 DUP3 ADD DUP1 SLOAD SWAP2 SWAP3 SWAP2 PUSH2 0x1A0A SWAP1 PUSH2 0x5B6C JUMP JUMPDEST DUP1 PUSH1 0x1F ADD PUSH1 0x20 DUP1 SWAP2 DIV MUL PUSH1 0x20 ADD PUSH1 0x40 MLOAD SWAP1 DUP2 ADD PUSH1 0x40 MSTORE DUP1 SWAP3 SWAP2 SWAP1 DUP2 DUP2 MSTORE PUSH1 0x20 ADD DUP3 DUP1 SLOAD PUSH2 0x1A36 SWAP1 PUSH2 0x5B6C JUMP JUMPDEST DUP1 ISZERO PUSH2 0x1A83 JUMPI DUP1 PUSH1 0x1F LT PUSH2 0x1A58 JUMPI PUSH2 0x100 DUP1 DUP4 SLOAD DIV MUL DUP4 MSTORE SWAP2 PUSH1 0x20 ADD SWAP2 PUSH2 0x1A83 JUMP JUMPDEST DUP3 ADD SWAP2 SWAP1 PUSH1 0x0 MSTORE PUSH1 0x20 PUSH1 0x0 KECCAK256 SWAP1 JUMPDEST DUP2 SLOAD DUP2 MSTORE SWAP1 PUSH1 0x1 ADD SWAP1 PUSH1 0x20 ADD DUP1 DUP4 GT PUSH2 0x1A66 JUMPI DUP3 SWAP1 SUB PUSH1 0x1F AND DUP3 ADD SWAP2 JUMPDEST POP POP POP POP POP SWAP1 DUP1 PUSH1 0x2 ADD DUP1 SLOAD PUSH2 0x1A98 SWAP1 PUSH2 0x5B6C JUMP JUMPDEST DUP1 PUSH1 0x1F ADD PUSH1 0x20 DUP1 SWAP2 DIV MUL PUSH1 0x20 ADD PUSH1 0x40 MLOAD SWAP1 DUP2 ADD PUSH1 0x40 MSTORE DUP1 SWAP3 SWAP2 SWAP1 DUP2 DUP2 MSTORE PUSH1 0x20 ADD DUP3 DUP1 SLOAD PUSH2 0x1AC4 SWAP1 PUSH2 0x5B6C JUMP JUMPDEST DUP1 ISZERO PUSH2 0x1B11 JUMPI DUP1 PUSH1 0x1F LT PUSH2 0x1AE6 JUMPI PUSH2 0x100 DUP1 DUP4 SLOAD DIV MUL DUP4 MSTORE SWAP2 PUSH1 0x20 ADD SWAP2 PUSH2 0x1B11 JUMP JUMPDEST DUP3 ADD SWAP2 SWAP1 PUSH1 0x0 MSTORE PUSH1 0x20 PUSH1 0x0 KECCAK256 SWAP1 JUMPDEST DUP2 SLOAD DUP2 MSTORE SWAP1 PUSH1 0x1 ADD SWAP1 PUSH1 0x20 ADD DUP1 DUP4 GT PUSH2 0x1AF4 JUMPI DUP3 SWAP1 SUB PUSH1 0x1F AND DUP3 ADD SWAP2 JUMPDEST POP POP POP POP PUSH1 0x3 DUP4 ADD SLOAD PUSH1 0x4 DUP5 ADD SLOAD PUSH1 0x5 DUP6 ADD SLOAD PUSH1 0x6 DUP7 ADD DUP1 SLOAD SWAP6 SWAP7 PUSH1 0x1 PUSH1 0x1 PUSH1 0xA0 SHL SUB SWAP5 DUP6 AND SWAP7 SWAP4 DUP6 AND SWAP6 POP SWAP4 SWAP1 SWAP2 AND SWAP3 SWAP2 PUSH2 0x1B4C SWAP1 PUSH2 0x5B6C JUMP JUMPDEST DUP1 PUSH1 0x1F ADD PUSH1 0x20 DUP1 SWAP2 DIV MUL PUSH1 0x20 ADD PUSH1 0x40 MLOAD SWAP1 DUP2 ADD PUSH1 0x40 MSTORE DUP1 SWAP3 SWAP2 SWAP1 DUP2 DUP2 MSTORE PUSH1 0x20 ADD DUP3 DUP1 SLOAD PUSH2 0x1B78 SWAP1 PUSH2 0x5B6C JUMP JUMPDEST DUP1 ISZERO PUSH2 0x1BC5 JUMPI DUP1 PUSH1 0x1F LT PUSH2 0x1B9A JUMPI PUSH2 0x100 DUP1 DUP4 SLOAD DIV MUL DUP4 MSTORE SWAP2 PUSH1 0x20 ADD SWAP2 PUSH2 0x1BC5 JUMP JUMPDEST DUP3 ADD SWAP2 SWAP1 PUSH1 0x0 MSTORE PUSH1 0x20 PUSH1 0x0 KECCAK256 SWAP1 JUMPDEST DUP2 SLOAD DUP2 MSTORE SWAP1 PUSH1 0x1 ADD SWAP1 PUSH1 0x20 ADD DUP1 DUP4 GT PUSH2 0x1BA8 JUMPI DUP3 SWAP1 SUB PUSH1 0x1F AND DUP3 ADD SWAP2 JUMPDEST POP POP POP POP POP SWAP1 DUP1 PUSH1 0x7 ADD DUP1 SLOAD PUSH2 0x1BDA SWAP1 PUSH2 0x5B6C JUMP JUMPDEST DUP1 PUSH1 0x1F ADD PUSH1 0x20 DUP1 SWAP2 DIV MUL PUSH1 0x20 ADD PUSH1 0x40 MLOAD SWAP1 DUP2 ADD PUSH1 0x40 MSTORE DUP1 SWAP3 SWAP2 SWAP1 DUP2 DUP2 MSTORE PUSH1 0x20 ADD DUP3 DUP1 SLOAD PUSH2 0x1C06 SWAP1 PUSH2 0x5B6C JUMP JUMPDEST DUP1 ISZERO PUSH2 0x1C53 JUMPI DUP1 PUSH1 0x1F LT PUSH2 0x1C28 JUMPI PUSH2 0x100 DUP1 DUP4 SLOAD DIV MUL DUP4 MSTORE SWAP2 PUSH1 0x20 ADD SWAP2 PUSH2 0x1C53 JUMP JUMPDEST DUP3 ADD SWAP2 SWAP1 PUSH1 0x0 MSTORE PUSH1 0x20 PUSH1 0x0 KECCAK256 SWAP1 JUMPDEST DUP2 SLOAD DUP2 MSTORE SWAP1 PUSH1 0x1 ADD SWAP1 PUSH1 0x20 ADD DUP1 DUP4 GT PUSH2 0x1C36 JUMPI DUP3 SWAP1 SUB PUSH1 0x1F AND DUP3 ADD SWAP2 JUMPDEST POP POP POP POP PUSH1 0x8 DUP4 ADD SLOAD PUSH1 0x9 SWAP1 SWAP4 ADD SLOAD SWAP2 SWAP3 SWAP2 PUSH1 0xFF AND SWAP1 POP DUP11 JUMP JUMPDEST PUSH1 0x4 PUSH1 0x20 MSTORE PUSH1 0x0 SWAP1 DUP2 MSTORE PUSH1 0x40 SWAP1 KECCAK256 DUP1 SLOAD PUSH1 0x1 DUP3 ADD DUP1 SLOAD SWAP2 SWAP3 SWAP2 PUSH2 0x1C8F SWAP1 PUSH2 0x5B6C JUMP JUMPDEST DUP1 PUSH1 0x1F ADD PUSH1 0x20 DUP1 SWAP2 DIV MUL PUSH1 0x20 ADD PUSH1 0x40 MLOAD SWAP1 DUP2 ADD PUSH1 0x40 MSTORE DUP1 SWAP3 SWAP2 SWAP1 DUP2 DUP2 MSTORE PUSH1 0x20 ADD DUP3 DUP1 SLOAD PUSH2 0x1CBB SWAP1 PUSH2 0x5B6C JUMP JUMPDEST DUP1 ISZERO PUSH2 0x1D08 JUMPI DUP1 PUSH1 0x1F LT PUSH2 0x1CDD JUMPI PUSH2 0x100 DUP1 DUP4 SLOAD DIV MUL DUP4 MSTORE SWAP2 PUSH1 0x20 ADD SWAP2 PUSH2 0x1D08 JUMP JUMPDEST DUP3 ADD SWAP2 SWAP1 PUSH1 0x0 MSTORE PUSH1 0x20 PUSH1 0x0 KECCAK256 SWAP1 JUMPDEST DUP2 SLOAD DUP2 MSTORE SWAP1 PUSH1 0x1 ADD SWAP1 PUSH1 0x20 ADD DUP1 DUP4 GT PUSH2 0x1CEB JUMPI DUP3 SWAP1 SUB PUSH1 0x1F AND DUP3 ADD SWAP2 JUMPDEST POP POP POP POP POP SWAP1 DUP1 PUSH1 0x2 ADD DUP1 SLOAD PUSH2 0x1D1D SWAP1 PUSH2 0x5B6C JUMP JUMPDEST DUP1 PUSH1 0x1F ADD PUSH1 0x20 DUP1 SWAP2 DIV MUL PUSH1 0x20 ADD PUSH1 0x40 MLOAD SWAP1 DUP2 ADD PUSH1 0x40 MSTORE DUP1 SWAP3 SWAP2 SWAP1 DUP2 DUP2 MSTORE PUSH1 0x20 ADD DUP3 DUP1 SLOAD PUSH2 0x1D49 SWAP1 PUSH2 0x5B6C JUMP JUMPDEST DUP1 ISZERO PUSH2 0x1D96 JUMPI DUP1 PUSH1 0x1F LT PUSH2 0x1D6B JUMPI PUSH2 0x100 DUP1 DUP4 SLOAD DIV MUL DUP4 MSTORE SWAP2 PUSH1 0x20 ADD SWAP2 PUSH2 0x1D96 JUMP JUMPDEST DUP3 ADD SWAP2 SWAP1 PUSH1 0x0 MSTORE PUSH1 0x20 PUSH1 0x0 KECCAK256 SWAP1 JUMPDEST DUP2 SLOAD DUP2 MSTORE SWAP1 PUSH1 0x1 ADD SWAP1 PUSH1 0x20 ADD DUP1 DUP4 GT PUSH2 0x1D79 JUMPI DUP3 SWAP1 SUB PUSH1 0x1F AND DUP3 ADD SWAP2 JUMPDEST POP POP POP POP PUSH1 0x3 DUP4 ADD SLOAD PUSH1 0x4 DUP5 ADD SLOAD PUSH1 0x5 DUP6 ADD SLOAD PUSH1 0x6 SWAP1 SWAP6 ADD SLOAD SWAP4 SWAP5 SWAP2 SWAP4 SWAP1 SWAP3 POP PUSH1 0x1 PUSH1 0x1 PUSH1 0xA0 SHL SUB DUP2 AND SWAP1 PUSH1 0x1 PUSH1 0xA0 SHL SWAP1 DIV PUSH1 0xFF AND DUP9 JUMP JUMPDEST PUSH1 0x0 DUP1 DUP3 PUSH1 0x2 DUP2 GT ISZERO PUSH2 0x1DE3 JUMPI PUSH2 0x1DE3 PUSH2 0x54CB JUMP JUMPDEST SUB PUSH2 0x1E07 JUMPI POP PUSH1 0x1 PUSH1 0x1 PUSH1 0xA0 SHL SUB DUP3 AND PUSH1 0x0 SWAP1 DUP2 MSTORE PUSH1 0x20 DUP2 SWAP1 MSTORE PUSH1 0x40 SWAP1 KECCAK256 SLOAD PUSH2 0x1E7B JUMP JUMPDEST PUSH1 0x1 DUP3 PUSH1 0x2 DUP2 GT ISZERO PUSH2 0x1E1B JUMPI PUSH2 0x1E1B PUSH2 0x54CB JUMP JUMPDEST SUB PUSH2 0x1E3F JUMPI POP PUSH1 0x1 PUSH1 0x1 PUSH1 0xA0 SHL SUB DUP3 AND PUSH1 0x0 SWAP1 DUP2 MSTORE PUSH1 0x1 PUSH1 0x20 MSTORE PUSH1 0x40 SWAP1 KECCAK256 SLOAD PUSH2 0x1E7B JUMP JUMPDEST PUSH1 0x2 DUP3 PUSH1 0x2 DUP2 GT ISZERO PUSH2 0x1E53 JUMPI PUSH2 0x1E53 PUSH2 0x54CB JUMP JUMPDEST SUB PUSH2 0x1E77 JUMPI POP PUSH1 0x1 PUSH1 0x1 PUSH1 0xA0 SHL SUB DUP3 AND PUSH1 0x0 SWAP1 DUP2 MSTORE PUSH1 0x2 PUSH1 0x20 MSTORE PUSH1 0x40 SWAP1 KECCAK256 SLOAD PUSH2 0x1E7B JUMP JUMPDEST POP PUSH1 0x0 JUMPDEST SWAP3 SWAP2 POP POP JUMP JUMPDEST PUSH1 0x2 PUSH1 0x20 MSTORE DUP2 PUSH1 0x0 MSTORE PUSH1 0x40 PUSH1 0x0 KECCAK256 DUP2 DUP2 SLOAD DUP2 LT PUSH2 0x1E9D JUMPI PUSH1 0x0 DUP1 REVERT JUMPDEST PUSH1 0x0 SWAP2 DUP3 MSTORE PUSH1 0x20 SWAP1 SWAP2 KECCAK256 PUSH1 0x8 SWAP1 SWAP2 MUL ADD DUP1 SLOAD PUSH1 0x1 DUP3 ADD SLOAD PUSH1 0x2 DUP4 ADD SLOAD PUSH1 0x3 DUP5 ADD DUP1 SLOAD SWAP4 SWAP7 POP PUSH1 0x1 PUSH1 0x1 PUSH1 0xA0 SHL SUB SWAP3 DUP4 AND SWAP6 POP SWAP2 AND SWAP3 SWAP2 PUSH2 0x1EDC SWAP1 PUSH2 0x5B6C JUMP JUMPDEST DUP1 PUSH1 0x1F ADD PUSH1 0x20 DUP1 SWAP2 DIV MUL PUSH1 0x20 ADD PUSH1 0x40 MLOAD SWAP1 DUP2 ADD PUSH1 0x40 MSTORE DUP1 SWAP3 SWAP2 SWAP1 DUP2 DUP2 MSTORE PUSH1 0x20 ADD DUP3 DUP1 SLOAD PUSH2 0x1F08 SWAP1 PUSH2 0x5B6C JUMP JUMPDEST DUP1 ISZERO PUSH2 0x1F55 JUMPI DUP1 PUSH1 0x1F LT PUSH2 0x1F2A JUMPI PUSH2 0x100 DUP1 DUP4 SLOAD DIV MUL DUP4 MSTORE SWAP2 PUSH1 0x20 ADD SWAP2 PUSH2 0x1F55 JUMP JUMPDEST DUP3 ADD SWAP2 SWAP1 PUSH1 0x0 MSTORE PUSH1 0x20 PUSH1 0x0 KECCAK256 SWAP1 JUMPDEST DUP2 SLOAD DUP2 MSTORE SWAP1 PUSH1 0x1 ADD SWAP1 PUSH1 0x20 ADD DUP1 DUP4 GT PUSH2 0x1F38 JUMPI DUP3 SWAP1 SUB PUSH1 0x1F AND DUP3 ADD SWAP2 JUMPDEST POP POP POP POP POP SWAP1 DUP1 PUSH1 0x4 ADD DUP1 SLOAD PUSH2 0x1F6A SWAP1 PUSH2 0x5B6C JUMP JUMPDEST DUP1 PUSH1 0x1F ADD PUSH1 0x20 DUP1 SWAP2 DIV MUL PUSH1 0x20 ADD PUSH1 0x40 MLOAD SWAP1 DUP2 ADD PUSH1 0x40 MSTORE DUP1 SWAP3 SWAP2 SWAP1 DUP2 DUP2 MSTORE PUSH1 0x20 ADD DUP3 DUP1 SLOAD PUSH2 0x1F96 SWAP1 PUSH2 0x5B6C JUMP JUMPDEST DUP1 ISZERO PUSH2 0x1FE3 JUMPI DUP1 PUSH1 0x1F LT PUSH2 0x1FB8 JUMPI PUSH2 0x100 DUP1 DUP4 SLOAD DIV MUL DUP4 MSTORE SWAP2 PUSH1 0x20 ADD SWAP2 PUSH2 0x1FE3 JUMP JUMPDEST DUP3 ADD SWAP2 SWAP1 PUSH1 0x0 MSTORE PUSH1 0x20 PUSH1 0x0 KECCAK256 SWAP1 JUMPDEST DUP2 SLOAD DUP2 MSTORE SWAP1 PUSH1 0x1 ADD SWAP1 PUSH1 0x20 ADD DUP1 DUP4 GT PUSH2 0x1FC6 JUMPI DUP3 SWAP1 SUB PUSH1 0x1F AND DUP3 ADD SWAP2 JUMPDEST POP POP POP POP POP SWAP1 DUP1 PUSH1 0x5 ADD SLOAD SWAP1 DUP1 PUSH1 0x6 ADD DUP1 SLOAD PUSH2 0x1FFE SWAP1 PUSH2 0x5B6C JUMP JUMPDEST DUP1 PUSH1 0x1F ADD PUSH1 0x20 DUP1 SWAP2 DIV MUL PUSH1 0x20 ADD PUSH1 0x40 MLOAD SWAP1 DUP2 ADD PUSH1 0x40 MSTORE DUP1 SWAP3 SWAP2 SWAP1 DUP2 DUP2 MSTORE PUSH1 0x20 ADD DUP3 DUP1 SLOAD PUSH2 0x202A SWAP1 PUSH2 0x5B6C JUMP JUMPDEST DUP1 ISZERO PUSH2 0x2077 JUMPI DUP1 PUSH1 0x1F LT PUSH2 0x204C JUMPI PUSH2 0x100 DUP1 DUP4 SLOAD DIV MUL DUP4 MSTORE SWAP2 PUSH1 0x20 ADD SWAP2 PUSH2 0x2077 JUMP JUMPDEST DUP3 ADD SWAP2 SWAP1 PUSH1 0x0 MSTORE PUSH1 0x20 PUSH1 0x0 KECCAK256 SWAP1 JUMPDEST DUP2 SLOAD DUP2 MSTORE SWAP1 PUSH1 0x1 ADD SWAP1 PUSH1 0x20 ADD DUP1 DUP4 GT PUSH2 0x205A JUMPI DUP3 SWAP1 SUB PUSH1 0x1F AND DUP3 ADD SWAP2 JUMPDEST POP POP POP POP POP SWAP1 DUP1 PUSH1 0x7 ADD SLOAD SWAP1 POP DUP9 JUMP JUMPDEST PUSH1 0x0 DUP1 JUMPDEST PUSH1 0x10 SLOAD DUP2 LT ISZERO PUSH2 0x20D8 JUMPI PUSH1 0x10 DUP2 DUP2 SLOAD DUP2 LT PUSH2 0x20A8 JUMPI PUSH2 0x20A8 PUSH2 0x5BA6 JUMP JUMPDEST PUSH1 0x0 SWAP2 DUP3 MSTORE PUSH1 0x20 SWAP1 SWAP2 KECCAK256 ADD SLOAD PUSH1 0x1 PUSH1 0x1 PUSH1 0xA0 SHL SUB SWAP1 DUP2 AND SWAP1 DUP5 AND SUB PUSH2 0x20D0 JUMPI POP PUSH1 0x0 SWAP3 SWAP2 POP POP JUMP JUMPDEST PUSH1 0x1 ADD PUSH2 0x208B JUMP JUMPDEST POP PUSH1 0x1 SWAP3 SWAP2 POP POP JUMP JUMPDEST PUSH1 0x11 DUP2 DUP2 SLOAD DUP2 LT PUSH2 0xA7F JUMPI PUSH1 0x0 DUP1 REVERT JUMPDEST PUSH1 0x0 DUP1 PUSH1 0x0 PUSH1 0x60 DUP1 PUSH1 0x0 PUSH1 0x60 PUSH1 0x0 DUP1 PUSH1 0x2 PUSH1 0x0 DUP13 PUSH1 0x1 PUSH1 0x1 PUSH1 0xA0 SHL SUB AND PUSH1 0x1 PUSH1 0x1 PUSH1 0xA0 SHL SUB AND DUP2 MSTORE PUSH1 0x20 ADD SWAP1 DUP2 MSTORE PUSH1 0x20 ADD PUSH1 0x0 KECCAK256 DUP11 DUP2 SLOAD DUP2 LT PUSH2 0x2136 JUMPI PUSH2 0x2136 PUSH2 0x5BA6 JUMP JUMPDEST PUSH1 0x0 SWAP2 DUP3 MSTORE PUSH1 0x20 SWAP2 DUP3 SWAP1 KECCAK256 PUSH1 0x40 DUP1 MLOAD PUSH2 0x100 DUP2 ADD DUP3 MSTORE PUSH1 0x8 SWAP1 SWAP4 MUL SWAP1 SWAP2 ADD DUP1 SLOAD DUP4 MSTORE PUSH1 0x1 DUP2 ADD SLOAD PUSH1 0x1 PUSH1 0x1 PUSH1 0xA0 SHL SUB SWAP1 DUP2 AND SWAP5 DUP5 ADD SWAP5 SWAP1 SWAP5 MSTORE PUSH1 0x2 DUP2 ADD SLOAD SWAP1 SWAP4 AND SWAP1 DUP3 ADD MSTORE PUSH1 0x3 DUP3 ADD DUP1 SLOAD SWAP2 SWAP3 SWAP2 PUSH1 0x60 DUP5 ADD SWAP2 SWAP1 PUSH2 0x2193 SWAP1 PUSH2 0x5B6C JUMP JUMPDEST DUP1 PUSH1 0x1F ADD PUSH1 0x20 DUP1 SWAP2 DIV MUL PUSH1 0x20 ADD PUSH1 0x40 MLOAD SWAP1 DUP2 ADD PUSH1 0x40 MSTORE DUP1 SWAP3 SWAP2 SWAP1 DUP2 DUP2 MSTORE PUSH1 0x20 ADD DUP3 DUP1 SLOAD PUSH2 0x21BF SWAP1 PUSH2 0x5B6C JUMP JUMPDEST DUP1 ISZERO PUSH2 0x220C JUMPI DUP1 PUSH1 0x1F LT PUSH2 0x21E1 JUMPI PUSH2 0x100 DUP1 DUP4 SLOAD DIV MUL DUP4 MSTORE SWAP2 PUSH1 0x20 ADD SWAP2 PUSH2 0x220C JUMP JUMPDEST DUP3 ADD SWAP2 SWAP1 PUSH1 0x0 MSTORE PUSH1 0x20 PUSH1 0x0 KECCAK256 SWAP1 JUMPDEST DUP2 SLOAD DUP2 MSTORE SWAP1 PUSH1 0x1 ADD SWAP1 PUSH1 0x20 ADD DUP1 DUP4 GT PUSH2 0x21EF JUMPI DUP3 SWAP1 SUB PUSH1 0x1F AND DUP3 ADD SWAP2 JUMPDEST POP POP POP POP POP DUP2 MSTORE PUSH1 0x20 ADD PUSH1 0x4 DUP3 ADD DUP1 SLOAD PUSH2 0x2225 SWAP1 PUSH2 0x5B6C JUMP JUMPDEST DUP1 PUSH1 0x1F ADD PUSH1 0x20 DUP1 SWAP2 DIV MUL PUSH1 0x20 ADD PUSH1 0x40 MLOAD SWAP1 DUP2 ADD PUSH1 0x40 MSTORE DUP1 SWAP3 SWAP2 SWAP1 DUP2 DUP2 MSTORE PUSH1 0x20 ADD DUP3 DUP1 SLOAD PUSH2 0x2251 SWAP1 PUSH2 0x5B6C JUMP JUMPDEST DUP1 ISZERO PUSH2 0x229E JUMPI DUP1 PUSH1 0x1F LT PUSH2 0x2273 JUMPI PUSH2 0x100 DUP1 DUP4 SLOAD DIV MUL DUP4 MSTORE SWAP2 PUSH1 0x20 ADD SWAP2 PUSH2 0x229E JUMP JUMPDEST DUP3 ADD SWAP2 SWAP1 PUSH1 0x0 MSTORE PUSH1 0x20 PUSH1 0x0 KECCAK256 SWAP1 JUMPDEST DUP2 SLOAD DUP2 MSTORE SWAP1 PUSH1 0x1 ADD SWAP1 PUSH1 0x20 ADD DUP1 DUP4 GT PUSH2 0x2281 JUMPI DUP3 SWAP1 SUB PUSH1 0x1F AND DUP3 ADD SWAP2 JUMPDEST POP POP POP POP POP DUP2 MSTORE PUSH1 0x20 ADD PUSH1 0x5 DUP3 ADD SLOAD DUP2 MSTORE PUSH1 0x20 ADD PUSH1 0x6 DUP3 ADD DUP1 SLOAD PUSH2 0x22C1 SWAP1 PUSH2 0x5B6C JUMP JUMPDEST DUP1 PUSH1 0x1F ADD PUSH1 0x20 DUP1 SWAP2 DIV MUL PUSH1 0x20 ADD PUSH1 0x40 MLOAD SWAP1 DUP2 ADD PUSH1 0x40 MSTORE DUP1 SWAP3 SWAP2 SWAP1 DUP2 DUP2 MSTORE PUSH1 0x20 ADD DUP3 DUP1 SLOAD PUSH2 0x22ED SWAP1 PUSH2 0x5B6C JUMP JUMPDEST DUP1 ISZERO PUSH2 0x233A JUMPI DUP1 PUSH1 0x1F LT PUSH2 0x230F JUMPI PUSH2 0x100 DUP1 DUP4 SLOAD DIV MUL DUP4 MSTORE SWAP2 PUSH1 0x20 ADD SWAP2 PUSH2 0x233A JUMP JUMPDEST DUP3 ADD SWAP2 SWAP1 PUSH1 0x0 MSTORE PUSH1 0x20 PUSH1 0x0 KECCAK256 SWAP1 JUMPDEST DUP2 SLOAD DUP2 MSTORE SWAP1 PUSH1 0x1 ADD SWAP1 PUSH1 0x20 ADD DUP1 DUP4 GT PUSH2 0x231D JUMPI DUP3 SWAP1 SUB PUSH1 0x1F AND DUP3 ADD SWAP2 JUMPDEST POP POP POP POP POP DUP2 MSTORE PUSH1 0x20 ADD PUSH1 0x7 DUP3 ADD SLOAD DUP2 MSTORE POP POP SWAP1 POP DUP1 PUSH1 0x0 ADD MLOAD DUP2 PUSH1 0x20 ADD MLOAD DUP3 PUSH1 0x40 ADD MLOAD DUP4 PUSH1 0x60 ADD MLOAD DUP5 PUSH1 0x80 ADD MLOAD DUP6 PUSH1 0xA0 ADD MLOAD DUP7 PUSH1 0xC0 ADD MLOAD DUP8 PUSH1 0xE0 ADD MLOAD SWAP9 POP SWAP9 POP SWAP9 POP SWAP9 POP SWAP9 POP SWAP9 POP SWAP9 POP SWAP9 POP POP SWAP3 SWAP6 SWAP9 POP SWAP3 SWAP6 SWAP9 SWAP1 SWAP4 SWAP7 POP JUMP JUMPDEST PUSH1 0x1 PUSH1 0x20 MSTORE DUP2 PUSH1 0x0 MSTORE PUSH1 0x40 PUSH1 0x0 KECCAK256 DUP2 DUP2 SLOAD DUP2 LT PUSH2 0x23B1 JUMPI PUSH1 0x0 DUP1 REVERT JUMPDEST PUSH1 0x0 SWAP2 DUP3 MSTORE PUSH1 0x20 SWAP1 SWAP2 KECCAK256 PUSH1 0x9 SWAP1 SWAP2 MUL ADD DUP1 SLOAD PUSH1 0x1 DUP3 ADD SLOAD PUSH1 0x2 DUP4 ADD SLOAD PUSH1 0x3 DUP5 ADD DUP1 SLOAD SWAP4 SWAP7 POP PUSH1 0x1 PUSH1 0x1 PUSH1 0xA0 SHL SUB SWAP3 DUP4 AND SWAP6 POP SWAP2 AND SWAP3 SWAP2 PUSH2 0x23F0 SWAP1 PUSH2 0x5B6C JUMP JUMPDEST DUP1 PUSH1 0x1F ADD PUSH1 0x20 DUP1 SWAP2 DIV MUL PUSH1 0x20 ADD PUSH1 0x40 MLOAD SWAP1 DUP2 ADD PUSH1 0x40 MSTORE DUP1 SWAP3 SWAP2 SWAP1 DUP2 DUP2 MSTORE PUSH1 0x20 ADD DUP3 DUP1 SLOAD PUSH2 0x241C SWAP1 PUSH2 0x5B6C JUMP JUMPDEST DUP1 ISZERO PUSH2 0x2469 JUMPI DUP1 PUSH1 0x1F LT PUSH2 0x243E JUMPI PUSH2 0x100 DUP1 DUP4 SLOAD DIV MUL DUP4 MSTORE SWAP2 PUSH1 0x20 ADD SWAP2 PUSH2 0x2469 JUMP JUMPDEST DUP3 ADD SWAP2 SWAP1 PUSH1 0x0 MSTORE PUSH1 0x20 PUSH1 0x0 KECCAK256 SWAP1 JUMPDEST DUP2 SLOAD DUP2 MSTORE SWAP1 PUSH1 0x1 ADD SWAP1 PUSH1 0x20 ADD DUP1 DUP4 GT PUSH2 0x244C JUMPI DUP3 SWAP1 SUB PUSH1 0x1F AND DUP3 ADD SWAP2 JUMPDEST POP POP POP POP POP SWAP1 DUP1 PUSH1 0x4 ADD DUP1 SLOAD PUSH2 0x247E SWAP1 PUSH2 0x5B6C JUMP JUMPDEST DUP1 PUSH1 0x1F ADD PUSH1 0x20 DUP1 SWAP2 DIV MUL PUSH1 0x20 ADD PUSH1 0x40 MLOAD SWAP1 DUP2 ADD PUSH1 0x40 MSTORE DUP1 SWAP3 SWAP2 SWAP1 DUP2 DUP2 MSTORE PUSH1 0x20 ADD DUP3 DUP1 SLOAD PUSH2 0x24AA SWAP1 PUSH2 0x5B6C JUMP JUMPDEST DUP1 ISZERO PUSH2 0x24F7 JUMPI DUP1 PUSH1 0x1F LT PUSH2 0x24CC JUMPI PUSH2 0x100 DUP1 DUP4 SLOAD DIV MUL DUP4 MSTORE SWAP2 PUSH1 0x20 ADD SWAP2 PUSH2 0x24F7 JUMP JUMPDEST DUP3 ADD SWAP2 SWAP1 PUSH1 0x0 MSTORE PUSH1 0x20 PUSH1 0x0 KECCAK256 SWAP1 JUMPDEST DUP2 SLOAD DUP2 MSTORE SWAP1 PUSH1 0x1 ADD SWAP1 PUSH1 0x20 ADD DUP1 DUP4 GT PUSH2 0x24DA JUMPI DUP3 SWAP1 SUB PUSH1 0x1F AND DUP3 ADD SWAP2 JUMPDEST POP POP POP POP POP SWAP1 DUP1 PUSH1 0x5 ADD DUP1 SLOAD PUSH2 0x250C SWAP1 PUSH2 0x5B6C JUMP JUMPDEST DUP1 PUSH1 0x1F ADD PUSH1 0x20 DUP1 SWAP2 DIV MUL PUSH1 0x20 ADD PUSH1 0x40 MLOAD SWAP1 DUP2 ADD PUSH1 0x40 MSTORE DUP1 SWAP3 SWAP2 SWAP1 DUP2 DUP2 MSTORE PUSH1 0x20 ADD DUP3 DUP1 SLOAD PUSH2 0x2538 SWAP1 PUSH2 0x5B6C JUMP JUMPDEST DUP1 ISZERO PUSH2 0x2585 JUMPI DUP1 PUSH1 0x1F LT PUSH2 0x255A JUMPI PUSH2 0x100 DUP1 DUP4 SLOAD DIV MUL DUP4 MSTORE SWAP2 PUSH1 0x20 ADD SWAP2 PUSH2 0x2585 JUMP JUMPDEST DUP3 ADD SWAP2 SWAP1 PUSH1 0x0 MSTORE PUSH1 0x20 PUSH1 0x0 KECCAK256 SWAP1 JUMPDEST DUP2 SLOAD DUP2 MSTORE SWAP1 PUSH1 0x1 ADD SWAP1 PUSH1 0x20 ADD DUP1 DUP4 GT PUSH2 0x2568 JUMPI DUP3 SWAP1 SUB PUSH1 0x1F AND DUP3 ADD SWAP2 JUMPDEST POP POP POP POP POP SWAP1 DUP1 PUSH1 0x6 ADD DUP1 SLOAD PUSH2 0x259A SWAP1 PUSH2 0x5B6C JUMP JUMPDEST DUP1 PUSH1 0x1F ADD PUSH1 0x20 DUP1 SWAP2 DIV MUL PUSH1 0x20 ADD PUSH1 0x40 MLOAD SWAP1 DUP2 ADD PUSH1 0x40 MSTORE DUP1 SWAP3 SWAP2 SWAP1 DUP2 DUP2 MSTORE PUSH1 0x20 ADD DUP3 DUP1 SLOAD PUSH2 0x25C6 SWAP1 PUSH2 0x5B6C JUMP JUMPDEST DUP1 ISZERO PUSH2 0x2613 JUMPI DUP1 PUSH1 0x1F LT PUSH2 0x25E8 JUMPI PUSH2 0x100 DUP1 DUP4 SLOAD DIV MUL DUP4 MSTORE SWAP2 PUSH1 0x20 ADD SWAP2 PUSH2 0x2613 JUMP JUMPDEST DUP3 ADD SWAP2 SWAP1 PUSH1 0x0 MSTORE PUSH1 0x20 PUSH1 0x0 KECCAK256 SWAP1 JUMPDEST DUP2 SLOAD DUP2 MSTORE SWAP1 PUSH1 0x1 ADD SWAP1 PUSH1 0x20 ADD DUP1 DUP4 GT PUSH2 0x25F6 JUMPI DUP3 SWAP1 SUB PUSH1 0x1F AND DUP3 ADD SWAP2 JUMPDEST POP POP POP POP POP SWAP1 DUP1 PUSH1 0x7 ADD DUP1 SLOAD PUSH2 0x2628 SWAP1 PUSH2 0x5B6C JUMP JUMPDEST DUP1 PUSH1 0x1F ADD PUSH1 0x20 DUP1 SWAP2 DIV MUL PUSH1 0x20 ADD PUSH1 0x40 MLOAD SWAP1 DUP2 ADD PUSH1 0x40 MSTORE DUP1 SWAP3 SWAP2 SWAP1 DUP2 DUP2 MSTORE PUSH1 0x20 ADD DUP3 DUP1 SLOAD PUSH2 0x2654 SWAP1 PUSH2 0x5B6C JUMP JUMPDEST DUP1 ISZERO PUSH2 0x26A1 JUMPI DUP1 PUSH1 0x1F LT PUSH2 0x2676 JUMPI PUSH2 0x100 DUP1 DUP4 SLOAD DIV MUL DUP4 MSTORE SWAP2 PUSH1 0x20 ADD SWAP2 PUSH2 0x26A1 JUMP JUMPDEST DUP3 ADD SWAP2 SWAP1 PUSH1 0x0 MSTORE PUSH1 0x20 PUSH1 0x0 KECCAK256 SWAP1 JUMPDEST DUP2 SLOAD DUP2 MSTORE SWAP1 PUSH1 0x1 ADD SWAP1 PUSH1 0x20 ADD DUP1 DUP4 GT PUSH2 0x2684 JUMPI DUP3 SWAP1 SUB PUSH1 0x1F AND DUP3 ADD SWAP2 JUMPDEST POP POP POP POP POP SWAP1 DUP1 PUSH1 0x8 ADD SLOAD SWAP1 POP DUP10 JUMP JUMPDEST PUSH1 0xD SLOAD PUSH1 0x60 SWAP1 PUSH1 0x1 PUSH1 0x1 PUSH1 0xA0 SHL SUB SWAP1 DUP2 AND SWAP1 DUP4 AND SUB PUSH2 0x26EB JUMPI POP POP PUSH1 0x40 DUP1 MLOAD DUP1 DUP3 ADD SWAP1 SWAP2 MSTORE PUSH1 0x5 DUP2 MSTORE PUSH5 0x30B236B4B7 PUSH1 0xD9 SHL PUSH1 0x20 DUP3 ADD MSTORE SWAP1 JUMP JUMPDEST PUSH1 0x0 JUMPDEST PUSH1 0x11 SLOAD DUP2 LT ISZERO PUSH2 0x2756 JUMPI PUSH1 0x11 DUP2 DUP2 SLOAD DUP2 LT PUSH2 0x270B JUMPI PUSH2 0x270B PUSH2 0x5BA6 JUMP JUMPDEST PUSH1 0x0 SWAP2 DUP3 MSTORE PUSH1 0x20 SWAP1 SWAP2 KECCAK256 ADD SLOAD PUSH1 0x1 PUSH1 0x1 PUSH1 0xA0 SHL SUB SWAP1 DUP2 AND SWAP1 DUP5 AND SUB PUSH2 0x274E JUMPI POP POP PUSH1 0x40 DUP1 MLOAD DUP1 DUP3 ADD SWAP1 SWAP2 MSTORE PUSH1 0x6 DUP2 MSTORE PUSH6 0x3330B936B2B9 PUSH1 0xD1 SHL PUSH1 0x20 DUP3 ADD MSTORE SWAP2 SWAP1 POP JUMP JUMPDEST PUSH1 0x1 ADD PUSH2 0x26EE JUMP JUMPDEST POP PUSH1 0x0 JUMPDEST PUSH1 0x12 SLOAD DUP2 LT ISZERO PUSH2 0x27C7 JUMPI PUSH1 0x12 DUP2 DUP2 SLOAD DUP2 LT PUSH2 0x2777 JUMPI PUSH2 0x2777 PUSH2 0x5BA6 JUMP JUMPDEST PUSH1 0x0 SWAP2 DUP3 MSTORE PUSH1 0x20 SWAP1 SWAP2 KECCAK256 ADD SLOAD PUSH1 0x1 PUSH1 0x1 PUSH1 0xA0 SHL SUB SWAP1 DUP2 AND SWAP1 DUP5 AND SUB PUSH2 0x27BF JUMPI POP POP PUSH1 0x40 DUP1 MLOAD DUP1 DUP3 ADD SWAP1 SWAP2 MSTORE PUSH1 0xB DUP2 MSTORE PUSH11 0x3A3930B739B837B93A32B9 PUSH1 0xA9 SHL PUSH1 0x20 DUP3 ADD MSTORE SWAP2 SWAP1 POP JUMP JUMPDEST PUSH1 0x1 ADD PUSH2 0x275A JUMP JUMPDEST POP PUSH1 0x0 JUMPDEST PUSH1 0x13 SLOAD DUP2 LT ISZERO PUSH2 0x2839 JUMPI PUSH1 0x13 DUP2 DUP2 SLOAD DUP2 LT PUSH2 0x27E8 JUMPI PUSH2 0x27E8 PUSH2 0x5BA6 JUMP JUMPDEST PUSH1 0x0 SWAP2 DUP3 MSTORE PUSH1 0x20 SWAP1 SWAP2 KECCAK256 ADD SLOAD PUSH1 0x1 PUSH1 0x1 PUSH1 0xA0 SHL SUB SWAP1 DUP2 AND SWAP1 DUP5 AND SUB PUSH2 0x2831 JUMPI POP POP PUSH1 0x40 DUP1 MLOAD DUP1 DUP3 ADD SWAP1 SWAP2 MSTORE PUSH1 0xC DUP2 MSTORE PUSH12 0x39BA37B932A6B0B730B3B2B9 PUSH1 0xA1 SHL PUSH1 0x20 DUP3 ADD MSTORE SWAP2 SWAP1 POP JUMP JUMPDEST PUSH1 0x1 ADD PUSH2 0x27CB JUMP JUMPDEST POP POP PUSH1 0x40 DUP1 MLOAD DUP1 DUP3 ADD SWAP1 SWAP2 MSTORE PUSH1 0x4 DUP2 MSTORE PUSH4 0x6E6F6E65 PUSH1 0xE0 SHL PUSH1 0x20 DUP3 ADD MSTORE SWAP2 SWAP1 POP JUMP JUMPDEST PUSH1 0x0 DUP1 CALLER PUSH1 0x0 SWAP1 DUP2 MSTORE PUSH1 0x6 PUSH1 0x20 MSTORE PUSH1 0x40 SWAP1 KECCAK256 SLOAD PUSH1 0xFF AND PUSH1 0x2 DUP2 GT ISZERO PUSH2 0x2882 JUMPI PUSH2 0x2882 PUSH2 0x54CB JUMP JUMPDEST EQ PUSH2 0x289F JUMPI PUSH1 0x40 MLOAD PUSH3 0x461BCD PUSH1 0xE5 SHL DUP2 MSTORE PUSH1 0x4 ADD PUSH2 0x74A SWAP1 PUSH2 0x5B45 JUMP JUMPDEST PUSH1 0x8 DUP1 SLOAD SWAP1 PUSH1 0x0 PUSH2 0x28AF DUP4 PUSH2 0x5CB3 JUMP JUMPDEST SWAP2 SWAP1 POP SSTORE POP PUSH1 0x40 MLOAD DUP1 PUSH2 0x100 ADD PUSH1 0x40 MSTORE DUP1 PUSH1 0x8 SLOAD DUP2 MSTORE PUSH1 0x20 ADD DUP7 DUP2 MSTORE PUSH1 0x20 ADD DUP8 DUP2 MSTORE PUSH1 0x20 ADD DUP6 DUP2 MSTORE PUSH1 0x20 ADD DUP5 DUP2 MSTORE PUSH1 0x20 ADD DUP4 DUP2 MSTORE PUSH1 0x20 ADD CALLER PUSH1 0x1 PUSH1 0x1 PUSH1 0xA0 SHL SUB AND DUP2 MSTORE PUSH1 0x20 ADD PUSH1 0x3 DUP1 DUP2 GT ISZERO PUSH2 0x2907 JUMPI PUSH2 0x2907 PUSH2 0x54CB JUMP JUMPDEST SWAP1 MSTORE PUSH1 0x8 SLOAD PUSH1 0x0 SWAP1 DUP2 MSTORE PUSH1 0x4 PUSH1 0x20 SWAP1 DUP2 MSTORE PUSH1 0x40 SWAP1 SWAP2 KECCAK256 DUP3 MLOAD DUP2 SSTORE SWAP1 DUP3 ADD MLOAD PUSH1 0x1 DUP3 ADD SWAP1 PUSH2 0x2934 SWAP1 DUP3 PUSH2 0x5D1B JUMP JUMPDEST POP PUSH1 0x40 DUP3 ADD MLOAD PUSH1 0x2 DUP3 ADD SWAP1 PUSH2 0x2949 SWAP1 DUP3 PUSH2 0x5D1B JUMP JUMPDEST POP PUSH1 0x60 DUP3 ADD MLOAD PUSH1 0x3 DUP1 DUP4 ADD SWAP2 SWAP1 SWAP2 SSTORE PUSH1 0x80 DUP4 ADD MLOAD PUSH1 0x4 DUP4 ADD SSTORE PUSH1 0xA0 DUP4 ADD MLOAD PUSH1 0x5 DUP4 ADD SSTORE PUSH1 0xC0 DUP4 ADD MLOAD PUSH1 0x6 DUP4 ADD DUP1 SLOAD PUSH1 0x1 PUSH1 0x1 PUSH1 0xA0 SHL SUB SWAP1 SWAP3 AND PUSH1 0x1 PUSH1 0x1 PUSH1 0xA0 SHL SUB NOT DUP4 AND DUP2 OR DUP3 SSTORE PUSH1 0xE0 DUP7 ADD MLOAD SWAP4 SWAP2 SWAP3 PUSH1 0x1 PUSH1 0x1 PUSH1 0xA8 SHL SUB NOT AND OR SWAP1 PUSH1 0x1 PUSH1 0xA0 SHL SWAP1 DUP5 SWAP1 DUP2 GT ISZERO PUSH2 0x29BC JUMPI PUSH2 0x29BC PUSH2 0x54CB JUMP JUMPDEST MUL OR SWAP1 SSTORE POP POP POP POP POP POP POP POP POP JUMP JUMPDEST PUSH1 0x0 PUSH1 0x20 MSTORE DUP2 PUSH1 0x0 MSTORE PUSH1 0x40 PUSH1 0x0 KECCAK256 DUP2 DUP2 SLOAD DUP2 LT PUSH2 0x29E7 JUMPI PUSH1 0x0 DUP1 REVERT JUMPDEST PUSH1 0x0 SWAP2 DUP3 MSTORE PUSH1 0x20 SWAP1 SWAP2 KECCAK256 PUSH1 0x8 SWAP1 SWAP2 MUL ADD DUP1 SLOAD PUSH1 0x1 DUP3 ADD SLOAD PUSH1 0x2 DUP4 ADD DUP1 SLOAD SWAP3 SWAP6 POP PUSH1 0x1 PUSH1 0x1 PUSH1 0xA0 SHL SUB SWAP1 SWAP2 AND SWAP4 POP SWAP1 PUSH2 0x2A1E SWAP1 PUSH2 0x5B6C JUMP JUMPDEST DUP1 PUSH1 0x1F ADD PUSH1 0x20 DUP1 SWAP2 DIV MUL PUSH1 0x20 ADD PUSH1 0x40 MLOAD SWAP1 DUP2 ADD PUSH1 0x40 MSTORE DUP1 SWAP3 SWAP2 SWAP1 DUP2 DUP2 MSTORE PUSH1 0x20 ADD DUP3 DUP1 SLOAD PUSH2 0x2A4A SWAP1 PUSH2 0x5B6C JUMP JUMPDEST DUP1 ISZERO PUSH2 0x2A97 JUMPI DUP1 PUSH1 0x1F LT PUSH2 0x2A6C JUMPI PUSH2 0x100 DUP1 DUP4 SLOAD DIV MUL DUP4 MSTORE SWAP2 PUSH1 0x20 ADD SWAP2 PUSH2 0x2A97 JUMP JUMPDEST DUP3 ADD SWAP2 SWAP1 PUSH1 0x0 MSTORE PUSH1 0x20 PUSH1 0x0 KECCAK256 SWAP1 JUMPDEST DUP2 SLOAD DUP2 MSTORE SWAP1 PUSH1 0x1 ADD SWAP1 PUSH1 0x20 ADD DUP1 DUP4 GT PUSH2 0x2A7A JUMPI DUP3 SWAP1 SUB PUSH1 0x1F AND DUP3 ADD SWAP2 JUMPDEST POP POP POP POP POP SWAP1 DUP1 PUSH1 0x3 ADD DUP1 SLOAD PUSH2 0x2AAC SWAP1 PUSH2 0x5B6C JUMP JUMPDEST DUP1 PUSH1 0x1F ADD PUSH1 0x20 DUP1 SWAP2 DIV MUL PUSH1 0x20 ADD PUSH1 0x40 MLOAD SWAP1 DUP2 ADD PUSH1 0x40 MSTORE DUP1 SWAP3 SWAP2 SWAP1 DUP2 DUP2 MSTORE PUSH1 0x20 ADD DUP3 DUP1 SLOAD PUSH2 0x2AD8 SWAP1 PUSH2 0x5B6C JUMP JUMPDEST DUP1 ISZERO PUSH2 0x2B25 JUMPI DUP1 PUSH1 0x1F LT PUSH2 0x2AFA JUMPI PUSH2 0x100 DUP1 DUP4 SLOAD DIV MUL DUP4 MSTORE SWAP2 PUSH1 0x20 ADD SWAP2 PUSH2 0x2B25 JUMP JUMPDEST DUP3 ADD SWAP2 SWAP1 PUSH1 0x0 MSTORE PUSH1 0x20 PUSH1 0x0 KECCAK256 SWAP1 JUMPDEST DUP2 SLOAD DUP2 MSTORE SWAP1 PUSH1 0x1 ADD SWAP1 PUSH1 0x20 ADD DUP1 DUP4 GT PUSH2 0x2B08 JUMPI DUP3 SWAP1 SUB PUSH1 0x1F AND DUP3 ADD SWAP2 JUMPDEST POP POP POP PUSH1 0x4 DUP5 ADD SLOAD PUSH1 0x5 DUP6 ADD DUP1 SLOAD SWAP5 SWAP6 PUSH1 0x1 PUSH1 0x1 PUSH1 0xA0 SHL SUB SWAP1 SWAP3 AND SWAP5 SWAP2 SWAP4 POP SWAP2 POP PUSH2 0x2B4F SWAP1 PUSH2 0x5B6C JUMP JUMPDEST DUP1 PUSH1 0x1F ADD PUSH1 0x20 DUP1 SWAP2 DIV MUL PUSH1 0x20 ADD PUSH1 0x40 MLOAD SWAP1 DUP2 ADD PUSH1 0x40 MSTORE DUP1 SWAP3 SWAP2 SWAP1 DUP2 DUP2 MSTORE PUSH1 0x20 ADD DUP3 DUP1 SLOAD PUSH2 0x2B7B SWAP1 PUSH2 0x5B6C JUMP JUMPDEST DUP1 ISZERO PUSH2 0x2BC8 JUMPI DUP1 PUSH1 0x1F LT PUSH2 0x2B9D JUMPI PUSH2 0x100 DUP1 DUP4 SLOAD DIV MUL DUP4 MSTORE SWAP2 PUSH1 0x20 ADD SWAP2 PUSH2 0x2BC8 JUMP JUMPDEST DUP3 ADD SWAP2 SWAP1 PUSH1 0x0 MSTORE PUSH1 0x20 PUSH1 0x0 KECCAK256 SWAP1 JUMPDEST DUP2 SLOAD DUP2 MSTORE SWAP1 PUSH1 0x1 ADD SWAP1 PUSH1 0x20 ADD DUP1 DUP4 GT PUSH2 0x2BAB JUMPI DUP3 SWAP1 SUB PUSH1 0x1F AND DUP3 ADD SWAP2 JUMPDEST POP POP POP POP PUSH1 0x6 DUP4 ADD SLOAD PUSH1 0x7 SWAP1 SWAP4 ADD SLOAD SWAP2 SWAP3 PUSH1 0x1 PUSH1 0x1 PUSH1 0xA0 SHL SUB AND SWAP2 SWAP1 POP DUP9 JUMP JUMPDEST PUSH1 0x0 DUP1 CALLER PUSH1 0x0 SWAP1 DUP2 MSTORE PUSH1 0x6 PUSH1 0x20 MSTORE PUSH1 0x40 SWAP1 KECCAK256 SLOAD PUSH1 0xFF AND PUSH1 0x2 DUP2 GT ISZERO PUSH2 0x2C0F JUMPI PUSH2 0x2C0F PUSH2 0x54CB JUMP JUMPDEST EQ PUSH2 0x2C2C JUMPI PUSH1 0x40 MLOAD PUSH3 0x461BCD PUSH1 0xE5 SHL DUP2 MSTORE PUSH1 0x4 ADD PUSH2 0x74A SWAP1 PUSH2 0x5B45 JUMP JUMPDEST PUSH1 0x0 DUP6 DUP2 MSTORE PUSH1 0x4 PUSH1 0x20 MSTORE PUSH1 0x40 SWAP1 KECCAK256 PUSH1 0x6 DUP2 ADD SLOAD PUSH1 0x1 PUSH1 0x1 PUSH1 0xA0 SHL SUB AND CALLER EQ PUSH2 0x2C86 JUMPI PUSH1 0x40 MLOAD PUSH3 0x461BCD PUSH1 0xE5 SHL DUP2 MSTORE PUSH1 0x20 PUSH1 0x4 DUP3 ADD MSTORE PUSH1 0xD PUSH1 0x24 DUP3 ADD MSTORE PUSH13 0x4E6F7420796F75722063726F7 PUSH1 0x9C SHL PUSH1 0x44 DUP3 ADD MSTORE PUSH1 0x64 ADD PUSH2 0x74A JUMP JUMPDEST PUSH1 0x6 DUP2 ADD DUP1 SLOAD PUSH1 0xFF PUSH1 0xA0 SHL NOT AND SWAP1 SSTORE PUSH1 0x9 DUP1 SLOAD SWAP1 PUSH1 0x0 PUSH2 0x2CA5 DUP4 PUSH2 0x5CB3 JUMP JUMPDEST SWAP2 SWAP1 POP SSTORE POP PUSH1 0x40 MLOAD DUP1 PUSH2 0x140 ADD PUSH1 0x40 MSTORE DUP1 PUSH1 0x9 SLOAD DUP2 MSTORE PUSH1 0x20 ADD DUP3 PUSH1 0x1 ADD DUP1 SLOAD PUSH2 0x2CCD SWAP1 PUSH2 0x5B6C JUMP JUMPDEST DUP1 PUSH1 0x1F ADD PUSH1 0x20 DUP1 SWAP2 DIV MUL PUSH1 0x20 ADD PUSH1 0x40 MLOAD SWAP1 DUP2 ADD PUSH1 0x40 MSTORE DUP1 SWAP3 SWAP2 SWAP1 DUP2 DUP2 MSTORE PUSH1 0x20 ADD DUP3 DUP1 SLOAD PUSH2 0x2CF9 SWAP1 PUSH2 0x5B6C JUMP JUMPDEST DUP1 ISZERO PUSH2 0x2D46 JUMPI DUP1 PUSH1 0x1F LT PUSH2 0x2D1B JUMPI PUSH2 0x100 DUP1 DUP4 SLOAD DIV MUL DUP4 MSTORE SWAP2 PUSH1 0x20 ADD SWAP2 PUSH2 0x2D46 JUMP JUMPDEST DUP3 ADD SWAP2 SWAP1 PUSH1 0x0 MSTORE PUSH1 0x20 PUSH1 0x0 KECCAK256 SWAP1 JUMPDEST DUP2 SLOAD DUP2 MSTORE SWAP1 PUSH1 0x1 ADD SWAP1 PUSH1 0x20 ADD DUP1 DUP4 GT PUSH2 0x2D29 JUMPI DUP3 SWAP1 SUB PUSH1 0x1F AND DUP3 ADD SWAP2 JUMPDEST POP POP POP POP POP DUP2 MSTORE PUSH1 0x20 ADD DUP3 PUSH1 0x2 ADD DUP1 SLOAD PUSH2 0x2D5F SWAP1 PUSH2 0x5B6C JUMP JUMPDEST DUP1 PUSH1 0x1F ADD PUSH1 0x20 DUP1 SWAP2 DIV MUL PUSH1 0x20 ADD PUSH1 0x40 MLOAD SWAP1 DUP2 ADD PUSH1 0x40 MSTORE DUP1 SWAP3 SWAP2 SWAP1 DUP2 DUP2 MSTORE PUSH1 0x20 ADD DUP3 DUP1 SLOAD PUSH2 0x2D8B SWAP1 PUSH2 0x5B6C JUMP JUMPDEST DUP1 ISZERO PUSH2 0x2DD8 JUMPI DUP1 PUSH1 0x1F LT PUSH2 0x2DAD JUMPI PUSH2 0x100 DUP1 DUP4 SLOAD DIV MUL DUP4 MSTORE SWAP2 PUSH1 0x20 ADD SWAP2 PUSH2 0x2DD8 JUMP JUMPDEST DUP3 ADD SWAP2 SWAP1 PUSH1 0x0 MSTORE PUSH1 0x20 PUSH1 0x0 KECCAK256 SWAP1 JUMPDEST DUP2 SLOAD DUP2 MSTORE SWAP1 PUSH1 0x1 ADD SWAP1 PUSH1 0x20 ADD DUP1 DUP4 GT PUSH2 0x2DBB JUMPI DUP3 SWAP1 SUB PUSH1 0x1F AND DUP3 ADD SWAP2 JUMPDEST POP POP POP POP POP DUP2 MSTORE PUSH1 0x20 ADD CALLER PUSH1 0x1 PUSH1 0x1 PUSH1 0xA0 SHL SUB AND DUP2 MSTORE PUSH1 0x20 ADD DUP5 PUSH1 0x1 PUSH1 0x1 PUSH1 0xA0 SHL SUB AND DUP2 MSTORE PUSH1 0x20 ADD DUP6 PUSH1 0x1 PUSH1 0x1 PUSH1 0xA0 SHL SUB AND DUP2 MSTORE PUSH1 0x20 ADD PUSH1 0xE PUSH1 0x0 CALLER PUSH1 0x1 PUSH1 0x1 PUSH1 0xA0 SHL SUB AND PUSH1 0x1 PUSH1 0x1 PUSH1 0xA0 SHL SUB AND DUP2 MSTORE PUSH1 0x20 ADD SWAP1 DUP2 MSTORE PUSH1 0x20 ADD PUSH1 0x0 KECCAK256 PUSH1 0x2 ADD DUP1 SLOAD PUSH2 0x2E42 SWAP1 PUSH2 0x5B6C JUMP JUMPDEST DUP1 PUSH1 0x1F ADD PUSH1 0x20 DUP1 SWAP2 DIV MUL PUSH1 0x20 ADD PUSH1 0x40 MLOAD SWAP1 DUP2 ADD PUSH1 0x40 MSTORE DUP1 SWAP3 SWAP2 SWAP1 DUP2 DUP2 MSTORE PUSH1 0x20 ADD DUP3 DUP1 SLOAD PUSH2 0x2E6E SWAP1 PUSH2 0x5B6C JUMP JUMPDEST DUP1 ISZERO PUSH2 0x2EBB JUMPI DUP1 PUSH1 0x1F LT PUSH2 0x2E90 JUMPI PUSH2 0x100 DUP1 DUP4 SLOAD DIV MUL DUP4 MSTORE SWAP2 PUSH1 0x20 ADD SWAP2 PUSH2 0x2EBB JUMP JUMPDEST DUP3 ADD SWAP2 SWAP1 PUSH1 0x0 MSTORE PUSH1 0x20 PUSH1 0x0 KECCAK256 SWAP1 JUMPDEST DUP2 SLOAD DUP2 MSTORE SWAP1 PUSH1 0x1 ADD SWAP1 PUSH1 0x20 ADD DUP1 DUP4 GT PUSH2 0x2E9E JUMPI DUP3 SWAP1 SUB PUSH1 0x1F AND DUP3 ADD SWAP2 JUMPDEST POP POP POP POP POP DUP2 MSTORE PUSH1 0x20 ADD PUSH1 0xE PUSH1 0x0 DUP8 PUSH1 0x1 PUSH1 0x1 PUSH1 0xA0 SHL SUB AND PUSH1 0x1 PUSH1 0x1 PUSH1 0xA0 SHL SUB AND DUP2 MSTORE PUSH1 0x20 ADD SWAP1 DUP2 MSTORE PUSH1 0x20 ADD PUSH1 0x0 KECCAK256 PUSH1 0x2 ADD DUP1 SLOAD PUSH2 0x2EF8 SWAP1 PUSH2 0x5B6C JUMP JUMPDEST DUP1 PUSH1 0x1F ADD PUSH1 0x20 DUP1 SWAP2 DIV MUL PUSH1 0x20 ADD PUSH1 0x40 MLOAD SWAP1 DUP2 ADD PUSH1 0x40 MSTORE DUP1 SWAP3 SWAP2 SWAP1 DUP2 DUP2 MSTORE PUSH1 0x20 ADD DUP3 DUP1 SLOAD PUSH2 0x2F24 SWAP1 PUSH2 0x5B6C JUMP JUMPDEST DUP1 ISZERO PUSH2 0x2F71 JUMPI DUP1 PUSH1 0x1F LT PUSH2 0x2F46 JUMPI PUSH2 0x100 DUP1 DUP4 SLOAD DIV MUL DUP4 MSTORE SWAP2 PUSH1 0x20 ADD SWAP2 PUSH2 0x2F71 JUMP JUMPDEST DUP3 ADD SWAP2 SWAP1 PUSH1 0x0 MSTORE PUSH1 0x20 PUSH1 0x0 KECCAK256 SWAP1 JUMPDEST DUP2 SLOAD DUP2 MSTORE SWAP1 PUSH1 0x1 ADD SWAP1 PUSH1 0x20 ADD DUP1 DUP4 GT PUSH2 0x2F54 JUMPI DUP3 SWAP1 SUB PUSH1 0x1F AND DUP3 ADD SWAP2 JUMPDEST POP POP POP SWAP2 DUP4 MSTORE POP POP PUSH1 0x20 DUP2 ADD DUP8 SWAP1 MSTORE PUSH1 0x40 ADD PUSH1 0x0 SWAP1 MSTORE PUSH1 0x9 SLOAD PUSH1 0x0 SWAP1 DUP2 MSTORE PUSH1 0x3 PUSH1 0x20 SWAP1 DUP2 MSTORE PUSH1 0x40 SWAP1 SWAP2 KECCAK256 DUP3 MLOAD DUP2 SSTORE SWAP1 DUP3 ADD MLOAD PUSH1 0x1 DUP3 ADD SWAP1 PUSH2 0x2FB2 SWAP1 DUP3 PUSH2 0x5D1B JUMP JUMPDEST POP PUSH1 0x40 DUP3 ADD MLOAD PUSH1 0x2 DUP3 ADD SWAP1 PUSH2 0x2FC7 SWAP1 DUP3 PUSH2 0x5D1B JUMP JUMPDEST POP PUSH1 0x60 DUP3 ADD MLOAD PUSH1 0x3 DUP3 ADD DUP1 SLOAD PUSH1 0x1 PUSH1 0x1 PUSH1 0xA0 SHL SUB SWAP3 DUP4 AND PUSH1 0x1 PUSH1 0x1 PUSH1 0xA0 SHL SUB NOT SWAP2 DUP3 AND OR SWAP1 SWAP2 SSTORE PUSH1 0x80 DUP5 ADD MLOAD PUSH1 0x4 DUP5 ADD DUP1 SLOAD SWAP2 DUP5 AND SWAP2 DUP4 AND SWAP2 SWAP1 SWAP2 OR SWAP1 SSTORE PUSH1 0xA0 DUP5 ADD MLOAD PUSH1 0x5 DUP5 ADD DUP1 SLOAD SWAP2 SWAP1 SWAP4 AND SWAP2 AND OR SWAP1 SSTORE PUSH1 0xC0 DUP3 ADD MLOAD PUSH1 0x6 DUP3 ADD SWAP1 PUSH2 0x302D SWAP1 DUP3 PUSH2 0x5D1B JUMP JUMPDEST POP PUSH1 0xE0 DUP3 ADD MLOAD PUSH1 0x7 DUP3 ADD SWAP1 PUSH2 0x3042 SWAP1 DUP3 PUSH2 0x5D1B JUMP JUMPDEST POP PUSH2 0x100 DUP3 ADD MLOAD PUSH1 0x8 DUP3 ADD SSTORE PUSH2 0x120 DUP3 ADD MLOAD PUSH1 0x9 DUP3 ADD DUP1 SLOAD PUSH1 0xFF NOT AND PUSH1 0x1 DUP4 PUSH1 0x3 DUP2 GT ISZERO PUSH2 0x29BC JUMPI PUSH2 0x29BC PUSH2 0x54CB JUMP JUMPDEST PUSH1 0x60 DUP1 PUSH1 0x0 DUP1 PUSH1 0x0 DUP1 PUSH1 0x0 DUP1 PUSH1 0x0 DUP1 PUSH1 0x7 PUSH1 0x0 DUP13 DUP2 MSTORE PUSH1 0x20 ADD SWAP1 DUP2 MSTORE PUSH1 0x20 ADD PUSH1 0x0 KECCAK256 PUSH1 0x40 MLOAD DUP1 PUSH2 0x120 ADD PUSH1 0x40 MSTORE SWAP1 DUP2 PUSH1 0x0 DUP3 ADD DUP1 SLOAD PUSH2 0x30B0 SWAP1 PUSH2 0x5B6C JUMP JUMPDEST DUP1 PUSH1 0x1F ADD PUSH1 0x20 DUP1 SWAP2 DIV MUL PUSH1 0x20 ADD PUSH1 0x40 MLOAD SWAP1 DUP2 ADD PUSH1 0x40 MSTORE DUP1 SWAP3 SWAP2 SWAP1 DUP2 DUP2 MSTORE PUSH1 0x20 ADD DUP3 DUP1 SLOAD PUSH2 0x30DC SWAP1 PUSH2 0x5B6C JUMP JUMPDEST DUP1 ISZERO PUSH2 0x3129 JUMPI DUP1 PUSH1 0x1F LT PUSH2 0x30FE JUMPI PUSH2 0x100 DUP1 DUP4 SLOAD DIV MUL DUP4 MSTORE SWAP2 PUSH1 0x20 ADD SWAP2 PUSH2 0x3129 JUMP JUMPDEST DUP3 ADD SWAP2 SWAP1 PUSH1 0x0 MSTORE PUSH1 0x20 PUSH1 0x0 KECCAK256 SWAP1 JUMPDEST DUP2 SLOAD DUP2 MSTORE SWAP1 PUSH1 0x1 ADD SWAP1 PUSH1 0x20 ADD DUP1 DUP4 GT PUSH2 0x310C JUMPI DUP3 SWAP1 SUB PUSH1 0x1F AND DUP3 ADD SWAP2 JUMPDEST POP POP POP POP POP DUP2 MSTORE PUSH1 0x20 ADD PUSH1 0x1 DUP3 ADD DUP1 SLOAD PUSH2 0x3142 SWAP1 PUSH2 0x5B6C JUMP JUMPDEST DUP1 PUSH1 0x1F ADD PUSH1 0x20 DUP1 SWAP2 DIV MUL PUSH1 0x20 ADD PUSH1 0x40 MLOAD SWAP1 DUP2 ADD PUSH1 0x40 MSTORE DUP1 SWAP3 SWAP2 SWAP1 DUP2 DUP2 MSTORE PUSH1 0x20 ADD DUP3 DUP1 SLOAD PUSH2 0x316E SWAP1 PUSH2 0x5B6C JUMP JUMPDEST DUP1 ISZERO PUSH2 0x31BB JUMPI DUP1 PUSH1 0x1F LT PUSH2 0x3190 JUMPI PUSH2 0x100 DUP1 DUP4 SLOAD DIV MUL DUP4 MSTORE SWAP2 PUSH1 0x20 ADD SWAP2 PUSH2 0x31BB JUMP JUMPDEST DUP3 ADD SWAP2 SWAP1 PUSH1 0x0 MSTORE PUSH1 0x20 PUSH1 0x0 KECCAK256 SWAP1 JUMPDEST DUP2 SLOAD DUP2 MSTORE SWAP1 PUSH1 0x1 ADD SWAP1 PUSH1 0x20 ADD DUP1 DUP4 GT PUSH2 0x319E JUMPI DUP3 SWAP1 SUB PUSH1 0x1F AND DUP3 ADD SWAP2 JUMPDEST POP POP POP POP POP DUP2 MSTORE PUSH1 0x20 ADD PUSH1 0x2 DUP3 ADD PUSH1 0x0 SWAP1 SLOAD SWAP1 PUSH2 0x100 EXP SWAP1 DIV PUSH1 0x1 PUSH1 0x1 PUSH1 0xA0 SHL SUB AND PUSH1 0x1 PUSH1 0x1 PUSH1 0xA0 SHL SUB AND PUSH1 0x1 PUSH1 0x1 PUSH1 0xA0 SHL SUB AND DUP2 MSTORE PUSH1 0x20 ADD PUSH1 0x3 DUP3 ADD PUSH1 0x0 SWAP1 SLOAD SWAP1 PUSH2 0x100 EXP SWAP1 DIV PUSH1 0x1 PUSH1 0x1 PUSH1 0xA0 SHL SUB AND PUSH1 0x1 PUSH1 0x1 PUSH1 0xA0 SHL SUB AND PUSH1 0x1 PUSH1 0x1 PUSH1 0xA0 SHL SUB AND DUP2 MSTORE PUSH1 0x20 ADD PUSH1 0x4 DUP3 ADD PUSH1 0x0 SWAP1 SLOAD SWAP1 PUSH2 0x100 EXP SWAP1 DIV PUSH1 0x1 PUSH1 0x1 PUSH1 0xA0 SHL SUB AND PUSH1 0x1 PUSH1 0x1 PUSH1 0xA0 SHL SUB AND PUSH1 0x1 PUSH1 0x1 PUSH1 0xA0 SHL SUB AND DUP2 MSTORE PUSH1 0x20 ADD PUSH1 0x5 DUP3 ADD SLOAD DUP2 MSTORE PUSH1 0x20 ADD PUSH1 0x6 DUP3 ADD SLOAD DUP2 MSTORE PUSH1 0x20 ADD PUSH1 0x7 DUP3 ADD SLOAD DUP2 MSTORE PUSH1 0x20 ADD PUSH1 0x8 DUP3 ADD SLOAD DUP2 MSTORE POP POP SWAP1 POP DUP1 PUSH1 0x0 ADD MLOAD DUP2 PUSH1 0x20 ADD MLOAD DUP3 PUSH1 0x40 ADD MLOAD DUP4 PUSH1 0x60 ADD MLOAD DUP5 PUSH1 0x80 ADD MLOAD DUP6 PUSH1 0xA0 ADD MLOAD DUP7 PUSH1 0xC0 ADD MLOAD DUP8 PUSH1 0xE0 ADD MLOAD DUP9 PUSH2 0x100 ADD MLOAD SWAP10 POP SWAP10 POP SWAP10 POP SWAP10 POP SWAP10 POP SWAP10 POP SWAP10 POP SWAP10 POP SWAP10 POP POP SWAP2 SWAP4 SWAP6 SWAP8 SWAP10 SWAP1 SWAP3 SWAP5 SWAP7 SWAP9 POP JUMP JUMPDEST PUSH1 0xE PUSH1 0x20 MSTORE PUSH1 0x0 SWAP1 DUP2 MSTORE PUSH1 0x40 SWAP1 KECCAK256 DUP1 SLOAD PUSH1 0x1 DUP3 ADD DUP1 SLOAD PUSH1 0x1 PUSH1 0x1 PUSH1 0xA0 SHL SUB SWAP1 SWAP3 AND SWAP3 SWAP2 PUSH2 0x32F5 SWAP1 PUSH2 0x5B6C JUMP JUMPDEST DUP1 PUSH1 0x1F ADD PUSH1 0x20 DUP1 SWAP2 DIV MUL PUSH1 0x20 ADD PUSH1 0x40 MLOAD SWAP1 DUP2 ADD PUSH1 0x40 MSTORE DUP1 SWAP3 SWAP2 SWAP1 DUP2 DUP2 MSTORE PUSH1 0x20 ADD DUP3 DUP1 SLOAD PUSH2 0x3321 SWAP1 PUSH2 0x5B6C JUMP JUMPDEST DUP1 ISZERO PUSH2 0x336E JUMPI DUP1 PUSH1 0x1F LT PUSH2 0x3343 JUMPI PUSH2 0x100 DUP1 DUP4 SLOAD DIV MUL DUP4 MSTORE SWAP2 PUSH1 0x20 ADD SWAP2 PUSH2 0x336E JUMP JUMPDEST DUP3 ADD SWAP2 SWAP1 PUSH1 0x0 MSTORE PUSH1 0x20 PUSH1 0x0 KECCAK256 SWAP1 JUMPDEST DUP2 SLOAD DUP2 MSTORE SWAP1 PUSH1 0x1 ADD SWAP1 PUSH1 0x20 ADD DUP1 DUP4 GT PUSH2 0x3351 JUMPI DUP3 SWAP1 SUB PUSH1 0x1F AND DUP3 ADD SWAP2 JUMPDEST POP POP POP POP POP SWAP1 DUP1 PUSH1 0x2 ADD DUP1 SLOAD PUSH2 0x3383 SWAP1 PUSH2 0x5B6C JUMP JUMPDEST DUP1 PUSH1 0x1F ADD PUSH1 0x20 DUP1 SWAP2 DIV MUL PUSH1 0x20 ADD PUSH1 0x40 MLOAD SWAP1 DUP2 ADD PUSH1 0x40 MSTORE DUP1 SWAP3 SWAP2 SWAP1 DUP2 DUP2 MSTORE PUSH1 0x20 ADD DUP3 DUP1 SLOAD PUSH2 0x33AF SWAP1 PUSH2 0x5B6C JUMP JUMPDEST DUP1 ISZERO PUSH2 0x33FC JUMPI DUP1 PUSH1 0x1F LT PUSH2 0x33D1 JUMPI PUSH2 0x100 DUP1 DUP4 SLOAD DIV MUL DUP4 MSTORE SWAP2 PUSH1 0x20 ADD SWAP2 PUSH2 0x33FC JUMP JUMPDEST DUP3 ADD SWAP2 SWAP1 PUSH1 0x0 MSTORE PUSH1 0x20 PUSH1 0x0 KECCAK256 SWAP1 JUMPDEST DUP2 SLOAD DUP2 MSTORE SWAP1 PUSH1 0x1 ADD SWAP1 PUSH1 0x20 ADD DUP1 DUP4 GT PUSH2 0x33DF JUMPI DUP3 SWAP1 SUB PUSH1 0x1F AND DUP3 ADD SWAP2 JUMPDEST POP POP POP POP PUSH1 0x3 DUP4 ADD SLOAD PUSH1 0x4 SWAP1 SWAP4 ADD SLOAD SWAP2 SWAP3 SWAP2 PUSH1 0xFF AND SWAP1 POP DUP6 JUMP JUMPDEST PUSH1 0x0 PUSH1 0x60 DUP1 PUSH1 0x0 DUP1 PUSH1 0xF DUP1 SLOAD SWAP1 POP DUP7 LT PUSH2 0x3460 JUMPI PUSH1 0x40 MLOAD PUSH3 0x461BCD PUSH1 0xE5 SHL DUP2 MSTORE PUSH1 0x20 PUSH1 0x4 DUP3 ADD MSTORE PUSH1 0xB PUSH1 0x24 DUP3 ADD MSTORE PUSH11 0xEEE4DEDCCE40D2DCC8CAF PUSH1 0xAB SHL PUSH1 0x44 DUP3 ADD MSTORE PUSH1 0x64 ADD PUSH2 0x74A JUMP JUMPDEST PUSH1 0x0 PUSH1 0xF DUP8 DUP2 SLOAD DUP2 LT PUSH2 0x3475 JUMPI PUSH2 0x3475 PUSH2 0x5BA6 JUMP JUMPDEST PUSH1 0x0 SWAP2 DUP3 MSTORE PUSH1 0x20 DUP1 DUP4 KECCAK256 SWAP1 SWAP2 ADD SLOAD PUSH1 0x1 PUSH1 0x1 PUSH1 0xA0 SHL SUB SWAP1 DUP2 AND DUP1 DUP5 MSTORE PUSH1 0xE DUP4 MSTORE PUSH1 0x40 DUP1 DUP6 KECCAK256 DUP2 MLOAD PUSH1 0xA0 DUP2 ADD SWAP1 SWAP3 MSTORE DUP1 SLOAD SWAP1 SWAP4 AND DUP2 MSTORE PUSH1 0x1 DUP4 ADD DUP1 SLOAD SWAP3 SWAP7 POP SWAP1 SWAP4 DUP5 ADD SWAP2 PUSH2 0x34C1 SWAP1 PUSH2 0x5B6C JUMP JUMPDEST DUP1 PUSH1 0x1F ADD PUSH1 0x20 DUP1 SWAP2 DIV MUL PUSH1 0x20 ADD PUSH1 0x40 MLOAD SWAP1 DUP2 ADD PUSH1 0x40 MSTORE DUP1 SWAP3 SWAP2 SWAP1 DUP2 DUP2 MSTORE PUSH1 0x20 ADD DUP3 DUP1 SLOAD PUSH2 0x34ED SWAP1 PUSH2 0x5B6C JUMP JUMPDEST DUP1 ISZERO PUSH2 0x353A JUMPI DUP1 PUSH1 0x1F LT PUSH2 0x350F JUMPI PUSH2 0x100 DUP1 DUP4 SLOAD DIV MUL DUP4 MSTORE SWAP2 PUSH1 0x20 ADD SWAP2 PUSH2 0x353A JUMP JUMPDEST DUP3 ADD SWAP2 SWAP1 PUSH1 0x0 MSTORE PUSH1 0x20 PUSH1 0x0 KECCAK256 SWAP1 JUMPDEST DUP2 SLOAD DUP2 MSTORE SWAP1 PUSH1 0x1 ADD SWAP1 PUSH1 0x20 ADD DUP1 DUP4 GT PUSH2 0x351D JUMPI DUP3 SWAP1 SUB PUSH1 0x1F AND DUP3 ADD SWAP2 JUMPDEST POP POP POP POP POP DUP2 MSTORE PUSH1 0x20 ADD PUSH1 0x2 DUP3 ADD DUP1 SLOAD PUSH2 0x3553 SWAP1 PUSH2 0x5B6C JUMP JUMPDEST DUP1 PUSH1 0x1F ADD PUSH1 0x20 DUP1 SWAP2 DIV MUL PUSH1 0x20 ADD PUSH1 0x40 MLOAD SWAP1 DUP2 ADD PUSH1 0x40 MSTORE DUP1 SWAP3 SWAP2 SWAP1 DUP2 DUP2 MSTORE PUSH1 0x20 ADD DUP3 DUP1 SLOAD PUSH2 0x357F SWAP1 PUSH2 0x5B6C JUMP JUMPDEST DUP1 ISZERO PUSH2 0x35CC JUMPI DUP1 PUSH1 0x1F LT PUSH2 0x35A1 JUMPI PUSH2 0x100 DUP1 DUP4 SLOAD DIV MUL DUP4 MSTORE SWAP2 PUSH1 0x20 ADD SWAP2 PUSH2 0x35CC JUMP JUMPDEST DUP3 ADD SWAP2 SWAP1 PUSH1 0x0 MSTORE PUSH1 0x20 PUSH1 0x0 KECCAK256 SWAP1 JUMPDEST DUP2 SLOAD DUP2 MSTORE SWAP1 PUSH1 0x1 ADD SWAP1 PUSH1 0x20 ADD DUP1 DUP4 GT PUSH2 0x35AF JUMPI DUP3 SWAP1 SUB PUSH1 0x1F AND DUP3 ADD SWAP2 JUMPDEST POP POP POP SWAP2 DUP4 MSTORE POP POP PUSH1 0x3 DUP3 ADD SLOAD PUSH1 0x20 DUP3 ADD MSTORE PUSH1 0x4 DUP3 ADD SLOAD PUSH1 0x40 SWAP1 SWAP2 ADD SWAP1 PUSH1 0xFF AND PUSH1 0x2 DUP2 GT ISZERO PUSH2 0x35FD JUMPI PUSH2 0x35FD PUSH2 0x54CB JUMP JUMPDEST PUSH1 0x2 DUP2 GT ISZERO PUSH2 0x360E JUMPI PUSH2 0x360E PUSH2 0x54CB JUMP JUMPDEST SWAP1 MSTORE POP DUP1 MLOAD PUSH1 0x20 DUP3 ADD MLOAD PUSH1 0x40 DUP4 ADD MLOAD PUSH1 0x60 DUP5 ADD MLOAD PUSH1 0x80 SWAP1 SWAP5 ADD MLOAD SWAP3 SWAP13 SWAP2 SWAP12 POP SWAP10 POP SWAP2 SWAP8 POP SWAP6 POP SWAP4 POP POP POP POP JUMP JUMPDEST PUSH1 0x0 PUSH1 0x60 DUP1 PUSH1 0x0 DUP1 PUSH1 0x0 PUSH1 0x60 DUP1 PUSH1 0x0 DUP1 PUSH1 0x0 PUSH1 0x3 PUSH1 0x0 DUP14 DUP2 MSTORE PUSH1 0x20 ADD SWAP1 DUP2 MSTORE PUSH1 0x20 ADD PUSH1 0x0 KECCAK256 PUSH1 0x40 MLOAD DUP1 PUSH2 0x140 ADD PUSH1 0x40 MSTORE SWAP1 DUP2 PUSH1 0x0 DUP3 ADD SLOAD DUP2 MSTORE PUSH1 0x20 ADD PUSH1 0x1 DUP3 ADD DUP1 SLOAD PUSH2 0x3686 SWAP1 PUSH2 0x5B6C JUMP JUMPDEST DUP1 PUSH1 0x1F ADD PUSH1 0x20 DUP1 SWAP2 DIV MUL PUSH1 0x20 ADD PUSH1 0x40 MLOAD SWAP1 DUP2 ADD PUSH1 0x40 MSTORE DUP1 SWAP3 SWAP2 SWAP1 DUP2 DUP2 MSTORE PUSH1 0x20 ADD DUP3 DUP1 SLOAD PUSH2 0x36B2 SWAP1 PUSH2 0x5B6C JUMP JUMPDEST DUP1 ISZERO PUSH2 0x36FF JUMPI DUP1 PUSH1 0x1F LT PUSH2 0x36D4 JUMPI PUSH2 0x100 DUP1 DUP4 SLOAD DIV MUL DUP4 MSTORE SWAP2 PUSH1 0x20 ADD SWAP2 PUSH2 0x36FF JUMP JUMPDEST DUP3 ADD SWAP2 SWAP1 PUSH1 0x0 MSTORE PUSH1 0x20 PUSH1 0x0 KECCAK256 SWAP1 JUMPDEST DUP2 SLOAD DUP2 MSTORE SWAP1 PUSH1 0x1 ADD SWAP1 PUSH1 0x20 ADD DUP1 DUP4 GT PUSH2 0x36E2 JUMPI DUP3 SWAP1 SUB PUSH1 0x1F AND DUP3 ADD SWAP2 JUMPDEST POP POP POP POP POP DUP2 MSTORE PUSH1 0x20 ADD PUSH1 0x2 DUP3 ADD DUP1 SLOAD PUSH2 0x3718 SWAP1 PUSH2 0x5B6C JUMP JUMPDEST DUP1 PUSH1 0x1F ADD PUSH1 0x20 DUP1 SWAP2 DIV MUL PUSH1 0x20 ADD PUSH1 0x40 MLOAD SWAP1 DUP2 ADD PUSH1 0x40 MSTORE DUP1 SWAP3 SWAP2 SWAP1 DUP2 DUP2 MSTORE PUSH1 0x20 ADD DUP3 DUP1 SLOAD PUSH2 0x3744 SWAP1 PUSH2 0x5B6C JUMP JUMPDEST DUP1 ISZERO PUSH2 0x3791 JUMPI DUP1 PUSH1 0x1F LT PUSH2 0x3766 JUMPI PUSH2 0x100 DUP1 DUP4 SLOAD DIV MUL DUP4 MSTORE SWAP2 PUSH1 0x20 ADD SWAP2 PUSH2 0x3791 JUMP JUMPDEST DUP3 ADD SWAP2 SWAP1 PUSH1 0x0 MSTORE PUSH1 0x20 PUSH1 0x0 KECCAK256 SWAP1 JUMPDEST DUP2 SLOAD DUP2 MSTORE SWAP1 PUSH1 0x1 ADD SWAP1 PUSH1 0x20 ADD DUP1 DUP4 GT PUSH2 0x3774 JUMPI DUP3 SWAP1 SUB PUSH1 0x1F AND DUP3 ADD SWAP2 JUMPDEST POP POP POP SWAP2 DUP4 MSTORE POP POP PUSH1 0x3 DUP3 ADD SLOAD PUSH1 0x1 PUSH1 0x1 PUSH1 0xA0 SHL SUB SWAP1 DUP2 AND PUSH1 0x20 DUP4 ADD MSTORE PUSH1 0x4 DUP4 ADD SLOAD DUP2 AND PUSH1 0x40 DUP4 ADD MSTORE PUSH1 0x5 DUP4 ADD SLOAD AND PUSH1 0x60 DUP3 ADD MSTORE PUSH1 0x6 DUP3 ADD DUP1 SLOAD PUSH1 0x80 SWAP1 SWAP3 ADD SWAP2 PUSH2 0x37DA SWAP1 PUSH2 0x5B6C JUMP JUMPDEST DUP1 PUSH1 0x1F ADD PUSH1 0x20 DUP1 SWAP2 DIV MUL PUSH1 0x20 ADD PUSH1 0x40 MLOAD SWAP1 DUP2 ADD PUSH1 0x40 MSTORE DUP1 SWAP3 SWAP2 SWAP1 DUP2 DUP2 MSTORE PUSH1 0x20 ADD DUP3 DUP1 SLOAD PUSH2 0x3806 SWAP1 PUSH2 0x5B6C JUMP JUMPDEST DUP1 ISZERO PUSH2 0x3853 JUMPI DUP1 PUSH1 0x1F LT PUSH2 0x3828 JUMPI PUSH2 0x100 DUP1 DUP4 SLOAD DIV MUL DUP4 MSTORE SWAP2 PUSH1 0x20 ADD SWAP2 PUSH2 0x3853 JUMP JUMPDEST DUP3 ADD SWAP2 SWAP1 PUSH1 0x0 MSTORE PUSH1 0x20 PUSH1 0x0 KECCAK256 SWAP1 JUMPDEST DUP2 SLOAD DUP2 MSTORE SWAP1 PUSH1 0x1 ADD SWAP1 PUSH1 0x20 ADD DUP1 DUP4 GT PUSH2 0x3836 JUMPI DUP3 SWAP1 SUB PUSH1 0x1F AND DUP3 ADD SWAP2 JUMPDEST POP POP POP POP POP DUP2 MSTORE PUSH1 0x20 ADD PUSH1 0x7 DUP3 ADD DUP1 SLOAD PUSH2 0x386C SWAP1 PUSH2 0x5B6C JUMP JUMPDEST DUP1 PUSH1 0x1F ADD PUSH1 0x20 DUP1 SWAP2 DIV MUL PUSH1 0x20 ADD PUSH1 0x40 MLOAD SWAP1 DUP2 ADD PUSH1 0x40 MSTORE DUP1 SWAP3 SWAP2 SWAP1 DUP2 DUP2 MSTORE PUSH1 0x20 ADD DUP3 DUP1 SLOAD PUSH2 0x3898 SWAP1 PUSH2 0x5B6C JUMP JUMPDEST DUP1 ISZERO PUSH2 0x38E5 JUMPI DUP1 PUSH1 0x1F LT PUSH2 0x38BA JUMPI PUSH2 0x100 DUP1 DUP4 SLOAD DIV MUL DUP4 MSTORE SWAP2 PUSH1 0x20 ADD SWAP2 PUSH2 0x38E5 JUMP JUMPDEST DUP3 ADD SWAP2 SWAP1 PUSH1 0x0 MSTORE PUSH1 0x20 PUSH1 0x0 KECCAK256 SWAP1 JUMPDEST DUP2 SLOAD DUP2 MSTORE SWAP1 PUSH1 0x1 ADD SWAP1 PUSH1 0x20 ADD DUP1 DUP4 GT PUSH2 0x38C8 JUMPI DUP3 SWAP1 SUB PUSH1 0x1F AND DUP3 ADD SWAP2 JUMPDEST POP POP POP SWAP2 DUP4 MSTORE POP POP PUSH1 0x8 DUP3 ADD SLOAD PUSH1 0x20 DUP3 ADD MSTORE PUSH1 0x9 DUP3 ADD SLOAD PUSH1 0x40 SWAP1 SWAP2 ADD SWAP1 PUSH1 0xFF AND PUSH1 0x3 DUP2 GT ISZERO PUSH2 0x3916 JUMPI PUSH2 0x3916 PUSH2 0x54CB JUMP JUMPDEST PUSH1 0x3 DUP2 GT ISZERO PUSH2 0x3927 JUMPI PUSH2 0x3927 PUSH2 0x54CB JUMP JUMPDEST DUP2 MSTORE POP POP SWAP1 POP DUP1 PUSH1 0x0 ADD MLOAD DUP2 PUSH1 0x20 ADD MLOAD DUP3 PUSH1 0x40 ADD MLOAD DUP4 PUSH1 0x60 ADD MLOAD DUP5 PUSH1 0x80 ADD MLOAD DUP6 PUSH1 0xA0 ADD MLOAD DUP7 PUSH1 0xC0 ADD MLOAD DUP8 PUSH1 0xE0 ADD MLOAD DUP9 PUSH2 0x100 ADD MLOAD DUP10 PUSH2 0x120 ADD MLOAD SWAP11 POP SWAP11 POP SWAP11 POP SWAP11 POP SWAP11 POP SWAP11 POP SWAP11 POP SWAP11 POP SWAP11 POP SWAP11 POP POP SWAP2 SWAP4 SWAP6 SWAP8 SWAP10 POP SWAP2 SWAP4 SWAP6 SWAP8 SWAP10 JUMP JUMPDEST PUSH1 0xD SLOAD PUSH1 0x1 PUSH1 0x1 PUSH1 0xA0 SHL SUB AND CALLER EQ PUSH2 0x39AD JUMPI PUSH1 0x40 MLOAD PUSH3 0x461BCD PUSH1 0xE5 SHL DUP2 MSTORE PUSH1 0x4 ADD PUSH2 0x74A SWAP1 PUSH2 0x5BBC JUMP JUMPDEST PUSH1 0x0 DUP2 DUP2 MSTORE PUSH1 0x5 PUSH1 0x20 MSTORE PUSH1 0x40 SWAP1 KECCAK256 PUSH1 0x3 ADD SLOAD PUSH3 0x10000 SWAP1 DIV PUSH1 0xFF AND PUSH2 0x39FE JUMPI PUSH1 0x40 MLOAD PUSH3 0x461BCD PUSH1 0xE5 SHL DUP2 MSTORE PUSH1 0x20 PUSH1 0x4 DUP3 ADD MSTORE PUSH1 0x7 PUSH1 0x24 DUP3 ADD MSTORE PUSH7 0x3737903AB9B2B9 PUSH1 0xC9 SHL PUSH1 0x44 DUP3 ADD MSTORE PUSH1 0x64 ADD PUSH2 0x74A JUMP JUMPDEST PUSH1 0x0 DUP2 DUP2 MSTORE PUSH1 0x5 PUSH1 0x20 MSTORE PUSH1 0x40 SWAP1 KECCAK256 PUSH1 0x3 ADD SLOAD PUSH2 0x100 SWAP1 DIV PUSH1 0xFF AND ISZERO PUSH2 0x3A58 JUMPI PUSH1 0x40 MLOAD PUSH3 0x461BCD PUSH1 0xE5 SHL DUP2 MSTORE PUSH1 0x20 PUSH1 0x4 DUP3 ADD MSTORE PUSH1 0x10 PUSH1 0x24 DUP3 ADD MSTORE PUSH16 0x185B1C9958591E48185C1C1C9BDD9959 PUSH1 0x82 SHL PUSH1 0x44 DUP3 ADD MSTORE PUSH1 0x64 ADD PUSH2 0x74A JUMP JUMPDEST PUSH1 0x0 DUP2 DUP2 MSTORE PUSH1 0x5 PUSH1 0x20 SWAP1 DUP2 MSTORE PUSH1 0x40 SWAP2 DUP3 SWAP1 KECCAK256 DUP3 MLOAD PUSH1 0xA0 DUP2 ADD SWAP1 SWAP4 MSTORE DUP1 SLOAD PUSH1 0x1 PUSH1 0x1 PUSH1 0xA0 SHL SUB AND DUP4 MSTORE PUSH1 0x1 DUP2 ADD DUP1 SLOAD SWAP2 SWAP4 SWAP3 DUP4 ADD SWAP2 PUSH2 0x3A95 SWAP1 PUSH2 0x5B6C JUMP JUMPDEST DUP1 PUSH1 0x1F ADD PUSH1 0x20 DUP1 SWAP2 DIV MUL PUSH1 0x20 ADD PUSH1 0x40 MLOAD SWAP1 DUP2 ADD PUSH1 0x40 MSTORE DUP1 SWAP3 SWAP2 SWAP1 DUP2 DUP2 MSTORE PUSH1 0x20 ADD DUP3 DUP1 SLOAD PUSH2 0x3AC1 SWAP1 PUSH2 0x5B6C JUMP JUMPDEST DUP1 ISZERO PUSH2 0x3B0E JUMPI DUP1 PUSH1 0x1F LT PUSH2 0x3AE3 JUMPI PUSH2 0x100 DUP1 DUP4 SLOAD DIV MUL DUP4 MSTORE SWAP2 PUSH1 0x20 ADD SWAP2 PUSH2 0x3B0E JUMP JUMPDEST DUP3 ADD SWAP2 SWAP1 PUSH1 0x0 MSTORE PUSH1 0x20 PUSH1 0x0 KECCAK256 SWAP1 JUMPDEST DUP2 SLOAD DUP2 MSTORE SWAP1 PUSH1 0x1 ADD SWAP1 PUSH1 0x20 ADD DUP1 DUP4 GT PUSH2 0x3AF1 JUMPI DUP3 SWAP1 SUB PUSH1 0x1F AND DUP3 ADD SWAP2 JUMPDEST POP POP POP POP POP DUP2 MSTORE PUSH1 0x20 ADD DUP3 PUSH1 0x2 ADD DUP1 SLOAD PUSH2 0x3B27 SWAP1 PUSH2 0x5B6C JUMP JUMPDEST DUP1 PUSH1 0x1F ADD PUSH1 0x20 DUP1 SWAP2 DIV MUL PUSH1 0x20 ADD PUSH1 0x40 MLOAD SWAP1 DUP2 ADD PUSH1 0x40 MSTORE DUP1 SWAP3 SWAP2 SWAP1 DUP2 DUP2 MSTORE PUSH1 0x20 ADD DUP3 DUP1 SLOAD PUSH2 0x3B53 SWAP1 PUSH2 0x5B6C JUMP JUMPDEST DUP1 ISZERO PUSH2 0x3BA0 JUMPI DUP1 PUSH1 0x1F LT PUSH2 0x3B75 JUMPI PUSH2 0x100 DUP1 DUP4 SLOAD DIV MUL DUP4 MSTORE SWAP2 PUSH1 0x20 ADD SWAP2 PUSH2 0x3BA0 JUMP JUMPDEST DUP3 ADD SWAP2 SWAP1 PUSH1 0x0 MSTORE PUSH1 0x20 PUSH1 0x0 KECCAK256 SWAP1 JUMPDEST DUP2 SLOAD DUP2 MSTORE SWAP1 PUSH1 0x1 ADD SWAP1 PUSH1 0x20 ADD DUP1 DUP4 GT PUSH2 0x3B83 JUMPI DUP3 SWAP1 SUB PUSH1 0x1F AND DUP3 ADD SWAP2 JUMPDEST POP POP POP SWAP2 DUP4 MSTORE POP POP PUSH1 0x0 PUSH1 0x20 DUP3 ADD MSTORE PUSH1 0x3 DUP4 ADD SLOAD PUSH1 0x40 SWAP1 SWAP2 ADD SWAP1 PUSH1 0xFF AND PUSH1 0x2 DUP2 GT ISZERO PUSH2 0x3BCE JUMPI PUSH2 0x3BCE PUSH2 0x54CB JUMP JUMPDEST SWAP1 MSTORE DUP2 SLOAD PUSH1 0x1 PUSH1 0x1 PUSH1 0xA0 SHL SUB SWAP1 DUP2 AND PUSH1 0x0 SWAP1 DUP2 MSTORE PUSH1 0xE PUSH1 0x20 SWAP1 DUP2 MSTORE PUSH1 0x40 SWAP1 SWAP2 KECCAK256 DUP4 MLOAD DUP2 SLOAD PUSH1 0x1 PUSH1 0x1 PUSH1 0xA0 SHL SUB NOT AND SWAP4 AND SWAP3 SWAP1 SWAP3 OR DUP3 SSTORE DUP3 ADD MLOAD PUSH1 0x1 DUP3 ADD SWAP1 PUSH2 0x3C16 SWAP1 DUP3 PUSH2 0x5D1B JUMP JUMPDEST POP PUSH1 0x40 DUP3 ADD MLOAD PUSH1 0x2 DUP3 ADD SWAP1 PUSH2 0x3C2B SWAP1 DUP3 PUSH2 0x5D1B JUMP JUMPDEST POP PUSH1 0x60 DUP3 ADD MLOAD PUSH1 0x3 DUP3 ADD SSTORE PUSH1 0x80 DUP3 ADD MLOAD PUSH1 0x4 DUP3 ADD DUP1 SLOAD PUSH1 0xFF NOT AND PUSH1 0x1 DUP4 PUSH1 0x2 DUP2 GT ISZERO PUSH2 0x3C59 JUMPI PUSH2 0x3C59 PUSH2 0x54CB JUMP JUMPDEST MUL OR SWAP1 SSTORE POP POP POP PUSH1 0x3 DUP2 ADD SLOAD DUP2 SLOAD PUSH1 0x1 PUSH1 0x1 PUSH1 0xA0 SHL SUB AND PUSH1 0x0 SWAP1 DUP2 MSTORE PUSH1 0x6 PUSH1 0x20 MSTORE PUSH1 0x40 SWAP1 KECCAK256 DUP1 SLOAD PUSH1 0xFF SWAP1 SWAP3 AND SWAP2 PUSH1 0xFF NOT AND PUSH1 0x1 DUP4 PUSH1 0x2 DUP2 GT ISZERO PUSH2 0x3C9E JUMPI PUSH2 0x3C9E PUSH2 0x54CB JUMP JUMPDEST MUL OR SWAP1 SSTORE POP PUSH1 0x0 PUSH1 0x3 DUP3 ADD SLOAD PUSH1 0xFF AND PUSH1 0x2 DUP2 GT ISZERO PUSH2 0x3CBE JUMPI PUSH2 0x3CBE PUSH2 0x54CB JUMP JUMPDEST SUB PUSH2 0x3D15 JUMPI DUP1 SLOAD PUSH1 0x11 DUP1 SLOAD PUSH1 0x1 DUP2 ADD DUP3 SSTORE PUSH1 0x0 SWAP2 SWAP1 SWAP2 MSTORE PUSH32 0x31ECC21A745E3968A04E9570E4425BC18FA8019C68028196B546D1669C200C68 ADD DUP1 SLOAD PUSH1 0x1 PUSH1 0x1 PUSH1 0xA0 SHL SUB NOT AND PUSH1 0x1 PUSH1 0x1 PUSH1 0xA0 SHL SUB SWAP1 SWAP3 AND SWAP2 SWAP1 SWAP2 OR SWAP1 SSTORE JUMPDEST PUSH1 0x1 PUSH1 0x3 DUP3 ADD SLOAD PUSH1 0xFF AND PUSH1 0x2 DUP2 GT ISZERO PUSH2 0x3D30 JUMPI PUSH2 0x3D30 PUSH2 0x54CB JUMP JUMPDEST SUB PUSH2 0x3D87 JUMPI DUP1 SLOAD PUSH1 0x12 DUP1 SLOAD PUSH1 0x1 DUP2 ADD DUP3 SSTORE PUSH1 0x0 SWAP2 SWAP1 SWAP2 MSTORE PUSH32 0xBB8A6A4669BA250D26CD7A459ECA9D215F8307E33AEBE50379BC5A3617EC3444 ADD DUP1 SLOAD PUSH1 0x1 PUSH1 0x1 PUSH1 0xA0 SHL SUB NOT AND PUSH1 0x1 PUSH1 0x1 PUSH1 0xA0 SHL SUB SWAP1 SWAP3 AND SWAP2 SWAP1 SWAP2 OR SWAP1 SSTORE JUMPDEST PUSH1 0x2 PUSH1 0x3 DUP3 ADD SLOAD PUSH1 0xFF AND PUSH1 0x2 DUP2 GT ISZERO PUSH2 0x3DA2 JUMPI PUSH2 0x3DA2 PUSH2 0x54CB JUMP JUMPDEST SUB PUSH2 0x3DF9 JUMPI DUP1 SLOAD PUSH1 0x13 DUP1 SLOAD PUSH1 0x1 DUP2 ADD DUP3 SSTORE PUSH1 0x0 SWAP2 SWAP1 SWAP2 MSTORE PUSH32 0x66DE8FFDA797E3DE9C05E8FC57B3BF0EC28A930D40B0D285D93C06501CF6A090 ADD DUP1 SLOAD PUSH1 0x1 PUSH1 0x1 PUSH1 0xA0 SHL SUB NOT AND PUSH1 0x1 PUSH1 0x1 PUSH1 0xA0 SHL SUB SWAP1 SWAP3 AND SWAP2 SWAP1 SWAP2 OR SWAP1 SSTORE JUMPDEST DUP1 SLOAD PUSH1 0xF DUP1 SLOAD PUSH1 0x1 DUP2 ADD DUP3 SSTORE PUSH1 0x0 SWAP2 DUP3 MSTORE PUSH32 0x8D1108E10BCB7C27DDDFC02ED9D693A074039D026CF4EA4240B40F7D581AC802 ADD DUP1 SLOAD PUSH1 0x1 PUSH1 0x1 PUSH1 0xA0 SHL SUB NOT AND PUSH1 0x1 PUSH1 0x1 PUSH1 0xA0 SHL SUB SWAP1 SWAP4 AND SWAP3 SWAP1 SWAP3 OR SWAP1 SWAP2 SSTORE PUSH1 0xC DUP1 SLOAD SWAP2 PUSH2 0x3E58 DUP4 PUSH2 0x5CB3 JUMP JUMPDEST SWAP1 SWAP2 SSTORE POP POP PUSH1 0x3 ADD DUP1 SLOAD PUSH3 0xFFFF00 NOT AND PUSH2 0x100 OR SWAP1 SSTORE POP JUMP JUMPDEST PUSH1 0x1 PUSH1 0x1 PUSH1 0xA0 SHL SUB DUP1 DUP3 AND PUSH1 0x0 SWAP1 DUP2 MSTORE PUSH1 0xE PUSH1 0x20 SWAP1 DUP2 MSTORE PUSH1 0x40 DUP1 DUP4 KECCAK256 DUP2 MLOAD PUSH1 0xA0 DUP2 ADD SWAP1 SWAP3 MSTORE DUP1 SLOAD SWAP1 SWAP5 AND DUP2 MSTORE PUSH1 0x1 DUP5 ADD DUP1 SLOAD SWAP4 SWAP5 PUSH1 0x60 SWAP5 DUP6 SWAP5 DUP8 SWAP5 DUP6 SWAP5 DUP6 SWAP5 SWAP2 SWAP4 SWAP2 SWAP3 DUP5 ADD SWAP2 PUSH2 0x3EC0 SWAP1 PUSH2 0x5B6C JUMP JUMPDEST DUP1 PUSH1 0x1F ADD PUSH1 0x20 DUP1 SWAP2 DIV MUL PUSH1 0x20 ADD PUSH1 0x40 MLOAD SWAP1 DUP2 ADD PUSH1 0x40 MSTORE DUP1 SWAP3 SWAP2 SWAP1 DUP2 DUP2 MSTORE PUSH1 0x20 ADD DUP3 DUP1 SLOAD PUSH2 0x3EEC SWAP1 PUSH2 0x5B6C JUMP JUMPDEST DUP1 ISZERO PUSH2 0x3F39 JUMPI DUP1 PUSH1 0x1F LT PUSH2 0x3F0E JUMPI PUSH2 0x100 DUP1 DUP4 SLOAD DIV MUL DUP4 MSTORE SWAP2 PUSH1 0x20 ADD SWAP2 PUSH2 0x3F39 JUMP JUMPDEST DUP3 ADD SWAP2 SWAP1 PUSH1 0x0 MSTORE PUSH1 0x20 PUSH1 0x0 KECCAK256 SWAP1 JUMPDEST DUP2 SLOAD DUP2 MSTORE SWAP1 PUSH1 0x1 ADD SWAP1 PUSH1 0x20 ADD DUP1 DUP4 GT PUSH2 0x3F1C JUMPI DUP3 SWAP1 SUB PUSH1 0x1F AND DUP3 ADD SWAP2 JUMPDEST POP POP POP POP POP DUP2 MSTORE PUSH1 0x20 ADD PUSH1 0x2 DUP3 ADD DUP1 SLOAD PUSH2 0x3F52 SWAP1 PUSH2 0x5B6C JUMP JUMPDEST DUP1 PUSH1 0x1F ADD PUSH1 0x20 DUP1 SWAP2 DIV MUL PUSH1 0x20 ADD PUSH1 0x40 MLOAD SWAP1 DUP2 ADD PUSH1 0x40 MSTORE DUP1 SWAP3 SWAP2 SWAP1 DUP2 DUP2 MSTORE PUSH1 0x20 ADD DUP3 DUP1 SLOAD PUSH2 0x3F7E SWAP1 PUSH2 0x5B6C JUMP JUMPDEST DUP1 ISZERO PUSH2 0x3FCB JUMPI DUP1 PUSH1 0x1F LT PUSH2 0x3FA0 JUMPI PUSH2 0x100 DUP1 DUP4 SLOAD DIV MUL DUP4 MSTORE SWAP2 PUSH1 0x20 ADD SWAP2 PUSH2 0x3FCB JUMP JUMPDEST DUP3 ADD SWAP2 SWAP1 PUSH1 0x0 MSTORE PUSH1 0x20 PUSH1 0x0 KECCAK256 SWAP1 JUMPDEST DUP2 SLOAD DUP2 MSTORE SWAP1 PUSH1 0x1 ADD SWAP1 PUSH1 0x20 ADD DUP1 DUP4 GT PUSH2 0x3FAE JUMPI DUP3 SWAP1 SUB PUSH1 0x1F AND DUP3 ADD SWAP2 JUMPDEST POP POP POP SWAP2 DUP4 MSTORE POP POP PUSH1 0x3 DUP3 ADD SLOAD PUSH1 0x20 DUP3 ADD MSTORE PUSH1 0x4 DUP3 ADD SLOAD PUSH1 0x40 SWAP1 SWAP2 ADD SWAP1 PUSH1 0xFF AND PUSH1 0x2 DUP2 GT ISZERO PUSH2 0x3FFC JUMPI PUSH2 0x3FFC PUSH2 0x54CB JUMP JUMPDEST PUSH1 0x2 DUP2 GT ISZERO PUSH2 0x400D JUMPI PUSH2 0x400D PUSH2 0x54CB JUMP JUMPDEST SWAP1 MSTORE POP DUP1 MLOAD PUSH1 0x20 DUP3 ADD MLOAD PUSH1 0x40 DUP4 ADD MLOAD PUSH1 0x60 DUP5 ADD MLOAD PUSH1 0x80 SWAP1 SWAP5 ADD MLOAD SWAP3 SWAP12 SWAP2 SWAP11 POP SWAP9 POP SWAP2 SWAP7 POP SWAP5 POP SWAP3 POP POP POP JUMP JUMPDEST PUSH1 0xD SLOAD PUSH1 0x1 PUSH1 0x1 PUSH1 0xA0 SHL SUB AND CALLER EQ PUSH2 0x4063 JUMPI PUSH1 0x40 MLOAD PUSH3 0x461BCD PUSH1 0xE5 SHL DUP2 MSTORE PUSH1 0x4 ADD PUSH2 0x74A SWAP1 PUSH2 0x5BBC JUMP JUMPDEST PUSH1 0x0 DUP2 DUP2 MSTORE PUSH1 0x5 PUSH1 0x20 MSTORE PUSH1 0x40 SWAP1 KECCAK256 PUSH1 0x3 ADD SLOAD PUSH3 0x10000 SWAP1 DIV PUSH1 0xFF AND PUSH2 0x40B9 JUMPI PUSH1 0x40 MLOAD PUSH3 0x461BCD PUSH1 0xE5 SHL DUP2 MSTORE PUSH1 0x20 PUSH1 0x4 DUP3 ADD MSTORE PUSH1 0xC PUSH1 0x24 DUP3 ADD MSTORE PUSH12 0x37379039BAB1B4103AB9B2B9 PUSH1 0xA1 SHL PUSH1 0x44 DUP3 ADD MSTORE PUSH1 0x64 ADD PUSH2 0x74A JUMP JUMPDEST PUSH1 0x0 SWAP1 DUP2 MSTORE PUSH1 0x5 PUSH1 0x20 MSTORE PUSH1 0x40 DUP2 KECCAK256 PUSH1 0x3 DUP2 ADD DUP1 SLOAD PUSH3 0xFFFF00 NOT AND SWAP1 SSTORE SLOAD PUSH1 0x10 DUP1 SLOAD PUSH1 0x1 DUP2 ADD DUP3 SSTORE SWAP3 MSTORE PUSH32 0x1B6847DC741A1B0CD08D278845F9D819D87B734759AFB55FE2DE5CB82A9AE672 SWAP1 SWAP2 ADD DUP1 SLOAD PUSH1 0x1 PUSH1 0x1 PUSH1 0xA0 SHL SUB NOT AND PUSH1 0x1 PUSH1 0x1 PUSH1 0xA0 SHL SUB SWAP1 SWAP3 AND SWAP2 SWAP1 SWAP2 OR SWAP1 SSTORE JUMP JUMPDEST PUSH1 0x2 DUP1 CALLER PUSH1 0x0 SWAP1 DUP2 MSTORE PUSH1 0x6 PUSH1 0x20 MSTORE PUSH1 0x40 SWAP1 KECCAK256 SLOAD PUSH1 0xFF AND PUSH1 0x2 DUP2 GT ISZERO PUSH2 0x414C JUMPI PUSH2 0x414C PUSH2 0x54CB JUMP JUMPDEST EQ PUSH2 0x4169 JUMPI PUSH1 0x40 MLOAD PUSH3 0x461BCD PUSH1 0xE5 SHL DUP2 MSTORE PUSH1 0x4 ADD PUSH2 0x74A SWAP1 PUSH2 0x5B45 JUMP JUMPDEST PUSH1 0x0 DUP4 GT DUP1 ISZERO PUSH2 0x417B JUMPI POP PUSH1 0x9 SLOAD DUP4 GT ISZERO JUMPDEST PUSH2 0x41B9 JUMPI PUSH1 0x40 MLOAD PUSH3 0x461BCD PUSH1 0xE5 SHL DUP2 MSTORE PUSH1 0x20 PUSH1 0x4 DUP3 ADD MSTORE PUSH1 0xF PUSH1 0x24 DUP3 ADD MSTORE PUSH15 0x125B9D985B1A590818DC9BDC081251 PUSH1 0x8A SHL PUSH1 0x44 DUP3 ADD MSTORE PUSH1 0x64 ADD PUSH2 0x74A JUMP JUMPDEST PUSH1 0xA DUP1 SLOAD SWAP1 PUSH1 0x0 PUSH2 0x41C9 DUP4 PUSH2 0x5CB3 JUMP JUMPDEST SWAP1 SWAP2 SSTORE POP POP PUSH1 0x0 DUP4 DUP2 MSTORE PUSH1 0x3 PUSH1 0x20 DUP2 DUP2 MSTORE PUSH1 0x40 DUP1 DUP5 KECCAK256 DUP1 SLOAD DUP6 MSTORE PUSH1 0x4 DUP4 MSTORE DUP2 DUP6 KECCAK256 PUSH1 0x6 DUP2 ADD DUP1 SLOAD PUSH1 0x1 PUSH1 0xA1 SHL PUSH1 0xFF PUSH1 0xA0 SHL NOT SWAP1 SWAP2 AND OR SWAP1 SSTORE PUSH1 0x9 DUP3 ADD DUP1 SLOAD PUSH1 0xFF NOT AND PUSH1 0x2 OR SWAP1 SSTORE CALLER DUP7 MSTORE PUSH1 0xE SWAP1 SWAP4 MSTORE SWAP1 DUP5 KECCAK256 SWAP1 SWAP3 ADD DUP1 SLOAD SWAP3 SWAP4 SWAP2 SWAP3 PUSH1 0x1 SWAP3 SWAP1 PUSH2 0x4233 SWAP1 DUP5 SWAP1 PUSH2 0x5DDA JUMP JUMPDEST SWAP1 SWAP2 SSTORE POP POP PUSH1 0x4 DUP3 ADD SLOAD PUSH1 0x1 PUSH1 0x1 PUSH1 0xA0 SHL SUB AND PUSH1 0x0 SWAP1 DUP2 MSTORE PUSH1 0xE PUSH1 0x20 MSTORE PUSH1 0x40 DUP2 KECCAK256 PUSH1 0x3 ADD DUP1 SLOAD PUSH1 0x1 SWAP3 SWAP1 PUSH2 0x4268 SWAP1 DUP5 SWAP1 PUSH2 0x5DDA JUMP JUMPDEST SWAP1 SWAP2 SSTORE POP POP PUSH1 0x3 DUP1 DUP4 ADD SLOAD PUSH1 0x1 PUSH1 0x1 PUSH1 0xA0 SHL SUB AND PUSH1 0x0 SWAP1 DUP2 MSTORE PUSH1 0xE PUSH1 0x20 MSTORE PUSH1 0x40 DUP2 KECCAK256 SWAP1 SWAP2 ADD DUP1 SLOAD PUSH1 0x1 SWAP3 SWAP1 PUSH2 0x429E SWAP1 DUP5 SWAP1 PUSH2 0x5DDA JUMP JUMPDEST SWAP3 POP POP DUP2 SWAP1 SSTORE POP PUSH1 0x40 MLOAD DUP1 PUSH2 0x120 ADD PUSH1 0x40 MSTORE DUP1 DUP4 PUSH1 0x1 ADD DUP1 SLOAD PUSH2 0x42C0 SWAP1 PUSH2 0x5B6C JUMP JUMPDEST DUP1 PUSH1 0x1F ADD PUSH1 0x20 DUP1 SWAP2 DIV MUL PUSH1 0x20 ADD PUSH1 0x40 MLOAD SWAP1 DUP2 ADD PUSH1 0x40 MSTORE DUP1 SWAP3 SWAP2 SWAP1 DUP2 DUP2 MSTORE PUSH1 0x20 ADD DUP3 DUP1 SLOAD PUSH2 0x42EC SWAP1 PUSH2 0x5B6C JUMP JUMPDEST DUP1 ISZERO PUSH2 0x4339 JUMPI DUP1 PUSH1 0x1F LT PUSH2 0x430E JUMPI PUSH2 0x100 DUP1 DUP4 SLOAD DIV MUL DUP4 MSTORE SWAP2 PUSH1 0x20 ADD SWAP2 PUSH2 0x4339 JUMP JUMPDEST DUP3 ADD SWAP2 SWAP1 PUSH1 0x0 MSTORE PUSH1 0x20 PUSH1 0x0 KECCAK256 SWAP1 JUMPDEST DUP2 SLOAD DUP2 MSTORE SWAP1 PUSH1 0x1 ADD SWAP1 PUSH1 0x20 ADD DUP1 DUP4 GT PUSH2 0x431C JUMPI DUP3 SWAP1 SUB PUSH1 0x1F AND DUP3 ADD SWAP2 JUMPDEST POP POP POP POP POP DUP2 MSTORE PUSH1 0x20 ADD DUP4 PUSH1 0x2 ADD DUP1 SLOAD PUSH2 0x4352 SWAP1 PUSH2 0x5B6C JUMP JUMPDEST DUP1 PUSH1 0x1F ADD PUSH1 0x20 DUP1 SWAP2 DIV MUL PUSH1 0x20 ADD PUSH1 0x40 MLOAD SWAP1 DUP2 ADD PUSH1 0x40 MSTORE DUP1 SWAP3 SWAP2 SWAP1 DUP2 DUP2 MSTORE PUSH1 0x20 ADD DUP3 DUP1 SLOAD PUSH2 0x437E SWAP1 PUSH2 0x5B6C JUMP JUMPDEST DUP1 ISZERO PUSH2 0x43CB JUMPI DUP1 PUSH1 0x1F LT PUSH2 0x43A0 JUMPI PUSH2 0x100 DUP1 DUP4 SLOAD DIV MUL DUP4 MSTORE SWAP2 PUSH1 0x20 ADD SWAP2 PUSH2 0x43CB JUMP JUMPDEST DUP3 ADD SWAP2 SWAP1 PUSH1 0x0 MSTORE PUSH1 0x20 PUSH1 0x0 KECCAK256 SWAP1 JUMPDEST DUP2 SLOAD DUP2 MSTORE SWAP1 PUSH1 0x1 ADD SWAP1 PUSH1 0x20 ADD DUP1 DUP4 GT PUSH2 0x43AE JUMPI DUP3 SWAP1 SUB PUSH1 0x1F AND DUP3 ADD SWAP2 JUMPDEST POP POP POP SWAP2 DUP4 MSTORE POP POP PUSH1 0x3 DUP5 ADD SLOAD PUSH1 0x1 PUSH1 0x1 PUSH1 0xA0 SHL SUB SWAP1 DUP2 AND PUSH1 0x20 DUP1 DUP5 ADD SWAP2 SWAP1 SWAP2 MSTORE PUSH1 0x4 DUP1 DUP8 ADD SLOAD SWAP1 SWAP3 AND PUSH1 0x40 DUP1 DUP6 ADD SWAP2 SWAP1 SWAP2 MSTORE CALLER PUSH1 0x60 DUP6 ADD MSTORE PUSH1 0x5 DUP7 ADD SLOAD PUSH1 0x80 DUP6 ADD MSTORE PUSH1 0x8 DUP8 ADD SLOAD PUSH1 0xA0 DUP6 ADD MSTORE SWAP2 DUP6 ADD SLOAD PUSH1 0xC0 DUP5 ADD MSTORE PUSH1 0xE0 SWAP1 SWAP3 ADD DUP8 SWAP1 MSTORE PUSH1 0xA SLOAD PUSH1 0x0 SWAP1 DUP2 MSTORE PUSH1 0x7 SWAP1 SWAP3 MSTORE SWAP1 KECCAK256 DUP2 MLOAD DUP2 SWAP1 PUSH2 0x4446 SWAP1 DUP3 PUSH2 0x5D1B JUMP JUMPDEST POP PUSH1 0x20 DUP3 ADD MLOAD PUSH1 0x1 DUP3 ADD SWAP1 PUSH2 0x445B SWAP1 DUP3 PUSH2 0x5D1B JUMP JUMPDEST POP PUSH1 0x40 DUP3 DUP2 ADD MLOAD PUSH1 0x2 DUP4 ADD DUP1 SLOAD PUSH1 0x1 PUSH1 0x1 PUSH1 0xA0 SHL SUB NOT SWAP1 DUP2 AND PUSH1 0x1 PUSH1 0x1 PUSH1 0xA0 SHL SUB SWAP4 DUP5 AND OR SWAP1 SWAP2 SSTORE PUSH1 0x60 DUP6 ADD MLOAD PUSH1 0x3 DUP1 DUP7 ADD DUP1 SLOAD DUP5 AND SWAP3 DUP6 AND SWAP3 SWAP1 SWAP3 OR SWAP1 SWAP2 SSTORE PUSH1 0x80 DUP7 ADD MLOAD PUSH1 0x4 DUP7 ADD DUP1 SLOAD SWAP1 SWAP4 AND SWAP1 DUP5 AND OR SWAP1 SWAP2 SSTORE PUSH1 0xA0 DUP6 ADD MLOAD PUSH1 0x5 DUP6 ADD SSTORE PUSH1 0xC0 DUP6 ADD MLOAD PUSH1 0x6 DUP6 ADD SSTORE PUSH1 0xE0 DUP6 ADD MLOAD PUSH1 0x7 DUP6 ADD SSTORE PUSH2 0x100 SWAP5 DUP6 ADD MLOAD PUSH1 0x8 SWAP1 SWAP5 ADD SWAP4 SWAP1 SWAP4 SSTORE SWAP2 DUP6 ADD SLOAD SWAP1 SWAP2 AND PUSH1 0x0 SWAP1 DUP2 MSTORE PUSH1 0x20 DUP2 SWAP1 MSTORE DUP2 SWAP1 KECCAK256 DUP2 MLOAD SWAP3 DUP4 ADD SWAP1 SWAP2 MSTORE DUP1 SLOAD SWAP1 SWAP2 SWAP1 DUP2 SWAP1 PUSH2 0x450C SWAP1 PUSH1 0x1 PUSH2 0x5DDA JUMP JUMPDEST DUP2 MSTORE PUSH1 0x3 DUP6 ADD SLOAD PUSH1 0x1 PUSH1 0x1 PUSH1 0xA0 SHL SUB AND PUSH1 0x20 DUP3 ADD MSTORE PUSH1 0x2 DUP6 ADD DUP1 SLOAD PUSH1 0x40 SWAP1 SWAP3 ADD SWAP2 PUSH2 0x4536 SWAP1 PUSH2 0x5B6C JUMP JUMPDEST DUP1 PUSH1 0x1F ADD PUSH1 0x20 DUP1 SWAP2 DIV MUL PUSH1 0x20 ADD PUSH1 0x40 MLOAD SWAP1 DUP2 ADD PUSH1 0x40 MSTORE DUP1 SWAP3 SWAP2 SWAP1 DUP2 DUP2 MSTORE PUSH1 0x20 ADD DUP3 DUP1 SLOAD PUSH2 0x4562 SWAP1 PUSH2 0x5B6C JUMP JUMPDEST DUP1 ISZERO PUSH2 0x45AF JUMPI DUP1 PUSH1 0x1F LT PUSH2 0x4584 JUMPI PUSH2 0x100 DUP1 DUP4 SLOAD DIV MUL DUP4 MSTORE SWAP2 PUSH1 0x20 ADD SWAP2 PUSH2 0x45AF JUMP JUMPDEST DUP3 ADD SWAP2 SWAP1 PUSH1 0x0 MSTORE PUSH1 0x20 PUSH1 0x0 KECCAK256 SWAP1 JUMPDEST DUP2 SLOAD DUP2 MSTORE SWAP1 PUSH1 0x1 ADD SWAP1 PUSH1 0x20 ADD DUP1 DUP4 GT PUSH2 0x4592 JUMPI DUP3 SWAP1 SUB PUSH1 0x1F AND DUP3 ADD SWAP2 JUMPDEST POP POP POP SWAP2 DUP4 MSTORE POP POP PUSH1 0x5 DUP6 ADD SLOAD PUSH1 0x1 PUSH1 0x1 PUSH1 0xA0 SHL SUB AND PUSH1 0x0 SWAP1 DUP2 MSTORE PUSH1 0xE PUSH1 0x20 SWAP1 DUP2 MSTORE PUSH1 0x40 SWAP1 SWAP2 KECCAK256 PUSH1 0x1 ADD DUP1 SLOAD SWAP2 SWAP1 SWAP3 ADD SWAP2 SWAP1 PUSH2 0x45EA SWAP1 PUSH2 0x5B6C JUMP JUMPDEST DUP1 PUSH1 0x1F ADD PUSH1 0x20 DUP1 SWAP2 DIV MUL PUSH1 0x20 ADD PUSH1 0x40 MLOAD SWAP1 DUP2 ADD PUSH1 0x40 MSTORE DUP1 SWAP3 SWAP2 SWAP1 DUP2 DUP2 MSTORE PUSH1 0x20 ADD DUP3 DUP1 SLOAD PUSH2 0x4616 SWAP1 PUSH2 0x5B6C JUMP JUMPDEST DUP1 ISZERO PUSH2 0x4663 JUMPI DUP1 PUSH1 0x1F LT PUSH2 0x4638 JUMPI PUSH2 0x100 DUP1 DUP4 SLOAD DIV MUL DUP4 MSTORE SWAP2 PUSH1 0x20 ADD SWAP2 PUSH2 0x4663 JUMP JUMPDEST DUP3 ADD SWAP2 SWAP1 PUSH1 0x0 MSTORE PUSH1 0x20 PUSH1 0x0 KECCAK256 SWAP1 JUMPDEST DUP2 SLOAD DUP2 MSTORE SWAP1 PUSH1 0x1 ADD SWAP1 PUSH1 0x20 ADD DUP1 DUP4 GT PUSH2 0x4646 JUMPI DUP3 SWAP1 SUB PUSH1 0x1F AND DUP3 ADD SWAP2 JUMPDEST POP POP POP SWAP2 DUP4 MSTORE POP POP PUSH1 0x5 DUP6 ADD SLOAD PUSH1 0x1 PUSH1 0x1 PUSH1 0xA0 SHL SUB SWAP1 DUP2 AND PUSH1 0x20 DUP1 DUP5 ADD SWAP2 SWAP1 SWAP2 MSTORE PUSH1 0x4 DUP8 ADD SLOAD SWAP1 SWAP2 AND PUSH1 0x0 SWAP1 DUP2 MSTORE PUSH1 0xE SWAP1 SWAP2 MSTORE PUSH1 0x40 SWAP1 DUP2 SWAP1 KECCAK256 PUSH1 0x1 ADD DUP1 SLOAD SWAP2 SWAP1 SWAP3 ADD SWAP2 SWAP1 PUSH2 0x46B0 SWAP1 PUSH2 0x5B6C JUMP JUMPDEST DUP1 PUSH1 0x1F ADD PUSH1 0x20 DUP1 SWAP2 DIV MUL PUSH1 0x20 ADD PUSH1 0x40 MLOAD SWAP1 DUP2 ADD PUSH1 0x40 MSTORE DUP1 SWAP3 SWAP2 SWAP1 DUP2 DUP2 MSTORE PUSH1 0x20 ADD DUP3 DUP1 SLOAD PUSH2 0x46DC SWAP1 PUSH2 0x5B6C JUMP JUMPDEST DUP1 ISZERO PUSH2 0x4729 JUMPI DUP1 PUSH1 0x1F LT PUSH2 0x46FE JUMPI PUSH2 0x100 DUP1 DUP4 SLOAD DIV MUL DUP4 MSTORE SWAP2 PUSH1 0x20 ADD SWAP2 PUSH2 0x4729 JUMP JUMPDEST DUP3 ADD SWAP2 SWAP1 PUSH1 0x0 MSTORE PUSH1 0x20 PUSH1 0x0 KECCAK256 SWAP1 JUMPDEST DUP2 SLOAD DUP2 MSTORE SWAP1 PUSH1 0x1 ADD SWAP1 PUSH1 0x20 ADD DUP1 DUP4 GT PUSH2 0x470C JUMPI DUP3 SWAP1 SUB PUSH1 0x1F AND DUP3 ADD SWAP2 JUMPDEST POP POP POP SWAP2 DUP4 MSTORE POP POP PUSH1 0x4 DUP6 ADD SLOAD PUSH1 0x1 PUSH1 0x1 PUSH1 0xA0 SHL SUB SWAP1 DUP2 AND PUSH1 0x20 DUP1 DUP5 ADD SWAP2 SWAP1 SWAP2 MSTORE PUSH1 0x40 SWAP3 DUP4 ADD DUP10 SWAP1 MSTORE DUP5 SLOAD PUSH1 0x1 DUP1 DUP3 ADD DUP8 SSTORE PUSH1 0x0 SWAP7 DUP8 MSTORE SWAP6 DUP3 SWAP1 KECCAK256 DUP6 MLOAD PUSH1 0x8 SWAP1 SWAP3 MUL ADD SWAP1 DUP2 SSTORE SWAP1 DUP5 ADD MLOAD SWAP5 DUP2 ADD DUP1 SLOAD PUSH1 0x1 PUSH1 0x1 PUSH1 0xA0 SHL SUB NOT AND SWAP6 SWAP1 SWAP3 AND SWAP5 SWAP1 SWAP5 OR SWAP1 SSTORE DUP2 ADD MLOAD SWAP1 SWAP2 SWAP1 PUSH1 0x2 DUP3 ADD SWAP1 PUSH2 0x47A1 SWAP1 DUP3 PUSH2 0x5D1B JUMP JUMPDEST POP PUSH1 0x60 DUP3 ADD MLOAD PUSH1 0x3 DUP3 ADD SWAP1 PUSH2 0x47B6 SWAP1 DUP3 PUSH2 0x5D1B JUMP JUMPDEST POP PUSH1 0x80 DUP3 ADD MLOAD PUSH1 0x4 DUP3 ADD DUP1 SLOAD PUSH1 0x1 PUSH1 0x1 PUSH1 0xA0 SHL SUB NOT AND PUSH1 0x1 PUSH1 0x1 PUSH1 0xA0 SHL SUB SWAP1 SWAP3 AND SWAP2 SWAP1 SWAP2 OR SWAP1 SSTORE PUSH1 0xA0 DUP3 ADD MLOAD PUSH1 0x5 DUP3 ADD SWAP1 PUSH2 0x47F1 SWAP1 DUP3 PUSH2 0x5D1B JUMP JUMPDEST POP PUSH1 0xC0 DUP3 ADD MLOAD PUSH1 0x6 DUP3 ADD DUP1 SLOAD PUSH1 0x1 PUSH1 0x1 PUSH1 0xA0 SHL SUB NOT AND PUSH1 0x1 PUSH1 0x1 PUSH1 0xA0 SHL SUB SWAP3 DUP4 AND OR SWAP1 SSTORE PUSH1 0xE0 SWAP1 SWAP3 ADD MLOAD PUSH1 0x7 SWAP1 SWAP2 ADD SSTORE PUSH1 0x4 DUP4 ADD SLOAD AND PUSH1 0x0 SWAP1 DUP2 MSTORE PUSH1 0x1 PUSH1 0x20 DUP2 SWAP1 MSTORE PUSH1 0x40 SWAP2 DUP3 SWAP1 KECCAK256 DUP3 MLOAD PUSH2 0x120 DUP2 ADD SWAP1 SWAP4 MSTORE DUP1 SLOAD SWAP1 SWAP3 SWAP2 DUP3 SWAP2 PUSH2 0x4853 SWAP2 PUSH2 0x5DDA JUMP JUMPDEST DUP2 MSTORE PUSH1 0x3 DUP6 ADD SLOAD PUSH1 0x1 PUSH1 0x1 PUSH1 0xA0 SHL SUB SWAP1 DUP2 AND PUSH1 0x20 DUP1 DUP5 ADD DUP3 SWAP1 MSTORE PUSH1 0x5 DUP9 ADD SLOAD SWAP1 SWAP3 AND PUSH1 0x40 DUP1 DUP6 ADD SWAP2 SWAP1 SWAP2 MSTORE PUSH1 0x0 SWAP2 DUP3 MSTORE PUSH1 0xE SWAP1 SWAP3 MSTORE KECCAK256 PUSH1 0x1 ADD DUP1 SLOAD PUSH1 0x60 SWAP1 SWAP3 ADD SWAP2 PUSH2 0x489D SWAP1 PUSH2 0x5B6C JUMP JUMPDEST DUP1 PUSH1 0x1F ADD PUSH1 0x20 DUP1 SWAP2 DIV MUL PUSH1 0x20 ADD PUSH1 0x40 MLOAD SWAP1 DUP2 ADD PUSH1 0x40 MSTORE DUP1 SWAP3 SWAP2 SWAP1 DUP2 DUP2 MSTORE PUSH1 0x20 ADD DUP3 DUP1 SLOAD PUSH2 0x48C9 SWAP1 PUSH2 0x5B6C JUMP JUMPDEST DUP1 ISZERO PUSH2 0x4916 JUMPI DUP1 PUSH1 0x1F LT PUSH2 0x48EB JUMPI PUSH2 0x100 DUP1 DUP4 SLOAD DIV MUL DUP4 MSTORE SWAP2 PUSH1 0x20 ADD SWAP2 PUSH2 0x4916 JUMP JUMPDEST DUP3 ADD SWAP2 SWAP1 PUSH1 0x0 MSTORE PUSH1 0x20 PUSH1 0x0 KECCAK256 SWAP1 JUMPDEST DUP2 SLOAD DUP2 MSTORE SWAP1 PUSH1 0x1 ADD SWAP1 PUSH1 0x20 ADD DUP1 DUP4 GT PUSH2 0x48F9 JUMPI DUP3 SWAP1 SUB PUSH1 0x1F AND DUP3 ADD SWAP2 JUMPDEST POP POP POP SWAP2 DUP4 MSTORE POP POP PUSH1 0x5 DUP6 ADD SLOAD PUSH1 0x1 PUSH1 0x1 PUSH1 0xA0 SHL SUB AND PUSH1 0x0 SWAP1 DUP2 MSTORE PUSH1 0xE PUSH1 0x20 SWAP1 DUP2 MSTORE PUSH1 0x40 SWAP1 SWAP2 KECCAK256 PUSH1 0x1 ADD DUP1 SLOAD SWAP2 SWAP1 SWAP3 ADD SWAP2 SWAP1 PUSH2 0x4951 SWAP1 PUSH2 0x5B6C JUMP JUMPDEST DUP1 PUSH1 0x1F ADD PUSH1 0x20 DUP1 SWAP2 DIV MUL PUSH1 0x20 ADD PUSH1 0x40 MLOAD SWAP1 DUP2 ADD PUSH1 0x40 MSTORE DUP1 SWAP3 SWAP2 SWAP1 DUP2 DUP2 MSTORE PUSH1 0x20 ADD DUP3 DUP1 SLOAD PUSH2 0x497D SWAP1 PUSH2 0x5B6C JUMP JUMPDEST DUP1 ISZERO PUSH2 0x49CA JUMPI DUP1 PUSH1 0x1F LT PUSH2 0x499F JUMPI PUSH2 0x100 DUP1 DUP4 SLOAD DIV MUL DUP4 MSTORE SWAP2 PUSH1 0x20 ADD SWAP2 PUSH2 0x49CA JUMP JUMPDEST DUP3 ADD SWAP2 SWAP1 PUSH1 0x0 MSTORE PUSH1 0x20 PUSH1 0x0 KECCAK256 SWAP1 JUMPDEST DUP2 SLOAD DUP2 MSTORE SWAP1 PUSH1 0x1 ADD SWAP1 PUSH1 0x20 ADD DUP1 DUP4 GT PUSH2 0x49AD JUMPI DUP3 SWAP1 SUB PUSH1 0x1F AND DUP3 ADD SWAP2 JUMPDEST POP POP POP POP POP DUP2 MSTORE PUSH1 0x20 ADD DUP5 PUSH1 0x2 ADD DUP1 SLOAD PUSH2 0x49E3 SWAP1 PUSH2 0x5B6C JUMP JUMPDEST DUP1 PUSH1 0x1F ADD PUSH1 0x20 DUP1 SWAP2 DIV MUL PUSH1 0x20 ADD PUSH1 0x40 MLOAD SWAP1 DUP2 ADD PUSH1 0x40 MSTORE DUP1 SWAP3 SWAP2 SWAP1 DUP2 DUP2 MSTORE PUSH1 0x20 ADD DUP3 DUP1 SLOAD PUSH2 0x4A0F SWAP1 PUSH2 0x5B6C JUMP JUMPDEST DUP1 ISZERO PUSH2 0x4A5C JUMPI DUP1 PUSH1 0x1F LT PUSH2 0x4A31 JUMPI PUSH2 0x100 DUP1 DUP4 SLOAD DIV MUL DUP4 MSTORE SWAP2 PUSH1 0x20 ADD SWAP2 PUSH2 0x4A5C JUMP JUMPDEST DUP3 ADD SWAP2 SWAP1 PUSH1 0x0 MSTORE PUSH1 0x20 PUSH1 0x0 KECCAK256 SWAP1 JUMPDEST DUP2 SLOAD DUP2 MSTORE SWAP1 PUSH1 0x1 ADD SWAP1 PUSH1 0x20 ADD DUP1 DUP4 GT PUSH2 0x4A3F JUMPI DUP3 SWAP1 SUB PUSH1 0x1F AND DUP3 ADD SWAP2 JUMPDEST POP POP POP POP POP DUP2 MSTORE PUSH1 0x20 ADD DUP5 PUSH1 0x6 ADD DUP1 SLOAD PUSH2 0x4A75 SWAP1 PUSH2 0x5B6C JUMP JUMPDEST DUP1 PUSH1 0x1F ADD PUSH1 0x20 DUP1 SWAP2 DIV MUL PUSH1 0x20 ADD PUSH1 0x40 MLOAD SWAP1 DUP2 ADD PUSH1 0x40 MSTORE DUP1 SWAP3 SWAP2 SWAP1 DUP2 DUP2 MSTORE PUSH1 0x20 ADD DUP3 DUP1 SLOAD PUSH2 0x4AA1 SWAP1 PUSH2 0x5B6C JUMP JUMPDEST DUP1 ISZERO PUSH2 0x4AEE JUMPI DUP1 PUSH1 0x1F LT PUSH2 0x4AC3 JUMPI PUSH2 0x100 DUP1 DUP4 SLOAD DIV MUL DUP4 MSTORE SWAP2 PUSH1 0x20 ADD SWAP2 PUSH2 0x4AEE JUMP JUMPDEST DUP3 ADD SWAP2 SWAP1 PUSH1 0x0 MSTORE PUSH1 0x20 PUSH1 0x0 KECCAK256 SWAP1 JUMPDEST DUP2 SLOAD DUP2 MSTORE SWAP1 PUSH1 0x1 ADD SWAP1 PUSH1 0x20 ADD DUP1 DUP4 GT PUSH2 0x4AD1 JUMPI DUP3 SWAP1 SUB PUSH1 0x1F AND DUP3 ADD SWAP2 JUMPDEST POP POP POP POP POP DUP2 MSTORE PUSH1 0x20 ADD DUP5 PUSH1 0x7 ADD DUP1 SLOAD PUSH2 0x4B07 SWAP1 PUSH2 0x5B6C JUMP JUMPDEST DUP1 PUSH1 0x1F ADD PUSH1 0x20 DUP1 SWAP2 DIV MUL PUSH1 0x20 ADD PUSH1 0x40 MLOAD SWAP1 DUP2 ADD PUSH1 0x40 MSTORE DUP1 SWAP3 SWAP2 SWAP1 DUP2 DUP2 MSTORE PUSH1 0x20 ADD DUP3 DUP1 SLOAD PUSH2 0x4B33 SWAP1 PUSH2 0x5B6C JUMP JUMPDEST DUP1 ISZERO PUSH2 0x4B80 JUMPI DUP1 PUSH1 0x1F LT PUSH2 0x4B55 JUMPI PUSH2 0x100 DUP1 DUP4 SLOAD DIV MUL DUP4 MSTORE SWAP2 PUSH1 0x20 ADD SWAP2 PUSH2 0x4B80 JUMP JUMPDEST DUP3 ADD SWAP2 SWAP1 PUSH1 0x0 MSTORE PUSH1 0x20 PUSH1 0x0 KECCAK256 SWAP1 JUMPDEST DUP2 SLOAD DUP2 MSTORE SWAP1 PUSH1 0x1 ADD SWAP1 PUSH1 0x20 ADD DUP1 DUP4 GT PUSH2 0x4B63 JUMPI DUP3 SWAP1 SUB PUSH1 0x1F AND DUP3 ADD SWAP2 JUMPDEST POP POP POP SWAP2 DUP4 MSTORE POP POP PUSH1 0x20 SWAP1 DUP2 ADD DUP8 SWAP1 MSTORE DUP3 SLOAD PUSH1 0x1 DUP2 DUP2 ADD DUP6 SSTORE PUSH1 0x0 SWAP5 DUP6 MSTORE SWAP4 DUP3 SWAP1 KECCAK256 DUP4 MLOAD PUSH1 0x9 SWAP1 SWAP3 MUL ADD SWAP1 DUP2 SSTORE SWAP1 DUP3 ADD MLOAD SWAP3 DUP2 ADD DUP1 SLOAD PUSH1 0x1 PUSH1 0x1 PUSH1 0xA0 SHL SUB SWAP5 DUP6 AND PUSH1 0x1 PUSH1 0x1 PUSH1 0xA0 SHL SUB NOT SWAP2 DUP3 AND OR SWAP1 SWAP2 SSTORE PUSH1 0x40 DUP4 ADD MLOAD PUSH1 0x2 DUP4 ADD DUP1 SLOAD SWAP2 SWAP1 SWAP6 AND SWAP2 AND OR SWAP1 SWAP3 SSTORE PUSH1 0x60 DUP2 ADD MLOAD SWAP1 SWAP2 SWAP1 PUSH1 0x3 DUP3 ADD SWAP1 PUSH2 0x4BFD SWAP1 DUP3 PUSH2 0x5D1B JUMP JUMPDEST POP PUSH1 0x80 DUP3 ADD MLOAD PUSH1 0x4 DUP3 ADD SWAP1 PUSH2 0x4C12 SWAP1 DUP3 PUSH2 0x5D1B JUMP JUMPDEST POP PUSH1 0xA0 DUP3 ADD MLOAD PUSH1 0x5 DUP3 ADD SWAP1 PUSH2 0x4C27 SWAP1 DUP3 PUSH2 0x5D1B JUMP JUMPDEST POP PUSH1 0xC0 DUP3 ADD MLOAD PUSH1 0x6 DUP3 ADD SWAP1 PUSH2 0x4C3C SWAP1 DUP3 PUSH2 0x5D1B JUMP JUMPDEST POP PUSH1 0xE0 DUP3 ADD MLOAD PUSH1 0x7 DUP3 ADD SWAP1 PUSH2 0x4C51 SWAP1 DUP3 PUSH2 0x5D1B JUMP JUMPDEST POP PUSH2 0x100 SWAP2 DUP3 ADD MLOAD PUSH1 0x8 SWAP1 SWAP2 ADD SSTORE CALLER PUSH1 0x0 SWAP1 DUP2 MSTORE PUSH1 0x2 PUSH1 0x20 MSTORE PUSH1 0x40 SWAP1 DUP2 SWAP1 KECCAK256 DUP2 MLOAD SWAP3 DUP4 ADD SWAP1 SWAP2 MSTORE DUP1 SLOAD SWAP1 SWAP2 SWAP1 DUP2 SWAP1 PUSH2 0x4C8A SWAP1 PUSH1 0x1 PUSH2 0x5DDA JUMP JUMPDEST DUP2 MSTORE PUSH1 0x3 DUP6 ADD SLOAD PUSH1 0x1 PUSH1 0x1 PUSH1 0xA0 SHL SUB SWAP1 DUP2 AND PUSH1 0x20 DUP1 DUP5 ADD DUP3 SWAP1 MSTORE PUSH1 0x4 DUP9 ADD SLOAD SWAP1 SWAP3 AND PUSH1 0x40 DUP1 DUP6 ADD SWAP2 SWAP1 SWAP2 MSTORE PUSH1 0x0 SWAP2 DUP3 MSTORE PUSH1 0xE SWAP1 SWAP3 MSTORE KECCAK256 PUSH1 0x1 ADD DUP1 SLOAD PUSH1 0x60 SWAP1 SWAP3 ADD SWAP2 PUSH2 0x4CD4 SWAP1 PUSH2 0x5B6C JUMP JUMPDEST DUP1 PUSH1 0x1F ADD PUSH1 0x20 DUP1 SWAP2 DIV MUL PUSH1 0x20 ADD PUSH1 0x40 MLOAD SWAP1 DUP2 ADD PUSH1 0x40 MSTORE DUP1 SWAP3 SWAP2 SWAP1 DUP2 DUP2 MSTORE PUSH1 0x20 ADD DUP3 DUP1 SLOAD PUSH2 0x4D00 SWAP1 PUSH2 0x5B6C JUMP JUMPDEST DUP1 ISZERO PUSH2 0x4D4D JUMPI DUP1 PUSH1 0x1F LT PUSH2 0x4D22 JUMPI PUSH2 0x100 DUP1 DUP4 SLOAD DIV MUL DUP4 MSTORE SWAP2 PUSH1 0x20 ADD SWAP2 PUSH2 0x4D4D JUMP JUMPDEST DUP3 ADD SWAP2 SWAP1 PUSH1 0x0 MSTORE PUSH1 0x20 PUSH1 0x0 KECCAK256 SWAP1 JUMPDEST DUP2 SLOAD DUP2 MSTORE SWAP1 PUSH1 0x1 ADD SWAP1 PUSH1 0x20 ADD DUP1 DUP4 GT PUSH2 0x4D30 JUMPI DUP3 SWAP1 SUB PUSH1 0x1F AND DUP3 ADD SWAP2 JUMPDEST POP POP POP SWAP2 DUP4 MSTORE POP POP PUSH1 0x4 DUP6 ADD SLOAD PUSH1 0x1 PUSH1 0x1 PUSH1 0xA0 SHL SUB AND PUSH1 0x0 SWAP1 DUP2 MSTORE PUSH1 0xE PUSH1 0x20 SWAP1 DUP2 MSTORE PUSH1 0x40 SWAP1 SWAP2 KECCAK256 PUSH1 0x1 ADD DUP1 SLOAD SWAP2 SWAP1 SWAP3 ADD SWAP2 SWAP1 PUSH2 0x4D88 SWAP1 PUSH2 0x5B6C JUMP JUMPDEST DUP1 PUSH1 0x1F ADD PUSH1 0x20 DUP1 SWAP2 DIV MUL PUSH1 0x20 ADD PUSH1 0x40 MLOAD SWAP1 DUP2 ADD PUSH1 0x40 MSTORE DUP1 SWAP3 SWAP2 SWAP1 DUP2 DUP2 MSTORE PUSH1 0x20 ADD DUP3 DUP1 SLOAD PUSH2 0x4DB4 SWAP1 PUSH2 0x5B6C JUMP JUMPDEST DUP1 ISZERO PUSH2 0x4E01 JUMPI DUP1 PUSH1 0x1F LT PUSH2 0x4DD6 JUMPI PUSH2 0x100 DUP1 DUP4 SLOAD DIV MUL DUP4 MSTORE SWAP2 PUSH1 0x20 ADD SWAP2 PUSH2 0x4E01 JUMP JUMPDEST DUP3 ADD SWAP2 SWAP1 PUSH1 0x0 MSTORE PUSH1 0x20 PUSH1 0x0 KECCAK256 SWAP1 JUMPDEST DUP2 SLOAD DUP2 MSTORE SWAP1 PUSH1 0x1 ADD SWAP1 PUSH1 0x20 ADD DUP1 DUP4 GT PUSH2 0x4DE4 JUMPI DUP3 SWAP1 SUB PUSH1 0x1F AND DUP3 ADD SWAP2 JUMPDEST POP POP POP POP POP DUP2 MSTORE PUSH1 0x20 ADD DUP7 DUP2 MSTORE PUSH1 0x20 ADD DUP5 PUSH1 0x2 ADD DUP1 SLOAD PUSH2 0x4E20 SWAP1 PUSH2 0x5B6C JUMP JUMPDEST DUP1 PUSH1 0x1F ADD PUSH1 0x20 DUP1 SWAP2 DIV MUL PUSH1 0x20 ADD PUSH1 0x40 MLOAD SWAP1 DUP2 ADD PUSH1 0x40 MSTORE DUP1 SWAP3 SWAP2 SWAP1 DUP2 DUP2 MSTORE PUSH1 0x20 ADD DUP3 DUP1 SLOAD PUSH2 0x4E4C SWAP1 PUSH2 0x5B6C JUMP JUMPDEST DUP1 ISZERO PUSH2 0x4E99 JUMPI DUP1 PUSH1 0x1F LT PUSH2 0x4E6E JUMPI PUSH2 0x100 DUP1 DUP4 SLOAD DIV MUL DUP4 MSTORE SWAP2 PUSH1 0x20 ADD SWAP2 PUSH2 0x4E99 JUMP JUMPDEST DUP3 ADD SWAP2 SWAP1 PUSH1 0x0 MSTORE PUSH1 0x20 PUSH1 0x0 KECCAK256 SWAP1 JUMPDEST DUP2 SLOAD DUP2 MSTORE SWAP1 PUSH1 0x1 ADD SWAP1 PUSH1 0x20 ADD DUP1 DUP4 GT PUSH2 0x4E7C JUMPI DUP3 SWAP1 SUB PUSH1 0x1F AND DUP3 ADD SWAP2 JUMPDEST POP POP POP SWAP2 DUP4 MSTORE POP POP PUSH1 0x8 DUP1 DUP7 ADD SLOAD PUSH1 0x20 SWAP3 DUP4 ADD MSTORE DUP4 SLOAD PUSH1 0x1 DUP2 DUP2 ADD DUP7 SSTORE PUSH1 0x0 SWAP6 DUP7 MSTORE SWAP5 DUP4 SWAP1 KECCAK256 DUP5 MLOAD SWAP2 SWAP1 SWAP3 MUL SWAP1 SWAP2 ADD SWAP1 DUP2 SSTORE SWAP1 DUP3 ADD MLOAD SWAP3 DUP2 ADD DUP1 SLOAD PUSH1 0x1 PUSH1 0x1 PUSH1 0xA0 SHL SUB SWAP5 DUP6 AND PUSH1 0x1 PUSH1 0x1 PUSH1 0xA0 SHL SUB NOT SWAP2 DUP3 AND OR SWAP1 SWAP2 SSTORE PUSH1 0x40 DUP4 ADD MLOAD PUSH1 0x2 DUP4 ADD DUP1 SLOAD SWAP2 SWAP1 SWAP6 AND SWAP2 AND OR SWAP1 SWAP3 SSTORE PUSH1 0x60 DUP2 ADD MLOAD SWAP1 SWAP2 SWAP1 PUSH1 0x3 DUP3 ADD SWAP1 PUSH2 0x4F1B SWAP1 DUP3 PUSH2 0x5D1B JUMP JUMPDEST POP PUSH1 0x80 DUP3 ADD MLOAD PUSH1 0x4 DUP3 ADD SWAP1 PUSH2 0x4F30 SWAP1 DUP3 PUSH2 0x5D1B JUMP JUMPDEST POP PUSH1 0xA0 DUP3 ADD MLOAD PUSH1 0x5 DUP3 ADD SSTORE PUSH1 0xC0 DUP3 ADD MLOAD PUSH1 0x6 DUP3 ADD SWAP1 PUSH2 0x4F4F SWAP1 DUP3 PUSH2 0x5D1B JUMP JUMPDEST POP PUSH1 0xE0 DUP3 ADD MLOAD DUP2 PUSH1 0x7 ADD SSTORE POP POP POP POP POP POP POP JUMP JUMPDEST PUSH1 0x0 DUP1 PUSH1 0x0 PUSH1 0x60 DUP1 PUSH1 0x60 DUP1 PUSH1 0x60 PUSH1 0x0 DUP1 PUSH1 0x1 PUSH1 0x0 DUP14 PUSH1 0x1 PUSH1 0x1 PUSH1 0xA0 SHL SUB AND PUSH1 0x1 PUSH1 0x1 PUSH1 0xA0 SHL SUB AND DUP2 MSTORE PUSH1 0x20 ADD SWAP1 DUP2 MSTORE PUSH1 0x20 ADD PUSH1 0x0 KECCAK256 DUP12 DUP2 SLOAD DUP2 LT PUSH2 0x4FA9 JUMPI PUSH2 0x4FA9 PUSH2 0x5BA6 JUMP JUMPDEST PUSH1 0x0 SWAP2 DUP3 MSTORE PUSH1 0x20 SWAP2 DUP3 SWAP1 KECCAK256 PUSH1 0x40 DUP1 MLOAD PUSH2 0x120 DUP2 ADD DUP3 MSTORE PUSH1 0x9 SWAP1 SWAP4 MUL SWAP1 SWAP2 ADD DUP1 SLOAD DUP4 MSTORE PUSH1 0x1 DUP2 ADD SLOAD PUSH1 0x1 PUSH1 0x1 PUSH1 0xA0 SHL SUB SWAP1 DUP2 AND SWAP5 DUP5 ADD SWAP5 SWAP1 SWAP5 MSTORE PUSH1 0x2 DUP2 ADD SLOAD SWAP1 SWAP4 AND SWAP1 DUP3 ADD MSTORE PUSH1 0x3 DUP3 ADD DUP1 SLOAD SWAP2 SWAP3 SWAP2 PUSH1 0x60 DUP5 ADD SWAP2 SWAP1 PUSH2 0x5006 SWAP1 PUSH2 0x5B6C JUMP JUMPDEST DUP1 PUSH1 0x1F ADD PUSH1 0x20 DUP1 SWAP2 DIV MUL PUSH1 0x20 ADD PUSH1 0x40 MLOAD SWAP1 DUP2 ADD PUSH1 0x40 MSTORE DUP1 SWAP3 SWAP2 SWAP1 DUP2 DUP2 MSTORE PUSH1 0x20 ADD DUP3 DUP1 SLOAD PUSH2 0x5032 SWAP1 PUSH2 0x5B6C JUMP JUMPDEST DUP1 ISZERO PUSH2 0x507F JUMPI DUP1 PUSH1 0x1F LT PUSH2 0x5054 JUMPI PUSH2 0x100 DUP1 DUP4 SLOAD DIV MUL DUP4 MSTORE SWAP2 PUSH1 0x20 ADD SWAP2 PUSH2 0x507F JUMP JUMPDEST DUP3 ADD SWAP2 SWAP1 PUSH1 0x0 MSTORE PUSH1 0x20 PUSH1 0x0 KECCAK256 SWAP1 JUMPDEST DUP2 SLOAD DUP2 MSTORE SWAP1 PUSH1 0x1 ADD SWAP1 PUSH1 0x20 ADD DUP1 DUP4 GT PUSH2 0x5062 JUMPI DUP3 SWAP1 SUB PUSH1 0x1F AND DUP3 ADD SWAP2 JUMPDEST POP POP POP POP POP DUP2 MSTORE PUSH1 0x20 ADD PUSH1 0x4 DUP3 ADD DUP1 SLOAD PUSH2 0x5098 SWAP1 PUSH2 0x5B6C JUMP JUMPDEST DUP1 PUSH1 0x1F ADD PUSH1 0x20 DUP1 SWAP2 DIV MUL PUSH1 0x20 ADD PUSH1 0x40 MLOAD SWAP1 DUP2 ADD PUSH1 0x40 MSTORE DUP1 SWAP3 SWAP2 SWAP1 DUP2 DUP2 MSTORE PUSH1 0x20 ADD DUP3 DUP1 SLOAD PUSH2 0x50C4 SWAP1 PUSH2 0x5B6C JUMP JUMPDEST DUP1 ISZERO PUSH2 0x5111 JUMPI DUP1 PUSH1 0x1F LT PUSH2 0x50E6 JUMPI PUSH2 0x100 DUP1 DUP4 SLOAD DIV MUL DUP4 MSTORE SWAP2 PUSH1 0x20 ADD SWAP2 PUSH2 0x5111 JUMP JUMPDEST DUP3 ADD SWAP2 SWAP1 PUSH1 0x0 MSTORE PUSH1 0x20 PUSH1 0x0 KECCAK256 SWAP1 JUMPDEST DUP2 SLOAD DUP2 MSTORE SWAP1 PUSH1 0x1 ADD SWAP1 PUSH1 0x20 ADD DUP1 DUP4 GT PUSH2 0x50F4 JUMPI DUP3 SWAP1 SUB PUSH1 0x1F AND DUP3 ADD SWAP2 JUMPDEST POP POP POP POP POP DUP2 MSTORE PUSH1 0x20 ADD PUSH1 0x5 DUP3 ADD DUP1 SLOAD PUSH2 0x512A SWAP1 PUSH2 0x5B6C JUMP JUMPDEST DUP1 PUSH1 0x1F ADD PUSH1 0x20 DUP1 SWAP2 DIV MUL PUSH1 0x20 ADD PUSH1 0x40 MLOAD SWAP1 DUP2 ADD PUSH1 0x40 MSTORE DUP1 SWAP3 SWAP2 SWAP1 DUP2 DUP2 MSTORE PUSH1 0x20 ADD DUP3 DUP1 SLOAD PUSH2 0x5156 SWAP1 PUSH2 0x5B6C JUMP JUMPDEST DUP1 ISZERO PUSH2 0x51A3 JUMPI DUP1 PUSH1 0x1F LT PUSH2 0x5178 JUMPI PUSH2 0x100 DUP1 DUP4 SLOAD DIV MUL DUP4 MSTORE SWAP2 PUSH1 0x20 ADD SWAP2 PUSH2 0x51A3 JUMP JUMPDEST DUP3 ADD SWAP2 SWAP1 PUSH1 0x0 MSTORE PUSH1 0x20 PUSH1 0x0 KECCAK256 SWAP1 JUMPDEST DUP2 SLOAD DUP2 MSTORE SWAP1 PUSH1 0x1 ADD SWAP1 PUSH1 0x20 ADD DUP1 DUP4 GT PUSH2 0x5186 JUMPI DUP3 SWAP1 SUB PUSH1 0x1F AND DUP3 ADD SWAP2 JUMPDEST POP POP POP POP POP DUP2 MSTORE PUSH1 0x20 ADD PUSH1 0x6 DUP3 ADD DUP1 SLOAD PUSH2 0x51BC SWAP1 PUSH2 0x5B6C JUMP JUMPDEST DUP1 PUSH1 0x1F ADD PUSH1 0x20 DUP1 SWAP2 DIV MUL PUSH1 0x20 ADD PUSH1 0x40 MLOAD SWAP1 DUP2 ADD PUSH1 0x40 MSTORE DUP1 SWAP3 SWAP2 SWAP1 DUP2 DUP2 MSTORE PUSH1 0x20 ADD DUP3 DUP1 SLOAD PUSH2 0x51E8 SWAP1 PUSH2 0x5B6C JUMP JUMPDEST DUP1 ISZERO PUSH2 0x5235 JUMPI DUP1 PUSH1 0x1F LT PUSH2 0x520A JUMPI PUSH2 0x100 DUP1 DUP4 SLOAD DIV MUL DUP4 MSTORE SWAP2 PUSH1 0x20 ADD SWAP2 PUSH2 0x5235 JUMP JUMPDEST DUP3 ADD SWAP2 SWAP1 PUSH1 0x0 MSTORE PUSH1 0x20 PUSH1 0x0 KECCAK256 SWAP1 JUMPDEST DUP2 SLOAD DUP2 MSTORE SWAP1 PUSH1 0x1 ADD SWAP1 PUSH1 0x20 ADD DUP1 DUP4 GT PUSH2 0x5218 JUMPI DUP3 SWAP1 SUB PUSH1 0x1F AND DUP3 ADD SWAP2 JUMPDEST POP POP POP POP POP DUP2 MSTORE PUSH1 0x20 ADD PUSH1 0x7 DUP3 ADD DUP1 SLOAD PUSH2 0x524E SWAP1 PUSH2 0x5B6C JUMP JUMPDEST DUP1 PUSH1 0x1F ADD PUSH1 0x20 DUP1 SWAP2 DIV MUL PUSH1 0x20 ADD PUSH1 0x40 MLOAD SWAP1 DUP2 ADD PUSH1 0x40 MSTORE DUP1 SWAP3 SWAP2 SWAP1 DUP2 DUP2 MSTORE PUSH1 0x20 ADD DUP3 DUP1 SLOAD PUSH2 0x527A SWAP1 PUSH2 0x5B6C JUMP JUMPDEST DUP1 ISZERO PUSH2 0x52C7 JUMPI DUP1 PUSH1 0x1F LT PUSH2 0x529C JUMPI PUSH2 0x100 DUP1 DUP4 SLOAD DIV MUL DUP4 MSTORE SWAP2 PUSH1 0x20 ADD SWAP2 PUSH2 0x52C7 JUMP JUMPDEST DUP3 ADD SWAP2 SWAP1 PUSH1 0x0 MSTORE PUSH1 0x20 PUSH1 0x0 KECCAK256 SWAP1 JUMPDEST DUP2 SLOAD DUP2 MSTORE SWAP1 PUSH1 0x1 ADD SWAP1 PUSH1 0x20 ADD DUP1 DUP4 GT PUSH2 0x52AA JUMPI DUP3 SWAP1 SUB PUSH1 0x1F AND DUP3 ADD SWAP2 JUMPDEST POP POP POP POP POP DUP2 MSTORE PUSH1 0x20 ADD PUSH1 0x8 DUP3 ADD SLOAD DUP2 MSTORE POP POP SWAP1 POP DUP1 PUSH1 0x0 ADD MLOAD DUP2 PUSH1 0x20 ADD MLOAD DUP3 PUSH1 0x40 ADD MLOAD DUP4 PUSH1 0x60 ADD MLOAD DUP5 PUSH1 0x80 ADD MLOAD DUP6 PUSH1 0xA0 ADD MLOAD DUP7 PUSH1 0xC0 ADD MLOAD DUP8 PUSH1 0xE0 ADD MLOAD DUP9 PUSH2 0x100 ADD MLOAD SWAP10 POP SWAP10 POP SWAP10 POP SWAP10 POP SWAP10 POP SWAP10 POP SWAP10 POP SWAP10 POP SWAP10 POP POP SWAP3 SWAP6 SWAP9 POP SWAP3 SWAP6 SWAP9 POP SWAP3 SWAP6 SWAP9 JUMP JUMPDEST POP DUP1 SLOAD PUSH2 0x5336 SWAP1 PUSH2 0x5B6C JUMP JUMPDEST PUSH1 0x0 DUP3 SSTORE DUP1 PUSH1 0x1F LT PUSH2 0x5346 JUMPI POP POP JUMP JUMPDEST PUSH1 0x1F ADD PUSH1 0x20 SWAP1 DIV SWAP1 PUSH1 0x0 MSTORE PUSH1 0x20 PUSH1 0x0 KECCAK256 SWAP1 DUP2 ADD SWAP1 PUSH2 0x5364 SWAP2 SWAP1 PUSH2 0x5367 JUMP JUMPDEST POP JUMP JUMPDEST JUMPDEST DUP1 DUP3 GT ISZERO PUSH2 0x537C JUMPI PUSH1 0x0 DUP2 SSTORE PUSH1 0x1 ADD PUSH2 0x5368 JUMP JUMPDEST POP SWAP1 JUMP JUMPDEST PUSH1 0x0 PUSH1 0x20 DUP3 DUP5 SUB SLT ISZERO PUSH2 0x5392 JUMPI PUSH1 0x0 DUP1 REVERT JUMPDEST POP CALLDATALOAD SWAP2 SWAP1 POP JUMP JUMPDEST PUSH1 0x0 DUP2 MLOAD DUP1 DUP5 MSTORE PUSH1 0x0 JUMPDEST DUP2 DUP2 LT ISZERO PUSH2 0x53BF JUMPI PUSH1 0x20 DUP2 DUP6 ADD DUP2 ADD MLOAD DUP7 DUP4 ADD DUP3 ADD MSTORE ADD PUSH2 0x53A3 JUMP JUMPDEST POP PUSH1 0x0 PUSH1 0x20 DUP3 DUP7 ADD ADD MSTORE PUSH1 0x20 PUSH1 0x1F NOT PUSH1 0x1F DUP4 ADD AND DUP6 ADD ADD SWAP2 POP POP SWAP3 SWAP2 POP POP JUMP JUMPDEST PUSH2 0x120 DUP2 MSTORE PUSH1 0x0 PUSH2 0x53F4 PUSH2 0x120 DUP4 ADD DUP13 PUSH2 0x5399 JUMP JUMPDEST DUP3 DUP2 SUB PUSH1 0x20 DUP5 ADD MSTORE PUSH2 0x5406 DUP2 DUP13 PUSH2 0x5399 JUMP JUMPDEST PUSH1 0x1 PUSH1 0x1 PUSH1 0xA0 SHL SUB SWAP11 DUP12 AND PUSH1 0x40 DUP6 ADD MSTORE SWAP9 DUP11 AND PUSH1 0x60 DUP5 ADD MSTORE POP POP SWAP5 SWAP1 SWAP7 AND PUSH1 0x80 DUP6 ADD MSTORE PUSH1 0xA0 DUP5 ADD SWAP3 SWAP1 SWAP3 MSTORE PUSH1 0xC0 DUP4 ADD MSTORE PUSH1 0xE0 DUP3 ADD MSTORE PUSH2 0x100 ADD SWAP2 SWAP1 SWAP2 MSTORE SWAP3 SWAP2 POP POP JUMP JUMPDEST DUP1 CALLDATALOAD PUSH1 0x3 DUP2 LT PUSH2 0x5458 JUMPI PUSH1 0x0 DUP1 REVERT JUMPDEST SWAP2 SWAP1 POP JUMP JUMPDEST PUSH1 0x0 PUSH1 0x20 DUP3 DUP5 SUB SLT ISZERO PUSH2 0x546F JUMPI PUSH1 0x0 DUP1 REVERT JUMPDEST PUSH2 0x5478 DUP3 PUSH2 0x5449 JUMP JUMPDEST SWAP4 SWAP3 POP POP POP JUMP JUMPDEST PUSH1 0x20 DUP1 DUP3 MSTORE DUP3 MLOAD DUP3 DUP3 ADD DUP2 SWAP1 MSTORE PUSH1 0x0 SWAP2 DUP5 ADD SWAP1 PUSH1 0x40 DUP5 ADD SWAP1 DUP4 JUMPDEST DUP2 DUP2 LT ISZERO PUSH2 0x54C0 JUMPI DUP4 MLOAD PUSH1 0x1 PUSH1 0x1 PUSH1 0xA0 SHL SUB AND DUP4 MSTORE PUSH1 0x20 SWAP4 DUP5 ADD SWAP4 SWAP1 SWAP3 ADD SWAP2 PUSH1 0x1 ADD PUSH2 0x5499 JUMP JUMPDEST POP SWAP1 SWAP6 SWAP5 POP POP POP POP POP JUMP JUMPDEST PUSH4 0x4E487B71 PUSH1 0xE0 SHL PUSH1 0x0 MSTORE PUSH1 0x21 PUSH1 0x4 MSTORE PUSH1 0x24 PUSH1 0x0 REVERT JUMPDEST PUSH1 0x3 DUP2 LT PUSH2 0x54F1 JUMPI PUSH2 0x54F1 PUSH2 0x54CB JUMP JUMPDEST SWAP1 MSTORE JUMP JUMPDEST PUSH1 0x1 PUSH1 0x1 PUSH1 0xA0 SHL SUB DUP8 AND DUP2 MSTORE PUSH1 0xC0 PUSH1 0x20 DUP3 ADD DUP2 SWAP1 MSTORE PUSH1 0x0 SWAP1 PUSH2 0x5519 SWAP1 DUP4 ADD DUP9 PUSH2 0x5399 JUMP JUMPDEST DUP3 DUP2 SUB PUSH1 0x40 DUP5 ADD MSTORE PUSH2 0x552B DUP2 DUP9 PUSH2 0x5399 JUMP JUMPDEST SWAP2 POP POP PUSH2 0x553B PUSH1 0x60 DUP4 ADD DUP7 PUSH2 0x54E1 JUMP JUMPDEST SWAP3 ISZERO ISZERO PUSH1 0x80 DUP3 ADD MSTORE SWAP1 ISZERO ISZERO PUSH1 0xA0 SWAP1 SWAP2 ADD MSTORE SWAP5 SWAP4 POP POP POP POP JUMP JUMPDEST DUP1 CALLDATALOAD PUSH1 0x1 PUSH1 0x1 PUSH1 0xA0 SHL SUB DUP2 AND DUP2 EQ PUSH2 0x5458 JUMPI PUSH1 0x0 DUP1 REVERT JUMPDEST PUSH1 0x0 DUP1 PUSH1 0x40 DUP4 DUP6 SUB SLT ISZERO PUSH2 0x557E JUMPI PUSH1 0x0 DUP1 REVERT JUMPDEST PUSH2 0x5587 DUP4 PUSH2 0x5554 JUMP JUMPDEST SWAP5 PUSH1 0x20 SWAP4 SWAP1 SWAP4 ADD CALLDATALOAD SWAP4 POP POP POP JUMP JUMPDEST DUP9 DUP2 MSTORE PUSH1 0x1 PUSH1 0x1 PUSH1 0xA0 SHL SUB DUP9 AND PUSH1 0x20 DUP3 ADD MSTORE PUSH2 0x100 PUSH1 0x40 DUP3 ADD DUP2 SWAP1 MSTORE PUSH1 0x0 SWAP1 PUSH2 0x55C0 SWAP1 DUP4 ADD DUP10 PUSH2 0x5399 JUMP JUMPDEST DUP3 DUP2 SUB PUSH1 0x60 DUP5 ADD MSTORE PUSH2 0x55D2 DUP2 DUP10 PUSH2 0x5399 JUMP JUMPDEST PUSH1 0x1 PUSH1 0x1 PUSH1 0xA0 SHL SUB DUP9 AND PUSH1 0x80 DUP6 ADD MSTORE DUP4 DUP2 SUB PUSH1 0xA0 DUP6 ADD MSTORE SWAP1 POP PUSH2 0x55F5 DUP2 DUP8 PUSH2 0x5399 JUMP JUMPDEST PUSH1 0x1 PUSH1 0x1 PUSH1 0xA0 SHL SUB SWAP6 SWAP1 SWAP6 AND PUSH1 0xC0 DUP5 ADD MSTORE POP POP PUSH1 0xE0 ADD MSTORE SWAP7 SWAP6 POP POP POP POP POP POP JUMP JUMPDEST PUSH1 0x0 PUSH1 0x20 DUP3 DUP5 SUB SLT ISZERO PUSH2 0x5628 JUMPI PUSH1 0x0 DUP1 REVERT JUMPDEST PUSH2 0x5478 DUP3 PUSH2 0x5554 JUMP JUMPDEST PUSH1 0x20 DUP2 MSTORE PUSH1 0x0 PUSH2 0x5478 PUSH1 0x20 DUP4 ADD DUP5 PUSH2 0x5399 JUMP JUMPDEST PUSH4 0x4E487B71 PUSH1 0xE0 SHL PUSH1 0x0 MSTORE PUSH1 0x41 PUSH1 0x4 MSTORE PUSH1 0x24 PUSH1 0x0 REVERT JUMPDEST PUSH1 0x0 DUP3 PUSH1 0x1F DUP4 ADD SLT PUSH2 0x566B JUMPI PUSH1 0x0 DUP1 REVERT JUMPDEST DUP2 CALLDATALOAD PUSH8 0xFFFFFFFFFFFFFFFF DUP2 GT ISZERO PUSH2 0x5685 JUMPI PUSH2 0x5685 PUSH2 0x5644 JUMP JUMPDEST PUSH1 0x40 MLOAD PUSH1 0x1F DUP3 ADD PUSH1 0x1F NOT SWAP1 DUP2 AND PUSH1 0x3F ADD AND DUP2 ADD PUSH8 0xFFFFFFFFFFFFFFFF DUP2 GT DUP3 DUP3 LT OR ISZERO PUSH2 0x56B4 JUMPI PUSH2 0x56B4 PUSH2 0x5644 JUMP JUMPDEST PUSH1 0x40 MSTORE DUP2 DUP2 MSTORE DUP4 DUP3 ADD PUSH1 0x20 ADD DUP6 LT ISZERO PUSH2 0x56CC JUMPI PUSH1 0x0 DUP1 REVERT JUMPDEST DUP2 PUSH1 0x20 DUP6 ADD PUSH1 0x20 DUP4 ADD CALLDATACOPY PUSH1 0x0 SWAP2 DUP2 ADD PUSH1 0x20 ADD SWAP2 SWAP1 SWAP2 MSTORE SWAP4 SWAP3 POP POP POP JUMP JUMPDEST PUSH1 0x0 PUSH1 0x20 DUP3 DUP5 SUB SLT ISZERO PUSH2 0x56FB JUMPI PUSH1 0x0 DUP1 REVERT JUMPDEST DUP2 CALLDATALOAD PUSH8 0xFFFFFFFFFFFFFFFF DUP2 GT ISZERO PUSH2 0x5712 JUMPI PUSH1 0x0 DUP1 REVERT JUMPDEST PUSH2 0x571E DUP5 DUP3 DUP6 ADD PUSH2 0x565A JUMP JUMPDEST SWAP5 SWAP4 POP POP POP POP JUMP JUMPDEST PUSH1 0x4 DUP2 LT PUSH2 0x54F1 JUMPI PUSH2 0x54F1 PUSH2 0x54CB JUMP JUMPDEST DUP9 DUP2 MSTORE PUSH2 0x100 PUSH1 0x20 DUP3 ADD MSTORE PUSH1 0x0 PUSH2 0x5751 PUSH2 0x100 DUP4 ADD DUP11 PUSH2 0x5399 JUMP JUMPDEST DUP3 DUP2 SUB PUSH1 0x40 DUP5 ADD MSTORE PUSH2 0x5763 DUP2 DUP11 PUSH2 0x5399 JUMP JUMPDEST SWAP2 POP POP DUP7 PUSH1 0x60 DUP4 ADD MSTORE DUP6 PUSH1 0x80 DUP4 ADD MSTORE DUP5 PUSH1 0xA0 DUP4 ADD MSTORE PUSH1 0x1 DUP1 PUSH1 0xA0 SHL SUB DUP5 AND PUSH1 0xC0 DUP4 ADD MSTORE PUSH2 0x5793 PUSH1 0xE0 DUP4 ADD DUP5 PUSH2 0x5726 JUMP JUMPDEST SWAP10 SWAP9 POP POP POP POP POP POP POP POP POP JUMP JUMPDEST PUSH1 0x0 DUP1 PUSH1 0x0 PUSH1 0x60 DUP5 DUP7 SUB SLT ISZERO PUSH2 0x57B5 JUMPI PUSH1 0x0 DUP1 REVERT JUMPDEST DUP4 CALLDATALOAD PUSH8 0xFFFFFFFFFFFFFFFF DUP2 GT ISZERO PUSH2 0x57CC JUMPI PUSH1 0x0 DUP1 REVERT JUMPDEST PUSH2 0x57D8 DUP7 DUP3 DUP8 ADD PUSH2 0x565A JUMP JUMPDEST SWAP4 POP POP PUSH2 0x57E7 PUSH1 0x20 DUP6 ADD PUSH2 0x5449 JUMP JUMPDEST SWAP2 POP PUSH1 0x40 DUP5 ADD CALLDATALOAD PUSH8 0xFFFFFFFFFFFFFFFF DUP2 GT ISZERO PUSH2 0x5803 JUMPI PUSH1 0x0 DUP1 REVERT JUMPDEST PUSH2 0x580F DUP7 DUP3 DUP8 ADD PUSH2 0x565A JUMP JUMPDEST SWAP2 POP POP SWAP3 POP SWAP3 POP SWAP3 JUMP JUMPDEST DUP11 DUP2 MSTORE PUSH2 0x140 PUSH1 0x20 DUP3 ADD MSTORE PUSH1 0x0 PUSH2 0x5834 PUSH2 0x140 DUP4 ADD DUP13 PUSH2 0x5399 JUMP JUMPDEST DUP3 DUP2 SUB PUSH1 0x40 DUP5 ADD MSTORE PUSH2 0x5846 DUP2 DUP13 PUSH2 0x5399 JUMP JUMPDEST PUSH1 0x1 PUSH1 0x1 PUSH1 0xA0 SHL SUB DUP12 DUP2 AND PUSH1 0x60 DUP7 ADD MSTORE DUP11 DUP2 AND PUSH1 0x80 DUP7 ADD MSTORE DUP10 AND PUSH1 0xA0 DUP6 ADD MSTORE DUP4 DUP2 SUB PUSH1 0xC0 DUP6 ADD MSTORE SWAP1 POP PUSH2 0x5879 DUP2 DUP9 PUSH2 0x5399 JUMP JUMPDEST SWAP1 POP DUP3 DUP2 SUB PUSH1 0xE0 DUP5 ADD MSTORE PUSH2 0x588D DUP2 DUP8 PUSH2 0x5399 JUMP JUMPDEST SWAP2 POP POP DUP4 PUSH2 0x100 DUP4 ADD MSTORE PUSH2 0x58A5 PUSH2 0x120 DUP4 ADD DUP5 PUSH2 0x5726 JUMP JUMPDEST SWAP12 SWAP11 POP POP POP POP POP POP POP POP POP POP POP JUMP JUMPDEST PUSH1 0x0 DUP1 PUSH1 0x40 DUP4 DUP6 SUB SLT ISZERO PUSH2 0x58C7 JUMPI PUSH1 0x0 DUP1 REVERT JUMPDEST PUSH2 0x58D0 DUP4 PUSH2 0x5554 JUMP JUMPDEST SWAP2 POP PUSH2 0x58DE PUSH1 0x20 DUP5 ADD PUSH2 0x5449 JUMP JUMPDEST SWAP1 POP SWAP3 POP SWAP3 SWAP1 POP JUMP JUMPDEST DUP9 DUP2 MSTORE PUSH1 0x1 PUSH1 0x1 PUSH1 0xA0 SHL SUB DUP9 DUP2 AND PUSH1 0x20 DUP4 ADD MSTORE DUP8 AND PUSH1 0x40 DUP3 ADD MSTORE PUSH2 0x100 PUSH1 0x60 DUP3 ADD DUP2 SWAP1 MSTORE PUSH1 0x0 SWAP1 PUSH2 0x591A SWAP1 DUP4 ADD DUP9 PUSH2 0x5399 JUMP JUMPDEST DUP3 DUP2 SUB PUSH1 0x80 DUP5 ADD MSTORE PUSH2 0x592C DUP2 DUP9 PUSH2 0x5399 JUMP JUMPDEST SWAP1 POP DUP6 PUSH1 0xA0 DUP5 ADD MSTORE DUP3 DUP2 SUB PUSH1 0xC0 DUP5 ADD MSTORE PUSH2 0x5946 DUP2 DUP7 PUSH2 0x5399 JUMP JUMPDEST SWAP2 POP POP DUP3 PUSH1 0xE0 DUP4 ADD MSTORE SWAP10 SWAP9 POP POP POP POP POP POP POP POP POP JUMP JUMPDEST DUP10 DUP2 MSTORE PUSH1 0x1 PUSH1 0x1 PUSH1 0xA0 SHL SUB DUP10 DUP2 AND PUSH1 0x20 DUP4 ADD MSTORE DUP9 AND PUSH1 0x40 DUP3 ADD MSTORE PUSH2 0x120 PUSH1 0x60 DUP3 ADD DUP2 SWAP1 MSTORE PUSH1 0x0 SWAP1 PUSH2 0x598F SWAP1 DUP4 ADD DUP10 PUSH2 0x5399 JUMP JUMPDEST DUP3 DUP2 SUB PUSH1 0x80 DUP5 ADD MSTORE PUSH2 0x59A1 DUP2 DUP10 PUSH2 0x5399 JUMP JUMPDEST SWAP1 POP DUP3 DUP2 SUB PUSH1 0xA0 DUP5 ADD MSTORE PUSH2 0x59B5 DUP2 DUP9 PUSH2 0x5399 JUMP JUMPDEST SWAP1 POP DUP3 DUP2 SUB PUSH1 0xC0 DUP5 ADD MSTORE PUSH2 0x59C9 DUP2 DUP8 PUSH2 0x5399 JUMP JUMPDEST SWAP1 POP DUP3 DUP2 SUB PUSH1 0xE0 DUP5 ADD MSTORE PUSH2 0x59DD DUP2 DUP7 PUSH2 0x5399 JUMP JUMPDEST SWAP2 POP POP DUP3 PUSH2 0x100 DUP4 ADD MSTORE SWAP11 SWAP10 POP POP POP POP POP POP POP POP POP POP JUMP JUMPDEST PUSH1 0x0 DUP1 PUSH1 0x0 DUP1 PUSH1 0x0 PUSH1 0xA0 DUP7 DUP9 SUB SLT ISZERO PUSH2 0x5A0D JUMPI PUSH1 0x0 DUP1 REVERT JUMPDEST DUP6 CALLDATALOAD PUSH8 0xFFFFFFFFFFFFFFFF DUP2 GT ISZERO PUSH2 0x5A24 JUMPI PUSH1 0x0 DUP1 REVERT JUMPDEST PUSH2 0x5A30 DUP9 DUP3 DUP10 ADD PUSH2 0x565A JUMP JUMPDEST SWAP6 POP POP PUSH1 0x20 DUP7 ADD CALLDATALOAD PUSH8 0xFFFFFFFFFFFFFFFF DUP2 GT ISZERO PUSH2 0x5A4D JUMPI PUSH1 0x0 DUP1 REVERT JUMPDEST PUSH2 0x5A59 DUP9 DUP3 DUP10 ADD PUSH2 0x565A JUMP JUMPDEST SWAP6 SWAP9 SWAP6 SWAP8 POP POP POP POP PUSH1 0x40 DUP5 ADD CALLDATALOAD SWAP4 PUSH1 0x60 DUP2 ADD CALLDATALOAD SWAP4 PUSH1 0x80 SWAP1 SWAP2 ADD CALLDATALOAD SWAP3 POP SWAP1 POP JUMP JUMPDEST PUSH1 0x0 DUP1 PUSH1 0x0 DUP1 PUSH1 0x80 DUP6 DUP8 SUB SLT ISZERO PUSH2 0x5A8F JUMPI PUSH1 0x0 DUP1 REVERT JUMPDEST DUP5 CALLDATALOAD SWAP4 POP PUSH1 0x20 DUP6 ADD CALLDATALOAD SWAP3 POP PUSH2 0x5AA6 PUSH1 0x40 DUP7 ADD PUSH2 0x5554 JUMP JUMPDEST SWAP2 POP PUSH2 0x5AB4 PUSH1 0x60 DUP7 ADD PUSH2 0x5554 JUMP JUMPDEST SWAP1 POP SWAP3 SWAP6 SWAP2 SWAP5 POP SWAP3 POP JUMP JUMPDEST PUSH1 0x20 DUP2 ADD PUSH2 0x1E7B DUP3 DUP5 PUSH2 0x54E1 JUMP JUMPDEST PUSH1 0x1 PUSH1 0x1 PUSH1 0xA0 SHL SUB DUP7 AND DUP2 MSTORE PUSH1 0xA0 PUSH1 0x20 DUP3 ADD DUP2 SWAP1 MSTORE PUSH1 0x0 SWAP1 PUSH2 0x5AF1 SWAP1 DUP4 ADD DUP8 PUSH2 0x5399 JUMP JUMPDEST DUP3 DUP2 SUB PUSH1 0x40 DUP5 ADD MSTORE PUSH2 0x5B03 DUP2 DUP8 PUSH2 0x5399 JUMP JUMPDEST SWAP2 POP POP DUP4 PUSH1 0x60 DUP4 ADD MSTORE PUSH2 0x5B19 PUSH1 0x80 DUP4 ADD DUP5 PUSH2 0x54E1 JUMP JUMPDEST SWAP7 SWAP6 POP POP POP POP POP POP JUMP JUMPDEST PUSH1 0x0 DUP1 PUSH1 0x40 DUP4 DUP6 SUB SLT ISZERO PUSH2 0x5B36 JUMPI PUSH1 0x0 DUP1 REVERT JUMPDEST POP POP DUP1 CALLDATALOAD SWAP3 PUSH1 0x20 SWAP1 SWAP2 ADD CALLDATALOAD SWAP2 POP JUMP JUMPDEST PUSH1 0x20 DUP1 DUP3 MSTORE PUSH1 0xD SWAP1 DUP3 ADD MSTORE PUSH13 0x1058D8D95CDCC819195B9A5959 PUSH1 0x9A SHL PUSH1 0x40 DUP3 ADD MSTORE PUSH1 0x60 ADD SWAP1 JUMP JUMPDEST PUSH1 0x1 DUP2 DUP2 SHR SWAP1 DUP3 AND DUP1 PUSH2 0x5B80 JUMPI PUSH1 0x7F DUP3 AND SWAP2 POP JUMPDEST PUSH1 0x20 DUP3 LT DUP2 SUB PUSH2 0x5BA0 JUMPI PUSH4 0x4E487B71 PUSH1 0xE0 SHL PUSH1 0x0 MSTORE PUSH1 0x22 PUSH1 0x4 MSTORE PUSH1 0x24 PUSH1 0x0 REVERT JUMPDEST POP SWAP2 SWAP1 POP JUMP JUMPDEST PUSH4 0x4E487B71 PUSH1 0xE0 SHL PUSH1 0x0 MSTORE PUSH1 0x32 PUSH1 0x4 MSTORE PUSH1 0x24 PUSH1 0x0 REVERT JUMPDEST PUSH1 0x20 DUP1 DUP3 MSTORE PUSH1 0x12 SWAP1 DUP3 ADD MSTORE PUSH18 0x2737BA1031B7B73A3930B1BA1037BBB732B9 PUSH1 0x71 SHL PUSH1 0x40 DUP3 ADD MSTORE PUSH1 0x60 ADD SWAP1 JUMP JUMPDEST PUSH4 0x4E487B71 PUSH1 0xE0 SHL PUSH1 0x0 MSTORE PUSH1 0x11 PUSH1 0x4 MSTORE PUSH1 0x24 PUSH1 0x0 REVERT JUMPDEST DUP2 DUP2 SUB DUP2 DUP2 GT ISZERO PUSH2 0x1E7B JUMPI PUSH2 0x1E7B PUSH2 0x5BE8 JUMP JUMPDEST PUSH4 0x4E487B71 PUSH1 0xE0 SHL PUSH1 0x0 MSTORE PUSH1 0x31 PUSH1 0x4 MSTORE PUSH1 0x24 PUSH1 0x0 REVERT JUMPDEST PUSH1 0x0 DUP2 PUSH2 0x5C36 JUMPI PUSH2 0x5C36 PUSH2 0x5BE8 JUMP JUMPDEST POP PUSH1 0x0 NOT ADD SWAP1 JUMP JUMPDEST PUSH1 0x0 DUP1 DUP4 SLOAD PUSH2 0x5C4C DUP2 PUSH2 0x5B6C JUMP JUMPDEST PUSH1 0x1 DUP3 AND DUP1 ISZERO PUSH2 0x5C63 JUMPI PUSH1 0x1 DUP2 EQ PUSH2 0x5C78 JUMPI PUSH2 0x5CA8 JUMP JUMPDEST PUSH1 0xFF NOT DUP4 AND DUP7 MSTORE DUP2 ISZERO ISZERO DUP3 MUL DUP7 ADD SWAP4 POP PUSH2 0x5CA8 JUMP JUMPDEST DUP7 PUSH1 0x0 MSTORE PUSH1 0x20 PUSH1 0x0 KECCAK256 PUSH1 0x0 JUMPDEST DUP4 DUP2 LT ISZERO PUSH2 0x5CA0 JUMPI DUP2 SLOAD DUP9 DUP3 ADD MSTORE PUSH1 0x1 SWAP1 SWAP2 ADD SWAP1 PUSH1 0x20 ADD PUSH2 0x5C84 JUMP JUMPDEST POP POP DUP2 DUP7 ADD SWAP4 POP JUMPDEST POP SWAP2 SWAP6 SWAP5 POP POP POP POP POP JUMP JUMPDEST PUSH1 0x0 PUSH1 0x1 DUP3 ADD PUSH2 0x5CC5 JUMPI PUSH2 0x5CC5 PUSH2 0x5BE8 JUMP JUMPDEST POP PUSH1 0x1 ADD SWAP1 JUMP JUMPDEST PUSH1 0x1F DUP3 GT ISZERO PUSH2 0x5D16 JUMPI DUP1 PUSH1 0x0 MSTORE PUSH1 0x20 PUSH1 0x0 KECCAK256 PUSH1 0x1F DUP5 ADD PUSH1 0x5 SHR DUP2 ADD PUSH1 0x20 DUP6 LT ISZERO PUSH2 0x5CF3 JUMPI POP DUP1 JUMPDEST PUSH1 0x1F DUP5 ADD PUSH1 0x5 SHR DUP3 ADD SWAP2 POP JUMPDEST DUP2 DUP2 LT ISZERO PUSH2 0x5D13 JUMPI PUSH1 0x0 DUP2 SSTORE PUSH1 0x1 ADD PUSH2 0x5CFF JUMP JUMPDEST POP POP JUMPDEST POP POP POP JUMP JUMPDEST DUP2 MLOAD PUSH8 0xFFFFFFFFFFFFFFFF DUP2 GT ISZERO PUSH2 0x5D35 JUMPI PUSH2 0x5D35 PUSH2 0x5644 JUMP JUMPDEST PUSH2 0x5D49 DUP2 PUSH2 0x5D43 DUP5 SLOAD PUSH2 0x5B6C JUMP JUMPDEST DUP5 PUSH2 0x5CCC JUMP JUMPDEST PUSH1 0x20 PUSH1 0x1F DUP3 GT PUSH1 0x1 DUP2 EQ PUSH2 0x5D7D JUMPI PUSH1 0x0 DUP4 ISZERO PUSH2 0x5D65 JUMPI POP DUP5 DUP3 ADD MLOAD JUMPDEST PUSH1 0x0 NOT PUSH1 0x3 DUP6 SWAP1 SHL SHR NOT AND PUSH1 0x1 DUP5 SWAP1 SHL OR DUP5 SSTORE PUSH2 0x5D13 JUMP JUMPDEST PUSH1 0x0 DUP5 DUP2 MSTORE PUSH1 0x20 DUP2 KECCAK256 PUSH1 0x1F NOT DUP6 AND SWAP2 JUMPDEST DUP3 DUP2 LT ISZERO PUSH2 0x5DAD JUMPI DUP8 DUP6 ADD MLOAD DUP3 SSTORE PUSH1 0x20 SWAP5 DUP6 ADD SWAP5 PUSH1 0x1 SWAP1 SWAP3 ADD SWAP2 ADD PUSH2 0x5D8D JUMP JUMPDEST POP DUP5 DUP3 LT ISZERO PUSH2 0x5DCB JUMPI DUP7 DUP5 ADD MLOAD PUSH1 0x0 NOT PUSH1 0x3 DUP8 SWAP1 SHL PUSH1 0xF8 AND SHR NOT AND DUP2 SSTORE JUMPDEST POP POP POP POP PUSH1 0x1 SWAP1 DUP2 SHL ADD SWAP1 SSTORE POP JUMP JUMPDEST DUP1 DUP3 ADD DUP1 DUP3 GT ISZERO PUSH2 0x1E7B JUMPI PUSH2 0x1E7B PUSH2 0x5BE8 JUMP INVALID LOG2 PUSH5 0x6970667358 0x22 SLT KECCAK256 0xD MLOAD ADDRESS SWAP10 SWAP13 DUP8 NOT BLOBBASEFEE 0xDE JUMPDEST 0xD BALANCE ORIGIN 0xB8 PUSH20 0x5D699051EAD0445E4CE6B52BD075D4B12C64736F PUSH13 0x634300081C0033000000000000 "
        },
        "methodIdentifiers": {
          "all_users(uint256)": "67dac2a0",
          "approve_role(uint256)": "bd5d0808",
          "check_application_result(address)": "89d219f8",
          "confirmArrival(uint256,uint256)": "ec7bf72b",
          "cropCount()": "dfd55a2c",
          "crop_count()": "77e0e7ea",
          "crops(uint256)": "70c9f1a5",
          "deliveryCount()": "5b77b6a6",
          "farmer_history(address,uint256)": "92bd337c",
          "farmers(uint256)": "8afdd669",
          "get_all_users_count()": "5c832800",
          "get_crop_byIndex(uint256)": "6004d2e3",
          "get_delivery_byIndex(uint256)": "b08aeaec",
          "get_delivery_count()": "9f96835a",
          "get_farmer_history_byIndex(address,uint256)": "2a42d705",
          "get_history_count(address,uint8)": "8175df6f",
          "get_pending_request_byIndex(uint256)": "1d93f21e",
          "get_pending_request_count()": "598fa80c",
          "get_product_byCropId(string)": "387d3ecc",
          "get_product_byIndex(uint256)": "9bcb1739",
          "get_store_history_byIndex(address,uint256)": "8b74b6c6",
          "get_store_product_count()": "48445e4d",
          "get_transporter_history_byIndex(address,uint256)": "f82042fe",
          "get_user_byAddress(address)": "cf464f57",
          "get_user_byIndex(uint256)": "aa1c568e",
          "get_user_count()": "fd33482d",
          "get_user_name(address)": "2b9575aa",
          "list_user_address(uint8)": "129b9dc3",
          "owner()": "8da5cb5b",
          "pendingDeliveries(uint256)": "69346942",
          "pendingUsers(uint256)": "53bdb1b0",
          "pending_users_count()": "45ecc2a7",
          "product_inStore(uint256)": "06f06768",
          "product_inTransit(uint256)": "034da8ba",
          "registerCrop(string,string,uint256,uint256,uint256)": "92ab20f1",
          "reject_role(uint256)": "e36b4f64",
          "rejected_roles(uint256)": "4a9b4175",
          "request_for_role(string,uint8,string)": "6811a96e",
          "resign_user(address)": "36461c11",
          "roles(address)": "99374642",
          "send_to_transporter(uint256,uint256,address,address)": "95111f5c",
          "store_history(address,uint256)": "87e720e1",
          "store_managers(uint256)": "1ac0bce8",
          "store_product_count()": "2f3d819b",
          "transporter_history(address,uint256)": "8d165248",
          "transporters(uint256)": "29c2a877",
          "user_count()": "bb805f69",
          "users(address)": "a87430ba",
          "wallet_identity(address)": "911dacdc"
        }
      }
    }
  }
}