{
  "contracts/agric-tech.sol": {
    "FarmToStoreTraceability": {
      "abi": [
        {
          "inputs": [],
          "stateMutability": "nonpayable",
          "type": "constructor"
        },
        {
          "inputs": [
            {
              "internalType": "uint256",
              "name": "",
              "type": "uint256"
            }
          ],
          "name": "all_users",
          "outputs": [
            {
              "internalType": "address",
              "name": "",
              "type": "address"
            }
          ],
          "stateMutability": "view",
          "type": "function"
        },
        {
          "inputs": [
            {
              "internalType": "uint256",
              "name": "id",
              "type": "uint256"
            }
          ],
          "name": "approve_role",
          "outputs": [],
          "stateMutability": "nonpayable",
          "type": "function"
        },
        {
          "inputs": [
            {
              "internalType": "address",
              "name": "_address",
              "type": "address"
            }
          ],
          "name": "check_application_result",
          "outputs": [
            {
              "internalType": "bool",
              "name": "",
              "type": "bool"
            }
          ],
          "stateMutability": "view",
          "type": "function"
        },
        {
          "inputs": [
            {
              "internalType": "uint256",
              "name": "cropId",
              "type": "uint256"
            },
            {
              "internalType": "uint256",
              "name": "arrival_date",
              "type": "uint256"
            }
          ],
          "name": "confirmArrival",
          "outputs": [],
          "stateMutability": "nonpayable",
          "type": "function"
        },
        {
          "inputs": [],
          "name": "cropCount",
          "outputs": [
            {
              "internalType": "uint256",
              "name": "",
              "type": "uint256"
            }
          ],
          "stateMutability": "view",
          "type": "function"
        },
        {
          "inputs": [],
          "name": "crop_count",
          "outputs": [
            {
              "internalType": "uint256",
              "name": "",
              "type": "uint256"
            }
          ],
          "stateMutability": "view",
          "type": "function"
        },
        {
          "inputs": [
            {
              "internalType": "uint256",
              "name": "",
              "type": "uint256"
            }
          ],
          "name": "crops",
          "outputs": [
            {
              "internalType": "uint256",
              "name": "id",
              "type": "uint256"
            },
            {
              "internalType": "string",
              "name": "crop_id",
              "type": "string"
            },
            {
              "internalType": "string",
              "name": "name",
              "type": "string"
            },
            {
              "internalType": "uint256",
              "name": "quantity",
              "type": "uint256"
            },
            {
              "internalType": "uint256",
              "name": "price_per_unit",
              "type": "uint256"
            },
            {
              "internalType": "uint256",
              "name": "harvestDate",
              "type": "uint256"
            },
            {
              "internalType": "address",
              "name": "farmer",
              "type": "address"
            },
            {
              "internalType": "enum FarmToStoreTraceability.Crop_Status",
              "name": "status",
              "type": "uint8"
            }
          ],
          "stateMutability": "view",
          "type": "function"
        },
        {
          "inputs": [],
          "name": "deliveryCount",
          "outputs": [
            {
              "internalType": "uint256",
              "name": "",
              "type": "uint256"
            }
          ],
          "stateMutability": "view",
          "type": "function"
        },
        {
          "inputs": [
            {
              "internalType": "address",
              "name": "",
              "type": "address"
            },
            {
              "internalType": "uint256",
              "name": "",
              "type": "uint256"
            }
          ],
          "name": "farmer_history",
          "outputs": [
            {
              "internalType": "uint256",
              "name": "id",
              "type": "uint256"
            },
            {
              "internalType": "address",
              "name": "farmer",
              "type": "address"
            },
            {
              "internalType": "string",
              "name": "product_name",
              "type": "string"
            },
            {
              "internalType": "string",
              "name": "sent_to",
              "type": "string"
            },
            {
              "internalType": "address",
              "name": "store",
              "type": "address"
            },
            {
              "internalType": "string",
              "name": "through",
              "type": "string"
            },
            {
              "internalType": "address",
              "name": "transporter",
              "type": "address"
            },
            {
              "internalType": "uint256",
              "name": "date",
              "type": "uint256"
            }
          ],
          "stateMutability": "view",
          "type": "function"
        },
        {
          "inputs": [
            {
              "internalType": "uint256",
              "name": "",
              "type": "uint256"
            }
          ],
          "name": "farmers",
          "outputs": [
            {
              "internalType": "address",
              "name": "",
              "type": "address"
            }
          ],
          "stateMutability": "view",
          "type": "function"
        },
        {
          "inputs": [],
          "name": "get_all_users_count",
          "outputs": [
            {
              "internalType": "uint256",
              "name": "",
              "type": "uint256"
            }
          ],
          "stateMutability": "view",
          "type": "function"
        },
        {
          "inputs": [
            {
              "internalType": "uint256",
              "name": "cropId",
              "type": "uint256"
            }
          ],
          "name": "get_crop_byIndex",
          "outputs": [
            {
              "internalType": "uint256",
              "name": "id",
              "type": "uint256"
            },
            {
              "internalType": "string",
              "name": "crop_id",
              "type": "string"
            },
            {
              "internalType": "string",
              "name": "name",
              "type": "string"
            },
            {
              "internalType": "uint256",
              "name": "quantity",
              "type": "uint256"
            },
            {
              "internalType": "uint256",
              "name": "harvestDate",
              "type": "uint256"
            },
            {
              "internalType": "uint256",
              "name": "price_per_unit",
              "type": "uint256"
            },
            {
              "internalType": "address",
              "name": "farmer",
              "type": "address"
            },
            {
              "internalType": "enum FarmToStoreTraceability.Crop_Status",
              "name": "status",
              "type": "uint8"
            }
          ],
          "stateMutability": "view",
          "type": "function"
        },
        {
          "inputs": [
            {
              "internalType": "uint256",
              "name": "crop_id",
              "type": "uint256"
            }
          ],
          "name": "get_delivery_byIndex",
          "outputs": [
            {
              "internalType": "uint256",
              "name": "id",
              "type": "uint256"
            },
            {
              "internalType": "string",
              "name": "cropId",
              "type": "string"
            },
            {
              "internalType": "string",
              "name": "name",
              "type": "string"
            },
            {
              "internalType": "address",
              "name": "farmer",
              "type": "address"
            },
            {
              "internalType": "address",
              "name": "transporter",
              "type": "address"
            },
            {
              "internalType": "address",
              "name": "store",
              "type": "address"
            },
            {
              "internalType": "string",
              "name": "pick_up_location",
              "type": "string"
            },
            {
              "internalType": "string",
              "name": "destination",
              "type": "string"
            },
            {
              "internalType": "uint256",
              "name": "quantity",
              "type": "uint256"
            },
            {
              "internalType": "enum FarmToStoreTraceability.Crop_Status",
              "name": "status",
              "type": "uint8"
            }
          ],
          "stateMutability": "view",
          "type": "function"
        },
        {
          "inputs": [],
          "name": "get_delivery_count",
          "outputs": [
            {
              "internalType": "uint256",
              "name": "",
              "type": "uint256"
            }
          ],
          "stateMutability": "view",
          "type": "function"
        },
        {
          "inputs": [
            {
              "internalType": "address",
              "name": "_farmer",
              "type": "address"
            },
            {
              "internalType": "uint256",
              "name": "index",
              "type": "uint256"
            }
          ],
          "name": "get_farmer_history_byIndex",
          "outputs": [
            {
              "internalType": "uint256",
              "name": "id",
              "type": "uint256"
            },
            {
              "internalType": "address",
              "name": "farmer",
              "type": "address"
            },
            {
              "internalType": "string",
              "name": "product_name",
              "type": "string"
            },
            {
              "internalType": "string",
              "name": "sent_to",
              "type": "string"
            },
            {
              "internalType": "address",
              "name": "store",
              "type": "address"
            },
            {
              "internalType": "string",
              "name": "through",
              "type": "string"
            },
            {
              "internalType": "address",
              "name": "transporter",
              "type": "address"
            },
            {
              "internalType": "uint256",
              "name": "date",
              "type": "uint256"
            }
          ],
          "stateMutability": "view",
          "type": "function"
        },
        {
          "inputs": [
            {
              "internalType": "address",
              "name": "_farmer",
              "type": "address"
            }
          ],
          "name": "get_farmer_history_count",
          "outputs": [
            {
              "internalType": "uint256",
              "name": "",
              "type": "uint256"
            }
          ],
          "stateMutability": "view",
          "type": "function"
        },
        {
          "inputs": [
            {
              "internalType": "uint256",
              "name": "id",
              "type": "uint256"
            }
          ],
          "name": "get_pending_request_byIndex",
          "outputs": [
            {
              "internalType": "address",
              "name": "pending_address",
              "type": "address"
            },
            {
              "internalType": "string",
              "name": "name",
              "type": "string"
            },
            {
              "internalType": "string",
              "name": "location",
              "type": "string"
            },
            {
              "internalType": "enum FarmToStoreTraceability.Role",
              "name": "requestedRole",
              "type": "uint8"
            },
            {
              "internalType": "bool",
              "name": "isApproved",
              "type": "bool"
            },
            {
              "internalType": "bool",
              "name": "exists",
              "type": "bool"
            }
          ],
          "stateMutability": "view",
          "type": "function"
        },
        {
          "inputs": [],
          "name": "get_pending_request_count",
          "outputs": [
            {
              "internalType": "uint256",
              "name": "",
              "type": "uint256"
            }
          ],
          "stateMutability": "view",
          "type": "function"
        },
        {
          "inputs": [
            {
              "internalType": "string",
              "name": "_crop_id",
              "type": "string"
            }
          ],
          "name": "get_product_byCropId",
          "outputs": [
            {
              "internalType": "string",
              "name": "crop_id",
              "type": "string"
            },
            {
              "internalType": "string",
              "name": "name",
              "type": "string"
            },
            {
              "internalType": "address",
              "name": "owner_address",
              "type": "address"
            },
            {
              "internalType": "address",
              "name": "transporter_address",
              "type": "address"
            },
            {
              "internalType": "address",
              "name": "store_address",
              "type": "address"
            },
            {
              "internalType": "uint256",
              "name": "harvestDate",
              "type": "uint256"
            },
            {
              "internalType": "uint256",
              "name": "quantity",
              "type": "uint256"
            },
            {
              "internalType": "uint256",
              "name": "price_per_unit",
              "type": "uint256"
            },
            {
              "internalType": "uint256",
              "name": "arrival_date",
              "type": "uint256"
            }
          ],
          "stateMutability": "view",
          "type": "function"
        },
        {
          "inputs": [
            {
              "internalType": "uint256",
              "name": "product_id",
              "type": "uint256"
            }
          ],
          "name": "get_product_byIndex",
          "outputs": [
            {
              "internalType": "string",
              "name": "crop_id",
              "type": "string"
            },
            {
              "internalType": "string",
              "name": "name",
              "type": "string"
            },
            {
              "internalType": "address",
              "name": "owner_address",
              "type": "address"
            },
            {
              "internalType": "address",
              "name": "transporter_address",
              "type": "address"
            },
            {
              "internalType": "address",
              "name": "store_address",
              "type": "address"
            },
            {
              "internalType": "uint256",
              "name": "harvestDate",
              "type": "uint256"
            },
            {
              "internalType": "uint256",
              "name": "quantity",
              "type": "uint256"
            },
            {
              "internalType": "uint256",
              "name": "price_per_unit",
              "type": "uint256"
            },
            {
              "internalType": "uint256",
              "name": "arrival_date",
              "type": "uint256"
            }
          ],
          "stateMutability": "view",
          "type": "function"
        },
        {
          "inputs": [
            {
              "internalType": "address",
              "name": "_store",
              "type": "address"
            },
            {
              "internalType": "uint256",
              "name": "index",
              "type": "uint256"
            }
          ],
          "name": "get_store_history_byIndex",
          "outputs": [
            {
              "internalType": "uint256",
              "name": "id",
              "type": "uint256"
            },
            {
              "internalType": "address",
              "name": "farmer",
              "type": "address"
            },
            {
              "internalType": "address",
              "name": "transporter",
              "type": "address"
            },
            {
              "internalType": "string",
              "name": "farmer_name",
              "type": "string"
            },
            {
              "internalType": "string",
              "name": "transporter_name",
              "type": "string"
            },
            {
              "internalType": "uint256",
              "name": "date",
              "type": "uint256"
            },
            {
              "internalType": "string",
              "name": "product_name",
              "type": "string"
            },
            {
              "internalType": "uint256",
              "name": "quantity",
              "type": "uint256"
            }
          ],
          "stateMutability": "view",
          "type": "function"
        },
        {
          "inputs": [
            {
              "internalType": "address",
              "name": "_store",
              "type": "address"
            }
          ],
          "name": "get_store_history_count",
          "outputs": [
            {
              "internalType": "uint256",
              "name": "",
              "type": "uint256"
            }
          ],
          "stateMutability": "view",
          "type": "function"
        },
        {
          "inputs": [],
          "name": "get_store_product_count",
          "outputs": [
            {
              "internalType": "uint256",
              "name": "",
              "type": "uint256"
            }
          ],
          "stateMutability": "view",
          "type": "function"
        },
        {
          "inputs": [
            {
              "internalType": "address",
              "name": "_transporter",
              "type": "address"
            },
            {
              "internalType": "uint256",
              "name": "index",
              "type": "uint256"
            }
          ],
          "name": "get_transporter_history_byIndex",
          "outputs": [
            {
              "internalType": "uint256",
              "name": "id",
              "type": "uint256"
            },
            {
              "internalType": "address",
              "name": "farmer",
              "type": "address"
            },
            {
              "internalType": "address",
              "name": "store",
              "type": "address"
            },
            {
              "internalType": "string",
              "name": "farmer_name",
              "type": "string"
            },
            {
              "internalType": "string",
              "name": "store_name",
              "type": "string"
            },
            {
              "internalType": "string",
              "name": "crop_name",
              "type": "string"
            },
            {
              "internalType": "string",
              "name": "from",
              "type": "string"
            },
            {
              "internalType": "string",
              "name": "to",
              "type": "string"
            },
            {
              "internalType": "uint256",
              "name": "date",
              "type": "uint256"
            }
          ],
          "stateMutability": "view",
          "type": "function"
        },
        {
          "inputs": [
            {
              "internalType": "address",
              "name": "_transporter",
              "type": "address"
            }
          ],
          "name": "get_transporter_history_count",
          "outputs": [
            {
              "internalType": "uint256",
              "name": "",
              "type": "uint256"
            }
          ],
          "stateMutability": "view",
          "type": "function"
        },
        {
          "inputs": [
            {
              "internalType": "address",
              "name": "_address",
              "type": "address"
            }
          ],
          "name": "get_user_byAddress",
          "outputs": [
            {
              "internalType": "address",
              "name": "user_address",
              "type": "address"
            },
            {
              "internalType": "string",
              "name": "name",
              "type": "string"
            },
            {
              "internalType": "string",
              "name": "location",
              "type": "string"
            },
            {
              "internalType": "uint256",
              "name": "successful_delivery",
              "type": "uint256"
            },
            {
              "internalType": "enum FarmToStoreTraceability.Role",
              "name": "role",
              "type": "uint8"
            }
          ],
          "stateMutability": "view",
          "type": "function"
        },
        {
          "inputs": [
            {
              "internalType": "uint256",
              "name": "index",
              "type": "uint256"
            }
          ],
          "name": "get_user_byIndex",
          "outputs": [
            {
              "internalType": "address",
              "name": "user_address",
              "type": "address"
            },
            {
              "internalType": "string",
              "name": "name",
              "type": "string"
            },
            {
              "internalType": "string",
              "name": "location",
              "type": "string"
            },
            {
              "internalType": "uint256",
              "name": "successful_delivery",
              "type": "uint256"
            },
            {
              "internalType": "enum FarmToStoreTraceability.Role",
              "name": "role",
              "type": "uint8"
            }
          ],
          "stateMutability": "view",
          "type": "function"
        },
        {
          "inputs": [],
          "name": "get_user_count",
          "outputs": [
            {
              "internalType": "uint256",
              "name": "",
              "type": "uint256"
            }
          ],
          "stateMutability": "view",
          "type": "function"
        },
        {
          "inputs": [
            {
              "internalType": "address",
              "name": "_address",
              "type": "address"
            }
          ],
          "name": "get_user_details",
          "outputs": [
            {
              "internalType": "address",
              "name": "user_address",
              "type": "address"
            },
            {
              "internalType": "string",
              "name": "name",
              "type": "string"
            },
            {
              "internalType": "string",
              "name": "location",
              "type": "string"
            },
            {
              "internalType": "enum FarmToStoreTraceability.Role",
              "name": "role",
              "type": "uint8"
            }
          ],
          "stateMutability": "view",
          "type": "function"
        },
        {
          "inputs": [
            {
              "internalType": "address",
              "name": "_address",
              "type": "address"
            }
          ],
          "name": "get_user_name",
          "outputs": [
            {
              "internalType": "string",
              "name": "",
              "type": "string"
            }
          ],
          "stateMutability": "view",
          "type": "function"
        },
        {
          "inputs": [
            {
              "internalType": "enum FarmToStoreTraceability.Role",
              "name": "role",
              "type": "uint8"
            }
          ],
          "name": "list_user_address",
          "outputs": [
            {
              "internalType": "address[]",
              "name": "",
              "type": "address[]"
            }
          ],
          "stateMutability": "view",
          "type": "function"
        },
        {
          "inputs": [],
          "name": "owner",
          "outputs": [
            {
              "internalType": "address",
              "name": "",
              "type": "address"
            }
          ],
          "stateMutability": "view",
          "type": "function"
        },
        {
          "inputs": [
            {
              "internalType": "uint256",
              "name": "",
              "type": "uint256"
            }
          ],
          "name": "pendingDeliveries",
          "outputs": [
            {
              "internalType": "uint256",
              "name": "id",
              "type": "uint256"
            },
            {
              "internalType": "string",
              "name": "cropId",
              "type": "string"
            },
            {
              "internalType": "string",
              "name": "name",
              "type": "string"
            },
            {
              "internalType": "address",
              "name": "farmer",
              "type": "address"
            },
            {
              "internalType": "address",
              "name": "transporter",
              "type": "address"
            },
            {
              "internalType": "address",
              "name": "store",
              "type": "address"
            },
            {
              "internalType": "string",
              "name": "pick_up_location",
              "type": "string"
            },
            {
              "internalType": "string",
              "name": "destination",
              "type": "string"
            },
            {
              "internalType": "uint256",
              "name": "quantity",
              "type": "uint256"
            },
            {
              "internalType": "enum FarmToStoreTraceability.Crop_Status",
              "name": "status",
              "type": "uint8"
            }
          ],
          "stateMutability": "view",
          "type": "function"
        },
        {
          "inputs": [
            {
              "internalType": "uint256",
              "name": "",
              "type": "uint256"
            }
          ],
          "name": "pendingUsers",
          "outputs": [
            {
              "internalType": "address",
              "name": "pending_address",
              "type": "address"
            },
            {
              "internalType": "string",
              "name": "name",
              "type": "string"
            },
            {
              "internalType": "string",
              "name": "location",
              "type": "string"
            },
            {
              "internalType": "enum FarmToStoreTraceability.Role",
              "name": "requestedRole",
              "type": "uint8"
            },
            {
              "internalType": "bool",
              "name": "isApproved",
              "type": "bool"
            },
            {
              "internalType": "bool",
              "name": "exists",
              "type": "bool"
            }
          ],
          "stateMutability": "view",
          "type": "function"
        },
        {
          "inputs": [],
          "name": "pending_users_count",
          "outputs": [
            {
              "internalType": "uint256",
              "name": "",
              "type": "uint256"
            }
          ],
          "stateMutability": "view",
          "type": "function"
        },
        {
          "inputs": [
            {
              "internalType": "uint256",
              "name": "",
              "type": "uint256"
            }
          ],
          "name": "product_inStore",
          "outputs": [
            {
              "internalType": "string",
              "name": "crop_id",
              "type": "string"
            },
            {
              "internalType": "string",
              "name": "name",
              "type": "string"
            },
            {
              "internalType": "address",
              "name": "owner_address",
              "type": "address"
            },
            {
              "internalType": "address",
              "name": "transporter_address",
              "type": "address"
            },
            {
              "internalType": "address",
              "name": "store_address",
              "type": "address"
            },
            {
              "internalType": "uint256",
              "name": "harvestDate",
              "type": "uint256"
            },
            {
              "internalType": "uint256",
              "name": "quantity",
              "type": "uint256"
            },
            {
              "internalType": "uint256",
              "name": "price_per_unit",
              "type": "uint256"
            },
            {
              "internalType": "uint256",
              "name": "arrival_date",
              "type": "uint256"
            }
          ],
          "stateMutability": "view",
          "type": "function"
        },
        {
          "inputs": [
            {
              "internalType": "uint256",
              "name": "id",
              "type": "uint256"
            }
          ],
          "name": "product_inTransit",
          "outputs": [],
          "stateMutability": "nonpayable",
          "type": "function"
        },
        {
          "inputs": [
            {
              "internalType": "string",
              "name": "name",
              "type": "string"
            },
            {
              "internalType": "string",
              "name": "product_id",
              "type": "string"
            },
            {
              "internalType": "uint256",
              "name": "quantity",
              "type": "uint256"
            },
            {
              "internalType": "uint256",
              "name": "_price",
              "type": "uint256"
            },
            {
              "internalType": "uint256",
              "name": "harvestDate",
              "type": "uint256"
            }
          ],
          "name": "registerCrop",
          "outputs": [],
          "stateMutability": "nonpayable",
          "type": "function"
        },
        {
          "inputs": [
            {
              "internalType": "uint256",
              "name": "id",
              "type": "uint256"
            }
          ],
          "name": "reject_role",
          "outputs": [],
          "stateMutability": "nonpayable",
          "type": "function"
        },
        {
          "inputs": [
            {
              "internalType": "uint256",
              "name": "",
              "type": "uint256"
            }
          ],
          "name": "rejected_roles",
          "outputs": [
            {
              "internalType": "address",
              "name": "",
              "type": "address"
            }
          ],
          "stateMutability": "view",
          "type": "function"
        },
        {
          "inputs": [
            {
              "internalType": "string",
              "name": "name",
              "type": "string"
            },
            {
              "internalType": "enum FarmToStoreTraceability.Role",
              "name": "role",
              "type": "uint8"
            },
            {
              "internalType": "string",
              "name": "_location",
              "type": "string"
            }
          ],
          "name": "request_for_role",
          "outputs": [],
          "stateMutability": "nonpayable",
          "type": "function"
        },
        {
          "inputs": [
            {
              "internalType": "address",
              "name": "_address",
              "type": "address"
            }
          ],
          "name": "resign_user",
          "outputs": [],
          "stateMutability": "nonpayable",
          "type": "function"
        },
        {
          "inputs": [
            {
              "internalType": "address",
              "name": "",
              "type": "address"
            }
          ],
          "name": "roles",
          "outputs": [
            {
              "internalType": "enum FarmToStoreTraceability.Role",
              "name": "",
              "type": "uint8"
            }
          ],
          "stateMutability": "view",
          "type": "function"
        },
        {
          "inputs": [
            {
              "internalType": "uint256",
              "name": "id",
              "type": "uint256"
            },
            {
              "internalType": "uint256",
              "name": "_quantity",
              "type": "uint256"
            },
            {
              "internalType": "address",
              "name": "_store",
              "type": "address"
            },
            {
              "internalType": "address",
              "name": "transporter",
              "type": "address"
            },
            {
              "internalType": "string",
              "name": "_pick_up_location",
              "type": "string"
            },
            {
              "internalType": "string",
              "name": "_destination",
              "type": "string"
            }
          ],
          "name": "send_to_transporter",
          "outputs": [],
          "stateMutability": "nonpayable",
          "type": "function"
        },
        {
          "inputs": [
            {
              "internalType": "address",
              "name": "",
              "type": "address"
            },
            {
              "internalType": "uint256",
              "name": "",
              "type": "uint256"
            }
          ],
          "name": "store_history",
          "outputs": [
            {
              "internalType": "uint256",
              "name": "id",
              "type": "uint256"
            },
            {
              "internalType": "address",
              "name": "farmer",
              "type": "address"
            },
            {
              "internalType": "address",
              "name": "transporter",
              "type": "address"
            },
            {
              "internalType": "string",
              "name": "farmer_name",
              "type": "string"
            },
            {
              "internalType": "string",
              "name": "transporter_name",
              "type": "string"
            },
            {
              "internalType": "uint256",
              "name": "date",
              "type": "uint256"
            },
            {
              "internalType": "string",
              "name": "product_name",
              "type": "string"
            },
            {
              "internalType": "uint256",
              "name": "quantity",
              "type": "uint256"
            }
          ],
          "stateMutability": "view",
          "type": "function"
        },
        {
          "inputs": [
            {
              "internalType": "uint256",
              "name": "",
              "type": "uint256"
            }
          ],
          "name": "store_managers",
          "outputs": [
            {
              "internalType": "address",
              "name": "",
              "type": "address"
            }
          ],
          "stateMutability": "view",
          "type": "function"
        },
        {
          "inputs": [],
          "name": "store_product_count",
          "outputs": [
            {
              "internalType": "uint256",
              "name": "",
              "type": "uint256"
            }
          ],
          "stateMutability": "view",
          "type": "function"
        },
        {
          "inputs": [
            {
              "internalType": "address",
              "name": "",
              "type": "address"
            },
            {
              "internalType": "uint256",
              "name": "",
              "type": "uint256"
            }
          ],
          "name": "transporter_history",
          "outputs": [
            {
              "internalType": "uint256",
              "name": "id",
              "type": "uint256"
            },
            {
              "internalType": "address",
              "name": "farmer",
              "type": "address"
            },
            {
              "internalType": "address",
              "name": "store",
              "type": "address"
            },
            {
              "internalType": "string",
              "name": "farmer_name",
              "type": "string"
            },
            {
              "internalType": "string",
              "name": "store_name",
              "type": "string"
            },
            {
              "internalType": "string",
              "name": "crop_name",
              "type": "string"
            },
            {
              "internalType": "string",
              "name": "from",
              "type": "string"
            },
            {
              "internalType": "string",
              "name": "to",
              "type": "string"
            },
            {
              "internalType": "uint256",
              "name": "date",
              "type": "uint256"
            }
          ],
          "stateMutability": "view",
          "type": "function"
        },
        {
          "inputs": [
            {
              "internalType": "uint256",
              "name": "",
              "type": "uint256"
            }
          ],
          "name": "transporters",
          "outputs": [
            {
              "internalType": "address",
              "name": "",
              "type": "address"
            }
          ],
          "stateMutability": "view",
          "type": "function"
        },
        {
          "inputs": [],
          "name": "user_count",
          "outputs": [
            {
              "internalType": "uint256",
              "name": "",
              "type": "uint256"
            }
          ],
          "stateMutability": "view",
          "type": "function"
        },
        {
          "inputs": [
            {
              "internalType": "address",
              "name": "",
              "type": "address"
            }
          ],
          "name": "users",
          "outputs": [
            {
              "internalType": "address",
              "name": "user_address",
              "type": "address"
            },
            {
              "internalType": "string",
              "name": "name",
              "type": "string"
            },
            {
              "internalType": "string",
              "name": "location",
              "type": "string"
            },
            {
              "internalType": "uint256",
              "name": "successful_delivery",
              "type": "uint256"
            },
            {
              "internalType": "enum FarmToStoreTraceability.Role",
              "name": "role",
              "type": "uint8"
            }
          ],
          "stateMutability": "view",
          "type": "function"
        },
        {
          "inputs": [
            {
              "internalType": "address",
              "name": "connected_address",
              "type": "address"
            }
          ],
          "name": "wallet_identity",
          "outputs": [
            {
              "internalType": "string",
              "name": "",
              "type": "string"
            }
          ],
          "stateMutability": "view",
          "type": "function"
        }
      ],
      "evm": {
        "bytecode": {
          "linkReferences": {},
          "object": "6080604052348015600f57600080fd5b50600d80546001600160a01b03191633179055615f43806100316000396000f3fe608060405234801561001057600080fd5b506004361061030c5760003560e01c806387e720e11161019d578063a87430ba116100e9578063cf464f57116100a2578063e36b4f641161007c578063e36b4f64146107a1578063ec7bf72b146107b4578063f82042fe146107c7578063fd33482d146107da57600080fd5b8063cf464f5714610762578063d2965f0414610775578063dfd55a2c1461079857600080fd5b8063a87430ba146106d3578063aa1c568e146106f7578063b08aeaec1461070a578063bb805f691461071d578063bd5d080814610726578063beeba5d61461073957600080fd5b8063911dacdc116101565780639937464211610130578063993746421461065f5780639bcb17391461068f5780639c1f9004146106a25780639f96835a146106cb57600080fd5b8063911dacdc1461062657806392ab20f11461063957806392bd337c1461064c57600080fd5b806387e720e11461057b57806389d219f8146105a25780638afdd669146105c55780638b74b6c6146105d85780638d165248146105eb5780638da5cb5b1461061357600080fd5b80634847bd561161025c5780635c832800116102155780636811a96e116101ef5780636811a96e14610524578063693469421461053757806370c9f1a51461056057806377e0e7ea1461057357600080fd5b80635c832800146104e25780636004d2e3146104ea57806367dac2a01461051157600080fd5b80634847bd561461046f5780634a9b41751461048257806353bdb1b01461049557806356e80b98146104a8578063598fa80c146104d15780635b77b6a6146104d957600080fd5b80632a42d705116102c957806336461c11116102a357806336461c1114610438578063387d3ecc1461044b57806345ecc2a71461045e57806348445e4d1461046757600080fd5b80632a42d705146103da5780632b9575aa146104015780632f3d819b1461042157600080fd5b8063034da8ba1461031157806306f0676814610326578063129b9dc3146103575780631ac0bce8146103775780631d93f21e146103a257806329c2a877146103c7575b600080fd5b61032461031f36600461540f565b6107e2565b005b61033961033436600461540f565b61086d565b60405161034e9998979695949392919061546e565b60405180910390f35b61036a6103653660046154ec565b6109d4565b60405161034e919061550e565b61038a61038536600461540f565b610b4b565b6040516001600160a01b03909116815260200161034e565b6103b56103b036600461540f565b610b75565b60405161034e9695949392919061558e565b61038a6103d536600461540f565b610dba565b6103ed6103e8366004615606565b610dca565b60405161034e989796959493929190615630565b61041461040f3660046156b1565b6110e8565b60405161034e91906156cc565b61042a600a5481565b60405190815260200161034e565b6103246104463660046156b1565b61118d565b610339610459366004615784565b611344565b61042a600b5481565b600a5461042a565b61032461047d3660046157c1565b611629565b61038a61049036600461540f565b611947565b6103b56104a336600461540f565b611957565b61042a6104b63660046156b1565b6001600160a01b031660009081526002602052604090205490565b600b5461042a565b61042a60095481565b600f5461042a565b6104fd6104f836600461540f565b611ab0565b60405161034e98979695949392919061585d565b61038a61051f36600461540f565b611cb8565b6103246105323660046158c9565b611cc8565b61054a61054536600461540f565b611de2565b60405161034e9a99989796959493929190615942565b6104fd61056e36600461540f565b612067565b60085461042a565b61058e610589366004615606565b6121c8565b60405161034e9897969594939291906159df565b6105b56105b03660046156b1565b6123ce565b604051901515815260200161034e565b61038a6105d336600461540f565b612428565b61058e6105e6366004615606565b612438565b6105fe6105f9366004615606565b6126dc565b60405161034e99989796959493929190615a54565b600d5461038a906001600160a01b031681565b6104146106343660046156b1565b6129f8565b610324610647366004615aed565b612ba2565b6103ed61065a366004615606565b612d0c565b61068261066d3660046156b1565b60066020526000908152604090205460ff1681565b60405161034e9190615b71565b61033961069d36600461540f565b612f29565b61042a6106b03660046156b1565b6001600160a01b031660009081526001602052604090205490565b60095461042a565b6106e66106e13660046156b1565b613180565b60405161034e959493929190615b84565b6106e661070536600461540f565b6132cd565b61054a61071836600461540f565b6134fa565b61042a600c5481565b61032461073436600461540f565b613842565b61042a6107473660046156b1565b6001600160a01b031660009081526020819052604090205490565b6106e66107703660046156b1565b613d42565b6107886107833660046156b1565b613f0a565b60405161034e9493929190615bdc565b61042a60085481565b6103246107af36600461540f565b6140c9565b6103246107c2366004615c2d565b6141b5565b6105fe6107d5366004615606565b614ff2565b600c5461042a565b6001803360009081526006602052604090205460ff1660028111156108095761080961555a565b1461082f5760405162461bcd60e51b815260040161082690615c4f565b60405180910390fd5b5060009081526003602090815260408083206004909252909120600601805460ff60a01b1916600160a01b179055600901805460ff19166001179055565b60076020526000908152604090208054819061088890615c86565b80601f01602080910402602001604051908101604052809291908181526020018280546108b490615c86565b80156109015780601f106108d657610100808354040283529160200191610901565b820191906000526020600020905b8154815290600101906020018083116108e457829003601f168201915b50505050509080600101805461091690615c86565b80601f016020809104026020016040519081016040528092919081815260200182805461094290615c86565b801561098f5780601f106109645761010080835404028352916020019161098f565b820191906000526020600020905b81548152906001019060200180831161097257829003601f168201915b50505060028401546003850154600486015460058701546006880154600789015460089099015497986001600160a01b03958616989486169750929094169450929189565b606060008260028111156109ea576109ea61555a565b03610a51576011805480602002602001604051908101604052809291908181526020018280548015610a4557602002820191906000526020600020905b81546001600160a01b03168152600190910190602001808311610a27575b50505050509050919050565b6001826002811115610a6557610a6561555a565b03610aca576012805480602002602001604051908101604052809291908181526020018280548015610a45576020028201919060005260206000209081546001600160a01b03168152600190910190602001808311610a275750505050509050919050565b6002826002811115610ade57610ade61555a565b03610b43576013805480602002602001604051908101604052809291908181526020018280548015610a45576020028201919060005260206000209081546001600160a01b03168152600190910190602001808311610a275750505050509050919050565b506060919050565b60138181548110610b5b57600080fd5b6000918252602090912001546001600160a01b0316905081565b600060608060008060008087118015610b905750600b548711155b610bdc5760405162461bcd60e51b815260206004820152601a60248201527f496e76616c69642070656e64696e6720726571756573742049440000000000006044820152606401610826565b6000878152600560209081526040808320815160c0810190925280546001600160a01b031682526001810180549293919291840191610c1a90615c86565b80601f0160208091040260200160405190810160405280929190818152602001828054610c4690615c86565b8015610c935780601f10610c6857610100808354040283529160200191610c93565b820191906000526020600020905b815481529060010190602001808311610c7657829003601f168201915b50505050508152602001600282018054610cac90615c86565b80601f0160208091040260200160405190810160405280929190818152602001828054610cd890615c86565b8015610d255780601f10610cfa57610100808354040283529160200191610d25565b820191906000526020600020905b815481529060010190602001808311610d0857829003601f168201915b5050509183525050600382015460209091019060ff166002811115610d4c57610d4c61555a565b6002811115610d5d57610d5d61555a565b81526003919091015460ff61010082048116151560208085019190915262010000909204161515604092830152825190830151918301516060840151608085015160a090950151929d939c50909a50985091965090945092505050565b60128181548110610b5b57600080fd5b6001600160a01b0382166000908152602081905260408120548190606090819083908290829081908910610e365760405162461bcd60e51b8152602060048201526013602482015272496e646578206f7574206f6620626f756e647360681b6044820152606401610826565b6001600160a01b038a16600090815260208190526040812080548b908110610e6057610e60615cc0565b906000526020600020906008020160405180610100016040529081600082015481526020016001820160009054906101000a90046001600160a01b03166001600160a01b03166001600160a01b03168152602001600282018054610ec390615c86565b80601f0160208091040260200160405190810160405280929190818152602001828054610eef90615c86565b8015610f3c5780601f10610f1157610100808354040283529160200191610f3c565b820191906000526020600020905b815481529060010190602001808311610f1f57829003601f168201915b50505050508152602001600382018054610f5590615c86565b80601f0160208091040260200160405190810160405280929190818152602001828054610f8190615c86565b8015610fce5780601f10610fa357610100808354040283529160200191610fce565b820191906000526020600020905b815481529060010190602001808311610fb157829003601f168201915b505050918352505060048201546001600160a01b03166020820152600582018054604090920191610ffe90615c86565b80601f016020809104026020016040519081016040528092919081815260200182805461102a90615c86565b80156110775780601f1061104c57610100808354040283529160200191611077565b820191906000526020600020905b81548152906001019060200180831161105a57829003601f168201915b505050918352505060068201546001600160a01b0316602080830191909152600790920154604091820152825191830151908301516060840151608085015160a086015160c087015160e090970151959f50939d50919b509950975095509093509150509295985092959890939650565b6001600160a01b0381166000908152600e6020526040902060010180546060919061111290615c86565b80601f016020809104026020016040519081016040528092919081815260200182805461113e90615c86565b8015610a455780601f1061116057610100808354040283529160200191610a45565b820191906000526020600020905b81548152906001019060200180831161116e5750939695505050505050565b600d546001600160a01b031633146111b75760405162461bcd60e51b815260040161082690615cd6565b6001600160a01b0381166000908152600e6020526040812080546001600160a01b0319168155906111eb60018301826153b9565b6111f96002830160006153b9565b506000600382018190556004909101805460ff199081169091556001600160a01b0383168252600660205260408220805490911690555b600f5481101561132b57816001600160a01b0316600f828154811061125757611257615cc0565b6000918252602090912001546001600160a01b03160361132357600f805461128190600190615d18565b8154811061129157611291615cc0565b600091825260209091200154600f80546001600160a01b0390921691839081106112bd576112bd615cc0565b9060005260206000200160006101000a8154816001600160a01b0302191690836001600160a01b03160217905550600f8054806112fc576112fc615d31565b600082815260209020810160001990810180546001600160a01b031916905501905561132b565b600101611230565b50600c805490600061133c83615d47565b919050555050565b606080600080808080808060015b600a5481116115df578a80519060200120600760008381526020019081526020016000206000016040516113869190615d5e565b6040518091039020036115cd57600081815260076020526040808220815161012081019092528054829082906113bb90615c86565b80601f01602080910402602001604051908101604052809291908181526020018280546113e790615c86565b80156114345780601f1061140957610100808354040283529160200191611434565b820191906000526020600020905b81548152906001019060200180831161141757829003601f168201915b5050505050815260200160018201805461144d90615c86565b80601f016020809104026020016040519081016040528092919081815260200182805461147990615c86565b80156114c65780601f1061149b576101008083540402835291602001916114c6565b820191906000526020600020905b8154815290600101906020018083116114a957829003601f168201915b505050505081526020016002820160009054906101000a90046001600160a01b03166001600160a01b03166001600160a01b031681526020016003820160009054906101000a90046001600160a01b03166001600160a01b03166001600160a01b031681526020016004820160009054906101000a90046001600160a01b03166001600160a01b03166001600160a01b031681526020016005820154815260200160068201548152602001600782015481526020016008820154815250509050806000015181602001518260400151836060015184608001518560a001518660c001518760e001518861010001519a509a509a509a509a509a509a509a509a50505061161c565b806115d781615dd3565b915050611352565b5060405162461bcd60e51b8152602060048201526011602482015270141c9bd91d58dd081b9bdd08199bdd5b99607a1b6044820152606401610826565b9193959799909294969850565b6000803360009081526006602052604090205460ff1660028111156116505761165061555a565b1461166d5760405162461bcd60e51b815260040161082690615c4f565b600087815260046020526040902060068101546001600160a01b031633146116c75760405162461bcd60e51b815260206004820152600d60248201526c04e6f7420796f75722063726f7609c1b6044820152606401610826565b600980549060006116d783615dd3565b919050555060405180610140016040528060095481526020018260010180546116ff90615c86565b80601f016020809104026020016040519081016040528092919081815260200182805461172b90615c86565b80156117785780601f1061174d57610100808354040283529160200191611778565b820191906000526020600020905b81548152906001019060200180831161175b57829003601f168201915b5050505050815260200182600201805461179190615c86565b80601f01602080910402602001604051908101604052809291908181526020018280546117bd90615c86565b801561180a5780601f106117df5761010080835404028352916020019161180a565b820191906000526020600020905b8154815290600101906020018083116117ed57829003601f168201915b50505091835250503360208201526001600160a01b038781166040830152881660608201526080810186905260a0810185905260c0810189905260e001600190526009546000908152600360209081526040909120825181559082015160018201906118769082615e3b565b506040820151600282019061188b9082615e3b565b5060608201516003820180546001600160a01b039283166001600160a01b031991821617909155608084015160048401805491841691831691909117905560a084015160058401805491909316911617905560c082015160068201906118f19082615e3b565b5060e082015160078201906119069082615e3b565b50610100820151600882015561012082015160098201805460ff191660018360028111156119365761193661555a565b021790555050505050505050505050565b60108181548110610b5b57600080fd5b600560205260009081526040902080546001820180546001600160a01b03909216929161198390615c86565b80601f01602080910402602001604051908101604052809291908181526020018280546119af90615c86565b80156119fc5780601f106119d1576101008083540402835291602001916119fc565b820191906000526020600020905b8154815290600101906020018083116119df57829003601f168201915b505050505090806002018054611a1190615c86565b80601f0160208091040260200160405190810160405280929190818152602001828054611a3d90615c86565b8015611a8a5780601f10611a5f57610100808354040283529160200191611a8a565b820191906000526020600020905b815481529060010190602001808311611a6d57829003601f168201915b5050506003909301549192505060ff808216916101008104821691620100009091041686565b6000606080600080600080600080600460008b81526020019081526020016000206040518061010001604052908160008201548152602001600182018054611af790615c86565b80601f0160208091040260200160405190810160405280929190818152602001828054611b2390615c86565b8015611b705780601f10611b4557610100808354040283529160200191611b70565b820191906000526020600020905b815481529060010190602001808311611b5357829003601f168201915b50505050508152602001600282018054611b8990615c86565b80601f0160208091040260200160405190810160405280929190818152602001828054611bb590615c86565b8015611c025780601f10611bd757610100808354040283529160200191611c02565b820191906000526020600020905b815481529060010190602001808311611be557829003601f168201915b505050918352505060038201546020820152600482015460408201526005820154606082015260068201546001600160a01b038116608083015260a090910190600160a01b900460ff166002811115611c5d57611c5d61555a565b6002811115611c6e57611c6e61555a565b81525050905080600001518160200151826040015183606001518460a0015185608001518660c001518760e001519850985098509850985098509850985050919395975091939597565b600f8181548110610b5b57600080fd5b600b8054906000611cd883615dd3565b91905055506040518060c00160405280336001600160a01b03168152602001848152602001828152602001836002811115611d1557611d1561555a565b81526000602080830182905260016040938401819052600b5483526005825292909120835181546001600160a01b0319166001600160a01b03909116178155908301519091820190611d679082615e3b565b5060408201516002820190611d7c9082615e3b565b50606082015160038201805460ff19166001836002811115611da057611da061555a565b021790555060808201516003909101805460a0909301511515620100000262ff000019921515610100029290921662ffff001990931692909217179055505050565b60036020526000908152604090208054600182018054919291611e0490615c86565b80601f0160208091040260200160405190810160405280929190818152602001828054611e3090615c86565b8015611e7d5780601f10611e5257610100808354040283529160200191611e7d565b820191906000526020600020905b815481529060010190602001808311611e6057829003601f168201915b505050505090806002018054611e9290615c86565b80601f0160208091040260200160405190810160405280929190818152602001828054611ebe90615c86565b8015611f0b5780601f10611ee057610100808354040283529160200191611f0b565b820191906000526020600020905b815481529060010190602001808311611eee57829003601f168201915b5050505060038301546004840154600585015460068601805495966001600160a01b03948516969385169550939091169291611f4690615c86565b80601f0160208091040260200160405190810160405280929190818152602001828054611f7290615c86565b8015611fbf5780601f10611f9457610100808354040283529160200191611fbf565b820191906000526020600020905b815481529060010190602001808311611fa257829003601f168201915b505050505090806007018054611fd490615c86565b80601f016020809104026020016040519081016040528092919081815260200182805461200090615c86565b801561204d5780601f106120225761010080835404028352916020019161204d565b820191906000526020600020905b81548152906001019060200180831161203057829003601f168201915b50505050600883015460099093015491929160ff1690508a565b6004602052600090815260409020805460018201805491929161208990615c86565b80601f01602080910402602001604051908101604052809291908181526020018280546120b590615c86565b80156121025780601f106120d757610100808354040283529160200191612102565b820191906000526020600020905b8154815290600101906020018083116120e557829003601f168201915b50505050509080600201805461211790615c86565b80601f016020809104026020016040519081016040528092919081815260200182805461214390615c86565b80156121905780601f1061216557610100808354040283529160200191612190565b820191906000526020600020905b81548152906001019060200180831161217357829003601f168201915b50505050600383015460048401546005850154600690950154939491939092506001600160a01b03811690600160a01b900460ff1688565b600260205281600052604060002081815481106121e457600080fd5b600091825260209091206008909102018054600182015460028301546003840180549396506001600160a01b0392831695509116929161222390615c86565b80601f016020809104026020016040519081016040528092919081815260200182805461224f90615c86565b801561229c5780601f106122715761010080835404028352916020019161229c565b820191906000526020600020905b81548152906001019060200180831161227f57829003601f168201915b5050505050908060040180546122b190615c86565b80601f01602080910402602001604051908101604052809291908181526020018280546122dd90615c86565b801561232a5780601f106122ff5761010080835404028352916020019161232a565b820191906000526020600020905b81548152906001019060200180831161230d57829003601f168201915b50505050509080600501549080600601805461234590615c86565b80601f016020809104026020016040519081016040528092919081815260200182805461237190615c86565b80156123be5780601f10612393576101008083540402835291602001916123be565b820191906000526020600020905b8154815290600101906020018083116123a157829003601f168201915b5050505050908060070154905088565b6000805b60105481101561241f57601081815481106123ef576123ef615cc0565b6000918252602090912001546001600160a01b03908116908416036124175750600092915050565b6001016123d2565b50600192915050565b60118181548110610b5b57600080fd5b600080600060608060006060600080600260008c6001600160a01b03166001600160a01b031681526020019081526020016000208a8154811061247d5761247d615cc0565b6000918252602091829020604080516101008101825260089093029091018054835260018101546001600160a01b03908116948401949094526002810154909316908201526003820180549192916060840191906124da90615c86565b80601f016020809104026020016040519081016040528092919081815260200182805461250690615c86565b80156125535780601f1061252857610100808354040283529160200191612553565b820191906000526020600020905b81548152906001019060200180831161253657829003601f168201915b5050505050815260200160048201805461256c90615c86565b80601f016020809104026020016040519081016040528092919081815260200182805461259890615c86565b80156125e55780601f106125ba576101008083540402835291602001916125e5565b820191906000526020600020905b8154815290600101906020018083116125c857829003601f168201915b505050505081526020016005820154815260200160068201805461260890615c86565b80601f016020809104026020016040519081016040528092919081815260200182805461263490615c86565b80156126815780601f1061265657610100808354040283529160200191612681565b820191906000526020600020905b81548152906001019060200180831161266457829003601f168201915b505050505081526020016007820154815250509050806000015181602001518260400151836060015184608001518560a001518660c001518760e0015198509850985098509850985098509850509295985092959890939650565b600160205281600052604060002081815481106126f857600080fd5b600091825260209091206009909102018054600182015460028301546003840180549396506001600160a01b0392831695509116929161273790615c86565b80601f016020809104026020016040519081016040528092919081815260200182805461276390615c86565b80156127b05780601f10612785576101008083540402835291602001916127b0565b820191906000526020600020905b81548152906001019060200180831161279357829003601f168201915b5050505050908060040180546127c590615c86565b80601f01602080910402602001604051908101604052809291908181526020018280546127f190615c86565b801561283e5780601f106128135761010080835404028352916020019161283e565b820191906000526020600020905b81548152906001019060200180831161282157829003601f168201915b50505050509080600501805461285390615c86565b80601f016020809104026020016040519081016040528092919081815260200182805461287f90615c86565b80156128cc5780601f106128a1576101008083540402835291602001916128cc565b820191906000526020600020905b8154815290600101906020018083116128af57829003601f168201915b5050505050908060060180546128e190615c86565b80601f016020809104026020016040519081016040528092919081815260200182805461290d90615c86565b801561295a5780601f1061292f5761010080835404028352916020019161295a565b820191906000526020600020905b81548152906001019060200180831161293d57829003601f168201915b50505050509080600701805461296f90615c86565b80601f016020809104026020016040519081016040528092919081815260200182805461299b90615c86565b80156129e85780601f106129bd576101008083540402835291602001916129e8565b820191906000526020600020905b8154815290600101906020018083116129cb57829003601f168201915b5050505050908060080154905089565b600d546060906001600160a01b0390811690831603612a3257505060408051808201909152600581526430b236b4b760d91b602082015290565b60005b601154811015612a9d5760118181548110612a5257612a52615cc0565b6000918252602090912001546001600160a01b0390811690841603612a955750506040805180820190915260068152653330b936b2b960d11b6020820152919050565b600101612a35565b5060005b601254811015612b0e5760128181548110612abe57612abe615cc0565b6000918252602090912001546001600160a01b0390811690841603612b0657505060408051808201909152600b81526a3a3930b739b837b93a32b960a91b6020820152919050565b600101612aa1565b5060005b601354811015612b805760138181548110612b2f57612b2f615cc0565b6000918252602090912001546001600160a01b0390811690841603612b7857505060408051808201909152600c81526b39ba37b932a6b0b730b3b2b960a11b6020820152919050565b600101612b12565b50506040805180820190915260048152636e6f6e6560e01b6020820152919050565b6000803360009081526006602052604090205460ff166002811115612bc957612bc961555a565b14612be65760405162461bcd60e51b815260040161082690615c4f565b60088054906000612bf683615dd3565b91905055506040518061010001604052806008548152602001868152602001878152602001858152602001848152602001838152602001336001600160a01b0316815260200160006002811115612c4f57612c4f61555a565b9052600854600090815260046020908152604090912082518155908201516001820190612c7c9082615e3b565b5060408201516002820190612c919082615e3b565b50606082015160038201556080820151600482015560a0820151600582015560c08201516006820180546001600160a01b039092166001600160a01b031983168117825560e0850151926001600160a81b03191617600160a01b836002811115612cfd57612cfd61555a565b02179055505050505050505050565b60006020528160005260406000208181548110612d2857600080fd5b60009182526020909120600890910201805460018201546002830180549295506001600160a01b03909116935090612d5f90615c86565b80601f0160208091040260200160405190810160405280929190818152602001828054612d8b90615c86565b8015612dd85780601f10612dad57610100808354040283529160200191612dd8565b820191906000526020600020905b815481529060010190602001808311612dbb57829003601f168201915b505050505090806003018054612ded90615c86565b80601f0160208091040260200160405190810160405280929190818152602001828054612e1990615c86565b8015612e665780601f10612e3b57610100808354040283529160200191612e66565b820191906000526020600020905b815481529060010190602001808311612e4957829003601f168201915b505050600484015460058501805494956001600160a01b03909216949193509150612e9090615c86565b80601f0160208091040260200160405190810160405280929190818152602001828054612ebc90615c86565b8015612f095780601f10612ede57610100808354040283529160200191612f09565b820191906000526020600020905b815481529060010190602001808311612eec57829003601f168201915b50505050600683015460079093015491926001600160a01b031691905088565b606080600080600080600080600080600760008c815260200190815260200160002060405180610120016040529081600082018054612f6790615c86565b80601f0160208091040260200160405190810160405280929190818152602001828054612f9390615c86565b8015612fe05780601f10612fb557610100808354040283529160200191612fe0565b820191906000526020600020905b815481529060010190602001808311612fc357829003601f168201915b50505050508152602001600182018054612ff990615c86565b80601f016020809104026020016040519081016040528092919081815260200182805461302590615c86565b80156130725780601f1061304757610100808354040283529160200191613072565b820191906000526020600020905b81548152906001019060200180831161305557829003601f168201915b505050505081526020016002820160009054906101000a90046001600160a01b03166001600160a01b03166001600160a01b031681526020016003820160009054906101000a90046001600160a01b03166001600160a01b03166001600160a01b031681526020016004820160009054906101000a90046001600160a01b03166001600160a01b03166001600160a01b031681526020016005820154815260200160068201548152602001600782015481526020016008820154815250509050806000015181602001518260400151836060015184608001518560a001518660c001518760e00151886101000151995099509950995099509950995099509950509193959799909294969850565b600e60205260009081526040902080546001820180546001600160a01b0390921692916131ac90615c86565b80601f01602080910402602001604051908101604052809291908181526020018280546131d890615c86565b80156132255780601f106131fa57610100808354040283529160200191613225565b820191906000526020600020905b81548152906001019060200180831161320857829003601f168201915b50505050509080600201805461323a90615c86565b80601f016020809104026020016040519081016040528092919081815260200182805461326690615c86565b80156132b35780601f10613288576101008083540402835291602001916132b3565b820191906000526020600020905b81548152906001019060200180831161329657829003601f168201915b50505050600383015460049093015491929160ff16905085565b6000606080600080600f80549050861061331f5760405162461bcd60e51b8152602060048201526013602482015272496e646578206f7574206f6620626f756e647360681b6044820152606401610826565b6000600f878154811061333457613334615cc0565b60009182526020808320909101546001600160a01b03908116808452600e83526040808520815160a0810190925280549093168152600183018054929650909384019161338090615c86565b80601f01602080910402602001604051908101604052809291908181526020018280546133ac90615c86565b80156133f95780601f106133ce576101008083540402835291602001916133f9565b820191906000526020600020905b8154815290600101906020018083116133dc57829003601f168201915b5050505050815260200160028201805461341290615c86565b80601f016020809104026020016040519081016040528092919081815260200182805461343e90615c86565b801561348b5780601f106134605761010080835404028352916020019161348b565b820191906000526020600020905b81548152906001019060200180831161346e57829003601f168201915b505050918352505060038201546020820152600482015460409091019060ff1660028111156134bc576134bc61555a565b60028111156134cd576134cd61555a565b9052508051602082015160408301516060840151608090940151929c919b50995091975095509350505050565b600060608060008060006060806000806000600360008d8152602001908152602001600020604051806101400160405290816000820154815260200160018201805461354590615c86565b80601f016020809104026020016040519081016040528092919081815260200182805461357190615c86565b80156135be5780601f10613593576101008083540402835291602001916135be565b820191906000526020600020905b8154815290600101906020018083116135a157829003601f168201915b505050505081526020016002820180546135d790615c86565b80601f016020809104026020016040519081016040528092919081815260200182805461360390615c86565b80156136505780601f1061362557610100808354040283529160200191613650565b820191906000526020600020905b81548152906001019060200180831161363357829003601f168201915b505050918352505060038201546001600160a01b039081166020830152600483015481166040830152600583015416606082015260068201805460809092019161369990615c86565b80601f01602080910402602001604051908101604052809291908181526020018280546136c590615c86565b80156137125780601f106136e757610100808354040283529160200191613712565b820191906000526020600020905b8154815290600101906020018083116136f557829003601f168201915b5050505050815260200160078201805461372b90615c86565b80601f016020809104026020016040519081016040528092919081815260200182805461375790615c86565b80156137a45780601f10613779576101008083540402835291602001916137a4565b820191906000526020600020905b81548152906001019060200180831161378757829003601f168201915b505050918352505060088201546020820152600982015460409091019060ff1660028111156137d5576137d561555a565b60028111156137e6576137e661555a565b815250509050806000015181602001518260400151836060015184608001518560a001518660c001518760e001518861010001518961012001519a509a509a509a509a509a509a509a509a509a50509193959799509193959799565b600d546001600160a01b0316331461386c5760405162461bcd60e51b815260040161082690615cd6565b60008181526005602052604090206003015462010000900460ff166138c25760405162461bcd60e51b815260206004820152600c60248201526b37379039bab1b4103ab9b2b960a11b6044820152606401610826565b600081815260056020526040902060030154610100900460ff16156139295760405162461bcd60e51b815260206004820152601860248201527f7265717565737420616c726561647920617070726f76656400000000000000006044820152606401610826565b600081815260056020908152604091829020825160a0810190935280546001600160a01b0316835260018101805491939283019161396690615c86565b80601f016020809104026020016040519081016040528092919081815260200182805461399290615c86565b80156139df5780601f106139b4576101008083540402835291602001916139df565b820191906000526020600020905b8154815290600101906020018083116139c257829003601f168201915b505050505081526020018260020180546139f890615c86565b80601f0160208091040260200160405190810160405280929190818152602001828054613a2490615c86565b8015613a715780601f10613a4657610100808354040283529160200191613a71565b820191906000526020600020905b815481529060010190602001808311613a5457829003601f168201915b505050918352505060006020820152600383015460409091019060ff166002811115613a9f57613a9f61555a565b905281546001600160a01b039081166000908152600e60209081526040909120835181546001600160a01b03191693169290921782558201516001820190613ae79082615e3b565b5060408201516002820190613afc9082615e3b565b5060608201516003820155608082015160048201805460ff19166001836002811115613b2a57613b2a61555a565b02179055505050600381015481546001600160a01b03166000908152600660205260409020805460ff9092169160ff19166001836002811115613b6f57613b6f61555a565b02179055506000600382015460ff166002811115613b8f57613b8f61555a565b03613be6578054601180546001810182556000919091527f31ecc21a745e3968a04e9570e4425bc18fa8019c68028196b546d1669c200c680180546001600160a01b0319166001600160a01b039092169190911790555b6001600382015460ff166002811115613c0157613c0161555a565b03613c58578054601280546001810182556000919091527fbb8a6a4669ba250d26cd7a459eca9d215f8307e33aebe50379bc5a3617ec34440180546001600160a01b0319166001600160a01b039092169190911790555b6002600382015460ff166002811115613c7357613c7361555a565b03613cca578054601380546001810182556000919091527f66de8ffda797e3de9c05e8fc57b3bf0ec28a930d40b0d285d93c06501cf6a0900180546001600160a01b0319166001600160a01b039092169190911790555b8054600f805460018101825560009182527f8d1108e10bcb7c27dddfc02ed9d693a074039d026cf4ea4240b40f7d581ac8020180546001600160a01b0319166001600160a01b0390931692909217909155600c805491613d2983615dd3565b9091555050600301805462ffff00191661010017905550565b6001600160a01b038082166000908152600e60209081526040808320815160a08101909252805490941681526001840180549394606094859487948594859491939192840191613d9190615c86565b80601f0160208091040260200160405190810160405280929190818152602001828054613dbd90615c86565b8015613e0a5780601f10613ddf57610100808354040283529160200191613e0a565b820191906000526020600020905b815481529060010190602001808311613ded57829003601f168201915b50505050508152602001600282018054613e2390615c86565b80601f0160208091040260200160405190810160405280929190818152602001828054613e4f90615c86565b8015613e9c5780601f10613e7157610100808354040283529160200191613e9c565b820191906000526020600020905b815481529060010190602001808311613e7f57829003601f168201915b505050918352505060038201546020820152600482015460409091019060ff166002811115613ecd57613ecd61555a565b6002811115613ede57613ede61555a565b9052508051602082015160408301516060840151608090940151929b919a509850919650945092505050565b6001600160a01b038082166000908152600e60209081526040808320815160a0810190925280549094168152600184018054939460609485948794859490939291840191613f5790615c86565b80601f0160208091040260200160405190810160405280929190818152602001828054613f8390615c86565b8015613fd05780601f10613fa557610100808354040283529160200191613fd0565b820191906000526020600020905b815481529060010190602001808311613fb357829003601f168201915b50505050508152602001600282018054613fe990615c86565b80601f016020809104026020016040519081016040528092919081815260200182805461401590615c86565b80156140625780601f1061403757610100808354040283529160200191614062565b820191906000526020600020905b81548152906001019060200180831161404557829003601f168201915b505050918352505060038201546020820152600482015460409091019060ff1660028111156140935761409361555a565b60028111156140a4576140a461555a565b9052508051602082015160408301516080909301519199909850919650945092505050565b600d546001600160a01b031633146140f35760405162461bcd60e51b815260040161082690615cd6565b60008181526005602052604090206003015462010000900460ff166141495760405162461bcd60e51b815260206004820152600c60248201526b37379039bab1b4103ab9b2b960a11b6044820152606401610826565b600090815260056020526040812060038101805462ffff0019169055546010805460018101825592527f1b6847dc741a1b0cd08d278845f9d819d87b734759afb55fe2de5cb82a9ae67290910180546001600160a01b0319166001600160a01b03909216919091179055565b6002803360009081526006602052604090205460ff1660028111156141dc576141dc61555a565b146141f95760405162461bcd60e51b815260040161082690615c4f565b60008311801561420b57506009548311155b6142495760405162461bcd60e51b815260206004820152600f60248201526e125b9d985b1a590818dc9bdc081251608a1b6044820152606401610826565b600a805490600061425983615dd3565b9091555050600083815260036020818152604080842060048352818520600681018054600160a11b60ff60a01b1990911617905560098201805460ff19166002179055338652600e909352908420909201805492939192600192906142bf908490615efa565b909155505060048201546001600160a01b03166000908152600e602052604081206003018054600192906142f4908490615efa565b90915550506003808301546001600160a01b03166000908152600e6020526040812090910180546001929061432a908490615efa565b9250508190555060405180610120016040528083600101805461434c90615c86565b80601f016020809104026020016040519081016040528092919081815260200182805461437890615c86565b80156143c55780601f1061439a576101008083540402835291602001916143c5565b820191906000526020600020905b8154815290600101906020018083116143a857829003601f168201915b505050505081526020018360020180546143de90615c86565b80601f016020809104026020016040519081016040528092919081815260200182805461440a90615c86565b80156144575780601f1061442c57610100808354040283529160200191614457565b820191906000526020600020905b81548152906001019060200180831161443a57829003601f168201915b505050918352505060038401546001600160a01b0390811660208084019190915260048087015490921660408085019190915233606085015260058601546080850152600887015460a08501529185015460c084015260e0909201879052600a54600090815260079092529020815181906144d29082615e3b565b50602082015160018201906144e79082615e3b565b506040828101516002830180546001600160a01b03199081166001600160a01b039384161790915560608501516003808601805484169285169290921790915560808601516004860180549093169084161790915560a0850151600585015560c0850151600685015560e08501516007850155610100948501516008909401939093559185015490911660009081526020819052819020815192830190915280549091908190614598906001615efa565b815260038501546001600160a01b031660208201526002850180546040909201916145c290615c86565b80601f01602080910402602001604051908101604052809291908181526020018280546145ee90615c86565b801561463b5780601f106146105761010080835404028352916020019161463b565b820191906000526020600020905b81548152906001019060200180831161461e57829003601f168201915b505050918352505060038501546001600160a01b03166000908152600e60209081526040909120600101805491909201919061467690615c86565b80601f01602080910402602001604051908101604052809291908181526020018280546146a290615c86565b80156146ef5780601f106146c4576101008083540402835291602001916146ef565b820191906000526020600020905b8154815290600101906020018083116146d257829003601f168201915b505050918352505060058501546001600160a01b0390811660208084019190915260048701549091166000908152600e909152604090819020600101805491909201919061473c90615c86565b80601f016020809104026020016040519081016040528092919081815260200182805461476890615c86565b80156147b55780601f1061478a576101008083540402835291602001916147b5565b820191906000526020600020905b81548152906001019060200180831161479857829003601f168201915b505050918352505060048501546001600160a01b03908116602080840191909152604092830189905284546001808201875560009687529582902085516008909202019081559084015194810180546001600160a01b03191695909216949094179055810151909190600282019061482d9082615e3b565b50606082015160038201906148429082615e3b565b5060808201516004820180546001600160a01b0319166001600160a01b0390921691909117905560a0820151600582019061487d9082615e3b565b5060c08201516006820180546001600160a01b0319166001600160a01b0392831617905560e09092015160079091015560048301541660009081526001602081905260409182902082516101208101909352805490929182916148df91615efa565b815260038501546001600160a01b03908116602080840182905260058801549092166040808501919091526000918252600e90925220600101805460609092019161492990615c86565b80601f016020809104026020016040519081016040528092919081815260200182805461495590615c86565b80156149a25780601f10614977576101008083540402835291602001916149a2565b820191906000526020600020905b81548152906001019060200180831161498557829003601f168201915b505050918352505060058501546001600160a01b03166000908152600e6020908152604090912060010180549190920191906149dd90615c86565b80601f0160208091040260200160405190810160405280929190818152602001828054614a0990615c86565b8015614a565780601f10614a2b57610100808354040283529160200191614a56565b820191906000526020600020905b815481529060010190602001808311614a3957829003601f168201915b50505050508152602001846002018054614a6f90615c86565b80601f0160208091040260200160405190810160405280929190818152602001828054614a9b90615c86565b8015614ae85780601f10614abd57610100808354040283529160200191614ae8565b820191906000526020600020905b815481529060010190602001808311614acb57829003601f168201915b50505050508152602001846006018054614b0190615c86565b80601f0160208091040260200160405190810160405280929190818152602001828054614b2d90615c86565b8015614b7a5780601f10614b4f57610100808354040283529160200191614b7a565b820191906000526020600020905b815481529060010190602001808311614b5d57829003601f168201915b50505050508152602001846007018054614b9390615c86565b80601f0160208091040260200160405190810160405280929190818152602001828054614bbf90615c86565b8015614c0c5780601f10614be157610100808354040283529160200191614c0c565b820191906000526020600020905b815481529060010190602001808311614bef57829003601f168201915b5050509183525050602090810187905282546001818101855560009485529382902083516009909202019081559082015192810180546001600160a01b039485166001600160a01b03199182161790915560408301516002830180549190951691161790925560608101519091906003820190614c899082615e3b565b5060808201516004820190614c9e9082615e3b565b5060a08201516005820190614cb39082615e3b565b5060c08201516006820190614cc89082615e3b565b5060e08201516007820190614cdd9082615e3b565b50610100918201516008909101553360009081526002602052604090819020815192830190915280549091908190614d16906001615efa565b815260038501546001600160a01b039081166020808401919091526004870154909116604080840191909152336000908152600e90925290206001018054606090920191614d6390615c86565b80601f0160208091040260200160405190810160405280929190818152602001828054614d8f90615c86565b8015614ddc5780601f10614db157610100808354040283529160200191614ddc565b820191906000526020600020905b815481529060010190602001808311614dbf57829003601f168201915b505050918352505060048501546001600160a01b03166000908152600e602090815260409091206001018054919092019190614e1790615c86565b80601f0160208091040260200160405190810160405280929190818152602001828054614e4390615c86565b8015614e905780601f10614e6557610100808354040283529160200191614e90565b820191906000526020600020905b815481529060010190602001808311614e7357829003601f168201915b50505050508152602001868152602001846002018054614eaf90615c86565b80601f0160208091040260200160405190810160405280929190818152602001828054614edb90615c86565b8015614f285780601f10614efd57610100808354040283529160200191614f28565b820191906000526020600020905b815481529060010190602001808311614f0b57829003601f168201915b50505091835250506008808601546020928301528354600181810186556000958652948390208451919092029091019081559082015192810180546001600160a01b039485166001600160a01b03199182161790915560408301516002830180549190951691161790925560608101519091906003820190614faa9082615e3b565b5060808201516004820190614fbf9082615e3b565b5060a0820151600582015560c08201516006820190614fde9082615e3b565b5060e0820151816007015550505050505050565b60008060006060806060806060600080600160008d6001600160a01b03166001600160a01b031681526020019081526020016000208b8154811061503857615038615cc0565b6000918252602091829020604080516101208101825260099093029091018054835260018101546001600160a01b039081169484019490945260028101549093169082015260038201805491929160608401919061509590615c86565b80601f01602080910402602001604051908101604052809291908181526020018280546150c190615c86565b801561510e5780601f106150e35761010080835404028352916020019161510e565b820191906000526020600020905b8154815290600101906020018083116150f157829003601f168201915b5050505050815260200160048201805461512790615c86565b80601f016020809104026020016040519081016040528092919081815260200182805461515390615c86565b80156151a05780601f10615175576101008083540402835291602001916151a0565b820191906000526020600020905b81548152906001019060200180831161518357829003601f168201915b505050505081526020016005820180546151b990615c86565b80601f01602080910402602001604051908101604052809291908181526020018280546151e590615c86565b80156152325780601f1061520757610100808354040283529160200191615232565b820191906000526020600020905b81548152906001019060200180831161521557829003601f168201915b5050505050815260200160068201805461524b90615c86565b80601f016020809104026020016040519081016040528092919081815260200182805461527790615c86565b80156152c45780601f10615299576101008083540402835291602001916152c4565b820191906000526020600020905b8154815290600101906020018083116152a757829003601f168201915b505050505081526020016007820180546152dd90615c86565b80601f016020809104026020016040519081016040528092919081815260200182805461530990615c86565b80156153565780601f1061532b57610100808354040283529160200191615356565b820191906000526020600020905b81548152906001019060200180831161533957829003601f168201915b505050505081526020016008820154815250509050806000015181602001518260400151836060015184608001518560a001518660c001518760e00151886101000151995099509950995099509950995099509950509295985092959850929598565b5080546153c590615c86565b6000825580601f106153d5575050565b601f0160209004906000526020600020908101906153f391906153f6565b50565b5b8082111561540b57600081556001016153f7565b5090565b60006020828403121561542157600080fd5b5035919050565b6000815180845260005b8181101561544e57602081850181015186830182015201615432565b506000602082860101526020601f19601f83011685010191505092915050565b6101208152600061548361012083018c615428565b8281036020840152615495818c615428565b6001600160a01b039a8b166040850152988a166060840152505094909616608085015260a084019290925260c083015260e0820152610100019190915292915050565b8035600381106154e757600080fd5b919050565b6000602082840312156154fe57600080fd5b615507826154d8565b9392505050565b602080825282518282018190526000918401906040840190835b8181101561554f5783516001600160a01b0316835260209384019390920191600101615528565b509095945050505050565b634e487b7160e01b600052602160045260246000fd5b600381106153f357634e487b7160e01b600052602160045260246000fd5b6001600160a01b038716815260c0602082018190526000906155b290830188615428565b82810360408401526155c48188615428565b9150506155d085615570565b60608201949094529115156080830152151560a0909101529392505050565b80356001600160a01b03811681146154e757600080fd5b6000806040838503121561561957600080fd5b615622836155ef565b946020939093013593505050565b8881526001600160a01b03881660208201526101006040820181905260009061565b90830189615428565b828103606084015261566d8189615428565b6001600160a01b038816608085015283810360a085015290506156908187615428565b6001600160a01b039590951660c0840152505060e001529695505050505050565b6000602082840312156156c357600080fd5b615507826155ef565b6020815260006155076020830184615428565b634e487b7160e01b600052604160045260246000fd5b600082601f83011261570657600080fd5b813567ffffffffffffffff811115615720576157206156df565b604051601f8201601f19908116603f0116810167ffffffffffffffff8111828210171561574f5761574f6156df565b60405281815283820160200185101561576757600080fd5b816020850160208301376000918101602001919091529392505050565b60006020828403121561579657600080fd5b813567ffffffffffffffff8111156157ad57600080fd5b6157b9848285016156f5565b949350505050565b60008060008060008060c087890312156157da57600080fd5b86359550602087013594506157f1604088016155ef565b93506157ff606088016155ef565b9250608087013567ffffffffffffffff81111561581b57600080fd5b61582789828a016156f5565b92505060a087013567ffffffffffffffff81111561584457600080fd5b61585089828a016156f5565b9150509295509295509295565b8881526101006020820152600061587861010083018a615428565b828103604084015261588a818a615428565b9150508660608301528560808301528460a083015260018060a01b03841660c08301526158b683615570565b8260e08301529998505050505050505050565b6000806000606084860312156158de57600080fd5b833567ffffffffffffffff8111156158f557600080fd5b615901868287016156f5565b935050615910602085016154d8565b9150604084013567ffffffffffffffff81111561592c57600080fd5b615938868287016156f5565b9150509250925092565b8a81526101406020820152600061595d61014083018c615428565b828103604084015261596f818c615428565b6001600160a01b038b811660608601528a81166080860152891660a085015283810360c085015290506159a28188615428565b905082810360e08401526159b68187615428565b915050836101008301526159c983615570565b826101208301529b9a5050505050505050505050565b8881526001600160a01b0388811660208301528716604082015261010060608201819052600090615a1290830188615428565b8281036080840152615a248188615428565b90508560a084015282810360c0840152615a3e8186615428565b9150508260e08301529998505050505050505050565b8981526001600160a01b0389811660208301528816604082015261012060608201819052600090615a8790830189615428565b8281036080840152615a998189615428565b905082810360a0840152615aad8188615428565b905082810360c0840152615ac18187615428565b905082810360e0840152615ad58186615428565b915050826101008301529a9950505050505050505050565b600080600080600060a08688031215615b0557600080fd5b853567ffffffffffffffff811115615b1c57600080fd5b615b28888289016156f5565b955050602086013567ffffffffffffffff811115615b4557600080fd5b615b51888289016156f5565b959895975050505060408401359360608101359360809091013592509050565b60208101615b7e83615570565b91905290565b6001600160a01b038616815260a060208201819052600090615ba890830187615428565b8281036040840152615bba8187615428565b915050836060830152615bcc83615570565b8260808301529695505050505050565b6001600160a01b0385168152608060208201819052600090615c0090830186615428565b8281036040840152615c128186615428565b915050615c1e83615570565b82606083015295945050505050565b60008060408385031215615c4057600080fd5b50508035926020909101359150565b60208082526019908201527f4163636573732064656e6965643a2077726f6e6720726f6c6500000000000000604082015260600190565b600181811c90821680615c9a57607f821691505b602082108103615cba57634e487b7160e01b600052602260045260246000fd5b50919050565b634e487b7160e01b600052603260045260246000fd5b6020808252601290820152712737ba1031b7b73a3930b1ba1037bbb732b960711b604082015260600190565b634e487b7160e01b600052601160045260246000fd5b81810381811115615d2b57615d2b615d02565b92915050565b634e487b7160e01b600052603160045260246000fd5b600081615d5657615d56615d02565b506000190190565b6000808354615d6c81615c86565b600182168015615d835760018114615d9857615dc8565b60ff1983168652811515820286019350615dc8565b86600052602060002060005b83811015615dc057815488820152600190910190602001615da4565b505081860193505b509195945050505050565b600060018201615de557615de5615d02565b5060010190565b601f821115615e3657806000526020600020601f840160051c81016020851015615e135750805b601f840160051c820191505b81811015615e335760008155600101615e1f565b50505b505050565b815167ffffffffffffffff811115615e5557615e556156df565b615e6981615e638454615c86565b84615dec565b6020601f821160018114615e9d5760008315615e855750848201515b600019600385901b1c1916600184901b178455615e33565b600084815260208120601f198516915b82811015615ecd5787850151825560209485019460019092019101615ead565b5084821015615eeb5786840151600019600387901b60f8161c191681555b50505050600190811b01905550565b80820180821115615d2b57615d2b615d0256fea264697066735822122086551f9693868f6394f34877c3f1b4c8516e9b8e3c4cdf8c7c4bc1eaa2f6af7864736f6c634300081c0033",
          "opcodes": "PUSH1 0x80 PUSH1 0x40 MSTORE CALLVALUE DUP1 ISZERO PUSH1 0xF JUMPI PUSH1 0x0 DUP1 REVERT JUMPDEST POP PUSH1 0xD DUP1 SLOAD PUSH1 0x1 PUSH1 0x1 PUSH1 0xA0 SHL SUB NOT AND CALLER OR SWAP1 SSTORE PUSH2 0x5F43 DUP1 PUSH2 0x31 PUSH1 0x0 CODECOPY PUSH1 0x0 RETURN INVALID PUSH1 0x80 PUSH1 0x40 MSTORE CALLVALUE DUP1 ISZERO PUSH2 0x10 JUMPI PUSH1 0x0 DUP1 REVERT JUMPDEST POP PUSH1 0x4 CALLDATASIZE LT PUSH2 0x30C JUMPI PUSH1 0x0 CALLDATALOAD PUSH1 0xE0 SHR DUP1 PUSH4 0x87E720E1 GT PUSH2 0x19D JUMPI DUP1 PUSH4 0xA87430BA GT PUSH2 0xE9 JUMPI DUP1 PUSH4 0xCF464F57 GT PUSH2 0xA2 JUMPI DUP1 PUSH4 0xE36B4F64 GT PUSH2 0x7C JUMPI DUP1 PUSH4 0xE36B4F64 EQ PUSH2 0x7A1 JUMPI DUP1 PUSH4 0xEC7BF72B EQ PUSH2 0x7B4 JUMPI DUP1 PUSH4 0xF82042FE EQ PUSH2 0x7C7 JUMPI DUP1 PUSH4 0xFD33482D EQ PUSH2 0x7DA JUMPI PUSH1 0x0 DUP1 REVERT JUMPDEST DUP1 PUSH4 0xCF464F57 EQ PUSH2 0x762 JUMPI DUP1 PUSH4 0xD2965F04 EQ PUSH2 0x775 JUMPI DUP1 PUSH4 0xDFD55A2C EQ PUSH2 0x798 JUMPI PUSH1 0x0 DUP1 REVERT JUMPDEST DUP1 PUSH4 0xA87430BA EQ PUSH2 0x6D3 JUMPI DUP1 PUSH4 0xAA1C568E EQ PUSH2 0x6F7 JUMPI DUP1 PUSH4 0xB08AEAEC EQ PUSH2 0x70A JUMPI DUP1 PUSH4 0xBB805F69 EQ PUSH2 0x71D JUMPI DUP1 PUSH4 0xBD5D0808 EQ PUSH2 0x726 JUMPI DUP1 PUSH4 0xBEEBA5D6 EQ PUSH2 0x739 JUMPI PUSH1 0x0 DUP1 REVERT JUMPDEST DUP1 PUSH4 0x911DACDC GT PUSH2 0x156 JUMPI DUP1 PUSH4 0x99374642 GT PUSH2 0x130 JUMPI DUP1 PUSH4 0x99374642 EQ PUSH2 0x65F JUMPI DUP1 PUSH4 0x9BCB1739 EQ PUSH2 0x68F JUMPI DUP1 PUSH4 0x9C1F9004 EQ PUSH2 0x6A2 JUMPI DUP1 PUSH4 0x9F96835A EQ PUSH2 0x6CB JUMPI PUSH1 0x0 DUP1 REVERT JUMPDEST DUP1 PUSH4 0x911DACDC EQ PUSH2 0x626 JUMPI DUP1 PUSH4 0x92AB20F1 EQ PUSH2 0x639 JUMPI DUP1 PUSH4 0x92BD337C EQ PUSH2 0x64C JUMPI PUSH1 0x0 DUP1 REVERT JUMPDEST DUP1 PUSH4 0x87E720E1 EQ PUSH2 0x57B JUMPI DUP1 PUSH4 0x89D219F8 EQ PUSH2 0x5A2 JUMPI DUP1 PUSH4 0x8AFDD669 EQ PUSH2 0x5C5 JUMPI DUP1 PUSH4 0x8B74B6C6 EQ PUSH2 0x5D8 JUMPI DUP1 PUSH4 0x8D165248 EQ PUSH2 0x5EB JUMPI DUP1 PUSH4 0x8DA5CB5B EQ PUSH2 0x613 JUMPI PUSH1 0x0 DUP1 REVERT JUMPDEST DUP1 PUSH4 0x4847BD56 GT PUSH2 0x25C JUMPI DUP1 PUSH4 0x5C832800 GT PUSH2 0x215 JUMPI DUP1 PUSH4 0x6811A96E GT PUSH2 0x1EF JUMPI DUP1 PUSH4 0x6811A96E EQ PUSH2 0x524 JUMPI DUP1 PUSH4 0x69346942 EQ PUSH2 0x537 JUMPI DUP1 PUSH4 0x70C9F1A5 EQ PUSH2 0x560 JUMPI DUP1 PUSH4 0x77E0E7EA EQ PUSH2 0x573 JUMPI PUSH1 0x0 DUP1 REVERT JUMPDEST DUP1 PUSH4 0x5C832800 EQ PUSH2 0x4E2 JUMPI DUP1 PUSH4 0x6004D2E3 EQ PUSH2 0x4EA JUMPI DUP1 PUSH4 0x67DAC2A0 EQ PUSH2 0x511 JUMPI PUSH1 0x0 DUP1 REVERT JUMPDEST DUP1 PUSH4 0x4847BD56 EQ PUSH2 0x46F JUMPI DUP1 PUSH4 0x4A9B4175 EQ PUSH2 0x482 JUMPI DUP1 PUSH4 0x53BDB1B0 EQ PUSH2 0x495 JUMPI DUP1 PUSH4 0x56E80B98 EQ PUSH2 0x4A8 JUMPI DUP1 PUSH4 0x598FA80C EQ PUSH2 0x4D1 JUMPI DUP1 PUSH4 0x5B77B6A6 EQ PUSH2 0x4D9 JUMPI PUSH1 0x0 DUP1 REVERT JUMPDEST DUP1 PUSH4 0x2A42D705 GT PUSH2 0x2C9 JUMPI DUP1 PUSH4 0x36461C11 GT PUSH2 0x2A3 JUMPI DUP1 PUSH4 0x36461C11 EQ PUSH2 0x438 JUMPI DUP1 PUSH4 0x387D3ECC EQ PUSH2 0x44B JUMPI DUP1 PUSH4 0x45ECC2A7 EQ PUSH2 0x45E JUMPI DUP1 PUSH4 0x48445E4D EQ PUSH2 0x467 JUMPI PUSH1 0x0 DUP1 REVERT JUMPDEST DUP1 PUSH4 0x2A42D705 EQ PUSH2 0x3DA JUMPI DUP1 PUSH4 0x2B9575AA EQ PUSH2 0x401 JUMPI DUP1 PUSH4 0x2F3D819B EQ PUSH2 0x421 JUMPI PUSH1 0x0 DUP1 REVERT JUMPDEST DUP1 PUSH4 0x34DA8BA EQ PUSH2 0x311 JUMPI DUP1 PUSH4 0x6F06768 EQ PUSH2 0x326 JUMPI DUP1 PUSH4 0x129B9DC3 EQ PUSH2 0x357 JUMPI DUP1 PUSH4 0x1AC0BCE8 EQ PUSH2 0x377 JUMPI DUP1 PUSH4 0x1D93F21E EQ PUSH2 0x3A2 JUMPI DUP1 PUSH4 0x29C2A877 EQ PUSH2 0x3C7 JUMPI JUMPDEST PUSH1 0x0 DUP1 REVERT JUMPDEST PUSH2 0x324 PUSH2 0x31F CALLDATASIZE PUSH1 0x4 PUSH2 0x540F JUMP JUMPDEST PUSH2 0x7E2 JUMP JUMPDEST STOP JUMPDEST PUSH2 0x339 PUSH2 0x334 CALLDATASIZE PUSH1 0x4 PUSH2 0x540F JUMP JUMPDEST PUSH2 0x86D JUMP JUMPDEST PUSH1 0x40 MLOAD PUSH2 0x34E SWAP10 SWAP9 SWAP8 SWAP7 SWAP6 SWAP5 SWAP4 SWAP3 SWAP2 SWAP1 PUSH2 0x546E JUMP JUMPDEST PUSH1 0x40 MLOAD DUP1 SWAP2 SUB SWAP1 RETURN JUMPDEST PUSH2 0x36A PUSH2 0x365 CALLDATASIZE PUSH1 0x4 PUSH2 0x54EC JUMP JUMPDEST PUSH2 0x9D4 JUMP JUMPDEST PUSH1 0x40 MLOAD PUSH2 0x34E SWAP2 SWAP1 PUSH2 0x550E JUMP JUMPDEST PUSH2 0x38A PUSH2 0x385 CALLDATASIZE PUSH1 0x4 PUSH2 0x540F JUMP JUMPDEST PUSH2 0xB4B JUMP JUMPDEST PUSH1 0x40 MLOAD PUSH1 0x1 PUSH1 0x1 PUSH1 0xA0 SHL SUB SWAP1 SWAP2 AND DUP2 MSTORE PUSH1 0x20 ADD PUSH2 0x34E JUMP JUMPDEST PUSH2 0x3B5 PUSH2 0x3B0 CALLDATASIZE PUSH1 0x4 PUSH2 0x540F JUMP JUMPDEST PUSH2 0xB75 JUMP JUMPDEST PUSH1 0x40 MLOAD PUSH2 0x34E SWAP7 SWAP6 SWAP5 SWAP4 SWAP3 SWAP2 SWAP1 PUSH2 0x558E JUMP JUMPDEST PUSH2 0x38A PUSH2 0x3D5 CALLDATASIZE PUSH1 0x4 PUSH2 0x540F JUMP JUMPDEST PUSH2 0xDBA JUMP JUMPDEST PUSH2 0x3ED PUSH2 0x3E8 CALLDATASIZE PUSH1 0x4 PUSH2 0x5606 JUMP JUMPDEST PUSH2 0xDCA JUMP JUMPDEST PUSH1 0x40 MLOAD PUSH2 0x34E SWAP9 SWAP8 SWAP7 SWAP6 SWAP5 SWAP4 SWAP3 SWAP2 SWAP1 PUSH2 0x5630 JUMP JUMPDEST PUSH2 0x414 PUSH2 0x40F CALLDATASIZE PUSH1 0x4 PUSH2 0x56B1 JUMP JUMPDEST PUSH2 0x10E8 JUMP JUMPDEST PUSH1 0x40 MLOAD PUSH2 0x34E SWAP2 SWAP1 PUSH2 0x56CC JUMP JUMPDEST PUSH2 0x42A PUSH1 0xA SLOAD DUP2 JUMP JUMPDEST PUSH1 0x40 MLOAD SWAP1 DUP2 MSTORE PUSH1 0x20 ADD PUSH2 0x34E JUMP JUMPDEST PUSH2 0x324 PUSH2 0x446 CALLDATASIZE PUSH1 0x4 PUSH2 0x56B1 JUMP JUMPDEST PUSH2 0x118D JUMP JUMPDEST PUSH2 0x339 PUSH2 0x459 CALLDATASIZE PUSH1 0x4 PUSH2 0x5784 JUMP JUMPDEST PUSH2 0x1344 JUMP JUMPDEST PUSH2 0x42A PUSH1 0xB SLOAD DUP2 JUMP JUMPDEST PUSH1 0xA SLOAD PUSH2 0x42A JUMP JUMPDEST PUSH2 0x324 PUSH2 0x47D CALLDATASIZE PUSH1 0x4 PUSH2 0x57C1 JUMP JUMPDEST PUSH2 0x1629 JUMP JUMPDEST PUSH2 0x38A PUSH2 0x490 CALLDATASIZE PUSH1 0x4 PUSH2 0x540F JUMP JUMPDEST PUSH2 0x1947 JUMP JUMPDEST PUSH2 0x3B5 PUSH2 0x4A3 CALLDATASIZE PUSH1 0x4 PUSH2 0x540F JUMP JUMPDEST PUSH2 0x1957 JUMP JUMPDEST PUSH2 0x42A PUSH2 0x4B6 CALLDATASIZE PUSH1 0x4 PUSH2 0x56B1 JUMP JUMPDEST PUSH1 0x1 PUSH1 0x1 PUSH1 0xA0 SHL SUB AND PUSH1 0x0 SWAP1 DUP2 MSTORE PUSH1 0x2 PUSH1 0x20 MSTORE PUSH1 0x40 SWAP1 KECCAK256 SLOAD SWAP1 JUMP JUMPDEST PUSH1 0xB SLOAD PUSH2 0x42A JUMP JUMPDEST PUSH2 0x42A PUSH1 0x9 SLOAD DUP2 JUMP JUMPDEST PUSH1 0xF SLOAD PUSH2 0x42A JUMP JUMPDEST PUSH2 0x4FD PUSH2 0x4F8 CALLDATASIZE PUSH1 0x4 PUSH2 0x540F JUMP JUMPDEST PUSH2 0x1AB0 JUMP JUMPDEST PUSH1 0x40 MLOAD PUSH2 0x34E SWAP9 SWAP8 SWAP7 SWAP6 SWAP5 SWAP4 SWAP3 SWAP2 SWAP1 PUSH2 0x585D JUMP JUMPDEST PUSH2 0x38A PUSH2 0x51F CALLDATASIZE PUSH1 0x4 PUSH2 0x540F JUMP JUMPDEST PUSH2 0x1CB8 JUMP JUMPDEST PUSH2 0x324 PUSH2 0x532 CALLDATASIZE PUSH1 0x4 PUSH2 0x58C9 JUMP JUMPDEST PUSH2 0x1CC8 JUMP JUMPDEST PUSH2 0x54A PUSH2 0x545 CALLDATASIZE PUSH1 0x4 PUSH2 0x540F JUMP JUMPDEST PUSH2 0x1DE2 JUMP JUMPDEST PUSH1 0x40 MLOAD PUSH2 0x34E SWAP11 SWAP10 SWAP9 SWAP8 SWAP7 SWAP6 SWAP5 SWAP4 SWAP3 SWAP2 SWAP1 PUSH2 0x5942 JUMP JUMPDEST PUSH2 0x4FD PUSH2 0x56E CALLDATASIZE PUSH1 0x4 PUSH2 0x540F JUMP JUMPDEST PUSH2 0x2067 JUMP JUMPDEST PUSH1 0x8 SLOAD PUSH2 0x42A JUMP JUMPDEST PUSH2 0x58E PUSH2 0x589 CALLDATASIZE PUSH1 0x4 PUSH2 0x5606 JUMP JUMPDEST PUSH2 0x21C8 JUMP JUMPDEST PUSH1 0x40 MLOAD PUSH2 0x34E SWAP9 SWAP8 SWAP7 SWAP6 SWAP5 SWAP4 SWAP3 SWAP2 SWAP1 PUSH2 0x59DF JUMP JUMPDEST PUSH2 0x5B5 PUSH2 0x5B0 CALLDATASIZE PUSH1 0x4 PUSH2 0x56B1 JUMP JUMPDEST PUSH2 0x23CE JUMP JUMPDEST PUSH1 0x40 MLOAD SWAP1 ISZERO ISZERO DUP2 MSTORE PUSH1 0x20 ADD PUSH2 0x34E JUMP JUMPDEST PUSH2 0x38A PUSH2 0x5D3 CALLDATASIZE PUSH1 0x4 PUSH2 0x540F JUMP JUMPDEST PUSH2 0x2428 JUMP JUMPDEST PUSH2 0x58E PUSH2 0x5E6 CALLDATASIZE PUSH1 0x4 PUSH2 0x5606 JUMP JUMPDEST PUSH2 0x2438 JUMP JUMPDEST PUSH2 0x5FE PUSH2 0x5F9 CALLDATASIZE PUSH1 0x4 PUSH2 0x5606 JUMP JUMPDEST PUSH2 0x26DC JUMP JUMPDEST PUSH1 0x40 MLOAD PUSH2 0x34E SWAP10 SWAP9 SWAP8 SWAP7 SWAP6 SWAP5 SWAP4 SWAP3 SWAP2 SWAP1 PUSH2 0x5A54 JUMP JUMPDEST PUSH1 0xD SLOAD PUSH2 0x38A SWAP1 PUSH1 0x1 PUSH1 0x1 PUSH1 0xA0 SHL SUB AND DUP2 JUMP JUMPDEST PUSH2 0x414 PUSH2 0x634 CALLDATASIZE PUSH1 0x4 PUSH2 0x56B1 JUMP JUMPDEST PUSH2 0x29F8 JUMP JUMPDEST PUSH2 0x324 PUSH2 0x647 CALLDATASIZE PUSH1 0x4 PUSH2 0x5AED JUMP JUMPDEST PUSH2 0x2BA2 JUMP JUMPDEST PUSH2 0x3ED PUSH2 0x65A CALLDATASIZE PUSH1 0x4 PUSH2 0x5606 JUMP JUMPDEST PUSH2 0x2D0C JUMP JUMPDEST PUSH2 0x682 PUSH2 0x66D CALLDATASIZE PUSH1 0x4 PUSH2 0x56B1 JUMP JUMPDEST PUSH1 0x6 PUSH1 0x20 MSTORE PUSH1 0x0 SWAP1 DUP2 MSTORE PUSH1 0x40 SWAP1 KECCAK256 SLOAD PUSH1 0xFF AND DUP2 JUMP JUMPDEST PUSH1 0x40 MLOAD PUSH2 0x34E SWAP2 SWAP1 PUSH2 0x5B71 JUMP JUMPDEST PUSH2 0x339 PUSH2 0x69D CALLDATASIZE PUSH1 0x4 PUSH2 0x540F JUMP JUMPDEST PUSH2 0x2F29 JUMP JUMPDEST PUSH2 0x42A PUSH2 0x6B0 CALLDATASIZE PUSH1 0x4 PUSH2 0x56B1 JUMP JUMPDEST PUSH1 0x1 PUSH1 0x1 PUSH1 0xA0 SHL SUB AND PUSH1 0x0 SWAP1 DUP2 MSTORE PUSH1 0x1 PUSH1 0x20 MSTORE PUSH1 0x40 SWAP1 KECCAK256 SLOAD SWAP1 JUMP JUMPDEST PUSH1 0x9 SLOAD PUSH2 0x42A JUMP JUMPDEST PUSH2 0x6E6 PUSH2 0x6E1 CALLDATASIZE PUSH1 0x4 PUSH2 0x56B1 JUMP JUMPDEST PUSH2 0x3180 JUMP JUMPDEST PUSH1 0x40 MLOAD PUSH2 0x34E SWAP6 SWAP5 SWAP4 SWAP3 SWAP2 SWAP1 PUSH2 0x5B84 JUMP JUMPDEST PUSH2 0x6E6 PUSH2 0x705 CALLDATASIZE PUSH1 0x4 PUSH2 0x540F JUMP JUMPDEST PUSH2 0x32CD JUMP JUMPDEST PUSH2 0x54A PUSH2 0x718 CALLDATASIZE PUSH1 0x4 PUSH2 0x540F JUMP JUMPDEST PUSH2 0x34FA JUMP JUMPDEST PUSH2 0x42A PUSH1 0xC SLOAD DUP2 JUMP JUMPDEST PUSH2 0x324 PUSH2 0x734 CALLDATASIZE PUSH1 0x4 PUSH2 0x540F JUMP JUMPDEST PUSH2 0x3842 JUMP JUMPDEST PUSH2 0x42A PUSH2 0x747 CALLDATASIZE PUSH1 0x4 PUSH2 0x56B1 JUMP JUMPDEST PUSH1 0x1 PUSH1 0x1 PUSH1 0xA0 SHL SUB AND PUSH1 0x0 SWAP1 DUP2 MSTORE PUSH1 0x20 DUP2 SWAP1 MSTORE PUSH1 0x40 SWAP1 KECCAK256 SLOAD SWAP1 JUMP JUMPDEST PUSH2 0x6E6 PUSH2 0x770 CALLDATASIZE PUSH1 0x4 PUSH2 0x56B1 JUMP JUMPDEST PUSH2 0x3D42 JUMP JUMPDEST PUSH2 0x788 PUSH2 0x783 CALLDATASIZE PUSH1 0x4 PUSH2 0x56B1 JUMP JUMPDEST PUSH2 0x3F0A JUMP JUMPDEST PUSH1 0x40 MLOAD PUSH2 0x34E SWAP5 SWAP4 SWAP3 SWAP2 SWAP1 PUSH2 0x5BDC JUMP JUMPDEST PUSH2 0x42A PUSH1 0x8 SLOAD DUP2 JUMP JUMPDEST PUSH2 0x324 PUSH2 0x7AF CALLDATASIZE PUSH1 0x4 PUSH2 0x540F JUMP JUMPDEST PUSH2 0x40C9 JUMP JUMPDEST PUSH2 0x324 PUSH2 0x7C2 CALLDATASIZE PUSH1 0x4 PUSH2 0x5C2D JUMP JUMPDEST PUSH2 0x41B5 JUMP JUMPDEST PUSH2 0x5FE PUSH2 0x7D5 CALLDATASIZE PUSH1 0x4 PUSH2 0x5606 JUMP JUMPDEST PUSH2 0x4FF2 JUMP JUMPDEST PUSH1 0xC SLOAD PUSH2 0x42A JUMP JUMPDEST PUSH1 0x1 DUP1 CALLER PUSH1 0x0 SWAP1 DUP2 MSTORE PUSH1 0x6 PUSH1 0x20 MSTORE PUSH1 0x40 SWAP1 KECCAK256 SLOAD PUSH1 0xFF AND PUSH1 0x2 DUP2 GT ISZERO PUSH2 0x809 JUMPI PUSH2 0x809 PUSH2 0x555A JUMP JUMPDEST EQ PUSH2 0x82F JUMPI PUSH1 0x40 MLOAD PUSH3 0x461BCD PUSH1 0xE5 SHL DUP2 MSTORE PUSH1 0x4 ADD PUSH2 0x826 SWAP1 PUSH2 0x5C4F JUMP JUMPDEST PUSH1 0x40 MLOAD DUP1 SWAP2 SUB SWAP1 REVERT JUMPDEST POP PUSH1 0x0 SWAP1 DUP2 MSTORE PUSH1 0x3 PUSH1 0x20 SWAP1 DUP2 MSTORE PUSH1 0x40 DUP1 DUP4 KECCAK256 PUSH1 0x4 SWAP1 SWAP3 MSTORE SWAP1 SWAP2 KECCAK256 PUSH1 0x6 ADD DUP1 SLOAD PUSH1 0xFF PUSH1 0xA0 SHL NOT AND PUSH1 0x1 PUSH1 0xA0 SHL OR SWAP1 SSTORE PUSH1 0x9 ADD DUP1 SLOAD PUSH1 0xFF NOT AND PUSH1 0x1 OR SWAP1 SSTORE JUMP JUMPDEST PUSH1 0x7 PUSH1 0x20 MSTORE PUSH1 0x0 SWAP1 DUP2 MSTORE PUSH1 0x40 SWAP1 KECCAK256 DUP1 SLOAD DUP2 SWAP1 PUSH2 0x888 SWAP1 PUSH2 0x5C86 JUMP JUMPDEST DUP1 PUSH1 0x1F ADD PUSH1 0x20 DUP1 SWAP2 DIV MUL PUSH1 0x20 ADD PUSH1 0x40 MLOAD SWAP1 DUP2 ADD PUSH1 0x40 MSTORE DUP1 SWAP3 SWAP2 SWAP1 DUP2 DUP2 MSTORE PUSH1 0x20 ADD DUP3 DUP1 SLOAD PUSH2 0x8B4 SWAP1 PUSH2 0x5C86 JUMP JUMPDEST DUP1 ISZERO PUSH2 0x901 JUMPI DUP1 PUSH1 0x1F LT PUSH2 0x8D6 JUMPI PUSH2 0x100 DUP1 DUP4 SLOAD DIV MUL DUP4 MSTORE SWAP2 PUSH1 0x20 ADD SWAP2 PUSH2 0x901 JUMP JUMPDEST DUP3 ADD SWAP2 SWAP1 PUSH1 0x0 MSTORE PUSH1 0x20 PUSH1 0x0 KECCAK256 SWAP1 JUMPDEST DUP2 SLOAD DUP2 MSTORE SWAP1 PUSH1 0x1 ADD SWAP1 PUSH1 0x20 ADD DUP1 DUP4 GT PUSH2 0x8E4 JUMPI DUP3 SWAP1 SUB PUSH1 0x1F AND DUP3 ADD SWAP2 JUMPDEST POP POP POP POP POP SWAP1 DUP1 PUSH1 0x1 ADD DUP1 SLOAD PUSH2 0x916 SWAP1 PUSH2 0x5C86 JUMP JUMPDEST DUP1 PUSH1 0x1F ADD PUSH1 0x20 DUP1 SWAP2 DIV MUL PUSH1 0x20 ADD PUSH1 0x40 MLOAD SWAP1 DUP2 ADD PUSH1 0x40 MSTORE DUP1 SWAP3 SWAP2 SWAP1 DUP2 DUP2 MSTORE PUSH1 0x20 ADD DUP3 DUP1 SLOAD PUSH2 0x942 SWAP1 PUSH2 0x5C86 JUMP JUMPDEST DUP1 ISZERO PUSH2 0x98F JUMPI DUP1 PUSH1 0x1F LT PUSH2 0x964 JUMPI PUSH2 0x100 DUP1 DUP4 SLOAD DIV MUL DUP4 MSTORE SWAP2 PUSH1 0x20 ADD SWAP2 PUSH2 0x98F JUMP JUMPDEST DUP3 ADD SWAP2 SWAP1 PUSH1 0x0 MSTORE PUSH1 0x20 PUSH1 0x0 KECCAK256 SWAP1 JUMPDEST DUP2 SLOAD DUP2 MSTORE SWAP1 PUSH1 0x1 ADD SWAP1 PUSH1 0x20 ADD DUP1 DUP4 GT PUSH2 0x972 JUMPI DUP3 SWAP1 SUB PUSH1 0x1F AND DUP3 ADD SWAP2 JUMPDEST POP POP POP PUSH1 0x2 DUP5 ADD SLOAD PUSH1 0x3 DUP6 ADD SLOAD PUSH1 0x4 DUP7 ADD SLOAD PUSH1 0x5 DUP8 ADD SLOAD PUSH1 0x6 DUP9 ADD SLOAD PUSH1 0x7 DUP10 ADD SLOAD PUSH1 0x8 SWAP1 SWAP10 ADD SLOAD SWAP8 SWAP9 PUSH1 0x1 PUSH1 0x1 PUSH1 0xA0 SHL SUB SWAP6 DUP7 AND SWAP9 SWAP5 DUP7 AND SWAP8 POP SWAP3 SWAP1 SWAP5 AND SWAP5 POP SWAP3 SWAP2 DUP10 JUMP JUMPDEST PUSH1 0x60 PUSH1 0x0 DUP3 PUSH1 0x2 DUP2 GT ISZERO PUSH2 0x9EA JUMPI PUSH2 0x9EA PUSH2 0x555A JUMP JUMPDEST SUB PUSH2 0xA51 JUMPI PUSH1 0x11 DUP1 SLOAD DUP1 PUSH1 0x20 MUL PUSH1 0x20 ADD PUSH1 0x40 MLOAD SWAP1 DUP2 ADD PUSH1 0x40 MSTORE DUP1 SWAP3 SWAP2 SWAP1 DUP2 DUP2 MSTORE PUSH1 0x20 ADD DUP3 DUP1 SLOAD DUP1 ISZERO PUSH2 0xA45 JUMPI PUSH1 0x20 MUL DUP3 ADD SWAP2 SWAP1 PUSH1 0x0 MSTORE PUSH1 0x20 PUSH1 0x0 KECCAK256 SWAP1 JUMPDEST DUP2 SLOAD PUSH1 0x1 PUSH1 0x1 PUSH1 0xA0 SHL SUB AND DUP2 MSTORE PUSH1 0x1 SWAP1 SWAP2 ADD SWAP1 PUSH1 0x20 ADD DUP1 DUP4 GT PUSH2 0xA27 JUMPI JUMPDEST POP POP POP POP POP SWAP1 POP SWAP2 SWAP1 POP JUMP JUMPDEST PUSH1 0x1 DUP3 PUSH1 0x2 DUP2 GT ISZERO PUSH2 0xA65 JUMPI PUSH2 0xA65 PUSH2 0x555A JUMP JUMPDEST SUB PUSH2 0xACA JUMPI PUSH1 0x12 DUP1 SLOAD DUP1 PUSH1 0x20 MUL PUSH1 0x20 ADD PUSH1 0x40 MLOAD SWAP1 DUP2 ADD PUSH1 0x40 MSTORE DUP1 SWAP3 SWAP2 SWAP1 DUP2 DUP2 MSTORE PUSH1 0x20 ADD DUP3 DUP1 SLOAD DUP1 ISZERO PUSH2 0xA45 JUMPI PUSH1 0x20 MUL DUP3 ADD SWAP2 SWAP1 PUSH1 0x0 MSTORE PUSH1 0x20 PUSH1 0x0 KECCAK256 SWAP1 DUP2 SLOAD PUSH1 0x1 PUSH1 0x1 PUSH1 0xA0 SHL SUB AND DUP2 MSTORE PUSH1 0x1 SWAP1 SWAP2 ADD SWAP1 PUSH1 0x20 ADD DUP1 DUP4 GT PUSH2 0xA27 JUMPI POP POP POP POP POP SWAP1 POP SWAP2 SWAP1 POP JUMP JUMPDEST PUSH1 0x2 DUP3 PUSH1 0x2 DUP2 GT ISZERO PUSH2 0xADE JUMPI PUSH2 0xADE PUSH2 0x555A JUMP JUMPDEST SUB PUSH2 0xB43 JUMPI PUSH1 0x13 DUP1 SLOAD DUP1 PUSH1 0x20 MUL PUSH1 0x20 ADD PUSH1 0x40 MLOAD SWAP1 DUP2 ADD PUSH1 0x40 MSTORE DUP1 SWAP3 SWAP2 SWAP1 DUP2 DUP2 MSTORE PUSH1 0x20 ADD DUP3 DUP1 SLOAD DUP1 ISZERO PUSH2 0xA45 JUMPI PUSH1 0x20 MUL DUP3 ADD SWAP2 SWAP1 PUSH1 0x0 MSTORE PUSH1 0x20 PUSH1 0x0 KECCAK256 SWAP1 DUP2 SLOAD PUSH1 0x1 PUSH1 0x1 PUSH1 0xA0 SHL SUB AND DUP2 MSTORE PUSH1 0x1 SWAP1 SWAP2 ADD SWAP1 PUSH1 0x20 ADD DUP1 DUP4 GT PUSH2 0xA27 JUMPI POP POP POP POP POP SWAP1 POP SWAP2 SWAP1 POP JUMP JUMPDEST POP PUSH1 0x60 SWAP2 SWAP1 POP JUMP JUMPDEST PUSH1 0x13 DUP2 DUP2 SLOAD DUP2 LT PUSH2 0xB5B JUMPI PUSH1 0x0 DUP1 REVERT JUMPDEST PUSH1 0x0 SWAP2 DUP3 MSTORE PUSH1 0x20 SWAP1 SWAP2 KECCAK256 ADD SLOAD PUSH1 0x1 PUSH1 0x1 PUSH1 0xA0 SHL SUB AND SWAP1 POP DUP2 JUMP JUMPDEST PUSH1 0x0 PUSH1 0x60 DUP1 PUSH1 0x0 DUP1 PUSH1 0x0 DUP1 DUP8 GT DUP1 ISZERO PUSH2 0xB90 JUMPI POP PUSH1 0xB SLOAD DUP8 GT ISZERO JUMPDEST PUSH2 0xBDC JUMPI PUSH1 0x40 MLOAD PUSH3 0x461BCD PUSH1 0xE5 SHL DUP2 MSTORE PUSH1 0x20 PUSH1 0x4 DUP3 ADD MSTORE PUSH1 0x1A PUSH1 0x24 DUP3 ADD MSTORE PUSH32 0x496E76616C69642070656E64696E672072657175657374204944000000000000 PUSH1 0x44 DUP3 ADD MSTORE PUSH1 0x64 ADD PUSH2 0x826 JUMP JUMPDEST PUSH1 0x0 DUP8 DUP2 MSTORE PUSH1 0x5 PUSH1 0x20 SWAP1 DUP2 MSTORE PUSH1 0x40 DUP1 DUP4 KECCAK256 DUP2 MLOAD PUSH1 0xC0 DUP2 ADD SWAP1 SWAP3 MSTORE DUP1 SLOAD PUSH1 0x1 PUSH1 0x1 PUSH1 0xA0 SHL SUB AND DUP3 MSTORE PUSH1 0x1 DUP2 ADD DUP1 SLOAD SWAP3 SWAP4 SWAP2 SWAP3 SWAP2 DUP5 ADD SWAP2 PUSH2 0xC1A SWAP1 PUSH2 0x5C86 JUMP JUMPDEST DUP1 PUSH1 0x1F ADD PUSH1 0x20 DUP1 SWAP2 DIV MUL PUSH1 0x20 ADD PUSH1 0x40 MLOAD SWAP1 DUP2 ADD PUSH1 0x40 MSTORE DUP1 SWAP3 SWAP2 SWAP1 DUP2 DUP2 MSTORE PUSH1 0x20 ADD DUP3 DUP1 SLOAD PUSH2 0xC46 SWAP1 PUSH2 0x5C86 JUMP JUMPDEST DUP1 ISZERO PUSH2 0xC93 JUMPI DUP1 PUSH1 0x1F LT PUSH2 0xC68 JUMPI PUSH2 0x100 DUP1 DUP4 SLOAD DIV MUL DUP4 MSTORE SWAP2 PUSH1 0x20 ADD SWAP2 PUSH2 0xC93 JUMP JUMPDEST DUP3 ADD SWAP2 SWAP1 PUSH1 0x0 MSTORE PUSH1 0x20 PUSH1 0x0 KECCAK256 SWAP1 JUMPDEST DUP2 SLOAD DUP2 MSTORE SWAP1 PUSH1 0x1 ADD SWAP1 PUSH1 0x20 ADD DUP1 DUP4 GT PUSH2 0xC76 JUMPI DUP3 SWAP1 SUB PUSH1 0x1F AND DUP3 ADD SWAP2 JUMPDEST POP POP POP POP POP DUP2 MSTORE PUSH1 0x20 ADD PUSH1 0x2 DUP3 ADD DUP1 SLOAD PUSH2 0xCAC SWAP1 PUSH2 0x5C86 JUMP JUMPDEST DUP1 PUSH1 0x1F ADD PUSH1 0x20 DUP1 SWAP2 DIV MUL PUSH1 0x20 ADD PUSH1 0x40 MLOAD SWAP1 DUP2 ADD PUSH1 0x40 MSTORE DUP1 SWAP3 SWAP2 SWAP1 DUP2 DUP2 MSTORE PUSH1 0x20 ADD DUP3 DUP1 SLOAD PUSH2 0xCD8 SWAP1 PUSH2 0x5C86 JUMP JUMPDEST DUP1 ISZERO PUSH2 0xD25 JUMPI DUP1 PUSH1 0x1F LT PUSH2 0xCFA JUMPI PUSH2 0x100 DUP1 DUP4 SLOAD DIV MUL DUP4 MSTORE SWAP2 PUSH1 0x20 ADD SWAP2 PUSH2 0xD25 JUMP JUMPDEST DUP3 ADD SWAP2 SWAP1 PUSH1 0x0 MSTORE PUSH1 0x20 PUSH1 0x0 KECCAK256 SWAP1 JUMPDEST DUP2 SLOAD DUP2 MSTORE SWAP1 PUSH1 0x1 ADD SWAP1 PUSH1 0x20 ADD DUP1 DUP4 GT PUSH2 0xD08 JUMPI DUP3 SWAP1 SUB PUSH1 0x1F AND DUP3 ADD SWAP2 JUMPDEST POP POP POP SWAP2 DUP4 MSTORE POP POP PUSH1 0x3 DUP3 ADD SLOAD PUSH1 0x20 SWAP1 SWAP2 ADD SWAP1 PUSH1 0xFF AND PUSH1 0x2 DUP2 GT ISZERO PUSH2 0xD4C JUMPI PUSH2 0xD4C PUSH2 0x555A JUMP JUMPDEST PUSH1 0x2 DUP2 GT ISZERO PUSH2 0xD5D JUMPI PUSH2 0xD5D PUSH2 0x555A JUMP JUMPDEST DUP2 MSTORE PUSH1 0x3 SWAP2 SWAP1 SWAP2 ADD SLOAD PUSH1 0xFF PUSH2 0x100 DUP3 DIV DUP2 AND ISZERO ISZERO PUSH1 0x20 DUP1 DUP6 ADD SWAP2 SWAP1 SWAP2 MSTORE PUSH3 0x10000 SWAP1 SWAP3 DIV AND ISZERO ISZERO PUSH1 0x40 SWAP3 DUP4 ADD MSTORE DUP3 MLOAD SWAP1 DUP4 ADD MLOAD SWAP2 DUP4 ADD MLOAD PUSH1 0x60 DUP5 ADD MLOAD PUSH1 0x80 DUP6 ADD MLOAD PUSH1 0xA0 SWAP1 SWAP6 ADD MLOAD SWAP3 SWAP14 SWAP4 SWAP13 POP SWAP1 SWAP11 POP SWAP9 POP SWAP2 SWAP7 POP SWAP1 SWAP5 POP SWAP3 POP POP POP JUMP JUMPDEST PUSH1 0x12 DUP2 DUP2 SLOAD DUP2 LT PUSH2 0xB5B JUMPI PUSH1 0x0 DUP1 REVERT JUMPDEST PUSH1 0x1 PUSH1 0x1 PUSH1 0xA0 SHL SUB DUP3 AND PUSH1 0x0 SWAP1 DUP2 MSTORE PUSH1 0x20 DUP2 SWAP1 MSTORE PUSH1 0x40 DUP2 KECCAK256 SLOAD DUP2 SWAP1 PUSH1 0x60 SWAP1 DUP2 SWAP1 DUP4 SWAP1 DUP3 SWAP1 DUP3 SWAP1 DUP2 SWAP1 DUP10 LT PUSH2 0xE36 JUMPI PUSH1 0x40 MLOAD PUSH3 0x461BCD PUSH1 0xE5 SHL DUP2 MSTORE PUSH1 0x20 PUSH1 0x4 DUP3 ADD MSTORE PUSH1 0x13 PUSH1 0x24 DUP3 ADD MSTORE PUSH19 0x496E646578206F7574206F6620626F756E6473 PUSH1 0x68 SHL PUSH1 0x44 DUP3 ADD MSTORE PUSH1 0x64 ADD PUSH2 0x826 JUMP JUMPDEST PUSH1 0x1 PUSH1 0x1 PUSH1 0xA0 SHL SUB DUP11 AND PUSH1 0x0 SWAP1 DUP2 MSTORE PUSH1 0x20 DUP2 SWAP1 MSTORE PUSH1 0x40 DUP2 KECCAK256 DUP1 SLOAD DUP12 SWAP1 DUP2 LT PUSH2 0xE60 JUMPI PUSH2 0xE60 PUSH2 0x5CC0 JUMP JUMPDEST SWAP1 PUSH1 0x0 MSTORE PUSH1 0x20 PUSH1 0x0 KECCAK256 SWAP1 PUSH1 0x8 MUL ADD PUSH1 0x40 MLOAD DUP1 PUSH2 0x100 ADD PUSH1 0x40 MSTORE SWAP1 DUP2 PUSH1 0x0 DUP3 ADD SLOAD DUP2 MSTORE PUSH1 0x20 ADD PUSH1 0x1 DUP3 ADD PUSH1 0x0 SWAP1 SLOAD SWAP1 PUSH2 0x100 EXP SWAP1 DIV PUSH1 0x1 PUSH1 0x1 PUSH1 0xA0 SHL SUB AND PUSH1 0x1 PUSH1 0x1 PUSH1 0xA0 SHL SUB AND PUSH1 0x1 PUSH1 0x1 PUSH1 0xA0 SHL SUB AND DUP2 MSTORE PUSH1 0x20 ADD PUSH1 0x2 DUP3 ADD DUP1 SLOAD PUSH2 0xEC3 SWAP1 PUSH2 0x5C86 JUMP JUMPDEST DUP1 PUSH1 0x1F ADD PUSH1 0x20 DUP1 SWAP2 DIV MUL PUSH1 0x20 ADD PUSH1 0x40 MLOAD SWAP1 DUP2 ADD PUSH1 0x40 MSTORE DUP1 SWAP3 SWAP2 SWAP1 DUP2 DUP2 MSTORE PUSH1 0x20 ADD DUP3 DUP1 SLOAD PUSH2 0xEEF SWAP1 PUSH2 0x5C86 JUMP JUMPDEST DUP1 ISZERO PUSH2 0xF3C JUMPI DUP1 PUSH1 0x1F LT PUSH2 0xF11 JUMPI PUSH2 0x100 DUP1 DUP4 SLOAD DIV MUL DUP4 MSTORE SWAP2 PUSH1 0x20 ADD SWAP2 PUSH2 0xF3C JUMP JUMPDEST DUP3 ADD SWAP2 SWAP1 PUSH1 0x0 MSTORE PUSH1 0x20 PUSH1 0x0 KECCAK256 SWAP1 JUMPDEST DUP2 SLOAD DUP2 MSTORE SWAP1 PUSH1 0x1 ADD SWAP1 PUSH1 0x20 ADD DUP1 DUP4 GT PUSH2 0xF1F JUMPI DUP3 SWAP1 SUB PUSH1 0x1F AND DUP3 ADD SWAP2 JUMPDEST POP POP POP POP POP DUP2 MSTORE PUSH1 0x20 ADD PUSH1 0x3 DUP3 ADD DUP1 SLOAD PUSH2 0xF55 SWAP1 PUSH2 0x5C86 JUMP JUMPDEST DUP1 PUSH1 0x1F ADD PUSH1 0x20 DUP1 SWAP2 DIV MUL PUSH1 0x20 ADD PUSH1 0x40 MLOAD SWAP1 DUP2 ADD PUSH1 0x40 MSTORE DUP1 SWAP3 SWAP2 SWAP1 DUP2 DUP2 MSTORE PUSH1 0x20 ADD DUP3 DUP1 SLOAD PUSH2 0xF81 SWAP1 PUSH2 0x5C86 JUMP JUMPDEST DUP1 ISZERO PUSH2 0xFCE JUMPI DUP1 PUSH1 0x1F LT PUSH2 0xFA3 JUMPI PUSH2 0x100 DUP1 DUP4 SLOAD DIV MUL DUP4 MSTORE SWAP2 PUSH1 0x20 ADD SWAP2 PUSH2 0xFCE JUMP JUMPDEST DUP3 ADD SWAP2 SWAP1 PUSH1 0x0 MSTORE PUSH1 0x20 PUSH1 0x0 KECCAK256 SWAP1 JUMPDEST DUP2 SLOAD DUP2 MSTORE SWAP1 PUSH1 0x1 ADD SWAP1 PUSH1 0x20 ADD DUP1 DUP4 GT PUSH2 0xFB1 JUMPI DUP3 SWAP1 SUB PUSH1 0x1F AND DUP3 ADD SWAP2 JUMPDEST POP POP POP SWAP2 DUP4 MSTORE POP POP PUSH1 0x4 DUP3 ADD SLOAD PUSH1 0x1 PUSH1 0x1 PUSH1 0xA0 SHL SUB AND PUSH1 0x20 DUP3 ADD MSTORE PUSH1 0x5 DUP3 ADD DUP1 SLOAD PUSH1 0x40 SWAP1 SWAP3 ADD SWAP2 PUSH2 0xFFE SWAP1 PUSH2 0x5C86 JUMP JUMPDEST DUP1 PUSH1 0x1F ADD PUSH1 0x20 DUP1 SWAP2 DIV MUL PUSH1 0x20 ADD PUSH1 0x40 MLOAD SWAP1 DUP2 ADD PUSH1 0x40 MSTORE DUP1 SWAP3 SWAP2 SWAP1 DUP2 DUP2 MSTORE PUSH1 0x20 ADD DUP3 DUP1 SLOAD PUSH2 0x102A SWAP1 PUSH2 0x5C86 JUMP JUMPDEST DUP1 ISZERO PUSH2 0x1077 JUMPI DUP1 PUSH1 0x1F LT PUSH2 0x104C JUMPI PUSH2 0x100 DUP1 DUP4 SLOAD DIV MUL DUP4 MSTORE SWAP2 PUSH1 0x20 ADD SWAP2 PUSH2 0x1077 JUMP JUMPDEST DUP3 ADD SWAP2 SWAP1 PUSH1 0x0 MSTORE PUSH1 0x20 PUSH1 0x0 KECCAK256 SWAP1 JUMPDEST DUP2 SLOAD DUP2 MSTORE SWAP1 PUSH1 0x1 ADD SWAP1 PUSH1 0x20 ADD DUP1 DUP4 GT PUSH2 0x105A JUMPI DUP3 SWAP1 SUB PUSH1 0x1F AND DUP3 ADD SWAP2 JUMPDEST POP POP POP SWAP2 DUP4 MSTORE POP POP PUSH1 0x6 DUP3 ADD SLOAD PUSH1 0x1 PUSH1 0x1 PUSH1 0xA0 SHL SUB AND PUSH1 0x20 DUP1 DUP4 ADD SWAP2 SWAP1 SWAP2 MSTORE PUSH1 0x7 SWAP1 SWAP3 ADD SLOAD PUSH1 0x40 SWAP2 DUP3 ADD MSTORE DUP3 MLOAD SWAP2 DUP4 ADD MLOAD SWAP1 DUP4 ADD MLOAD PUSH1 0x60 DUP5 ADD MLOAD PUSH1 0x80 DUP6 ADD MLOAD PUSH1 0xA0 DUP7 ADD MLOAD PUSH1 0xC0 DUP8 ADD MLOAD PUSH1 0xE0 SWAP1 SWAP8 ADD MLOAD SWAP6 SWAP16 POP SWAP4 SWAP14 POP SWAP2 SWAP12 POP SWAP10 POP SWAP8 POP SWAP6 POP SWAP1 SWAP4 POP SWAP2 POP POP SWAP3 SWAP6 SWAP9 POP SWAP3 SWAP6 SWAP9 SWAP1 SWAP4 SWAP7 POP JUMP JUMPDEST PUSH1 0x1 PUSH1 0x1 PUSH1 0xA0 SHL SUB DUP2 AND PUSH1 0x0 SWAP1 DUP2 MSTORE PUSH1 0xE PUSH1 0x20 MSTORE PUSH1 0x40 SWAP1 KECCAK256 PUSH1 0x1 ADD DUP1 SLOAD PUSH1 0x60 SWAP2 SWAP1 PUSH2 0x1112 SWAP1 PUSH2 0x5C86 JUMP JUMPDEST DUP1 PUSH1 0x1F ADD PUSH1 0x20 DUP1 SWAP2 DIV MUL PUSH1 0x20 ADD PUSH1 0x40 MLOAD SWAP1 DUP2 ADD PUSH1 0x40 MSTORE DUP1 SWAP3 SWAP2 SWAP1 DUP2 DUP2 MSTORE PUSH1 0x20 ADD DUP3 DUP1 SLOAD PUSH2 0x113E SWAP1 PUSH2 0x5C86 JUMP JUMPDEST DUP1 ISZERO PUSH2 0xA45 JUMPI DUP1 PUSH1 0x1F LT PUSH2 0x1160 JUMPI PUSH2 0x100 DUP1 DUP4 SLOAD DIV MUL DUP4 MSTORE SWAP2 PUSH1 0x20 ADD SWAP2 PUSH2 0xA45 JUMP JUMPDEST DUP3 ADD SWAP2 SWAP1 PUSH1 0x0 MSTORE PUSH1 0x20 PUSH1 0x0 KECCAK256 SWAP1 JUMPDEST DUP2 SLOAD DUP2 MSTORE SWAP1 PUSH1 0x1 ADD SWAP1 PUSH1 0x20 ADD DUP1 DUP4 GT PUSH2 0x116E JUMPI POP SWAP4 SWAP7 SWAP6 POP POP POP POP POP POP JUMP JUMPDEST PUSH1 0xD SLOAD PUSH1 0x1 PUSH1 0x1 PUSH1 0xA0 SHL SUB AND CALLER EQ PUSH2 0x11B7 JUMPI PUSH1 0x40 MLOAD PUSH3 0x461BCD PUSH1 0xE5 SHL DUP2 MSTORE PUSH1 0x4 ADD PUSH2 0x826 SWAP1 PUSH2 0x5CD6 JUMP JUMPDEST PUSH1 0x1 PUSH1 0x1 PUSH1 0xA0 SHL SUB DUP2 AND PUSH1 0x0 SWAP1 DUP2 MSTORE PUSH1 0xE PUSH1 0x20 MSTORE PUSH1 0x40 DUP2 KECCAK256 DUP1 SLOAD PUSH1 0x1 PUSH1 0x1 PUSH1 0xA0 SHL SUB NOT AND DUP2 SSTORE SWAP1 PUSH2 0x11EB PUSH1 0x1 DUP4 ADD DUP3 PUSH2 0x53B9 JUMP JUMPDEST PUSH2 0x11F9 PUSH1 0x2 DUP4 ADD PUSH1 0x0 PUSH2 0x53B9 JUMP JUMPDEST POP PUSH1 0x0 PUSH1 0x3 DUP3 ADD DUP2 SWAP1 SSTORE PUSH1 0x4 SWAP1 SWAP2 ADD DUP1 SLOAD PUSH1 0xFF NOT SWAP1 DUP2 AND SWAP1 SWAP2 SSTORE PUSH1 0x1 PUSH1 0x1 PUSH1 0xA0 SHL SUB DUP4 AND DUP3 MSTORE PUSH1 0x6 PUSH1 0x20 MSTORE PUSH1 0x40 DUP3 KECCAK256 DUP1 SLOAD SWAP1 SWAP2 AND SWAP1 SSTORE JUMPDEST PUSH1 0xF SLOAD DUP2 LT ISZERO PUSH2 0x132B JUMPI DUP2 PUSH1 0x1 PUSH1 0x1 PUSH1 0xA0 SHL SUB AND PUSH1 0xF DUP3 DUP2 SLOAD DUP2 LT PUSH2 0x1257 JUMPI PUSH2 0x1257 PUSH2 0x5CC0 JUMP JUMPDEST PUSH1 0x0 SWAP2 DUP3 MSTORE PUSH1 0x20 SWAP1 SWAP2 KECCAK256 ADD SLOAD PUSH1 0x1 PUSH1 0x1 PUSH1 0xA0 SHL SUB AND SUB PUSH2 0x1323 JUMPI PUSH1 0xF DUP1 SLOAD PUSH2 0x1281 SWAP1 PUSH1 0x1 SWAP1 PUSH2 0x5D18 JUMP JUMPDEST DUP2 SLOAD DUP2 LT PUSH2 0x1291 JUMPI PUSH2 0x1291 PUSH2 0x5CC0 JUMP JUMPDEST PUSH1 0x0 SWAP2 DUP3 MSTORE PUSH1 0x20 SWAP1 SWAP2 KECCAK256 ADD SLOAD PUSH1 0xF DUP1 SLOAD PUSH1 0x1 PUSH1 0x1 PUSH1 0xA0 SHL SUB SWAP1 SWAP3 AND SWAP2 DUP4 SWAP1 DUP2 LT PUSH2 0x12BD JUMPI PUSH2 0x12BD PUSH2 0x5CC0 JUMP JUMPDEST SWAP1 PUSH1 0x0 MSTORE PUSH1 0x20 PUSH1 0x0 KECCAK256 ADD PUSH1 0x0 PUSH2 0x100 EXP DUP2 SLOAD DUP2 PUSH1 0x1 PUSH1 0x1 PUSH1 0xA0 SHL SUB MUL NOT AND SWAP1 DUP4 PUSH1 0x1 PUSH1 0x1 PUSH1 0xA0 SHL SUB AND MUL OR SWAP1 SSTORE POP PUSH1 0xF DUP1 SLOAD DUP1 PUSH2 0x12FC JUMPI PUSH2 0x12FC PUSH2 0x5D31 JUMP JUMPDEST PUSH1 0x0 DUP3 DUP2 MSTORE PUSH1 0x20 SWAP1 KECCAK256 DUP2 ADD PUSH1 0x0 NOT SWAP1 DUP2 ADD DUP1 SLOAD PUSH1 0x1 PUSH1 0x1 PUSH1 0xA0 SHL SUB NOT AND SWAP1 SSTORE ADD SWAP1 SSTORE PUSH2 0x132B JUMP JUMPDEST PUSH1 0x1 ADD PUSH2 0x1230 JUMP JUMPDEST POP PUSH1 0xC DUP1 SLOAD SWAP1 PUSH1 0x0 PUSH2 0x133C DUP4 PUSH2 0x5D47 JUMP JUMPDEST SWAP2 SWAP1 POP SSTORE POP POP JUMP JUMPDEST PUSH1 0x60 DUP1 PUSH1 0x0 DUP1 DUP1 DUP1 DUP1 DUP1 DUP1 PUSH1 0x1 JUMPDEST PUSH1 0xA SLOAD DUP2 GT PUSH2 0x15DF JUMPI DUP11 DUP1 MLOAD SWAP1 PUSH1 0x20 ADD KECCAK256 PUSH1 0x7 PUSH1 0x0 DUP4 DUP2 MSTORE PUSH1 0x20 ADD SWAP1 DUP2 MSTORE PUSH1 0x20 ADD PUSH1 0x0 KECCAK256 PUSH1 0x0 ADD PUSH1 0x40 MLOAD PUSH2 0x1386 SWAP2 SWAP1 PUSH2 0x5D5E JUMP JUMPDEST PUSH1 0x40 MLOAD DUP1 SWAP2 SUB SWAP1 KECCAK256 SUB PUSH2 0x15CD JUMPI PUSH1 0x0 DUP2 DUP2 MSTORE PUSH1 0x7 PUSH1 0x20 MSTORE PUSH1 0x40 DUP1 DUP3 KECCAK256 DUP2 MLOAD PUSH2 0x120 DUP2 ADD SWAP1 SWAP3 MSTORE DUP1 SLOAD DUP3 SWAP1 DUP3 SWAP1 PUSH2 0x13BB SWAP1 PUSH2 0x5C86 JUMP JUMPDEST DUP1 PUSH1 0x1F ADD PUSH1 0x20 DUP1 SWAP2 DIV MUL PUSH1 0x20 ADD PUSH1 0x40 MLOAD SWAP1 DUP2 ADD PUSH1 0x40 MSTORE DUP1 SWAP3 SWAP2 SWAP1 DUP2 DUP2 MSTORE PUSH1 0x20 ADD DUP3 DUP1 SLOAD PUSH2 0x13E7 SWAP1 PUSH2 0x5C86 JUMP JUMPDEST DUP1 ISZERO PUSH2 0x1434 JUMPI DUP1 PUSH1 0x1F LT PUSH2 0x1409 JUMPI PUSH2 0x100 DUP1 DUP4 SLOAD DIV MUL DUP4 MSTORE SWAP2 PUSH1 0x20 ADD SWAP2 PUSH2 0x1434 JUMP JUMPDEST DUP3 ADD SWAP2 SWAP1 PUSH1 0x0 MSTORE PUSH1 0x20 PUSH1 0x0 KECCAK256 SWAP1 JUMPDEST DUP2 SLOAD DUP2 MSTORE SWAP1 PUSH1 0x1 ADD SWAP1 PUSH1 0x20 ADD DUP1 DUP4 GT PUSH2 0x1417 JUMPI DUP3 SWAP1 SUB PUSH1 0x1F AND DUP3 ADD SWAP2 JUMPDEST POP POP POP POP POP DUP2 MSTORE PUSH1 0x20 ADD PUSH1 0x1 DUP3 ADD DUP1 SLOAD PUSH2 0x144D SWAP1 PUSH2 0x5C86 JUMP JUMPDEST DUP1 PUSH1 0x1F ADD PUSH1 0x20 DUP1 SWAP2 DIV MUL PUSH1 0x20 ADD PUSH1 0x40 MLOAD SWAP1 DUP2 ADD PUSH1 0x40 MSTORE DUP1 SWAP3 SWAP2 SWAP1 DUP2 DUP2 MSTORE PUSH1 0x20 ADD DUP3 DUP1 SLOAD PUSH2 0x1479 SWAP1 PUSH2 0x5C86 JUMP JUMPDEST DUP1 ISZERO PUSH2 0x14C6 JUMPI DUP1 PUSH1 0x1F LT PUSH2 0x149B JUMPI PUSH2 0x100 DUP1 DUP4 SLOAD DIV MUL DUP4 MSTORE SWAP2 PUSH1 0x20 ADD SWAP2 PUSH2 0x14C6 JUMP JUMPDEST DUP3 ADD SWAP2 SWAP1 PUSH1 0x0 MSTORE PUSH1 0x20 PUSH1 0x0 KECCAK256 SWAP1 JUMPDEST DUP2 SLOAD DUP2 MSTORE SWAP1 PUSH1 0x1 ADD SWAP1 PUSH1 0x20 ADD DUP1 DUP4 GT PUSH2 0x14A9 JUMPI DUP3 SWAP1 SUB PUSH1 0x1F AND DUP3 ADD SWAP2 JUMPDEST POP POP POP POP POP DUP2 MSTORE PUSH1 0x20 ADD PUSH1 0x2 DUP3 ADD PUSH1 0x0 SWAP1 SLOAD SWAP1 PUSH2 0x100 EXP SWAP1 DIV PUSH1 0x1 PUSH1 0x1 PUSH1 0xA0 SHL SUB AND PUSH1 0x1 PUSH1 0x1 PUSH1 0xA0 SHL SUB AND PUSH1 0x1 PUSH1 0x1 PUSH1 0xA0 SHL SUB AND DUP2 MSTORE PUSH1 0x20 ADD PUSH1 0x3 DUP3 ADD PUSH1 0x0 SWAP1 SLOAD SWAP1 PUSH2 0x100 EXP SWAP1 DIV PUSH1 0x1 PUSH1 0x1 PUSH1 0xA0 SHL SUB AND PUSH1 0x1 PUSH1 0x1 PUSH1 0xA0 SHL SUB AND PUSH1 0x1 PUSH1 0x1 PUSH1 0xA0 SHL SUB AND DUP2 MSTORE PUSH1 0x20 ADD PUSH1 0x4 DUP3 ADD PUSH1 0x0 SWAP1 SLOAD SWAP1 PUSH2 0x100 EXP SWAP1 DIV PUSH1 0x1 PUSH1 0x1 PUSH1 0xA0 SHL SUB AND PUSH1 0x1 PUSH1 0x1 PUSH1 0xA0 SHL SUB AND PUSH1 0x1 PUSH1 0x1 PUSH1 0xA0 SHL SUB AND DUP2 MSTORE PUSH1 0x20 ADD PUSH1 0x5 DUP3 ADD SLOAD DUP2 MSTORE PUSH1 0x20 ADD PUSH1 0x6 DUP3 ADD SLOAD DUP2 MSTORE PUSH1 0x20 ADD PUSH1 0x7 DUP3 ADD SLOAD DUP2 MSTORE PUSH1 0x20 ADD PUSH1 0x8 DUP3 ADD SLOAD DUP2 MSTORE POP POP SWAP1 POP DUP1 PUSH1 0x0 ADD MLOAD DUP2 PUSH1 0x20 ADD MLOAD DUP3 PUSH1 0x40 ADD MLOAD DUP4 PUSH1 0x60 ADD MLOAD DUP5 PUSH1 0x80 ADD MLOAD DUP6 PUSH1 0xA0 ADD MLOAD DUP7 PUSH1 0xC0 ADD MLOAD DUP8 PUSH1 0xE0 ADD MLOAD DUP9 PUSH2 0x100 ADD MLOAD SWAP11 POP SWAP11 POP SWAP11 POP SWAP11 POP SWAP11 POP SWAP11 POP SWAP11 POP SWAP11 POP SWAP11 POP POP POP PUSH2 0x161C JUMP JUMPDEST DUP1 PUSH2 0x15D7 DUP2 PUSH2 0x5DD3 JUMP JUMPDEST SWAP2 POP POP PUSH2 0x1352 JUMP JUMPDEST POP PUSH1 0x40 MLOAD PUSH3 0x461BCD PUSH1 0xE5 SHL DUP2 MSTORE PUSH1 0x20 PUSH1 0x4 DUP3 ADD MSTORE PUSH1 0x11 PUSH1 0x24 DUP3 ADD MSTORE PUSH17 0x141C9BD91D58DD081B9BDD08199BDD5B99 PUSH1 0x7A SHL PUSH1 0x44 DUP3 ADD MSTORE PUSH1 0x64 ADD PUSH2 0x826 JUMP JUMPDEST SWAP2 SWAP4 SWAP6 SWAP8 SWAP10 SWAP1 SWAP3 SWAP5 SWAP7 SWAP9 POP JUMP JUMPDEST PUSH1 0x0 DUP1 CALLER PUSH1 0x0 SWAP1 DUP2 MSTORE PUSH1 0x6 PUSH1 0x20 MSTORE PUSH1 0x40 SWAP1 KECCAK256 SLOAD PUSH1 0xFF AND PUSH1 0x2 DUP2 GT ISZERO PUSH2 0x1650 JUMPI PUSH2 0x1650 PUSH2 0x555A JUMP JUMPDEST EQ PUSH2 0x166D JUMPI PUSH1 0x40 MLOAD PUSH3 0x461BCD PUSH1 0xE5 SHL DUP2 MSTORE PUSH1 0x4 ADD PUSH2 0x826 SWAP1 PUSH2 0x5C4F JUMP JUMPDEST PUSH1 0x0 DUP8 DUP2 MSTORE PUSH1 0x4 PUSH1 0x20 MSTORE PUSH1 0x40 SWAP1 KECCAK256 PUSH1 0x6 DUP2 ADD SLOAD PUSH1 0x1 PUSH1 0x1 PUSH1 0xA0 SHL SUB AND CALLER EQ PUSH2 0x16C7 JUMPI PUSH1 0x40 MLOAD PUSH3 0x461BCD PUSH1 0xE5 SHL DUP2 MSTORE PUSH1 0x20 PUSH1 0x4 DUP3 ADD MSTORE PUSH1 0xD PUSH1 0x24 DUP3 ADD MSTORE PUSH13 0x4E6F7420796F75722063726F7 PUSH1 0x9C SHL PUSH1 0x44 DUP3 ADD MSTORE PUSH1 0x64 ADD PUSH2 0x826 JUMP JUMPDEST PUSH1 0x9 DUP1 SLOAD SWAP1 PUSH1 0x0 PUSH2 0x16D7 DUP4 PUSH2 0x5DD3 JUMP JUMPDEST SWAP2 SWAP1 POP SSTORE POP PUSH1 0x40 MLOAD DUP1 PUSH2 0x140 ADD PUSH1 0x40 MSTORE DUP1 PUSH1 0x9 SLOAD DUP2 MSTORE PUSH1 0x20 ADD DUP3 PUSH1 0x1 ADD DUP1 SLOAD PUSH2 0x16FF SWAP1 PUSH2 0x5C86 JUMP JUMPDEST DUP1 PUSH1 0x1F ADD PUSH1 0x20 DUP1 SWAP2 DIV MUL PUSH1 0x20 ADD PUSH1 0x40 MLOAD SWAP1 DUP2 ADD PUSH1 0x40 MSTORE DUP1 SWAP3 SWAP2 SWAP1 DUP2 DUP2 MSTORE PUSH1 0x20 ADD DUP3 DUP1 SLOAD PUSH2 0x172B SWAP1 PUSH2 0x5C86 JUMP JUMPDEST DUP1 ISZERO PUSH2 0x1778 JUMPI DUP1 PUSH1 0x1F LT PUSH2 0x174D JUMPI PUSH2 0x100 DUP1 DUP4 SLOAD DIV MUL DUP4 MSTORE SWAP2 PUSH1 0x20 ADD SWAP2 PUSH2 0x1778 JUMP JUMPDEST DUP3 ADD SWAP2 SWAP1 PUSH1 0x0 MSTORE PUSH1 0x20 PUSH1 0x0 KECCAK256 SWAP1 JUMPDEST DUP2 SLOAD DUP2 MSTORE SWAP1 PUSH1 0x1 ADD SWAP1 PUSH1 0x20 ADD DUP1 DUP4 GT PUSH2 0x175B JUMPI DUP3 SWAP1 SUB PUSH1 0x1F AND DUP3 ADD SWAP2 JUMPDEST POP POP POP POP POP DUP2 MSTORE PUSH1 0x20 ADD DUP3 PUSH1 0x2 ADD DUP1 SLOAD PUSH2 0x1791 SWAP1 PUSH2 0x5C86 JUMP JUMPDEST DUP1 PUSH1 0x1F ADD PUSH1 0x20 DUP1 SWAP2 DIV MUL PUSH1 0x20 ADD PUSH1 0x40 MLOAD SWAP1 DUP2 ADD PUSH1 0x40 MSTORE DUP1 SWAP3 SWAP2 SWAP1 DUP2 DUP2 MSTORE PUSH1 0x20 ADD DUP3 DUP1 SLOAD PUSH2 0x17BD SWAP1 PUSH2 0x5C86 JUMP JUMPDEST DUP1 ISZERO PUSH2 0x180A JUMPI DUP1 PUSH1 0x1F LT PUSH2 0x17DF JUMPI PUSH2 0x100 DUP1 DUP4 SLOAD DIV MUL DUP4 MSTORE SWAP2 PUSH1 0x20 ADD SWAP2 PUSH2 0x180A JUMP JUMPDEST DUP3 ADD SWAP2 SWAP1 PUSH1 0x0 MSTORE PUSH1 0x20 PUSH1 0x0 KECCAK256 SWAP1 JUMPDEST DUP2 SLOAD DUP2 MSTORE SWAP1 PUSH1 0x1 ADD SWAP1 PUSH1 0x20 ADD DUP1 DUP4 GT PUSH2 0x17ED JUMPI DUP3 SWAP1 SUB PUSH1 0x1F AND DUP3 ADD SWAP2 JUMPDEST POP POP POP SWAP2 DUP4 MSTORE POP POP CALLER PUSH1 0x20 DUP3 ADD MSTORE PUSH1 0x1 PUSH1 0x1 PUSH1 0xA0 SHL SUB DUP8 DUP2 AND PUSH1 0x40 DUP4 ADD MSTORE DUP9 AND PUSH1 0x60 DUP3 ADD MSTORE PUSH1 0x80 DUP2 ADD DUP7 SWAP1 MSTORE PUSH1 0xA0 DUP2 ADD DUP6 SWAP1 MSTORE PUSH1 0xC0 DUP2 ADD DUP10 SWAP1 MSTORE PUSH1 0xE0 ADD PUSH1 0x1 SWAP1 MSTORE PUSH1 0x9 SLOAD PUSH1 0x0 SWAP1 DUP2 MSTORE PUSH1 0x3 PUSH1 0x20 SWAP1 DUP2 MSTORE PUSH1 0x40 SWAP1 SWAP2 KECCAK256 DUP3 MLOAD DUP2 SSTORE SWAP1 DUP3 ADD MLOAD PUSH1 0x1 DUP3 ADD SWAP1 PUSH2 0x1876 SWAP1 DUP3 PUSH2 0x5E3B JUMP JUMPDEST POP PUSH1 0x40 DUP3 ADD MLOAD PUSH1 0x2 DUP3 ADD SWAP1 PUSH2 0x188B SWAP1 DUP3 PUSH2 0x5E3B JUMP JUMPDEST POP PUSH1 0x60 DUP3 ADD MLOAD PUSH1 0x3 DUP3 ADD DUP1 SLOAD PUSH1 0x1 PUSH1 0x1 PUSH1 0xA0 SHL SUB SWAP3 DUP4 AND PUSH1 0x1 PUSH1 0x1 PUSH1 0xA0 SHL SUB NOT SWAP2 DUP3 AND OR SWAP1 SWAP2 SSTORE PUSH1 0x80 DUP5 ADD MLOAD PUSH1 0x4 DUP5 ADD DUP1 SLOAD SWAP2 DUP5 AND SWAP2 DUP4 AND SWAP2 SWAP1 SWAP2 OR SWAP1 SSTORE PUSH1 0xA0 DUP5 ADD MLOAD PUSH1 0x5 DUP5 ADD DUP1 SLOAD SWAP2 SWAP1 SWAP4 AND SWAP2 AND OR SWAP1 SSTORE PUSH1 0xC0 DUP3 ADD MLOAD PUSH1 0x6 DUP3 ADD SWAP1 PUSH2 0x18F1 SWAP1 DUP3 PUSH2 0x5E3B JUMP JUMPDEST POP PUSH1 0xE0 DUP3 ADD MLOAD PUSH1 0x7 DUP3 ADD SWAP1 PUSH2 0x1906 SWAP1 DUP3 PUSH2 0x5E3B JUMP JUMPDEST POP PUSH2 0x100 DUP3 ADD MLOAD PUSH1 0x8 DUP3 ADD SSTORE PUSH2 0x120 DUP3 ADD MLOAD PUSH1 0x9 DUP3 ADD DUP1 SLOAD PUSH1 0xFF NOT AND PUSH1 0x1 DUP4 PUSH1 0x2 DUP2 GT ISZERO PUSH2 0x1936 JUMPI PUSH2 0x1936 PUSH2 0x555A JUMP JUMPDEST MUL OR SWAP1 SSTORE POP POP POP POP POP POP POP POP POP POP POP JUMP JUMPDEST PUSH1 0x10 DUP2 DUP2 SLOAD DUP2 LT PUSH2 0xB5B JUMPI PUSH1 0x0 DUP1 REVERT JUMPDEST PUSH1 0x5 PUSH1 0x20 MSTORE PUSH1 0x0 SWAP1 DUP2 MSTORE PUSH1 0x40 SWAP1 KECCAK256 DUP1 SLOAD PUSH1 0x1 DUP3 ADD DUP1 SLOAD PUSH1 0x1 PUSH1 0x1 PUSH1 0xA0 SHL SUB SWAP1 SWAP3 AND SWAP3 SWAP2 PUSH2 0x1983 SWAP1 PUSH2 0x5C86 JUMP JUMPDEST DUP1 PUSH1 0x1F ADD PUSH1 0x20 DUP1 SWAP2 DIV MUL PUSH1 0x20 ADD PUSH1 0x40 MLOAD SWAP1 DUP2 ADD PUSH1 0x40 MSTORE DUP1 SWAP3 SWAP2 SWAP1 DUP2 DUP2 MSTORE PUSH1 0x20 ADD DUP3 DUP1 SLOAD PUSH2 0x19AF SWAP1 PUSH2 0x5C86 JUMP JUMPDEST DUP1 ISZERO PUSH2 0x19FC JUMPI DUP1 PUSH1 0x1F LT PUSH2 0x19D1 JUMPI PUSH2 0x100 DUP1 DUP4 SLOAD DIV MUL DUP4 MSTORE SWAP2 PUSH1 0x20 ADD SWAP2 PUSH2 0x19FC JUMP JUMPDEST DUP3 ADD SWAP2 SWAP1 PUSH1 0x0 MSTORE PUSH1 0x20 PUSH1 0x0 KECCAK256 SWAP1 JUMPDEST DUP2 SLOAD DUP2 MSTORE SWAP1 PUSH1 0x1 ADD SWAP1 PUSH1 0x20 ADD DUP1 DUP4 GT PUSH2 0x19DF JUMPI DUP3 SWAP1 SUB PUSH1 0x1F AND DUP3 ADD SWAP2 JUMPDEST POP POP POP POP POP SWAP1 DUP1 PUSH1 0x2 ADD DUP1 SLOAD PUSH2 0x1A11 SWAP1 PUSH2 0x5C86 JUMP JUMPDEST DUP1 PUSH1 0x1F ADD PUSH1 0x20 DUP1 SWAP2 DIV MUL PUSH1 0x20 ADD PUSH1 0x40 MLOAD SWAP1 DUP2 ADD PUSH1 0x40 MSTORE DUP1 SWAP3 SWAP2 SWAP1 DUP2 DUP2 MSTORE PUSH1 0x20 ADD DUP3 DUP1 SLOAD PUSH2 0x1A3D SWAP1 PUSH2 0x5C86 JUMP JUMPDEST DUP1 ISZERO PUSH2 0x1A8A JUMPI DUP1 PUSH1 0x1F LT PUSH2 0x1A5F JUMPI PUSH2 0x100 DUP1 DUP4 SLOAD DIV MUL DUP4 MSTORE SWAP2 PUSH1 0x20 ADD SWAP2 PUSH2 0x1A8A JUMP JUMPDEST DUP3 ADD SWAP2 SWAP1 PUSH1 0x0 MSTORE PUSH1 0x20 PUSH1 0x0 KECCAK256 SWAP1 JUMPDEST DUP2 SLOAD DUP2 MSTORE SWAP1 PUSH1 0x1 ADD SWAP1 PUSH1 0x20 ADD DUP1 DUP4 GT PUSH2 0x1A6D JUMPI DUP3 SWAP1 SUB PUSH1 0x1F AND DUP3 ADD SWAP2 JUMPDEST POP POP POP PUSH1 0x3 SWAP1 SWAP4 ADD SLOAD SWAP2 SWAP3 POP POP PUSH1 0xFF DUP1 DUP3 AND SWAP2 PUSH2 0x100 DUP2 DIV DUP3 AND SWAP2 PUSH3 0x10000 SWAP1 SWAP2 DIV AND DUP7 JUMP JUMPDEST PUSH1 0x0 PUSH1 0x60 DUP1 PUSH1 0x0 DUP1 PUSH1 0x0 DUP1 PUSH1 0x0 DUP1 PUSH1 0x4 PUSH1 0x0 DUP12 DUP2 MSTORE PUSH1 0x20 ADD SWAP1 DUP2 MSTORE PUSH1 0x20 ADD PUSH1 0x0 KECCAK256 PUSH1 0x40 MLOAD DUP1 PUSH2 0x100 ADD PUSH1 0x40 MSTORE SWAP1 DUP2 PUSH1 0x0 DUP3 ADD SLOAD DUP2 MSTORE PUSH1 0x20 ADD PUSH1 0x1 DUP3 ADD DUP1 SLOAD PUSH2 0x1AF7 SWAP1 PUSH2 0x5C86 JUMP JUMPDEST DUP1 PUSH1 0x1F ADD PUSH1 0x20 DUP1 SWAP2 DIV MUL PUSH1 0x20 ADD PUSH1 0x40 MLOAD SWAP1 DUP2 ADD PUSH1 0x40 MSTORE DUP1 SWAP3 SWAP2 SWAP1 DUP2 DUP2 MSTORE PUSH1 0x20 ADD DUP3 DUP1 SLOAD PUSH2 0x1B23 SWAP1 PUSH2 0x5C86 JUMP JUMPDEST DUP1 ISZERO PUSH2 0x1B70 JUMPI DUP1 PUSH1 0x1F LT PUSH2 0x1B45 JUMPI PUSH2 0x100 DUP1 DUP4 SLOAD DIV MUL DUP4 MSTORE SWAP2 PUSH1 0x20 ADD SWAP2 PUSH2 0x1B70 JUMP JUMPDEST DUP3 ADD SWAP2 SWAP1 PUSH1 0x0 MSTORE PUSH1 0x20 PUSH1 0x0 KECCAK256 SWAP1 JUMPDEST DUP2 SLOAD DUP2 MSTORE SWAP1 PUSH1 0x1 ADD SWAP1 PUSH1 0x20 ADD DUP1 DUP4 GT PUSH2 0x1B53 JUMPI DUP3 SWAP1 SUB PUSH1 0x1F AND DUP3 ADD SWAP2 JUMPDEST POP POP POP POP POP DUP2 MSTORE PUSH1 0x20 ADD PUSH1 0x2 DUP3 ADD DUP1 SLOAD PUSH2 0x1B89 SWAP1 PUSH2 0x5C86 JUMP JUMPDEST DUP1 PUSH1 0x1F ADD PUSH1 0x20 DUP1 SWAP2 DIV MUL PUSH1 0x20 ADD PUSH1 0x40 MLOAD SWAP1 DUP2 ADD PUSH1 0x40 MSTORE DUP1 SWAP3 SWAP2 SWAP1 DUP2 DUP2 MSTORE PUSH1 0x20 ADD DUP3 DUP1 SLOAD PUSH2 0x1BB5 SWAP1 PUSH2 0x5C86 JUMP JUMPDEST DUP1 ISZERO PUSH2 0x1C02 JUMPI DUP1 PUSH1 0x1F LT PUSH2 0x1BD7 JUMPI PUSH2 0x100 DUP1 DUP4 SLOAD DIV MUL DUP4 MSTORE SWAP2 PUSH1 0x20 ADD SWAP2 PUSH2 0x1C02 JUMP JUMPDEST DUP3 ADD SWAP2 SWAP1 PUSH1 0x0 MSTORE PUSH1 0x20 PUSH1 0x0 KECCAK256 SWAP1 JUMPDEST DUP2 SLOAD DUP2 MSTORE SWAP1 PUSH1 0x1 ADD SWAP1 PUSH1 0x20 ADD DUP1 DUP4 GT PUSH2 0x1BE5 JUMPI DUP3 SWAP1 SUB PUSH1 0x1F AND DUP3 ADD SWAP2 JUMPDEST POP POP POP SWAP2 DUP4 MSTORE POP POP PUSH1 0x3 DUP3 ADD SLOAD PUSH1 0x20 DUP3 ADD MSTORE PUSH1 0x4 DUP3 ADD SLOAD PUSH1 0x40 DUP3 ADD MSTORE PUSH1 0x5 DUP3 ADD SLOAD PUSH1 0x60 DUP3 ADD MSTORE PUSH1 0x6 DUP3 ADD SLOAD PUSH1 0x1 PUSH1 0x1 PUSH1 0xA0 SHL SUB DUP2 AND PUSH1 0x80 DUP4 ADD MSTORE PUSH1 0xA0 SWAP1 SWAP2 ADD SWAP1 PUSH1 0x1 PUSH1 0xA0 SHL SWAP1 DIV PUSH1 0xFF AND PUSH1 0x2 DUP2 GT ISZERO PUSH2 0x1C5D JUMPI PUSH2 0x1C5D PUSH2 0x555A JUMP JUMPDEST PUSH1 0x2 DUP2 GT ISZERO PUSH2 0x1C6E JUMPI PUSH2 0x1C6E PUSH2 0x555A JUMP JUMPDEST DUP2 MSTORE POP POP SWAP1 POP DUP1 PUSH1 0x0 ADD MLOAD DUP2 PUSH1 0x20 ADD MLOAD DUP3 PUSH1 0x40 ADD MLOAD DUP4 PUSH1 0x60 ADD MLOAD DUP5 PUSH1 0xA0 ADD MLOAD DUP6 PUSH1 0x80 ADD MLOAD DUP7 PUSH1 0xC0 ADD MLOAD DUP8 PUSH1 0xE0 ADD MLOAD SWAP9 POP SWAP9 POP SWAP9 POP SWAP9 POP SWAP9 POP SWAP9 POP SWAP9 POP SWAP9 POP POP SWAP2 SWAP4 SWAP6 SWAP8 POP SWAP2 SWAP4 SWAP6 SWAP8 JUMP JUMPDEST PUSH1 0xF DUP2 DUP2 SLOAD DUP2 LT PUSH2 0xB5B JUMPI PUSH1 0x0 DUP1 REVERT JUMPDEST PUSH1 0xB DUP1 SLOAD SWAP1 PUSH1 0x0 PUSH2 0x1CD8 DUP4 PUSH2 0x5DD3 JUMP JUMPDEST SWAP2 SWAP1 POP SSTORE POP PUSH1 0x40 MLOAD DUP1 PUSH1 0xC0 ADD PUSH1 0x40 MSTORE DUP1 CALLER PUSH1 0x1 PUSH1 0x1 PUSH1 0xA0 SHL SUB AND DUP2 MSTORE PUSH1 0x20 ADD DUP5 DUP2 MSTORE PUSH1 0x20 ADD DUP3 DUP2 MSTORE PUSH1 0x20 ADD DUP4 PUSH1 0x2 DUP2 GT ISZERO PUSH2 0x1D15 JUMPI PUSH2 0x1D15 PUSH2 0x555A JUMP JUMPDEST DUP2 MSTORE PUSH1 0x0 PUSH1 0x20 DUP1 DUP4 ADD DUP3 SWAP1 MSTORE PUSH1 0x1 PUSH1 0x40 SWAP4 DUP5 ADD DUP2 SWAP1 MSTORE PUSH1 0xB SLOAD DUP4 MSTORE PUSH1 0x5 DUP3 MSTORE SWAP3 SWAP1 SWAP2 KECCAK256 DUP4 MLOAD DUP2 SLOAD PUSH1 0x1 PUSH1 0x1 PUSH1 0xA0 SHL SUB NOT AND PUSH1 0x1 PUSH1 0x1 PUSH1 0xA0 SHL SUB SWAP1 SWAP2 AND OR DUP2 SSTORE SWAP1 DUP4 ADD MLOAD SWAP1 SWAP2 DUP3 ADD SWAP1 PUSH2 0x1D67 SWAP1 DUP3 PUSH2 0x5E3B JUMP JUMPDEST POP PUSH1 0x40 DUP3 ADD MLOAD PUSH1 0x2 DUP3 ADD SWAP1 PUSH2 0x1D7C SWAP1 DUP3 PUSH2 0x5E3B JUMP JUMPDEST POP PUSH1 0x60 DUP3 ADD MLOAD PUSH1 0x3 DUP3 ADD DUP1 SLOAD PUSH1 0xFF NOT AND PUSH1 0x1 DUP4 PUSH1 0x2 DUP2 GT ISZERO PUSH2 0x1DA0 JUMPI PUSH2 0x1DA0 PUSH2 0x555A JUMP JUMPDEST MUL OR SWAP1 SSTORE POP PUSH1 0x80 DUP3 ADD MLOAD PUSH1 0x3 SWAP1 SWAP2 ADD DUP1 SLOAD PUSH1 0xA0 SWAP1 SWAP4 ADD MLOAD ISZERO ISZERO PUSH3 0x10000 MUL PUSH3 0xFF0000 NOT SWAP3 ISZERO ISZERO PUSH2 0x100 MUL SWAP3 SWAP1 SWAP3 AND PUSH3 0xFFFF00 NOT SWAP1 SWAP4 AND SWAP3 SWAP1 SWAP3 OR OR SWAP1 SSTORE POP POP POP JUMP JUMPDEST PUSH1 0x3 PUSH1 0x20 MSTORE PUSH1 0x0 SWAP1 DUP2 MSTORE PUSH1 0x40 SWAP1 KECCAK256 DUP1 SLOAD PUSH1 0x1 DUP3 ADD DUP1 SLOAD SWAP2 SWAP3 SWAP2 PUSH2 0x1E04 SWAP1 PUSH2 0x5C86 JUMP JUMPDEST DUP1 PUSH1 0x1F ADD PUSH1 0x20 DUP1 SWAP2 DIV MUL PUSH1 0x20 ADD PUSH1 0x40 MLOAD SWAP1 DUP2 ADD PUSH1 0x40 MSTORE DUP1 SWAP3 SWAP2 SWAP1 DUP2 DUP2 MSTORE PUSH1 0x20 ADD DUP3 DUP1 SLOAD PUSH2 0x1E30 SWAP1 PUSH2 0x5C86 JUMP JUMPDEST DUP1 ISZERO PUSH2 0x1E7D JUMPI DUP1 PUSH1 0x1F LT PUSH2 0x1E52 JUMPI PUSH2 0x100 DUP1 DUP4 SLOAD DIV MUL DUP4 MSTORE SWAP2 PUSH1 0x20 ADD SWAP2 PUSH2 0x1E7D JUMP JUMPDEST DUP3 ADD SWAP2 SWAP1 PUSH1 0x0 MSTORE PUSH1 0x20 PUSH1 0x0 KECCAK256 SWAP1 JUMPDEST DUP2 SLOAD DUP2 MSTORE SWAP1 PUSH1 0x1 ADD SWAP1 PUSH1 0x20 ADD DUP1 DUP4 GT PUSH2 0x1E60 JUMPI DUP3 SWAP1 SUB PUSH1 0x1F AND DUP3 ADD SWAP2 JUMPDEST POP POP POP POP POP SWAP1 DUP1 PUSH1 0x2 ADD DUP1 SLOAD PUSH2 0x1E92 SWAP1 PUSH2 0x5C86 JUMP JUMPDEST DUP1 PUSH1 0x1F ADD PUSH1 0x20 DUP1 SWAP2 DIV MUL PUSH1 0x20 ADD PUSH1 0x40 MLOAD SWAP1 DUP2 ADD PUSH1 0x40 MSTORE DUP1 SWAP3 SWAP2 SWAP1 DUP2 DUP2 MSTORE PUSH1 0x20 ADD DUP3 DUP1 SLOAD PUSH2 0x1EBE SWAP1 PUSH2 0x5C86 JUMP JUMPDEST DUP1 ISZERO PUSH2 0x1F0B JUMPI DUP1 PUSH1 0x1F LT PUSH2 0x1EE0 JUMPI PUSH2 0x100 DUP1 DUP4 SLOAD DIV MUL DUP4 MSTORE SWAP2 PUSH1 0x20 ADD SWAP2 PUSH2 0x1F0B JUMP JUMPDEST DUP3 ADD SWAP2 SWAP1 PUSH1 0x0 MSTORE PUSH1 0x20 PUSH1 0x0 KECCAK256 SWAP1 JUMPDEST DUP2 SLOAD DUP2 MSTORE SWAP1 PUSH1 0x1 ADD SWAP1 PUSH1 0x20 ADD DUP1 DUP4 GT PUSH2 0x1EEE JUMPI DUP3 SWAP1 SUB PUSH1 0x1F AND DUP3 ADD SWAP2 JUMPDEST POP POP POP POP PUSH1 0x3 DUP4 ADD SLOAD PUSH1 0x4 DUP5 ADD SLOAD PUSH1 0x5 DUP6 ADD SLOAD PUSH1 0x6 DUP7 ADD DUP1 SLOAD SWAP6 SWAP7 PUSH1 0x1 PUSH1 0x1 PUSH1 0xA0 SHL SUB SWAP5 DUP6 AND SWAP7 SWAP4 DUP6 AND SWAP6 POP SWAP4 SWAP1 SWAP2 AND SWAP3 SWAP2 PUSH2 0x1F46 SWAP1 PUSH2 0x5C86 JUMP JUMPDEST DUP1 PUSH1 0x1F ADD PUSH1 0x20 DUP1 SWAP2 DIV MUL PUSH1 0x20 ADD PUSH1 0x40 MLOAD SWAP1 DUP2 ADD PUSH1 0x40 MSTORE DUP1 SWAP3 SWAP2 SWAP1 DUP2 DUP2 MSTORE PUSH1 0x20 ADD DUP3 DUP1 SLOAD PUSH2 0x1F72 SWAP1 PUSH2 0x5C86 JUMP JUMPDEST DUP1 ISZERO PUSH2 0x1FBF JUMPI DUP1 PUSH1 0x1F LT PUSH2 0x1F94 JUMPI PUSH2 0x100 DUP1 DUP4 SLOAD DIV MUL DUP4 MSTORE SWAP2 PUSH1 0x20 ADD SWAP2 PUSH2 0x1FBF JUMP JUMPDEST DUP3 ADD SWAP2 SWAP1 PUSH1 0x0 MSTORE PUSH1 0x20 PUSH1 0x0 KECCAK256 SWAP1 JUMPDEST DUP2 SLOAD DUP2 MSTORE SWAP1 PUSH1 0x1 ADD SWAP1 PUSH1 0x20 ADD DUP1 DUP4 GT PUSH2 0x1FA2 JUMPI DUP3 SWAP1 SUB PUSH1 0x1F AND DUP3 ADD SWAP2 JUMPDEST POP POP POP POP POP SWAP1 DUP1 PUSH1 0x7 ADD DUP1 SLOAD PUSH2 0x1FD4 SWAP1 PUSH2 0x5C86 JUMP JUMPDEST DUP1 PUSH1 0x1F ADD PUSH1 0x20 DUP1 SWAP2 DIV MUL PUSH1 0x20 ADD PUSH1 0x40 MLOAD SWAP1 DUP2 ADD PUSH1 0x40 MSTORE DUP1 SWAP3 SWAP2 SWAP1 DUP2 DUP2 MSTORE PUSH1 0x20 ADD DUP3 DUP1 SLOAD PUSH2 0x2000 SWAP1 PUSH2 0x5C86 JUMP JUMPDEST DUP1 ISZERO PUSH2 0x204D JUMPI DUP1 PUSH1 0x1F LT PUSH2 0x2022 JUMPI PUSH2 0x100 DUP1 DUP4 SLOAD DIV MUL DUP4 MSTORE SWAP2 PUSH1 0x20 ADD SWAP2 PUSH2 0x204D JUMP JUMPDEST DUP3 ADD SWAP2 SWAP1 PUSH1 0x0 MSTORE PUSH1 0x20 PUSH1 0x0 KECCAK256 SWAP1 JUMPDEST DUP2 SLOAD DUP2 MSTORE SWAP1 PUSH1 0x1 ADD SWAP1 PUSH1 0x20 ADD DUP1 DUP4 GT PUSH2 0x2030 JUMPI DUP3 SWAP1 SUB PUSH1 0x1F AND DUP3 ADD SWAP2 JUMPDEST POP POP POP POP PUSH1 0x8 DUP4 ADD SLOAD PUSH1 0x9 SWAP1 SWAP4 ADD SLOAD SWAP2 SWAP3 SWAP2 PUSH1 0xFF AND SWAP1 POP DUP11 JUMP JUMPDEST PUSH1 0x4 PUSH1 0x20 MSTORE PUSH1 0x0 SWAP1 DUP2 MSTORE PUSH1 0x40 SWAP1 KECCAK256 DUP1 SLOAD PUSH1 0x1 DUP3 ADD DUP1 SLOAD SWAP2 SWAP3 SWAP2 PUSH2 0x2089 SWAP1 PUSH2 0x5C86 JUMP JUMPDEST DUP1 PUSH1 0x1F ADD PUSH1 0x20 DUP1 SWAP2 DIV MUL PUSH1 0x20 ADD PUSH1 0x40 MLOAD SWAP1 DUP2 ADD PUSH1 0x40 MSTORE DUP1 SWAP3 SWAP2 SWAP1 DUP2 DUP2 MSTORE PUSH1 0x20 ADD DUP3 DUP1 SLOAD PUSH2 0x20B5 SWAP1 PUSH2 0x5C86 JUMP JUMPDEST DUP1 ISZERO PUSH2 0x2102 JUMPI DUP1 PUSH1 0x1F LT PUSH2 0x20D7 JUMPI PUSH2 0x100 DUP1 DUP4 SLOAD DIV MUL DUP4 MSTORE SWAP2 PUSH1 0x20 ADD SWAP2 PUSH2 0x2102 JUMP JUMPDEST DUP3 ADD SWAP2 SWAP1 PUSH1 0x0 MSTORE PUSH1 0x20 PUSH1 0x0 KECCAK256 SWAP1 JUMPDEST DUP2 SLOAD DUP2 MSTORE SWAP1 PUSH1 0x1 ADD SWAP1 PUSH1 0x20 ADD DUP1 DUP4 GT PUSH2 0x20E5 JUMPI DUP3 SWAP1 SUB PUSH1 0x1F AND DUP3 ADD SWAP2 JUMPDEST POP POP POP POP POP SWAP1 DUP1 PUSH1 0x2 ADD DUP1 SLOAD PUSH2 0x2117 SWAP1 PUSH2 0x5C86 JUMP JUMPDEST DUP1 PUSH1 0x1F ADD PUSH1 0x20 DUP1 SWAP2 DIV MUL PUSH1 0x20 ADD PUSH1 0x40 MLOAD SWAP1 DUP2 ADD PUSH1 0x40 MSTORE DUP1 SWAP3 SWAP2 SWAP1 DUP2 DUP2 MSTORE PUSH1 0x20 ADD DUP3 DUP1 SLOAD PUSH2 0x2143 SWAP1 PUSH2 0x5C86 JUMP JUMPDEST DUP1 ISZERO PUSH2 0x2190 JUMPI DUP1 PUSH1 0x1F LT PUSH2 0x2165 JUMPI PUSH2 0x100 DUP1 DUP4 SLOAD DIV MUL DUP4 MSTORE SWAP2 PUSH1 0x20 ADD SWAP2 PUSH2 0x2190 JUMP JUMPDEST DUP3 ADD SWAP2 SWAP1 PUSH1 0x0 MSTORE PUSH1 0x20 PUSH1 0x0 KECCAK256 SWAP1 JUMPDEST DUP2 SLOAD DUP2 MSTORE SWAP1 PUSH1 0x1 ADD SWAP1 PUSH1 0x20 ADD DUP1 DUP4 GT PUSH2 0x2173 JUMPI DUP3 SWAP1 SUB PUSH1 0x1F AND DUP3 ADD SWAP2 JUMPDEST POP POP POP POP PUSH1 0x3 DUP4 ADD SLOAD PUSH1 0x4 DUP5 ADD SLOAD PUSH1 0x5 DUP6 ADD SLOAD PUSH1 0x6 SWAP1 SWAP6 ADD SLOAD SWAP4 SWAP5 SWAP2 SWAP4 SWAP1 SWAP3 POP PUSH1 0x1 PUSH1 0x1 PUSH1 0xA0 SHL SUB DUP2 AND SWAP1 PUSH1 0x1 PUSH1 0xA0 SHL SWAP1 DIV PUSH1 0xFF AND DUP9 JUMP JUMPDEST PUSH1 0x2 PUSH1 0x20 MSTORE DUP2 PUSH1 0x0 MSTORE PUSH1 0x40 PUSH1 0x0 KECCAK256 DUP2 DUP2 SLOAD DUP2 LT PUSH2 0x21E4 JUMPI PUSH1 0x0 DUP1 REVERT JUMPDEST PUSH1 0x0 SWAP2 DUP3 MSTORE PUSH1 0x20 SWAP1 SWAP2 KECCAK256 PUSH1 0x8 SWAP1 SWAP2 MUL ADD DUP1 SLOAD PUSH1 0x1 DUP3 ADD SLOAD PUSH1 0x2 DUP4 ADD SLOAD PUSH1 0x3 DUP5 ADD DUP1 SLOAD SWAP4 SWAP7 POP PUSH1 0x1 PUSH1 0x1 PUSH1 0xA0 SHL SUB SWAP3 DUP4 AND SWAP6 POP SWAP2 AND SWAP3 SWAP2 PUSH2 0x2223 SWAP1 PUSH2 0x5C86 JUMP JUMPDEST DUP1 PUSH1 0x1F ADD PUSH1 0x20 DUP1 SWAP2 DIV MUL PUSH1 0x20 ADD PUSH1 0x40 MLOAD SWAP1 DUP2 ADD PUSH1 0x40 MSTORE DUP1 SWAP3 SWAP2 SWAP1 DUP2 DUP2 MSTORE PUSH1 0x20 ADD DUP3 DUP1 SLOAD PUSH2 0x224F SWAP1 PUSH2 0x5C86 JUMP JUMPDEST DUP1 ISZERO PUSH2 0x229C JUMPI DUP1 PUSH1 0x1F LT PUSH2 0x2271 JUMPI PUSH2 0x100 DUP1 DUP4 SLOAD DIV MUL DUP4 MSTORE SWAP2 PUSH1 0x20 ADD SWAP2 PUSH2 0x229C JUMP JUMPDEST DUP3 ADD SWAP2 SWAP1 PUSH1 0x0 MSTORE PUSH1 0x20 PUSH1 0x0 KECCAK256 SWAP1 JUMPDEST DUP2 SLOAD DUP2 MSTORE SWAP1 PUSH1 0x1 ADD SWAP1 PUSH1 0x20 ADD DUP1 DUP4 GT PUSH2 0x227F JUMPI DUP3 SWAP1 SUB PUSH1 0x1F AND DUP3 ADD SWAP2 JUMPDEST POP POP POP POP POP SWAP1 DUP1 PUSH1 0x4 ADD DUP1 SLOAD PUSH2 0x22B1 SWAP1 PUSH2 0x5C86 JUMP JUMPDEST DUP1 PUSH1 0x1F ADD PUSH1 0x20 DUP1 SWAP2 DIV MUL PUSH1 0x20 ADD PUSH1 0x40 MLOAD SWAP1 DUP2 ADD PUSH1 0x40 MSTORE DUP1 SWAP3 SWAP2 SWAP1 DUP2 DUP2 MSTORE PUSH1 0x20 ADD DUP3 DUP1 SLOAD PUSH2 0x22DD SWAP1 PUSH2 0x5C86 JUMP JUMPDEST DUP1 ISZERO PUSH2 0x232A JUMPI DUP1 PUSH1 0x1F LT PUSH2 0x22FF JUMPI PUSH2 0x100 DUP1 DUP4 SLOAD DIV MUL DUP4 MSTORE SWAP2 PUSH1 0x20 ADD SWAP2 PUSH2 0x232A JUMP JUMPDEST DUP3 ADD SWAP2 SWAP1 PUSH1 0x0 MSTORE PUSH1 0x20 PUSH1 0x0 KECCAK256 SWAP1 JUMPDEST DUP2 SLOAD DUP2 MSTORE SWAP1 PUSH1 0x1 ADD SWAP1 PUSH1 0x20 ADD DUP1 DUP4 GT PUSH2 0x230D JUMPI DUP3 SWAP1 SUB PUSH1 0x1F AND DUP3 ADD SWAP2 JUMPDEST POP POP POP POP POP SWAP1 DUP1 PUSH1 0x5 ADD SLOAD SWAP1 DUP1 PUSH1 0x6 ADD DUP1 SLOAD PUSH2 0x2345 SWAP1 PUSH2 0x5C86 JUMP JUMPDEST DUP1 PUSH1 0x1F ADD PUSH1 0x20 DUP1 SWAP2 DIV MUL PUSH1 0x20 ADD PUSH1 0x40 MLOAD SWAP1 DUP2 ADD PUSH1 0x40 MSTORE DUP1 SWAP3 SWAP2 SWAP1 DUP2 DUP2 MSTORE PUSH1 0x20 ADD DUP3 DUP1 SLOAD PUSH2 0x2371 SWAP1 PUSH2 0x5C86 JUMP JUMPDEST DUP1 ISZERO PUSH2 0x23BE JUMPI DUP1 PUSH1 0x1F LT PUSH2 0x2393 JUMPI PUSH2 0x100 DUP1 DUP4 SLOAD DIV MUL DUP4 MSTORE SWAP2 PUSH1 0x20 ADD SWAP2 PUSH2 0x23BE JUMP JUMPDEST DUP3 ADD SWAP2 SWAP1 PUSH1 0x0 MSTORE PUSH1 0x20 PUSH1 0x0 KECCAK256 SWAP1 JUMPDEST DUP2 SLOAD DUP2 MSTORE SWAP1 PUSH1 0x1 ADD SWAP1 PUSH1 0x20 ADD DUP1 DUP4 GT PUSH2 0x23A1 JUMPI DUP3 SWAP1 SUB PUSH1 0x1F AND DUP3 ADD SWAP2 JUMPDEST POP POP POP POP POP SWAP1 DUP1 PUSH1 0x7 ADD SLOAD SWAP1 POP DUP9 JUMP JUMPDEST PUSH1 0x0 DUP1 JUMPDEST PUSH1 0x10 SLOAD DUP2 LT ISZERO PUSH2 0x241F JUMPI PUSH1 0x10 DUP2 DUP2 SLOAD DUP2 LT PUSH2 0x23EF JUMPI PUSH2 0x23EF PUSH2 0x5CC0 JUMP JUMPDEST PUSH1 0x0 SWAP2 DUP3 MSTORE PUSH1 0x20 SWAP1 SWAP2 KECCAK256 ADD SLOAD PUSH1 0x1 PUSH1 0x1 PUSH1 0xA0 SHL SUB SWAP1 DUP2 AND SWAP1 DUP5 AND SUB PUSH2 0x2417 JUMPI POP PUSH1 0x0 SWAP3 SWAP2 POP POP JUMP JUMPDEST PUSH1 0x1 ADD PUSH2 0x23D2 JUMP JUMPDEST POP PUSH1 0x1 SWAP3 SWAP2 POP POP JUMP JUMPDEST PUSH1 0x11 DUP2 DUP2 SLOAD DUP2 LT PUSH2 0xB5B JUMPI PUSH1 0x0 DUP1 REVERT JUMPDEST PUSH1 0x0 DUP1 PUSH1 0x0 PUSH1 0x60 DUP1 PUSH1 0x0 PUSH1 0x60 PUSH1 0x0 DUP1 PUSH1 0x2 PUSH1 0x0 DUP13 PUSH1 0x1 PUSH1 0x1 PUSH1 0xA0 SHL SUB AND PUSH1 0x1 PUSH1 0x1 PUSH1 0xA0 SHL SUB AND DUP2 MSTORE PUSH1 0x20 ADD SWAP1 DUP2 MSTORE PUSH1 0x20 ADD PUSH1 0x0 KECCAK256 DUP11 DUP2 SLOAD DUP2 LT PUSH2 0x247D JUMPI PUSH2 0x247D PUSH2 0x5CC0 JUMP JUMPDEST PUSH1 0x0 SWAP2 DUP3 MSTORE PUSH1 0x20 SWAP2 DUP3 SWAP1 KECCAK256 PUSH1 0x40 DUP1 MLOAD PUSH2 0x100 DUP2 ADD DUP3 MSTORE PUSH1 0x8 SWAP1 SWAP4 MUL SWAP1 SWAP2 ADD DUP1 SLOAD DUP4 MSTORE PUSH1 0x1 DUP2 ADD SLOAD PUSH1 0x1 PUSH1 0x1 PUSH1 0xA0 SHL SUB SWAP1 DUP2 AND SWAP5 DUP5 ADD SWAP5 SWAP1 SWAP5 MSTORE PUSH1 0x2 DUP2 ADD SLOAD SWAP1 SWAP4 AND SWAP1 DUP3 ADD MSTORE PUSH1 0x3 DUP3 ADD DUP1 SLOAD SWAP2 SWAP3 SWAP2 PUSH1 0x60 DUP5 ADD SWAP2 SWAP1 PUSH2 0x24DA SWAP1 PUSH2 0x5C86 JUMP JUMPDEST DUP1 PUSH1 0x1F ADD PUSH1 0x20 DUP1 SWAP2 DIV MUL PUSH1 0x20 ADD PUSH1 0x40 MLOAD SWAP1 DUP2 ADD PUSH1 0x40 MSTORE DUP1 SWAP3 SWAP2 SWAP1 DUP2 DUP2 MSTORE PUSH1 0x20 ADD DUP3 DUP1 SLOAD PUSH2 0x2506 SWAP1 PUSH2 0x5C86 JUMP JUMPDEST DUP1 ISZERO PUSH2 0x2553 JUMPI DUP1 PUSH1 0x1F LT PUSH2 0x2528 JUMPI PUSH2 0x100 DUP1 DUP4 SLOAD DIV MUL DUP4 MSTORE SWAP2 PUSH1 0x20 ADD SWAP2 PUSH2 0x2553 JUMP JUMPDEST DUP3 ADD SWAP2 SWAP1 PUSH1 0x0 MSTORE PUSH1 0x20 PUSH1 0x0 KECCAK256 SWAP1 JUMPDEST DUP2 SLOAD DUP2 MSTORE SWAP1 PUSH1 0x1 ADD SWAP1 PUSH1 0x20 ADD DUP1 DUP4 GT PUSH2 0x2536 JUMPI DUP3 SWAP1 SUB PUSH1 0x1F AND DUP3 ADD SWAP2 JUMPDEST POP POP POP POP POP DUP2 MSTORE PUSH1 0x20 ADD PUSH1 0x4 DUP3 ADD DUP1 SLOAD PUSH2 0x256C SWAP1 PUSH2 0x5C86 JUMP JUMPDEST DUP1 PUSH1 0x1F ADD PUSH1 0x20 DUP1 SWAP2 DIV MUL PUSH1 0x20 ADD PUSH1 0x40 MLOAD SWAP1 DUP2 ADD PUSH1 0x40 MSTORE DUP1 SWAP3 SWAP2 SWAP1 DUP2 DUP2 MSTORE PUSH1 0x20 ADD DUP3 DUP1 SLOAD PUSH2 0x2598 SWAP1 PUSH2 0x5C86 JUMP JUMPDEST DUP1 ISZERO PUSH2 0x25E5 JUMPI DUP1 PUSH1 0x1F LT PUSH2 0x25BA JUMPI PUSH2 0x100 DUP1 DUP4 SLOAD DIV MUL DUP4 MSTORE SWAP2 PUSH1 0x20 ADD SWAP2 PUSH2 0x25E5 JUMP JUMPDEST DUP3 ADD SWAP2 SWAP1 PUSH1 0x0 MSTORE PUSH1 0x20 PUSH1 0x0 KECCAK256 SWAP1 JUMPDEST DUP2 SLOAD DUP2 MSTORE SWAP1 PUSH1 0x1 ADD SWAP1 PUSH1 0x20 ADD DUP1 DUP4 GT PUSH2 0x25C8 JUMPI DUP3 SWAP1 SUB PUSH1 0x1F AND DUP3 ADD SWAP2 JUMPDEST POP POP POP POP POP DUP2 MSTORE PUSH1 0x20 ADD PUSH1 0x5 DUP3 ADD SLOAD DUP2 MSTORE PUSH1 0x20 ADD PUSH1 0x6 DUP3 ADD DUP1 SLOAD PUSH2 0x2608 SWAP1 PUSH2 0x5C86 JUMP JUMPDEST DUP1 PUSH1 0x1F ADD PUSH1 0x20 DUP1 SWAP2 DIV MUL PUSH1 0x20 ADD PUSH1 0x40 MLOAD SWAP1 DUP2 ADD PUSH1 0x40 MSTORE DUP1 SWAP3 SWAP2 SWAP1 DUP2 DUP2 MSTORE PUSH1 0x20 ADD DUP3 DUP1 SLOAD PUSH2 0x2634 SWAP1 PUSH2 0x5C86 JUMP JUMPDEST DUP1 ISZERO PUSH2 0x2681 JUMPI DUP1 PUSH1 0x1F LT PUSH2 0x2656 JUMPI PUSH2 0x100 DUP1 DUP4 SLOAD DIV MUL DUP4 MSTORE SWAP2 PUSH1 0x20 ADD SWAP2 PUSH2 0x2681 JUMP JUMPDEST DUP3 ADD SWAP2 SWAP1 PUSH1 0x0 MSTORE PUSH1 0x20 PUSH1 0x0 KECCAK256 SWAP1 JUMPDEST DUP2 SLOAD DUP2 MSTORE SWAP1 PUSH1 0x1 ADD SWAP1 PUSH1 0x20 ADD DUP1 DUP4 GT PUSH2 0x2664 JUMPI DUP3 SWAP1 SUB PUSH1 0x1F AND DUP3 ADD SWAP2 JUMPDEST POP POP POP POP POP DUP2 MSTORE PUSH1 0x20 ADD PUSH1 0x7 DUP3 ADD SLOAD DUP2 MSTORE POP POP SWAP1 POP DUP1 PUSH1 0x0 ADD MLOAD DUP2 PUSH1 0x20 ADD MLOAD DUP3 PUSH1 0x40 ADD MLOAD DUP4 PUSH1 0x60 ADD MLOAD DUP5 PUSH1 0x80 ADD MLOAD DUP6 PUSH1 0xA0 ADD MLOAD DUP7 PUSH1 0xC0 ADD MLOAD DUP8 PUSH1 0xE0 ADD MLOAD SWAP9 POP SWAP9 POP SWAP9 POP SWAP9 POP SWAP9 POP SWAP9 POP SWAP9 POP SWAP9 POP POP SWAP3 SWAP6 SWAP9 POP SWAP3 SWAP6 SWAP9 SWAP1 SWAP4 SWAP7 POP JUMP JUMPDEST PUSH1 0x1 PUSH1 0x20 MSTORE DUP2 PUSH1 0x0 MSTORE PUSH1 0x40 PUSH1 0x0 KECCAK256 DUP2 DUP2 SLOAD DUP2 LT PUSH2 0x26F8 JUMPI PUSH1 0x0 DUP1 REVERT JUMPDEST PUSH1 0x0 SWAP2 DUP3 MSTORE PUSH1 0x20 SWAP1 SWAP2 KECCAK256 PUSH1 0x9 SWAP1 SWAP2 MUL ADD DUP1 SLOAD PUSH1 0x1 DUP3 ADD SLOAD PUSH1 0x2 DUP4 ADD SLOAD PUSH1 0x3 DUP5 ADD DUP1 SLOAD SWAP4 SWAP7 POP PUSH1 0x1 PUSH1 0x1 PUSH1 0xA0 SHL SUB SWAP3 DUP4 AND SWAP6 POP SWAP2 AND SWAP3 SWAP2 PUSH2 0x2737 SWAP1 PUSH2 0x5C86 JUMP JUMPDEST DUP1 PUSH1 0x1F ADD PUSH1 0x20 DUP1 SWAP2 DIV MUL PUSH1 0x20 ADD PUSH1 0x40 MLOAD SWAP1 DUP2 ADD PUSH1 0x40 MSTORE DUP1 SWAP3 SWAP2 SWAP1 DUP2 DUP2 MSTORE PUSH1 0x20 ADD DUP3 DUP1 SLOAD PUSH2 0x2763 SWAP1 PUSH2 0x5C86 JUMP JUMPDEST DUP1 ISZERO PUSH2 0x27B0 JUMPI DUP1 PUSH1 0x1F LT PUSH2 0x2785 JUMPI PUSH2 0x100 DUP1 DUP4 SLOAD DIV MUL DUP4 MSTORE SWAP2 PUSH1 0x20 ADD SWAP2 PUSH2 0x27B0 JUMP JUMPDEST DUP3 ADD SWAP2 SWAP1 PUSH1 0x0 MSTORE PUSH1 0x20 PUSH1 0x0 KECCAK256 SWAP1 JUMPDEST DUP2 SLOAD DUP2 MSTORE SWAP1 PUSH1 0x1 ADD SWAP1 PUSH1 0x20 ADD DUP1 DUP4 GT PUSH2 0x2793 JUMPI DUP3 SWAP1 SUB PUSH1 0x1F AND DUP3 ADD SWAP2 JUMPDEST POP POP POP POP POP SWAP1 DUP1 PUSH1 0x4 ADD DUP1 SLOAD PUSH2 0x27C5 SWAP1 PUSH2 0x5C86 JUMP JUMPDEST DUP1 PUSH1 0x1F ADD PUSH1 0x20 DUP1 SWAP2 DIV MUL PUSH1 0x20 ADD PUSH1 0x40 MLOAD SWAP1 DUP2 ADD PUSH1 0x40 MSTORE DUP1 SWAP3 SWAP2 SWAP1 DUP2 DUP2 MSTORE PUSH1 0x20 ADD DUP3 DUP1 SLOAD PUSH2 0x27F1 SWAP1 PUSH2 0x5C86 JUMP JUMPDEST DUP1 ISZERO PUSH2 0x283E JUMPI DUP1 PUSH1 0x1F LT PUSH2 0x2813 JUMPI PUSH2 0x100 DUP1 DUP4 SLOAD DIV MUL DUP4 MSTORE SWAP2 PUSH1 0x20 ADD SWAP2 PUSH2 0x283E JUMP JUMPDEST DUP3 ADD SWAP2 SWAP1 PUSH1 0x0 MSTORE PUSH1 0x20 PUSH1 0x0 KECCAK256 SWAP1 JUMPDEST DUP2 SLOAD DUP2 MSTORE SWAP1 PUSH1 0x1 ADD SWAP1 PUSH1 0x20 ADD DUP1 DUP4 GT PUSH2 0x2821 JUMPI DUP3 SWAP1 SUB PUSH1 0x1F AND DUP3 ADD SWAP2 JUMPDEST POP POP POP POP POP SWAP1 DUP1 PUSH1 0x5 ADD DUP1 SLOAD PUSH2 0x2853 SWAP1 PUSH2 0x5C86 JUMP JUMPDEST DUP1 PUSH1 0x1F ADD PUSH1 0x20 DUP1 SWAP2 DIV MUL PUSH1 0x20 ADD PUSH1 0x40 MLOAD SWAP1 DUP2 ADD PUSH1 0x40 MSTORE DUP1 SWAP3 SWAP2 SWAP1 DUP2 DUP2 MSTORE PUSH1 0x20 ADD DUP3 DUP1 SLOAD PUSH2 0x287F SWAP1 PUSH2 0x5C86 JUMP JUMPDEST DUP1 ISZERO PUSH2 0x28CC JUMPI DUP1 PUSH1 0x1F LT PUSH2 0x28A1 JUMPI PUSH2 0x100 DUP1 DUP4 SLOAD DIV MUL DUP4 MSTORE SWAP2 PUSH1 0x20 ADD SWAP2 PUSH2 0x28CC JUMP JUMPDEST DUP3 ADD SWAP2 SWAP1 PUSH1 0x0 MSTORE PUSH1 0x20 PUSH1 0x0 KECCAK256 SWAP1 JUMPDEST DUP2 SLOAD DUP2 MSTORE SWAP1 PUSH1 0x1 ADD SWAP1 PUSH1 0x20 ADD DUP1 DUP4 GT PUSH2 0x28AF JUMPI DUP3 SWAP1 SUB PUSH1 0x1F AND DUP3 ADD SWAP2 JUMPDEST POP POP POP POP POP SWAP1 DUP1 PUSH1 0x6 ADD DUP1 SLOAD PUSH2 0x28E1 SWAP1 PUSH2 0x5C86 JUMP JUMPDEST DUP1 PUSH1 0x1F ADD PUSH1 0x20 DUP1 SWAP2 DIV MUL PUSH1 0x20 ADD PUSH1 0x40 MLOAD SWAP1 DUP2 ADD PUSH1 0x40 MSTORE DUP1 SWAP3 SWAP2 SWAP1 DUP2 DUP2 MSTORE PUSH1 0x20 ADD DUP3 DUP1 SLOAD PUSH2 0x290D SWAP1 PUSH2 0x5C86 JUMP JUMPDEST DUP1 ISZERO PUSH2 0x295A JUMPI DUP1 PUSH1 0x1F LT PUSH2 0x292F JUMPI PUSH2 0x100 DUP1 DUP4 SLOAD DIV MUL DUP4 MSTORE SWAP2 PUSH1 0x20 ADD SWAP2 PUSH2 0x295A JUMP JUMPDEST DUP3 ADD SWAP2 SWAP1 PUSH1 0x0 MSTORE PUSH1 0x20 PUSH1 0x0 KECCAK256 SWAP1 JUMPDEST DUP2 SLOAD DUP2 MSTORE SWAP1 PUSH1 0x1 ADD SWAP1 PUSH1 0x20 ADD DUP1 DUP4 GT PUSH2 0x293D JUMPI DUP3 SWAP1 SUB PUSH1 0x1F AND DUP3 ADD SWAP2 JUMPDEST POP POP POP POP POP SWAP1 DUP1 PUSH1 0x7 ADD DUP1 SLOAD PUSH2 0x296F SWAP1 PUSH2 0x5C86 JUMP JUMPDEST DUP1 PUSH1 0x1F ADD PUSH1 0x20 DUP1 SWAP2 DIV MUL PUSH1 0x20 ADD PUSH1 0x40 MLOAD SWAP1 DUP2 ADD PUSH1 0x40 MSTORE DUP1 SWAP3 SWAP2 SWAP1 DUP2 DUP2 MSTORE PUSH1 0x20 ADD DUP3 DUP1 SLOAD PUSH2 0x299B SWAP1 PUSH2 0x5C86 JUMP JUMPDEST DUP1 ISZERO PUSH2 0x29E8 JUMPI DUP1 PUSH1 0x1F LT PUSH2 0x29BD JUMPI PUSH2 0x100 DUP1 DUP4 SLOAD DIV MUL DUP4 MSTORE SWAP2 PUSH1 0x20 ADD SWAP2 PUSH2 0x29E8 JUMP JUMPDEST DUP3 ADD SWAP2 SWAP1 PUSH1 0x0 MSTORE PUSH1 0x20 PUSH1 0x0 KECCAK256 SWAP1 JUMPDEST DUP2 SLOAD DUP2 MSTORE SWAP1 PUSH1 0x1 ADD SWAP1 PUSH1 0x20 ADD DUP1 DUP4 GT PUSH2 0x29CB JUMPI DUP3 SWAP1 SUB PUSH1 0x1F AND DUP3 ADD SWAP2 JUMPDEST POP POP POP POP POP SWAP1 DUP1 PUSH1 0x8 ADD SLOAD SWAP1 POP DUP10 JUMP JUMPDEST PUSH1 0xD SLOAD PUSH1 0x60 SWAP1 PUSH1 0x1 PUSH1 0x1 PUSH1 0xA0 SHL SUB SWAP1 DUP2 AND SWAP1 DUP4 AND SUB PUSH2 0x2A32 JUMPI POP POP PUSH1 0x40 DUP1 MLOAD DUP1 DUP3 ADD SWAP1 SWAP2 MSTORE PUSH1 0x5 DUP2 MSTORE PUSH5 0x30B236B4B7 PUSH1 0xD9 SHL PUSH1 0x20 DUP3 ADD MSTORE SWAP1 JUMP JUMPDEST PUSH1 0x0 JUMPDEST PUSH1 0x11 SLOAD DUP2 LT ISZERO PUSH2 0x2A9D JUMPI PUSH1 0x11 DUP2 DUP2 SLOAD DUP2 LT PUSH2 0x2A52 JUMPI PUSH2 0x2A52 PUSH2 0x5CC0 JUMP JUMPDEST PUSH1 0x0 SWAP2 DUP3 MSTORE PUSH1 0x20 SWAP1 SWAP2 KECCAK256 ADD SLOAD PUSH1 0x1 PUSH1 0x1 PUSH1 0xA0 SHL SUB SWAP1 DUP2 AND SWAP1 DUP5 AND SUB PUSH2 0x2A95 JUMPI POP POP PUSH1 0x40 DUP1 MLOAD DUP1 DUP3 ADD SWAP1 SWAP2 MSTORE PUSH1 0x6 DUP2 MSTORE PUSH6 0x3330B936B2B9 PUSH1 0xD1 SHL PUSH1 0x20 DUP3 ADD MSTORE SWAP2 SWAP1 POP JUMP JUMPDEST PUSH1 0x1 ADD PUSH2 0x2A35 JUMP JUMPDEST POP PUSH1 0x0 JUMPDEST PUSH1 0x12 SLOAD DUP2 LT ISZERO PUSH2 0x2B0E JUMPI PUSH1 0x12 DUP2 DUP2 SLOAD DUP2 LT PUSH2 0x2ABE JUMPI PUSH2 0x2ABE PUSH2 0x5CC0 JUMP JUMPDEST PUSH1 0x0 SWAP2 DUP3 MSTORE PUSH1 0x20 SWAP1 SWAP2 KECCAK256 ADD SLOAD PUSH1 0x1 PUSH1 0x1 PUSH1 0xA0 SHL SUB SWAP1 DUP2 AND SWAP1 DUP5 AND SUB PUSH2 0x2B06 JUMPI POP POP PUSH1 0x40 DUP1 MLOAD DUP1 DUP3 ADD SWAP1 SWAP2 MSTORE PUSH1 0xB DUP2 MSTORE PUSH11 0x3A3930B739B837B93A32B9 PUSH1 0xA9 SHL PUSH1 0x20 DUP3 ADD MSTORE SWAP2 SWAP1 POP JUMP JUMPDEST PUSH1 0x1 ADD PUSH2 0x2AA1 JUMP JUMPDEST POP PUSH1 0x0 JUMPDEST PUSH1 0x13 SLOAD DUP2 LT ISZERO PUSH2 0x2B80 JUMPI PUSH1 0x13 DUP2 DUP2 SLOAD DUP2 LT PUSH2 0x2B2F JUMPI PUSH2 0x2B2F PUSH2 0x5CC0 JUMP JUMPDEST PUSH1 0x0 SWAP2 DUP3 MSTORE PUSH1 0x20 SWAP1 SWAP2 KECCAK256 ADD SLOAD PUSH1 0x1 PUSH1 0x1 PUSH1 0xA0 SHL SUB SWAP1 DUP2 AND SWAP1 DUP5 AND SUB PUSH2 0x2B78 JUMPI POP POP PUSH1 0x40 DUP1 MLOAD DUP1 DUP3 ADD SWAP1 SWAP2 MSTORE PUSH1 0xC DUP2 MSTORE PUSH12 0x39BA37B932A6B0B730B3B2B9 PUSH1 0xA1 SHL PUSH1 0x20 DUP3 ADD MSTORE SWAP2 SWAP1 POP JUMP JUMPDEST PUSH1 0x1 ADD PUSH2 0x2B12 JUMP JUMPDEST POP POP PUSH1 0x40 DUP1 MLOAD DUP1 DUP3 ADD SWAP1 SWAP2 MSTORE PUSH1 0x4 DUP2 MSTORE PUSH4 0x6E6F6E65 PUSH1 0xE0 SHL PUSH1 0x20 DUP3 ADD MSTORE SWAP2 SWAP1 POP JUMP JUMPDEST PUSH1 0x0 DUP1 CALLER PUSH1 0x0 SWAP1 DUP2 MSTORE PUSH1 0x6 PUSH1 0x20 MSTORE PUSH1 0x40 SWAP1 KECCAK256 SLOAD PUSH1 0xFF AND PUSH1 0x2 DUP2 GT ISZERO PUSH2 0x2BC9 JUMPI PUSH2 0x2BC9 PUSH2 0x555A JUMP JUMPDEST EQ PUSH2 0x2BE6 JUMPI PUSH1 0x40 MLOAD PUSH3 0x461BCD PUSH1 0xE5 SHL DUP2 MSTORE PUSH1 0x4 ADD PUSH2 0x826 SWAP1 PUSH2 0x5C4F JUMP JUMPDEST PUSH1 0x8 DUP1 SLOAD SWAP1 PUSH1 0x0 PUSH2 0x2BF6 DUP4 PUSH2 0x5DD3 JUMP JUMPDEST SWAP2 SWAP1 POP SSTORE POP PUSH1 0x40 MLOAD DUP1 PUSH2 0x100 ADD PUSH1 0x40 MSTORE DUP1 PUSH1 0x8 SLOAD DUP2 MSTORE PUSH1 0x20 ADD DUP7 DUP2 MSTORE PUSH1 0x20 ADD DUP8 DUP2 MSTORE PUSH1 0x20 ADD DUP6 DUP2 MSTORE PUSH1 0x20 ADD DUP5 DUP2 MSTORE PUSH1 0x20 ADD DUP4 DUP2 MSTORE PUSH1 0x20 ADD CALLER PUSH1 0x1 PUSH1 0x1 PUSH1 0xA0 SHL SUB AND DUP2 MSTORE PUSH1 0x20 ADD PUSH1 0x0 PUSH1 0x2 DUP2 GT ISZERO PUSH2 0x2C4F JUMPI PUSH2 0x2C4F PUSH2 0x555A JUMP JUMPDEST SWAP1 MSTORE PUSH1 0x8 SLOAD PUSH1 0x0 SWAP1 DUP2 MSTORE PUSH1 0x4 PUSH1 0x20 SWAP1 DUP2 MSTORE PUSH1 0x40 SWAP1 SWAP2 KECCAK256 DUP3 MLOAD DUP2 SSTORE SWAP1 DUP3 ADD MLOAD PUSH1 0x1 DUP3 ADD SWAP1 PUSH2 0x2C7C SWAP1 DUP3 PUSH2 0x5E3B JUMP JUMPDEST POP PUSH1 0x40 DUP3 ADD MLOAD PUSH1 0x2 DUP3 ADD SWAP1 PUSH2 0x2C91 SWAP1 DUP3 PUSH2 0x5E3B JUMP JUMPDEST POP PUSH1 0x60 DUP3 ADD MLOAD PUSH1 0x3 DUP3 ADD SSTORE PUSH1 0x80 DUP3 ADD MLOAD PUSH1 0x4 DUP3 ADD SSTORE PUSH1 0xA0 DUP3 ADD MLOAD PUSH1 0x5 DUP3 ADD SSTORE PUSH1 0xC0 DUP3 ADD MLOAD PUSH1 0x6 DUP3 ADD DUP1 SLOAD PUSH1 0x1 PUSH1 0x1 PUSH1 0xA0 SHL SUB SWAP1 SWAP3 AND PUSH1 0x1 PUSH1 0x1 PUSH1 0xA0 SHL SUB NOT DUP4 AND DUP2 OR DUP3 SSTORE PUSH1 0xE0 DUP6 ADD MLOAD SWAP3 PUSH1 0x1 PUSH1 0x1 PUSH1 0xA8 SHL SUB NOT AND OR PUSH1 0x1 PUSH1 0xA0 SHL DUP4 PUSH1 0x2 DUP2 GT ISZERO PUSH2 0x2CFD JUMPI PUSH2 0x2CFD PUSH2 0x555A JUMP JUMPDEST MUL OR SWAP1 SSTORE POP POP POP POP POP POP POP POP POP JUMP JUMPDEST PUSH1 0x0 PUSH1 0x20 MSTORE DUP2 PUSH1 0x0 MSTORE PUSH1 0x40 PUSH1 0x0 KECCAK256 DUP2 DUP2 SLOAD DUP2 LT PUSH2 0x2D28 JUMPI PUSH1 0x0 DUP1 REVERT JUMPDEST PUSH1 0x0 SWAP2 DUP3 MSTORE PUSH1 0x20 SWAP1 SWAP2 KECCAK256 PUSH1 0x8 SWAP1 SWAP2 MUL ADD DUP1 SLOAD PUSH1 0x1 DUP3 ADD SLOAD PUSH1 0x2 DUP4 ADD DUP1 SLOAD SWAP3 SWAP6 POP PUSH1 0x1 PUSH1 0x1 PUSH1 0xA0 SHL SUB SWAP1 SWAP2 AND SWAP4 POP SWAP1 PUSH2 0x2D5F SWAP1 PUSH2 0x5C86 JUMP JUMPDEST DUP1 PUSH1 0x1F ADD PUSH1 0x20 DUP1 SWAP2 DIV MUL PUSH1 0x20 ADD PUSH1 0x40 MLOAD SWAP1 DUP2 ADD PUSH1 0x40 MSTORE DUP1 SWAP3 SWAP2 SWAP1 DUP2 DUP2 MSTORE PUSH1 0x20 ADD DUP3 DUP1 SLOAD PUSH2 0x2D8B SWAP1 PUSH2 0x5C86 JUMP JUMPDEST DUP1 ISZERO PUSH2 0x2DD8 JUMPI DUP1 PUSH1 0x1F LT PUSH2 0x2DAD JUMPI PUSH2 0x100 DUP1 DUP4 SLOAD DIV MUL DUP4 MSTORE SWAP2 PUSH1 0x20 ADD SWAP2 PUSH2 0x2DD8 JUMP JUMPDEST DUP3 ADD SWAP2 SWAP1 PUSH1 0x0 MSTORE PUSH1 0x20 PUSH1 0x0 KECCAK256 SWAP1 JUMPDEST DUP2 SLOAD DUP2 MSTORE SWAP1 PUSH1 0x1 ADD SWAP1 PUSH1 0x20 ADD DUP1 DUP4 GT PUSH2 0x2DBB JUMPI DUP3 SWAP1 SUB PUSH1 0x1F AND DUP3 ADD SWAP2 JUMPDEST POP POP POP POP POP SWAP1 DUP1 PUSH1 0x3 ADD DUP1 SLOAD PUSH2 0x2DED SWAP1 PUSH2 0x5C86 JUMP JUMPDEST DUP1 PUSH1 0x1F ADD PUSH1 0x20 DUP1 SWAP2 DIV MUL PUSH1 0x20 ADD PUSH1 0x40 MLOAD SWAP1 DUP2 ADD PUSH1 0x40 MSTORE DUP1 SWAP3 SWAP2 SWAP1 DUP2 DUP2 MSTORE PUSH1 0x20 ADD DUP3 DUP1 SLOAD PUSH2 0x2E19 SWAP1 PUSH2 0x5C86 JUMP JUMPDEST DUP1 ISZERO PUSH2 0x2E66 JUMPI DUP1 PUSH1 0x1F LT PUSH2 0x2E3B JUMPI PUSH2 0x100 DUP1 DUP4 SLOAD DIV MUL DUP4 MSTORE SWAP2 PUSH1 0x20 ADD SWAP2 PUSH2 0x2E66 JUMP JUMPDEST DUP3 ADD SWAP2 SWAP1 PUSH1 0x0 MSTORE PUSH1 0x20 PUSH1 0x0 KECCAK256 SWAP1 JUMPDEST DUP2 SLOAD DUP2 MSTORE SWAP1 PUSH1 0x1 ADD SWAP1 PUSH1 0x20 ADD DUP1 DUP4 GT PUSH2 0x2E49 JUMPI DUP3 SWAP1 SUB PUSH1 0x1F AND DUP3 ADD SWAP2 JUMPDEST POP POP POP PUSH1 0x4 DUP5 ADD SLOAD PUSH1 0x5 DUP6 ADD DUP1 SLOAD SWAP5 SWAP6 PUSH1 0x1 PUSH1 0x1 PUSH1 0xA0 SHL SUB SWAP1 SWAP3 AND SWAP5 SWAP2 SWAP4 POP SWAP2 POP PUSH2 0x2E90 SWAP1 PUSH2 0x5C86 JUMP JUMPDEST DUP1 PUSH1 0x1F ADD PUSH1 0x20 DUP1 SWAP2 DIV MUL PUSH1 0x20 ADD PUSH1 0x40 MLOAD SWAP1 DUP2 ADD PUSH1 0x40 MSTORE DUP1 SWAP3 SWAP2 SWAP1 DUP2 DUP2 MSTORE PUSH1 0x20 ADD DUP3 DUP1 SLOAD PUSH2 0x2EBC SWAP1 PUSH2 0x5C86 JUMP JUMPDEST DUP1 ISZERO PUSH2 0x2F09 JUMPI DUP1 PUSH1 0x1F LT PUSH2 0x2EDE JUMPI PUSH2 0x100 DUP1 DUP4 SLOAD DIV MUL DUP4 MSTORE SWAP2 PUSH1 0x20 ADD SWAP2 PUSH2 0x2F09 JUMP JUMPDEST DUP3 ADD SWAP2 SWAP1 PUSH1 0x0 MSTORE PUSH1 0x20 PUSH1 0x0 KECCAK256 SWAP1 JUMPDEST DUP2 SLOAD DUP2 MSTORE SWAP1 PUSH1 0x1 ADD SWAP1 PUSH1 0x20 ADD DUP1 DUP4 GT PUSH2 0x2EEC JUMPI DUP3 SWAP1 SUB PUSH1 0x1F AND DUP3 ADD SWAP2 JUMPDEST POP POP POP POP PUSH1 0x6 DUP4 ADD SLOAD PUSH1 0x7 SWAP1 SWAP4 ADD SLOAD SWAP2 SWAP3 PUSH1 0x1 PUSH1 0x1 PUSH1 0xA0 SHL SUB AND SWAP2 SWAP1 POP DUP9 JUMP JUMPDEST PUSH1 0x60 DUP1 PUSH1 0x0 DUP1 PUSH1 0x0 DUP1 PUSH1 0x0 DUP1 PUSH1 0x0 DUP1 PUSH1 0x7 PUSH1 0x0 DUP13 DUP2 MSTORE PUSH1 0x20 ADD SWAP1 DUP2 MSTORE PUSH1 0x20 ADD PUSH1 0x0 KECCAK256 PUSH1 0x40 MLOAD DUP1 PUSH2 0x120 ADD PUSH1 0x40 MSTORE SWAP1 DUP2 PUSH1 0x0 DUP3 ADD DUP1 SLOAD PUSH2 0x2F67 SWAP1 PUSH2 0x5C86 JUMP JUMPDEST DUP1 PUSH1 0x1F ADD PUSH1 0x20 DUP1 SWAP2 DIV MUL PUSH1 0x20 ADD PUSH1 0x40 MLOAD SWAP1 DUP2 ADD PUSH1 0x40 MSTORE DUP1 SWAP3 SWAP2 SWAP1 DUP2 DUP2 MSTORE PUSH1 0x20 ADD DUP3 DUP1 SLOAD PUSH2 0x2F93 SWAP1 PUSH2 0x5C86 JUMP JUMPDEST DUP1 ISZERO PUSH2 0x2FE0 JUMPI DUP1 PUSH1 0x1F LT PUSH2 0x2FB5 JUMPI PUSH2 0x100 DUP1 DUP4 SLOAD DIV MUL DUP4 MSTORE SWAP2 PUSH1 0x20 ADD SWAP2 PUSH2 0x2FE0 JUMP JUMPDEST DUP3 ADD SWAP2 SWAP1 PUSH1 0x0 MSTORE PUSH1 0x20 PUSH1 0x0 KECCAK256 SWAP1 JUMPDEST DUP2 SLOAD DUP2 MSTORE SWAP1 PUSH1 0x1 ADD SWAP1 PUSH1 0x20 ADD DUP1 DUP4 GT PUSH2 0x2FC3 JUMPI DUP3 SWAP1 SUB PUSH1 0x1F AND DUP3 ADD SWAP2 JUMPDEST POP POP POP POP POP DUP2 MSTORE PUSH1 0x20 ADD PUSH1 0x1 DUP3 ADD DUP1 SLOAD PUSH2 0x2FF9 SWAP1 PUSH2 0x5C86 JUMP JUMPDEST DUP1 PUSH1 0x1F ADD PUSH1 0x20 DUP1 SWAP2 DIV MUL PUSH1 0x20 ADD PUSH1 0x40 MLOAD SWAP1 DUP2 ADD PUSH1 0x40 MSTORE DUP1 SWAP3 SWAP2 SWAP1 DUP2 DUP2 MSTORE PUSH1 0x20 ADD DUP3 DUP1 SLOAD PUSH2 0x3025 SWAP1 PUSH2 0x5C86 JUMP JUMPDEST DUP1 ISZERO PUSH2 0x3072 JUMPI DUP1 PUSH1 0x1F LT PUSH2 0x3047 JUMPI PUSH2 0x100 DUP1 DUP4 SLOAD DIV MUL DUP4 MSTORE SWAP2 PUSH1 0x20 ADD SWAP2 PUSH2 0x3072 JUMP JUMPDEST DUP3 ADD SWAP2 SWAP1 PUSH1 0x0 MSTORE PUSH1 0x20 PUSH1 0x0 KECCAK256 SWAP1 JUMPDEST DUP2 SLOAD DUP2 MSTORE SWAP1 PUSH1 0x1 ADD SWAP1 PUSH1 0x20 ADD DUP1 DUP4 GT PUSH2 0x3055 JUMPI DUP3 SWAP1 SUB PUSH1 0x1F AND DUP3 ADD SWAP2 JUMPDEST POP POP POP POP POP DUP2 MSTORE PUSH1 0x20 ADD PUSH1 0x2 DUP3 ADD PUSH1 0x0 SWAP1 SLOAD SWAP1 PUSH2 0x100 EXP SWAP1 DIV PUSH1 0x1 PUSH1 0x1 PUSH1 0xA0 SHL SUB AND PUSH1 0x1 PUSH1 0x1 PUSH1 0xA0 SHL SUB AND PUSH1 0x1 PUSH1 0x1 PUSH1 0xA0 SHL SUB AND DUP2 MSTORE PUSH1 0x20 ADD PUSH1 0x3 DUP3 ADD PUSH1 0x0 SWAP1 SLOAD SWAP1 PUSH2 0x100 EXP SWAP1 DIV PUSH1 0x1 PUSH1 0x1 PUSH1 0xA0 SHL SUB AND PUSH1 0x1 PUSH1 0x1 PUSH1 0xA0 SHL SUB AND PUSH1 0x1 PUSH1 0x1 PUSH1 0xA0 SHL SUB AND DUP2 MSTORE PUSH1 0x20 ADD PUSH1 0x4 DUP3 ADD PUSH1 0x0 SWAP1 SLOAD SWAP1 PUSH2 0x100 EXP SWAP1 DIV PUSH1 0x1 PUSH1 0x1 PUSH1 0xA0 SHL SUB AND PUSH1 0x1 PUSH1 0x1 PUSH1 0xA0 SHL SUB AND PUSH1 0x1 PUSH1 0x1 PUSH1 0xA0 SHL SUB AND DUP2 MSTORE PUSH1 0x20 ADD PUSH1 0x5 DUP3 ADD SLOAD DUP2 MSTORE PUSH1 0x20 ADD PUSH1 0x6 DUP3 ADD SLOAD DUP2 MSTORE PUSH1 0x20 ADD PUSH1 0x7 DUP3 ADD SLOAD DUP2 MSTORE PUSH1 0x20 ADD PUSH1 0x8 DUP3 ADD SLOAD DUP2 MSTORE POP POP SWAP1 POP DUP1 PUSH1 0x0 ADD MLOAD DUP2 PUSH1 0x20 ADD MLOAD DUP3 PUSH1 0x40 ADD MLOAD DUP4 PUSH1 0x60 ADD MLOAD DUP5 PUSH1 0x80 ADD MLOAD DUP6 PUSH1 0xA0 ADD MLOAD DUP7 PUSH1 0xC0 ADD MLOAD DUP8 PUSH1 0xE0 ADD MLOAD DUP9 PUSH2 0x100 ADD MLOAD SWAP10 POP SWAP10 POP SWAP10 POP SWAP10 POP SWAP10 POP SWAP10 POP SWAP10 POP SWAP10 POP SWAP10 POP POP SWAP2 SWAP4 SWAP6 SWAP8 SWAP10 SWAP1 SWAP3 SWAP5 SWAP7 SWAP9 POP JUMP JUMPDEST PUSH1 0xE PUSH1 0x20 MSTORE PUSH1 0x0 SWAP1 DUP2 MSTORE PUSH1 0x40 SWAP1 KECCAK256 DUP1 SLOAD PUSH1 0x1 DUP3 ADD DUP1 SLOAD PUSH1 0x1 PUSH1 0x1 PUSH1 0xA0 SHL SUB SWAP1 SWAP3 AND SWAP3 SWAP2 PUSH2 0x31AC SWAP1 PUSH2 0x5C86 JUMP JUMPDEST DUP1 PUSH1 0x1F ADD PUSH1 0x20 DUP1 SWAP2 DIV MUL PUSH1 0x20 ADD PUSH1 0x40 MLOAD SWAP1 DUP2 ADD PUSH1 0x40 MSTORE DUP1 SWAP3 SWAP2 SWAP1 DUP2 DUP2 MSTORE PUSH1 0x20 ADD DUP3 DUP1 SLOAD PUSH2 0x31D8 SWAP1 PUSH2 0x5C86 JUMP JUMPDEST DUP1 ISZERO PUSH2 0x3225 JUMPI DUP1 PUSH1 0x1F LT PUSH2 0x31FA JUMPI PUSH2 0x100 DUP1 DUP4 SLOAD DIV MUL DUP4 MSTORE SWAP2 PUSH1 0x20 ADD SWAP2 PUSH2 0x3225 JUMP JUMPDEST DUP3 ADD SWAP2 SWAP1 PUSH1 0x0 MSTORE PUSH1 0x20 PUSH1 0x0 KECCAK256 SWAP1 JUMPDEST DUP2 SLOAD DUP2 MSTORE SWAP1 PUSH1 0x1 ADD SWAP1 PUSH1 0x20 ADD DUP1 DUP4 GT PUSH2 0x3208 JUMPI DUP3 SWAP1 SUB PUSH1 0x1F AND DUP3 ADD SWAP2 JUMPDEST POP POP POP POP POP SWAP1 DUP1 PUSH1 0x2 ADD DUP1 SLOAD PUSH2 0x323A SWAP1 PUSH2 0x5C86 JUMP JUMPDEST DUP1 PUSH1 0x1F ADD PUSH1 0x20 DUP1 SWAP2 DIV MUL PUSH1 0x20 ADD PUSH1 0x40 MLOAD SWAP1 DUP2 ADD PUSH1 0x40 MSTORE DUP1 SWAP3 SWAP2 SWAP1 DUP2 DUP2 MSTORE PUSH1 0x20 ADD DUP3 DUP1 SLOAD PUSH2 0x3266 SWAP1 PUSH2 0x5C86 JUMP JUMPDEST DUP1 ISZERO PUSH2 0x32B3 JUMPI DUP1 PUSH1 0x1F LT PUSH2 0x3288 JUMPI PUSH2 0x100 DUP1 DUP4 SLOAD DIV MUL DUP4 MSTORE SWAP2 PUSH1 0x20 ADD SWAP2 PUSH2 0x32B3 JUMP JUMPDEST DUP3 ADD SWAP2 SWAP1 PUSH1 0x0 MSTORE PUSH1 0x20 PUSH1 0x0 KECCAK256 SWAP1 JUMPDEST DUP2 SLOAD DUP2 MSTORE SWAP1 PUSH1 0x1 ADD SWAP1 PUSH1 0x20 ADD DUP1 DUP4 GT PUSH2 0x3296 JUMPI DUP3 SWAP1 SUB PUSH1 0x1F AND DUP3 ADD SWAP2 JUMPDEST POP POP POP POP PUSH1 0x3 DUP4 ADD SLOAD PUSH1 0x4 SWAP1 SWAP4 ADD SLOAD SWAP2 SWAP3 SWAP2 PUSH1 0xFF AND SWAP1 POP DUP6 JUMP JUMPDEST PUSH1 0x0 PUSH1 0x60 DUP1 PUSH1 0x0 DUP1 PUSH1 0xF DUP1 SLOAD SWAP1 POP DUP7 LT PUSH2 0x331F JUMPI PUSH1 0x40 MLOAD PUSH3 0x461BCD PUSH1 0xE5 SHL DUP2 MSTORE PUSH1 0x20 PUSH1 0x4 DUP3 ADD MSTORE PUSH1 0x13 PUSH1 0x24 DUP3 ADD MSTORE PUSH19 0x496E646578206F7574206F6620626F756E6473 PUSH1 0x68 SHL PUSH1 0x44 DUP3 ADD MSTORE PUSH1 0x64 ADD PUSH2 0x826 JUMP JUMPDEST PUSH1 0x0 PUSH1 0xF DUP8 DUP2 SLOAD DUP2 LT PUSH2 0x3334 JUMPI PUSH2 0x3334 PUSH2 0x5CC0 JUMP JUMPDEST PUSH1 0x0 SWAP2 DUP3 MSTORE PUSH1 0x20 DUP1 DUP4 KECCAK256 SWAP1 SWAP2 ADD SLOAD PUSH1 0x1 PUSH1 0x1 PUSH1 0xA0 SHL SUB SWAP1 DUP2 AND DUP1 DUP5 MSTORE PUSH1 0xE DUP4 MSTORE PUSH1 0x40 DUP1 DUP6 KECCAK256 DUP2 MLOAD PUSH1 0xA0 DUP2 ADD SWAP1 SWAP3 MSTORE DUP1 SLOAD SWAP1 SWAP4 AND DUP2 MSTORE PUSH1 0x1 DUP4 ADD DUP1 SLOAD SWAP3 SWAP7 POP SWAP1 SWAP4 DUP5 ADD SWAP2 PUSH2 0x3380 SWAP1 PUSH2 0x5C86 JUMP JUMPDEST DUP1 PUSH1 0x1F ADD PUSH1 0x20 DUP1 SWAP2 DIV MUL PUSH1 0x20 ADD PUSH1 0x40 MLOAD SWAP1 DUP2 ADD PUSH1 0x40 MSTORE DUP1 SWAP3 SWAP2 SWAP1 DUP2 DUP2 MSTORE PUSH1 0x20 ADD DUP3 DUP1 SLOAD PUSH2 0x33AC SWAP1 PUSH2 0x5C86 JUMP JUMPDEST DUP1 ISZERO PUSH2 0x33F9 JUMPI DUP1 PUSH1 0x1F LT PUSH2 0x33CE JUMPI PUSH2 0x100 DUP1 DUP4 SLOAD DIV MUL DUP4 MSTORE SWAP2 PUSH1 0x20 ADD SWAP2 PUSH2 0x33F9 JUMP JUMPDEST DUP3 ADD SWAP2 SWAP1 PUSH1 0x0 MSTORE PUSH1 0x20 PUSH1 0x0 KECCAK256 SWAP1 JUMPDEST DUP2 SLOAD DUP2 MSTORE SWAP1 PUSH1 0x1 ADD SWAP1 PUSH1 0x20 ADD DUP1 DUP4 GT PUSH2 0x33DC JUMPI DUP3 SWAP1 SUB PUSH1 0x1F AND DUP3 ADD SWAP2 JUMPDEST POP POP POP POP POP DUP2 MSTORE PUSH1 0x20 ADD PUSH1 0x2 DUP3 ADD DUP1 SLOAD PUSH2 0x3412 SWAP1 PUSH2 0x5C86 JUMP JUMPDEST DUP1 PUSH1 0x1F ADD PUSH1 0x20 DUP1 SWAP2 DIV MUL PUSH1 0x20 ADD PUSH1 0x40 MLOAD SWAP1 DUP2 ADD PUSH1 0x40 MSTORE DUP1 SWAP3 SWAP2 SWAP1 DUP2 DUP2 MSTORE PUSH1 0x20 ADD DUP3 DUP1 SLOAD PUSH2 0x343E SWAP1 PUSH2 0x5C86 JUMP JUMPDEST DUP1 ISZERO PUSH2 0x348B JUMPI DUP1 PUSH1 0x1F LT PUSH2 0x3460 JUMPI PUSH2 0x100 DUP1 DUP4 SLOAD DIV MUL DUP4 MSTORE SWAP2 PUSH1 0x20 ADD SWAP2 PUSH2 0x348B JUMP JUMPDEST DUP3 ADD SWAP2 SWAP1 PUSH1 0x0 MSTORE PUSH1 0x20 PUSH1 0x0 KECCAK256 SWAP1 JUMPDEST DUP2 SLOAD DUP2 MSTORE SWAP1 PUSH1 0x1 ADD SWAP1 PUSH1 0x20 ADD DUP1 DUP4 GT PUSH2 0x346E JUMPI DUP3 SWAP1 SUB PUSH1 0x1F AND DUP3 ADD SWAP2 JUMPDEST POP POP POP SWAP2 DUP4 MSTORE POP POP PUSH1 0x3 DUP3 ADD SLOAD PUSH1 0x20 DUP3 ADD MSTORE PUSH1 0x4 DUP3 ADD SLOAD PUSH1 0x40 SWAP1 SWAP2 ADD SWAP1 PUSH1 0xFF AND PUSH1 0x2 DUP2 GT ISZERO PUSH2 0x34BC JUMPI PUSH2 0x34BC PUSH2 0x555A JUMP JUMPDEST PUSH1 0x2 DUP2 GT ISZERO PUSH2 0x34CD JUMPI PUSH2 0x34CD PUSH2 0x555A JUMP JUMPDEST SWAP1 MSTORE POP DUP1 MLOAD PUSH1 0x20 DUP3 ADD MLOAD PUSH1 0x40 DUP4 ADD MLOAD PUSH1 0x60 DUP5 ADD MLOAD PUSH1 0x80 SWAP1 SWAP5 ADD MLOAD SWAP3 SWAP13 SWAP2 SWAP12 POP SWAP10 POP SWAP2 SWAP8 POP SWAP6 POP SWAP4 POP POP POP POP JUMP JUMPDEST PUSH1 0x0 PUSH1 0x60 DUP1 PUSH1 0x0 DUP1 PUSH1 0x0 PUSH1 0x60 DUP1 PUSH1 0x0 DUP1 PUSH1 0x0 PUSH1 0x3 PUSH1 0x0 DUP14 DUP2 MSTORE PUSH1 0x20 ADD SWAP1 DUP2 MSTORE PUSH1 0x20 ADD PUSH1 0x0 KECCAK256 PUSH1 0x40 MLOAD DUP1 PUSH2 0x140 ADD PUSH1 0x40 MSTORE SWAP1 DUP2 PUSH1 0x0 DUP3 ADD SLOAD DUP2 MSTORE PUSH1 0x20 ADD PUSH1 0x1 DUP3 ADD DUP1 SLOAD PUSH2 0x3545 SWAP1 PUSH2 0x5C86 JUMP JUMPDEST DUP1 PUSH1 0x1F ADD PUSH1 0x20 DUP1 SWAP2 DIV MUL PUSH1 0x20 ADD PUSH1 0x40 MLOAD SWAP1 DUP2 ADD PUSH1 0x40 MSTORE DUP1 SWAP3 SWAP2 SWAP1 DUP2 DUP2 MSTORE PUSH1 0x20 ADD DUP3 DUP1 SLOAD PUSH2 0x3571 SWAP1 PUSH2 0x5C86 JUMP JUMPDEST DUP1 ISZERO PUSH2 0x35BE JUMPI DUP1 PUSH1 0x1F LT PUSH2 0x3593 JUMPI PUSH2 0x100 DUP1 DUP4 SLOAD DIV MUL DUP4 MSTORE SWAP2 PUSH1 0x20 ADD SWAP2 PUSH2 0x35BE JUMP JUMPDEST DUP3 ADD SWAP2 SWAP1 PUSH1 0x0 MSTORE PUSH1 0x20 PUSH1 0x0 KECCAK256 SWAP1 JUMPDEST DUP2 SLOAD DUP2 MSTORE SWAP1 PUSH1 0x1 ADD SWAP1 PUSH1 0x20 ADD DUP1 DUP4 GT PUSH2 0x35A1 JUMPI DUP3 SWAP1 SUB PUSH1 0x1F AND DUP3 ADD SWAP2 JUMPDEST POP POP POP POP POP DUP2 MSTORE PUSH1 0x20 ADD PUSH1 0x2 DUP3 ADD DUP1 SLOAD PUSH2 0x35D7 SWAP1 PUSH2 0x5C86 JUMP JUMPDEST DUP1 PUSH1 0x1F ADD PUSH1 0x20 DUP1 SWAP2 DIV MUL PUSH1 0x20 ADD PUSH1 0x40 MLOAD SWAP1 DUP2 ADD PUSH1 0x40 MSTORE DUP1 SWAP3 SWAP2 SWAP1 DUP2 DUP2 MSTORE PUSH1 0x20 ADD DUP3 DUP1 SLOAD PUSH2 0x3603 SWAP1 PUSH2 0x5C86 JUMP JUMPDEST DUP1 ISZERO PUSH2 0x3650 JUMPI DUP1 PUSH1 0x1F LT PUSH2 0x3625 JUMPI PUSH2 0x100 DUP1 DUP4 SLOAD DIV MUL DUP4 MSTORE SWAP2 PUSH1 0x20 ADD SWAP2 PUSH2 0x3650 JUMP JUMPDEST DUP3 ADD SWAP2 SWAP1 PUSH1 0x0 MSTORE PUSH1 0x20 PUSH1 0x0 KECCAK256 SWAP1 JUMPDEST DUP2 SLOAD DUP2 MSTORE SWAP1 PUSH1 0x1 ADD SWAP1 PUSH1 0x20 ADD DUP1 DUP4 GT PUSH2 0x3633 JUMPI DUP3 SWAP1 SUB PUSH1 0x1F AND DUP3 ADD SWAP2 JUMPDEST POP POP POP SWAP2 DUP4 MSTORE POP POP PUSH1 0x3 DUP3 ADD SLOAD PUSH1 0x1 PUSH1 0x1 PUSH1 0xA0 SHL SUB SWAP1 DUP2 AND PUSH1 0x20 DUP4 ADD MSTORE PUSH1 0x4 DUP4 ADD SLOAD DUP2 AND PUSH1 0x40 DUP4 ADD MSTORE PUSH1 0x5 DUP4 ADD SLOAD AND PUSH1 0x60 DUP3 ADD MSTORE PUSH1 0x6 DUP3 ADD DUP1 SLOAD PUSH1 0x80 SWAP1 SWAP3 ADD SWAP2 PUSH2 0x3699 SWAP1 PUSH2 0x5C86 JUMP JUMPDEST DUP1 PUSH1 0x1F ADD PUSH1 0x20 DUP1 SWAP2 DIV MUL PUSH1 0x20 ADD PUSH1 0x40 MLOAD SWAP1 DUP2 ADD PUSH1 0x40 MSTORE DUP1 SWAP3 SWAP2 SWAP1 DUP2 DUP2 MSTORE PUSH1 0x20 ADD DUP3 DUP1 SLOAD PUSH2 0x36C5 SWAP1 PUSH2 0x5C86 JUMP JUMPDEST DUP1 ISZERO PUSH2 0x3712 JUMPI DUP1 PUSH1 0x1F LT PUSH2 0x36E7 JUMPI PUSH2 0x100 DUP1 DUP4 SLOAD DIV MUL DUP4 MSTORE SWAP2 PUSH1 0x20 ADD SWAP2 PUSH2 0x3712 JUMP JUMPDEST DUP3 ADD SWAP2 SWAP1 PUSH1 0x0 MSTORE PUSH1 0x20 PUSH1 0x0 KECCAK256 SWAP1 JUMPDEST DUP2 SLOAD DUP2 MSTORE SWAP1 PUSH1 0x1 ADD SWAP1 PUSH1 0x20 ADD DUP1 DUP4 GT PUSH2 0x36F5 JUMPI DUP3 SWAP1 SUB PUSH1 0x1F AND DUP3 ADD SWAP2 JUMPDEST POP POP POP POP POP DUP2 MSTORE PUSH1 0x20 ADD PUSH1 0x7 DUP3 ADD DUP1 SLOAD PUSH2 0x372B SWAP1 PUSH2 0x5C86 JUMP JUMPDEST DUP1 PUSH1 0x1F ADD PUSH1 0x20 DUP1 SWAP2 DIV MUL PUSH1 0x20 ADD PUSH1 0x40 MLOAD SWAP1 DUP2 ADD PUSH1 0x40 MSTORE DUP1 SWAP3 SWAP2 SWAP1 DUP2 DUP2 MSTORE PUSH1 0x20 ADD DUP3 DUP1 SLOAD PUSH2 0x3757 SWAP1 PUSH2 0x5C86 JUMP JUMPDEST DUP1 ISZERO PUSH2 0x37A4 JUMPI DUP1 PUSH1 0x1F LT PUSH2 0x3779 JUMPI PUSH2 0x100 DUP1 DUP4 SLOAD DIV MUL DUP4 MSTORE SWAP2 PUSH1 0x20 ADD SWAP2 PUSH2 0x37A4 JUMP JUMPDEST DUP3 ADD SWAP2 SWAP1 PUSH1 0x0 MSTORE PUSH1 0x20 PUSH1 0x0 KECCAK256 SWAP1 JUMPDEST DUP2 SLOAD DUP2 MSTORE SWAP1 PUSH1 0x1 ADD SWAP1 PUSH1 0x20 ADD DUP1 DUP4 GT PUSH2 0x3787 JUMPI DUP3 SWAP1 SUB PUSH1 0x1F AND DUP3 ADD SWAP2 JUMPDEST POP POP POP SWAP2 DUP4 MSTORE POP POP PUSH1 0x8 DUP3 ADD SLOAD PUSH1 0x20 DUP3 ADD MSTORE PUSH1 0x9 DUP3 ADD SLOAD PUSH1 0x40 SWAP1 SWAP2 ADD SWAP1 PUSH1 0xFF AND PUSH1 0x2 DUP2 GT ISZERO PUSH2 0x37D5 JUMPI PUSH2 0x37D5 PUSH2 0x555A JUMP JUMPDEST PUSH1 0x2 DUP2 GT ISZERO PUSH2 0x37E6 JUMPI PUSH2 0x37E6 PUSH2 0x555A JUMP JUMPDEST DUP2 MSTORE POP POP SWAP1 POP DUP1 PUSH1 0x0 ADD MLOAD DUP2 PUSH1 0x20 ADD MLOAD DUP3 PUSH1 0x40 ADD MLOAD DUP4 PUSH1 0x60 ADD MLOAD DUP5 PUSH1 0x80 ADD MLOAD DUP6 PUSH1 0xA0 ADD MLOAD DUP7 PUSH1 0xC0 ADD MLOAD DUP8 PUSH1 0xE0 ADD MLOAD DUP9 PUSH2 0x100 ADD MLOAD DUP10 PUSH2 0x120 ADD MLOAD SWAP11 POP SWAP11 POP SWAP11 POP SWAP11 POP SWAP11 POP SWAP11 POP SWAP11 POP SWAP11 POP SWAP11 POP SWAP11 POP POP SWAP2 SWAP4 SWAP6 SWAP8 SWAP10 POP SWAP2 SWAP4 SWAP6 SWAP8 SWAP10 JUMP JUMPDEST PUSH1 0xD SLOAD PUSH1 0x1 PUSH1 0x1 PUSH1 0xA0 SHL SUB AND CALLER EQ PUSH2 0x386C JUMPI PUSH1 0x40 MLOAD PUSH3 0x461BCD PUSH1 0xE5 SHL DUP2 MSTORE PUSH1 0x4 ADD PUSH2 0x826 SWAP1 PUSH2 0x5CD6 JUMP JUMPDEST PUSH1 0x0 DUP2 DUP2 MSTORE PUSH1 0x5 PUSH1 0x20 MSTORE PUSH1 0x40 SWAP1 KECCAK256 PUSH1 0x3 ADD SLOAD PUSH3 0x10000 SWAP1 DIV PUSH1 0xFF AND PUSH2 0x38C2 JUMPI PUSH1 0x40 MLOAD PUSH3 0x461BCD PUSH1 0xE5 SHL DUP2 MSTORE PUSH1 0x20 PUSH1 0x4 DUP3 ADD MSTORE PUSH1 0xC PUSH1 0x24 DUP3 ADD MSTORE PUSH12 0x37379039BAB1B4103AB9B2B9 PUSH1 0xA1 SHL PUSH1 0x44 DUP3 ADD MSTORE PUSH1 0x64 ADD PUSH2 0x826 JUMP JUMPDEST PUSH1 0x0 DUP2 DUP2 MSTORE PUSH1 0x5 PUSH1 0x20 MSTORE PUSH1 0x40 SWAP1 KECCAK256 PUSH1 0x3 ADD SLOAD PUSH2 0x100 SWAP1 DIV PUSH1 0xFF AND ISZERO PUSH2 0x3929 JUMPI PUSH1 0x40 MLOAD PUSH3 0x461BCD PUSH1 0xE5 SHL DUP2 MSTORE PUSH1 0x20 PUSH1 0x4 DUP3 ADD MSTORE PUSH1 0x18 PUSH1 0x24 DUP3 ADD MSTORE PUSH32 0x7265717565737420616C726561647920617070726F7665640000000000000000 PUSH1 0x44 DUP3 ADD MSTORE PUSH1 0x64 ADD PUSH2 0x826 JUMP JUMPDEST PUSH1 0x0 DUP2 DUP2 MSTORE PUSH1 0x5 PUSH1 0x20 SWAP1 DUP2 MSTORE PUSH1 0x40 SWAP2 DUP3 SWAP1 KECCAK256 DUP3 MLOAD PUSH1 0xA0 DUP2 ADD SWAP1 SWAP4 MSTORE DUP1 SLOAD PUSH1 0x1 PUSH1 0x1 PUSH1 0xA0 SHL SUB AND DUP4 MSTORE PUSH1 0x1 DUP2 ADD DUP1 SLOAD SWAP2 SWAP4 SWAP3 DUP4 ADD SWAP2 PUSH2 0x3966 SWAP1 PUSH2 0x5C86 JUMP JUMPDEST DUP1 PUSH1 0x1F ADD PUSH1 0x20 DUP1 SWAP2 DIV MUL PUSH1 0x20 ADD PUSH1 0x40 MLOAD SWAP1 DUP2 ADD PUSH1 0x40 MSTORE DUP1 SWAP3 SWAP2 SWAP1 DUP2 DUP2 MSTORE PUSH1 0x20 ADD DUP3 DUP1 SLOAD PUSH2 0x3992 SWAP1 PUSH2 0x5C86 JUMP JUMPDEST DUP1 ISZERO PUSH2 0x39DF JUMPI DUP1 PUSH1 0x1F LT PUSH2 0x39B4 JUMPI PUSH2 0x100 DUP1 DUP4 SLOAD DIV MUL DUP4 MSTORE SWAP2 PUSH1 0x20 ADD SWAP2 PUSH2 0x39DF JUMP JUMPDEST DUP3 ADD SWAP2 SWAP1 PUSH1 0x0 MSTORE PUSH1 0x20 PUSH1 0x0 KECCAK256 SWAP1 JUMPDEST DUP2 SLOAD DUP2 MSTORE SWAP1 PUSH1 0x1 ADD SWAP1 PUSH1 0x20 ADD DUP1 DUP4 GT PUSH2 0x39C2 JUMPI DUP3 SWAP1 SUB PUSH1 0x1F AND DUP3 ADD SWAP2 JUMPDEST POP POP POP POP POP DUP2 MSTORE PUSH1 0x20 ADD DUP3 PUSH1 0x2 ADD DUP1 SLOAD PUSH2 0x39F8 SWAP1 PUSH2 0x5C86 JUMP JUMPDEST DUP1 PUSH1 0x1F ADD PUSH1 0x20 DUP1 SWAP2 DIV MUL PUSH1 0x20 ADD PUSH1 0x40 MLOAD SWAP1 DUP2 ADD PUSH1 0x40 MSTORE DUP1 SWAP3 SWAP2 SWAP1 DUP2 DUP2 MSTORE PUSH1 0x20 ADD DUP3 DUP1 SLOAD PUSH2 0x3A24 SWAP1 PUSH2 0x5C86 JUMP JUMPDEST DUP1 ISZERO PUSH2 0x3A71 JUMPI DUP1 PUSH1 0x1F LT PUSH2 0x3A46 JUMPI PUSH2 0x100 DUP1 DUP4 SLOAD DIV MUL DUP4 MSTORE SWAP2 PUSH1 0x20 ADD SWAP2 PUSH2 0x3A71 JUMP JUMPDEST DUP3 ADD SWAP2 SWAP1 PUSH1 0x0 MSTORE PUSH1 0x20 PUSH1 0x0 KECCAK256 SWAP1 JUMPDEST DUP2 SLOAD DUP2 MSTORE SWAP1 PUSH1 0x1 ADD SWAP1 PUSH1 0x20 ADD DUP1 DUP4 GT PUSH2 0x3A54 JUMPI DUP3 SWAP1 SUB PUSH1 0x1F AND DUP3 ADD SWAP2 JUMPDEST POP POP POP SWAP2 DUP4 MSTORE POP POP PUSH1 0x0 PUSH1 0x20 DUP3 ADD MSTORE PUSH1 0x3 DUP4 ADD SLOAD PUSH1 0x40 SWAP1 SWAP2 ADD SWAP1 PUSH1 0xFF AND PUSH1 0x2 DUP2 GT ISZERO PUSH2 0x3A9F JUMPI PUSH2 0x3A9F PUSH2 0x555A JUMP JUMPDEST SWAP1 MSTORE DUP2 SLOAD PUSH1 0x1 PUSH1 0x1 PUSH1 0xA0 SHL SUB SWAP1 DUP2 AND PUSH1 0x0 SWAP1 DUP2 MSTORE PUSH1 0xE PUSH1 0x20 SWAP1 DUP2 MSTORE PUSH1 0x40 SWAP1 SWAP2 KECCAK256 DUP4 MLOAD DUP2 SLOAD PUSH1 0x1 PUSH1 0x1 PUSH1 0xA0 SHL SUB NOT AND SWAP4 AND SWAP3 SWAP1 SWAP3 OR DUP3 SSTORE DUP3 ADD MLOAD PUSH1 0x1 DUP3 ADD SWAP1 PUSH2 0x3AE7 SWAP1 DUP3 PUSH2 0x5E3B JUMP JUMPDEST POP PUSH1 0x40 DUP3 ADD MLOAD PUSH1 0x2 DUP3 ADD SWAP1 PUSH2 0x3AFC SWAP1 DUP3 PUSH2 0x5E3B JUMP JUMPDEST POP PUSH1 0x60 DUP3 ADD MLOAD PUSH1 0x3 DUP3 ADD SSTORE PUSH1 0x80 DUP3 ADD MLOAD PUSH1 0x4 DUP3 ADD DUP1 SLOAD PUSH1 0xFF NOT AND PUSH1 0x1 DUP4 PUSH1 0x2 DUP2 GT ISZERO PUSH2 0x3B2A JUMPI PUSH2 0x3B2A PUSH2 0x555A JUMP JUMPDEST MUL OR SWAP1 SSTORE POP POP POP PUSH1 0x3 DUP2 ADD SLOAD DUP2 SLOAD PUSH1 0x1 PUSH1 0x1 PUSH1 0xA0 SHL SUB AND PUSH1 0x0 SWAP1 DUP2 MSTORE PUSH1 0x6 PUSH1 0x20 MSTORE PUSH1 0x40 SWAP1 KECCAK256 DUP1 SLOAD PUSH1 0xFF SWAP1 SWAP3 AND SWAP2 PUSH1 0xFF NOT AND PUSH1 0x1 DUP4 PUSH1 0x2 DUP2 GT ISZERO PUSH2 0x3B6F JUMPI PUSH2 0x3B6F PUSH2 0x555A JUMP JUMPDEST MUL OR SWAP1 SSTORE POP PUSH1 0x0 PUSH1 0x3 DUP3 ADD SLOAD PUSH1 0xFF AND PUSH1 0x2 DUP2 GT ISZERO PUSH2 0x3B8F JUMPI PUSH2 0x3B8F PUSH2 0x555A JUMP JUMPDEST SUB PUSH2 0x3BE6 JUMPI DUP1 SLOAD PUSH1 0x11 DUP1 SLOAD PUSH1 0x1 DUP2 ADD DUP3 SSTORE PUSH1 0x0 SWAP2 SWAP1 SWAP2 MSTORE PUSH32 0x31ECC21A745E3968A04E9570E4425BC18FA8019C68028196B546D1669C200C68 ADD DUP1 SLOAD PUSH1 0x1 PUSH1 0x1 PUSH1 0xA0 SHL SUB NOT AND PUSH1 0x1 PUSH1 0x1 PUSH1 0xA0 SHL SUB SWAP1 SWAP3 AND SWAP2 SWAP1 SWAP2 OR SWAP1 SSTORE JUMPDEST PUSH1 0x1 PUSH1 0x3 DUP3 ADD SLOAD PUSH1 0xFF AND PUSH1 0x2 DUP2 GT ISZERO PUSH2 0x3C01 JUMPI PUSH2 0x3C01 PUSH2 0x555A JUMP JUMPDEST SUB PUSH2 0x3C58 JUMPI DUP1 SLOAD PUSH1 0x12 DUP1 SLOAD PUSH1 0x1 DUP2 ADD DUP3 SSTORE PUSH1 0x0 SWAP2 SWAP1 SWAP2 MSTORE PUSH32 0xBB8A6A4669BA250D26CD7A459ECA9D215F8307E33AEBE50379BC5A3617EC3444 ADD DUP1 SLOAD PUSH1 0x1 PUSH1 0x1 PUSH1 0xA0 SHL SUB NOT AND PUSH1 0x1 PUSH1 0x1 PUSH1 0xA0 SHL SUB SWAP1 SWAP3 AND SWAP2 SWAP1 SWAP2 OR SWAP1 SSTORE JUMPDEST PUSH1 0x2 PUSH1 0x3 DUP3 ADD SLOAD PUSH1 0xFF AND PUSH1 0x2 DUP2 GT ISZERO PUSH2 0x3C73 JUMPI PUSH2 0x3C73 PUSH2 0x555A JUMP JUMPDEST SUB PUSH2 0x3CCA JUMPI DUP1 SLOAD PUSH1 0x13 DUP1 SLOAD PUSH1 0x1 DUP2 ADD DUP3 SSTORE PUSH1 0x0 SWAP2 SWAP1 SWAP2 MSTORE PUSH32 0x66DE8FFDA797E3DE9C05E8FC57B3BF0EC28A930D40B0D285D93C06501CF6A090 ADD DUP1 SLOAD PUSH1 0x1 PUSH1 0x1 PUSH1 0xA0 SHL SUB NOT AND PUSH1 0x1 PUSH1 0x1 PUSH1 0xA0 SHL SUB SWAP1 SWAP3 AND SWAP2 SWAP1 SWAP2 OR SWAP1 SSTORE JUMPDEST DUP1 SLOAD PUSH1 0xF DUP1 SLOAD PUSH1 0x1 DUP2 ADD DUP3 SSTORE PUSH1 0x0 SWAP2 DUP3 MSTORE PUSH32 0x8D1108E10BCB7C27DDDFC02ED9D693A074039D026CF4EA4240B40F7D581AC802 ADD DUP1 SLOAD PUSH1 0x1 PUSH1 0x1 PUSH1 0xA0 SHL SUB NOT AND PUSH1 0x1 PUSH1 0x1 PUSH1 0xA0 SHL SUB SWAP1 SWAP4 AND SWAP3 SWAP1 SWAP3 OR SWAP1 SWAP2 SSTORE PUSH1 0xC DUP1 SLOAD SWAP2 PUSH2 0x3D29 DUP4 PUSH2 0x5DD3 JUMP JUMPDEST SWAP1 SWAP2 SSTORE POP POP PUSH1 0x3 ADD DUP1 SLOAD PUSH3 0xFFFF00 NOT AND PUSH2 0x100 OR SWAP1 SSTORE POP JUMP JUMPDEST PUSH1 0x1 PUSH1 0x1 PUSH1 0xA0 SHL SUB DUP1 DUP3 AND PUSH1 0x0 SWAP1 DUP2 MSTORE PUSH1 0xE PUSH1 0x20 SWAP1 DUP2 MSTORE PUSH1 0x40 DUP1 DUP4 KECCAK256 DUP2 MLOAD PUSH1 0xA0 DUP2 ADD SWAP1 SWAP3 MSTORE DUP1 SLOAD SWAP1 SWAP5 AND DUP2 MSTORE PUSH1 0x1 DUP5 ADD DUP1 SLOAD SWAP4 SWAP5 PUSH1 0x60 SWAP5 DUP6 SWAP5 DUP8 SWAP5 DUP6 SWAP5 DUP6 SWAP5 SWAP2 SWAP4 SWAP2 SWAP3 DUP5 ADD SWAP2 PUSH2 0x3D91 SWAP1 PUSH2 0x5C86 JUMP JUMPDEST DUP1 PUSH1 0x1F ADD PUSH1 0x20 DUP1 SWAP2 DIV MUL PUSH1 0x20 ADD PUSH1 0x40 MLOAD SWAP1 DUP2 ADD PUSH1 0x40 MSTORE DUP1 SWAP3 SWAP2 SWAP1 DUP2 DUP2 MSTORE PUSH1 0x20 ADD DUP3 DUP1 SLOAD PUSH2 0x3DBD SWAP1 PUSH2 0x5C86 JUMP JUMPDEST DUP1 ISZERO PUSH2 0x3E0A JUMPI DUP1 PUSH1 0x1F LT PUSH2 0x3DDF JUMPI PUSH2 0x100 DUP1 DUP4 SLOAD DIV MUL DUP4 MSTORE SWAP2 PUSH1 0x20 ADD SWAP2 PUSH2 0x3E0A JUMP JUMPDEST DUP3 ADD SWAP2 SWAP1 PUSH1 0x0 MSTORE PUSH1 0x20 PUSH1 0x0 KECCAK256 SWAP1 JUMPDEST DUP2 SLOAD DUP2 MSTORE SWAP1 PUSH1 0x1 ADD SWAP1 PUSH1 0x20 ADD DUP1 DUP4 GT PUSH2 0x3DED JUMPI DUP3 SWAP1 SUB PUSH1 0x1F AND DUP3 ADD SWAP2 JUMPDEST POP POP POP POP POP DUP2 MSTORE PUSH1 0x20 ADD PUSH1 0x2 DUP3 ADD DUP1 SLOAD PUSH2 0x3E23 SWAP1 PUSH2 0x5C86 JUMP JUMPDEST DUP1 PUSH1 0x1F ADD PUSH1 0x20 DUP1 SWAP2 DIV MUL PUSH1 0x20 ADD PUSH1 0x40 MLOAD SWAP1 DUP2 ADD PUSH1 0x40 MSTORE DUP1 SWAP3 SWAP2 SWAP1 DUP2 DUP2 MSTORE PUSH1 0x20 ADD DUP3 DUP1 SLOAD PUSH2 0x3E4F SWAP1 PUSH2 0x5C86 JUMP JUMPDEST DUP1 ISZERO PUSH2 0x3E9C JUMPI DUP1 PUSH1 0x1F LT PUSH2 0x3E71 JUMPI PUSH2 0x100 DUP1 DUP4 SLOAD DIV MUL DUP4 MSTORE SWAP2 PUSH1 0x20 ADD SWAP2 PUSH2 0x3E9C JUMP JUMPDEST DUP3 ADD SWAP2 SWAP1 PUSH1 0x0 MSTORE PUSH1 0x20 PUSH1 0x0 KECCAK256 SWAP1 JUMPDEST DUP2 SLOAD DUP2 MSTORE SWAP1 PUSH1 0x1 ADD SWAP1 PUSH1 0x20 ADD DUP1 DUP4 GT PUSH2 0x3E7F JUMPI DUP3 SWAP1 SUB PUSH1 0x1F AND DUP3 ADD SWAP2 JUMPDEST POP POP POP SWAP2 DUP4 MSTORE POP POP PUSH1 0x3 DUP3 ADD SLOAD PUSH1 0x20 DUP3 ADD MSTORE PUSH1 0x4 DUP3 ADD SLOAD PUSH1 0x40 SWAP1 SWAP2 ADD SWAP1 PUSH1 0xFF AND PUSH1 0x2 DUP2 GT ISZERO PUSH2 0x3ECD JUMPI PUSH2 0x3ECD PUSH2 0x555A JUMP JUMPDEST PUSH1 0x2 DUP2 GT ISZERO PUSH2 0x3EDE JUMPI PUSH2 0x3EDE PUSH2 0x555A JUMP JUMPDEST SWAP1 MSTORE POP DUP1 MLOAD PUSH1 0x20 DUP3 ADD MLOAD PUSH1 0x40 DUP4 ADD MLOAD PUSH1 0x60 DUP5 ADD MLOAD PUSH1 0x80 SWAP1 SWAP5 ADD MLOAD SWAP3 SWAP12 SWAP2 SWAP11 POP SWAP9 POP SWAP2 SWAP7 POP SWAP5 POP SWAP3 POP POP POP JUMP JUMPDEST PUSH1 0x1 PUSH1 0x1 PUSH1 0xA0 SHL SUB DUP1 DUP3 AND PUSH1 0x0 SWAP1 DUP2 MSTORE PUSH1 0xE PUSH1 0x20 SWAP1 DUP2 MSTORE PUSH1 0x40 DUP1 DUP4 KECCAK256 DUP2 MLOAD PUSH1 0xA0 DUP2 ADD SWAP1 SWAP3 MSTORE DUP1 SLOAD SWAP1 SWAP5 AND DUP2 MSTORE PUSH1 0x1 DUP5 ADD DUP1 SLOAD SWAP4 SWAP5 PUSH1 0x60 SWAP5 DUP6 SWAP5 DUP8 SWAP5 DUP6 SWAP5 SWAP1 SWAP4 SWAP3 SWAP2 DUP5 ADD SWAP2 PUSH2 0x3F57 SWAP1 PUSH2 0x5C86 JUMP JUMPDEST DUP1 PUSH1 0x1F ADD PUSH1 0x20 DUP1 SWAP2 DIV MUL PUSH1 0x20 ADD PUSH1 0x40 MLOAD SWAP1 DUP2 ADD PUSH1 0x40 MSTORE DUP1 SWAP3 SWAP2 SWAP1 DUP2 DUP2 MSTORE PUSH1 0x20 ADD DUP3 DUP1 SLOAD PUSH2 0x3F83 SWAP1 PUSH2 0x5C86 JUMP JUMPDEST DUP1 ISZERO PUSH2 0x3FD0 JUMPI DUP1 PUSH1 0x1F LT PUSH2 0x3FA5 JUMPI PUSH2 0x100 DUP1 DUP4 SLOAD DIV MUL DUP4 MSTORE SWAP2 PUSH1 0x20 ADD SWAP2 PUSH2 0x3FD0 JUMP JUMPDEST DUP3 ADD SWAP2 SWAP1 PUSH1 0x0 MSTORE PUSH1 0x20 PUSH1 0x0 KECCAK256 SWAP1 JUMPDEST DUP2 SLOAD DUP2 MSTORE SWAP1 PUSH1 0x1 ADD SWAP1 PUSH1 0x20 ADD DUP1 DUP4 GT PUSH2 0x3FB3 JUMPI DUP3 SWAP1 SUB PUSH1 0x1F AND DUP3 ADD SWAP2 JUMPDEST POP POP POP POP POP DUP2 MSTORE PUSH1 0x20 ADD PUSH1 0x2 DUP3 ADD DUP1 SLOAD PUSH2 0x3FE9 SWAP1 PUSH2 0x5C86 JUMP JUMPDEST DUP1 PUSH1 0x1F ADD PUSH1 0x20 DUP1 SWAP2 DIV MUL PUSH1 0x20 ADD PUSH1 0x40 MLOAD SWAP1 DUP2 ADD PUSH1 0x40 MSTORE DUP1 SWAP3 SWAP2 SWAP1 DUP2 DUP2 MSTORE PUSH1 0x20 ADD DUP3 DUP1 SLOAD PUSH2 0x4015 SWAP1 PUSH2 0x5C86 JUMP JUMPDEST DUP1 ISZERO PUSH2 0x4062 JUMPI DUP1 PUSH1 0x1F LT PUSH2 0x4037 JUMPI PUSH2 0x100 DUP1 DUP4 SLOAD DIV MUL DUP4 MSTORE SWAP2 PUSH1 0x20 ADD SWAP2 PUSH2 0x4062 JUMP JUMPDEST DUP3 ADD SWAP2 SWAP1 PUSH1 0x0 MSTORE PUSH1 0x20 PUSH1 0x0 KECCAK256 SWAP1 JUMPDEST DUP2 SLOAD DUP2 MSTORE SWAP1 PUSH1 0x1 ADD SWAP1 PUSH1 0x20 ADD DUP1 DUP4 GT PUSH2 0x4045 JUMPI DUP3 SWAP1 SUB PUSH1 0x1F AND DUP3 ADD SWAP2 JUMPDEST POP POP POP SWAP2 DUP4 MSTORE POP POP PUSH1 0x3 DUP3 ADD SLOAD PUSH1 0x20 DUP3 ADD MSTORE PUSH1 0x4 DUP3 ADD SLOAD PUSH1 0x40 SWAP1 SWAP2 ADD SWAP1 PUSH1 0xFF AND PUSH1 0x2 DUP2 GT ISZERO PUSH2 0x4093 JUMPI PUSH2 0x4093 PUSH2 0x555A JUMP JUMPDEST PUSH1 0x2 DUP2 GT ISZERO PUSH2 0x40A4 JUMPI PUSH2 0x40A4 PUSH2 0x555A JUMP JUMPDEST SWAP1 MSTORE POP DUP1 MLOAD PUSH1 0x20 DUP3 ADD MLOAD PUSH1 0x40 DUP4 ADD MLOAD PUSH1 0x80 SWAP1 SWAP4 ADD MLOAD SWAP2 SWAP10 SWAP1 SWAP9 POP SWAP2 SWAP7 POP SWAP5 POP SWAP3 POP POP POP JUMP JUMPDEST PUSH1 0xD SLOAD PUSH1 0x1 PUSH1 0x1 PUSH1 0xA0 SHL SUB AND CALLER EQ PUSH2 0x40F3 JUMPI PUSH1 0x40 MLOAD PUSH3 0x461BCD PUSH1 0xE5 SHL DUP2 MSTORE PUSH1 0x4 ADD PUSH2 0x826 SWAP1 PUSH2 0x5CD6 JUMP JUMPDEST PUSH1 0x0 DUP2 DUP2 MSTORE PUSH1 0x5 PUSH1 0x20 MSTORE PUSH1 0x40 SWAP1 KECCAK256 PUSH1 0x3 ADD SLOAD PUSH3 0x10000 SWAP1 DIV PUSH1 0xFF AND PUSH2 0x4149 JUMPI PUSH1 0x40 MLOAD PUSH3 0x461BCD PUSH1 0xE5 SHL DUP2 MSTORE PUSH1 0x20 PUSH1 0x4 DUP3 ADD MSTORE PUSH1 0xC PUSH1 0x24 DUP3 ADD MSTORE PUSH12 0x37379039BAB1B4103AB9B2B9 PUSH1 0xA1 SHL PUSH1 0x44 DUP3 ADD MSTORE PUSH1 0x64 ADD PUSH2 0x826 JUMP JUMPDEST PUSH1 0x0 SWAP1 DUP2 MSTORE PUSH1 0x5 PUSH1 0x20 MSTORE PUSH1 0x40 DUP2 KECCAK256 PUSH1 0x3 DUP2 ADD DUP1 SLOAD PUSH3 0xFFFF00 NOT AND SWAP1 SSTORE SLOAD PUSH1 0x10 DUP1 SLOAD PUSH1 0x1 DUP2 ADD DUP3 SSTORE SWAP3 MSTORE PUSH32 0x1B6847DC741A1B0CD08D278845F9D819D87B734759AFB55FE2DE5CB82A9AE672 SWAP1 SWAP2 ADD DUP1 SLOAD PUSH1 0x1 PUSH1 0x1 PUSH1 0xA0 SHL SUB NOT AND PUSH1 0x1 PUSH1 0x1 PUSH1 0xA0 SHL SUB SWAP1 SWAP3 AND SWAP2 SWAP1 SWAP2 OR SWAP1 SSTORE JUMP JUMPDEST PUSH1 0x2 DUP1 CALLER PUSH1 0x0 SWAP1 DUP2 MSTORE PUSH1 0x6 PUSH1 0x20 MSTORE PUSH1 0x40 SWAP1 KECCAK256 SLOAD PUSH1 0xFF AND PUSH1 0x2 DUP2 GT ISZERO PUSH2 0x41DC JUMPI PUSH2 0x41DC PUSH2 0x555A JUMP JUMPDEST EQ PUSH2 0x41F9 JUMPI PUSH1 0x40 MLOAD PUSH3 0x461BCD PUSH1 0xE5 SHL DUP2 MSTORE PUSH1 0x4 ADD PUSH2 0x826 SWAP1 PUSH2 0x5C4F JUMP JUMPDEST PUSH1 0x0 DUP4 GT DUP1 ISZERO PUSH2 0x420B JUMPI POP PUSH1 0x9 SLOAD DUP4 GT ISZERO JUMPDEST PUSH2 0x4249 JUMPI PUSH1 0x40 MLOAD PUSH3 0x461BCD PUSH1 0xE5 SHL DUP2 MSTORE PUSH1 0x20 PUSH1 0x4 DUP3 ADD MSTORE PUSH1 0xF PUSH1 0x24 DUP3 ADD MSTORE PUSH15 0x125B9D985B1A590818DC9BDC081251 PUSH1 0x8A SHL PUSH1 0x44 DUP3 ADD MSTORE PUSH1 0x64 ADD PUSH2 0x826 JUMP JUMPDEST PUSH1 0xA DUP1 SLOAD SWAP1 PUSH1 0x0 PUSH2 0x4259 DUP4 PUSH2 0x5DD3 JUMP JUMPDEST SWAP1 SWAP2 SSTORE POP POP PUSH1 0x0 DUP4 DUP2 MSTORE PUSH1 0x3 PUSH1 0x20 DUP2 DUP2 MSTORE PUSH1 0x40 DUP1 DUP5 KECCAK256 PUSH1 0x4 DUP4 MSTORE DUP2 DUP6 KECCAK256 PUSH1 0x6 DUP2 ADD DUP1 SLOAD PUSH1 0x1 PUSH1 0xA1 SHL PUSH1 0xFF PUSH1 0xA0 SHL NOT SWAP1 SWAP2 AND OR SWAP1 SSTORE PUSH1 0x9 DUP3 ADD DUP1 SLOAD PUSH1 0xFF NOT AND PUSH1 0x2 OR SWAP1 SSTORE CALLER DUP7 MSTORE PUSH1 0xE SWAP1 SWAP4 MSTORE SWAP1 DUP5 KECCAK256 SWAP1 SWAP3 ADD DUP1 SLOAD SWAP3 SWAP4 SWAP2 SWAP3 PUSH1 0x1 SWAP3 SWAP1 PUSH2 0x42BF SWAP1 DUP5 SWAP1 PUSH2 0x5EFA JUMP JUMPDEST SWAP1 SWAP2 SSTORE POP POP PUSH1 0x4 DUP3 ADD SLOAD PUSH1 0x1 PUSH1 0x1 PUSH1 0xA0 SHL SUB AND PUSH1 0x0 SWAP1 DUP2 MSTORE PUSH1 0xE PUSH1 0x20 MSTORE PUSH1 0x40 DUP2 KECCAK256 PUSH1 0x3 ADD DUP1 SLOAD PUSH1 0x1 SWAP3 SWAP1 PUSH2 0x42F4 SWAP1 DUP5 SWAP1 PUSH2 0x5EFA JUMP JUMPDEST SWAP1 SWAP2 SSTORE POP POP PUSH1 0x3 DUP1 DUP4 ADD SLOAD PUSH1 0x1 PUSH1 0x1 PUSH1 0xA0 SHL SUB AND PUSH1 0x0 SWAP1 DUP2 MSTORE PUSH1 0xE PUSH1 0x20 MSTORE PUSH1 0x40 DUP2 KECCAK256 SWAP1 SWAP2 ADD DUP1 SLOAD PUSH1 0x1 SWAP3 SWAP1 PUSH2 0x432A SWAP1 DUP5 SWAP1 PUSH2 0x5EFA JUMP JUMPDEST SWAP3 POP POP DUP2 SWAP1 SSTORE POP PUSH1 0x40 MLOAD DUP1 PUSH2 0x120 ADD PUSH1 0x40 MSTORE DUP1 DUP4 PUSH1 0x1 ADD DUP1 SLOAD PUSH2 0x434C SWAP1 PUSH2 0x5C86 JUMP JUMPDEST DUP1 PUSH1 0x1F ADD PUSH1 0x20 DUP1 SWAP2 DIV MUL PUSH1 0x20 ADD PUSH1 0x40 MLOAD SWAP1 DUP2 ADD PUSH1 0x40 MSTORE DUP1 SWAP3 SWAP2 SWAP1 DUP2 DUP2 MSTORE PUSH1 0x20 ADD DUP3 DUP1 SLOAD PUSH2 0x4378 SWAP1 PUSH2 0x5C86 JUMP JUMPDEST DUP1 ISZERO PUSH2 0x43C5 JUMPI DUP1 PUSH1 0x1F LT PUSH2 0x439A JUMPI PUSH2 0x100 DUP1 DUP4 SLOAD DIV MUL DUP4 MSTORE SWAP2 PUSH1 0x20 ADD SWAP2 PUSH2 0x43C5 JUMP JUMPDEST DUP3 ADD SWAP2 SWAP1 PUSH1 0x0 MSTORE PUSH1 0x20 PUSH1 0x0 KECCAK256 SWAP1 JUMPDEST DUP2 SLOAD DUP2 MSTORE SWAP1 PUSH1 0x1 ADD SWAP1 PUSH1 0x20 ADD DUP1 DUP4 GT PUSH2 0x43A8 JUMPI DUP3 SWAP1 SUB PUSH1 0x1F AND DUP3 ADD SWAP2 JUMPDEST POP POP POP POP POP DUP2 MSTORE PUSH1 0x20 ADD DUP4 PUSH1 0x2 ADD DUP1 SLOAD PUSH2 0x43DE SWAP1 PUSH2 0x5C86 JUMP JUMPDEST DUP1 PUSH1 0x1F ADD PUSH1 0x20 DUP1 SWAP2 DIV MUL PUSH1 0x20 ADD PUSH1 0x40 MLOAD SWAP1 DUP2 ADD PUSH1 0x40 MSTORE DUP1 SWAP3 SWAP2 SWAP1 DUP2 DUP2 MSTORE PUSH1 0x20 ADD DUP3 DUP1 SLOAD PUSH2 0x440A SWAP1 PUSH2 0x5C86 JUMP JUMPDEST DUP1 ISZERO PUSH2 0x4457 JUMPI DUP1 PUSH1 0x1F LT PUSH2 0x442C JUMPI PUSH2 0x100 DUP1 DUP4 SLOAD DIV MUL DUP4 MSTORE SWAP2 PUSH1 0x20 ADD SWAP2 PUSH2 0x4457 JUMP JUMPDEST DUP3 ADD SWAP2 SWAP1 PUSH1 0x0 MSTORE PUSH1 0x20 PUSH1 0x0 KECCAK256 SWAP1 JUMPDEST DUP2 SLOAD DUP2 MSTORE SWAP1 PUSH1 0x1 ADD SWAP1 PUSH1 0x20 ADD DUP1 DUP4 GT PUSH2 0x443A JUMPI DUP3 SWAP1 SUB PUSH1 0x1F AND DUP3 ADD SWAP2 JUMPDEST POP POP POP SWAP2 DUP4 MSTORE POP POP PUSH1 0x3 DUP5 ADD SLOAD PUSH1 0x1 PUSH1 0x1 PUSH1 0xA0 SHL SUB SWAP1 DUP2 AND PUSH1 0x20 DUP1 DUP5 ADD SWAP2 SWAP1 SWAP2 MSTORE PUSH1 0x4 DUP1 DUP8 ADD SLOAD SWAP1 SWAP3 AND PUSH1 0x40 DUP1 DUP6 ADD SWAP2 SWAP1 SWAP2 MSTORE CALLER PUSH1 0x60 DUP6 ADD MSTORE PUSH1 0x5 DUP7 ADD SLOAD PUSH1 0x80 DUP6 ADD MSTORE PUSH1 0x8 DUP8 ADD SLOAD PUSH1 0xA0 DUP6 ADD MSTORE SWAP2 DUP6 ADD SLOAD PUSH1 0xC0 DUP5 ADD MSTORE PUSH1 0xE0 SWAP1 SWAP3 ADD DUP8 SWAP1 MSTORE PUSH1 0xA SLOAD PUSH1 0x0 SWAP1 DUP2 MSTORE PUSH1 0x7 SWAP1 SWAP3 MSTORE SWAP1 KECCAK256 DUP2 MLOAD DUP2 SWAP1 PUSH2 0x44D2 SWAP1 DUP3 PUSH2 0x5E3B JUMP JUMPDEST POP PUSH1 0x20 DUP3 ADD MLOAD PUSH1 0x1 DUP3 ADD SWAP1 PUSH2 0x44E7 SWAP1 DUP3 PUSH2 0x5E3B JUMP JUMPDEST POP PUSH1 0x40 DUP3 DUP2 ADD MLOAD PUSH1 0x2 DUP4 ADD DUP1 SLOAD PUSH1 0x1 PUSH1 0x1 PUSH1 0xA0 SHL SUB NOT SWAP1 DUP2 AND PUSH1 0x1 PUSH1 0x1 PUSH1 0xA0 SHL SUB SWAP4 DUP5 AND OR SWAP1 SWAP2 SSTORE PUSH1 0x60 DUP6 ADD MLOAD PUSH1 0x3 DUP1 DUP7 ADD DUP1 SLOAD DUP5 AND SWAP3 DUP6 AND SWAP3 SWAP1 SWAP3 OR SWAP1 SWAP2 SSTORE PUSH1 0x80 DUP7 ADD MLOAD PUSH1 0x4 DUP7 ADD DUP1 SLOAD SWAP1 SWAP4 AND SWAP1 DUP5 AND OR SWAP1 SWAP2 SSTORE PUSH1 0xA0 DUP6 ADD MLOAD PUSH1 0x5 DUP6 ADD SSTORE PUSH1 0xC0 DUP6 ADD MLOAD PUSH1 0x6 DUP6 ADD SSTORE PUSH1 0xE0 DUP6 ADD MLOAD PUSH1 0x7 DUP6 ADD SSTORE PUSH2 0x100 SWAP5 DUP6 ADD MLOAD PUSH1 0x8 SWAP1 SWAP5 ADD SWAP4 SWAP1 SWAP4 SSTORE SWAP2 DUP6 ADD SLOAD SWAP1 SWAP2 AND PUSH1 0x0 SWAP1 DUP2 MSTORE PUSH1 0x20 DUP2 SWAP1 MSTORE DUP2 SWAP1 KECCAK256 DUP2 MLOAD SWAP3 DUP4 ADD SWAP1 SWAP2 MSTORE DUP1 SLOAD SWAP1 SWAP2 SWAP1 DUP2 SWAP1 PUSH2 0x4598 SWAP1 PUSH1 0x1 PUSH2 0x5EFA JUMP JUMPDEST DUP2 MSTORE PUSH1 0x3 DUP6 ADD SLOAD PUSH1 0x1 PUSH1 0x1 PUSH1 0xA0 SHL SUB AND PUSH1 0x20 DUP3 ADD MSTORE PUSH1 0x2 DUP6 ADD DUP1 SLOAD PUSH1 0x40 SWAP1 SWAP3 ADD SWAP2 PUSH2 0x45C2 SWAP1 PUSH2 0x5C86 JUMP JUMPDEST DUP1 PUSH1 0x1F ADD PUSH1 0x20 DUP1 SWAP2 DIV MUL PUSH1 0x20 ADD PUSH1 0x40 MLOAD SWAP1 DUP2 ADD PUSH1 0x40 MSTORE DUP1 SWAP3 SWAP2 SWAP1 DUP2 DUP2 MSTORE PUSH1 0x20 ADD DUP3 DUP1 SLOAD PUSH2 0x45EE SWAP1 PUSH2 0x5C86 JUMP JUMPDEST DUP1 ISZERO PUSH2 0x463B JUMPI DUP1 PUSH1 0x1F LT PUSH2 0x4610 JUMPI PUSH2 0x100 DUP1 DUP4 SLOAD DIV MUL DUP4 MSTORE SWAP2 PUSH1 0x20 ADD SWAP2 PUSH2 0x463B JUMP JUMPDEST DUP3 ADD SWAP2 SWAP1 PUSH1 0x0 MSTORE PUSH1 0x20 PUSH1 0x0 KECCAK256 SWAP1 JUMPDEST DUP2 SLOAD DUP2 MSTORE SWAP1 PUSH1 0x1 ADD SWAP1 PUSH1 0x20 ADD DUP1 DUP4 GT PUSH2 0x461E JUMPI DUP3 SWAP1 SUB PUSH1 0x1F AND DUP3 ADD SWAP2 JUMPDEST POP POP POP SWAP2 DUP4 MSTORE POP POP PUSH1 0x3 DUP6 ADD SLOAD PUSH1 0x1 PUSH1 0x1 PUSH1 0xA0 SHL SUB AND PUSH1 0x0 SWAP1 DUP2 MSTORE PUSH1 0xE PUSH1 0x20 SWAP1 DUP2 MSTORE PUSH1 0x40 SWAP1 SWAP2 KECCAK256 PUSH1 0x1 ADD DUP1 SLOAD SWAP2 SWAP1 SWAP3 ADD SWAP2 SWAP1 PUSH2 0x4676 SWAP1 PUSH2 0x5C86 JUMP JUMPDEST DUP1 PUSH1 0x1F ADD PUSH1 0x20 DUP1 SWAP2 DIV MUL PUSH1 0x20 ADD PUSH1 0x40 MLOAD SWAP1 DUP2 ADD PUSH1 0x40 MSTORE DUP1 SWAP3 SWAP2 SWAP1 DUP2 DUP2 MSTORE PUSH1 0x20 ADD DUP3 DUP1 SLOAD PUSH2 0x46A2 SWAP1 PUSH2 0x5C86 JUMP JUMPDEST DUP1 ISZERO PUSH2 0x46EF JUMPI DUP1 PUSH1 0x1F LT PUSH2 0x46C4 JUMPI PUSH2 0x100 DUP1 DUP4 SLOAD DIV MUL DUP4 MSTORE SWAP2 PUSH1 0x20 ADD SWAP2 PUSH2 0x46EF JUMP JUMPDEST DUP3 ADD SWAP2 SWAP1 PUSH1 0x0 MSTORE PUSH1 0x20 PUSH1 0x0 KECCAK256 SWAP1 JUMPDEST DUP2 SLOAD DUP2 MSTORE SWAP1 PUSH1 0x1 ADD SWAP1 PUSH1 0x20 ADD DUP1 DUP4 GT PUSH2 0x46D2 JUMPI DUP3 SWAP1 SUB PUSH1 0x1F AND DUP3 ADD SWAP2 JUMPDEST POP POP POP SWAP2 DUP4 MSTORE POP POP PUSH1 0x5 DUP6 ADD SLOAD PUSH1 0x1 PUSH1 0x1 PUSH1 0xA0 SHL SUB SWAP1 DUP2 AND PUSH1 0x20 DUP1 DUP5 ADD SWAP2 SWAP1 SWAP2 MSTORE PUSH1 0x4 DUP8 ADD SLOAD SWAP1 SWAP2 AND PUSH1 0x0 SWAP1 DUP2 MSTORE PUSH1 0xE SWAP1 SWAP2 MSTORE PUSH1 0x40 SWAP1 DUP2 SWAP1 KECCAK256 PUSH1 0x1 ADD DUP1 SLOAD SWAP2 SWAP1 SWAP3 ADD SWAP2 SWAP1 PUSH2 0x473C SWAP1 PUSH2 0x5C86 JUMP JUMPDEST DUP1 PUSH1 0x1F ADD PUSH1 0x20 DUP1 SWAP2 DIV MUL PUSH1 0x20 ADD PUSH1 0x40 MLOAD SWAP1 DUP2 ADD PUSH1 0x40 MSTORE DUP1 SWAP3 SWAP2 SWAP1 DUP2 DUP2 MSTORE PUSH1 0x20 ADD DUP3 DUP1 SLOAD PUSH2 0x4768 SWAP1 PUSH2 0x5C86 JUMP JUMPDEST DUP1 ISZERO PUSH2 0x47B5 JUMPI DUP1 PUSH1 0x1F LT PUSH2 0x478A JUMPI PUSH2 0x100 DUP1 DUP4 SLOAD DIV MUL DUP4 MSTORE SWAP2 PUSH1 0x20 ADD SWAP2 PUSH2 0x47B5 JUMP JUMPDEST DUP3 ADD SWAP2 SWAP1 PUSH1 0x0 MSTORE PUSH1 0x20 PUSH1 0x0 KECCAK256 SWAP1 JUMPDEST DUP2 SLOAD DUP2 MSTORE SWAP1 PUSH1 0x1 ADD SWAP1 PUSH1 0x20 ADD DUP1 DUP4 GT PUSH2 0x4798 JUMPI DUP3 SWAP1 SUB PUSH1 0x1F AND DUP3 ADD SWAP2 JUMPDEST POP POP POP SWAP2 DUP4 MSTORE POP POP PUSH1 0x4 DUP6 ADD SLOAD PUSH1 0x1 PUSH1 0x1 PUSH1 0xA0 SHL SUB SWAP1 DUP2 AND PUSH1 0x20 DUP1 DUP5 ADD SWAP2 SWAP1 SWAP2 MSTORE PUSH1 0x40 SWAP3 DUP4 ADD DUP10 SWAP1 MSTORE DUP5 SLOAD PUSH1 0x1 DUP1 DUP3 ADD DUP8 SSTORE PUSH1 0x0 SWAP7 DUP8 MSTORE SWAP6 DUP3 SWAP1 KECCAK256 DUP6 MLOAD PUSH1 0x8 SWAP1 SWAP3 MUL ADD SWAP1 DUP2 SSTORE SWAP1 DUP5 ADD MLOAD SWAP5 DUP2 ADD DUP1 SLOAD PUSH1 0x1 PUSH1 0x1 PUSH1 0xA0 SHL SUB NOT AND SWAP6 SWAP1 SWAP3 AND SWAP5 SWAP1 SWAP5 OR SWAP1 SSTORE DUP2 ADD MLOAD SWAP1 SWAP2 SWAP1 PUSH1 0x2 DUP3 ADD SWAP1 PUSH2 0x482D SWAP1 DUP3 PUSH2 0x5E3B JUMP JUMPDEST POP PUSH1 0x60 DUP3 ADD MLOAD PUSH1 0x3 DUP3 ADD SWAP1 PUSH2 0x4842 SWAP1 DUP3 PUSH2 0x5E3B JUMP JUMPDEST POP PUSH1 0x80 DUP3 ADD MLOAD PUSH1 0x4 DUP3 ADD DUP1 SLOAD PUSH1 0x1 PUSH1 0x1 PUSH1 0xA0 SHL SUB NOT AND PUSH1 0x1 PUSH1 0x1 PUSH1 0xA0 SHL SUB SWAP1 SWAP3 AND SWAP2 SWAP1 SWAP2 OR SWAP1 SSTORE PUSH1 0xA0 DUP3 ADD MLOAD PUSH1 0x5 DUP3 ADD SWAP1 PUSH2 0x487D SWAP1 DUP3 PUSH2 0x5E3B JUMP JUMPDEST POP PUSH1 0xC0 DUP3 ADD MLOAD PUSH1 0x6 DUP3 ADD DUP1 SLOAD PUSH1 0x1 PUSH1 0x1 PUSH1 0xA0 SHL SUB NOT AND PUSH1 0x1 PUSH1 0x1 PUSH1 0xA0 SHL SUB SWAP3 DUP4 AND OR SWAP1 SSTORE PUSH1 0xE0 SWAP1 SWAP3 ADD MLOAD PUSH1 0x7 SWAP1 SWAP2 ADD SSTORE PUSH1 0x4 DUP4 ADD SLOAD AND PUSH1 0x0 SWAP1 DUP2 MSTORE PUSH1 0x1 PUSH1 0x20 DUP2 SWAP1 MSTORE PUSH1 0x40 SWAP2 DUP3 SWAP1 KECCAK256 DUP3 MLOAD PUSH2 0x120 DUP2 ADD SWAP1 SWAP4 MSTORE DUP1 SLOAD SWAP1 SWAP3 SWAP2 DUP3 SWAP2 PUSH2 0x48DF SWAP2 PUSH2 0x5EFA JUMP JUMPDEST DUP2 MSTORE PUSH1 0x3 DUP6 ADD SLOAD PUSH1 0x1 PUSH1 0x1 PUSH1 0xA0 SHL SUB SWAP1 DUP2 AND PUSH1 0x20 DUP1 DUP5 ADD DUP3 SWAP1 MSTORE PUSH1 0x5 DUP9 ADD SLOAD SWAP1 SWAP3 AND PUSH1 0x40 DUP1 DUP6 ADD SWAP2 SWAP1 SWAP2 MSTORE PUSH1 0x0 SWAP2 DUP3 MSTORE PUSH1 0xE SWAP1 SWAP3 MSTORE KECCAK256 PUSH1 0x1 ADD DUP1 SLOAD PUSH1 0x60 SWAP1 SWAP3 ADD SWAP2 PUSH2 0x4929 SWAP1 PUSH2 0x5C86 JUMP JUMPDEST DUP1 PUSH1 0x1F ADD PUSH1 0x20 DUP1 SWAP2 DIV MUL PUSH1 0x20 ADD PUSH1 0x40 MLOAD SWAP1 DUP2 ADD PUSH1 0x40 MSTORE DUP1 SWAP3 SWAP2 SWAP1 DUP2 DUP2 MSTORE PUSH1 0x20 ADD DUP3 DUP1 SLOAD PUSH2 0x4955 SWAP1 PUSH2 0x5C86 JUMP JUMPDEST DUP1 ISZERO PUSH2 0x49A2 JUMPI DUP1 PUSH1 0x1F LT PUSH2 0x4977 JUMPI PUSH2 0x100 DUP1 DUP4 SLOAD DIV MUL DUP4 MSTORE SWAP2 PUSH1 0x20 ADD SWAP2 PUSH2 0x49A2 JUMP JUMPDEST DUP3 ADD SWAP2 SWAP1 PUSH1 0x0 MSTORE PUSH1 0x20 PUSH1 0x0 KECCAK256 SWAP1 JUMPDEST DUP2 SLOAD DUP2 MSTORE SWAP1 PUSH1 0x1 ADD SWAP1 PUSH1 0x20 ADD DUP1 DUP4 GT PUSH2 0x4985 JUMPI DUP3 SWAP1 SUB PUSH1 0x1F AND DUP3 ADD SWAP2 JUMPDEST POP POP POP SWAP2 DUP4 MSTORE POP POP PUSH1 0x5 DUP6 ADD SLOAD PUSH1 0x1 PUSH1 0x1 PUSH1 0xA0 SHL SUB AND PUSH1 0x0 SWAP1 DUP2 MSTORE PUSH1 0xE PUSH1 0x20 SWAP1 DUP2 MSTORE PUSH1 0x40 SWAP1 SWAP2 KECCAK256 PUSH1 0x1 ADD DUP1 SLOAD SWAP2 SWAP1 SWAP3 ADD SWAP2 SWAP1 PUSH2 0x49DD SWAP1 PUSH2 0x5C86 JUMP JUMPDEST DUP1 PUSH1 0x1F ADD PUSH1 0x20 DUP1 SWAP2 DIV MUL PUSH1 0x20 ADD PUSH1 0x40 MLOAD SWAP1 DUP2 ADD PUSH1 0x40 MSTORE DUP1 SWAP3 SWAP2 SWAP1 DUP2 DUP2 MSTORE PUSH1 0x20 ADD DUP3 DUP1 SLOAD PUSH2 0x4A09 SWAP1 PUSH2 0x5C86 JUMP JUMPDEST DUP1 ISZERO PUSH2 0x4A56 JUMPI DUP1 PUSH1 0x1F LT PUSH2 0x4A2B JUMPI PUSH2 0x100 DUP1 DUP4 SLOAD DIV MUL DUP4 MSTORE SWAP2 PUSH1 0x20 ADD SWAP2 PUSH2 0x4A56 JUMP JUMPDEST DUP3 ADD SWAP2 SWAP1 PUSH1 0x0 MSTORE PUSH1 0x20 PUSH1 0x0 KECCAK256 SWAP1 JUMPDEST DUP2 SLOAD DUP2 MSTORE SWAP1 PUSH1 0x1 ADD SWAP1 PUSH1 0x20 ADD DUP1 DUP4 GT PUSH2 0x4A39 JUMPI DUP3 SWAP1 SUB PUSH1 0x1F AND DUP3 ADD SWAP2 JUMPDEST POP POP POP POP POP DUP2 MSTORE PUSH1 0x20 ADD DUP5 PUSH1 0x2 ADD DUP1 SLOAD PUSH2 0x4A6F SWAP1 PUSH2 0x5C86 JUMP JUMPDEST DUP1 PUSH1 0x1F ADD PUSH1 0x20 DUP1 SWAP2 DIV MUL PUSH1 0x20 ADD PUSH1 0x40 MLOAD SWAP1 DUP2 ADD PUSH1 0x40 MSTORE DUP1 SWAP3 SWAP2 SWAP1 DUP2 DUP2 MSTORE PUSH1 0x20 ADD DUP3 DUP1 SLOAD PUSH2 0x4A9B SWAP1 PUSH2 0x5C86 JUMP JUMPDEST DUP1 ISZERO PUSH2 0x4AE8 JUMPI DUP1 PUSH1 0x1F LT PUSH2 0x4ABD JUMPI PUSH2 0x100 DUP1 DUP4 SLOAD DIV MUL DUP4 MSTORE SWAP2 PUSH1 0x20 ADD SWAP2 PUSH2 0x4AE8 JUMP JUMPDEST DUP3 ADD SWAP2 SWAP1 PUSH1 0x0 MSTORE PUSH1 0x20 PUSH1 0x0 KECCAK256 SWAP1 JUMPDEST DUP2 SLOAD DUP2 MSTORE SWAP1 PUSH1 0x1 ADD SWAP1 PUSH1 0x20 ADD DUP1 DUP4 GT PUSH2 0x4ACB JUMPI DUP3 SWAP1 SUB PUSH1 0x1F AND DUP3 ADD SWAP2 JUMPDEST POP POP POP POP POP DUP2 MSTORE PUSH1 0x20 ADD DUP5 PUSH1 0x6 ADD DUP1 SLOAD PUSH2 0x4B01 SWAP1 PUSH2 0x5C86 JUMP JUMPDEST DUP1 PUSH1 0x1F ADD PUSH1 0x20 DUP1 SWAP2 DIV MUL PUSH1 0x20 ADD PUSH1 0x40 MLOAD SWAP1 DUP2 ADD PUSH1 0x40 MSTORE DUP1 SWAP3 SWAP2 SWAP1 DUP2 DUP2 MSTORE PUSH1 0x20 ADD DUP3 DUP1 SLOAD PUSH2 0x4B2D SWAP1 PUSH2 0x5C86 JUMP JUMPDEST DUP1 ISZERO PUSH2 0x4B7A JUMPI DUP1 PUSH1 0x1F LT PUSH2 0x4B4F JUMPI PUSH2 0x100 DUP1 DUP4 SLOAD DIV MUL DUP4 MSTORE SWAP2 PUSH1 0x20 ADD SWAP2 PUSH2 0x4B7A JUMP JUMPDEST DUP3 ADD SWAP2 SWAP1 PUSH1 0x0 MSTORE PUSH1 0x20 PUSH1 0x0 KECCAK256 SWAP1 JUMPDEST DUP2 SLOAD DUP2 MSTORE SWAP1 PUSH1 0x1 ADD SWAP1 PUSH1 0x20 ADD DUP1 DUP4 GT PUSH2 0x4B5D JUMPI DUP3 SWAP1 SUB PUSH1 0x1F AND DUP3 ADD SWAP2 JUMPDEST POP POP POP POP POP DUP2 MSTORE PUSH1 0x20 ADD DUP5 PUSH1 0x7 ADD DUP1 SLOAD PUSH2 0x4B93 SWAP1 PUSH2 0x5C86 JUMP JUMPDEST DUP1 PUSH1 0x1F ADD PUSH1 0x20 DUP1 SWAP2 DIV MUL PUSH1 0x20 ADD PUSH1 0x40 MLOAD SWAP1 DUP2 ADD PUSH1 0x40 MSTORE DUP1 SWAP3 SWAP2 SWAP1 DUP2 DUP2 MSTORE PUSH1 0x20 ADD DUP3 DUP1 SLOAD PUSH2 0x4BBF SWAP1 PUSH2 0x5C86 JUMP JUMPDEST DUP1 ISZERO PUSH2 0x4C0C JUMPI DUP1 PUSH1 0x1F LT PUSH2 0x4BE1 JUMPI PUSH2 0x100 DUP1 DUP4 SLOAD DIV MUL DUP4 MSTORE SWAP2 PUSH1 0x20 ADD SWAP2 PUSH2 0x4C0C JUMP JUMPDEST DUP3 ADD SWAP2 SWAP1 PUSH1 0x0 MSTORE PUSH1 0x20 PUSH1 0x0 KECCAK256 SWAP1 JUMPDEST DUP2 SLOAD DUP2 MSTORE SWAP1 PUSH1 0x1 ADD SWAP1 PUSH1 0x20 ADD DUP1 DUP4 GT PUSH2 0x4BEF JUMPI DUP3 SWAP1 SUB PUSH1 0x1F AND DUP3 ADD SWAP2 JUMPDEST POP POP POP SWAP2 DUP4 MSTORE POP POP PUSH1 0x20 SWAP1 DUP2 ADD DUP8 SWAP1 MSTORE DUP3 SLOAD PUSH1 0x1 DUP2 DUP2 ADD DUP6 SSTORE PUSH1 0x0 SWAP5 DUP6 MSTORE SWAP4 DUP3 SWAP1 KECCAK256 DUP4 MLOAD PUSH1 0x9 SWAP1 SWAP3 MUL ADD SWAP1 DUP2 SSTORE SWAP1 DUP3 ADD MLOAD SWAP3 DUP2 ADD DUP1 SLOAD PUSH1 0x1 PUSH1 0x1 PUSH1 0xA0 SHL SUB SWAP5 DUP6 AND PUSH1 0x1 PUSH1 0x1 PUSH1 0xA0 SHL SUB NOT SWAP2 DUP3 AND OR SWAP1 SWAP2 SSTORE PUSH1 0x40 DUP4 ADD MLOAD PUSH1 0x2 DUP4 ADD DUP1 SLOAD SWAP2 SWAP1 SWAP6 AND SWAP2 AND OR SWAP1 SWAP3 SSTORE PUSH1 0x60 DUP2 ADD MLOAD SWAP1 SWAP2 SWAP1 PUSH1 0x3 DUP3 ADD SWAP1 PUSH2 0x4C89 SWAP1 DUP3 PUSH2 0x5E3B JUMP JUMPDEST POP PUSH1 0x80 DUP3 ADD MLOAD PUSH1 0x4 DUP3 ADD SWAP1 PUSH2 0x4C9E SWAP1 DUP3 PUSH2 0x5E3B JUMP JUMPDEST POP PUSH1 0xA0 DUP3 ADD MLOAD PUSH1 0x5 DUP3 ADD SWAP1 PUSH2 0x4CB3 SWAP1 DUP3 PUSH2 0x5E3B JUMP JUMPDEST POP PUSH1 0xC0 DUP3 ADD MLOAD PUSH1 0x6 DUP3 ADD SWAP1 PUSH2 0x4CC8 SWAP1 DUP3 PUSH2 0x5E3B JUMP JUMPDEST POP PUSH1 0xE0 DUP3 ADD MLOAD PUSH1 0x7 DUP3 ADD SWAP1 PUSH2 0x4CDD SWAP1 DUP3 PUSH2 0x5E3B JUMP JUMPDEST POP PUSH2 0x100 SWAP2 DUP3 ADD MLOAD PUSH1 0x8 SWAP1 SWAP2 ADD SSTORE CALLER PUSH1 0x0 SWAP1 DUP2 MSTORE PUSH1 0x2 PUSH1 0x20 MSTORE PUSH1 0x40 SWAP1 DUP2 SWAP1 KECCAK256 DUP2 MLOAD SWAP3 DUP4 ADD SWAP1 SWAP2 MSTORE DUP1 SLOAD SWAP1 SWAP2 SWAP1 DUP2 SWAP1 PUSH2 0x4D16 SWAP1 PUSH1 0x1 PUSH2 0x5EFA JUMP JUMPDEST DUP2 MSTORE PUSH1 0x3 DUP6 ADD SLOAD PUSH1 0x1 PUSH1 0x1 PUSH1 0xA0 SHL SUB SWAP1 DUP2 AND PUSH1 0x20 DUP1 DUP5 ADD SWAP2 SWAP1 SWAP2 MSTORE PUSH1 0x4 DUP8 ADD SLOAD SWAP1 SWAP2 AND PUSH1 0x40 DUP1 DUP5 ADD SWAP2 SWAP1 SWAP2 MSTORE CALLER PUSH1 0x0 SWAP1 DUP2 MSTORE PUSH1 0xE SWAP1 SWAP3 MSTORE SWAP1 KECCAK256 PUSH1 0x1 ADD DUP1 SLOAD PUSH1 0x60 SWAP1 SWAP3 ADD SWAP2 PUSH2 0x4D63 SWAP1 PUSH2 0x5C86 JUMP JUMPDEST DUP1 PUSH1 0x1F ADD PUSH1 0x20 DUP1 SWAP2 DIV MUL PUSH1 0x20 ADD PUSH1 0x40 MLOAD SWAP1 DUP2 ADD PUSH1 0x40 MSTORE DUP1 SWAP3 SWAP2 SWAP1 DUP2 DUP2 MSTORE PUSH1 0x20 ADD DUP3 DUP1 SLOAD PUSH2 0x4D8F SWAP1 PUSH2 0x5C86 JUMP JUMPDEST DUP1 ISZERO PUSH2 0x4DDC JUMPI DUP1 PUSH1 0x1F LT PUSH2 0x4DB1 JUMPI PUSH2 0x100 DUP1 DUP4 SLOAD DIV MUL DUP4 MSTORE SWAP2 PUSH1 0x20 ADD SWAP2 PUSH2 0x4DDC JUMP JUMPDEST DUP3 ADD SWAP2 SWAP1 PUSH1 0x0 MSTORE PUSH1 0x20 PUSH1 0x0 KECCAK256 SWAP1 JUMPDEST DUP2 SLOAD DUP2 MSTORE SWAP1 PUSH1 0x1 ADD SWAP1 PUSH1 0x20 ADD DUP1 DUP4 GT PUSH2 0x4DBF JUMPI DUP3 SWAP1 SUB PUSH1 0x1F AND DUP3 ADD SWAP2 JUMPDEST POP POP POP SWAP2 DUP4 MSTORE POP POP PUSH1 0x4 DUP6 ADD SLOAD PUSH1 0x1 PUSH1 0x1 PUSH1 0xA0 SHL SUB AND PUSH1 0x0 SWAP1 DUP2 MSTORE PUSH1 0xE PUSH1 0x20 SWAP1 DUP2 MSTORE PUSH1 0x40 SWAP1 SWAP2 KECCAK256 PUSH1 0x1 ADD DUP1 SLOAD SWAP2 SWAP1 SWAP3 ADD SWAP2 SWAP1 PUSH2 0x4E17 SWAP1 PUSH2 0x5C86 JUMP JUMPDEST DUP1 PUSH1 0x1F ADD PUSH1 0x20 DUP1 SWAP2 DIV MUL PUSH1 0x20 ADD PUSH1 0x40 MLOAD SWAP1 DUP2 ADD PUSH1 0x40 MSTORE DUP1 SWAP3 SWAP2 SWAP1 DUP2 DUP2 MSTORE PUSH1 0x20 ADD DUP3 DUP1 SLOAD PUSH2 0x4E43 SWAP1 PUSH2 0x5C86 JUMP JUMPDEST DUP1 ISZERO PUSH2 0x4E90 JUMPI DUP1 PUSH1 0x1F LT PUSH2 0x4E65 JUMPI PUSH2 0x100 DUP1 DUP4 SLOAD DIV MUL DUP4 MSTORE SWAP2 PUSH1 0x20 ADD SWAP2 PUSH2 0x4E90 JUMP JUMPDEST DUP3 ADD SWAP2 SWAP1 PUSH1 0x0 MSTORE PUSH1 0x20 PUSH1 0x0 KECCAK256 SWAP1 JUMPDEST DUP2 SLOAD DUP2 MSTORE SWAP1 PUSH1 0x1 ADD SWAP1 PUSH1 0x20 ADD DUP1 DUP4 GT PUSH2 0x4E73 JUMPI DUP3 SWAP1 SUB PUSH1 0x1F AND DUP3 ADD SWAP2 JUMPDEST POP POP POP POP POP DUP2 MSTORE PUSH1 0x20 ADD DUP7 DUP2 MSTORE PUSH1 0x20 ADD DUP5 PUSH1 0x2 ADD DUP1 SLOAD PUSH2 0x4EAF SWAP1 PUSH2 0x5C86 JUMP JUMPDEST DUP1 PUSH1 0x1F ADD PUSH1 0x20 DUP1 SWAP2 DIV MUL PUSH1 0x20 ADD PUSH1 0x40 MLOAD SWAP1 DUP2 ADD PUSH1 0x40 MSTORE DUP1 SWAP3 SWAP2 SWAP1 DUP2 DUP2 MSTORE PUSH1 0x20 ADD DUP3 DUP1 SLOAD PUSH2 0x4EDB SWAP1 PUSH2 0x5C86 JUMP JUMPDEST DUP1 ISZERO PUSH2 0x4F28 JUMPI DUP1 PUSH1 0x1F LT PUSH2 0x4EFD JUMPI PUSH2 0x100 DUP1 DUP4 SLOAD DIV MUL DUP4 MSTORE SWAP2 PUSH1 0x20 ADD SWAP2 PUSH2 0x4F28 JUMP JUMPDEST DUP3 ADD SWAP2 SWAP1 PUSH1 0x0 MSTORE PUSH1 0x20 PUSH1 0x0 KECCAK256 SWAP1 JUMPDEST DUP2 SLOAD DUP2 MSTORE SWAP1 PUSH1 0x1 ADD SWAP1 PUSH1 0x20 ADD DUP1 DUP4 GT PUSH2 0x4F0B JUMPI DUP3 SWAP1 SUB PUSH1 0x1F AND DUP3 ADD SWAP2 JUMPDEST POP POP POP SWAP2 DUP4 MSTORE POP POP PUSH1 0x8 DUP1 DUP7 ADD SLOAD PUSH1 0x20 SWAP3 DUP4 ADD MSTORE DUP4 SLOAD PUSH1 0x1 DUP2 DUP2 ADD DUP7 SSTORE PUSH1 0x0 SWAP6 DUP7 MSTORE SWAP5 DUP4 SWAP1 KECCAK256 DUP5 MLOAD SWAP2 SWAP1 SWAP3 MUL SWAP1 SWAP2 ADD SWAP1 DUP2 SSTORE SWAP1 DUP3 ADD MLOAD SWAP3 DUP2 ADD DUP1 SLOAD PUSH1 0x1 PUSH1 0x1 PUSH1 0xA0 SHL SUB SWAP5 DUP6 AND PUSH1 0x1 PUSH1 0x1 PUSH1 0xA0 SHL SUB NOT SWAP2 DUP3 AND OR SWAP1 SWAP2 SSTORE PUSH1 0x40 DUP4 ADD MLOAD PUSH1 0x2 DUP4 ADD DUP1 SLOAD SWAP2 SWAP1 SWAP6 AND SWAP2 AND OR SWAP1 SWAP3 SSTORE PUSH1 0x60 DUP2 ADD MLOAD SWAP1 SWAP2 SWAP1 PUSH1 0x3 DUP3 ADD SWAP1 PUSH2 0x4FAA SWAP1 DUP3 PUSH2 0x5E3B JUMP JUMPDEST POP PUSH1 0x80 DUP3 ADD MLOAD PUSH1 0x4 DUP3 ADD SWAP1 PUSH2 0x4FBF SWAP1 DUP3 PUSH2 0x5E3B JUMP JUMPDEST POP PUSH1 0xA0 DUP3 ADD MLOAD PUSH1 0x5 DUP3 ADD SSTORE PUSH1 0xC0 DUP3 ADD MLOAD PUSH1 0x6 DUP3 ADD SWAP1 PUSH2 0x4FDE SWAP1 DUP3 PUSH2 0x5E3B JUMP JUMPDEST POP PUSH1 0xE0 DUP3 ADD MLOAD DUP2 PUSH1 0x7 ADD SSTORE POP POP POP POP POP POP POP JUMP JUMPDEST PUSH1 0x0 DUP1 PUSH1 0x0 PUSH1 0x60 DUP1 PUSH1 0x60 DUP1 PUSH1 0x60 PUSH1 0x0 DUP1 PUSH1 0x1 PUSH1 0x0 DUP14 PUSH1 0x1 PUSH1 0x1 PUSH1 0xA0 SHL SUB AND PUSH1 0x1 PUSH1 0x1 PUSH1 0xA0 SHL SUB AND DUP2 MSTORE PUSH1 0x20 ADD SWAP1 DUP2 MSTORE PUSH1 0x20 ADD PUSH1 0x0 KECCAK256 DUP12 DUP2 SLOAD DUP2 LT PUSH2 0x5038 JUMPI PUSH2 0x5038 PUSH2 0x5CC0 JUMP JUMPDEST PUSH1 0x0 SWAP2 DUP3 MSTORE PUSH1 0x20 SWAP2 DUP3 SWAP1 KECCAK256 PUSH1 0x40 DUP1 MLOAD PUSH2 0x120 DUP2 ADD DUP3 MSTORE PUSH1 0x9 SWAP1 SWAP4 MUL SWAP1 SWAP2 ADD DUP1 SLOAD DUP4 MSTORE PUSH1 0x1 DUP2 ADD SLOAD PUSH1 0x1 PUSH1 0x1 PUSH1 0xA0 SHL SUB SWAP1 DUP2 AND SWAP5 DUP5 ADD SWAP5 SWAP1 SWAP5 MSTORE PUSH1 0x2 DUP2 ADD SLOAD SWAP1 SWAP4 AND SWAP1 DUP3 ADD MSTORE PUSH1 0x3 DUP3 ADD DUP1 SLOAD SWAP2 SWAP3 SWAP2 PUSH1 0x60 DUP5 ADD SWAP2 SWAP1 PUSH2 0x5095 SWAP1 PUSH2 0x5C86 JUMP JUMPDEST DUP1 PUSH1 0x1F ADD PUSH1 0x20 DUP1 SWAP2 DIV MUL PUSH1 0x20 ADD PUSH1 0x40 MLOAD SWAP1 DUP2 ADD PUSH1 0x40 MSTORE DUP1 SWAP3 SWAP2 SWAP1 DUP2 DUP2 MSTORE PUSH1 0x20 ADD DUP3 DUP1 SLOAD PUSH2 0x50C1 SWAP1 PUSH2 0x5C86 JUMP JUMPDEST DUP1 ISZERO PUSH2 0x510E JUMPI DUP1 PUSH1 0x1F LT PUSH2 0x50E3 JUMPI PUSH2 0x100 DUP1 DUP4 SLOAD DIV MUL DUP4 MSTORE SWAP2 PUSH1 0x20 ADD SWAP2 PUSH2 0x510E JUMP JUMPDEST DUP3 ADD SWAP2 SWAP1 PUSH1 0x0 MSTORE PUSH1 0x20 PUSH1 0x0 KECCAK256 SWAP1 JUMPDEST DUP2 SLOAD DUP2 MSTORE SWAP1 PUSH1 0x1 ADD SWAP1 PUSH1 0x20 ADD DUP1 DUP4 GT PUSH2 0x50F1 JUMPI DUP3 SWAP1 SUB PUSH1 0x1F AND DUP3 ADD SWAP2 JUMPDEST POP POP POP POP POP DUP2 MSTORE PUSH1 0x20 ADD PUSH1 0x4 DUP3 ADD DUP1 SLOAD PUSH2 0x5127 SWAP1 PUSH2 0x5C86 JUMP JUMPDEST DUP1 PUSH1 0x1F ADD PUSH1 0x20 DUP1 SWAP2 DIV MUL PUSH1 0x20 ADD PUSH1 0x40 MLOAD SWAP1 DUP2 ADD PUSH1 0x40 MSTORE DUP1 SWAP3 SWAP2 SWAP1 DUP2 DUP2 MSTORE PUSH1 0x20 ADD DUP3 DUP1 SLOAD PUSH2 0x5153 SWAP1 PUSH2 0x5C86 JUMP JUMPDEST DUP1 ISZERO PUSH2 0x51A0 JUMPI DUP1 PUSH1 0x1F LT PUSH2 0x5175 JUMPI PUSH2 0x100 DUP1 DUP4 SLOAD DIV MUL DUP4 MSTORE SWAP2 PUSH1 0x20 ADD SWAP2 PUSH2 0x51A0 JUMP JUMPDEST DUP3 ADD SWAP2 SWAP1 PUSH1 0x0 MSTORE PUSH1 0x20 PUSH1 0x0 KECCAK256 SWAP1 JUMPDEST DUP2 SLOAD DUP2 MSTORE SWAP1 PUSH1 0x1 ADD SWAP1 PUSH1 0x20 ADD DUP1 DUP4 GT PUSH2 0x5183 JUMPI DUP3 SWAP1 SUB PUSH1 0x1F AND DUP3 ADD SWAP2 JUMPDEST POP POP POP POP POP DUP2 MSTORE PUSH1 0x20 ADD PUSH1 0x5 DUP3 ADD DUP1 SLOAD PUSH2 0x51B9 SWAP1 PUSH2 0x5C86 JUMP JUMPDEST DUP1 PUSH1 0x1F ADD PUSH1 0x20 DUP1 SWAP2 DIV MUL PUSH1 0x20 ADD PUSH1 0x40 MLOAD SWAP1 DUP2 ADD PUSH1 0x40 MSTORE DUP1 SWAP3 SWAP2 SWAP1 DUP2 DUP2 MSTORE PUSH1 0x20 ADD DUP3 DUP1 SLOAD PUSH2 0x51E5 SWAP1 PUSH2 0x5C86 JUMP JUMPDEST DUP1 ISZERO PUSH2 0x5232 JUMPI DUP1 PUSH1 0x1F LT PUSH2 0x5207 JUMPI PUSH2 0x100 DUP1 DUP4 SLOAD DIV MUL DUP4 MSTORE SWAP2 PUSH1 0x20 ADD SWAP2 PUSH2 0x5232 JUMP JUMPDEST DUP3 ADD SWAP2 SWAP1 PUSH1 0x0 MSTORE PUSH1 0x20 PUSH1 0x0 KECCAK256 SWAP1 JUMPDEST DUP2 SLOAD DUP2 MSTORE SWAP1 PUSH1 0x1 ADD SWAP1 PUSH1 0x20 ADD DUP1 DUP4 GT PUSH2 0x5215 JUMPI DUP3 SWAP1 SUB PUSH1 0x1F AND DUP3 ADD SWAP2 JUMPDEST POP POP POP POP POP DUP2 MSTORE PUSH1 0x20 ADD PUSH1 0x6 DUP3 ADD DUP1 SLOAD PUSH2 0x524B SWAP1 PUSH2 0x5C86 JUMP JUMPDEST DUP1 PUSH1 0x1F ADD PUSH1 0x20 DUP1 SWAP2 DIV MUL PUSH1 0x20 ADD PUSH1 0x40 MLOAD SWAP1 DUP2 ADD PUSH1 0x40 MSTORE DUP1 SWAP3 SWAP2 SWAP1 DUP2 DUP2 MSTORE PUSH1 0x20 ADD DUP3 DUP1 SLOAD PUSH2 0x5277 SWAP1 PUSH2 0x5C86 JUMP JUMPDEST DUP1 ISZERO PUSH2 0x52C4 JUMPI DUP1 PUSH1 0x1F LT PUSH2 0x5299 JUMPI PUSH2 0x100 DUP1 DUP4 SLOAD DIV MUL DUP4 MSTORE SWAP2 PUSH1 0x20 ADD SWAP2 PUSH2 0x52C4 JUMP JUMPDEST DUP3 ADD SWAP2 SWAP1 PUSH1 0x0 MSTORE PUSH1 0x20 PUSH1 0x0 KECCAK256 SWAP1 JUMPDEST DUP2 SLOAD DUP2 MSTORE SWAP1 PUSH1 0x1 ADD SWAP1 PUSH1 0x20 ADD DUP1 DUP4 GT PUSH2 0x52A7 JUMPI DUP3 SWAP1 SUB PUSH1 0x1F AND DUP3 ADD SWAP2 JUMPDEST POP POP POP POP POP DUP2 MSTORE PUSH1 0x20 ADD PUSH1 0x7 DUP3 ADD DUP1 SLOAD PUSH2 0x52DD SWAP1 PUSH2 0x5C86 JUMP JUMPDEST DUP1 PUSH1 0x1F ADD PUSH1 0x20 DUP1 SWAP2 DIV MUL PUSH1 0x20 ADD PUSH1 0x40 MLOAD SWAP1 DUP2 ADD PUSH1 0x40 MSTORE DUP1 SWAP3 SWAP2 SWAP1 DUP2 DUP2 MSTORE PUSH1 0x20 ADD DUP3 DUP1 SLOAD PUSH2 0x5309 SWAP1 PUSH2 0x5C86 JUMP JUMPDEST DUP1 ISZERO PUSH2 0x5356 JUMPI DUP1 PUSH1 0x1F LT PUSH2 0x532B JUMPI PUSH2 0x100 DUP1 DUP4 SLOAD DIV MUL DUP4 MSTORE SWAP2 PUSH1 0x20 ADD SWAP2 PUSH2 0x5356 JUMP JUMPDEST DUP3 ADD SWAP2 SWAP1 PUSH1 0x0 MSTORE PUSH1 0x20 PUSH1 0x0 KECCAK256 SWAP1 JUMPDEST DUP2 SLOAD DUP2 MSTORE SWAP1 PUSH1 0x1 ADD SWAP1 PUSH1 0x20 ADD DUP1 DUP4 GT PUSH2 0x5339 JUMPI DUP3 SWAP1 SUB PUSH1 0x1F AND DUP3 ADD SWAP2 JUMPDEST POP POP POP POP POP DUP2 MSTORE PUSH1 0x20 ADD PUSH1 0x8 DUP3 ADD SLOAD DUP2 MSTORE POP POP SWAP1 POP DUP1 PUSH1 0x0 ADD MLOAD DUP2 PUSH1 0x20 ADD MLOAD DUP3 PUSH1 0x40 ADD MLOAD DUP4 PUSH1 0x60 ADD MLOAD DUP5 PUSH1 0x80 ADD MLOAD DUP6 PUSH1 0xA0 ADD MLOAD DUP7 PUSH1 0xC0 ADD MLOAD DUP8 PUSH1 0xE0 ADD MLOAD DUP9 PUSH2 0x100 ADD MLOAD SWAP10 POP SWAP10 POP SWAP10 POP SWAP10 POP SWAP10 POP SWAP10 POP SWAP10 POP SWAP10 POP SWAP10 POP POP SWAP3 SWAP6 SWAP9 POP SWAP3 SWAP6 SWAP9 POP SWAP3 SWAP6 SWAP9 JUMP JUMPDEST POP DUP1 SLOAD PUSH2 0x53C5 SWAP1 PUSH2 0x5C86 JUMP JUMPDEST PUSH1 0x0 DUP3 SSTORE DUP1 PUSH1 0x1F LT PUSH2 0x53D5 JUMPI POP POP JUMP JUMPDEST PUSH1 0x1F ADD PUSH1 0x20 SWAP1 DIV SWAP1 PUSH1 0x0 MSTORE PUSH1 0x20 PUSH1 0x0 KECCAK256 SWAP1 DUP2 ADD SWAP1 PUSH2 0x53F3 SWAP2 SWAP1 PUSH2 0x53F6 JUMP JUMPDEST POP JUMP JUMPDEST JUMPDEST DUP1 DUP3 GT ISZERO PUSH2 0x540B JUMPI PUSH1 0x0 DUP2 SSTORE PUSH1 0x1 ADD PUSH2 0x53F7 JUMP JUMPDEST POP SWAP1 JUMP JUMPDEST PUSH1 0x0 PUSH1 0x20 DUP3 DUP5 SUB SLT ISZERO PUSH2 0x5421 JUMPI PUSH1 0x0 DUP1 REVERT JUMPDEST POP CALLDATALOAD SWAP2 SWAP1 POP JUMP JUMPDEST PUSH1 0x0 DUP2 MLOAD DUP1 DUP5 MSTORE PUSH1 0x0 JUMPDEST DUP2 DUP2 LT ISZERO PUSH2 0x544E JUMPI PUSH1 0x20 DUP2 DUP6 ADD DUP2 ADD MLOAD DUP7 DUP4 ADD DUP3 ADD MSTORE ADD PUSH2 0x5432 JUMP JUMPDEST POP PUSH1 0x0 PUSH1 0x20 DUP3 DUP7 ADD ADD MSTORE PUSH1 0x20 PUSH1 0x1F NOT PUSH1 0x1F DUP4 ADD AND DUP6 ADD ADD SWAP2 POP POP SWAP3 SWAP2 POP POP JUMP JUMPDEST PUSH2 0x120 DUP2 MSTORE PUSH1 0x0 PUSH2 0x5483 PUSH2 0x120 DUP4 ADD DUP13 PUSH2 0x5428 JUMP JUMPDEST DUP3 DUP2 SUB PUSH1 0x20 DUP5 ADD MSTORE PUSH2 0x5495 DUP2 DUP13 PUSH2 0x5428 JUMP JUMPDEST PUSH1 0x1 PUSH1 0x1 PUSH1 0xA0 SHL SUB SWAP11 DUP12 AND PUSH1 0x40 DUP6 ADD MSTORE SWAP9 DUP11 AND PUSH1 0x60 DUP5 ADD MSTORE POP POP SWAP5 SWAP1 SWAP7 AND PUSH1 0x80 DUP6 ADD MSTORE PUSH1 0xA0 DUP5 ADD SWAP3 SWAP1 SWAP3 MSTORE PUSH1 0xC0 DUP4 ADD MSTORE PUSH1 0xE0 DUP3 ADD MSTORE PUSH2 0x100 ADD SWAP2 SWAP1 SWAP2 MSTORE SWAP3 SWAP2 POP POP JUMP JUMPDEST DUP1 CALLDATALOAD PUSH1 0x3 DUP2 LT PUSH2 0x54E7 JUMPI PUSH1 0x0 DUP1 REVERT JUMPDEST SWAP2 SWAP1 POP JUMP JUMPDEST PUSH1 0x0 PUSH1 0x20 DUP3 DUP5 SUB SLT ISZERO PUSH2 0x54FE JUMPI PUSH1 0x0 DUP1 REVERT JUMPDEST PUSH2 0x5507 DUP3 PUSH2 0x54D8 JUMP JUMPDEST SWAP4 SWAP3 POP POP POP JUMP JUMPDEST PUSH1 0x20 DUP1 DUP3 MSTORE DUP3 MLOAD DUP3 DUP3 ADD DUP2 SWAP1 MSTORE PUSH1 0x0 SWAP2 DUP5 ADD SWAP1 PUSH1 0x40 DUP5 ADD SWAP1 DUP4 JUMPDEST DUP2 DUP2 LT ISZERO PUSH2 0x554F JUMPI DUP4 MLOAD PUSH1 0x1 PUSH1 0x1 PUSH1 0xA0 SHL SUB AND DUP4 MSTORE PUSH1 0x20 SWAP4 DUP5 ADD SWAP4 SWAP1 SWAP3 ADD SWAP2 PUSH1 0x1 ADD PUSH2 0x5528 JUMP JUMPDEST POP SWAP1 SWAP6 SWAP5 POP POP POP POP POP JUMP JUMPDEST PUSH4 0x4E487B71 PUSH1 0xE0 SHL PUSH1 0x0 MSTORE PUSH1 0x21 PUSH1 0x4 MSTORE PUSH1 0x24 PUSH1 0x0 REVERT JUMPDEST PUSH1 0x3 DUP2 LT PUSH2 0x53F3 JUMPI PUSH4 0x4E487B71 PUSH1 0xE0 SHL PUSH1 0x0 MSTORE PUSH1 0x21 PUSH1 0x4 MSTORE PUSH1 0x24 PUSH1 0x0 REVERT JUMPDEST PUSH1 0x1 PUSH1 0x1 PUSH1 0xA0 SHL SUB DUP8 AND DUP2 MSTORE PUSH1 0xC0 PUSH1 0x20 DUP3 ADD DUP2 SWAP1 MSTORE PUSH1 0x0 SWAP1 PUSH2 0x55B2 SWAP1 DUP4 ADD DUP9 PUSH2 0x5428 JUMP JUMPDEST DUP3 DUP2 SUB PUSH1 0x40 DUP5 ADD MSTORE PUSH2 0x55C4 DUP2 DUP9 PUSH2 0x5428 JUMP JUMPDEST SWAP2 POP POP PUSH2 0x55D0 DUP6 PUSH2 0x5570 JUMP JUMPDEST PUSH1 0x60 DUP3 ADD SWAP5 SWAP1 SWAP5 MSTORE SWAP2 ISZERO ISZERO PUSH1 0x80 DUP4 ADD MSTORE ISZERO ISZERO PUSH1 0xA0 SWAP1 SWAP2 ADD MSTORE SWAP4 SWAP3 POP POP POP JUMP JUMPDEST DUP1 CALLDATALOAD PUSH1 0x1 PUSH1 0x1 PUSH1 0xA0 SHL SUB DUP2 AND DUP2 EQ PUSH2 0x54E7 JUMPI PUSH1 0x0 DUP1 REVERT JUMPDEST PUSH1 0x0 DUP1 PUSH1 0x40 DUP4 DUP6 SUB SLT ISZERO PUSH2 0x5619 JUMPI PUSH1 0x0 DUP1 REVERT JUMPDEST PUSH2 0x5622 DUP4 PUSH2 0x55EF JUMP JUMPDEST SWAP5 PUSH1 0x20 SWAP4 SWAP1 SWAP4 ADD CALLDATALOAD SWAP4 POP POP POP JUMP JUMPDEST DUP9 DUP2 MSTORE PUSH1 0x1 PUSH1 0x1 PUSH1 0xA0 SHL SUB DUP9 AND PUSH1 0x20 DUP3 ADD MSTORE PUSH2 0x100 PUSH1 0x40 DUP3 ADD DUP2 SWAP1 MSTORE PUSH1 0x0 SWAP1 PUSH2 0x565B SWAP1 DUP4 ADD DUP10 PUSH2 0x5428 JUMP JUMPDEST DUP3 DUP2 SUB PUSH1 0x60 DUP5 ADD MSTORE PUSH2 0x566D DUP2 DUP10 PUSH2 0x5428 JUMP JUMPDEST PUSH1 0x1 PUSH1 0x1 PUSH1 0xA0 SHL SUB DUP9 AND PUSH1 0x80 DUP6 ADD MSTORE DUP4 DUP2 SUB PUSH1 0xA0 DUP6 ADD MSTORE SWAP1 POP PUSH2 0x5690 DUP2 DUP8 PUSH2 0x5428 JUMP JUMPDEST PUSH1 0x1 PUSH1 0x1 PUSH1 0xA0 SHL SUB SWAP6 SWAP1 SWAP6 AND PUSH1 0xC0 DUP5 ADD MSTORE POP POP PUSH1 0xE0 ADD MSTORE SWAP7 SWAP6 POP POP POP POP POP POP JUMP JUMPDEST PUSH1 0x0 PUSH1 0x20 DUP3 DUP5 SUB SLT ISZERO PUSH2 0x56C3 JUMPI PUSH1 0x0 DUP1 REVERT JUMPDEST PUSH2 0x5507 DUP3 PUSH2 0x55EF JUMP JUMPDEST PUSH1 0x20 DUP2 MSTORE PUSH1 0x0 PUSH2 0x5507 PUSH1 0x20 DUP4 ADD DUP5 PUSH2 0x5428 JUMP JUMPDEST PUSH4 0x4E487B71 PUSH1 0xE0 SHL PUSH1 0x0 MSTORE PUSH1 0x41 PUSH1 0x4 MSTORE PUSH1 0x24 PUSH1 0x0 REVERT JUMPDEST PUSH1 0x0 DUP3 PUSH1 0x1F DUP4 ADD SLT PUSH2 0x5706 JUMPI PUSH1 0x0 DUP1 REVERT JUMPDEST DUP2 CALLDATALOAD PUSH8 0xFFFFFFFFFFFFFFFF DUP2 GT ISZERO PUSH2 0x5720 JUMPI PUSH2 0x5720 PUSH2 0x56DF JUMP JUMPDEST PUSH1 0x40 MLOAD PUSH1 0x1F DUP3 ADD PUSH1 0x1F NOT SWAP1 DUP2 AND PUSH1 0x3F ADD AND DUP2 ADD PUSH8 0xFFFFFFFFFFFFFFFF DUP2 GT DUP3 DUP3 LT OR ISZERO PUSH2 0x574F JUMPI PUSH2 0x574F PUSH2 0x56DF JUMP JUMPDEST PUSH1 0x40 MSTORE DUP2 DUP2 MSTORE DUP4 DUP3 ADD PUSH1 0x20 ADD DUP6 LT ISZERO PUSH2 0x5767 JUMPI PUSH1 0x0 DUP1 REVERT JUMPDEST DUP2 PUSH1 0x20 DUP6 ADD PUSH1 0x20 DUP4 ADD CALLDATACOPY PUSH1 0x0 SWAP2 DUP2 ADD PUSH1 0x20 ADD SWAP2 SWAP1 SWAP2 MSTORE SWAP4 SWAP3 POP POP POP JUMP JUMPDEST PUSH1 0x0 PUSH1 0x20 DUP3 DUP5 SUB SLT ISZERO PUSH2 0x5796 JUMPI PUSH1 0x0 DUP1 REVERT JUMPDEST DUP2 CALLDATALOAD PUSH8 0xFFFFFFFFFFFFFFFF DUP2 GT ISZERO PUSH2 0x57AD JUMPI PUSH1 0x0 DUP1 REVERT JUMPDEST PUSH2 0x57B9 DUP5 DUP3 DUP6 ADD PUSH2 0x56F5 JUMP JUMPDEST SWAP5 SWAP4 POP POP POP POP JUMP JUMPDEST PUSH1 0x0 DUP1 PUSH1 0x0 DUP1 PUSH1 0x0 DUP1 PUSH1 0xC0 DUP8 DUP10 SUB SLT ISZERO PUSH2 0x57DA JUMPI PUSH1 0x0 DUP1 REVERT JUMPDEST DUP7 CALLDATALOAD SWAP6 POP PUSH1 0x20 DUP8 ADD CALLDATALOAD SWAP5 POP PUSH2 0x57F1 PUSH1 0x40 DUP9 ADD PUSH2 0x55EF JUMP JUMPDEST SWAP4 POP PUSH2 0x57FF PUSH1 0x60 DUP9 ADD PUSH2 0x55EF JUMP JUMPDEST SWAP3 POP PUSH1 0x80 DUP8 ADD CALLDATALOAD PUSH8 0xFFFFFFFFFFFFFFFF DUP2 GT ISZERO PUSH2 0x581B JUMPI PUSH1 0x0 DUP1 REVERT JUMPDEST PUSH2 0x5827 DUP10 DUP3 DUP11 ADD PUSH2 0x56F5 JUMP JUMPDEST SWAP3 POP POP PUSH1 0xA0 DUP8 ADD CALLDATALOAD PUSH8 0xFFFFFFFFFFFFFFFF DUP2 GT ISZERO PUSH2 0x5844 JUMPI PUSH1 0x0 DUP1 REVERT JUMPDEST PUSH2 0x5850 DUP10 DUP3 DUP11 ADD PUSH2 0x56F5 JUMP JUMPDEST SWAP2 POP POP SWAP3 SWAP6 POP SWAP3 SWAP6 POP SWAP3 SWAP6 JUMP JUMPDEST DUP9 DUP2 MSTORE PUSH2 0x100 PUSH1 0x20 DUP3 ADD MSTORE PUSH1 0x0 PUSH2 0x5878 PUSH2 0x100 DUP4 ADD DUP11 PUSH2 0x5428 JUMP JUMPDEST DUP3 DUP2 SUB PUSH1 0x40 DUP5 ADD MSTORE PUSH2 0x588A DUP2 DUP11 PUSH2 0x5428 JUMP JUMPDEST SWAP2 POP POP DUP7 PUSH1 0x60 DUP4 ADD MSTORE DUP6 PUSH1 0x80 DUP4 ADD MSTORE DUP5 PUSH1 0xA0 DUP4 ADD MSTORE PUSH1 0x1 DUP1 PUSH1 0xA0 SHL SUB DUP5 AND PUSH1 0xC0 DUP4 ADD MSTORE PUSH2 0x58B6 DUP4 PUSH2 0x5570 JUMP JUMPDEST DUP3 PUSH1 0xE0 DUP4 ADD MSTORE SWAP10 SWAP9 POP POP POP POP POP POP POP POP POP JUMP JUMPDEST PUSH1 0x0 DUP1 PUSH1 0x0 PUSH1 0x60 DUP5 DUP7 SUB SLT ISZERO PUSH2 0x58DE JUMPI PUSH1 0x0 DUP1 REVERT JUMPDEST DUP4 CALLDATALOAD PUSH8 0xFFFFFFFFFFFFFFFF DUP2 GT ISZERO PUSH2 0x58F5 JUMPI PUSH1 0x0 DUP1 REVERT JUMPDEST PUSH2 0x5901 DUP7 DUP3 DUP8 ADD PUSH2 0x56F5 JUMP JUMPDEST SWAP4 POP POP PUSH2 0x5910 PUSH1 0x20 DUP6 ADD PUSH2 0x54D8 JUMP JUMPDEST SWAP2 POP PUSH1 0x40 DUP5 ADD CALLDATALOAD PUSH8 0xFFFFFFFFFFFFFFFF DUP2 GT ISZERO PUSH2 0x592C JUMPI PUSH1 0x0 DUP1 REVERT JUMPDEST PUSH2 0x5938 DUP7 DUP3 DUP8 ADD PUSH2 0x56F5 JUMP JUMPDEST SWAP2 POP POP SWAP3 POP SWAP3 POP SWAP3 JUMP JUMPDEST DUP11 DUP2 MSTORE PUSH2 0x140 PUSH1 0x20 DUP3 ADD MSTORE PUSH1 0x0 PUSH2 0x595D PUSH2 0x140 DUP4 ADD DUP13 PUSH2 0x5428 JUMP JUMPDEST DUP3 DUP2 SUB PUSH1 0x40 DUP5 ADD MSTORE PUSH2 0x596F DUP2 DUP13 PUSH2 0x5428 JUMP JUMPDEST PUSH1 0x1 PUSH1 0x1 PUSH1 0xA0 SHL SUB DUP12 DUP2 AND PUSH1 0x60 DUP7 ADD MSTORE DUP11 DUP2 AND PUSH1 0x80 DUP7 ADD MSTORE DUP10 AND PUSH1 0xA0 DUP6 ADD MSTORE DUP4 DUP2 SUB PUSH1 0xC0 DUP6 ADD MSTORE SWAP1 POP PUSH2 0x59A2 DUP2 DUP9 PUSH2 0x5428 JUMP JUMPDEST SWAP1 POP DUP3 DUP2 SUB PUSH1 0xE0 DUP5 ADD MSTORE PUSH2 0x59B6 DUP2 DUP8 PUSH2 0x5428 JUMP JUMPDEST SWAP2 POP POP DUP4 PUSH2 0x100 DUP4 ADD MSTORE PUSH2 0x59C9 DUP4 PUSH2 0x5570 JUMP JUMPDEST DUP3 PUSH2 0x120 DUP4 ADD MSTORE SWAP12 SWAP11 POP POP POP POP POP POP POP POP POP POP POP JUMP JUMPDEST DUP9 DUP2 MSTORE PUSH1 0x1 PUSH1 0x1 PUSH1 0xA0 SHL SUB DUP9 DUP2 AND PUSH1 0x20 DUP4 ADD MSTORE DUP8 AND PUSH1 0x40 DUP3 ADD MSTORE PUSH2 0x100 PUSH1 0x60 DUP3 ADD DUP2 SWAP1 MSTORE PUSH1 0x0 SWAP1 PUSH2 0x5A12 SWAP1 DUP4 ADD DUP9 PUSH2 0x5428 JUMP JUMPDEST DUP3 DUP2 SUB PUSH1 0x80 DUP5 ADD MSTORE PUSH2 0x5A24 DUP2 DUP9 PUSH2 0x5428 JUMP JUMPDEST SWAP1 POP DUP6 PUSH1 0xA0 DUP5 ADD MSTORE DUP3 DUP2 SUB PUSH1 0xC0 DUP5 ADD MSTORE PUSH2 0x5A3E DUP2 DUP7 PUSH2 0x5428 JUMP JUMPDEST SWAP2 POP POP DUP3 PUSH1 0xE0 DUP4 ADD MSTORE SWAP10 SWAP9 POP POP POP POP POP POP POP POP POP JUMP JUMPDEST DUP10 DUP2 MSTORE PUSH1 0x1 PUSH1 0x1 PUSH1 0xA0 SHL SUB DUP10 DUP2 AND PUSH1 0x20 DUP4 ADD MSTORE DUP9 AND PUSH1 0x40 DUP3 ADD MSTORE PUSH2 0x120 PUSH1 0x60 DUP3 ADD DUP2 SWAP1 MSTORE PUSH1 0x0 SWAP1 PUSH2 0x5A87 SWAP1 DUP4 ADD DUP10 PUSH2 0x5428 JUMP JUMPDEST DUP3 DUP2 SUB PUSH1 0x80 DUP5 ADD MSTORE PUSH2 0x5A99 DUP2 DUP10 PUSH2 0x5428 JUMP JUMPDEST SWAP1 POP DUP3 DUP2 SUB PUSH1 0xA0 DUP5 ADD MSTORE PUSH2 0x5AAD DUP2 DUP9 PUSH2 0x5428 JUMP JUMPDEST SWAP1 POP DUP3 DUP2 SUB PUSH1 0xC0 DUP5 ADD MSTORE PUSH2 0x5AC1 DUP2 DUP8 PUSH2 0x5428 JUMP JUMPDEST SWAP1 POP DUP3 DUP2 SUB PUSH1 0xE0 DUP5 ADD MSTORE PUSH2 0x5AD5 DUP2 DUP7 PUSH2 0x5428 JUMP JUMPDEST SWAP2 POP POP DUP3 PUSH2 0x100 DUP4 ADD MSTORE SWAP11 SWAP10 POP POP POP POP POP POP POP POP POP POP JUMP JUMPDEST PUSH1 0x0 DUP1 PUSH1 0x0 DUP1 PUSH1 0x0 PUSH1 0xA0 DUP7 DUP9 SUB SLT ISZERO PUSH2 0x5B05 JUMPI PUSH1 0x0 DUP1 REVERT JUMPDEST DUP6 CALLDATALOAD PUSH8 0xFFFFFFFFFFFFFFFF DUP2 GT ISZERO PUSH2 0x5B1C JUMPI PUSH1 0x0 DUP1 REVERT JUMPDEST PUSH2 0x5B28 DUP9 DUP3 DUP10 ADD PUSH2 0x56F5 JUMP JUMPDEST SWAP6 POP POP PUSH1 0x20 DUP7 ADD CALLDATALOAD PUSH8 0xFFFFFFFFFFFFFFFF DUP2 GT ISZERO PUSH2 0x5B45 JUMPI PUSH1 0x0 DUP1 REVERT JUMPDEST PUSH2 0x5B51 DUP9 DUP3 DUP10 ADD PUSH2 0x56F5 JUMP JUMPDEST SWAP6 SWAP9 SWAP6 SWAP8 POP POP POP POP PUSH1 0x40 DUP5 ADD CALLDATALOAD SWAP4 PUSH1 0x60 DUP2 ADD CALLDATALOAD SWAP4 PUSH1 0x80 SWAP1 SWAP2 ADD CALLDATALOAD SWAP3 POP SWAP1 POP JUMP JUMPDEST PUSH1 0x20 DUP2 ADD PUSH2 0x5B7E DUP4 PUSH2 0x5570 JUMP JUMPDEST SWAP2 SWAP1 MSTORE SWAP1 JUMP JUMPDEST PUSH1 0x1 PUSH1 0x1 PUSH1 0xA0 SHL SUB DUP7 AND DUP2 MSTORE PUSH1 0xA0 PUSH1 0x20 DUP3 ADD DUP2 SWAP1 MSTORE PUSH1 0x0 SWAP1 PUSH2 0x5BA8 SWAP1 DUP4 ADD DUP8 PUSH2 0x5428 JUMP JUMPDEST DUP3 DUP2 SUB PUSH1 0x40 DUP5 ADD MSTORE PUSH2 0x5BBA DUP2 DUP8 PUSH2 0x5428 JUMP JUMPDEST SWAP2 POP POP DUP4 PUSH1 0x60 DUP4 ADD MSTORE PUSH2 0x5BCC DUP4 PUSH2 0x5570 JUMP JUMPDEST DUP3 PUSH1 0x80 DUP4 ADD MSTORE SWAP7 SWAP6 POP POP POP POP POP POP JUMP JUMPDEST PUSH1 0x1 PUSH1 0x1 PUSH1 0xA0 SHL SUB DUP6 AND DUP2 MSTORE PUSH1 0x80 PUSH1 0x20 DUP3 ADD DUP2 SWAP1 MSTORE PUSH1 0x0 SWAP1 PUSH2 0x5C00 SWAP1 DUP4 ADD DUP7 PUSH2 0x5428 JUMP JUMPDEST DUP3 DUP2 SUB PUSH1 0x40 DUP5 ADD MSTORE PUSH2 0x5C12 DUP2 DUP7 PUSH2 0x5428 JUMP JUMPDEST SWAP2 POP POP PUSH2 0x5C1E DUP4 PUSH2 0x5570 JUMP JUMPDEST DUP3 PUSH1 0x60 DUP4 ADD MSTORE SWAP6 SWAP5 POP POP POP POP POP JUMP JUMPDEST PUSH1 0x0 DUP1 PUSH1 0x40 DUP4 DUP6 SUB SLT ISZERO PUSH2 0x5C40 JUMPI PUSH1 0x0 DUP1 REVERT JUMPDEST POP POP DUP1 CALLDATALOAD SWAP3 PUSH1 0x20 SWAP1 SWAP2 ADD CALLDATALOAD SWAP2 POP JUMP JUMPDEST PUSH1 0x20 DUP1 DUP3 MSTORE PUSH1 0x19 SWAP1 DUP3 ADD MSTORE PUSH32 0x4163636573732064656E6965643A2077726F6E6720726F6C6500000000000000 PUSH1 0x40 DUP3 ADD MSTORE PUSH1 0x60 ADD SWAP1 JUMP JUMPDEST PUSH1 0x1 DUP2 DUP2 SHR SWAP1 DUP3 AND DUP1 PUSH2 0x5C9A JUMPI PUSH1 0x7F DUP3 AND SWAP2 POP JUMPDEST PUSH1 0x20 DUP3 LT DUP2 SUB PUSH2 0x5CBA JUMPI PUSH4 0x4E487B71 PUSH1 0xE0 SHL PUSH1 0x0 MSTORE PUSH1 0x22 PUSH1 0x4 MSTORE PUSH1 0x24 PUSH1 0x0 REVERT JUMPDEST POP SWAP2 SWAP1 POP JUMP JUMPDEST PUSH4 0x4E487B71 PUSH1 0xE0 SHL PUSH1 0x0 MSTORE PUSH1 0x32 PUSH1 0x4 MSTORE PUSH1 0x24 PUSH1 0x0 REVERT JUMPDEST PUSH1 0x20 DUP1 DUP3 MSTORE PUSH1 0x12 SWAP1 DUP3 ADD MSTORE PUSH18 0x2737BA1031B7B73A3930B1BA1037BBB732B9 PUSH1 0x71 SHL PUSH1 0x40 DUP3 ADD MSTORE PUSH1 0x60 ADD SWAP1 JUMP JUMPDEST PUSH4 0x4E487B71 PUSH1 0xE0 SHL PUSH1 0x0 MSTORE PUSH1 0x11 PUSH1 0x4 MSTORE PUSH1 0x24 PUSH1 0x0 REVERT JUMPDEST DUP2 DUP2 SUB DUP2 DUP2 GT ISZERO PUSH2 0x5D2B JUMPI PUSH2 0x5D2B PUSH2 0x5D02 JUMP JUMPDEST SWAP3 SWAP2 POP POP JUMP JUMPDEST PUSH4 0x4E487B71 PUSH1 0xE0 SHL PUSH1 0x0 MSTORE PUSH1 0x31 PUSH1 0x4 MSTORE PUSH1 0x24 PUSH1 0x0 REVERT JUMPDEST PUSH1 0x0 DUP2 PUSH2 0x5D56 JUMPI PUSH2 0x5D56 PUSH2 0x5D02 JUMP JUMPDEST POP PUSH1 0x0 NOT ADD SWAP1 JUMP JUMPDEST PUSH1 0x0 DUP1 DUP4 SLOAD PUSH2 0x5D6C DUP2 PUSH2 0x5C86 JUMP JUMPDEST PUSH1 0x1 DUP3 AND DUP1 ISZERO PUSH2 0x5D83 JUMPI PUSH1 0x1 DUP2 EQ PUSH2 0x5D98 JUMPI PUSH2 0x5DC8 JUMP JUMPDEST PUSH1 0xFF NOT DUP4 AND DUP7 MSTORE DUP2 ISZERO ISZERO DUP3 MUL DUP7 ADD SWAP4 POP PUSH2 0x5DC8 JUMP JUMPDEST DUP7 PUSH1 0x0 MSTORE PUSH1 0x20 PUSH1 0x0 KECCAK256 PUSH1 0x0 JUMPDEST DUP4 DUP2 LT ISZERO PUSH2 0x5DC0 JUMPI DUP2 SLOAD DUP9 DUP3 ADD MSTORE PUSH1 0x1 SWAP1 SWAP2 ADD SWAP1 PUSH1 0x20 ADD PUSH2 0x5DA4 JUMP JUMPDEST POP POP DUP2 DUP7 ADD SWAP4 POP JUMPDEST POP SWAP2 SWAP6 SWAP5 POP POP POP POP POP JUMP JUMPDEST PUSH1 0x0 PUSH1 0x1 DUP3 ADD PUSH2 0x5DE5 JUMPI PUSH2 0x5DE5 PUSH2 0x5D02 JUMP JUMPDEST POP PUSH1 0x1 ADD SWAP1 JUMP JUMPDEST PUSH1 0x1F DUP3 GT ISZERO PUSH2 0x5E36 JUMPI DUP1 PUSH1 0x0 MSTORE PUSH1 0x20 PUSH1 0x0 KECCAK256 PUSH1 0x1F DUP5 ADD PUSH1 0x5 SHR DUP2 ADD PUSH1 0x20 DUP6 LT ISZERO PUSH2 0x5E13 JUMPI POP DUP1 JUMPDEST PUSH1 0x1F DUP5 ADD PUSH1 0x5 SHR DUP3 ADD SWAP2 POP JUMPDEST DUP2 DUP2 LT ISZERO PUSH2 0x5E33 JUMPI PUSH1 0x0 DUP2 SSTORE PUSH1 0x1 ADD PUSH2 0x5E1F JUMP JUMPDEST POP POP JUMPDEST POP POP POP JUMP JUMPDEST DUP2 MLOAD PUSH8 0xFFFFFFFFFFFFFFFF DUP2 GT ISZERO PUSH2 0x5E55 JUMPI PUSH2 0x5E55 PUSH2 0x56DF JUMP JUMPDEST PUSH2 0x5E69 DUP2 PUSH2 0x5E63 DUP5 SLOAD PUSH2 0x5C86 JUMP JUMPDEST DUP5 PUSH2 0x5DEC JUMP JUMPDEST PUSH1 0x20 PUSH1 0x1F DUP3 GT PUSH1 0x1 DUP2 EQ PUSH2 0x5E9D JUMPI PUSH1 0x0 DUP4 ISZERO PUSH2 0x5E85 JUMPI POP DUP5 DUP3 ADD MLOAD JUMPDEST PUSH1 0x0 NOT PUSH1 0x3 DUP6 SWAP1 SHL SHR NOT AND PUSH1 0x1 DUP5 SWAP1 SHL OR DUP5 SSTORE PUSH2 0x5E33 JUMP JUMPDEST PUSH1 0x0 DUP5 DUP2 MSTORE PUSH1 0x20 DUP2 KECCAK256 PUSH1 0x1F NOT DUP6 AND SWAP2 JUMPDEST DUP3 DUP2 LT ISZERO PUSH2 0x5ECD JUMPI DUP8 DUP6 ADD MLOAD DUP3 SSTORE PUSH1 0x20 SWAP5 DUP6 ADD SWAP5 PUSH1 0x1 SWAP1 SWAP3 ADD SWAP2 ADD PUSH2 0x5EAD JUMP JUMPDEST POP DUP5 DUP3 LT ISZERO PUSH2 0x5EEB JUMPI DUP7 DUP5 ADD MLOAD PUSH1 0x0 NOT PUSH1 0x3 DUP8 SWAP1 SHL PUSH1 0xF8 AND SHR NOT AND DUP2 SSTORE JUMPDEST POP POP POP POP PUSH1 0x1 SWAP1 DUP2 SHL ADD SWAP1 SSTORE POP JUMP JUMPDEST DUP1 DUP3 ADD DUP1 DUP3 GT ISZERO PUSH2 0x5D2B JUMPI PUSH2 0x5D2B PUSH2 0x5D02 JUMP INVALID LOG2 PUSH5 0x6970667358 0x22 SLT KECCAK256 DUP7 SSTORE 0x1F SWAP7 SWAP4 DUP7 DUP16 PUSH4 0x94F34877 0xC3 CALL 0xB4 0xC8 MLOAD PUSH15 0x9B8E3C4CDF8C7C4BC1EAA2F6AF7864 PUSH20 0x6F6C634300081C00330000000000000000000000 "
        },
        "methodIdentifiers": {
          "all_users(uint256)": "67dac2a0",
          "approve_role(uint256)": "bd5d0808",
          "check_application_result(address)": "89d219f8",
          "confirmArrival(uint256,uint256)": "ec7bf72b",
          "cropCount()": "dfd55a2c",
          "crop_count()": "77e0e7ea",
          "crops(uint256)": "70c9f1a5",
          "deliveryCount()": "5b77b6a6",
          "farmer_history(address,uint256)": "92bd337c",
          "farmers(uint256)": "8afdd669",
          "get_all_users_count()": "5c832800",
          "get_crop_byIndex(uint256)": "6004d2e3",
          "get_delivery_byIndex(uint256)": "b08aeaec",
          "get_delivery_count()": "9f96835a",
          "get_farmer_history_byIndex(address,uint256)": "2a42d705",
          "get_farmer_history_count(address)": "beeba5d6",
          "get_pending_request_byIndex(uint256)": "1d93f21e",
          "get_pending_request_count()": "598fa80c",
          "get_product_byCropId(string)": "387d3ecc",
          "get_product_byIndex(uint256)": "9bcb1739",
          "get_store_history_byIndex(address,uint256)": "8b74b6c6",
          "get_store_history_count(address)": "56e80b98",
          "get_store_product_count()": "48445e4d",
          "get_transporter_history_byIndex(address,uint256)": "f82042fe",
          "get_transporter_history_count(address)": "9c1f9004",
          "get_user_byAddress(address)": "cf464f57",
          "get_user_byIndex(uint256)": "aa1c568e",
          "get_user_count()": "fd33482d",
          "get_user_details(address)": "d2965f04",
          "get_user_name(address)": "2b9575aa",
          "list_user_address(uint8)": "129b9dc3",
          "owner()": "8da5cb5b",
          "pendingDeliveries(uint256)": "69346942",
          "pendingUsers(uint256)": "53bdb1b0",
          "pending_users_count()": "45ecc2a7",
          "product_inStore(uint256)": "06f06768",
          "product_inTransit(uint256)": "034da8ba",
          "registerCrop(string,string,uint256,uint256,uint256)": "92ab20f1",
          "reject_role(uint256)": "e36b4f64",
          "rejected_roles(uint256)": "4a9b4175",
          "request_for_role(string,uint8,string)": "6811a96e",
          "resign_user(address)": "36461c11",
          "roles(address)": "99374642",
          "send_to_transporter(uint256,uint256,address,address,string,string)": "4847bd56",
          "store_history(address,uint256)": "87e720e1",
          "store_managers(uint256)": "1ac0bce8",
          "store_product_count()": "2f3d819b",
          "transporter_history(address,uint256)": "8d165248",
          "transporters(uint256)": "29c2a877",
          "user_count()": "bb805f69",
          "users(address)": "a87430ba",
          "wallet_identity(address)": "911dacdc"
        }
      }
    }
  }
}