{
  "_format": "hh-sol-artifact-1",
  "contractName": "AgricTech",
  "sourceName": "contracts/agric-tech.sol",
  "abi": [
    {
      "anonymous": false,
      "inputs": [
        {
          "indexed": true,
          "internalType": "uint256",
          "name": "cropId",
          "type": "uint256"
        },
        {
          "indexed": true,
          "internalType": "address",
          "name": "buyer",
          "type": "address"
        },
        {
          "indexed": false,
          "internalType": "uint256",
          "name": "quantity",
          "type": "uint256"
        },
        {
          "indexed": false,
          "internalType": "uint256",
          "name": "price",
          "type": "uint256"
        }
      ],
      "name": "CropPurchased",
      "type": "event"
    },
    {
      "anonymous": false,
      "inputs": [
        {
          "indexed": true,
          "internalType": "uint256",
          "name": "cropId",
          "type": "uint256"
        },
        {
          "indexed": false,
          "internalType": "string",
          "name": "name",
          "type": "string"
        },
        {
          "indexed": false,
          "internalType": "uint256",
          "name": "quantity",
          "type": "uint256"
        },
        {
          "indexed": false,
          "internalType": "uint256",
          "name": "pricePerUnit",
          "type": "uint256"
        },
        {
          "indexed": false,
          "internalType": "address",
          "name": "cropOwner",
          "type": "address"
        }
      ],
      "name": "CropUploaded",
      "type": "event"
    },
    {
      "anonymous": false,
      "inputs": [
        {
          "indexed": true,
          "internalType": "uint256",
          "name": "farmerId",
          "type": "uint256"
        },
        {
          "indexed": true,
          "internalType": "address",
          "name": "farmerAddress",
          "type": "address"
        },
        {
          "indexed": false,
          "internalType": "string",
          "name": "name",
          "type": "string"
        },
        {
          "indexed": false,
          "internalType": "string",
          "name": "location",
          "type": "string"
        }
      ],
      "name": "FarmerRegistered",
      "type": "event"
    },
    {
      "anonymous": false,
      "inputs": [
        {
          "indexed": true,
          "internalType": "uint256",
          "name": "product_listId",
          "type": "uint256"
        },
        {
          "indexed": false,
          "internalType": "string",
          "name": "name",
          "type": "string"
        },
        {
          "indexed": false,
          "internalType": "address",
          "name": "ownerAddress",
          "type": "address"
        },
        {
          "indexed": false,
          "internalType": "uint256",
          "name": "price",
          "type": "uint256"
        }
      ],
      "name": "new_crop_added",
      "type": "event"
    },
    {
      "inputs": [
        {
          "internalType": "uint256",
          "name": "_cropId",
          "type": "uint256"
        },
        {
          "internalType": "uint256",
          "name": "quantityToBuy",
          "type": "uint256"
        }
      ],
      "name": "buyCrop",
      "outputs": [],
      "stateMutability": "payable",
      "type": "function"
    },
    {
      "inputs": [
        {
          "internalType": "uint256",
          "name": "",
          "type": "uint256"
        }
      ],
      "name": "cropId",
      "outputs": [
        {
          "internalType": "uint256",
          "name": "",
          "type": "uint256"
        }
      ],
      "stateMutability": "view",
      "type": "function"
    },
    {
      "inputs": [
        {
          "internalType": "uint256",
          "name": "",
          "type": "uint256"
        }
      ],
      "name": "crops",
      "outputs": [
        {
          "internalType": "uint256",
          "name": "id",
          "type": "uint256"
        },
        {
          "internalType": "string",
          "name": "name",
          "type": "string"
        },
        {
          "internalType": "uint256",
          "name": "quantity",
          "type": "uint256"
        },
        {
          "internalType": "uint256",
          "name": "pricePerUnit",
          "type": "uint256"
        },
        {
          "internalType": "address payable",
          "name": "cropOwner",
          "type": "address"
        },
        {
          "internalType": "enum AgricTech.Status",
          "name": "cropStatus",
          "type": "uint8"
        }
      ],
      "stateMutability": "view",
      "type": "function"
    },
    {
      "inputs": [
        {
          "internalType": "uint256",
          "name": "",
          "type": "uint256"
        }
      ],
      "name": "farmerId",
      "outputs": [
        {
          "internalType": "uint256",
          "name": "",
          "type": "uint256"
        }
      ],
      "stateMutability": "view",
      "type": "function"
    },
    {
      "inputs": [
        {
          "internalType": "uint256",
          "name": "",
          "type": "uint256"
        }
      ],
      "name": "farmers",
      "outputs": [
        {
          "internalType": "uint256",
          "name": "id",
          "type": "uint256"
        },
        {
          "internalType": "address",
          "name": "farmerAddress",
          "type": "address"
        },
        {
          "internalType": "string",
          "name": "name",
          "type": "string"
        },
        {
          "internalType": "string",
          "name": "location",
          "type": "string"
        }
      ],
      "stateMutability": "view",
      "type": "function"
    },
    {
      "inputs": [
        {
          "internalType": "address",
          "name": "_farmer",
          "type": "address"
        },
        {
          "internalType": "uint256",
          "name": "index",
          "type": "uint256"
        }
      ],
      "name": "getSupplyByIndex",
      "outputs": [
        {
          "internalType": "uint256",
          "name": "id",
          "type": "uint256"
        },
        {
          "internalType": "address",
          "name": "customerAddress",
          "type": "address"
        },
        {
          "internalType": "string",
          "name": "nameOfProduct",
          "type": "string"
        },
        {
          "internalType": "uint256",
          "name": "quantity",
          "type": "uint256"
        },
        {
          "internalType": "uint256",
          "name": "totalCost",
          "type": "uint256"
        }
      ],
      "stateMutability": "view",
      "type": "function"
    },
    {
      "inputs": [
        {
          "internalType": "address",
          "name": "_farmer",
          "type": "address"
        }
      ],
      "name": "getSupplyCount",
      "outputs": [
        {
          "internalType": "uint256",
          "name": "",
          "type": "uint256"
        }
      ],
      "stateMutability": "view",
      "type": "function"
    },
    {
      "inputs": [
        {
          "internalType": "uint256",
          "name": "index",
          "type": "uint256"
        }
      ],
      "name": "get_product_by_index",
      "outputs": [
        {
          "internalType": "uint256",
          "name": "id",
          "type": "uint256"
        },
        {
          "internalType": "string",
          "name": "name",
          "type": "string"
        },
        {
          "internalType": "address",
          "name": "ownerAddress",
          "type": "address"
        },
        {
          "internalType": "uint256",
          "name": "price",
          "type": "uint256"
        }
      ],
      "stateMutability": "view",
      "type": "function"
    },
    {
      "inputs": [],
      "name": "get_product_count",
      "outputs": [
        {
          "internalType": "uint256",
          "name": "",
          "type": "uint256"
        }
      ],
      "stateMutability": "view",
      "type": "function"
    },
    {
      "inputs": [
        {
          "internalType": "address",
          "name": "_address",
          "type": "address"
        }
      ],
      "name": "isRegistered",
      "outputs": [
        {
          "internalType": "bool",
          "name": "",
          "type": "bool"
        }
      ],
      "stateMutability": "view",
      "type": "function"
    },
    {
      "inputs": [],
      "name": "nextCropId",
      "outputs": [
        {
          "internalType": "uint256",
          "name": "",
          "type": "uint256"
        }
      ],
      "stateMutability": "view",
      "type": "function"
    },
    {
      "inputs": [],
      "name": "nextFarmerId",
      "outputs": [
        {
          "internalType": "uint256",
          "name": "",
          "type": "uint256"
        }
      ],
      "stateMutability": "view",
      "type": "function"
    },
    {
      "inputs": [],
      "name": "nextSupplyId",
      "outputs": [
        {
          "internalType": "uint256",
          "name": "",
          "type": "uint256"
        }
      ],
      "stateMutability": "view",
      "type": "function"
    },
    {
      "inputs": [
        {
          "internalType": "uint256",
          "name": "",
          "type": "uint256"
        }
      ],
      "name": "product_listId",
      "outputs": [
        {
          "internalType": "uint256",
          "name": "",
          "type": "uint256"
        }
      ],
      "stateMutability": "view",
      "type": "function"
    },
    {
      "inputs": [
        {
          "internalType": "uint256",
          "name": "",
          "type": "uint256"
        }
      ],
      "name": "products",
      "outputs": [
        {
          "internalType": "uint256",
          "name": "id",
          "type": "uint256"
        },
        {
          "internalType": "string",
          "name": "name",
          "type": "string"
        },
        {
          "internalType": "address",
          "name": "ownerAddress",
          "type": "address"
        },
        {
          "internalType": "uint256",
          "name": "price",
          "type": "uint256"
        }
      ],
      "stateMutability": "view",
      "type": "function"
    },
    {
      "inputs": [
        {
          "internalType": "string",
          "name": "_nameOfProduct",
          "type": "string"
        },
        {
          "internalType": "address",
          "name": "_customerAddress",
          "type": "address"
        },
        {
          "internalType": "uint256",
          "name": "_quantity",
          "type": "uint256"
        },
        {
          "internalType": "uint256",
          "name": "_totalCost",
          "type": "uint256"
        }
      ],
      "name": "recordSupply",
      "outputs": [],
      "stateMutability": "nonpayable",
      "type": "function"
    },
    {
      "inputs": [
        {
          "internalType": "string",
          "name": "_name",
          "type": "string"
        },
        {
          "internalType": "string",
          "name": "_location",
          "type": "string"
        }
      ],
      "name": "registerFarmer",
      "outputs": [],
      "stateMutability": "nonpayable",
      "type": "function"
    },
    {
      "inputs": [
        {
          "internalType": "address",
          "name": "",
          "type": "address"
        }
      ],
      "name": "registeredFarmers",
      "outputs": [
        {
          "internalType": "bool",
          "name": "",
          "type": "bool"
        }
      ],
      "stateMutability": "view",
      "type": "function"
    },
    {
      "inputs": [
        {
          "internalType": "address",
          "name": "",
          "type": "address"
        },
        {
          "internalType": "uint256",
          "name": "",
          "type": "uint256"
        }
      ],
      "name": "supplies",
      "outputs": [
        {
          "internalType": "uint256",
          "name": "id",
          "type": "uint256"
        },
        {
          "internalType": "address",
          "name": "customerAddress",
          "type": "address"
        },
        {
          "internalType": "string",
          "name": "nameOfProduct",
          "type": "string"
        },
        {
          "internalType": "uint256",
          "name": "quantity",
          "type": "uint256"
        },
        {
          "internalType": "uint256",
          "name": "totalCost",
          "type": "uint256"
        }
      ],
      "stateMutability": "view",
      "type": "function"
    },
    {
      "inputs": [
        {
          "internalType": "uint256",
          "name": "",
          "type": "uint256"
        }
      ],
      "name": "supplyId",
      "outputs": [
        {
          "internalType": "uint256",
          "name": "",
          "type": "uint256"
        }
      ],
      "stateMutability": "view",
      "type": "function"
    },
    {
      "inputs": [
        {
          "internalType": "string",
          "name": "_name",
          "type": "string"
        },
        {
          "internalType": "uint256",
          "name": "_pricePerUnit",
          "type": "uint256"
        },
        {
          "internalType": "uint256",
          "name": "_quantity",
          "type": "uint256"
        }
      ],
      "name": "uploadCrop",
      "outputs": [],
      "stateMutability": "nonpayable",
      "type": "function"
    }
  ],
  "bytecode": "0x6080604052348015600f57600080fd5b506123ad8061001f6000396000f3fe60806040526004361061012a5760003560e01c80637acc0b20116100ab578063b48a1a851161006f578063b48a1a8514610441578063c02491151461047e578063c3c5a547146104bb578063e47f2765146104f8578063f41cc39714610535578063fa548148146105605761012a565b80637acc0b201461033d57806382d08e6a1461037d57806383c5b0aa146103a85780638afdd669146103e5578063a086dd88146104255761012a565b80634d549853116100f25780634d549853146102125780636dc474731461025357806370c9f1a51461029057806374f44834146102d257806379696b45146103125761012a565b8063072cf2821461012f57806327457eab1461015a5780632d37f11c14610183578063314596b2146101c05780633a1377ad146101e9575b600080fd5b34801561013b57600080fd5b506101446105a1565b604051610151919061164f565b60405180910390f35b34801561016657600080fd5b50610181600480360381019061017c919061184e565b6105ae565b005b34801561018f57600080fd5b506101aa60048036038101906101a591906118d1565b610727565b6040516101b7919061164f565b60405180910390f35b3480156101cc57600080fd5b506101e760048036038101906101e291906118fe565b61074b565b005b3480156101f557600080fd5b50610210600480360381019061020b9190611976565b610909565b005b34801561021e57600080fd5b50610239600480360381019061023491906119e5565b610bec565b60405161024a959493929190611ab3565b60405180910390f35b34801561025f57600080fd5b5061027a600480360381019061027591906118d1565b610d96565b604051610287919061164f565b60405180910390f35b34801561029c57600080fd5b506102b760048036038101906102b291906118d1565b610dba565b6040516102c996959493929190611ba5565b60405180910390f35b3480156102de57600080fd5b506102f960048036038101906102f491906118d1565b610eab565b6040516103099493929190611c0d565b60405180910390f35b34801561031e57600080fd5b50610327611003565b604051610334919061164f565b60405180910390f35b34801561034957600080fd5b50610364600480360381019061035f91906118d1565b611009565b6040516103749493929190611c0d565b60405180910390f35b34801561038957600080fd5b506103926110f1565b60405161039f919061164f565b60405180910390f35b3480156103b457600080fd5b506103cf60048036038101906103ca9190611c59565b6110f7565b6040516103dc9190611ca1565b60405180910390f35b3480156103f157600080fd5b5061040c600480360381019061040791906118d1565b611117565b60405161041c9493929190611cbc565b60405180910390f35b61043f600480360381019061043a9190611d0f565b611277565b005b34801561044d57600080fd5b50610468600480360381019061046391906118d1565b61144b565b604051610475919061164f565b60405180910390f35b34801561048a57600080fd5b506104a560048036038101906104a09190611c59565b61146f565b6040516104b2919061164f565b60405180910390f35b3480156104c757600080fd5b506104e260048036038101906104dd9190611c59565b6114bb565b6040516104ef9190611ca1565b60405180910390f35b34801561050457600080fd5b5061051f600480360381019061051a91906118d1565b611511565b60405161052c919061164f565b60405180910390f35b34801561054157600080fd5b5061054a611535565b604051610557919061164f565b60405180910390f35b34801561056c57600080fd5b50610587600480360381019061058291906119e5565b61153b565b604051610598959493929190611ab3565b60405180910390f35b6000600780549050905090565b6000600960003373ffffffffffffffffffffffffffffffffffffffff1673ffffffffffffffffffffffffffffffffffffffff168152602001908152602001600020905060006040518060a0016040528060025481526020018673ffffffffffffffffffffffffffffffffffffffff168152602001878152602001858152602001848152509050818190806001815401808255809150506001900390600052602060002090600502016000909190919091506000820151816000015560208201518160010160006101000a81548173ffffffffffffffffffffffffffffffffffffffff021916908373ffffffffffffffffffffffffffffffffffffffff16021790555060408201518160020190816106c59190611f5b565b5060608201518160030155608082015181600401555050600460025490806001815401808255809150506001900390600052602060002001600090919091909150556002600081548092919061071a9061205c565b9190505550505050505050565b6005818154811061073757600080fd5b906000526020600020016000915090505481565b604051806080016040528060005481526020013373ffffffffffffffffffffffffffffffffffffffff16815260200183815260200182815250600a6000805481526020019081526020016000206000820151816000015560208201518160010160006101000a81548173ffffffffffffffffffffffffffffffffffffffff021916908373ffffffffffffffffffffffffffffffffffffffff16021790555060408201518160020190816107fe9190611f5b565b5060608201518160030190816108149190611f5b565b50905050600560005490806001815401808255809150506001900390600052602060002001600090919091909150556001600860003373ffffffffffffffffffffffffffffffffffffffff1673ffffffffffffffffffffffffffffffffffffffff16815260200190815260200160002060006101000a81548160ff0219169083151502179055503373ffffffffffffffffffffffffffffffffffffffff166000547f49bd2bcb8cdba3921e4541d10b502b8bbe9896d409600bd38672815a7f17b3f884846040516108e69291906120a4565b60405180910390a36000808154809291906109009061205c565b91905055505050565b6040518060c0016040528060015481526020018481526020018281526020018381526020013373ffffffffffffffffffffffffffffffffffffffff1681526020016000600281111561095e5761095d611b2e565b5b815250600b600060015481526020019081526020016000206000820151816000015560208201518160010190816109959190611f5b565b50604082015181600201556060820151816003015560808201518160040160006101000a81548173ffffffffffffffffffffffffffffffffffffffff021916908373ffffffffffffffffffffffffffffffffffffffff16021790555060a08201518160040160146101000a81548160ff02191690836002811115610a1c57610a1b611b2e565b5b02179055509050506007604051806080016040528060015481526020018581526020013373ffffffffffffffffffffffffffffffffffffffff168152602001848152509080600181540180825580915050600190039060005260206000209060040201600090919091909150600082015181600001556020820151816001019081610aa79190611f5b565b5060408201518160020160006101000a81548173ffffffffffffffffffffffffffffffffffffffff021916908373ffffffffffffffffffffffffffffffffffffffff16021790555060608201518160030155505060036001549080600181540180825580915050600190039060005260206000200160009091909190915055600660015490806001815401808255809150506001900390600052602060002001600090919091909150556001547f94808eab22f2bf0aed38da9bb0175509c5a41b019fe437b574c2ba0a37d2765b843385604051610b87939291906120db565b60405180910390a26001547fec5bde1bc692127bea3dfc73f1246d9ce2e3ffe9e0a13f261b281e87fedabe4a84838533604051610bc79493929190612119565b60405180910390a260016000815480929190610be29061205c565b9190505550505050565b60008060606000806000600960008973ffffffffffffffffffffffffffffffffffffffff1673ffffffffffffffffffffffffffffffffffffffff1681526020019081526020016000208781548110610c4757610c46612165565b5b90600052602060002090600502016040518060a0016040529081600082015481526020016001820160009054906101000a900473ffffffffffffffffffffffffffffffffffffffff1673ffffffffffffffffffffffffffffffffffffffff1673ffffffffffffffffffffffffffffffffffffffff168152602001600282018054610cd090611d7e565b80601f0160208091040260200160405190810160405280929190818152602001828054610cfc90611d7e565b8015610d495780601f10610d1e57610100808354040283529160200191610d49565b820191906000526020600020905b815481529060010190602001808311610d2c57829003601f168201915b505050505081526020016003820154815260200160048201548152505090508060000151816020015182604001518360600151846080015195509550955095509550509295509295909350565b60048181548110610da657600080fd5b906000526020600020016000915090505481565b600b602052806000526040600020600091509050806000015490806001018054610de390611d7e565b80601f0160208091040260200160405190810160405280929190818152602001828054610e0f90611d7e565b8015610e5c5780601f10610e3157610100808354040283529160200191610e5c565b820191906000526020600020905b815481529060010190602001808311610e3f57829003601f168201915b5050505050908060020154908060030154908060040160009054906101000a900473ffffffffffffffffffffffffffffffffffffffff16908060040160149054906101000a900460ff16905086565b60006060600080600060078681548110610ec857610ec7612165565b5b906000526020600020906004020160405180608001604052908160008201548152602001600182018054610efb90611d7e565b80601f0160208091040260200160405190810160405280929190818152602001828054610f2790611d7e565b8015610f745780601f10610f4957610100808354040283529160200191610f74565b820191906000526020600020905b815481529060010190602001808311610f5757829003601f168201915b505050505081526020016002820160009054906101000a900473ffffffffffffffffffffffffffffffffffffffff1673ffffffffffffffffffffffffffffffffffffffff1673ffffffffffffffffffffffffffffffffffffffff168152602001600382015481525050905080600001518160200151826040015183606001519450945094509450509193509193565b60025481565b6007818154811061101957600080fd5b906000526020600020906004020160009150905080600001549080600101805461104290611d7e565b80601f016020809104026020016040519081016040528092919081815260200182805461106e90611d7e565b80156110bb5780601f10611090576101008083540402835291602001916110bb565b820191906000526020600020905b81548152906001019060200180831161109e57829003601f168201915b5050505050908060020160009054906101000a900473ffffffffffffffffffffffffffffffffffffffff16908060030154905084565b60005481565b60086020528060005260406000206000915054906101000a900460ff1681565b600a6020528060005260406000206000915090508060000154908060010160009054906101000a900473ffffffffffffffffffffffffffffffffffffffff169080600201805461116690611d7e565b80601f016020809104026020016040519081016040528092919081815260200182805461119290611d7e565b80156111df5780601f106111b4576101008083540402835291602001916111df565b820191906000526020600020905b8154815290600101906020018083116111c257829003601f168201915b5050505050908060030180546111f490611d7e565b80601f016020809104026020016040519081016040528092919081815260200182805461122090611d7e565b801561126d5780601f106112425761010080835404028352916020019161126d565b820191906000526020600020905b81548152906001019060200180831161125057829003601f168201915b5050505050905084565b6000600b60008481526020019081526020016000209050600082116112d1576040517f08c379a00000000000000000000000000000000000000000000000000000000081526004016112c8906121e0565b60405180910390fd5b8181600201541015611318576040517f08c379a000000000000000000000000000000000000000000000000000000000815260040161130f9061224c565b60405180910390fd5b600082826003015461132a919061226c565b905080341461136e576040517f08c379a0000000000000000000000000000000000000000000000000000000008152600401611365906122fa565b60405180910390fd5b82826002016000828254611382919061231a565b925050819055508160040160009054906101000a900473ffffffffffffffffffffffffffffffffffffffff1673ffffffffffffffffffffffffffffffffffffffff166108fc349081150290604051600060405180830381858888f193505050501580156113f3573d6000803e3d6000fd5b503373ffffffffffffffffffffffffffffffffffffffff16847f0a4352b1d4903ed52cfab309159e5f76ba15237a9c58444bb4b875a873c713f5853460405161143d92919061234e565b60405180910390a350505050565b6006818154811061145b57600080fd5b906000526020600020016000915090505481565b6000600960008373ffffffffffffffffffffffffffffffffffffffff1673ffffffffffffffffffffffffffffffffffffffff168152602001908152602001600020805490509050919050565b6000600860008373ffffffffffffffffffffffffffffffffffffffff1673ffffffffffffffffffffffffffffffffffffffff16815260200190815260200160002060009054906101000a900460ff169050919050565b6003818154811061152157600080fd5b906000526020600020016000915090505481565b60015481565b6009602052816000526040600020818154811061155757600080fd5b9060005260206000209060050201600091509150508060000154908060010160009054906101000a900473ffffffffffffffffffffffffffffffffffffffff16908060020180546115a790611d7e565b80601f01602080910402602001604051908101604052809291908181526020018280546115d390611d7e565b80156116205780601f106115f557610100808354040283529160200191611620565b820191906000526020600020905b81548152906001019060200180831161160357829003601f168201915b5050505050908060030154908060040154905085565b6000819050919050565b61164981611636565b82525050565b60006020820190506116646000830184611640565b92915050565b6000604051905090565b600080fd5b600080fd5b600080fd5b600080fd5b6000601f19601f8301169050919050565b7f4e487b7100000000000000000000000000000000000000000000000000000000600052604160045260246000fd5b6116d182611688565b810181811067ffffffffffffffff821117156116f0576116ef611699565b5b80604052505050565b600061170361166a565b905061170f82826116c8565b919050565b600067ffffffffffffffff82111561172f5761172e611699565b5b61173882611688565b9050602081019050919050565b82818337600083830152505050565b600061176761176284611714565b6116f9565b90508281526020810184848401111561178357611782611683565b5b61178e848285611745565b509392505050565b600082601f8301126117ab576117aa61167e565b5b81356117bb848260208601611754565b91505092915050565b600073ffffffffffffffffffffffffffffffffffffffff82169050919050565b60006117ef826117c4565b9050919050565b6117ff816117e4565b811461180a57600080fd5b50565b60008135905061181c816117f6565b92915050565b61182b81611636565b811461183657600080fd5b50565b60008135905061184881611822565b92915050565b6000806000806080858703121561186857611867611674565b5b600085013567ffffffffffffffff81111561188657611885611679565b5b61189287828801611796565b94505060206118a38782880161180d565b93505060406118b487828801611839565b92505060606118c587828801611839565b91505092959194509250565b6000602082840312156118e7576118e6611674565b5b60006118f584828501611839565b91505092915050565b6000806040838503121561191557611914611674565b5b600083013567ffffffffffffffff81111561193357611932611679565b5b61193f85828601611796565b925050602083013567ffffffffffffffff8111156119605761195f611679565b5b61196c85828601611796565b9150509250929050565b60008060006060848603121561198f5761198e611674565b5b600084013567ffffffffffffffff8111156119ad576119ac611679565b5b6119b986828701611796565b93505060206119ca86828701611839565b92505060406119db86828701611839565b9150509250925092565b600080604083850312156119fc576119fb611674565b5b6000611a0a8582860161180d565b9250506020611a1b85828601611839565b9150509250929050565b611a2e816117e4565b82525050565b600081519050919050565b600082825260208201905092915050565b60005b83811015611a6e578082015181840152602081019050611a53565b60008484015250505050565b6000611a8582611a34565b611a8f8185611a3f565b9350611a9f818560208601611a50565b611aa881611688565b840191505092915050565b600060a082019050611ac86000830188611640565b611ad56020830187611a25565b8181036040830152611ae78186611a7a565b9050611af66060830185611640565b611b036080830184611640565b9695505050505050565b6000611b18826117c4565b9050919050565b611b2881611b0d565b82525050565b7f4e487b7100000000000000000000000000000000000000000000000000000000600052602160045260246000fd5b60038110611b6e57611b6d611b2e565b5b50565b6000819050611b7f82611b5d565b919050565b6000611b8f82611b71565b9050919050565b611b9f81611b84565b82525050565b600060c082019050611bba6000830189611640565b8181036020830152611bcc8188611a7a565b9050611bdb6040830187611640565b611be86060830186611640565b611bf56080830185611b1f565b611c0260a0830184611b96565b979650505050505050565b6000608082019050611c226000830187611640565b8181036020830152611c348186611a7a565b9050611c436040830185611a25565b611c506060830184611640565b95945050505050565b600060208284031215611c6f57611c6e611674565b5b6000611c7d8482850161180d565b91505092915050565b60008115159050919050565b611c9b81611c86565b82525050565b6000602082019050611cb66000830184611c92565b92915050565b6000608082019050611cd16000830187611640565b611cde6020830186611a25565b8181036040830152611cf08185611a7a565b90508181036060830152611d048184611a7a565b905095945050505050565b60008060408385031215611d2657611d25611674565b5b6000611d3485828601611839565b9250506020611d4585828601611839565b9150509250929050565b7f4e487b7100000000000000000000000000000000000000000000000000000000600052602260045260246000fd5b60006002820490506001821680611d9657607f821691505b602082108103611da957611da8611d4f565b5b50919050565b60008190508160005260206000209050919050565b60006020601f8301049050919050565b600082821b905092915050565b600060088302611e117fffffffffffffffffffffffffffffffffffffffffffffffffffffffffffffffff82611dd4565b611e1b8683611dd4565b95508019841693508086168417925050509392505050565b6000819050919050565b6000611e58611e53611e4e84611636565b611e33565b611636565b9050919050565b6000819050919050565b611e7283611e3d565b611e86611e7e82611e5f565b848454611de1565b825550505050565b600090565b611e9b611e8e565b611ea6818484611e69565b505050565b5b81811015611eca57611ebf600082611e93565b600181019050611eac565b5050565b601f821115611f0f57611ee081611daf565b611ee984611dc4565b81016020851015611ef8578190505b611f0c611f0485611dc4565b830182611eab565b50505b505050565b600082821c905092915050565b6000611f3260001984600802611f14565b1980831691505092915050565b6000611f4b8383611f21565b9150826002028217905092915050565b611f6482611a34565b67ffffffffffffffff811115611f7d57611f7c611699565b5b611f878254611d7e565b611f92828285611ece565b600060209050601f831160018114611fc55760008415611fb3578287015190505b611fbd8582611f3f565b865550612025565b601f198416611fd386611daf565b60005b82811015611ffb57848901518255600182019150602085019450602081019050611fd6565b868310156120185784890151612014601f891682611f21565b8355505b6001600288020188555050505b505050505050565b7f4e487b7100000000000000000000000000000000000000000000000000000000600052601160045260246000fd5b600061206782611636565b91507fffffffffffffffffffffffffffffffffffffffffffffffffffffffffffffffff82036120995761209861202d565b5b600182019050919050565b600060408201905081810360008301526120be8185611a7a565b905081810360208301526120d28184611a7a565b90509392505050565b600060608201905081810360008301526120f58186611a7a565b90506121046020830185611a25565b6121116040830184611640565b949350505050565b600060808201905081810360008301526121338187611a7a565b90506121426020830186611640565b61214f6040830185611640565b61215c6060830184611a25565b95945050505050565b7f4e487b7100000000000000000000000000000000000000000000000000000000600052603260045260246000fd5b7f596f75206d75737420627579206174206c65617374203120756e697400000000600082015250565b60006121ca601c83611a3f565b91506121d582612194565b602082019050919050565b600060208201905081810360008301526121f9816121bd565b9050919050565b7f4e6f7420656e6f756768207175616e7469747920617661696c61626c65000000600082015250565b6000612236601d83611a3f565b915061224182612200565b602082019050919050565b6000602082019050818103600083015261226581612229565b9050919050565b600061227782611636565b915061228283611636565b925082820261229081611636565b915082820484148315176122a7576122a661202d565b5b5092915050565b7f496e636f7272656374204554482073656e740000000000000000000000000000600082015250565b60006122e4601283611a3f565b91506122ef826122ae565b602082019050919050565b60006020820190508181036000830152612313816122d7565b9050919050565b600061232582611636565b915061233083611636565b92508282039050818111156123485761234761202d565b5b92915050565b60006040820190506123636000830185611640565b6123706020830184611640565b939250505056fea2646970667358221220a51a7ad0f0599aa218352f89d0a748fd403f5446642a909aed1fbcf2756c0f5c64736f6c634300081c0033",
  "linkReferences": {},
  "deployedLinkReferences": {}
}