{
  "_format": "hh-sol-artifact-1",
  "contractName": "AgricTech",
  "sourceName": "contracts/agric-tech.sol",
  "abi": [
    {
      "anonymous": false,
      "inputs": [
        {
          "indexed": true,
          "internalType": "uint256",
          "name": "cropId",
          "type": "uint256"
        },
        {
          "indexed": true,
          "internalType": "address",
          "name": "buyer",
          "type": "address"
        },
        {
          "indexed": false,
          "internalType": "uint256",
          "name": "quantity",
          "type": "uint256"
        },
        {
          "indexed": false,
          "internalType": "uint256",
          "name": "price",
          "type": "uint256"
        }
      ],
      "name": "CropPurchased",
      "type": "event"
    },
    {
      "anonymous": false,
      "inputs": [
        {
          "indexed": true,
          "internalType": "uint256",
          "name": "cropId",
          "type": "uint256"
        },
        {
          "indexed": false,
          "internalType": "string",
          "name": "name",
          "type": "string"
        },
        {
          "indexed": false,
          "internalType": "uint256",
          "name": "quantity",
          "type": "uint256"
        },
        {
          "indexed": false,
          "internalType": "uint256",
          "name": "pricePerUnit",
          "type": "uint256"
        },
        {
          "indexed": false,
          "internalType": "address",
          "name": "cropOwner",
          "type": "address"
        }
      ],
      "name": "CropUploaded",
      "type": "event"
    },
    {
      "anonymous": false,
      "inputs": [
        {
          "indexed": true,
          "internalType": "uint256",
          "name": "farmerId",
          "type": "uint256"
        },
        {
          "indexed": true,
          "internalType": "address",
          "name": "farmerAddress",
          "type": "address"
        },
        {
          "indexed": false,
          "internalType": "string",
          "name": "name",
          "type": "string"
        },
        {
          "indexed": false,
          "internalType": "string",
          "name": "location",
          "type": "string"
        }
      ],
      "name": "FarmerRegistered",
      "type": "event"
    },
    {
      "inputs": [
        {
          "internalType": "uint256",
          "name": "_cropId",
          "type": "uint256"
        },
        {
          "internalType": "uint256",
          "name": "quantityToBuy",
          "type": "uint256"
        }
      ],
      "name": "buyCrop",
      "outputs": [],
      "stateMutability": "payable",
      "type": "function"
    },
    {
      "inputs": [
        {
          "internalType": "uint256",
          "name": "",
          "type": "uint256"
        }
      ],
      "name": "cropId",
      "outputs": [
        {
          "internalType": "uint256",
          "name": "",
          "type": "uint256"
        }
      ],
      "stateMutability": "view",
      "type": "function"
    },
    {
      "inputs": [
        {
          "internalType": "uint256",
          "name": "",
          "type": "uint256"
        }
      ],
      "name": "crops",
      "outputs": [
        {
          "internalType": "uint256",
          "name": "id",
          "type": "uint256"
        },
        {
          "internalType": "string",
          "name": "name",
          "type": "string"
        },
        {
          "internalType": "uint256",
          "name": "quantity",
          "type": "uint256"
        },
        {
          "internalType": "uint256",
          "name": "pricePerUnit",
          "type": "uint256"
        },
        {
          "internalType": "address payable",
          "name": "cropOwner",
          "type": "address"
        },
        {
          "internalType": "enum AgricTech.Status",
          "name": "cropStatus",
          "type": "uint8"
        }
      ],
      "stateMutability": "view",
      "type": "function"
    },
    {
      "inputs": [
        {
          "internalType": "uint256",
          "name": "",
          "type": "uint256"
        }
      ],
      "name": "farmerId",
      "outputs": [
        {
          "internalType": "uint256",
          "name": "",
          "type": "uint256"
        }
      ],
      "stateMutability": "view",
      "type": "function"
    },
    {
      "inputs": [
        {
          "internalType": "uint256",
          "name": "",
          "type": "uint256"
        }
      ],
      "name": "farmers",
      "outputs": [
        {
          "internalType": "uint256",
          "name": "id",
          "type": "uint256"
        },
        {
          "internalType": "address",
          "name": "farmerAddress",
          "type": "address"
        },
        {
          "internalType": "string",
          "name": "name",
          "type": "string"
        },
        {
          "internalType": "string",
          "name": "location",
          "type": "string"
        }
      ],
      "stateMutability": "view",
      "type": "function"
    },
    {
      "inputs": [
        {
          "internalType": "address",
          "name": "_farmerAddress",
          "type": "address"
        }
      ],
      "name": "getSupply",
      "outputs": [
        {
          "components": [
            {
              "internalType": "uint256",
              "name": "id",
              "type": "uint256"
            },
            {
              "internalType": "address",
              "name": "customerAddress",
              "type": "address"
            },
            {
              "internalType": "string",
              "name": "nameOfProduct",
              "type": "string"
            },
            {
              "internalType": "uint256",
              "name": "quantity",
              "type": "uint256"
            },
            {
              "internalType": "uint256",
              "name": "totalCost",
              "type": "uint256"
            }
          ],
          "internalType": "struct AgricTech.Supply[]",
          "name": "",
          "type": "tuple[]"
        }
      ],
      "stateMutability": "view",
      "type": "function"
    },
    {
      "inputs": [
        {
          "internalType": "address",
          "name": "_address",
          "type": "address"
        }
      ],
      "name": "isRegistered",
      "outputs": [
        {
          "internalType": "bool",
          "name": "",
          "type": "bool"
        }
      ],
      "stateMutability": "view",
      "type": "function"
    },
    {
      "inputs": [],
      "name": "nextCropId",
      "outputs": [
        {
          "internalType": "uint256",
          "name": "",
          "type": "uint256"
        }
      ],
      "stateMutability": "view",
      "type": "function"
    },
    {
      "inputs": [],
      "name": "nextFarmerId",
      "outputs": [
        {
          "internalType": "uint256",
          "name": "",
          "type": "uint256"
        }
      ],
      "stateMutability": "view",
      "type": "function"
    },
    {
      "inputs": [],
      "name": "nextSupplyId",
      "outputs": [
        {
          "internalType": "uint256",
          "name": "",
          "type": "uint256"
        }
      ],
      "stateMutability": "view",
      "type": "function"
    },
    {
      "inputs": [
        {
          "internalType": "string",
          "name": "_nameOfProduct",
          "type": "string"
        },
        {
          "internalType": "address",
          "name": "_customerAddress",
          "type": "address"
        },
        {
          "internalType": "uint256",
          "name": "_quantity",
          "type": "uint256"
        },
        {
          "internalType": "uint256",
          "name": "_totalCost",
          "type": "uint256"
        }
      ],
      "name": "recordSupply",
      "outputs": [],
      "stateMutability": "nonpayable",
      "type": "function"
    },
    {
      "inputs": [
        {
          "internalType": "string",
          "name": "_name",
          "type": "string"
        },
        {
          "internalType": "string",
          "name": "_location",
          "type": "string"
        }
      ],
      "name": "registerFarmer",
      "outputs": [],
      "stateMutability": "nonpayable",
      "type": "function"
    },
    {
      "inputs": [
        {
          "internalType": "address",
          "name": "",
          "type": "address"
        }
      ],
      "name": "registeredFarmers",
      "outputs": [
        {
          "internalType": "bool",
          "name": "",
          "type": "bool"
        }
      ],
      "stateMutability": "view",
      "type": "function"
    },
    {
      "inputs": [
        {
          "internalType": "address",
          "name": "",
          "type": "address"
        },
        {
          "internalType": "uint256",
          "name": "",
          "type": "uint256"
        }
      ],
      "name": "supplies",
      "outputs": [
        {
          "internalType": "uint256",
          "name": "id",
          "type": "uint256"
        },
        {
          "internalType": "address",
          "name": "customerAddress",
          "type": "address"
        },
        {
          "internalType": "string",
          "name": "nameOfProduct",
          "type": "string"
        },
        {
          "internalType": "uint256",
          "name": "quantity",
          "type": "uint256"
        },
        {
          "internalType": "uint256",
          "name": "totalCost",
          "type": "uint256"
        }
      ],
      "stateMutability": "view",
      "type": "function"
    },
    {
      "inputs": [
        {
          "internalType": "uint256",
          "name": "",
          "type": "uint256"
        }
      ],
      "name": "supplyId",
      "outputs": [
        {
          "internalType": "uint256",
          "name": "",
          "type": "uint256"
        }
      ],
      "stateMutability": "view",
      "type": "function"
    },
    {
      "inputs": [
        {
          "internalType": "string",
          "name": "_name",
          "type": "string"
        },
        {
          "internalType": "uint256",
          "name": "_pricePerUnit",
          "type": "uint256"
        },
        {
          "internalType": "uint256",
          "name": "_quantity",
          "type": "uint256"
        }
      ],
      "name": "uploadCrop",
      "outputs": [],
      "stateMutability": "nonpayable",
      "type": "function"
    }
  ],
  "bytecode": "0x6080604052348015600f57600080fd5b50611f538061001f6000396000f3fe6080604052600436106100f35760003560e01c806382d08e6a1161008a578063c3c5a54711610059578063c3c5a5471461035b578063e47f276514610398578063f41cc397146103d5578063fa54814814610400576100f3565b806382d08e6a1461029757806383c5b0aa146102c25780638afdd669146102ff578063a086dd881461033f576100f3565b80633a1377ad116100c65780633a1377ad146101c45780636dc47473146101ed57806370c9f1a51461022a57806379696b451461026c576100f3565b80631fd433aa146100f857806327457eab146101355780632d37f11c1461015e578063314596b21461019b575b600080fd5b34801561010457600080fd5b5061011f600480360381019061011a9190611145565b610441565b60405161012c9190611362565b60405180910390f35b34801561014157600080fd5b5061015c600480360381019061015791906114e5565b6105e5565b005b34801561016a57600080fd5b5061018560048036038101906101809190611568565b61075e565b60405161019291906115a4565b60405180910390f35b3480156101a757600080fd5b506101c260048036038101906101bd91906115bf565b610782565b005b3480156101d057600080fd5b506101eb60048036038101906101e69190611637565b610940565b005b3480156101f957600080fd5b50610214600480360381019061020f9190611568565b610ae3565b60405161022191906115a4565b60405180910390f35b34801561023657600080fd5b50610251600480360381019061024c9190611568565b610b07565b60405161026396959493929190611788565b60405180910390f35b34801561027857600080fd5b50610281610bf8565b60405161028e91906115a4565b60405180910390f35b3480156102a357600080fd5b506102ac610bfe565b6040516102b991906115a4565b60405180910390f35b3480156102ce57600080fd5b506102e960048036038101906102e49190611145565b610c04565b6040516102f6919061180b565b60405180910390f35b34801561030b57600080fd5b5061032660048036038101906103219190611568565b610c24565b6040516103369493929190611835565b60405180910390f35b61035960048036038101906103549190611888565b610d84565b005b34801561036757600080fd5b50610382600480360381019061037d9190611145565b610f58565b60405161038f919061180b565b60405180910390f35b3480156103a457600080fd5b506103bf60048036038101906103ba9190611568565b610fae565b6040516103cc91906115a4565b60405180910390f35b3480156103e157600080fd5b506103ea610fd2565b6040516103f791906115a4565b60405180910390f35b34801561040c57600080fd5b50610427600480360381019061042291906118c8565b610fd8565b604051610438959493929190611908565b60405180910390f35b6060600760008373ffffffffffffffffffffffffffffffffffffffff1673ffffffffffffffffffffffffffffffffffffffff168152602001908152602001600020805480602002602001604051908101604052809291908181526020016000905b828210156105da57838290600052602060002090600502016040518060a0016040529081600082015481526020016001820160009054906101000a900473ffffffffffffffffffffffffffffffffffffffff1673ffffffffffffffffffffffffffffffffffffffff1673ffffffffffffffffffffffffffffffffffffffff16815260200160028201805461053590611991565b80601f016020809104026020016040519081016040528092919081815260200182805461056190611991565b80156105ae5780601f10610583576101008083540402835291602001916105ae565b820191906000526020600020905b81548152906001019060200180831161059157829003601f168201915b5050505050815260200160038201548152602001600482015481525050815260200190600101906104a2565b505050509050919050565b6000600760003373ffffffffffffffffffffffffffffffffffffffff1673ffffffffffffffffffffffffffffffffffffffff168152602001908152602001600020905060006040518060a0016040528060025481526020018673ffffffffffffffffffffffffffffffffffffffff168152602001878152602001858152602001848152509050818190806001815401808255809150506001900390600052602060002090600502016000909190919091506000820151816000015560208201518160010160006101000a81548173ffffffffffffffffffffffffffffffffffffffff021916908373ffffffffffffffffffffffffffffffffffffffff16021790555060408201518160020190816106fc9190611b6e565b5060608201518160030155608082015181600401555050600460025490806001815401808255809150506001900390600052602060002001600090919091909150556002600081548092919061075190611c6f565b9190505550505050505050565b6005818154811061076e57600080fd5b906000526020600020016000915090505481565b604051806080016040528060005481526020013373ffffffffffffffffffffffffffffffffffffffff1681526020018381526020018281525060086000805481526020019081526020016000206000820151816000015560208201518160010160006101000a81548173ffffffffffffffffffffffffffffffffffffffff021916908373ffffffffffffffffffffffffffffffffffffffff16021790555060408201518160020190816108359190611b6e565b50606082015181600301908161084b9190611b6e565b50905050600560005490806001815401808255809150506001900390600052602060002001600090919091909150556001600660003373ffffffffffffffffffffffffffffffffffffffff1673ffffffffffffffffffffffffffffffffffffffff16815260200190815260200160002060006101000a81548160ff0219169083151502179055503373ffffffffffffffffffffffffffffffffffffffff166000547f49bd2bcb8cdba3921e4541d10b502b8bbe9896d409600bd38672815a7f17b3f8848460405161091d929190611cb7565b60405180910390a360008081548092919061093790611c6f565b91905055505050565b6040518060c0016040528060015481526020018481526020018281526020018381526020013373ffffffffffffffffffffffffffffffffffffffff1681526020016000600281111561099557610994611711565b5b8152506009600060015481526020019081526020016000206000820151816000015560208201518160010190816109cc9190611b6e565b50604082015181600201556060820151816003015560808201518160040160006101000a81548173ffffffffffffffffffffffffffffffffffffffff021916908373ffffffffffffffffffffffffffffffffffffffff16021790555060a08201518160040160146101000a81548160ff02191690836002811115610a5357610a52611711565b5b0217905550905050600360015490806001815401808255809150506001900390600052602060002001600090919091909150556001547fec5bde1bc692127bea3dfc73f1246d9ce2e3ffe9e0a13f261b281e87fedabe4a84838533604051610abe9493929190611cee565b60405180910390a260016000815480929190610ad990611c6f565b9190505550505050565b60048181548110610af357600080fd5b906000526020600020016000915090505481565b6009602052806000526040600020600091509050806000015490806001018054610b3090611991565b80601f0160208091040260200160405190810160405280929190818152602001828054610b5c90611991565b8015610ba95780601f10610b7e57610100808354040283529160200191610ba9565b820191906000526020600020905b815481529060010190602001808311610b8c57829003601f168201915b5050505050908060020154908060030154908060040160009054906101000a900473ffffffffffffffffffffffffffffffffffffffff16908060040160149054906101000a900460ff16905086565b60025481565b60005481565b60066020528060005260406000206000915054906101000a900460ff1681565b60086020528060005260406000206000915090508060000154908060010160009054906101000a900473ffffffffffffffffffffffffffffffffffffffff1690806002018054610c7390611991565b80601f0160208091040260200160405190810160405280929190818152602001828054610c9f90611991565b8015610cec5780601f10610cc157610100808354040283529160200191610cec565b820191906000526020600020905b815481529060010190602001808311610ccf57829003601f168201915b505050505090806003018054610d0190611991565b80601f0160208091040260200160405190810160405280929190818152602001828054610d2d90611991565b8015610d7a5780601f10610d4f57610100808354040283529160200191610d7a565b820191906000526020600020905b815481529060010190602001808311610d5d57829003601f168201915b5050505050905084565b600060096000848152602001908152602001600020905060008211610dde576040517f08c379a0000000000000000000000000000000000000000000000000000000008152600401610dd590611d86565b60405180910390fd5b8181600201541015610e25576040517f08c379a0000000000000000000000000000000000000000000000000000000008152600401610e1c90611df2565b60405180910390fd5b6000828260030154610e379190611e12565b9050803414610e7b576040517f08c379a0000000000000000000000000000000000000000000000000000000008152600401610e7290611ea0565b60405180910390fd5b82826002016000828254610e8f9190611ec0565b925050819055508160040160009054906101000a900473ffffffffffffffffffffffffffffffffffffffff1673ffffffffffffffffffffffffffffffffffffffff166108fc349081150290604051600060405180830381858888f19350505050158015610f00573d6000803e3d6000fd5b503373ffffffffffffffffffffffffffffffffffffffff16847f0a4352b1d4903ed52cfab309159e5f76ba15237a9c58444bb4b875a873c713f58534604051610f4a929190611ef4565b60405180910390a350505050565b6000600660008373ffffffffffffffffffffffffffffffffffffffff1673ffffffffffffffffffffffffffffffffffffffff16815260200190815260200160002060009054906101000a900460ff169050919050565b60038181548110610fbe57600080fd5b906000526020600020016000915090505481565b60015481565b60076020528160005260406000208181548110610ff457600080fd5b9060005260206000209060050201600091509150508060000154908060010160009054906101000a900473ffffffffffffffffffffffffffffffffffffffff169080600201805461104490611991565b80601f016020809104026020016040519081016040528092919081815260200182805461107090611991565b80156110bd5780601f10611092576101008083540402835291602001916110bd565b820191906000526020600020905b8154815290600101906020018083116110a057829003601f168201915b5050505050908060030154908060040154905085565b6000604051905090565b600080fd5b600080fd5b600073ffffffffffffffffffffffffffffffffffffffff82169050919050565b6000611112826110e7565b9050919050565b61112281611107565b811461112d57600080fd5b50565b60008135905061113f81611119565b92915050565b60006020828403121561115b5761115a6110dd565b5b600061116984828501611130565b91505092915050565b600081519050919050565b600082825260208201905092915050565b6000819050602082019050919050565b6000819050919050565b6111b18161119e565b82525050565b6111c081611107565b82525050565b600081519050919050565b600082825260208201905092915050565b60005b838110156112005780820151818401526020810190506111e5565b60008484015250505050565b6000601f19601f8301169050919050565b6000611228826111c6565b61123281856111d1565b93506112428185602086016111e2565b61124b8161120c565b840191505092915050565b600060a08301600083015161126e60008601826111a8565b50602083015161128160208601826111b7565b5060408301518482036040860152611299828261121d565b91505060608301516112ae60608601826111a8565b5060808301516112c160808601826111a8565b508091505092915050565b60006112d88383611256565b905092915050565b6000602082019050919050565b60006112f882611172565b611302818561117d565b9350836020820285016113148561118e565b8060005b85811015611350578484038952815161133185826112cc565b945061133c836112e0565b925060208a01995050600181019050611318565b50829750879550505050505092915050565b6000602082019050818103600083015261137c81846112ed565b905092915050565b600080fd5b600080fd5b7f4e487b7100000000000000000000000000000000000000000000000000000000600052604160045260246000fd5b6113c68261120c565b810181811067ffffffffffffffff821117156113e5576113e461138e565b5b80604052505050565b60006113f86110d3565b905061140482826113bd565b919050565b600067ffffffffffffffff8211156114245761142361138e565b5b61142d8261120c565b9050602081019050919050565b82818337600083830152505050565b600061145c61145784611409565b6113ee565b90508281526020810184848401111561147857611477611389565b5b61148384828561143a565b509392505050565b600082601f8301126114a05761149f611384565b5b81356114b0848260208601611449565b91505092915050565b6114c28161119e565b81146114cd57600080fd5b50565b6000813590506114df816114b9565b92915050565b600080600080608085870312156114ff576114fe6110dd565b5b600085013567ffffffffffffffff81111561151d5761151c6110e2565b5b6115298782880161148b565b945050602061153a87828801611130565b935050604061154b878288016114d0565b925050606061155c878288016114d0565b91505092959194509250565b60006020828403121561157e5761157d6110dd565b5b600061158c848285016114d0565b91505092915050565b61159e8161119e565b82525050565b60006020820190506115b96000830184611595565b92915050565b600080604083850312156115d6576115d56110dd565b5b600083013567ffffffffffffffff8111156115f4576115f36110e2565b5b6116008582860161148b565b925050602083013567ffffffffffffffff811115611621576116206110e2565b5b61162d8582860161148b565b9150509250929050565b6000806000606084860312156116505761164f6110dd565b5b600084013567ffffffffffffffff81111561166e5761166d6110e2565b5b61167a8682870161148b565b935050602061168b868287016114d0565b925050604061169c868287016114d0565b9150509250925092565b600082825260208201905092915050565b60006116c2826111c6565b6116cc81856116a6565b93506116dc8185602086016111e2565b6116e58161120c565b840191505092915050565b60006116fb826110e7565b9050919050565b61170b816116f0565b82525050565b7f4e487b7100000000000000000000000000000000000000000000000000000000600052602160045260246000fd5b6003811061175157611750611711565b5b50565b600081905061176282611740565b919050565b600061177282611754565b9050919050565b61178281611767565b82525050565b600060c08201905061179d6000830189611595565b81810360208301526117af81886116b7565b90506117be6040830187611595565b6117cb6060830186611595565b6117d86080830185611702565b6117e560a0830184611779565b979650505050505050565b60008115159050919050565b611805816117f0565b82525050565b600060208201905061182060008301846117fc565b92915050565b61182f81611107565b82525050565b600060808201905061184a6000830187611595565b6118576020830186611826565b818103604083015261186981856116b7565b9050818103606083015261187d81846116b7565b905095945050505050565b6000806040838503121561189f5761189e6110dd565b5b60006118ad858286016114d0565b92505060206118be858286016114d0565b9150509250929050565b600080604083850312156118df576118de6110dd565b5b60006118ed85828601611130565b92505060206118fe858286016114d0565b9150509250929050565b600060a08201905061191d6000830188611595565b61192a6020830187611826565b818103604083015261193c81866116b7565b905061194b6060830185611595565b6119586080830184611595565b9695505050505050565b7f4e487b7100000000000000000000000000000000000000000000000000000000600052602260045260246000fd5b600060028204905060018216806119a957607f821691505b6020821081036119bc576119bb611962565b5b50919050565b60008190508160005260206000209050919050565b60006020601f8301049050919050565b600082821b905092915050565b600060088302611a247fffffffffffffffffffffffffffffffffffffffffffffffffffffffffffffffff826119e7565b611a2e86836119e7565b95508019841693508086168417925050509392505050565b6000819050919050565b6000611a6b611a66611a618461119e565b611a46565b61119e565b9050919050565b6000819050919050565b611a8583611a50565b611a99611a9182611a72565b8484546119f4565b825550505050565b600090565b611aae611aa1565b611ab9818484611a7c565b505050565b5b81811015611add57611ad2600082611aa6565b600181019050611abf565b5050565b601f821115611b2257611af3816119c2565b611afc846119d7565b81016020851015611b0b578190505b611b1f611b17856119d7565b830182611abe565b50505b505050565b600082821c905092915050565b6000611b4560001984600802611b27565b1980831691505092915050565b6000611b5e8383611b34565b9150826002028217905092915050565b611b77826111c6565b67ffffffffffffffff811115611b9057611b8f61138e565b5b611b9a8254611991565b611ba5828285611ae1565b600060209050601f831160018114611bd85760008415611bc6578287015190505b611bd08582611b52565b865550611c38565b601f198416611be6866119c2565b60005b82811015611c0e57848901518255600182019150602085019450602081019050611be9565b86831015611c2b5784890151611c27601f891682611b34565b8355505b6001600288020188555050505b505050505050565b7f4e487b7100000000000000000000000000000000000000000000000000000000600052601160045260246000fd5b6000611c7a8261119e565b91507fffffffffffffffffffffffffffffffffffffffffffffffffffffffffffffffff8203611cac57611cab611c40565b5b600182019050919050565b60006040820190508181036000830152611cd181856116b7565b90508181036020830152611ce581846116b7565b90509392505050565b60006080820190508181036000830152611d0881876116b7565b9050611d176020830186611595565b611d246040830185611595565b611d316060830184611826565b95945050505050565b7f596f75206d75737420627579206174206c65617374203120756e697400000000600082015250565b6000611d70601c836116a6565b9150611d7b82611d3a565b602082019050919050565b60006020820190508181036000830152611d9f81611d63565b9050919050565b7f4e6f7420656e6f756768207175616e7469747920617661696c61626c65000000600082015250565b6000611ddc601d836116a6565b9150611de782611da6565b602082019050919050565b60006020820190508181036000830152611e0b81611dcf565b9050919050565b6000611e1d8261119e565b9150611e288361119e565b9250828202611e368161119e565b91508282048414831517611e4d57611e4c611c40565b5b5092915050565b7f496e636f7272656374204554482073656e740000000000000000000000000000600082015250565b6000611e8a6012836116a6565b9150611e9582611e54565b602082019050919050565b60006020820190508181036000830152611eb981611e7d565b9050919050565b6000611ecb8261119e565b9150611ed68361119e565b9250828203905081811115611eee57611eed611c40565b5b92915050565b6000604082019050611f096000830185611595565b611f166020830184611595565b939250505056fea26469706673582212201834d9aac243bd60d7490bff2e8c806c15a28345be2264793540196f2e7fefe364736f6c634300081c0033",
  "linkReferences": {},
  "deployedLinkReferences": {}
}