{
  "_format": "hh-sol-artifact-1",
  "contractName": "FarmToStoreTraceability",
  "sourceName": "contracts/agric-tech.sol",
  "abi": [
    {
      "inputs": [],
      "stateMutability": "nonpayable",
      "type": "constructor"
    },
    {
      "inputs": [
        {
          "internalType": "uint256",
          "name": "",
          "type": "uint256"
        }
      ],
      "name": "all_users",
      "outputs": [
        {
          "internalType": "address",
          "name": "",
          "type": "address"
        }
      ],
      "stateMutability": "view",
      "type": "function"
    },
    {
      "inputs": [
        {
          "internalType": "uint256",
          "name": "id",
          "type": "uint256"
        }
      ],
      "name": "approve_role",
      "outputs": [],
      "stateMutability": "nonpayable",
      "type": "function"
    },
    {
      "inputs": [
        {
          "internalType": "address",
          "name": "_address",
          "type": "address"
        }
      ],
      "name": "check_application_result",
      "outputs": [
        {
          "internalType": "bool",
          "name": "",
          "type": "bool"
        }
      ],
      "stateMutability": "view",
      "type": "function"
    },
    {
      "inputs": [
        {
          "internalType": "uint256",
          "name": "cropId",
          "type": "uint256"
        },
        {
          "internalType": "uint256",
          "name": "arrival_date",
          "type": "uint256"
        }
      ],
      "name": "confirmArrival",
      "outputs": [],
      "stateMutability": "nonpayable",
      "type": "function"
    },
    {
      "inputs": [],
      "name": "cropCount",
      "outputs": [
        {
          "internalType": "uint256",
          "name": "",
          "type": "uint256"
        }
      ],
      "stateMutability": "view",
      "type": "function"
    },
    {
      "inputs": [],
      "name": "crop_count",
      "outputs": [
        {
          "internalType": "uint256",
          "name": "",
          "type": "uint256"
        }
      ],
      "stateMutability": "view",
      "type": "function"
    },
    {
      "inputs": [
        {
          "internalType": "uint256",
          "name": "",
          "type": "uint256"
        }
      ],
      "name": "crops",
      "outputs": [
        {
          "internalType": "uint256",
          "name": "id",
          "type": "uint256"
        },
        {
          "internalType": "string",
          "name": "crop_id",
          "type": "string"
        },
        {
          "internalType": "string",
          "name": "name",
          "type": "string"
        },
        {
          "internalType": "uint256",
          "name": "quantity",
          "type": "uint256"
        },
        {
          "internalType": "uint256",
          "name": "price_per_unit",
          "type": "uint256"
        },
        {
          "internalType": "uint256",
          "name": "harvestDate",
          "type": "uint256"
        },
        {
          "internalType": "address",
          "name": "farmer",
          "type": "address"
        },
        {
          "internalType": "enum FarmToStoreTraceability.Crop_Status",
          "name": "status",
          "type": "uint8"
        }
      ],
      "stateMutability": "view",
      "type": "function"
    },
    {
      "inputs": [],
      "name": "deliveryCount",
      "outputs": [
        {
          "internalType": "uint256",
          "name": "",
          "type": "uint256"
        }
      ],
      "stateMutability": "view",
      "type": "function"
    },
    {
      "inputs": [
        {
          "internalType": "address",
          "name": "",
          "type": "address"
        },
        {
          "internalType": "uint256",
          "name": "",
          "type": "uint256"
        }
      ],
      "name": "farmer_history",
      "outputs": [
        {
          "internalType": "uint256",
          "name": "id",
          "type": "uint256"
        },
        {
          "internalType": "address",
          "name": "farmer",
          "type": "address"
        },
        {
          "internalType": "string",
          "name": "product_name",
          "type": "string"
        },
        {
          "internalType": "string",
          "name": "sent_to",
          "type": "string"
        },
        {
          "internalType": "address",
          "name": "store",
          "type": "address"
        },
        {
          "internalType": "string",
          "name": "through",
          "type": "string"
        },
        {
          "internalType": "address",
          "name": "transporter",
          "type": "address"
        },
        {
          "internalType": "uint256",
          "name": "date",
          "type": "uint256"
        }
      ],
      "stateMutability": "view",
      "type": "function"
    },
    {
      "inputs": [
        {
          "internalType": "uint256",
          "name": "",
          "type": "uint256"
        }
      ],
      "name": "farmers",
      "outputs": [
        {
          "internalType": "address",
          "name": "",
          "type": "address"
        }
      ],
      "stateMutability": "view",
      "type": "function"
    },
    {
      "inputs": [],
      "name": "get_all_users_count",
      "outputs": [
        {
          "internalType": "uint256",
          "name": "",
          "type": "uint256"
        }
      ],
      "stateMutability": "view",
      "type": "function"
    },
    {
      "inputs": [
        {
          "internalType": "uint256",
          "name": "cropId",
          "type": "uint256"
        }
      ],
      "name": "get_crop_byIndex",
      "outputs": [
        {
          "internalType": "uint256",
          "name": "id",
          "type": "uint256"
        },
        {
          "internalType": "string",
          "name": "crop_id",
          "type": "string"
        },
        {
          "internalType": "string",
          "name": "name",
          "type": "string"
        },
        {
          "internalType": "uint256",
          "name": "quantity",
          "type": "uint256"
        },
        {
          "internalType": "uint256",
          "name": "harvestDate",
          "type": "uint256"
        },
        {
          "internalType": "uint256",
          "name": "price_per_unit",
          "type": "uint256"
        },
        {
          "internalType": "address",
          "name": "farmer",
          "type": "address"
        },
        {
          "internalType": "enum FarmToStoreTraceability.Crop_Status",
          "name": "status",
          "type": "uint8"
        }
      ],
      "stateMutability": "view",
      "type": "function"
    },
    {
      "inputs": [
        {
          "internalType": "uint256",
          "name": "crop_id",
          "type": "uint256"
        }
      ],
      "name": "get_delivery_byIndex",
      "outputs": [
        {
          "internalType": "uint256",
          "name": "id",
          "type": "uint256"
        },
        {
          "internalType": "string",
          "name": "cropId",
          "type": "string"
        },
        {
          "internalType": "string",
          "name": "name",
          "type": "string"
        },
        {
          "internalType": "address",
          "name": "farmer",
          "type": "address"
        },
        {
          "internalType": "address",
          "name": "transporter",
          "type": "address"
        },
        {
          "internalType": "address",
          "name": "store",
          "type": "address"
        },
        {
          "internalType": "string",
          "name": "pick_up_location",
          "type": "string"
        },
        {
          "internalType": "string",
          "name": "destination",
          "type": "string"
        },
        {
          "internalType": "uint256",
          "name": "quantity",
          "type": "uint256"
        },
        {
          "internalType": "enum FarmToStoreTraceability.Crop_Status",
          "name": "status",
          "type": "uint8"
        }
      ],
      "stateMutability": "view",
      "type": "function"
    },
    {
      "inputs": [],
      "name": "get_delivery_count",
      "outputs": [
        {
          "internalType": "uint256",
          "name": "",
          "type": "uint256"
        }
      ],
      "stateMutability": "view",
      "type": "function"
    },
    {
      "inputs": [
        {
          "internalType": "address",
          "name": "_farmer",
          "type": "address"
        },
        {
          "internalType": "uint256",
          "name": "index",
          "type": "uint256"
        }
      ],
      "name": "get_farmer_history_byIndex",
      "outputs": [
        {
          "internalType": "uint256",
          "name": "id",
          "type": "uint256"
        },
        {
          "internalType": "address",
          "name": "farmer",
          "type": "address"
        },
        {
          "internalType": "string",
          "name": "product_name",
          "type": "string"
        },
        {
          "internalType": "string",
          "name": "sent_to",
          "type": "string"
        },
        {
          "internalType": "address",
          "name": "store",
          "type": "address"
        },
        {
          "internalType": "string",
          "name": "through",
          "type": "string"
        },
        {
          "internalType": "address",
          "name": "transporter",
          "type": "address"
        },
        {
          "internalType": "uint256",
          "name": "date",
          "type": "uint256"
        }
      ],
      "stateMutability": "view",
      "type": "function"
    },
    {
      "inputs": [
        {
          "internalType": "address",
          "name": "_user",
          "type": "address"
        },
        {
          "internalType": "enum FarmToStoreTraceability.Role",
          "name": "_role",
          "type": "uint8"
        }
      ],
      "name": "get_history_count",
      "outputs": [
        {
          "internalType": "uint256",
          "name": "",
          "type": "uint256"
        }
      ],
      "stateMutability": "view",
      "type": "function"
    },
    {
      "inputs": [
        {
          "internalType": "uint256",
          "name": "id",
          "type": "uint256"
        }
      ],
      "name": "get_pending_request_byIndex",
      "outputs": [
        {
          "internalType": "address",
          "name": "pending_address",
          "type": "address"
        },
        {
          "internalType": "string",
          "name": "name",
          "type": "string"
        },
        {
          "internalType": "string",
          "name": "location",
          "type": "string"
        },
        {
          "internalType": "enum FarmToStoreTraceability.Role",
          "name": "requestedRole",
          "type": "uint8"
        },
        {
          "internalType": "bool",
          "name": "isApproved",
          "type": "bool"
        },
        {
          "internalType": "bool",
          "name": "exists",
          "type": "bool"
        }
      ],
      "stateMutability": "view",
      "type": "function"
    },
    {
      "inputs": [],
      "name": "get_pending_request_count",
      "outputs": [
        {
          "internalType": "uint256",
          "name": "",
          "type": "uint256"
        }
      ],
      "stateMutability": "view",
      "type": "function"
    },
    {
      "inputs": [
        {
          "internalType": "string",
          "name": "_crop_id",
          "type": "string"
        }
      ],
      "name": "get_product_byCropId",
      "outputs": [
        {
          "internalType": "string",
          "name": "crop_id",
          "type": "string"
        },
        {
          "internalType": "string",
          "name": "name",
          "type": "string"
        },
        {
          "internalType": "address",
          "name": "owner_address",
          "type": "address"
        },
        {
          "internalType": "address",
          "name": "transporter_address",
          "type": "address"
        },
        {
          "internalType": "address",
          "name": "store_address",
          "type": "address"
        },
        {
          "internalType": "uint256",
          "name": "harvestDate",
          "type": "uint256"
        },
        {
          "internalType": "uint256",
          "name": "quantity",
          "type": "uint256"
        },
        {
          "internalType": "uint256",
          "name": "price_per_unit",
          "type": "uint256"
        },
        {
          "internalType": "uint256",
          "name": "arrival_date",
          "type": "uint256"
        }
      ],
      "stateMutability": "view",
      "type": "function"
    },
    {
      "inputs": [
        {
          "internalType": "uint256",
          "name": "product_id",
          "type": "uint256"
        }
      ],
      "name": "get_product_byIndex",
      "outputs": [
        {
          "internalType": "string",
          "name": "crop_id",
          "type": "string"
        },
        {
          "internalType": "string",
          "name": "name",
          "type": "string"
        },
        {
          "internalType": "address",
          "name": "owner_address",
          "type": "address"
        },
        {
          "internalType": "address",
          "name": "transporter_address",
          "type": "address"
        },
        {
          "internalType": "address",
          "name": "store_address",
          "type": "address"
        },
        {
          "internalType": "uint256",
          "name": "harvestDate",
          "type": "uint256"
        },
        {
          "internalType": "uint256",
          "name": "quantity",
          "type": "uint256"
        },
        {
          "internalType": "uint256",
          "name": "price_per_unit",
          "type": "uint256"
        },
        {
          "internalType": "uint256",
          "name": "arrival_date",
          "type": "uint256"
        }
      ],
      "stateMutability": "view",
      "type": "function"
    },
    {
      "inputs": [
        {
          "internalType": "address",
          "name": "_store",
          "type": "address"
        },
        {
          "internalType": "uint256",
          "name": "index",
          "type": "uint256"
        }
      ],
      "name": "get_store_history_byIndex",
      "outputs": [
        {
          "internalType": "uint256",
          "name": "id",
          "type": "uint256"
        },
        {
          "internalType": "address",
          "name": "farmer",
          "type": "address"
        },
        {
          "internalType": "address",
          "name": "transporter",
          "type": "address"
        },
        {
          "internalType": "string",
          "name": "farmer_name",
          "type": "string"
        },
        {
          "internalType": "string",
          "name": "transporter_name",
          "type": "string"
        },
        {
          "internalType": "uint256",
          "name": "date",
          "type": "uint256"
        },
        {
          "internalType": "string",
          "name": "product_name",
          "type": "string"
        },
        {
          "internalType": "uint256",
          "name": "quantity",
          "type": "uint256"
        }
      ],
      "stateMutability": "view",
      "type": "function"
    },
    {
      "inputs": [],
      "name": "get_store_product_count",
      "outputs": [
        {
          "internalType": "uint256",
          "name": "",
          "type": "uint256"
        }
      ],
      "stateMutability": "view",
      "type": "function"
    },
    {
      "inputs": [
        {
          "internalType": "address",
          "name": "_transporter",
          "type": "address"
        },
        {
          "internalType": "uint256",
          "name": "index",
          "type": "uint256"
        }
      ],
      "name": "get_transporter_history_byIndex",
      "outputs": [
        {
          "internalType": "uint256",
          "name": "id",
          "type": "uint256"
        },
        {
          "internalType": "address",
          "name": "farmer",
          "type": "address"
        },
        {
          "internalType": "address",
          "name": "store",
          "type": "address"
        },
        {
          "internalType": "string",
          "name": "farmer_name",
          "type": "string"
        },
        {
          "internalType": "string",
          "name": "store_name",
          "type": "string"
        },
        {
          "internalType": "string",
          "name": "crop_name",
          "type": "string"
        },
        {
          "internalType": "string",
          "name": "from",
          "type": "string"
        },
        {
          "internalType": "string",
          "name": "to",
          "type": "string"
        },
        {
          "internalType": "uint256",
          "name": "date",
          "type": "uint256"
        }
      ],
      "stateMutability": "view",
      "type": "function"
    },
    {
      "inputs": [
        {
          "internalType": "address",
          "name": "_address",
          "type": "address"
        }
      ],
      "name": "get_user_byAddress",
      "outputs": [
        {
          "internalType": "address",
          "name": "user_address",
          "type": "address"
        },
        {
          "internalType": "string",
          "name": "name",
          "type": "string"
        },
        {
          "internalType": "string",
          "name": "location",
          "type": "string"
        },
        {
          "internalType": "uint256",
          "name": "successful_delivery",
          "type": "uint256"
        },
        {
          "internalType": "enum FarmToStoreTraceability.Role",
          "name": "role",
          "type": "uint8"
        }
      ],
      "stateMutability": "view",
      "type": "function"
    },
    {
      "inputs": [
        {
          "internalType": "uint256",
          "name": "index",
          "type": "uint256"
        }
      ],
      "name": "get_user_byIndex",
      "outputs": [
        {
          "internalType": "address",
          "name": "user_address",
          "type": "address"
        },
        {
          "internalType": "string",
          "name": "name",
          "type": "string"
        },
        {
          "internalType": "string",
          "name": "location",
          "type": "string"
        },
        {
          "internalType": "uint256",
          "name": "successful_delivery",
          "type": "uint256"
        },
        {
          "internalType": "enum FarmToStoreTraceability.Role",
          "name": "role",
          "type": "uint8"
        }
      ],
      "stateMutability": "view",
      "type": "function"
    },
    {
      "inputs": [],
      "name": "get_user_count",
      "outputs": [
        {
          "internalType": "uint256",
          "name": "",
          "type": "uint256"
        }
      ],
      "stateMutability": "view",
      "type": "function"
    },
    {
      "inputs": [
        {
          "internalType": "address",
          "name": "_address",
          "type": "address"
        }
      ],
      "name": "get_user_name",
      "outputs": [
        {
          "internalType": "string",
          "name": "",
          "type": "string"
        }
      ],
      "stateMutability": "view",
      "type": "function"
    },
    {
      "inputs": [
        {
          "internalType": "enum FarmToStoreTraceability.Role",
          "name": "role",
          "type": "uint8"
        }
      ],
      "name": "list_user_address",
      "outputs": [
        {
          "internalType": "address[]",
          "name": "",
          "type": "address[]"
        }
      ],
      "stateMutability": "view",
      "type": "function"
    },
    {
      "inputs": [],
      "name": "owner",
      "outputs": [
        {
          "internalType": "address",
          "name": "",
          "type": "address"
        }
      ],
      "stateMutability": "view",
      "type": "function"
    },
    {
      "inputs": [
        {
          "internalType": "uint256",
          "name": "",
          "type": "uint256"
        }
      ],
      "name": "pendingDeliveries",
      "outputs": [
        {
          "internalType": "uint256",
          "name": "id",
          "type": "uint256"
        },
        {
          "internalType": "string",
          "name": "cropId",
          "type": "string"
        },
        {
          "internalType": "string",
          "name": "name",
          "type": "string"
        },
        {
          "internalType": "address",
          "name": "farmer",
          "type": "address"
        },
        {
          "internalType": "address",
          "name": "transporter",
          "type": "address"
        },
        {
          "internalType": "address",
          "name": "store",
          "type": "address"
        },
        {
          "internalType": "string",
          "name": "pick_up_location",
          "type": "string"
        },
        {
          "internalType": "string",
          "name": "destination",
          "type": "string"
        },
        {
          "internalType": "uint256",
          "name": "quantity",
          "type": "uint256"
        },
        {
          "internalType": "enum FarmToStoreTraceability.Crop_Status",
          "name": "status",
          "type": "uint8"
        }
      ],
      "stateMutability": "view",
      "type": "function"
    },
    {
      "inputs": [
        {
          "internalType": "uint256",
          "name": "",
          "type": "uint256"
        }
      ],
      "name": "pendingUsers",
      "outputs": [
        {
          "internalType": "address",
          "name": "pending_address",
          "type": "address"
        },
        {
          "internalType": "string",
          "name": "name",
          "type": "string"
        },
        {
          "internalType": "string",
          "name": "location",
          "type": "string"
        },
        {
          "internalType": "enum FarmToStoreTraceability.Role",
          "name": "requestedRole",
          "type": "uint8"
        },
        {
          "internalType": "bool",
          "name": "isApproved",
          "type": "bool"
        },
        {
          "internalType": "bool",
          "name": "exists",
          "type": "bool"
        }
      ],
      "stateMutability": "view",
      "type": "function"
    },
    {
      "inputs": [],
      "name": "pending_users_count",
      "outputs": [
        {
          "internalType": "uint256",
          "name": "",
          "type": "uint256"
        }
      ],
      "stateMutability": "view",
      "type": "function"
    },
    {
      "inputs": [
        {
          "internalType": "uint256",
          "name": "",
          "type": "uint256"
        }
      ],
      "name": "product_inStore",
      "outputs": [
        {
          "internalType": "string",
          "name": "crop_id",
          "type": "string"
        },
        {
          "internalType": "string",
          "name": "name",
          "type": "string"
        },
        {
          "internalType": "address",
          "name": "owner_address",
          "type": "address"
        },
        {
          "internalType": "address",
          "name": "transporter_address",
          "type": "address"
        },
        {
          "internalType": "address",
          "name": "store_address",
          "type": "address"
        },
        {
          "internalType": "uint256",
          "name": "harvestDate",
          "type": "uint256"
        },
        {
          "internalType": "uint256",
          "name": "quantity",
          "type": "uint256"
        },
        {
          "internalType": "uint256",
          "name": "price_per_unit",
          "type": "uint256"
        },
        {
          "internalType": "uint256",
          "name": "arrival_date",
          "type": "uint256"
        }
      ],
      "stateMutability": "view",
      "type": "function"
    },
    {
      "inputs": [
        {
          "internalType": "uint256",
          "name": "id",
          "type": "uint256"
        }
      ],
      "name": "product_inTransit",
      "outputs": [],
      "stateMutability": "nonpayable",
      "type": "function"
    },
    {
      "inputs": [
        {
          "internalType": "string",
          "name": "name",
          "type": "string"
        },
        {
          "internalType": "string",
          "name": "product_id",
          "type": "string"
        },
        {
          "internalType": "uint256",
          "name": "quantity",
          "type": "uint256"
        },
        {
          "internalType": "uint256",
          "name": "_price",
          "type": "uint256"
        },
        {
          "internalType": "uint256",
          "name": "harvestDate",
          "type": "uint256"
        }
      ],
      "name": "registerCrop",
      "outputs": [],
      "stateMutability": "nonpayable",
      "type": "function"
    },
    {
      "inputs": [
        {
          "internalType": "uint256",
          "name": "id",
          "type": "uint256"
        }
      ],
      "name": "reject_role",
      "outputs": [],
      "stateMutability": "nonpayable",
      "type": "function"
    },
    {
      "inputs": [
        {
          "internalType": "uint256",
          "name": "",
          "type": "uint256"
        }
      ],
      "name": "rejected_roles",
      "outputs": [
        {
          "internalType": "address",
          "name": "",
          "type": "address"
        }
      ],
      "stateMutability": "view",
      "type": "function"
    },
    {
      "inputs": [
        {
          "internalType": "string",
          "name": "name",
          "type": "string"
        },
        {
          "internalType": "enum FarmToStoreTraceability.Role",
          "name": "role",
          "type": "uint8"
        },
        {
          "internalType": "string",
          "name": "_location",
          "type": "string"
        }
      ],
      "name": "request_for_role",
      "outputs": [],
      "stateMutability": "nonpayable",
      "type": "function"
    },
    {
      "inputs": [
        {
          "internalType": "address",
          "name": "_address",
          "type": "address"
        }
      ],
      "name": "resign_user",
      "outputs": [],
      "stateMutability": "nonpayable",
      "type": "function"
    },
    {
      "inputs": [
        {
          "internalType": "address",
          "name": "",
          "type": "address"
        }
      ],
      "name": "roles",
      "outputs": [
        {
          "internalType": "enum FarmToStoreTraceability.Role",
          "name": "",
          "type": "uint8"
        }
      ],
      "stateMutability": "view",
      "type": "function"
    },
    {
      "inputs": [
        {
          "internalType": "uint256",
          "name": "id",
          "type": "uint256"
        },
        {
          "internalType": "uint256",
          "name": "_quantity",
          "type": "uint256"
        },
        {
          "internalType": "address",
          "name": "_store",
          "type": "address"
        },
        {
          "internalType": "address",
          "name": "transporter",
          "type": "address"
        }
      ],
      "name": "send_to_transporter",
      "outputs": [],
      "stateMutability": "nonpayable",
      "type": "function"
    },
    {
      "inputs": [
        {
          "internalType": "address",
          "name": "",
          "type": "address"
        },
        {
          "internalType": "uint256",
          "name": "",
          "type": "uint256"
        }
      ],
      "name": "store_history",
      "outputs": [
        {
          "internalType": "uint256",
          "name": "id",
          "type": "uint256"
        },
        {
          "internalType": "address",
          "name": "farmer",
          "type": "address"
        },
        {
          "internalType": "address",
          "name": "transporter",
          "type": "address"
        },
        {
          "internalType": "string",
          "name": "farmer_name",
          "type": "string"
        },
        {
          "internalType": "string",
          "name": "transporter_name",
          "type": "string"
        },
        {
          "internalType": "uint256",
          "name": "date",
          "type": "uint256"
        },
        {
          "internalType": "string",
          "name": "product_name",
          "type": "string"
        },
        {
          "internalType": "uint256",
          "name": "quantity",
          "type": "uint256"
        }
      ],
      "stateMutability": "view",
      "type": "function"
    },
    {
      "inputs": [
        {
          "internalType": "uint256",
          "name": "",
          "type": "uint256"
        }
      ],
      "name": "store_managers",
      "outputs": [
        {
          "internalType": "address",
          "name": "",
          "type": "address"
        }
      ],
      "stateMutability": "view",
      "type": "function"
    },
    {
      "inputs": [],
      "name": "store_product_count",
      "outputs": [
        {
          "internalType": "uint256",
          "name": "",
          "type": "uint256"
        }
      ],
      "stateMutability": "view",
      "type": "function"
    },
    {
      "inputs": [
        {
          "internalType": "address",
          "name": "",
          "type": "address"
        },
        {
          "internalType": "uint256",
          "name": "",
          "type": "uint256"
        }
      ],
      "name": "transporter_history",
      "outputs": [
        {
          "internalType": "uint256",
          "name": "id",
          "type": "uint256"
        },
        {
          "internalType": "address",
          "name": "farmer",
          "type": "address"
        },
        {
          "internalType": "address",
          "name": "store",
          "type": "address"
        },
        {
          "internalType": "string",
          "name": "farmer_name",
          "type": "string"
        },
        {
          "internalType": "string",
          "name": "store_name",
          "type": "string"
        },
        {
          "internalType": "string",
          "name": "crop_name",
          "type": "string"
        },
        {
          "internalType": "string",
          "name": "from",
          "type": "string"
        },
        {
          "internalType": "string",
          "name": "to",
          "type": "string"
        },
        {
          "internalType": "uint256",
          "name": "date",
          "type": "uint256"
        }
      ],
      "stateMutability": "view",
      "type": "function"
    },
    {
      "inputs": [
        {
          "internalType": "uint256",
          "name": "",
          "type": "uint256"
        }
      ],
      "name": "transporters",
      "outputs": [
        {
          "internalType": "address",
          "name": "",
          "type": "address"
        }
      ],
      "stateMutability": "view",
      "type": "function"
    },
    {
      "inputs": [],
      "name": "user_count",
      "outputs": [
        {
          "internalType": "uint256",
          "name": "",
          "type": "uint256"
        }
      ],
      "stateMutability": "view",
      "type": "function"
    },
    {
      "inputs": [
        {
          "internalType": "address",
          "name": "",
          "type": "address"
        }
      ],
      "name": "users",
      "outputs": [
        {
          "internalType": "address",
          "name": "user_address",
          "type": "address"
        },
        {
          "internalType": "string",
          "name": "name",
          "type": "string"
        },
        {
          "internalType": "string",
          "name": "location",
          "type": "string"
        },
        {
          "internalType": "uint256",
          "name": "successful_delivery",
          "type": "uint256"
        },
        {
          "internalType": "enum FarmToStoreTraceability.Role",
          "name": "role",
          "type": "uint8"
        }
      ],
      "stateMutability": "view",
      "type": "function"
    },
    {
      "inputs": [
        {
          "internalType": "address",
          "name": "connected_address",
          "type": "address"
        }
      ],
      "name": "wallet_identity",
      "outputs": [
        {
          "internalType": "string",
          "name": "",
          "type": "string"
        }
      ],
      "stateMutability": "view",
      "type": "function"
    }
  ],
  "bytecode": "0x6080604052348015600f57600080fd5b50600d80546001600160a01b03191633179055615e23806100316000396000f3fe608060405234801561001057600080fd5b50600436106102bb5760003560e01c80638175df6f116101825780639bcb1739116100e9578063bd5d0808116100a2578063e36b4f641161007c578063e36b4f64146106c5578063ec7bf72b146106d8578063f82042fe146106eb578063fd33482d146106fe57600080fd5b8063bd5d080814610696578063cf464f57146106a9578063dfd55a2c146106bc57600080fd5b80639bcb1739146106285780639f96835a1461063b578063a87430ba14610643578063aa1c568e14610667578063b08aeaec1461067a578063bb805f691461068d57600080fd5b80638da5cb5b1161013b5780638da5cb5b14610599578063911dacdc146105ac57806392ab20f1146105bf57806392bd337c146105d257806395111f5c146105e557806399374642146105f857600080fd5b80638175df6f146104ee57806387e720e11461050157806389d219f8146105285780638afdd6691461054b5780638b74b6c61461055e5780638d1652481461057157600080fd5b806348445e4d116102265780636004d2e3116101df5780636004d2e31461045d57806367dac2a0146104845780636811a96e1461049757806369346942146104aa57806370c9f1a5146104d357806377e0e7ea146104e657600080fd5b806348445e4d146104165780634a9b41751461041e57806353bdb1b014610431578063598fa80c146104445780635b77b6a61461044c5780635c8328001461045557600080fd5b80632a42d705116102785780632a42d705146103895780632b9575aa146103b05780632f3d819b146103d057806336461c11146103e7578063387d3ecc146103fa57806345ecc2a71461040d57600080fd5b8063034da8ba146102c057806306f06768146102d5578063129b9dc3146103065780631ac0bce8146103265780631d93f21e1461035157806329c2a87714610376575b600080fd5b6102d36102ce366004615380565b610706565b005b6102e86102e3366004615380565b610791565b6040516102fd999897969594939291906153df565b60405180910390f35b61031961031436600461545d565b6108f8565b6040516102fd919061547f565b610339610334366004615380565b610a6f565b6040516001600160a01b0390911681526020016102fd565b61036461035f366004615380565b610a99565b6040516102fd969594939291906154f5565b610339610384366004615380565b610cde565b61039c61039736600461556b565b610cee565b6040516102fd989796959493929190615595565b6103c36103be366004615616565b61100c565b6040516102fd9190615631565b6103d9600a5481565b6040519081526020016102fd565b6102d36103f5366004615616565b6110b1565b6102e86104083660046156e9565b611268565b6103d9600b5481565b600a546103d9565b61033961042c366004615380565b61154d565b61036461043f366004615380565b61155d565b600b546103d9565b6103d960095481565b600f546103d9565b61047061046b366004615380565b6116b6565b6040516102fd989796959493929190615736565b610339610492366004615380565b6118be565b6102d36104a53660046157a0565b6118ce565b6104bd6104b8366004615380565b6119e8565b6040516102fd9a99989796959493929190615819565b6104706104e1366004615380565b611c6d565b6008546103d9565b6103d96104fc3660046158b4565b611dce565b61051461050f36600461556b565b611e81565b6040516102fd9897969594939291906158e7565b61053b610536366004615616565b612087565b60405190151581526020016102fd565b610339610559366004615380565b6120e1565b61051461056c36600461556b565b6120f1565b61058461057f36600461556b565b612395565b6040516102fd9998979695949392919061595c565b600d54610339906001600160a01b031681565b6103c36105ba366004615616565b6126b1565b6102d36105cd3660046159f5565b61285b565b61039c6105e036600461556b565b6129cb565b6102d36105f3366004615a79565b612be8565b61061b610606366004615616565b60066020526000908152604090205460ff1681565b6040516102fd9190615abf565b6102e8610636366004615380565b613072565b6009546103d9565b610656610651366004615616565b6132c9565b6040516102fd959493929190615acd565b610656610675366004615380565b613416565b6104bd610688366004615380565b61363b565b6103d9600c5481565b6102d36106a4366004615380565b613983565b6106566106b7366004615616565b613e71565b6103d960085481565b6102d36106d3366004615380565b614039565b6102d36106e6366004615b23565b614125565b6105846106f936600461556b565b614f63565b600c546103d9565b6001803360009081526006602052604090205460ff16600281111561072d5761072d6154cb565b146107535760405162461bcd60e51b815260040161074a90615b45565b60405180910390fd5b5060009081526003602090815260408083206004909252909120600601805460ff60a01b1916600160a01b179055600901805460ff19166001179055565b6007602052600090815260409020805481906107ac90615b6c565b80601f01602080910402602001604051908101604052809291908181526020018280546107d890615b6c565b80156108255780601f106107fa57610100808354040283529160200191610825565b820191906000526020600020905b81548152906001019060200180831161080857829003601f168201915b50505050509080600101805461083a90615b6c565b80601f016020809104026020016040519081016040528092919081815260200182805461086690615b6c565b80156108b35780601f10610888576101008083540402835291602001916108b3565b820191906000526020600020905b81548152906001019060200180831161089657829003601f168201915b50505060028401546003850154600486015460058701546006880154600789015460089099015497986001600160a01b03958616989486169750929094169450929189565b6060600082600281111561090e5761090e6154cb565b0361097557601180548060200260200160405190810160405280929190818152602001828054801561096957602002820191906000526020600020905b81546001600160a01b0316815260019091019060200180831161094b575b50505050509050919050565b6001826002811115610989576109896154cb565b036109ee576012805480602002602001604051908101604052809291908181526020018280548015610969576020028201919060005260206000209081546001600160a01b0316815260019091019060200180831161094b5750505050509050919050565b6002826002811115610a0257610a026154cb565b03610a67576013805480602002602001604051908101604052809291908181526020018280548015610969576020028201919060005260206000209081546001600160a01b0316815260019091019060200180831161094b5750505050509050919050565b506060919050565b60138181548110610a7f57600080fd5b6000918252602090912001546001600160a01b0316905081565b600060608060008060008087118015610ab45750600b548711155b610b005760405162461bcd60e51b815260206004820152601a60248201527f496e76616c69642070656e64696e672072657175657374204944000000000000604482015260640161074a565b6000878152600560209081526040808320815160c0810190925280546001600160a01b031682526001810180549293919291840191610b3e90615b6c565b80601f0160208091040260200160405190810160405280929190818152602001828054610b6a90615b6c565b8015610bb75780601f10610b8c57610100808354040283529160200191610bb7565b820191906000526020600020905b815481529060010190602001808311610b9a57829003601f168201915b50505050508152602001600282018054610bd090615b6c565b80601f0160208091040260200160405190810160405280929190818152602001828054610bfc90615b6c565b8015610c495780601f10610c1e57610100808354040283529160200191610c49565b820191906000526020600020905b815481529060010190602001808311610c2c57829003601f168201915b5050509183525050600382015460209091019060ff166002811115610c7057610c706154cb565b6002811115610c8157610c816154cb565b81526003919091015460ff61010082048116151560208085019190915262010000909204161515604092830152825190830151918301516060840151608085015160a090950151929d939c50909a50985091965090945092505050565b60128181548110610a7f57600080fd5b6001600160a01b0382166000908152602081905260408120548190606090819083908290829081908910610d5a5760405162461bcd60e51b8152602060048201526013602482015272496e646578206f7574206f6620626f756e647360681b604482015260640161074a565b6001600160a01b038a16600090815260208190526040812080548b908110610d8457610d84615ba6565b906000526020600020906008020160405180610100016040529081600082015481526020016001820160009054906101000a90046001600160a01b03166001600160a01b03166001600160a01b03168152602001600282018054610de790615b6c565b80601f0160208091040260200160405190810160405280929190818152602001828054610e1390615b6c565b8015610e605780601f10610e3557610100808354040283529160200191610e60565b820191906000526020600020905b815481529060010190602001808311610e4357829003601f168201915b50505050508152602001600382018054610e7990615b6c565b80601f0160208091040260200160405190810160405280929190818152602001828054610ea590615b6c565b8015610ef25780601f10610ec757610100808354040283529160200191610ef2565b820191906000526020600020905b815481529060010190602001808311610ed557829003601f168201915b505050918352505060048201546001600160a01b03166020820152600582018054604090920191610f2290615b6c565b80601f0160208091040260200160405190810160405280929190818152602001828054610f4e90615b6c565b8015610f9b5780601f10610f7057610100808354040283529160200191610f9b565b820191906000526020600020905b815481529060010190602001808311610f7e57829003601f168201915b505050918352505060068201546001600160a01b0316602080830191909152600790920154604091820152825191830151908301516060840151608085015160a086015160c087015160e090970151959f50939d50919b509950975095509093509150509295985092959890939650565b6001600160a01b0381166000908152600e6020526040902060010180546060919061103690615b6c565b80601f016020809104026020016040519081016040528092919081815260200182805461106290615b6c565b80156109695780601f1061108457610100808354040283529160200191610969565b820191906000526020600020905b8154815290600101906020018083116110925750939695505050505050565b600d546001600160a01b031633146110db5760405162461bcd60e51b815260040161074a90615bbc565b6001600160a01b0381166000908152600e6020526040812080546001600160a01b03191681559061110f600183018261532a565b61111d60028301600061532a565b506000600382018190556004909101805460ff199081169091556001600160a01b0383168252600660205260408220805490911690555b600f5481101561124f57816001600160a01b0316600f828154811061117b5761117b615ba6565b6000918252602090912001546001600160a01b03160361124757600f80546111a590600190615bfe565b815481106111b5576111b5615ba6565b600091825260209091200154600f80546001600160a01b0390921691839081106111e1576111e1615ba6565b9060005260206000200160006101000a8154816001600160a01b0302191690836001600160a01b03160217905550600f80548061122057611220615c11565b600082815260209020810160001990810180546001600160a01b031916905501905561124f565b600101611154565b50600c805490600061126083615c27565b919050555050565b606080600080808080808060015b600a548111611503578a80519060200120600760008381526020019081526020016000206000016040516112aa9190615c3e565b6040518091039020036114f157600081815260076020526040808220815161012081019092528054829082906112df90615b6c565b80601f016020809104026020016040519081016040528092919081815260200182805461130b90615b6c565b80156113585780601f1061132d57610100808354040283529160200191611358565b820191906000526020600020905b81548152906001019060200180831161133b57829003601f168201915b5050505050815260200160018201805461137190615b6c565b80601f016020809104026020016040519081016040528092919081815260200182805461139d90615b6c565b80156113ea5780601f106113bf576101008083540402835291602001916113ea565b820191906000526020600020905b8154815290600101906020018083116113cd57829003601f168201915b505050505081526020016002820160009054906101000a90046001600160a01b03166001600160a01b03166001600160a01b031681526020016003820160009054906101000a90046001600160a01b03166001600160a01b03166001600160a01b031681526020016004820160009054906101000a90046001600160a01b03166001600160a01b03166001600160a01b031681526020016005820154815260200160068201548152602001600782015481526020016008820154815250509050806000015181602001518260400151836060015184608001518560a001518660c001518760e001518861010001519a509a509a509a509a509a509a509a509a505050611540565b806114fb81615cb3565b915050611276565b5060405162461bcd60e51b8152602060048201526011602482015270141c9bd91d58dd081b9bdd08199bdd5b99607a1b604482015260640161074a565b9193959799909294969850565b60108181548110610a7f57600080fd5b600560205260009081526040902080546001820180546001600160a01b03909216929161158990615b6c565b80601f01602080910402602001604051908101604052809291908181526020018280546115b590615b6c565b80156116025780601f106115d757610100808354040283529160200191611602565b820191906000526020600020905b8154815290600101906020018083116115e557829003601f168201915b50505050509080600201805461161790615b6c565b80601f016020809104026020016040519081016040528092919081815260200182805461164390615b6c565b80156116905780601f1061166557610100808354040283529160200191611690565b820191906000526020600020905b81548152906001019060200180831161167357829003601f168201915b5050506003909301549192505060ff808216916101008104821691620100009091041686565b6000606080600080600080600080600460008b815260200190815260200160002060405180610100016040529081600082015481526020016001820180546116fd90615b6c565b80601f016020809104026020016040519081016040528092919081815260200182805461172990615b6c565b80156117765780601f1061174b57610100808354040283529160200191611776565b820191906000526020600020905b81548152906001019060200180831161175957829003601f168201915b5050505050815260200160028201805461178f90615b6c565b80601f01602080910402602001604051908101604052809291908181526020018280546117bb90615b6c565b80156118085780601f106117dd57610100808354040283529160200191611808565b820191906000526020600020905b8154815290600101906020018083116117eb57829003601f168201915b50505091835250506003828101546020830152600483015460408301526005830154606083015260068301546001600160a01b038116608084015260a090920191600160a01b900460ff1690811115611863576118636154cb565b6003811115611874576118746154cb565b81525050905080600001518160200151826040015183606001518460a0015185608001518660c001518760e001519850985098509850985098509850985050919395975091939597565b600f8181548110610a7f57600080fd5b600b80549060006118de83615cb3565b91905055506040518060c00160405280336001600160a01b0316815260200184815260200182815260200183600281111561191b5761191b6154cb565b81526000602080830182905260016040938401819052600b5483526005825292909120835181546001600160a01b0319166001600160a01b0390911617815590830151909182019061196d9082615d1b565b50604082015160028201906119829082615d1b565b50606082015160038201805460ff191660018360028111156119a6576119a66154cb565b021790555060808201516003909101805460a0909301511515620100000262ff000019921515610100029290921662ffff001990931692909217179055505050565b60036020526000908152604090208054600182018054919291611a0a90615b6c565b80601f0160208091040260200160405190810160405280929190818152602001828054611a3690615b6c565b8015611a835780601f10611a5857610100808354040283529160200191611a83565b820191906000526020600020905b815481529060010190602001808311611a6657829003601f168201915b505050505090806002018054611a9890615b6c565b80601f0160208091040260200160405190810160405280929190818152602001828054611ac490615b6c565b8015611b115780601f10611ae657610100808354040283529160200191611b11565b820191906000526020600020905b815481529060010190602001808311611af457829003601f168201915b5050505060038301546004840154600585015460068601805495966001600160a01b03948516969385169550939091169291611b4c90615b6c565b80601f0160208091040260200160405190810160405280929190818152602001828054611b7890615b6c565b8015611bc55780601f10611b9a57610100808354040283529160200191611bc5565b820191906000526020600020905b815481529060010190602001808311611ba857829003601f168201915b505050505090806007018054611bda90615b6c565b80601f0160208091040260200160405190810160405280929190818152602001828054611c0690615b6c565b8015611c535780601f10611c2857610100808354040283529160200191611c53565b820191906000526020600020905b815481529060010190602001808311611c3657829003601f168201915b50505050600883015460099093015491929160ff1690508a565b60046020526000908152604090208054600182018054919291611c8f90615b6c565b80601f0160208091040260200160405190810160405280929190818152602001828054611cbb90615b6c565b8015611d085780601f10611cdd57610100808354040283529160200191611d08565b820191906000526020600020905b815481529060010190602001808311611ceb57829003601f168201915b505050505090806002018054611d1d90615b6c565b80601f0160208091040260200160405190810160405280929190818152602001828054611d4990615b6c565b8015611d965780601f10611d6b57610100808354040283529160200191611d96565b820191906000526020600020905b815481529060010190602001808311611d7957829003601f168201915b50505050600383015460048401546005850154600690950154939491939092506001600160a01b03811690600160a01b900460ff1688565b600080826002811115611de357611de36154cb565b03611e0757506001600160a01b038216600090815260208190526040902054611e7b565b6001826002811115611e1b57611e1b6154cb565b03611e3f57506001600160a01b038216600090815260016020526040902054611e7b565b6002826002811115611e5357611e536154cb565b03611e7757506001600160a01b038216600090815260026020526040902054611e7b565b5060005b92915050565b60026020528160005260406000208181548110611e9d57600080fd5b600091825260209091206008909102018054600182015460028301546003840180549396506001600160a01b03928316955091169291611edc90615b6c565b80601f0160208091040260200160405190810160405280929190818152602001828054611f0890615b6c565b8015611f555780601f10611f2a57610100808354040283529160200191611f55565b820191906000526020600020905b815481529060010190602001808311611f3857829003601f168201915b505050505090806004018054611f6a90615b6c565b80601f0160208091040260200160405190810160405280929190818152602001828054611f9690615b6c565b8015611fe35780601f10611fb857610100808354040283529160200191611fe3565b820191906000526020600020905b815481529060010190602001808311611fc657829003601f168201915b505050505090806005015490806006018054611ffe90615b6c565b80601f016020809104026020016040519081016040528092919081815260200182805461202a90615b6c565b80156120775780601f1061204c57610100808354040283529160200191612077565b820191906000526020600020905b81548152906001019060200180831161205a57829003601f168201915b5050505050908060070154905088565b6000805b6010548110156120d857601081815481106120a8576120a8615ba6565b6000918252602090912001546001600160a01b03908116908416036120d05750600092915050565b60010161208b565b50600192915050565b60118181548110610a7f57600080fd5b600080600060608060006060600080600260008c6001600160a01b03166001600160a01b031681526020019081526020016000208a8154811061213657612136615ba6565b6000918252602091829020604080516101008101825260089093029091018054835260018101546001600160a01b039081169484019490945260028101549093169082015260038201805491929160608401919061219390615b6c565b80601f01602080910402602001604051908101604052809291908181526020018280546121bf90615b6c565b801561220c5780601f106121e15761010080835404028352916020019161220c565b820191906000526020600020905b8154815290600101906020018083116121ef57829003601f168201915b5050505050815260200160048201805461222590615b6c565b80601f016020809104026020016040519081016040528092919081815260200182805461225190615b6c565b801561229e5780601f106122735761010080835404028352916020019161229e565b820191906000526020600020905b81548152906001019060200180831161228157829003601f168201915b50505050508152602001600582015481526020016006820180546122c190615b6c565b80601f01602080910402602001604051908101604052809291908181526020018280546122ed90615b6c565b801561233a5780601f1061230f5761010080835404028352916020019161233a565b820191906000526020600020905b81548152906001019060200180831161231d57829003601f168201915b505050505081526020016007820154815250509050806000015181602001518260400151836060015184608001518560a001518660c001518760e0015198509850985098509850985098509850509295985092959890939650565b600160205281600052604060002081815481106123b157600080fd5b600091825260209091206009909102018054600182015460028301546003840180549396506001600160a01b039283169550911692916123f090615b6c565b80601f016020809104026020016040519081016040528092919081815260200182805461241c90615b6c565b80156124695780601f1061243e57610100808354040283529160200191612469565b820191906000526020600020905b81548152906001019060200180831161244c57829003601f168201915b50505050509080600401805461247e90615b6c565b80601f01602080910402602001604051908101604052809291908181526020018280546124aa90615b6c565b80156124f75780601f106124cc576101008083540402835291602001916124f7565b820191906000526020600020905b8154815290600101906020018083116124da57829003601f168201915b50505050509080600501805461250c90615b6c565b80601f016020809104026020016040519081016040528092919081815260200182805461253890615b6c565b80156125855780601f1061255a57610100808354040283529160200191612585565b820191906000526020600020905b81548152906001019060200180831161256857829003601f168201915b50505050509080600601805461259a90615b6c565b80601f01602080910402602001604051908101604052809291908181526020018280546125c690615b6c565b80156126135780601f106125e857610100808354040283529160200191612613565b820191906000526020600020905b8154815290600101906020018083116125f657829003601f168201915b50505050509080600701805461262890615b6c565b80601f016020809104026020016040519081016040528092919081815260200182805461265490615b6c565b80156126a15780601f10612676576101008083540402835291602001916126a1565b820191906000526020600020905b81548152906001019060200180831161268457829003601f168201915b5050505050908060080154905089565b600d546060906001600160a01b03908116908316036126eb57505060408051808201909152600581526430b236b4b760d91b602082015290565b60005b601154811015612756576011818154811061270b5761270b615ba6565b6000918252602090912001546001600160a01b039081169084160361274e5750506040805180820190915260068152653330b936b2b960d11b6020820152919050565b6001016126ee565b5060005b6012548110156127c7576012818154811061277757612777615ba6565b6000918252602090912001546001600160a01b03908116908416036127bf57505060408051808201909152600b81526a3a3930b739b837b93a32b960a91b6020820152919050565b60010161275a565b5060005b60135481101561283957601381815481106127e8576127e8615ba6565b6000918252602090912001546001600160a01b039081169084160361283157505060408051808201909152600c81526b39ba37b932a6b0b730b3b2b960a11b6020820152919050565b6001016127cb565b50506040805180820190915260048152636e6f6e6560e01b6020820152919050565b6000803360009081526006602052604090205460ff166002811115612882576128826154cb565b1461289f5760405162461bcd60e51b815260040161074a90615b45565b600880549060006128af83615cb3565b91905055506040518061010001604052806008548152602001868152602001878152602001858152602001848152602001838152602001336001600160a01b03168152602001600380811115612907576129076154cb565b90526008546000908152600460209081526040909120825181559082015160018201906129349082615d1b565b50604082015160028201906129499082615d1b565b5060608201516003808301919091556080830151600483015560a0830151600583015560c08301516006830180546001600160a01b039092166001600160a01b031983168117825560e08601519391926001600160a81b0319161790600160a01b9084908111156129bc576129bc6154cb565b02179055505050505050505050565b600060205281600052604060002081815481106129e757600080fd5b60009182526020909120600890910201805460018201546002830180549295506001600160a01b03909116935090612a1e90615b6c565b80601f0160208091040260200160405190810160405280929190818152602001828054612a4a90615b6c565b8015612a975780601f10612a6c57610100808354040283529160200191612a97565b820191906000526020600020905b815481529060010190602001808311612a7a57829003601f168201915b505050505090806003018054612aac90615b6c565b80601f0160208091040260200160405190810160405280929190818152602001828054612ad890615b6c565b8015612b255780601f10612afa57610100808354040283529160200191612b25565b820191906000526020600020905b815481529060010190602001808311612b0857829003601f168201915b505050600484015460058501805494956001600160a01b03909216949193509150612b4f90615b6c565b80601f0160208091040260200160405190810160405280929190818152602001828054612b7b90615b6c565b8015612bc85780601f10612b9d57610100808354040283529160200191612bc8565b820191906000526020600020905b815481529060010190602001808311612bab57829003601f168201915b50505050600683015460079093015491926001600160a01b031691905088565b6000803360009081526006602052604090205460ff166002811115612c0f57612c0f6154cb565b14612c2c5760405162461bcd60e51b815260040161074a90615b45565b600085815260046020526040902060068101546001600160a01b03163314612c865760405162461bcd60e51b815260206004820152600d60248201526c04e6f7420796f75722063726f7609c1b604482015260640161074a565b60068101805460ff60a01b1916905560098054906000612ca583615cb3565b91905055506040518061014001604052806009548152602001826001018054612ccd90615b6c565b80601f0160208091040260200160405190810160405280929190818152602001828054612cf990615b6c565b8015612d465780601f10612d1b57610100808354040283529160200191612d46565b820191906000526020600020905b815481529060010190602001808311612d2957829003601f168201915b50505050508152602001826002018054612d5f90615b6c565b80601f0160208091040260200160405190810160405280929190818152602001828054612d8b90615b6c565b8015612dd85780601f10612dad57610100808354040283529160200191612dd8565b820191906000526020600020905b815481529060010190602001808311612dbb57829003601f168201915b50505050508152602001336001600160a01b03168152602001846001600160a01b03168152602001856001600160a01b03168152602001600e6000336001600160a01b03166001600160a01b031681526020019081526020016000206002018054612e4290615b6c565b80601f0160208091040260200160405190810160405280929190818152602001828054612e6e90615b6c565b8015612ebb5780601f10612e9057610100808354040283529160200191612ebb565b820191906000526020600020905b815481529060010190602001808311612e9e57829003601f168201915b50505050508152602001600e6000876001600160a01b03166001600160a01b031681526020019081526020016000206002018054612ef890615b6c565b80601f0160208091040260200160405190810160405280929190818152602001828054612f2490615b6c565b8015612f715780601f10612f4657610100808354040283529160200191612f71565b820191906000526020600020905b815481529060010190602001808311612f5457829003601f168201915b50505091835250506020810187905260400160009052600954600090815260036020908152604090912082518155908201516001820190612fb29082615d1b565b5060408201516002820190612fc79082615d1b565b5060608201516003820180546001600160a01b039283166001600160a01b031991821617909155608084015160048401805491841691831691909117905560a084015160058401805491909316911617905560c0820151600682019061302d9082615d1b565b5060e082015160078201906130429082615d1b565b50610100820151600882015561012082015160098201805460ff191660018360038111156129bc576129bc6154cb565b606080600080600080600080600080600760008c8152602001908152602001600020604051806101200160405290816000820180546130b090615b6c565b80601f01602080910402602001604051908101604052809291908181526020018280546130dc90615b6c565b80156131295780601f106130fe57610100808354040283529160200191613129565b820191906000526020600020905b81548152906001019060200180831161310c57829003601f168201915b5050505050815260200160018201805461314290615b6c565b80601f016020809104026020016040519081016040528092919081815260200182805461316e90615b6c565b80156131bb5780601f10613190576101008083540402835291602001916131bb565b820191906000526020600020905b81548152906001019060200180831161319e57829003601f168201915b505050505081526020016002820160009054906101000a90046001600160a01b03166001600160a01b03166001600160a01b031681526020016003820160009054906101000a90046001600160a01b03166001600160a01b03166001600160a01b031681526020016004820160009054906101000a90046001600160a01b03166001600160a01b03166001600160a01b031681526020016005820154815260200160068201548152602001600782015481526020016008820154815250509050806000015181602001518260400151836060015184608001518560a001518660c001518760e00151886101000151995099509950995099509950995099509950509193959799909294969850565b600e60205260009081526040902080546001820180546001600160a01b0390921692916132f590615b6c565b80601f016020809104026020016040519081016040528092919081815260200182805461332190615b6c565b801561336e5780601f106133435761010080835404028352916020019161336e565b820191906000526020600020905b81548152906001019060200180831161335157829003601f168201915b50505050509080600201805461338390615b6c565b80601f01602080910402602001604051908101604052809291908181526020018280546133af90615b6c565b80156133fc5780601f106133d1576101008083540402835291602001916133fc565b820191906000526020600020905b8154815290600101906020018083116133df57829003601f168201915b50505050600383015460049093015491929160ff16905085565b6000606080600080600f8054905086106134605760405162461bcd60e51b815260206004820152600b60248201526a0eee4dedcce40d2dcc8caf60ab1b604482015260640161074a565b6000600f878154811061347557613475615ba6565b60009182526020808320909101546001600160a01b03908116808452600e83526040808520815160a081019092528054909316815260018301805492965090938401916134c190615b6c565b80601f01602080910402602001604051908101604052809291908181526020018280546134ed90615b6c565b801561353a5780601f1061350f5761010080835404028352916020019161353a565b820191906000526020600020905b81548152906001019060200180831161351d57829003601f168201915b5050505050815260200160028201805461355390615b6c565b80601f016020809104026020016040519081016040528092919081815260200182805461357f90615b6c565b80156135cc5780601f106135a1576101008083540402835291602001916135cc565b820191906000526020600020905b8154815290600101906020018083116135af57829003601f168201915b505050918352505060038201546020820152600482015460409091019060ff1660028111156135fd576135fd6154cb565b600281111561360e5761360e6154cb565b9052508051602082015160408301516060840151608090940151929c919b50995091975095509350505050565b600060608060008060006060806000806000600360008d8152602001908152602001600020604051806101400160405290816000820154815260200160018201805461368690615b6c565b80601f01602080910402602001604051908101604052809291908181526020018280546136b290615b6c565b80156136ff5780601f106136d4576101008083540402835291602001916136ff565b820191906000526020600020905b8154815290600101906020018083116136e257829003601f168201915b5050505050815260200160028201805461371890615b6c565b80601f016020809104026020016040519081016040528092919081815260200182805461374490615b6c565b80156137915780601f1061376657610100808354040283529160200191613791565b820191906000526020600020905b81548152906001019060200180831161377457829003601f168201915b505050918352505060038201546001600160a01b03908116602083015260048301548116604083015260058301541660608201526006820180546080909201916137da90615b6c565b80601f016020809104026020016040519081016040528092919081815260200182805461380690615b6c565b80156138535780601f1061382857610100808354040283529160200191613853565b820191906000526020600020905b81548152906001019060200180831161383657829003601f168201915b5050505050815260200160078201805461386c90615b6c565b80601f016020809104026020016040519081016040528092919081815260200182805461389890615b6c565b80156138e55780601f106138ba576101008083540402835291602001916138e5565b820191906000526020600020905b8154815290600101906020018083116138c857829003601f168201915b505050918352505060088201546020820152600982015460409091019060ff166003811115613916576139166154cb565b6003811115613927576139276154cb565b815250509050806000015181602001518260400151836060015184608001518560a001518660c001518760e001518861010001518961012001519a509a509a509a509a509a509a509a509a509a50509193959799509193959799565b600d546001600160a01b031633146139ad5760405162461bcd60e51b815260040161074a90615bbc565b60008181526005602052604090206003015462010000900460ff166139fe5760405162461bcd60e51b81526020600482015260076024820152663737903ab9b2b960c91b604482015260640161074a565b600081815260056020526040902060030154610100900460ff1615613a585760405162461bcd60e51b815260206004820152601060248201526f185b1c9958591e48185c1c1c9bdd995960821b604482015260640161074a565b600081815260056020908152604091829020825160a0810190935280546001600160a01b03168352600181018054919392830191613a9590615b6c565b80601f0160208091040260200160405190810160405280929190818152602001828054613ac190615b6c565b8015613b0e5780601f10613ae357610100808354040283529160200191613b0e565b820191906000526020600020905b815481529060010190602001808311613af157829003601f168201915b50505050508152602001826002018054613b2790615b6c565b80601f0160208091040260200160405190810160405280929190818152602001828054613b5390615b6c565b8015613ba05780601f10613b7557610100808354040283529160200191613ba0565b820191906000526020600020905b815481529060010190602001808311613b8357829003601f168201915b505050918352505060006020820152600383015460409091019060ff166002811115613bce57613bce6154cb565b905281546001600160a01b039081166000908152600e60209081526040909120835181546001600160a01b03191693169290921782558201516001820190613c169082615d1b565b5060408201516002820190613c2b9082615d1b565b5060608201516003820155608082015160048201805460ff19166001836002811115613c5957613c596154cb565b02179055505050600381015481546001600160a01b03166000908152600660205260409020805460ff9092169160ff19166001836002811115613c9e57613c9e6154cb565b02179055506000600382015460ff166002811115613cbe57613cbe6154cb565b03613d15578054601180546001810182556000919091527f31ecc21a745e3968a04e9570e4425bc18fa8019c68028196b546d1669c200c680180546001600160a01b0319166001600160a01b039092169190911790555b6001600382015460ff166002811115613d3057613d306154cb565b03613d87578054601280546001810182556000919091527fbb8a6a4669ba250d26cd7a459eca9d215f8307e33aebe50379bc5a3617ec34440180546001600160a01b0319166001600160a01b039092169190911790555b6002600382015460ff166002811115613da257613da26154cb565b03613df9578054601380546001810182556000919091527f66de8ffda797e3de9c05e8fc57b3bf0ec28a930d40b0d285d93c06501cf6a0900180546001600160a01b0319166001600160a01b039092169190911790555b8054600f805460018101825560009182527f8d1108e10bcb7c27dddfc02ed9d693a074039d026cf4ea4240b40f7d581ac8020180546001600160a01b0319166001600160a01b0390931692909217909155600c805491613e5883615cb3565b9091555050600301805462ffff00191661010017905550565b6001600160a01b038082166000908152600e60209081526040808320815160a08101909252805490941681526001840180549394606094859487948594859491939192840191613ec090615b6c565b80601f0160208091040260200160405190810160405280929190818152602001828054613eec90615b6c565b8015613f395780601f10613f0e57610100808354040283529160200191613f39565b820191906000526020600020905b815481529060010190602001808311613f1c57829003601f168201915b50505050508152602001600282018054613f5290615b6c565b80601f0160208091040260200160405190810160405280929190818152602001828054613f7e90615b6c565b8015613fcb5780601f10613fa057610100808354040283529160200191613fcb565b820191906000526020600020905b815481529060010190602001808311613fae57829003601f168201915b505050918352505060038201546020820152600482015460409091019060ff166002811115613ffc57613ffc6154cb565b600281111561400d5761400d6154cb565b9052508051602082015160408301516060840151608090940151929b919a509850919650945092505050565b600d546001600160a01b031633146140635760405162461bcd60e51b815260040161074a90615bbc565b60008181526005602052604090206003015462010000900460ff166140b95760405162461bcd60e51b815260206004820152600c60248201526b37379039bab1b4103ab9b2b960a11b604482015260640161074a565b600090815260056020526040812060038101805462ffff0019169055546010805460018101825592527f1b6847dc741a1b0cd08d278845f9d819d87b734759afb55fe2de5cb82a9ae67290910180546001600160a01b0319166001600160a01b03909216919091179055565b6002803360009081526006602052604090205460ff16600281111561414c5761414c6154cb565b146141695760405162461bcd60e51b815260040161074a90615b45565b60008311801561417b57506009548311155b6141b95760405162461bcd60e51b815260206004820152600f60248201526e125b9d985b1a590818dc9bdc081251608a1b604482015260640161074a565b600a80549060006141c983615cb3565b909155505060008381526003602081815260408084208054855260048352818520600681018054600160a11b60ff60a01b1990911617905560098201805460ff19166002179055338652600e90935290842090920180549293919260019290614233908490615dda565b909155505060048201546001600160a01b03166000908152600e60205260408120600301805460019290614268908490615dda565b90915550506003808301546001600160a01b03166000908152600e6020526040812090910180546001929061429e908490615dda565b925050819055506040518061012001604052808360010180546142c090615b6c565b80601f01602080910402602001604051908101604052809291908181526020018280546142ec90615b6c565b80156143395780601f1061430e57610100808354040283529160200191614339565b820191906000526020600020905b81548152906001019060200180831161431c57829003601f168201915b5050505050815260200183600201805461435290615b6c565b80601f016020809104026020016040519081016040528092919081815260200182805461437e90615b6c565b80156143cb5780601f106143a0576101008083540402835291602001916143cb565b820191906000526020600020905b8154815290600101906020018083116143ae57829003601f168201915b505050918352505060038401546001600160a01b0390811660208084019190915260048087015490921660408085019190915233606085015260058601546080850152600887015460a08501529185015460c084015260e0909201879052600a54600090815260079092529020815181906144469082615d1b565b506020820151600182019061445b9082615d1b565b506040828101516002830180546001600160a01b03199081166001600160a01b039384161790915560608501516003808601805484169285169290921790915560808601516004860180549093169084161790915560a0850151600585015560c0850151600685015560e0850151600785015561010094850151600890940193909355918501549091166000908152602081905281902081519283019091528054909190819061450c906001615dda565b815260038501546001600160a01b0316602082015260028501805460409092019161453690615b6c565b80601f016020809104026020016040519081016040528092919081815260200182805461456290615b6c565b80156145af5780601f10614584576101008083540402835291602001916145af565b820191906000526020600020905b81548152906001019060200180831161459257829003601f168201915b505050918352505060058501546001600160a01b03166000908152600e6020908152604090912060010180549190920191906145ea90615b6c565b80601f016020809104026020016040519081016040528092919081815260200182805461461690615b6c565b80156146635780601f1061463857610100808354040283529160200191614663565b820191906000526020600020905b81548152906001019060200180831161464657829003601f168201915b505050918352505060058501546001600160a01b0390811660208084019190915260048701549091166000908152600e90915260409081902060010180549190920191906146b090615b6c565b80601f01602080910402602001604051908101604052809291908181526020018280546146dc90615b6c565b80156147295780601f106146fe57610100808354040283529160200191614729565b820191906000526020600020905b81548152906001019060200180831161470c57829003601f168201915b505050918352505060048501546001600160a01b03908116602080840191909152604092830189905284546001808201875560009687529582902085516008909202019081559084015194810180546001600160a01b0319169590921694909417905581015190919060028201906147a19082615d1b565b50606082015160038201906147b69082615d1b565b5060808201516004820180546001600160a01b0319166001600160a01b0390921691909117905560a082015160058201906147f19082615d1b565b5060c08201516006820180546001600160a01b0319166001600160a01b0392831617905560e090920151600790910155600483015416600090815260016020819052604091829020825161012081019093528054909291829161485391615dda565b815260038501546001600160a01b03908116602080840182905260058801549092166040808501919091526000918252600e90925220600101805460609092019161489d90615b6c565b80601f01602080910402602001604051908101604052809291908181526020018280546148c990615b6c565b80156149165780601f106148eb57610100808354040283529160200191614916565b820191906000526020600020905b8154815290600101906020018083116148f957829003601f168201915b505050918352505060058501546001600160a01b03166000908152600e60209081526040909120600101805491909201919061495190615b6c565b80601f016020809104026020016040519081016040528092919081815260200182805461497d90615b6c565b80156149ca5780601f1061499f576101008083540402835291602001916149ca565b820191906000526020600020905b8154815290600101906020018083116149ad57829003601f168201915b505050505081526020018460020180546149e390615b6c565b80601f0160208091040260200160405190810160405280929190818152602001828054614a0f90615b6c565b8015614a5c5780601f10614a3157610100808354040283529160200191614a5c565b820191906000526020600020905b815481529060010190602001808311614a3f57829003601f168201915b50505050508152602001846006018054614a7590615b6c565b80601f0160208091040260200160405190810160405280929190818152602001828054614aa190615b6c565b8015614aee5780601f10614ac357610100808354040283529160200191614aee565b820191906000526020600020905b815481529060010190602001808311614ad157829003601f168201915b50505050508152602001846007018054614b0790615b6c565b80601f0160208091040260200160405190810160405280929190818152602001828054614b3390615b6c565b8015614b805780601f10614b5557610100808354040283529160200191614b80565b820191906000526020600020905b815481529060010190602001808311614b6357829003601f168201915b5050509183525050602090810187905282546001818101855560009485529382902083516009909202019081559082015192810180546001600160a01b039485166001600160a01b03199182161790915560408301516002830180549190951691161790925560608101519091906003820190614bfd9082615d1b565b5060808201516004820190614c129082615d1b565b5060a08201516005820190614c279082615d1b565b5060c08201516006820190614c3c9082615d1b565b5060e08201516007820190614c519082615d1b565b50610100918201516008909101553360009081526002602052604090819020815192830190915280549091908190614c8a906001615dda565b815260038501546001600160a01b03908116602080840182905260048801549092166040808501919091526000918252600e909252206001018054606090920191614cd490615b6c565b80601f0160208091040260200160405190810160405280929190818152602001828054614d0090615b6c565b8015614d4d5780601f10614d2257610100808354040283529160200191614d4d565b820191906000526020600020905b815481529060010190602001808311614d3057829003601f168201915b505050918352505060048501546001600160a01b03166000908152600e602090815260409091206001018054919092019190614d8890615b6c565b80601f0160208091040260200160405190810160405280929190818152602001828054614db490615b6c565b8015614e015780601f10614dd657610100808354040283529160200191614e01565b820191906000526020600020905b815481529060010190602001808311614de457829003601f168201915b50505050508152602001868152602001846002018054614e2090615b6c565b80601f0160208091040260200160405190810160405280929190818152602001828054614e4c90615b6c565b8015614e995780601f10614e6e57610100808354040283529160200191614e99565b820191906000526020600020905b815481529060010190602001808311614e7c57829003601f168201915b50505091835250506008808601546020928301528354600181810186556000958652948390208451919092029091019081559082015192810180546001600160a01b039485166001600160a01b03199182161790915560408301516002830180549190951691161790925560608101519091906003820190614f1b9082615d1b565b5060808201516004820190614f309082615d1b565b5060a0820151600582015560c08201516006820190614f4f9082615d1b565b5060e0820151816007015550505050505050565b60008060006060806060806060600080600160008d6001600160a01b03166001600160a01b031681526020019081526020016000208b81548110614fa957614fa9615ba6565b6000918252602091829020604080516101208101825260099093029091018054835260018101546001600160a01b039081169484019490945260028101549093169082015260038201805491929160608401919061500690615b6c565b80601f016020809104026020016040519081016040528092919081815260200182805461503290615b6c565b801561507f5780601f106150545761010080835404028352916020019161507f565b820191906000526020600020905b81548152906001019060200180831161506257829003601f168201915b5050505050815260200160048201805461509890615b6c565b80601f01602080910402602001604051908101604052809291908181526020018280546150c490615b6c565b80156151115780601f106150e657610100808354040283529160200191615111565b820191906000526020600020905b8154815290600101906020018083116150f457829003601f168201915b5050505050815260200160058201805461512a90615b6c565b80601f016020809104026020016040519081016040528092919081815260200182805461515690615b6c565b80156151a35780601f10615178576101008083540402835291602001916151a3565b820191906000526020600020905b81548152906001019060200180831161518657829003601f168201915b505050505081526020016006820180546151bc90615b6c565b80601f01602080910402602001604051908101604052809291908181526020018280546151e890615b6c565b80156152355780601f1061520a57610100808354040283529160200191615235565b820191906000526020600020905b81548152906001019060200180831161521857829003601f168201915b5050505050815260200160078201805461524e90615b6c565b80601f016020809104026020016040519081016040528092919081815260200182805461527a90615b6c565b80156152c75780601f1061529c576101008083540402835291602001916152c7565b820191906000526020600020905b8154815290600101906020018083116152aa57829003601f168201915b505050505081526020016008820154815250509050806000015181602001518260400151836060015184608001518560a001518660c001518760e00151886101000151995099509950995099509950995099509950509295985092959850929598565b50805461533690615b6c565b6000825580601f10615346575050565b601f0160209004906000526020600020908101906153649190615367565b50565b5b8082111561537c5760008155600101615368565b5090565b60006020828403121561539257600080fd5b5035919050565b6000815180845260005b818110156153bf576020818501810151868301820152016153a3565b506000602082860101526020601f19601f83011685010191505092915050565b610120815260006153f461012083018c615399565b8281036020840152615406818c615399565b6001600160a01b039a8b166040850152988a166060840152505094909616608085015260a084019290925260c083015260e0820152610100019190915292915050565b80356003811061545857600080fd5b919050565b60006020828403121561546f57600080fd5b61547882615449565b9392505050565b602080825282518282018190526000918401906040840190835b818110156154c05783516001600160a01b0316835260209384019390920191600101615499565b509095945050505050565b634e487b7160e01b600052602160045260246000fd5b600381106154f1576154f16154cb565b9052565b6001600160a01b038716815260c06020820181905260009061551990830188615399565b828103604084015261552b8188615399565b91505061553b60608301866154e1565b921515608082015290151560a090910152949350505050565b80356001600160a01b038116811461545857600080fd5b6000806040838503121561557e57600080fd5b61558783615554565b946020939093013593505050565b8881526001600160a01b0388166020820152610100604082018190526000906155c090830189615399565b82810360608401526155d28189615399565b6001600160a01b038816608085015283810360a085015290506155f58187615399565b6001600160a01b039590951660c0840152505060e001529695505050505050565b60006020828403121561562857600080fd5b61547882615554565b6020815260006154786020830184615399565b634e487b7160e01b600052604160045260246000fd5b600082601f83011261566b57600080fd5b813567ffffffffffffffff81111561568557615685615644565b604051601f8201601f19908116603f0116810167ffffffffffffffff811182821017156156b4576156b4615644565b6040528181528382016020018510156156cc57600080fd5b816020850160208301376000918101602001919091529392505050565b6000602082840312156156fb57600080fd5b813567ffffffffffffffff81111561571257600080fd5b61571e8482850161565a565b949350505050565b600481106154f1576154f16154cb565b8881526101006020820152600061575161010083018a615399565b8281036040840152615763818a615399565b9150508660608301528560808301528460a083015260018060a01b03841660c083015261579360e0830184615726565b9998505050505050505050565b6000806000606084860312156157b557600080fd5b833567ffffffffffffffff8111156157cc57600080fd5b6157d88682870161565a565b9350506157e760208501615449565b9150604084013567ffffffffffffffff81111561580357600080fd5b61580f8682870161565a565b9150509250925092565b8a81526101406020820152600061583461014083018c615399565b8281036040840152615846818c615399565b6001600160a01b038b811660608601528a81166080860152891660a085015283810360c085015290506158798188615399565b905082810360e084015261588d8187615399565b915050836101008301526158a5610120830184615726565b9b9a5050505050505050505050565b600080604083850312156158c757600080fd5b6158d083615554565b91506158de60208401615449565b90509250929050565b8881526001600160a01b038881166020830152871660408201526101006060820181905260009061591a90830188615399565b828103608084015261592c8188615399565b90508560a084015282810360c08401526159468186615399565b9150508260e08301529998505050505050505050565b8981526001600160a01b038981166020830152881660408201526101206060820181905260009061598f90830189615399565b82810360808401526159a18189615399565b905082810360a08401526159b58188615399565b905082810360c08401526159c98187615399565b905082810360e08401526159dd8186615399565b915050826101008301529a9950505050505050505050565b600080600080600060a08688031215615a0d57600080fd5b853567ffffffffffffffff811115615a2457600080fd5b615a308882890161565a565b955050602086013567ffffffffffffffff811115615a4d57600080fd5b615a598882890161565a565b959895975050505060408401359360608101359360809091013592509050565b60008060008060808587031215615a8f57600080fd5b8435935060208501359250615aa660408601615554565b9150615ab460608601615554565b905092959194509250565b60208101611e7b82846154e1565b6001600160a01b038616815260a060208201819052600090615af190830187615399565b8281036040840152615b038187615399565b915050836060830152615b1960808301846154e1565b9695505050505050565b60008060408385031215615b3657600080fd5b50508035926020909101359150565b6020808252600d908201526c1058d8d95cdcc819195b9a5959609a1b604082015260600190565b600181811c90821680615b8057607f821691505b602082108103615ba057634e487b7160e01b600052602260045260246000fd5b50919050565b634e487b7160e01b600052603260045260246000fd5b6020808252601290820152712737ba1031b7b73a3930b1ba1037bbb732b960711b604082015260600190565b634e487b7160e01b600052601160045260246000fd5b81810381811115611e7b57611e7b615be8565b634e487b7160e01b600052603160045260246000fd5b600081615c3657615c36615be8565b506000190190565b6000808354615c4c81615b6c565b600182168015615c635760018114615c7857615ca8565b60ff1983168652811515820286019350615ca8565b86600052602060002060005b83811015615ca057815488820152600190910190602001615c84565b505081860193505b509195945050505050565b600060018201615cc557615cc5615be8565b5060010190565b601f821115615d1657806000526020600020601f840160051c81016020851015615cf35750805b601f840160051c820191505b81811015615d135760008155600101615cff565b50505b505050565b815167ffffffffffffffff811115615d3557615d35615644565b615d4981615d438454615b6c565b84615ccc565b6020601f821160018114615d7d5760008315615d655750848201515b600019600385901b1c1916600184901b178455615d13565b600084815260208120601f198516915b82811015615dad5787850151825560209485019460019092019101615d8d565b5084821015615dcb5786840151600019600387901b60f8161c191681555b50505050600190811b01905550565b80820180821115611e7b57611e7b615be856fea26469706673582212200d5130999c87194ade5b0d3132b8735d699051ead0445e4ce6b52bd075d4b12c64736f6c634300081c0033",
  "linkReferences": {},
  "deployedLinkReferences": {}
}